{
	"gist2.sol": {
		"demo": {
			"abi": [
				{
					"inputs": [
						{
							"internalType": "uint256",
							"name": "",
							"type": "uint256"
						}
					],
					"name": "data",
					"outputs": [
						{
							"internalType": "string",
							"name": "name",
							"type": "string"
						},
						{
							"internalType": "uint256",
							"name": "class",
							"type": "uint256"
						}
					],
					"stateMutability": "view",
					"type": "function"
				},
				{
					"inputs": [
						{
							"internalType": "uint256",
							"name": "_roll",
							"type": "uint256"
						},
						{
							"internalType": "string",
							"name": "_name",
							"type": "string"
						},
						{
							"internalType": "uint256",
							"name": "_class",
							"type": "uint256"
						}
					],
					"name": "setter",
					"outputs": [],
					"stateMutability": "nonpayable",
					"type": "function"
				}
			],
			"devdoc": {
				"kind": "dev",
				"methods": {},
				"version": 1
			},
			"evm": {
				"assembly": "    /* \"gist2.sol\":34:300  contract demo{... */\n  mstore(0x40, 0x80)\n  callvalue\n  dup1\n  iszero\n  tag_1\n  jumpi\n  0x00\n  dup1\n  revert\ntag_1:\n  pop\n  dataSize(sub_0)\n  dup1\n  dataOffset(sub_0)\n  0x00\n  codecopy\n  0x00\n  return\nstop\n\nsub_0: assembly {\n        /* \"gist2.sol\":34:300  contract demo{... */\n      mstore(0x40, 0x80)\n      callvalue\n      dup1\n      iszero\n      tag_1\n      jumpi\n      0x00\n      dup1\n      revert\n    tag_1:\n      pop\n      jumpi(tag_2, lt(calldatasize, 0x04))\n      shr(0xe0, calldataload(0x00))\n      dup1\n      0x0c22cf41\n      eq\n      tag_3\n      jumpi\n      dup1\n      0xf0ba8440\n      eq\n      tag_4\n      jumpi\n    tag_2:\n      0x00\n      dup1\n      revert\n        /* \"gist2.sol\":172:297  function setter(uint _roll  ,string memory _name,uint _class)public... */\n    tag_3:\n      tag_5\n      0x04\n      dup1\n      calldatasize\n      sub\n      dup2\n      add\n      swap1\n      tag_6\n      swap2\n      swap1\n      tag_7\n      jump\t// in\n    tag_6:\n      tag_8\n      jump\t// in\n    tag_5:\n      stop\n        /* \"gist2.sol\":130:163  mapping(uint=>Student)public data */\n    tag_4:\n      tag_9\n      0x04\n      dup1\n      calldatasize\n      sub\n      dup2\n      add\n      swap1\n      tag_10\n      swap2\n      swap1\n      tag_11\n      jump\t// in\n    tag_10:\n      tag_12\n      jump\t// in\n    tag_9:\n      mload(0x40)\n      tag_13\n      swap3\n      swap2\n      swap1\n      tag_14\n      jump\t// in\n    tag_13:\n      mload(0x40)\n      dup1\n      swap2\n      sub\n      swap1\n      return\n        /* \"gist2.sol\":172:297  function setter(uint _roll  ,string memory _name,uint _class)public... */\n    tag_8:\n        /* \"gist2.sol\":268:289  Student(_name,_class) */\n      mload(0x40)\n      dup1\n      0x40\n      add\n      0x40\n      mstore\n      dup1\n        /* \"gist2.sol\":276:281  _name */\n      dup4\n        /* \"gist2.sol\":268:289  Student(_name,_class) */\n      dup2\n      mstore\n      0x20\n      add\n        /* \"gist2.sol\":282:288  _class */\n      dup3\n        /* \"gist2.sol\":268:289  Student(_name,_class) */\n      dup2\n      mstore\n      pop\n        /* \"gist2.sol\":256:260  data */\n      0x00\n        /* \"gist2.sol\":256:267  data[_roll] */\n      dup1\n        /* \"gist2.sol\":261:266  _roll */\n      dup6\n        /* \"gist2.sol\":256:267  data[_roll] */\n      dup2\n      mstore\n      0x20\n      add\n      swap1\n      dup2\n      mstore\n      0x20\n      add\n      0x00\n      keccak256\n        /* \"gist2.sol\":256:289  data[_roll]=Student(_name,_class) */\n      0x00\n      dup3\n      add\n      mload\n      dup2\n      0x00\n      add\n      swap1\n      dup2\n      tag_16\n      swap2\n      swap1\n      tag_17\n      jump\t// in\n    tag_16:\n      pop\n      0x20\n      dup3\n      add\n      mload\n      dup2\n      0x01\n      add\n      sstore\n      swap1\n      pop\n      pop\n        /* \"gist2.sol\":172:297  function setter(uint _roll  ,string memory _name,uint _class)public... */\n      pop\n      pop\n      pop\n      jump\t// out\n        /* \"gist2.sol\":130:163  mapping(uint=>Student)public data */\n    tag_12:\n      mstore(0x20, 0x00)\n      dup1\n      0x00\n      mstore\n      keccak256(0x00, 0x40)\n      0x00\n      swap2\n      pop\n      swap1\n      pop\n      dup1\n      0x00\n      add\n      dup1\n      sload\n      tag_18\n      swap1\n      tag_19\n      jump\t// in\n    tag_18:\n      dup1\n      0x1f\n      add\n      0x20\n      dup1\n      swap2\n      div\n      mul\n      0x20\n      add\n      mload(0x40)\n      swap1\n      dup2\n      add\n      0x40\n      mstore\n      dup1\n      swap3\n      swap2\n      swap1\n      dup2\n      dup2\n      mstore\n      0x20\n      add\n      dup3\n      dup1\n      sload\n      tag_20\n      swap1\n      tag_19\n      jump\t// in\n    tag_20:\n      dup1\n      iszero\n      tag_21\n      jumpi\n      dup1\n      0x1f\n      lt\n      tag_22\n      jumpi\n      0x0100\n      dup1\n      dup4\n      sload\n      div\n      mul\n      dup4\n      mstore\n      swap2\n      0x20\n      add\n      swap2\n      jump(tag_21)\n    tag_22:\n      dup3\n      add\n      swap2\n      swap1\n      0x00\n      mstore\n      keccak256(0x00, 0x20)\n      swap1\n    tag_23:\n      dup2\n      sload\n      dup2\n      mstore\n      swap1\n      0x01\n      add\n      swap1\n      0x20\n      add\n      dup1\n      dup4\n      gt\n      tag_23\n      jumpi\n      dup3\n      swap1\n      sub\n      0x1f\n      and\n      dup3\n      add\n      swap2\n    tag_21:\n      pop\n      pop\n      pop\n      pop\n      pop\n      swap1\n      dup1\n      0x01\n      add\n      sload\n      swap1\n      pop\n      dup3\n      jump\t// out\n        /* \"#utility.yul\":7:82   */\n    tag_24:\n        /* \"#utility.yul\":40:46   */\n      0x00\n        /* \"#utility.yul\":73:75   */\n      0x40\n        /* \"#utility.yul\":67:76   */\n      mload\n        /* \"#utility.yul\":57:76   */\n      swap1\n      pop\n        /* \"#utility.yul\":7:82   */\n      swap1\n      jump\t// out\n        /* \"#utility.yul\":88:205   */\n    tag_25:\n        /* \"#utility.yul\":197:198   */\n      0x00\n        /* \"#utility.yul\":194:195   */\n      dup1\n        /* \"#utility.yul\":187:199   */\n      revert\n        /* \"#utility.yul\":211:328   */\n    tag_26:\n        /* \"#utility.yul\":320:321   */\n      0x00\n        /* \"#utility.yul\":317:318   */\n      dup1\n        /* \"#utility.yul\":310:322   */\n      revert\n        /* \"#utility.yul\":334:411   */\n    tag_27:\n        /* \"#utility.yul\":371:378   */\n      0x00\n        /* \"#utility.yul\":400:405   */\n      dup2\n        /* \"#utility.yul\":389:405   */\n      swap1\n      pop\n        /* \"#utility.yul\":334:411   */\n      swap2\n      swap1\n      pop\n      jump\t// out\n        /* \"#utility.yul\":417:539   */\n    tag_28:\n        /* \"#utility.yul\":490:514   */\n      tag_67\n        /* \"#utility.yul\":508:513   */\n      dup2\n        /* \"#utility.yul\":490:514   */\n      tag_27\n      jump\t// in\n    tag_67:\n        /* \"#utility.yul\":483:488   */\n      dup2\n        /* \"#utility.yul\":480:515   */\n      eq\n        /* \"#utility.yul\":470:533   */\n      tag_68\n      jumpi\n        /* \"#utility.yul\":529:530   */\n      0x00\n        /* \"#utility.yul\":526:527   */\n      dup1\n        /* \"#utility.yul\":519:531   */\n      revert\n        /* \"#utility.yul\":470:533   */\n    tag_68:\n        /* \"#utility.yul\":417:539   */\n      pop\n      jump\t// out\n        /* \"#utility.yul\":545:684   */\n    tag_29:\n        /* \"#utility.yul\":591:596   */\n      0x00\n        /* \"#utility.yul\":629:635   */\n      dup2\n        /* \"#utility.yul\":616:636   */\n      calldataload\n        /* \"#utility.yul\":607:636   */\n      swap1\n      pop\n        /* \"#utility.yul\":645:678   */\n      tag_70\n        /* \"#utility.yul\":672:677   */\n      dup2\n        /* \"#utility.yul\":645:678   */\n      tag_28\n      jump\t// in\n    tag_70:\n        /* \"#utility.yul\":545:684   */\n      swap3\n      swap2\n      pop\n      pop\n      jump\t// out\n        /* \"#utility.yul\":690:807   */\n    tag_30:\n        /* \"#utility.yul\":799:800   */\n      0x00\n        /* \"#utility.yul\":796:797   */\n      dup1\n        /* \"#utility.yul\":789:801   */\n      revert\n        /* \"#utility.yul\":813:930   */\n    tag_31:\n        /* \"#utility.yul\":922:923   */\n      0x00\n        /* \"#utility.yul\":919:920   */\n      dup1\n        /* \"#utility.yul\":912:924   */\n      revert\n        /* \"#utility.yul\":936:1038   */\n    tag_32:\n        /* \"#utility.yul\":977:983   */\n      0x00\n        /* \"#utility.yul\":1028:1030   */\n      0x1f\n        /* \"#utility.yul\":1024:1031   */\n      not\n        /* \"#utility.yul\":1019:1021   */\n      0x1f\n        /* \"#utility.yul\":1012:1017   */\n      dup4\n        /* \"#utility.yul\":1008:1022   */\n      add\n        /* \"#utility.yul\":1004:1032   */\n      and\n        /* \"#utility.yul\":994:1032   */\n      swap1\n      pop\n        /* \"#utility.yul\":936:1038   */\n      swap2\n      swap1\n      pop\n      jump\t// out\n        /* \"#utility.yul\":1044:1224   */\n    tag_33:\n        /* \"#utility.yul\":1092:1169   */\n      0x4e487b7100000000000000000000000000000000000000000000000000000000\n        /* \"#utility.yul\":1089:1090   */\n      0x00\n        /* \"#utility.yul\":1082:1170   */\n      mstore\n        /* \"#utility.yul\":1189:1193   */\n      0x41\n        /* \"#utility.yul\":1186:1187   */\n      0x04\n        /* \"#utility.yul\":1179:1194   */\n      mstore\n        /* \"#utility.yul\":1213:1217   */\n      0x24\n        /* \"#utility.yul\":1210:1211   */\n      0x00\n        /* \"#utility.yul\":1203:1218   */\n      revert\n        /* \"#utility.yul\":1230:1511   */\n    tag_34:\n        /* \"#utility.yul\":1313:1340   */\n      tag_76\n        /* \"#utility.yul\":1335:1339   */\n      dup3\n        /* \"#utility.yul\":1313:1340   */\n      tag_32\n      jump\t// in\n    tag_76:\n        /* \"#utility.yul\":1305:1311   */\n      dup2\n        /* \"#utility.yul\":1301:1341   */\n      add\n        /* \"#utility.yul\":1443:1449   */\n      dup2\n        /* \"#utility.yul\":1431:1441   */\n      dup2\n        /* \"#utility.yul\":1428:1450   */\n      lt\n        /* \"#utility.yul\":1407:1425   */\n      0xffffffffffffffff\n        /* \"#utility.yul\":1395:1405   */\n      dup3\n        /* \"#utility.yul\":1392:1426   */\n      gt\n        /* \"#utility.yul\":1389:1451   */\n      or\n        /* \"#utility.yul\":1386:1474   */\n      iszero\n      tag_77\n      jumpi\n        /* \"#utility.yul\":1454:1472   */\n      tag_78\n      tag_33\n      jump\t// in\n    tag_78:\n        /* \"#utility.yul\":1386:1474   */\n    tag_77:\n        /* \"#utility.yul\":1494:1504   */\n      dup1\n        /* \"#utility.yul\":1490:1492   */\n      0x40\n        /* \"#utility.yul\":1483:1505   */\n      mstore\n        /* \"#utility.yul\":1273:1511   */\n      pop\n        /* \"#utility.yul\":1230:1511   */\n      pop\n      pop\n      jump\t// out\n        /* \"#utility.yul\":1517:1646   */\n    tag_35:\n        /* \"#utility.yul\":1551:1557   */\n      0x00\n        /* \"#utility.yul\":1578:1598   */\n      tag_80\n      tag_24\n      jump\t// in\n    tag_80:\n        /* \"#utility.yul\":1568:1598   */\n      swap1\n      pop\n        /* \"#utility.yul\":1607:1640   */\n      tag_81\n        /* \"#utility.yul\":1635:1639   */\n      dup3\n        /* \"#utility.yul\":1627:1633   */\n      dup3\n        /* \"#utility.yul\":1607:1640   */\n      tag_34\n      jump\t// in\n    tag_81:\n        /* \"#utility.yul\":1517:1646   */\n      swap2\n      swap1\n      pop\n      jump\t// out\n        /* \"#utility.yul\":1652:1960   */\n    tag_36:\n        /* \"#utility.yul\":1714:1718   */\n      0x00\n        /* \"#utility.yul\":1804:1822   */\n      0xffffffffffffffff\n        /* \"#utility.yul\":1796:1802   */\n      dup3\n        /* \"#utility.yul\":1793:1823   */\n      gt\n        /* \"#utility.yul\":1790:1846   */\n      iszero\n      tag_83\n      jumpi\n        /* \"#utility.yul\":1826:1844   */\n      tag_84\n      tag_33\n      jump\t// in\n    tag_84:\n        /* \"#utility.yul\":1790:1846   */\n    tag_83:\n        /* \"#utility.yul\":1864:1893   */\n      tag_85\n        /* \"#utility.yul\":1886:1892   */\n      dup3\n        /* \"#utility.yul\":1864:1893   */\n      tag_32\n      jump\t// in\n    tag_85:\n        /* \"#utility.yul\":1856:1893   */\n      swap1\n      pop\n        /* \"#utility.yul\":1948:1952   */\n      0x20\n        /* \"#utility.yul\":1942:1946   */\n      dup2\n        /* \"#utility.yul\":1938:1953   */\n      add\n        /* \"#utility.yul\":1930:1953   */\n      swap1\n      pop\n        /* \"#utility.yul\":1652:1960   */\n      swap2\n      swap1\n      pop\n      jump\t// out\n        /* \"#utility.yul\":1966:2120   */\n    tag_37:\n        /* \"#utility.yul\":2050:2056   */\n      dup3\n        /* \"#utility.yul\":2045:2048   */\n      dup2\n        /* \"#utility.yul\":2040:2043   */\n      dup4\n        /* \"#utility.yul\":2027:2057   */\n      calldatacopy\n        /* \"#utility.yul\":2112:2113   */\n      0x00\n        /* \"#utility.yul\":2103:2109   */\n      dup4\n        /* \"#utility.yul\":2098:2101   */\n      dup4\n        /* \"#utility.yul\":2094:2110   */\n      add\n        /* \"#utility.yul\":2087:2114   */\n      mstore\n        /* \"#utility.yul\":1966:2120   */\n      pop\n      pop\n      pop\n      jump\t// out\n        /* \"#utility.yul\":2126:2538   */\n    tag_38:\n        /* \"#utility.yul\":2204:2209   */\n      0x00\n        /* \"#utility.yul\":2229:2295   */\n      tag_88\n        /* \"#utility.yul\":2245:2294   */\n      tag_89\n        /* \"#utility.yul\":2287:2293   */\n      dup5\n        /* \"#utility.yul\":2245:2294   */\n      tag_36\n      jump\t// in\n    tag_89:\n        /* \"#utility.yul\":2229:2295   */\n      tag_35\n      jump\t// in\n    tag_88:\n        /* \"#utility.yul\":2220:2295   */\n      swap1\n      pop\n        /* \"#utility.yul\":2318:2324   */\n      dup3\n        /* \"#utility.yul\":2311:2316   */\n      dup2\n        /* \"#utility.yul\":2304:2325   */\n      mstore\n        /* \"#utility.yul\":2356:2360   */\n      0x20\n        /* \"#utility.yul\":2349:2354   */\n      dup2\n        /* \"#utility.yul\":2345:2361   */\n      add\n        /* \"#utility.yul\":2394:2397   */\n      dup5\n        /* \"#utility.yul\":2385:2391   */\n      dup5\n        /* \"#utility.yul\":2380:2383   */\n      dup5\n        /* \"#utility.yul\":2376:2392   */\n      add\n        /* \"#utility.yul\":2373:2398   */\n      gt\n        /* \"#utility.yul\":2370:2482   */\n      iszero\n      tag_90\n      jumpi\n        /* \"#utility.yul\":2401:2480   */\n      tag_91\n      tag_31\n      jump\t// in\n    tag_91:\n        /* \"#utility.yul\":2370:2482   */\n    tag_90:\n        /* \"#utility.yul\":2491:2532   */\n      tag_92\n        /* \"#utility.yul\":2525:2531   */\n      dup5\n        /* \"#utility.yul\":2520:2523   */\n      dup3\n        /* \"#utility.yul\":2515:2518   */\n      dup6\n        /* \"#utility.yul\":2491:2532   */\n      tag_37\n      jump\t// in\n    tag_92:\n        /* \"#utility.yul\":2210:2538   */\n      pop\n        /* \"#utility.yul\":2126:2538   */\n      swap4\n      swap3\n      pop\n      pop\n      pop\n      jump\t// out\n        /* \"#utility.yul\":2558:2898   */\n    tag_39:\n        /* \"#utility.yul\":2614:2619   */\n      0x00\n        /* \"#utility.yul\":2663:2666   */\n      dup3\n        /* \"#utility.yul\":2656:2660   */\n      0x1f\n        /* \"#utility.yul\":2648:2654   */\n      dup4\n        /* \"#utility.yul\":2644:2661   */\n      add\n        /* \"#utility.yul\":2640:2667   */\n      slt\n        /* \"#utility.yul\":2630:2752   */\n      tag_94\n      jumpi\n        /* \"#utility.yul\":2671:2750   */\n      tag_95\n      tag_30\n      jump\t// in\n    tag_95:\n        /* \"#utility.yul\":2630:2752   */\n    tag_94:\n        /* \"#utility.yul\":2788:2794   */\n      dup2\n        /* \"#utility.yul\":2775:2795   */\n      calldataload\n        /* \"#utility.yul\":2813:2892   */\n      tag_96\n        /* \"#utility.yul\":2888:2891   */\n      dup5\n        /* \"#utility.yul\":2880:2886   */\n      dup3\n        /* \"#utility.yul\":2873:2877   */\n      0x20\n        /* \"#utility.yul\":2865:2871   */\n      dup7\n        /* \"#utility.yul\":2861:2878   */\n      add\n        /* \"#utility.yul\":2813:2892   */\n      tag_38\n      jump\t// in\n    tag_96:\n        /* \"#utility.yul\":2804:2892   */\n      swap2\n      pop\n        /* \"#utility.yul\":2620:2898   */\n      pop\n        /* \"#utility.yul\":2558:2898   */\n      swap3\n      swap2\n      pop\n      pop\n      jump\t// out\n        /* \"#utility.yul\":2904:3703   */\n    tag_7:\n        /* \"#utility.yul\":2991:2997   */\n      0x00\n        /* \"#utility.yul\":2999:3005   */\n      dup1\n        /* \"#utility.yul\":3007:3013   */\n      0x00\n        /* \"#utility.yul\":3056:3058   */\n      0x60\n        /* \"#utility.yul\":3044:3053   */\n      dup5\n        /* \"#utility.yul\":3035:3042   */\n      dup7\n        /* \"#utility.yul\":3031:3054   */\n      sub\n        /* \"#utility.yul\":3027:3059   */\n      slt\n        /* \"#utility.yul\":3024:3143   */\n      iszero\n      tag_98\n      jumpi\n        /* \"#utility.yul\":3062:3141   */\n      tag_99\n      tag_25\n      jump\t// in\n    tag_99:\n        /* \"#utility.yul\":3024:3143   */\n    tag_98:\n        /* \"#utility.yul\":3182:3183   */\n      0x00\n        /* \"#utility.yul\":3207:3260   */\n      tag_100\n        /* \"#utility.yul\":3252:3259   */\n      dup7\n        /* \"#utility.yul\":3243:3249   */\n      dup3\n        /* \"#utility.yul\":3232:3241   */\n      dup8\n        /* \"#utility.yul\":3228:3250   */\n      add\n        /* \"#utility.yul\":3207:3260   */\n      tag_29\n      jump\t// in\n    tag_100:\n        /* \"#utility.yul\":3197:3260   */\n      swap4\n      pop\n        /* \"#utility.yul\":3153:3270   */\n      pop\n        /* \"#utility.yul\":3337:3339   */\n      0x20\n        /* \"#utility.yul\":3326:3335   */\n      dup5\n        /* \"#utility.yul\":3322:3340   */\n      add\n        /* \"#utility.yul\":3309:3341   */\n      calldataload\n        /* \"#utility.yul\":3368:3386   */\n      0xffffffffffffffff\n        /* \"#utility.yul\":3360:3366   */\n      dup2\n        /* \"#utility.yul\":3357:3387   */\n      gt\n        /* \"#utility.yul\":3354:3471   */\n      iszero\n      tag_101\n      jumpi\n        /* \"#utility.yul\":3390:3469   */\n      tag_102\n      tag_26\n      jump\t// in\n    tag_102:\n        /* \"#utility.yul\":3354:3471   */\n    tag_101:\n        /* \"#utility.yul\":3495:3558   */\n      tag_103\n        /* \"#utility.yul\":3550:3557   */\n      dup7\n        /* \"#utility.yul\":3541:3547   */\n      dup3\n        /* \"#utility.yul\":3530:3539   */\n      dup8\n        /* \"#utility.yul\":3526:3548   */\n      add\n        /* \"#utility.yul\":3495:3558   */\n      tag_39\n      jump\t// in\n    tag_103:\n        /* \"#utility.yul\":3485:3558   */\n      swap3\n      pop\n        /* \"#utility.yul\":3280:3568   */\n      pop\n        /* \"#utility.yul\":3607:3609   */\n      0x40\n        /* \"#utility.yul\":3633:3686   */\n      tag_104\n        /* \"#utility.yul\":3678:3685   */\n      dup7\n        /* \"#utility.yul\":3669:3675   */\n      dup3\n        /* \"#utility.yul\":3658:3667   */\n      dup8\n        /* \"#utility.yul\":3654:3676   */\n      add\n        /* \"#utility.yul\":3633:3686   */\n      tag_29\n      jump\t// in\n    tag_104:\n        /* \"#utility.yul\":3623:3686   */\n      swap2\n      pop\n        /* \"#utility.yul\":3578:3696   */\n      pop\n        /* \"#utility.yul\":2904:3703   */\n      swap3\n      pop\n      swap3\n      pop\n      swap3\n      jump\t// out\n        /* \"#utility.yul\":3709:4038   */\n    tag_11:\n        /* \"#utility.yul\":3768:3774   */\n      0x00\n        /* \"#utility.yul\":3817:3819   */\n      0x20\n        /* \"#utility.yul\":3805:3814   */\n      dup3\n        /* \"#utility.yul\":3796:3803   */\n      dup5\n        /* \"#utility.yul\":3792:3815   */\n      sub\n        /* \"#utility.yul\":3788:3820   */\n      slt\n        /* \"#utility.yul\":3785:3904   */\n      iszero\n      tag_106\n      jumpi\n        /* \"#utility.yul\":3823:3902   */\n      tag_107\n      tag_25\n      jump\t// in\n    tag_107:\n        /* \"#utility.yul\":3785:3904   */\n    tag_106:\n        /* \"#utility.yul\":3943:3944   */\n      0x00\n        /* \"#utility.yul\":3968:4021   */\n      tag_108\n        /* \"#utility.yul\":4013:4020   */\n      dup5\n        /* \"#utility.yul\":4004:4010   */\n      dup3\n        /* \"#utility.yul\":3993:4002   */\n      dup6\n        /* \"#utility.yul\":3989:4011   */\n      add\n        /* \"#utility.yul\":3968:4021   */\n      tag_29\n      jump\t// in\n    tag_108:\n        /* \"#utility.yul\":3958:4021   */\n      swap2\n      pop\n        /* \"#utility.yul\":3914:4031   */\n      pop\n        /* \"#utility.yul\":3709:4038   */\n      swap3\n      swap2\n      pop\n      pop\n      jump\t// out\n        /* \"#utility.yul\":4044:4143   */\n    tag_40:\n        /* \"#utility.yul\":4096:4102   */\n      0x00\n        /* \"#utility.yul\":4130:4135   */\n      dup2\n        /* \"#utility.yul\":4124:4136   */\n      mload\n        /* \"#utility.yul\":4114:4136   */\n      swap1\n      pop\n        /* \"#utility.yul\":4044:4143   */\n      swap2\n      swap1\n      pop\n      jump\t// out\n        /* \"#utility.yul\":4149:4318   */\n    tag_41:\n        /* \"#utility.yul\":4233:4244   */\n      0x00\n        /* \"#utility.yul\":4267:4273   */\n      dup3\n        /* \"#utility.yul\":4262:4265   */\n      dup3\n        /* \"#utility.yul\":4255:4274   */\n      mstore\n        /* \"#utility.yul\":4307:4311   */\n      0x20\n        /* \"#utility.yul\":4302:4305   */\n      dup3\n        /* \"#utility.yul\":4298:4312   */\n      add\n        /* \"#utility.yul\":4283:4312   */\n      swap1\n      pop\n        /* \"#utility.yul\":4149:4318   */\n      swap3\n      swap2\n      pop\n      pop\n      jump\t// out\n        /* \"#utility.yul\":4324:4631   */\n    tag_42:\n        /* \"#utility.yul\":4392:4393   */\n      0x00\n        /* \"#utility.yul\":4402:4515   */\n    tag_112:\n        /* \"#utility.yul\":4416:4422   */\n      dup4\n        /* \"#utility.yul\":4413:4414   */\n      dup2\n        /* \"#utility.yul\":4410:4423   */\n      lt\n        /* \"#utility.yul\":4402:4515   */\n      iszero\n      tag_114\n      jumpi\n        /* \"#utility.yul\":4501:4502   */\n      dup1\n        /* \"#utility.yul\":4496:4499   */\n      dup3\n        /* \"#utility.yul\":4492:4503   */\n      add\n        /* \"#utility.yul\":4486:4504   */\n      mload\n        /* \"#utility.yul\":4482:4483   */\n      dup2\n        /* \"#utility.yul\":4477:4480   */\n      dup5\n        /* \"#utility.yul\":4473:4484   */\n      add\n        /* \"#utility.yul\":4466:4505   */\n      mstore\n        /* \"#utility.yul\":4438:4440   */\n      0x20\n        /* \"#utility.yul\":4435:4436   */\n      dup2\n        /* \"#utility.yul\":4431:4441   */\n      add\n        /* \"#utility.yul\":4426:4441   */\n      swap1\n      pop\n        /* \"#utility.yul\":4402:4515   */\n      jump(tag_112)\n    tag_114:\n        /* \"#utility.yul\":4533:4539   */\n      dup4\n        /* \"#utility.yul\":4530:4531   */\n      dup2\n        /* \"#utility.yul\":4527:4540   */\n      gt\n        /* \"#utility.yul\":4524:4625   */\n      iszero\n      tag_115\n      jumpi\n        /* \"#utility.yul\":4613:4614   */\n      0x00\n        /* \"#utility.yul\":4604:4610   */\n      dup5\n        /* \"#utility.yul\":4599:4602   */\n      dup5\n        /* \"#utility.yul\":4595:4611   */\n      add\n        /* \"#utility.yul\":4588:4615   */\n      mstore\n        /* \"#utility.yul\":4524:4625   */\n    tag_115:\n        /* \"#utility.yul\":4373:4631   */\n      pop\n        /* \"#utility.yul\":4324:4631   */\n      pop\n      pop\n      pop\n      jump\t// out\n        /* \"#utility.yul\":4637:5001   */\n    tag_43:\n        /* \"#utility.yul\":4725:4728   */\n      0x00\n        /* \"#utility.yul\":4753:4792   */\n      tag_117\n        /* \"#utility.yul\":4786:4791   */\n      dup3\n        /* \"#utility.yul\":4753:4792   */\n      tag_40\n      jump\t// in\n    tag_117:\n        /* \"#utility.yul\":4808:4879   */\n      tag_118\n        /* \"#utility.yul\":4872:4878   */\n      dup2\n        /* \"#utility.yul\":4867:4870   */\n      dup6\n        /* \"#utility.yul\":4808:4879   */\n      tag_41\n      jump\t// in\n    tag_118:\n        /* \"#utility.yul\":4801:4879   */\n      swap4\n      pop\n        /* \"#utility.yul\":4888:4940   */\n      tag_119\n        /* \"#utility.yul\":4933:4939   */\n      dup2\n        /* \"#utility.yul\":4928:4931   */\n      dup6\n        /* \"#utility.yul\":4921:4925   */\n      0x20\n        /* \"#utility.yul\":4914:4919   */\n      dup7\n        /* \"#utility.yul\":4910:4926   */\n      add\n        /* \"#utility.yul\":4888:4940   */\n      tag_42\n      jump\t// in\n    tag_119:\n        /* \"#utility.yul\":4965:4994   */\n      tag_120\n        /* \"#utility.yul\":4987:4993   */\n      dup2\n        /* \"#utility.yul\":4965:4994   */\n      tag_32\n      jump\t// in\n    tag_120:\n        /* \"#utility.yul\":4960:4963   */\n      dup5\n        /* \"#utility.yul\":4956:4995   */\n      add\n        /* \"#utility.yul\":4949:4995   */\n      swap2\n      pop\n        /* \"#utility.yul\":4729:5001   */\n      pop\n        /* \"#utility.yul\":4637:5001   */\n      swap3\n      swap2\n      pop\n      pop\n      jump\t// out\n        /* \"#utility.yul\":5007:5125   */\n    tag_44:\n        /* \"#utility.yul\":5094:5118   */\n      tag_122\n        /* \"#utility.yul\":5112:5117   */\n      dup2\n        /* \"#utility.yul\":5094:5118   */\n      tag_27\n      jump\t// in\n    tag_122:\n        /* \"#utility.yul\":5089:5092   */\n      dup3\n        /* \"#utility.yul\":5082:5119   */\n      mstore\n        /* \"#utility.yul\":5007:5125   */\n      pop\n      pop\n      jump\t// out\n        /* \"#utility.yul\":5131:5554   */\n    tag_14:\n        /* \"#utility.yul\":5272:5276   */\n      0x00\n        /* \"#utility.yul\":5310:5312   */\n      0x40\n        /* \"#utility.yul\":5299:5308   */\n      dup3\n        /* \"#utility.yul\":5295:5313   */\n      add\n        /* \"#utility.yul\":5287:5313   */\n      swap1\n      pop\n        /* \"#utility.yul\":5359:5368   */\n      dup2\n        /* \"#utility.yul\":5353:5357   */\n      dup2\n        /* \"#utility.yul\":5349:5369   */\n      sub\n        /* \"#utility.yul\":5345:5346   */\n      0x00\n        /* \"#utility.yul\":5334:5343   */\n      dup4\n        /* \"#utility.yul\":5330:5347   */\n      add\n        /* \"#utility.yul\":5323:5370   */\n      mstore\n        /* \"#utility.yul\":5387:5465   */\n      tag_124\n        /* \"#utility.yul\":5460:5464   */\n      dup2\n        /* \"#utility.yul\":5451:5457   */\n      dup6\n        /* \"#utility.yul\":5387:5465   */\n      tag_43\n      jump\t// in\n    tag_124:\n        /* \"#utility.yul\":5379:5465   */\n      swap1\n      pop\n        /* \"#utility.yul\":5475:5547   */\n      tag_125\n        /* \"#utility.yul\":5543:5545   */\n      0x20\n        /* \"#utility.yul\":5532:5541   */\n      dup4\n        /* \"#utility.yul\":5528:5546   */\n      add\n        /* \"#utility.yul\":5519:5525   */\n      dup5\n        /* \"#utility.yul\":5475:5547   */\n      tag_44\n      jump\t// in\n    tag_125:\n        /* \"#utility.yul\":5131:5554   */\n      swap4\n      swap3\n      pop\n      pop\n      pop\n      jump\t// out\n        /* \"#utility.yul\":5560:5740   */\n    tag_45:\n        /* \"#utility.yul\":5608:5685   */\n      0x4e487b7100000000000000000000000000000000000000000000000000000000\n        /* \"#utility.yul\":5605:5606   */\n      0x00\n        /* \"#utility.yul\":5598:5686   */\n      mstore\n        /* \"#utility.yul\":5705:5709   */\n      0x22\n        /* \"#utility.yul\":5702:5703   */\n      0x04\n        /* \"#utility.yul\":5695:5710   */\n      mstore\n        /* \"#utility.yul\":5729:5733   */\n      0x24\n        /* \"#utility.yul\":5726:5727   */\n      0x00\n        /* \"#utility.yul\":5719:5734   */\n      revert\n        /* \"#utility.yul\":5746:6066   */\n    tag_19:\n        /* \"#utility.yul\":5790:5796   */\n      0x00\n        /* \"#utility.yul\":5827:5828   */\n      0x02\n        /* \"#utility.yul\":5821:5825   */\n      dup3\n        /* \"#utility.yul\":5817:5829   */\n      div\n        /* \"#utility.yul\":5807:5829   */\n      swap1\n      pop\n        /* \"#utility.yul\":5874:5875   */\n      0x01\n        /* \"#utility.yul\":5868:5872   */\n      dup3\n        /* \"#utility.yul\":5864:5876   */\n      and\n        /* \"#utility.yul\":5895:5913   */\n      dup1\n        /* \"#utility.yul\":5885:5966   */\n      tag_128\n      jumpi\n        /* \"#utility.yul\":5951:5955   */\n      0x7f\n        /* \"#utility.yul\":5943:5949   */\n      dup3\n        /* \"#utility.yul\":5939:5956   */\n      and\n        /* \"#utility.yul\":5929:5956   */\n      swap2\n      pop\n        /* \"#utility.yul\":5885:5966   */\n    tag_128:\n        /* \"#utility.yul\":6013:6015   */\n      0x20\n        /* \"#utility.yul\":6005:6011   */\n      dup3\n        /* \"#utility.yul\":6002:6016   */\n      lt\n        /* \"#utility.yul\":5982:6000   */\n      dup2\n        /* \"#utility.yul\":5979:6017   */\n      sub\n        /* \"#utility.yul\":5976:6060   */\n      tag_129\n      jumpi\n        /* \"#utility.yul\":6032:6050   */\n      tag_130\n      tag_45\n      jump\t// in\n    tag_130:\n        /* \"#utility.yul\":5976:6060   */\n    tag_129:\n        /* \"#utility.yul\":5797:6066   */\n      pop\n        /* \"#utility.yul\":5746:6066   */\n      swap2\n      swap1\n      pop\n      jump\t// out\n        /* \"#utility.yul\":6072:6213   */\n    tag_46:\n        /* \"#utility.yul\":6121:6125   */\n      0x00\n        /* \"#utility.yul\":6144:6147   */\n      dup2\n        /* \"#utility.yul\":6136:6147   */\n      swap1\n      pop\n        /* \"#utility.yul\":6167:6170   */\n      dup2\n        /* \"#utility.yul\":6164:6165   */\n      0x00\n        /* \"#utility.yul\":6157:6171   */\n      mstore\n        /* \"#utility.yul\":6201:6205   */\n      0x20\n        /* \"#utility.yul\":6198:6199   */\n      0x00\n        /* \"#utility.yul\":6188:6206   */\n      keccak256\n        /* \"#utility.yul\":6180:6206   */\n      swap1\n      pop\n        /* \"#utility.yul\":6072:6213   */\n      swap2\n      swap1\n      pop\n      jump\t// out\n        /* \"#utility.yul\":6219:6312   */\n    tag_47:\n        /* \"#utility.yul\":6256:6262   */\n      0x00\n        /* \"#utility.yul\":6303:6305   */\n      0x20\n        /* \"#utility.yul\":6298:6300   */\n      0x1f\n        /* \"#utility.yul\":6291:6296   */\n      dup4\n        /* \"#utility.yul\":6287:6301   */\n      add\n        /* \"#utility.yul\":6283:6306   */\n      div\n        /* \"#utility.yul\":6273:6306   */\n      swap1\n      pop\n        /* \"#utility.yul\":6219:6312   */\n      swap2\n      swap1\n      pop\n      jump\t// out\n        /* \"#utility.yul\":6318:6425   */\n    tag_48:\n        /* \"#utility.yul\":6362:6370   */\n      0x00\n        /* \"#utility.yul\":6412:6417   */\n      dup3\n        /* \"#utility.yul\":6406:6410   */\n      dup3\n        /* \"#utility.yul\":6402:6418   */\n      shl\n        /* \"#utility.yul\":6381:6418   */\n      swap1\n      pop\n        /* \"#utility.yul\":6318:6425   */\n      swap3\n      swap2\n      pop\n      pop\n      jump\t// out\n        /* \"#utility.yul\":6431:6824   */\n    tag_49:\n        /* \"#utility.yul\":6500:6506   */\n      0x00\n        /* \"#utility.yul\":6550:6551   */\n      0x08\n        /* \"#utility.yul\":6538:6548   */\n      dup4\n        /* \"#utility.yul\":6534:6552   */\n      mul\n        /* \"#utility.yul\":6573:6670   */\n      tag_135\n        /* \"#utility.yul\":6603:6669   */\n      0xffffffffffffffffffffffffffffffffffffffffffffffffffffffffffffffff\n        /* \"#utility.yul\":6592:6601   */\n      dup3\n        /* \"#utility.yul\":6573:6670   */\n      tag_48\n      jump\t// in\n    tag_135:\n        /* \"#utility.yul\":6691:6730   */\n      tag_136\n        /* \"#utility.yul\":6721:6729   */\n      dup7\n        /* \"#utility.yul\":6710:6719   */\n      dup4\n        /* \"#utility.yul\":6691:6730   */\n      tag_48\n      jump\t// in\n    tag_136:\n        /* \"#utility.yul\":6679:6730   */\n      swap6\n      pop\n        /* \"#utility.yul\":6763:6767   */\n      dup1\n        /* \"#utility.yul\":6759:6768   */\n      not\n        /* \"#utility.yul\":6752:6757   */\n      dup5\n        /* \"#utility.yul\":6748:6769   */\n      and\n        /* \"#utility.yul\":6739:6769   */\n      swap4\n      pop\n        /* \"#utility.yul\":6812:6816   */\n      dup1\n        /* \"#utility.yul\":6802:6810   */\n      dup7\n        /* \"#utility.yul\":6798:6817   */\n      and\n        /* \"#utility.yul\":6791:6796   */\n      dup5\n        /* \"#utility.yul\":6788:6818   */\n      or\n        /* \"#utility.yul\":6778:6818   */\n      swap3\n      pop\n        /* \"#utility.yul\":6507:6824   */\n      pop\n      pop\n        /* \"#utility.yul\":6431:6824   */\n      swap4\n      swap3\n      pop\n      pop\n      pop\n      jump\t// out\n        /* \"#utility.yul\":6830:6890   */\n    tag_50:\n        /* \"#utility.yul\":6858:6861   */\n      0x00\n        /* \"#utility.yul\":6879:6884   */\n      dup2\n        /* \"#utility.yul\":6872:6884   */\n      swap1\n      pop\n        /* \"#utility.yul\":6830:6890   */\n      swap2\n      swap1\n      pop\n      jump\t// out\n        /* \"#utility.yul\":6896:7038   */\n    tag_51:\n        /* \"#utility.yul\":6946:6955   */\n      0x00\n        /* \"#utility.yul\":6979:7032   */\n      tag_139\n        /* \"#utility.yul\":6997:7031   */\n      tag_140\n        /* \"#utility.yul\":7006:7030   */\n      tag_141\n        /* \"#utility.yul\":7024:7029   */\n      dup5\n        /* \"#utility.yul\":7006:7030   */\n      tag_27\n      jump\t// in\n    tag_141:\n        /* \"#utility.yul\":6997:7031   */\n      tag_50\n      jump\t// in\n    tag_140:\n        /* \"#utility.yul\":6979:7032   */\n      tag_27\n      jump\t// in\n    tag_139:\n        /* \"#utility.yul\":6966:7032   */\n      swap1\n      pop\n        /* \"#utility.yul\":6896:7038   */\n      swap2\n      swap1\n      pop\n      jump\t// out\n        /* \"#utility.yul\":7044:7119   */\n    tag_52:\n        /* \"#utility.yul\":7087:7090   */\n      0x00\n        /* \"#utility.yul\":7108:7113   */\n      dup2\n        /* \"#utility.yul\":7101:7113   */\n      swap1\n      pop\n        /* \"#utility.yul\":7044:7119   */\n      swap2\n      swap1\n      pop\n      jump\t// out\n        /* \"#utility.yul\":7125:7394   */\n    tag_53:\n        /* \"#utility.yul\":7235:7274   */\n      tag_144\n        /* \"#utility.yul\":7266:7273   */\n      dup4\n        /* \"#utility.yul\":7235:7274   */\n      tag_51\n      jump\t// in\n    tag_144:\n        /* \"#utility.yul\":7296:7387   */\n      tag_145\n        /* \"#utility.yul\":7345:7386   */\n      tag_146\n        /* \"#utility.yul\":7369:7385   */\n      dup3\n        /* \"#utility.yul\":7345:7386   */\n      tag_52\n      jump\t// in\n    tag_146:\n        /* \"#utility.yul\":7337:7343   */\n      dup5\n        /* \"#utility.yul\":7330:7334   */\n      dup5\n        /* \"#utility.yul\":7324:7335   */\n      sload\n        /* \"#utility.yul\":7296:7387   */\n      tag_49\n      jump\t// in\n    tag_145:\n        /* \"#utility.yul\":7290:7294   */\n      dup3\n        /* \"#utility.yul\":7283:7388   */\n      sstore\n        /* \"#utility.yul\":7201:7394   */\n      pop\n        /* \"#utility.yul\":7125:7394   */\n      pop\n      pop\n      pop\n      jump\t// out\n        /* \"#utility.yul\":7400:7473   */\n    tag_54:\n        /* \"#utility.yul\":7445:7448   */\n      0x00\n        /* \"#utility.yul\":7400:7473   */\n      swap1\n      jump\t// out\n        /* \"#utility.yul\":7479:7668   */\n    tag_55:\n        /* \"#utility.yul\":7556:7588   */\n      tag_149\n      tag_54\n      jump\t// in\n    tag_149:\n        /* \"#utility.yul\":7597:7662   */\n      tag_150\n        /* \"#utility.yul\":7655:7661   */\n      dup2\n        /* \"#utility.yul\":7647:7653   */\n      dup5\n        /* \"#utility.yul\":7641:7645   */\n      dup5\n        /* \"#utility.yul\":7597:7662   */\n      tag_53\n      jump\t// in\n    tag_150:\n        /* \"#utility.yul\":7532:7668   */\n      pop\n        /* \"#utility.yul\":7479:7668   */\n      pop\n      pop\n      jump\t// out\n        /* \"#utility.yul\":7674:7860   */\n    tag_56:\n        /* \"#utility.yul\":7734:7854   */\n    tag_152:\n        /* \"#utility.yul\":7751:7754   */\n      dup2\n        /* \"#utility.yul\":7744:7749   */\n      dup2\n        /* \"#utility.yul\":7741:7755   */\n      lt\n        /* \"#utility.yul\":7734:7854   */\n      iszero\n      tag_154\n      jumpi\n        /* \"#utility.yul\":7805:7844   */\n      tag_155\n        /* \"#utility.yul\":7842:7843   */\n      0x00\n        /* \"#utility.yul\":7835:7840   */\n      dup3\n        /* \"#utility.yul\":7805:7844   */\n      tag_55\n      jump\t// in\n    tag_155:\n        /* \"#utility.yul\":7778:7779   */\n      0x01\n        /* \"#utility.yul\":7771:7776   */\n      dup2\n        /* \"#utility.yul\":7767:7780   */\n      add\n        /* \"#utility.yul\":7758:7780   */\n      swap1\n      pop\n        /* \"#utility.yul\":7734:7854   */\n      jump(tag_152)\n    tag_154:\n        /* \"#utility.yul\":7674:7860   */\n      pop\n      pop\n      jump\t// out\n        /* \"#utility.yul\":7866:8409   */\n    tag_57:\n        /* \"#utility.yul\":7967:7969   */\n      0x1f\n        /* \"#utility.yul\":7962:7965   */\n      dup3\n        /* \"#utility.yul\":7959:7970   */\n      gt\n        /* \"#utility.yul\":7956:8402   */\n      iszero\n      tag_157\n      jumpi\n        /* \"#utility.yul\":8001:8039   */\n      tag_158\n        /* \"#utility.yul\":8033:8038   */\n      dup2\n        /* \"#utility.yul\":8001:8039   */\n      tag_46\n      jump\t// in\n    tag_158:\n        /* \"#utility.yul\":8085:8114   */\n      tag_159\n        /* \"#utility.yul\":8103:8113   */\n      dup5\n        /* \"#utility.yul\":8085:8114   */\n      tag_47\n      jump\t// in\n    tag_159:\n        /* \"#utility.yul\":8075:8083   */\n      dup2\n        /* \"#utility.yul\":8071:8115   */\n      add\n        /* \"#utility.yul\":8268:8270   */\n      0x20\n        /* \"#utility.yul\":8256:8266   */\n      dup6\n        /* \"#utility.yul\":8253:8271   */\n      lt\n        /* \"#utility.yul\":8250:8299   */\n      iszero\n      tag_160\n      jumpi\n        /* \"#utility.yul\":8289:8297   */\n      dup2\n        /* \"#utility.yul\":8274:8297   */\n      swap1\n      pop\n        /* \"#utility.yul\":8250:8299   */\n    tag_160:\n        /* \"#utility.yul\":8312:8392   */\n      tag_161\n        /* \"#utility.yul\":8368:8390   */\n      tag_162\n        /* \"#utility.yul\":8386:8389   */\n      dup6\n        /* \"#utility.yul\":8368:8390   */\n      tag_47\n      jump\t// in\n    tag_162:\n        /* \"#utility.yul\":8358:8366   */\n      dup4\n        /* \"#utility.yul\":8354:8391   */\n      add\n        /* \"#utility.yul\":8341:8352   */\n      dup3\n        /* \"#utility.yul\":8312:8392   */\n      tag_56\n      jump\t// in\n    tag_161:\n        /* \"#utility.yul\":7971:8402   */\n      pop\n      pop\n        /* \"#utility.yul\":7956:8402   */\n    tag_157:\n        /* \"#utility.yul\":7866:8409   */\n      pop\n      pop\n      pop\n      jump\t// out\n        /* \"#utility.yul\":8415:8532   */\n    tag_58:\n        /* \"#utility.yul\":8469:8477   */\n      0x00\n        /* \"#utility.yul\":8519:8524   */\n      dup3\n        /* \"#utility.yul\":8513:8517   */\n      dup3\n        /* \"#utility.yul\":8509:8525   */\n      shr\n        /* \"#utility.yul\":8488:8525   */\n      swap1\n      pop\n        /* \"#utility.yul\":8415:8532   */\n      swap3\n      swap2\n      pop\n      pop\n      jump\t// out\n        /* \"#utility.yul\":8538:8707   */\n    tag_59:\n        /* \"#utility.yul\":8582:8588   */\n      0x00\n        /* \"#utility.yul\":8615:8666   */\n      tag_165\n        /* \"#utility.yul\":8663:8664   */\n      0x00\n        /* \"#utility.yul\":8659:8665   */\n      not\n        /* \"#utility.yul\":8651:8656   */\n      dup5\n        /* \"#utility.yul\":8648:8649   */\n      0x08\n        /* \"#utility.yul\":8644:8657   */\n      mul\n        /* \"#utility.yul\":8615:8666   */\n      tag_58\n      jump\t// in\n    tag_165:\n        /* \"#utility.yul\":8611:8667   */\n      not\n        /* \"#utility.yul\":8696:8700   */\n      dup1\n        /* \"#utility.yul\":8690:8694   */\n      dup4\n        /* \"#utility.yul\":8686:8701   */\n      and\n        /* \"#utility.yul\":8676:8701   */\n      swap2\n      pop\n        /* \"#utility.yul\":8589:8707   */\n      pop\n        /* \"#utility.yul\":8538:8707   */\n      swap3\n      swap2\n      pop\n      pop\n      jump\t// out\n        /* \"#utility.yul\":8712:9007   */\n    tag_60:\n        /* \"#utility.yul\":8788:8792   */\n      0x00\n        /* \"#utility.yul\":8934:8963   */\n      tag_167\n        /* \"#utility.yul\":8959:8962   */\n      dup4\n        /* \"#utility.yul\":8953:8957   */\n      dup4\n        /* \"#utility.yul\":8934:8963   */\n      tag_59\n      jump\t// in\n    tag_167:\n        /* \"#utility.yul\":8926:8963   */\n      swap2\n      pop\n        /* \"#utility.yul\":8996:8999   */\n      dup3\n        /* \"#utility.yul\":8993:8994   */\n      0x02\n        /* \"#utility.yul\":8989:9000   */\n      mul\n        /* \"#utility.yul\":8983:8987   */\n      dup3\n        /* \"#utility.yul\":8980:9001   */\n      or\n        /* \"#utility.yul\":8972:9001   */\n      swap1\n      pop\n        /* \"#utility.yul\":8712:9007   */\n      swap3\n      swap2\n      pop\n      pop\n      jump\t// out\n        /* \"#utility.yul\":9012:10407   */\n    tag_17:\n        /* \"#utility.yul\":9129:9166   */\n      tag_169\n        /* \"#utility.yul\":9162:9165   */\n      dup3\n        /* \"#utility.yul\":9129:9166   */\n      tag_40\n      jump\t// in\n    tag_169:\n        /* \"#utility.yul\":9231:9249   */\n      0xffffffffffffffff\n        /* \"#utility.yul\":9223:9229   */\n      dup2\n        /* \"#utility.yul\":9220:9250   */\n      gt\n        /* \"#utility.yul\":9217:9273   */\n      iszero\n      tag_170\n      jumpi\n        /* \"#utility.yul\":9253:9271   */\n      tag_171\n      tag_33\n      jump\t// in\n    tag_171:\n        /* \"#utility.yul\":9217:9273   */\n    tag_170:\n        /* \"#utility.yul\":9297:9335   */\n      tag_172\n        /* \"#utility.yul\":9329:9333   */\n      dup3\n        /* \"#utility.yul\":9323:9334   */\n      sload\n        /* \"#utility.yul\":9297:9335   */\n      tag_19\n      jump\t// in\n    tag_172:\n        /* \"#utility.yul\":9382:9449   */\n      tag_173\n        /* \"#utility.yul\":9442:9448   */\n      dup3\n        /* \"#utility.yul\":9434:9440   */\n      dup3\n        /* \"#utility.yul\":9428:9432   */\n      dup6\n        /* \"#utility.yul\":9382:9449   */\n      tag_57\n      jump\t// in\n    tag_173:\n        /* \"#utility.yul\":9476:9477   */\n      0x00\n        /* \"#utility.yul\":9500:9504   */\n      0x20\n        /* \"#utility.yul\":9487:9504   */\n      swap1\n      pop\n        /* \"#utility.yul\":9532:9534   */\n      0x1f\n        /* \"#utility.yul\":9524:9530   */\n      dup4\n        /* \"#utility.yul\":9521:9535   */\n      gt\n        /* \"#utility.yul\":9549:9550   */\n      0x01\n        /* \"#utility.yul\":9544:10162   */\n      dup2\n      eq\n      tag_175\n      jumpi\n        /* \"#utility.yul\":10206:10207   */\n      0x00\n        /* \"#utility.yul\":10223:10229   */\n      dup5\n        /* \"#utility.yul\":10220:10297   */\n      iszero\n      tag_176\n      jumpi\n        /* \"#utility.yul\":10272:10281   */\n      dup3\n        /* \"#utility.yul\":10267:10270   */\n      dup8\n        /* \"#utility.yul\":10263:10282   */\n      add\n        /* \"#utility.yul\":10257:10283   */\n      mload\n        /* \"#utility.yul\":10248:10283   */\n      swap1\n      pop\n        /* \"#utility.yul\":10220:10297   */\n    tag_176:\n        /* \"#utility.yul\":10323:10390   */\n      tag_177\n        /* \"#utility.yul\":10383:10389   */\n      dup6\n        /* \"#utility.yul\":10376:10381   */\n      dup3\n        /* \"#utility.yul\":10323:10390   */\n      tag_60\n      jump\t// in\n    tag_177:\n        /* \"#utility.yul\":10317:10321   */\n      dup7\n        /* \"#utility.yul\":10310:10391   */\n      sstore\n        /* \"#utility.yul\":10179:10401   */\n      pop\n        /* \"#utility.yul\":9514:10401   */\n      jump(tag_174)\n        /* \"#utility.yul\":9544:10162   */\n    tag_175:\n        /* \"#utility.yul\":9596:9600   */\n      0x1f\n        /* \"#utility.yul\":9592:9601   */\n      not\n        /* \"#utility.yul\":9584:9590   */\n      dup5\n        /* \"#utility.yul\":9580:9602   */\n      and\n        /* \"#utility.yul\":9630:9667   */\n      tag_178\n        /* \"#utility.yul\":9662:9666   */\n      dup7\n        /* \"#utility.yul\":9630:9667   */\n      tag_46\n      jump\t// in\n    tag_178:\n        /* \"#utility.yul\":9689:9690   */\n      0x00\n        /* \"#utility.yul\":9703:9911   */\n    tag_179:\n        /* \"#utility.yul\":9717:9724   */\n      dup3\n        /* \"#utility.yul\":9714:9715   */\n      dup2\n        /* \"#utility.yul\":9711:9725   */\n      lt\n        /* \"#utility.yul\":9703:9911   */\n      iszero\n      tag_181\n      jumpi\n        /* \"#utility.yul\":9796:9805   */\n      dup5\n        /* \"#utility.yul\":9791:9794   */\n      dup10\n        /* \"#utility.yul\":9787:9806   */\n      add\n        /* \"#utility.yul\":9781:9807   */\n      mload\n        /* \"#utility.yul\":9773:9779   */\n      dup3\n        /* \"#utility.yul\":9766:9808   */\n      sstore\n        /* \"#utility.yul\":9847:9848   */\n      0x01\n        /* \"#utility.yul\":9839:9845   */\n      dup3\n        /* \"#utility.yul\":9835:9849   */\n      add\n        /* \"#utility.yul\":9825:9849   */\n      swap2\n      pop\n        /* \"#utility.yul\":9894:9896   */\n      0x20\n        /* \"#utility.yul\":9883:9892   */\n      dup6\n        /* \"#utility.yul\":9879:9897   */\n      add\n        /* \"#utility.yul\":9866:9897   */\n      swap5\n      pop\n        /* \"#utility.yul\":9740:9744   */\n      0x20\n        /* \"#utility.yul\":9737:9738   */\n      dup2\n        /* \"#utility.yul\":9733:9745   */\n      add\n        /* \"#utility.yul\":9728:9745   */\n      swap1\n      pop\n        /* \"#utility.yul\":9703:9911   */\n      jump(tag_179)\n    tag_181:\n        /* \"#utility.yul\":9939:9945   */\n      dup7\n        /* \"#utility.yul\":9930:9937   */\n      dup4\n        /* \"#utility.yul\":9927:9946   */\n      lt\n        /* \"#utility.yul\":9924:10103   */\n      iszero\n      tag_182\n      jumpi\n        /* \"#utility.yul\":9997:10006   */\n      dup5\n        /* \"#utility.yul\":9992:9995   */\n      dup10\n        /* \"#utility.yul\":9988:10007   */\n      add\n        /* \"#utility.yul\":9982:10008   */\n      mload\n        /* \"#utility.yul\":10040:10088   */\n      tag_183\n        /* \"#utility.yul\":10082:10086   */\n      0x1f\n        /* \"#utility.yul\":10074:10080   */\n      dup10\n        /* \"#utility.yul\":10070:10087   */\n      and\n        /* \"#utility.yul\":10059:10068   */\n      dup3\n        /* \"#utility.yul\":10040:10088   */\n      tag_59\n      jump\t// in\n    tag_183:\n        /* \"#utility.yul\":10032:10038   */\n      dup4\n        /* \"#utility.yul\":10025:10089   */\n      sstore\n        /* \"#utility.yul\":9947:10103   */\n      pop\n        /* \"#utility.yul\":9924:10103   */\n    tag_182:\n        /* \"#utility.yul\":10149:10150   */\n      0x01\n        /* \"#utility.yul\":10145:10146   */\n      0x02\n        /* \"#utility.yul\":10137:10143   */\n      dup9\n        /* \"#utility.yul\":10133:10147   */\n      mul\n        /* \"#utility.yul\":10129:10151   */\n      add\n        /* \"#utility.yul\":10123:10127   */\n      dup9\n        /* \"#utility.yul\":10116:10152   */\n      sstore\n        /* \"#utility.yul\":9551:10162   */\n      pop\n      pop\n      pop\n        /* \"#utility.yul\":9514:10401   */\n    tag_174:\n      pop\n        /* \"#utility.yul\":9104:10407   */\n      pop\n      pop\n      pop\n        /* \"#utility.yul\":9012:10407   */\n      pop\n      pop\n      jump\t// out\n\n    auxdata: 0xa26469706673582212200f23cb9575bf30dab0c72476108186e3c885997c0f5c2508c143ae9d1740eabb64736f6c634300080f0033\n}\n",
				"bytecode": {
					"linkReferences": {},
					"object": "608060405234801561001057600080fd5b5061078a806100206000396000f3fe608060405234801561001057600080fd5b50600436106100365760003560e01c80630c22cf411461003b578063f0ba844014610057575b600080fd5b61005560048036038101906100509190610313565b610088565b005b610071600480360381019061006c9190610382565b6100d7565b60405161007f929190610446565b60405180910390f35b60405180604001604052808381526020018281525060008085815260200190815260200160002060008201518160000190816100c49190610682565b5060208201518160010155905050505050565b60006020528060005260406000206000915090508060000180546100fa906104a5565b80601f0160208091040260200160405190810160405280929190818152602001828054610126906104a5565b80156101735780601f1061014857610100808354040283529160200191610173565b820191906000526020600020905b81548152906001019060200180831161015657829003601f168201915b5050505050908060010154905082565b6000604051905090565b600080fd5b600080fd5b6000819050919050565b6101aa81610197565b81146101b557600080fd5b50565b6000813590506101c7816101a1565b92915050565b600080fd5b600080fd5b6000601f19601f8301169050919050565b7f4e487b7100000000000000000000000000000000000000000000000000000000600052604160045260246000fd5b610220826101d7565b810181811067ffffffffffffffff8211171561023f5761023e6101e8565b5b80604052505050565b6000610252610183565b905061025e8282610217565b919050565b600067ffffffffffffffff82111561027e5761027d6101e8565b5b610287826101d7565b9050602081019050919050565b82818337600083830152505050565b60006102b66102b184610263565b610248565b9050828152602081018484840111156102d2576102d16101d2565b5b6102dd848285610294565b509392505050565b600082601f8301126102fa576102f96101cd565b5b813561030a8482602086016102a3565b91505092915050565b60008060006060848603121561032c5761032b61018d565b5b600061033a868287016101b8565b935050602084013567ffffffffffffffff81111561035b5761035a610192565b5b610367868287016102e5565b9250506040610378868287016101b8565b9150509250925092565b6000602082840312156103985761039761018d565b5b60006103a6848285016101b8565b91505092915050565b600081519050919050565b600082825260208201905092915050565b60005b838110156103e95780820151818401526020810190506103ce565b838111156103f8576000848401525b50505050565b6000610409826103af565b61041381856103ba565b93506104238185602086016103cb565b61042c816101d7565b840191505092915050565b61044081610197565b82525050565b6000604082019050818103600083015261046081856103fe565b905061046f6020830184610437565b9392505050565b7f4e487b7100000000000000000000000000000000000000000000000000000000600052602260045260246000fd5b600060028204905060018216806104bd57607f821691505b6020821081036104d0576104cf610476565b5b50919050565b60008190508160005260206000209050919050565b60006020601f8301049050919050565b600082821b905092915050565b6000600883026105387fffffffffffffffffffffffffffffffffffffffffffffffffffffffffffffffff826104fb565b61054286836104fb565b95508019841693508086168417925050509392505050565b6000819050919050565b600061057f61057a61057584610197565b61055a565b610197565b9050919050565b6000819050919050565b61059983610564565b6105ad6105a582610586565b848454610508565b825550505050565b600090565b6105c26105b5565b6105cd818484610590565b505050565b5b818110156105f1576105e66000826105ba565b6001810190506105d3565b5050565b601f82111561063657610607816104d6565b610610846104eb565b8101602085101561061f578190505b61063361062b856104eb565b8301826105d2565b50505b505050565b600082821c905092915050565b60006106596000198460080261063b565b1980831691505092915050565b60006106728383610648565b9150826002028217905092915050565b61068b826103af565b67ffffffffffffffff8111156106a4576106a36101e8565b5b6106ae82546104a5565b6106b98282856105f5565b600060209050601f8311600181146106ec57600084156106da578287015190505b6106e48582610666565b86555061074c565b601f1984166106fa866104d6565b60005b82811015610722578489015182556001820191506020850194506020810190506106fd565b8683101561073f578489015161073b601f891682610648565b8355505b6001600288020188555050505b50505050505056fea26469706673582212200f23cb9575bf30dab0c72476108186e3c885997c0f5c2508c143ae9d1740eabb64736f6c634300080f0033",
					"opcodes": "PUSH1 0x80 PUSH1 0x40 MSTORE CALLVALUE DUP1 ISZERO PUSH2 0x10 JUMPI PUSH1 0x0 DUP1 REVERT JUMPDEST POP PUSH2 0x78A DUP1 PUSH2 0x20 PUSH1 0x0 CODECOPY PUSH1 0x0 RETURN INVALID PUSH1 0x80 PUSH1 0x40 MSTORE CALLVALUE DUP1 ISZERO PUSH2 0x10 JUMPI PUSH1 0x0 DUP1 REVERT JUMPDEST POP PUSH1 0x4 CALLDATASIZE LT PUSH2 0x36 JUMPI PUSH1 0x0 CALLDATALOAD PUSH1 0xE0 SHR DUP1 PUSH4 0xC22CF41 EQ PUSH2 0x3B JUMPI DUP1 PUSH4 0xF0BA8440 EQ PUSH2 0x57 JUMPI JUMPDEST PUSH1 0x0 DUP1 REVERT JUMPDEST PUSH2 0x55 PUSH1 0x4 DUP1 CALLDATASIZE SUB DUP2 ADD SWAP1 PUSH2 0x50 SWAP2 SWAP1 PUSH2 0x313 JUMP JUMPDEST PUSH2 0x88 JUMP JUMPDEST STOP JUMPDEST PUSH2 0x71 PUSH1 0x4 DUP1 CALLDATASIZE SUB DUP2 ADD SWAP1 PUSH2 0x6C SWAP2 SWAP1 PUSH2 0x382 JUMP JUMPDEST PUSH2 0xD7 JUMP JUMPDEST PUSH1 0x40 MLOAD PUSH2 0x7F SWAP3 SWAP2 SWAP1 PUSH2 0x446 JUMP JUMPDEST PUSH1 0x40 MLOAD DUP1 SWAP2 SUB SWAP1 RETURN JUMPDEST PUSH1 0x40 MLOAD DUP1 PUSH1 0x40 ADD PUSH1 0x40 MSTORE DUP1 DUP4 DUP2 MSTORE PUSH1 0x20 ADD DUP3 DUP2 MSTORE POP PUSH1 0x0 DUP1 DUP6 DUP2 MSTORE PUSH1 0x20 ADD SWAP1 DUP2 MSTORE PUSH1 0x20 ADD PUSH1 0x0 KECCAK256 PUSH1 0x0 DUP3 ADD MLOAD DUP2 PUSH1 0x0 ADD SWAP1 DUP2 PUSH2 0xC4 SWAP2 SWAP1 PUSH2 0x682 JUMP JUMPDEST POP PUSH1 0x20 DUP3 ADD MLOAD DUP2 PUSH1 0x1 ADD SSTORE SWAP1 POP POP POP POP POP JUMP JUMPDEST PUSH1 0x0 PUSH1 0x20 MSTORE DUP1 PUSH1 0x0 MSTORE PUSH1 0x40 PUSH1 0x0 KECCAK256 PUSH1 0x0 SWAP2 POP SWAP1 POP DUP1 PUSH1 0x0 ADD DUP1 SLOAD PUSH2 0xFA SWAP1 PUSH2 0x4A5 JUMP JUMPDEST DUP1 PUSH1 0x1F ADD PUSH1 0x20 DUP1 SWAP2 DIV MUL PUSH1 0x20 ADD PUSH1 0x40 MLOAD SWAP1 DUP2 ADD PUSH1 0x40 MSTORE DUP1 SWAP3 SWAP2 SWAP1 DUP2 DUP2 MSTORE PUSH1 0x20 ADD DUP3 DUP1 SLOAD PUSH2 0x126 SWAP1 PUSH2 0x4A5 JUMP JUMPDEST DUP1 ISZERO PUSH2 0x173 JUMPI DUP1 PUSH1 0x1F LT PUSH2 0x148 JUMPI PUSH2 0x100 DUP1 DUP4 SLOAD DIV MUL DUP4 MSTORE SWAP2 PUSH1 0x20 ADD SWAP2 PUSH2 0x173 JUMP JUMPDEST DUP3 ADD SWAP2 SWAP1 PUSH1 0x0 MSTORE PUSH1 0x20 PUSH1 0x0 KECCAK256 SWAP1 JUMPDEST DUP2 SLOAD DUP2 MSTORE SWAP1 PUSH1 0x1 ADD SWAP1 PUSH1 0x20 ADD DUP1 DUP4 GT PUSH2 0x156 JUMPI DUP3 SWAP1 SUB PUSH1 0x1F AND DUP3 ADD SWAP2 JUMPDEST POP POP POP POP POP SWAP1 DUP1 PUSH1 0x1 ADD SLOAD SWAP1 POP DUP3 JUMP JUMPDEST PUSH1 0x0 PUSH1 0x40 MLOAD SWAP1 POP SWAP1 JUMP JUMPDEST PUSH1 0x0 DUP1 REVERT JUMPDEST PUSH1 0x0 DUP1 REVERT JUMPDEST PUSH1 0x0 DUP2 SWAP1 POP SWAP2 SWAP1 POP JUMP JUMPDEST PUSH2 0x1AA DUP2 PUSH2 0x197 JUMP JUMPDEST DUP2 EQ PUSH2 0x1B5 JUMPI PUSH1 0x0 DUP1 REVERT JUMPDEST POP JUMP JUMPDEST PUSH1 0x0 DUP2 CALLDATALOAD SWAP1 POP PUSH2 0x1C7 DUP2 PUSH2 0x1A1 JUMP JUMPDEST SWAP3 SWAP2 POP POP JUMP JUMPDEST PUSH1 0x0 DUP1 REVERT JUMPDEST PUSH1 0x0 DUP1 REVERT JUMPDEST PUSH1 0x0 PUSH1 0x1F NOT PUSH1 0x1F DUP4 ADD AND SWAP1 POP SWAP2 SWAP1 POP JUMP JUMPDEST PUSH32 0x4E487B7100000000000000000000000000000000000000000000000000000000 PUSH1 0x0 MSTORE PUSH1 0x41 PUSH1 0x4 MSTORE PUSH1 0x24 PUSH1 0x0 REVERT JUMPDEST PUSH2 0x220 DUP3 PUSH2 0x1D7 JUMP JUMPDEST DUP2 ADD DUP2 DUP2 LT PUSH8 0xFFFFFFFFFFFFFFFF DUP3 GT OR ISZERO PUSH2 0x23F JUMPI PUSH2 0x23E PUSH2 0x1E8 JUMP JUMPDEST JUMPDEST DUP1 PUSH1 0x40 MSTORE POP POP POP JUMP JUMPDEST PUSH1 0x0 PUSH2 0x252 PUSH2 0x183 JUMP JUMPDEST SWAP1 POP PUSH2 0x25E DUP3 DUP3 PUSH2 0x217 JUMP JUMPDEST SWAP2 SWAP1 POP JUMP JUMPDEST PUSH1 0x0 PUSH8 0xFFFFFFFFFFFFFFFF DUP3 GT ISZERO PUSH2 0x27E JUMPI PUSH2 0x27D PUSH2 0x1E8 JUMP JUMPDEST JUMPDEST PUSH2 0x287 DUP3 PUSH2 0x1D7 JUMP JUMPDEST SWAP1 POP PUSH1 0x20 DUP2 ADD SWAP1 POP SWAP2 SWAP1 POP JUMP JUMPDEST DUP3 DUP2 DUP4 CALLDATACOPY PUSH1 0x0 DUP4 DUP4 ADD MSTORE POP POP POP JUMP JUMPDEST PUSH1 0x0 PUSH2 0x2B6 PUSH2 0x2B1 DUP5 PUSH2 0x263 JUMP JUMPDEST PUSH2 0x248 JUMP JUMPDEST SWAP1 POP DUP3 DUP2 MSTORE PUSH1 0x20 DUP2 ADD DUP5 DUP5 DUP5 ADD GT ISZERO PUSH2 0x2D2 JUMPI PUSH2 0x2D1 PUSH2 0x1D2 JUMP JUMPDEST JUMPDEST PUSH2 0x2DD DUP5 DUP3 DUP6 PUSH2 0x294 JUMP JUMPDEST POP SWAP4 SWAP3 POP POP POP JUMP JUMPDEST PUSH1 0x0 DUP3 PUSH1 0x1F DUP4 ADD SLT PUSH2 0x2FA JUMPI PUSH2 0x2F9 PUSH2 0x1CD JUMP JUMPDEST JUMPDEST DUP2 CALLDATALOAD PUSH2 0x30A DUP5 DUP3 PUSH1 0x20 DUP7 ADD PUSH2 0x2A3 JUMP JUMPDEST SWAP2 POP POP SWAP3 SWAP2 POP POP JUMP JUMPDEST PUSH1 0x0 DUP1 PUSH1 0x0 PUSH1 0x60 DUP5 DUP7 SUB SLT ISZERO PUSH2 0x32C JUMPI PUSH2 0x32B PUSH2 0x18D JUMP JUMPDEST JUMPDEST PUSH1 0x0 PUSH2 0x33A DUP7 DUP3 DUP8 ADD PUSH2 0x1B8 JUMP JUMPDEST SWAP4 POP POP PUSH1 0x20 DUP5 ADD CALLDATALOAD PUSH8 0xFFFFFFFFFFFFFFFF DUP2 GT ISZERO PUSH2 0x35B JUMPI PUSH2 0x35A PUSH2 0x192 JUMP JUMPDEST JUMPDEST PUSH2 0x367 DUP7 DUP3 DUP8 ADD PUSH2 0x2E5 JUMP JUMPDEST SWAP3 POP POP PUSH1 0x40 PUSH2 0x378 DUP7 DUP3 DUP8 ADD PUSH2 0x1B8 JUMP JUMPDEST SWAP2 POP POP SWAP3 POP SWAP3 POP SWAP3 JUMP JUMPDEST PUSH1 0x0 PUSH1 0x20 DUP3 DUP5 SUB SLT ISZERO PUSH2 0x398 JUMPI PUSH2 0x397 PUSH2 0x18D JUMP JUMPDEST JUMPDEST PUSH1 0x0 PUSH2 0x3A6 DUP5 DUP3 DUP6 ADD PUSH2 0x1B8 JUMP JUMPDEST SWAP2 POP POP SWAP3 SWAP2 POP POP JUMP JUMPDEST PUSH1 0x0 DUP2 MLOAD SWAP1 POP SWAP2 SWAP1 POP JUMP JUMPDEST PUSH1 0x0 DUP3 DUP3 MSTORE PUSH1 0x20 DUP3 ADD SWAP1 POP SWAP3 SWAP2 POP POP JUMP JUMPDEST PUSH1 0x0 JUMPDEST DUP4 DUP2 LT ISZERO PUSH2 0x3E9 JUMPI DUP1 DUP3 ADD MLOAD DUP2 DUP5 ADD MSTORE PUSH1 0x20 DUP2 ADD SWAP1 POP PUSH2 0x3CE JUMP JUMPDEST DUP4 DUP2 GT ISZERO PUSH2 0x3F8 JUMPI PUSH1 0x0 DUP5 DUP5 ADD MSTORE JUMPDEST POP POP POP POP JUMP JUMPDEST PUSH1 0x0 PUSH2 0x409 DUP3 PUSH2 0x3AF JUMP JUMPDEST PUSH2 0x413 DUP2 DUP6 PUSH2 0x3BA JUMP JUMPDEST SWAP4 POP PUSH2 0x423 DUP2 DUP6 PUSH1 0x20 DUP7 ADD PUSH2 0x3CB JUMP JUMPDEST PUSH2 0x42C DUP2 PUSH2 0x1D7 JUMP JUMPDEST DUP5 ADD SWAP2 POP POP SWAP3 SWAP2 POP POP JUMP JUMPDEST PUSH2 0x440 DUP2 PUSH2 0x197 JUMP JUMPDEST DUP3 MSTORE POP POP JUMP JUMPDEST PUSH1 0x0 PUSH1 0x40 DUP3 ADD SWAP1 POP DUP2 DUP2 SUB PUSH1 0x0 DUP4 ADD MSTORE PUSH2 0x460 DUP2 DUP6 PUSH2 0x3FE JUMP JUMPDEST SWAP1 POP PUSH2 0x46F PUSH1 0x20 DUP4 ADD DUP5 PUSH2 0x437 JUMP JUMPDEST SWAP4 SWAP3 POP POP POP JUMP JUMPDEST PUSH32 0x4E487B7100000000000000000000000000000000000000000000000000000000 PUSH1 0x0 MSTORE PUSH1 0x22 PUSH1 0x4 MSTORE PUSH1 0x24 PUSH1 0x0 REVERT JUMPDEST PUSH1 0x0 PUSH1 0x2 DUP3 DIV SWAP1 POP PUSH1 0x1 DUP3 AND DUP1 PUSH2 0x4BD JUMPI PUSH1 0x7F DUP3 AND SWAP2 POP JUMPDEST PUSH1 0x20 DUP3 LT DUP2 SUB PUSH2 0x4D0 JUMPI PUSH2 0x4CF PUSH2 0x476 JUMP JUMPDEST JUMPDEST POP SWAP2 SWAP1 POP JUMP JUMPDEST PUSH1 0x0 DUP2 SWAP1 POP DUP2 PUSH1 0x0 MSTORE PUSH1 0x20 PUSH1 0x0 KECCAK256 SWAP1 POP SWAP2 SWAP1 POP JUMP JUMPDEST PUSH1 0x0 PUSH1 0x20 PUSH1 0x1F DUP4 ADD DIV SWAP1 POP SWAP2 SWAP1 POP JUMP JUMPDEST PUSH1 0x0 DUP3 DUP3 SHL SWAP1 POP SWAP3 SWAP2 POP POP JUMP JUMPDEST PUSH1 0x0 PUSH1 0x8 DUP4 MUL PUSH2 0x538 PUSH32 0xFFFFFFFFFFFFFFFFFFFFFFFFFFFFFFFFFFFFFFFFFFFFFFFFFFFFFFFFFFFFFFFF DUP3 PUSH2 0x4FB JUMP JUMPDEST PUSH2 0x542 DUP7 DUP4 PUSH2 0x4FB JUMP JUMPDEST SWAP6 POP DUP1 NOT DUP5 AND SWAP4 POP DUP1 DUP7 AND DUP5 OR SWAP3 POP POP POP SWAP4 SWAP3 POP POP POP JUMP JUMPDEST PUSH1 0x0 DUP2 SWAP1 POP SWAP2 SWAP1 POP JUMP JUMPDEST PUSH1 0x0 PUSH2 0x57F PUSH2 0x57A PUSH2 0x575 DUP5 PUSH2 0x197 JUMP JUMPDEST PUSH2 0x55A JUMP JUMPDEST PUSH2 0x197 JUMP JUMPDEST SWAP1 POP SWAP2 SWAP1 POP JUMP JUMPDEST PUSH1 0x0 DUP2 SWAP1 POP SWAP2 SWAP1 POP JUMP JUMPDEST PUSH2 0x599 DUP4 PUSH2 0x564 JUMP JUMPDEST PUSH2 0x5AD PUSH2 0x5A5 DUP3 PUSH2 0x586 JUMP JUMPDEST DUP5 DUP5 SLOAD PUSH2 0x508 JUMP JUMPDEST DUP3 SSTORE POP POP POP POP JUMP JUMPDEST PUSH1 0x0 SWAP1 JUMP JUMPDEST PUSH2 0x5C2 PUSH2 0x5B5 JUMP JUMPDEST PUSH2 0x5CD DUP2 DUP5 DUP5 PUSH2 0x590 JUMP JUMPDEST POP POP POP JUMP JUMPDEST JUMPDEST DUP2 DUP2 LT ISZERO PUSH2 0x5F1 JUMPI PUSH2 0x5E6 PUSH1 0x0 DUP3 PUSH2 0x5BA JUMP JUMPDEST PUSH1 0x1 DUP2 ADD SWAP1 POP PUSH2 0x5D3 JUMP JUMPDEST POP POP JUMP JUMPDEST PUSH1 0x1F DUP3 GT ISZERO PUSH2 0x636 JUMPI PUSH2 0x607 DUP2 PUSH2 0x4D6 JUMP JUMPDEST PUSH2 0x610 DUP5 PUSH2 0x4EB JUMP JUMPDEST DUP2 ADD PUSH1 0x20 DUP6 LT ISZERO PUSH2 0x61F JUMPI DUP2 SWAP1 POP JUMPDEST PUSH2 0x633 PUSH2 0x62B DUP6 PUSH2 0x4EB JUMP JUMPDEST DUP4 ADD DUP3 PUSH2 0x5D2 JUMP JUMPDEST POP POP JUMPDEST POP POP POP JUMP JUMPDEST PUSH1 0x0 DUP3 DUP3 SHR SWAP1 POP SWAP3 SWAP2 POP POP JUMP JUMPDEST PUSH1 0x0 PUSH2 0x659 PUSH1 0x0 NOT DUP5 PUSH1 0x8 MUL PUSH2 0x63B JUMP JUMPDEST NOT DUP1 DUP4 AND SWAP2 POP POP SWAP3 SWAP2 POP POP JUMP JUMPDEST PUSH1 0x0 PUSH2 0x672 DUP4 DUP4 PUSH2 0x648 JUMP JUMPDEST SWAP2 POP DUP3 PUSH1 0x2 MUL DUP3 OR SWAP1 POP SWAP3 SWAP2 POP POP JUMP JUMPDEST PUSH2 0x68B DUP3 PUSH2 0x3AF JUMP JUMPDEST PUSH8 0xFFFFFFFFFFFFFFFF DUP2 GT ISZERO PUSH2 0x6A4 JUMPI PUSH2 0x6A3 PUSH2 0x1E8 JUMP JUMPDEST JUMPDEST PUSH2 0x6AE DUP3 SLOAD PUSH2 0x4A5 JUMP JUMPDEST PUSH2 0x6B9 DUP3 DUP3 DUP6 PUSH2 0x5F5 JUMP JUMPDEST PUSH1 0x0 PUSH1 0x20 SWAP1 POP PUSH1 0x1F DUP4 GT PUSH1 0x1 DUP2 EQ PUSH2 0x6EC JUMPI PUSH1 0x0 DUP5 ISZERO PUSH2 0x6DA JUMPI DUP3 DUP8 ADD MLOAD SWAP1 POP JUMPDEST PUSH2 0x6E4 DUP6 DUP3 PUSH2 0x666 JUMP JUMPDEST DUP7 SSTORE POP PUSH2 0x74C JUMP JUMPDEST PUSH1 0x1F NOT DUP5 AND PUSH2 0x6FA DUP7 PUSH2 0x4D6 JUMP JUMPDEST PUSH1 0x0 JUMPDEST DUP3 DUP2 LT ISZERO PUSH2 0x722 JUMPI DUP5 DUP10 ADD MLOAD DUP3 SSTORE PUSH1 0x1 DUP3 ADD SWAP2 POP PUSH1 0x20 DUP6 ADD SWAP5 POP PUSH1 0x20 DUP2 ADD SWAP1 POP PUSH2 0x6FD JUMP JUMPDEST DUP7 DUP4 LT ISZERO PUSH2 0x73F JUMPI DUP5 DUP10 ADD MLOAD PUSH2 0x73B PUSH1 0x1F DUP10 AND DUP3 PUSH2 0x648 JUMP JUMPDEST DUP4 SSTORE POP JUMPDEST PUSH1 0x1 PUSH1 0x2 DUP9 MUL ADD DUP9 SSTORE POP POP POP JUMPDEST POP POP POP POP POP POP JUMP INVALID LOG2 PUSH5 0x6970667358 0x22 SLT KECCAK256 0xF 0x23 0xCB SWAP6 PUSH22 0xBF30DAB0C72476108186E3C885997C0F5C2508C143AE SWAP14 OR BLOCKHASH 0xEA 0xBB PUSH5 0x736F6C6343 STOP ADDMOD 0xF STOP CALLER "
				},
				"gasEstimates": {
					"creation": {
						"codeDepositCost": "386000",
						"executionCost": "424",
						"totalCost": "386424"
					},
					"external": {
						"data(uint256)": "infinite",
						"setter(uint256,string,uint256)": "infinite"
					}
				},
				"methodIdentifiers": {
					"data(uint256)": "f0ba8440",
					"setter(uint256,string,uint256)": "0c22cf41"
				}
			},
			"storageLayout": {
				"storage": [
					{
						"astId": 11,
						"contract": "gist2.sol:demo",
						"label": "data",
						"offset": 0,
						"slot": "0",
						"type": "t_mapping(t_uint256,t_struct(Student)6_storage)"
					}
				],
				"types": {
					"t_mapping(t_uint256,t_struct(Student)6_storage)": {
						"encoding": "mapping",
						"key": "t_uint256",
						"label": "mapping(uint256 => struct demo.Student)",
						"numberOfBytes": "32",
						"value": "t_struct(Student)6_storage"
					},
					"t_string_storage": {
						"encoding": "bytes",
						"label": "string",
						"numberOfBytes": "32"
					},
					"t_struct(Student)6_storage": {
						"encoding": "inplace",
						"label": "struct demo.Student",
						"members": [
							{
								"astId": 3,
								"contract": "gist2.sol:demo",
								"label": "name",
								"offset": 0,
								"slot": "0",
								"type": "t_string_storage"
							},
							{
								"astId": 5,
								"contract": "gist2.sol:demo",
								"label": "class",
								"offset": 0,
								"slot": "1",
								"type": "t_uint256"
							}
						],
						"numberOfBytes": "64"
					},
					"t_uint256": {
						"encoding": "inplace",
						"label": "uint256",
						"numberOfBytes": "32"
					}
				}
			},
			"userdoc": {
				"kind": "user",
				"methods": {},
				"version": 1
			}
		}
	}
}