{
	"mapping.sol": {
		"MappingTest": {
			"abi": [
				{
					"inputs": [
						{
							"internalType": "uint256",
							"name": "",
							"type": "uint256"
						}
					],
					"name": "my_car",
					"outputs": [
						{
							"internalType": "string",
							"name": "name",
							"type": "string"
						},
						{
							"internalType": "uint256",
							"name": "carnumber",
							"type": "uint256"
						},
						{
							"internalType": "string",
							"name": "ownername",
							"type": "string"
						}
					],
					"stateMutability": "view",
					"type": "function"
				},
				{
					"inputs": [
						{
							"internalType": "uint256",
							"name": "_id",
							"type": "uint256"
						},
						{
							"internalType": "string",
							"name": "_name",
							"type": "string"
						},
						{
							"internalType": "uint256",
							"name": "_carnumber",
							"type": "uint256"
						},
						{
							"internalType": "string",
							"name": "_ownername",
							"type": "string"
						}
					],
					"name": "setter",
					"outputs": [],
					"stateMutability": "nonpayable",
					"type": "function"
				}
			],
			"devdoc": {
				"kind": "dev",
				"methods": {},
				"version": 1
			},
			"evm": {
				"assembly": "    /* \"mapping.sol\":65:397  contract MappingTest{... */\n  mstore(0x40, 0x80)\n  callvalue\n  dup1\n  iszero\n  tag_1\n  jumpi\n  0x00\n  dup1\n  revert\ntag_1:\n  pop\n  dataSize(sub_0)\n  dup1\n  dataOffset(sub_0)\n  0x00\n  codecopy\n  0x00\n  return\nstop\n\nsub_0: assembly {\n        /* \"mapping.sol\":65:397  contract MappingTest{... */\n      mstore(0x40, 0x80)\n      callvalue\n      dup1\n      iszero\n      tag_1\n      jumpi\n      0x00\n      dup1\n      revert\n    tag_1:\n      pop\n      jumpi(tag_2, lt(calldatasize, 0x04))\n      shr(0xe0, calldataload(0x00))\n      dup1\n      0xa85e58ca\n      eq\n      tag_3\n      jumpi\n      dup1\n      0xe8338b73\n      eq\n      tag_4\n      jumpi\n    tag_2:\n      0x00\n      dup1\n      revert\n        /* \"mapping.sol\":192:224  mapping(uint=>car) public my_car */\n    tag_3:\n      tag_5\n      0x04\n      dup1\n      calldatasize\n      sub\n      dup2\n      add\n      swap1\n      tag_6\n      swap2\n      swap1\n      tag_7\n      jump\t// in\n    tag_6:\n      tag_8\n      jump\t// in\n    tag_5:\n      mload(0x40)\n      tag_9\n      swap4\n      swap3\n      swap2\n      swap1\n      tag_10\n      jump\t// in\n    tag_9:\n      mload(0x40)\n      dup1\n      swap2\n      sub\n      swap1\n      return\n        /* \"mapping.sol\":233:394  function setter(uint _id, string memory _name, uint _carnumber, string memory _ownername) public{... */\n    tag_4:\n      tag_11\n      0x04\n      dup1\n      calldatasize\n      sub\n      dup2\n      add\n      swap1\n      tag_12\n      swap2\n      swap1\n      tag_13\n      jump\t// in\n    tag_12:\n      tag_14\n      jump\t// in\n    tag_11:\n      stop\n        /* \"mapping.sol\":192:224  mapping(uint=>car) public my_car */\n    tag_8:\n      mstore(0x20, 0x00)\n      dup1\n      0x00\n      mstore\n      keccak256(0x00, 0x40)\n      0x00\n      swap2\n      pop\n      swap1\n      pop\n      dup1\n      0x00\n      add\n      dup1\n      sload\n      tag_15\n      swap1\n      tag_16\n      jump\t// in\n    tag_15:\n      dup1\n      0x1f\n      add\n      0x20\n      dup1\n      swap2\n      div\n      mul\n      0x20\n      add\n      mload(0x40)\n      swap1\n      dup2\n      add\n      0x40\n      mstore\n      dup1\n      swap3\n      swap2\n      swap1\n      dup2\n      dup2\n      mstore\n      0x20\n      add\n      dup3\n      dup1\n      sload\n      tag_17\n      swap1\n      tag_16\n      jump\t// in\n    tag_17:\n      dup1\n      iszero\n      tag_18\n      jumpi\n      dup1\n      0x1f\n      lt\n      tag_19\n      jumpi\n      0x0100\n      dup1\n      dup4\n      sload\n      div\n      mul\n      dup4\n      mstore\n      swap2\n      0x20\n      add\n      swap2\n      jump(tag_18)\n    tag_19:\n      dup3\n      add\n      swap2\n      swap1\n      0x00\n      mstore\n      keccak256(0x00, 0x20)\n      swap1\n    tag_20:\n      dup2\n      sload\n      dup2\n      mstore\n      swap1\n      0x01\n      add\n      swap1\n      0x20\n      add\n      dup1\n      dup4\n      gt\n      tag_20\n      jumpi\n      dup3\n      swap1\n      sub\n      0x1f\n      and\n      dup3\n      add\n      swap2\n    tag_18:\n      pop\n      pop\n      pop\n      pop\n      pop\n      swap1\n      dup1\n      0x01\n      add\n      sload\n      swap1\n      dup1\n      0x02\n      add\n      dup1\n      sload\n      tag_21\n      swap1\n      tag_16\n      jump\t// in\n    tag_21:\n      dup1\n      0x1f\n      add\n      0x20\n      dup1\n      swap2\n      div\n      mul\n      0x20\n      add\n      mload(0x40)\n      swap1\n      dup2\n      add\n      0x40\n      mstore\n      dup1\n      swap3\n      swap2\n      swap1\n      dup2\n      dup2\n      mstore\n      0x20\n      add\n      dup3\n      dup1\n      sload\n      tag_22\n      swap1\n      tag_16\n      jump\t// in\n    tag_22:\n      dup1\n      iszero\n      tag_23\n      jumpi\n      dup1\n      0x1f\n      lt\n      tag_24\n      jumpi\n      0x0100\n      dup1\n      dup4\n      sload\n      div\n      mul\n      dup4\n      mstore\n      swap2\n      0x20\n      add\n      swap2\n      jump(tag_23)\n    tag_24:\n      dup3\n      add\n      swap2\n      swap1\n      0x00\n      mstore\n      keccak256(0x00, 0x20)\n      swap1\n    tag_25:\n      dup2\n      sload\n      dup2\n      mstore\n      swap1\n      0x01\n      add\n      swap1\n      0x20\n      add\n      dup1\n      dup4\n      gt\n      tag_25\n      jumpi\n      dup3\n      swap1\n      sub\n      0x1f\n      and\n      dup3\n      add\n      swap2\n    tag_23:\n      pop\n      pop\n      pop\n      pop\n      pop\n      swap1\n      pop\n      dup4\n      jump\t// out\n        /* \"mapping.sol\":233:394  function setter(uint _id, string memory _name, uint _carnumber, string memory _ownername) public{... */\n    tag_14:\n        /* \"mapping.sol\":354:386  car(_name,_carnumber,_ownername) */\n      mload(0x40)\n      dup1\n      0x60\n      add\n      0x40\n      mstore\n      dup1\n        /* \"mapping.sol\":358:363  _name */\n      dup5\n        /* \"mapping.sol\":354:386  car(_name,_carnumber,_ownername) */\n      dup2\n      mstore\n      0x20\n      add\n        /* \"mapping.sol\":364:374  _carnumber */\n      dup4\n        /* \"mapping.sol\":354:386  car(_name,_carnumber,_ownername) */\n      dup2\n      mstore\n      0x20\n      add\n        /* \"mapping.sol\":375:385  _ownername */\n      dup3\n        /* \"mapping.sol\":354:386  car(_name,_carnumber,_ownername) */\n      dup2\n      mstore\n      pop\n        /* \"mapping.sol\":342:348  my_car */\n      0x00\n        /* \"mapping.sol\":342:353  my_car[_id] */\n      dup1\n        /* \"mapping.sol\":349:352  _id */\n      dup7\n        /* \"mapping.sol\":342:353  my_car[_id] */\n      dup2\n      mstore\n      0x20\n      add\n      swap1\n      dup2\n      mstore\n      0x20\n      add\n      0x00\n      keccak256\n        /* \"mapping.sol\":342:386  my_car[_id]=car(_name,_carnumber,_ownername) */\n      0x00\n      dup3\n      add\n      mload\n      dup2\n      0x00\n      add\n      swap1\n      dup2\n      tag_27\n      swap2\n      swap1\n      tag_28\n      jump\t// in\n    tag_27:\n      pop\n      0x20\n      dup3\n      add\n      mload\n      dup2\n      0x01\n      add\n      sstore\n      0x40\n      dup3\n      add\n      mload\n      dup2\n      0x02\n      add\n      swap1\n      dup2\n      tag_29\n      swap2\n      swap1\n      tag_28\n      jump\t// in\n    tag_29:\n      pop\n      swap1\n      pop\n      pop\n        /* \"mapping.sol\":233:394  function setter(uint _id, string memory _name, uint _carnumber, string memory _ownername) public{... */\n      pop\n      pop\n      pop\n      pop\n      jump\t// out\n        /* \"#utility.yul\":7:82   */\n    tag_30:\n        /* \"#utility.yul\":40:46   */\n      0x00\n        /* \"#utility.yul\":73:75   */\n      0x40\n        /* \"#utility.yul\":67:76   */\n      mload\n        /* \"#utility.yul\":57:76   */\n      swap1\n      pop\n        /* \"#utility.yul\":7:82   */\n      swap1\n      jump\t// out\n        /* \"#utility.yul\":88:205   */\n    tag_31:\n        /* \"#utility.yul\":197:198   */\n      0x00\n        /* \"#utility.yul\":194:195   */\n      dup1\n        /* \"#utility.yul\":187:199   */\n      revert\n        /* \"#utility.yul\":211:328   */\n    tag_32:\n        /* \"#utility.yul\":320:321   */\n      0x00\n        /* \"#utility.yul\":317:318   */\n      dup1\n        /* \"#utility.yul\":310:322   */\n      revert\n        /* \"#utility.yul\":334:411   */\n    tag_33:\n        /* \"#utility.yul\":371:378   */\n      0x00\n        /* \"#utility.yul\":400:405   */\n      dup2\n        /* \"#utility.yul\":389:405   */\n      swap1\n      pop\n        /* \"#utility.yul\":334:411   */\n      swap2\n      swap1\n      pop\n      jump\t// out\n        /* \"#utility.yul\":417:539   */\n    tag_34:\n        /* \"#utility.yul\":490:514   */\n      tag_73\n        /* \"#utility.yul\":508:513   */\n      dup2\n        /* \"#utility.yul\":490:514   */\n      tag_33\n      jump\t// in\n    tag_73:\n        /* \"#utility.yul\":483:488   */\n      dup2\n        /* \"#utility.yul\":480:515   */\n      eq\n        /* \"#utility.yul\":470:533   */\n      tag_74\n      jumpi\n        /* \"#utility.yul\":529:530   */\n      0x00\n        /* \"#utility.yul\":526:527   */\n      dup1\n        /* \"#utility.yul\":519:531   */\n      revert\n        /* \"#utility.yul\":470:533   */\n    tag_74:\n        /* \"#utility.yul\":417:539   */\n      pop\n      jump\t// out\n        /* \"#utility.yul\":545:684   */\n    tag_35:\n        /* \"#utility.yul\":591:596   */\n      0x00\n        /* \"#utility.yul\":629:635   */\n      dup2\n        /* \"#utility.yul\":616:636   */\n      calldataload\n        /* \"#utility.yul\":607:636   */\n      swap1\n      pop\n        /* \"#utility.yul\":645:678   */\n      tag_76\n        /* \"#utility.yul\":672:677   */\n      dup2\n        /* \"#utility.yul\":645:678   */\n      tag_34\n      jump\t// in\n    tag_76:\n        /* \"#utility.yul\":545:684   */\n      swap3\n      swap2\n      pop\n      pop\n      jump\t// out\n        /* \"#utility.yul\":690:1019   */\n    tag_7:\n        /* \"#utility.yul\":749:755   */\n      0x00\n        /* \"#utility.yul\":798:800   */\n      0x20\n        /* \"#utility.yul\":786:795   */\n      dup3\n        /* \"#utility.yul\":777:784   */\n      dup5\n        /* \"#utility.yul\":773:796   */\n      sub\n        /* \"#utility.yul\":769:801   */\n      slt\n        /* \"#utility.yul\":766:885   */\n      iszero\n      tag_78\n      jumpi\n        /* \"#utility.yul\":804:883   */\n      tag_79\n      tag_31\n      jump\t// in\n    tag_79:\n        /* \"#utility.yul\":766:885   */\n    tag_78:\n        /* \"#utility.yul\":924:925   */\n      0x00\n        /* \"#utility.yul\":949:1002   */\n      tag_80\n        /* \"#utility.yul\":994:1001   */\n      dup5\n        /* \"#utility.yul\":985:991   */\n      dup3\n        /* \"#utility.yul\":974:983   */\n      dup6\n        /* \"#utility.yul\":970:992   */\n      add\n        /* \"#utility.yul\":949:1002   */\n      tag_35\n      jump\t// in\n    tag_80:\n        /* \"#utility.yul\":939:1002   */\n      swap2\n      pop\n        /* \"#utility.yul\":895:1012   */\n      pop\n        /* \"#utility.yul\":690:1019   */\n      swap3\n      swap2\n      pop\n      pop\n      jump\t// out\n        /* \"#utility.yul\":1025:1124   */\n    tag_36:\n        /* \"#utility.yul\":1077:1083   */\n      0x00\n        /* \"#utility.yul\":1111:1116   */\n      dup2\n        /* \"#utility.yul\":1105:1117   */\n      mload\n        /* \"#utility.yul\":1095:1117   */\n      swap1\n      pop\n        /* \"#utility.yul\":1025:1124   */\n      swap2\n      swap1\n      pop\n      jump\t// out\n        /* \"#utility.yul\":1130:1299   */\n    tag_37:\n        /* \"#utility.yul\":1214:1225   */\n      0x00\n        /* \"#utility.yul\":1248:1254   */\n      dup3\n        /* \"#utility.yul\":1243:1246   */\n      dup3\n        /* \"#utility.yul\":1236:1255   */\n      mstore\n        /* \"#utility.yul\":1288:1292   */\n      0x20\n        /* \"#utility.yul\":1283:1286   */\n      dup3\n        /* \"#utility.yul\":1279:1293   */\n      add\n        /* \"#utility.yul\":1264:1293   */\n      swap1\n      pop\n        /* \"#utility.yul\":1130:1299   */\n      swap3\n      swap2\n      pop\n      pop\n      jump\t// out\n        /* \"#utility.yul\":1305:1612   */\n    tag_38:\n        /* \"#utility.yul\":1373:1374   */\n      0x00\n        /* \"#utility.yul\":1383:1496   */\n    tag_84:\n        /* \"#utility.yul\":1397:1403   */\n      dup4\n        /* \"#utility.yul\":1394:1395   */\n      dup2\n        /* \"#utility.yul\":1391:1404   */\n      lt\n        /* \"#utility.yul\":1383:1496   */\n      iszero\n      tag_86\n      jumpi\n        /* \"#utility.yul\":1482:1483   */\n      dup1\n        /* \"#utility.yul\":1477:1480   */\n      dup3\n        /* \"#utility.yul\":1473:1484   */\n      add\n        /* \"#utility.yul\":1467:1485   */\n      mload\n        /* \"#utility.yul\":1463:1464   */\n      dup2\n        /* \"#utility.yul\":1458:1461   */\n      dup5\n        /* \"#utility.yul\":1454:1465   */\n      add\n        /* \"#utility.yul\":1447:1486   */\n      mstore\n        /* \"#utility.yul\":1419:1421   */\n      0x20\n        /* \"#utility.yul\":1416:1417   */\n      dup2\n        /* \"#utility.yul\":1412:1422   */\n      add\n        /* \"#utility.yul\":1407:1422   */\n      swap1\n      pop\n        /* \"#utility.yul\":1383:1496   */\n      jump(tag_84)\n    tag_86:\n        /* \"#utility.yul\":1514:1520   */\n      dup4\n        /* \"#utility.yul\":1511:1512   */\n      dup2\n        /* \"#utility.yul\":1508:1521   */\n      gt\n        /* \"#utility.yul\":1505:1606   */\n      iszero\n      tag_87\n      jumpi\n        /* \"#utility.yul\":1594:1595   */\n      0x00\n        /* \"#utility.yul\":1585:1591   */\n      dup5\n        /* \"#utility.yul\":1580:1583   */\n      dup5\n        /* \"#utility.yul\":1576:1592   */\n      add\n        /* \"#utility.yul\":1569:1596   */\n      mstore\n        /* \"#utility.yul\":1505:1606   */\n    tag_87:\n        /* \"#utility.yul\":1354:1612   */\n      pop\n        /* \"#utility.yul\":1305:1612   */\n      pop\n      pop\n      pop\n      jump\t// out\n        /* \"#utility.yul\":1618:1720   */\n    tag_39:\n        /* \"#utility.yul\":1659:1665   */\n      0x00\n        /* \"#utility.yul\":1710:1712   */\n      0x1f\n        /* \"#utility.yul\":1706:1713   */\n      not\n        /* \"#utility.yul\":1701:1703   */\n      0x1f\n        /* \"#utility.yul\":1694:1699   */\n      dup4\n        /* \"#utility.yul\":1690:1704   */\n      add\n        /* \"#utility.yul\":1686:1714   */\n      and\n        /* \"#utility.yul\":1676:1714   */\n      swap1\n      pop\n        /* \"#utility.yul\":1618:1720   */\n      swap2\n      swap1\n      pop\n      jump\t// out\n        /* \"#utility.yul\":1726:2090   */\n    tag_40:\n        /* \"#utility.yul\":1814:1817   */\n      0x00\n        /* \"#utility.yul\":1842:1881   */\n      tag_90\n        /* \"#utility.yul\":1875:1880   */\n      dup3\n        /* \"#utility.yul\":1842:1881   */\n      tag_36\n      jump\t// in\n    tag_90:\n        /* \"#utility.yul\":1897:1968   */\n      tag_91\n        /* \"#utility.yul\":1961:1967   */\n      dup2\n        /* \"#utility.yul\":1956:1959   */\n      dup6\n        /* \"#utility.yul\":1897:1968   */\n      tag_37\n      jump\t// in\n    tag_91:\n        /* \"#utility.yul\":1890:1968   */\n      swap4\n      pop\n        /* \"#utility.yul\":1977:2029   */\n      tag_92\n        /* \"#utility.yul\":2022:2028   */\n      dup2\n        /* \"#utility.yul\":2017:2020   */\n      dup6\n        /* \"#utility.yul\":2010:2014   */\n      0x20\n        /* \"#utility.yul\":2003:2008   */\n      dup7\n        /* \"#utility.yul\":1999:2015   */\n      add\n        /* \"#utility.yul\":1977:2029   */\n      tag_38\n      jump\t// in\n    tag_92:\n        /* \"#utility.yul\":2054:2083   */\n      tag_93\n        /* \"#utility.yul\":2076:2082   */\n      dup2\n        /* \"#utility.yul\":2054:2083   */\n      tag_39\n      jump\t// in\n    tag_93:\n        /* \"#utility.yul\":2049:2052   */\n      dup5\n        /* \"#utility.yul\":2045:2084   */\n      add\n        /* \"#utility.yul\":2038:2084   */\n      swap2\n      pop\n        /* \"#utility.yul\":1818:2090   */\n      pop\n        /* \"#utility.yul\":1726:2090   */\n      swap3\n      swap2\n      pop\n      pop\n      jump\t// out\n        /* \"#utility.yul\":2096:2214   */\n    tag_41:\n        /* \"#utility.yul\":2183:2207   */\n      tag_95\n        /* \"#utility.yul\":2201:2206   */\n      dup2\n        /* \"#utility.yul\":2183:2207   */\n      tag_33\n      jump\t// in\n    tag_95:\n        /* \"#utility.yul\":2178:2181   */\n      dup3\n        /* \"#utility.yul\":2171:2208   */\n      mstore\n        /* \"#utility.yul\":2096:2214   */\n      pop\n      pop\n      jump\t// out\n        /* \"#utility.yul\":2220:2844   */\n    tag_10:\n        /* \"#utility.yul\":2409:2413   */\n      0x00\n        /* \"#utility.yul\":2447:2449   */\n      0x60\n        /* \"#utility.yul\":2436:2445   */\n      dup3\n        /* \"#utility.yul\":2432:2450   */\n      add\n        /* \"#utility.yul\":2424:2450   */\n      swap1\n      pop\n        /* \"#utility.yul\":2496:2505   */\n      dup2\n        /* \"#utility.yul\":2490:2494   */\n      dup2\n        /* \"#utility.yul\":2486:2506   */\n      sub\n        /* \"#utility.yul\":2482:2483   */\n      0x00\n        /* \"#utility.yul\":2471:2480   */\n      dup4\n        /* \"#utility.yul\":2467:2484   */\n      add\n        /* \"#utility.yul\":2460:2507   */\n      mstore\n        /* \"#utility.yul\":2524:2602   */\n      tag_97\n        /* \"#utility.yul\":2597:2601   */\n      dup2\n        /* \"#utility.yul\":2588:2594   */\n      dup7\n        /* \"#utility.yul\":2524:2602   */\n      tag_40\n      jump\t// in\n    tag_97:\n        /* \"#utility.yul\":2516:2602   */\n      swap1\n      pop\n        /* \"#utility.yul\":2612:2684   */\n      tag_98\n        /* \"#utility.yul\":2680:2682   */\n      0x20\n        /* \"#utility.yul\":2669:2678   */\n      dup4\n        /* \"#utility.yul\":2665:2683   */\n      add\n        /* \"#utility.yul\":2656:2662   */\n      dup6\n        /* \"#utility.yul\":2612:2684   */\n      tag_41\n      jump\t// in\n    tag_98:\n        /* \"#utility.yul\":2731:2740   */\n      dup2\n        /* \"#utility.yul\":2725:2729   */\n      dup2\n        /* \"#utility.yul\":2721:2741   */\n      sub\n        /* \"#utility.yul\":2716:2718   */\n      0x40\n        /* \"#utility.yul\":2705:2714   */\n      dup4\n        /* \"#utility.yul\":2701:2719   */\n      add\n        /* \"#utility.yul\":2694:2742   */\n      mstore\n        /* \"#utility.yul\":2759:2837   */\n      tag_99\n        /* \"#utility.yul\":2832:2836   */\n      dup2\n        /* \"#utility.yul\":2823:2829   */\n      dup5\n        /* \"#utility.yul\":2759:2837   */\n      tag_40\n      jump\t// in\n    tag_99:\n        /* \"#utility.yul\":2751:2837   */\n      swap1\n      pop\n        /* \"#utility.yul\":2220:2844   */\n      swap5\n      swap4\n      pop\n      pop\n      pop\n      pop\n      jump\t// out\n        /* \"#utility.yul\":2850:2967   */\n    tag_42:\n        /* \"#utility.yul\":2959:2960   */\n      0x00\n        /* \"#utility.yul\":2956:2957   */\n      dup1\n        /* \"#utility.yul\":2949:2961   */\n      revert\n        /* \"#utility.yul\":2973:3090   */\n    tag_43:\n        /* \"#utility.yul\":3082:3083   */\n      0x00\n        /* \"#utility.yul\":3079:3080   */\n      dup1\n        /* \"#utility.yul\":3072:3084   */\n      revert\n        /* \"#utility.yul\":3096:3276   */\n    tag_44:\n        /* \"#utility.yul\":3144:3221   */\n      0x4e487b7100000000000000000000000000000000000000000000000000000000\n        /* \"#utility.yul\":3141:3142   */\n      0x00\n        /* \"#utility.yul\":3134:3222   */\n      mstore\n        /* \"#utility.yul\":3241:3245   */\n      0x41\n        /* \"#utility.yul\":3238:3239   */\n      0x04\n        /* \"#utility.yul\":3231:3246   */\n      mstore\n        /* \"#utility.yul\":3265:3269   */\n      0x24\n        /* \"#utility.yul\":3262:3263   */\n      0x00\n        /* \"#utility.yul\":3255:3270   */\n      revert\n        /* \"#utility.yul\":3282:3563   */\n    tag_45:\n        /* \"#utility.yul\":3365:3392   */\n      tag_104\n        /* \"#utility.yul\":3387:3391   */\n      dup3\n        /* \"#utility.yul\":3365:3392   */\n      tag_39\n      jump\t// in\n    tag_104:\n        /* \"#utility.yul\":3357:3363   */\n      dup2\n        /* \"#utility.yul\":3353:3393   */\n      add\n        /* \"#utility.yul\":3495:3501   */\n      dup2\n        /* \"#utility.yul\":3483:3493   */\n      dup2\n        /* \"#utility.yul\":3480:3502   */\n      lt\n        /* \"#utility.yul\":3459:3477   */\n      0xffffffffffffffff\n        /* \"#utility.yul\":3447:3457   */\n      dup3\n        /* \"#utility.yul\":3444:3478   */\n      gt\n        /* \"#utility.yul\":3441:3503   */\n      or\n        /* \"#utility.yul\":3438:3526   */\n      iszero\n      tag_105\n      jumpi\n        /* \"#utility.yul\":3506:3524   */\n      tag_106\n      tag_44\n      jump\t// in\n    tag_106:\n        /* \"#utility.yul\":3438:3526   */\n    tag_105:\n        /* \"#utility.yul\":3546:3556   */\n      dup1\n        /* \"#utility.yul\":3542:3544   */\n      0x40\n        /* \"#utility.yul\":3535:3557   */\n      mstore\n        /* \"#utility.yul\":3325:3563   */\n      pop\n        /* \"#utility.yul\":3282:3563   */\n      pop\n      pop\n      jump\t// out\n        /* \"#utility.yul\":3569:3698   */\n    tag_46:\n        /* \"#utility.yul\":3603:3609   */\n      0x00\n        /* \"#utility.yul\":3630:3650   */\n      tag_108\n      tag_30\n      jump\t// in\n    tag_108:\n        /* \"#utility.yul\":3620:3650   */\n      swap1\n      pop\n        /* \"#utility.yul\":3659:3692   */\n      tag_109\n        /* \"#utility.yul\":3687:3691   */\n      dup3\n        /* \"#utility.yul\":3679:3685   */\n      dup3\n        /* \"#utility.yul\":3659:3692   */\n      tag_45\n      jump\t// in\n    tag_109:\n        /* \"#utility.yul\":3569:3698   */\n      swap2\n      swap1\n      pop\n      jump\t// out\n        /* \"#utility.yul\":3704:4012   */\n    tag_47:\n        /* \"#utility.yul\":3766:3770   */\n      0x00\n        /* \"#utility.yul\":3856:3874   */\n      0xffffffffffffffff\n        /* \"#utility.yul\":3848:3854   */\n      dup3\n        /* \"#utility.yul\":3845:3875   */\n      gt\n        /* \"#utility.yul\":3842:3898   */\n      iszero\n      tag_111\n      jumpi\n        /* \"#utility.yul\":3878:3896   */\n      tag_112\n      tag_44\n      jump\t// in\n    tag_112:\n        /* \"#utility.yul\":3842:3898   */\n    tag_111:\n        /* \"#utility.yul\":3916:3945   */\n      tag_113\n        /* \"#utility.yul\":3938:3944   */\n      dup3\n        /* \"#utility.yul\":3916:3945   */\n      tag_39\n      jump\t// in\n    tag_113:\n        /* \"#utility.yul\":3908:3945   */\n      swap1\n      pop\n        /* \"#utility.yul\":4000:4004   */\n      0x20\n        /* \"#utility.yul\":3994:3998   */\n      dup2\n        /* \"#utility.yul\":3990:4005   */\n      add\n        /* \"#utility.yul\":3982:4005   */\n      swap1\n      pop\n        /* \"#utility.yul\":3704:4012   */\n      swap2\n      swap1\n      pop\n      jump\t// out\n        /* \"#utility.yul\":4018:4172   */\n    tag_48:\n        /* \"#utility.yul\":4102:4108   */\n      dup3\n        /* \"#utility.yul\":4097:4100   */\n      dup2\n        /* \"#utility.yul\":4092:4095   */\n      dup4\n        /* \"#utility.yul\":4079:4109   */\n      calldatacopy\n        /* \"#utility.yul\":4164:4165   */\n      0x00\n        /* \"#utility.yul\":4155:4161   */\n      dup4\n        /* \"#utility.yul\":4150:4153   */\n      dup4\n        /* \"#utility.yul\":4146:4162   */\n      add\n        /* \"#utility.yul\":4139:4166   */\n      mstore\n        /* \"#utility.yul\":4018:4172   */\n      pop\n      pop\n      pop\n      jump\t// out\n        /* \"#utility.yul\":4178:4590   */\n    tag_49:\n        /* \"#utility.yul\":4256:4261   */\n      0x00\n        /* \"#utility.yul\":4281:4347   */\n      tag_116\n        /* \"#utility.yul\":4297:4346   */\n      tag_117\n        /* \"#utility.yul\":4339:4345   */\n      dup5\n        /* \"#utility.yul\":4297:4346   */\n      tag_47\n      jump\t// in\n    tag_117:\n        /* \"#utility.yul\":4281:4347   */\n      tag_46\n      jump\t// in\n    tag_116:\n        /* \"#utility.yul\":4272:4347   */\n      swap1\n      pop\n        /* \"#utility.yul\":4370:4376   */\n      dup3\n        /* \"#utility.yul\":4363:4368   */\n      dup2\n        /* \"#utility.yul\":4356:4377   */\n      mstore\n        /* \"#utility.yul\":4408:4412   */\n      0x20\n        /* \"#utility.yul\":4401:4406   */\n      dup2\n        /* \"#utility.yul\":4397:4413   */\n      add\n        /* \"#utility.yul\":4446:4449   */\n      dup5\n        /* \"#utility.yul\":4437:4443   */\n      dup5\n        /* \"#utility.yul\":4432:4435   */\n      dup5\n        /* \"#utility.yul\":4428:4444   */\n      add\n        /* \"#utility.yul\":4425:4450   */\n      gt\n        /* \"#utility.yul\":4422:4534   */\n      iszero\n      tag_118\n      jumpi\n        /* \"#utility.yul\":4453:4532   */\n      tag_119\n      tag_43\n      jump\t// in\n    tag_119:\n        /* \"#utility.yul\":4422:4534   */\n    tag_118:\n        /* \"#utility.yul\":4543:4584   */\n      tag_120\n        /* \"#utility.yul\":4577:4583   */\n      dup5\n        /* \"#utility.yul\":4572:4575   */\n      dup3\n        /* \"#utility.yul\":4567:4570   */\n      dup6\n        /* \"#utility.yul\":4543:4584   */\n      tag_48\n      jump\t// in\n    tag_120:\n        /* \"#utility.yul\":4262:4590   */\n      pop\n        /* \"#utility.yul\":4178:4590   */\n      swap4\n      swap3\n      pop\n      pop\n      pop\n      jump\t// out\n        /* \"#utility.yul\":4610:4950   */\n    tag_50:\n        /* \"#utility.yul\":4666:4671   */\n      0x00\n        /* \"#utility.yul\":4715:4718   */\n      dup3\n        /* \"#utility.yul\":4708:4712   */\n      0x1f\n        /* \"#utility.yul\":4700:4706   */\n      dup4\n        /* \"#utility.yul\":4696:4713   */\n      add\n        /* \"#utility.yul\":4692:4719   */\n      slt\n        /* \"#utility.yul\":4682:4804   */\n      tag_122\n      jumpi\n        /* \"#utility.yul\":4723:4802   */\n      tag_123\n      tag_42\n      jump\t// in\n    tag_123:\n        /* \"#utility.yul\":4682:4804   */\n    tag_122:\n        /* \"#utility.yul\":4840:4846   */\n      dup2\n        /* \"#utility.yul\":4827:4847   */\n      calldataload\n        /* \"#utility.yul\":4865:4944   */\n      tag_124\n        /* \"#utility.yul\":4940:4943   */\n      dup5\n        /* \"#utility.yul\":4932:4938   */\n      dup3\n        /* \"#utility.yul\":4925:4929   */\n      0x20\n        /* \"#utility.yul\":4917:4923   */\n      dup7\n        /* \"#utility.yul\":4913:4930   */\n      add\n        /* \"#utility.yul\":4865:4944   */\n      tag_49\n      jump\t// in\n    tag_124:\n        /* \"#utility.yul\":4856:4944   */\n      swap2\n      pop\n        /* \"#utility.yul\":4672:4950   */\n      pop\n        /* \"#utility.yul\":4610:4950   */\n      swap3\n      swap2\n      pop\n      pop\n      jump\t// out\n        /* \"#utility.yul\":4956:6081   */\n    tag_13:\n        /* \"#utility.yul\":5062:5068   */\n      0x00\n        /* \"#utility.yul\":5070:5076   */\n      dup1\n        /* \"#utility.yul\":5078:5084   */\n      0x00\n        /* \"#utility.yul\":5086:5092   */\n      dup1\n        /* \"#utility.yul\":5135:5138   */\n      0x80\n        /* \"#utility.yul\":5123:5132   */\n      dup6\n        /* \"#utility.yul\":5114:5121   */\n      dup8\n        /* \"#utility.yul\":5110:5133   */\n      sub\n        /* \"#utility.yul\":5106:5139   */\n      slt\n        /* \"#utility.yul\":5103:5223   */\n      iszero\n      tag_126\n      jumpi\n        /* \"#utility.yul\":5142:5221   */\n      tag_127\n      tag_31\n      jump\t// in\n    tag_127:\n        /* \"#utility.yul\":5103:5223   */\n    tag_126:\n        /* \"#utility.yul\":5262:5263   */\n      0x00\n        /* \"#utility.yul\":5287:5340   */\n      tag_128\n        /* \"#utility.yul\":5332:5339   */\n      dup8\n        /* \"#utility.yul\":5323:5329   */\n      dup3\n        /* \"#utility.yul\":5312:5321   */\n      dup9\n        /* \"#utility.yul\":5308:5330   */\n      add\n        /* \"#utility.yul\":5287:5340   */\n      tag_35\n      jump\t// in\n    tag_128:\n        /* \"#utility.yul\":5277:5340   */\n      swap5\n      pop\n        /* \"#utility.yul\":5233:5350   */\n      pop\n        /* \"#utility.yul\":5417:5419   */\n      0x20\n        /* \"#utility.yul\":5406:5415   */\n      dup6\n        /* \"#utility.yul\":5402:5420   */\n      add\n        /* \"#utility.yul\":5389:5421   */\n      calldataload\n        /* \"#utility.yul\":5448:5466   */\n      0xffffffffffffffff\n        /* \"#utility.yul\":5440:5446   */\n      dup2\n        /* \"#utility.yul\":5437:5467   */\n      gt\n        /* \"#utility.yul\":5434:5551   */\n      iszero\n      tag_129\n      jumpi\n        /* \"#utility.yul\":5470:5549   */\n      tag_130\n      tag_32\n      jump\t// in\n    tag_130:\n        /* \"#utility.yul\":5434:5551   */\n    tag_129:\n        /* \"#utility.yul\":5575:5638   */\n      tag_131\n        /* \"#utility.yul\":5630:5637   */\n      dup8\n        /* \"#utility.yul\":5621:5627   */\n      dup3\n        /* \"#utility.yul\":5610:5619   */\n      dup9\n        /* \"#utility.yul\":5606:5628   */\n      add\n        /* \"#utility.yul\":5575:5638   */\n      tag_50\n      jump\t// in\n    tag_131:\n        /* \"#utility.yul\":5565:5638   */\n      swap4\n      pop\n        /* \"#utility.yul\":5360:5648   */\n      pop\n        /* \"#utility.yul\":5687:5689   */\n      0x40\n        /* \"#utility.yul\":5713:5766   */\n      tag_132\n        /* \"#utility.yul\":5758:5765   */\n      dup8\n        /* \"#utility.yul\":5749:5755   */\n      dup3\n        /* \"#utility.yul\":5738:5747   */\n      dup9\n        /* \"#utility.yul\":5734:5756   */\n      add\n        /* \"#utility.yul\":5713:5766   */\n      tag_35\n      jump\t// in\n    tag_132:\n        /* \"#utility.yul\":5703:5766   */\n      swap3\n      pop\n        /* \"#utility.yul\":5658:5776   */\n      pop\n        /* \"#utility.yul\":5843:5845   */\n      0x60\n        /* \"#utility.yul\":5832:5841   */\n      dup6\n        /* \"#utility.yul\":5828:5846   */\n      add\n        /* \"#utility.yul\":5815:5847   */\n      calldataload\n        /* \"#utility.yul\":5874:5892   */\n      0xffffffffffffffff\n        /* \"#utility.yul\":5866:5872   */\n      dup2\n        /* \"#utility.yul\":5863:5893   */\n      gt\n        /* \"#utility.yul\":5860:5977   */\n      iszero\n      tag_133\n      jumpi\n        /* \"#utility.yul\":5896:5975   */\n      tag_134\n      tag_32\n      jump\t// in\n    tag_134:\n        /* \"#utility.yul\":5860:5977   */\n    tag_133:\n        /* \"#utility.yul\":6001:6064   */\n      tag_135\n        /* \"#utility.yul\":6056:6063   */\n      dup8\n        /* \"#utility.yul\":6047:6053   */\n      dup3\n        /* \"#utility.yul\":6036:6045   */\n      dup9\n        /* \"#utility.yul\":6032:6054   */\n      add\n        /* \"#utility.yul\":6001:6064   */\n      tag_50\n      jump\t// in\n    tag_135:\n        /* \"#utility.yul\":5991:6064   */\n      swap2\n      pop\n        /* \"#utility.yul\":5786:6074   */\n      pop\n        /* \"#utility.yul\":4956:6081   */\n      swap3\n      swap6\n      swap2\n      swap5\n      pop\n      swap3\n      pop\n      jump\t// out\n        /* \"#utility.yul\":6087:6267   */\n    tag_51:\n        /* \"#utility.yul\":6135:6212   */\n      0x4e487b7100000000000000000000000000000000000000000000000000000000\n        /* \"#utility.yul\":6132:6133   */\n      0x00\n        /* \"#utility.yul\":6125:6213   */\n      mstore\n        /* \"#utility.yul\":6232:6236   */\n      0x22\n        /* \"#utility.yul\":6229:6230   */\n      0x04\n        /* \"#utility.yul\":6222:6237   */\n      mstore\n        /* \"#utility.yul\":6256:6260   */\n      0x24\n        /* \"#utility.yul\":6253:6254   */\n      0x00\n        /* \"#utility.yul\":6246:6261   */\n      revert\n        /* \"#utility.yul\":6273:6593   */\n    tag_16:\n        /* \"#utility.yul\":6317:6323   */\n      0x00\n        /* \"#utility.yul\":6354:6355   */\n      0x02\n        /* \"#utility.yul\":6348:6352   */\n      dup3\n        /* \"#utility.yul\":6344:6356   */\n      div\n        /* \"#utility.yul\":6334:6356   */\n      swap1\n      pop\n        /* \"#utility.yul\":6401:6402   */\n      0x01\n        /* \"#utility.yul\":6395:6399   */\n      dup3\n        /* \"#utility.yul\":6391:6403   */\n      and\n        /* \"#utility.yul\":6422:6440   */\n      dup1\n        /* \"#utility.yul\":6412:6493   */\n      tag_138\n      jumpi\n        /* \"#utility.yul\":6478:6482   */\n      0x7f\n        /* \"#utility.yul\":6470:6476   */\n      dup3\n        /* \"#utility.yul\":6466:6483   */\n      and\n        /* \"#utility.yul\":6456:6483   */\n      swap2\n      pop\n        /* \"#utility.yul\":6412:6493   */\n    tag_138:\n        /* \"#utility.yul\":6540:6542   */\n      0x20\n        /* \"#utility.yul\":6532:6538   */\n      dup3\n        /* \"#utility.yul\":6529:6543   */\n      lt\n        /* \"#utility.yul\":6509:6527   */\n      dup2\n        /* \"#utility.yul\":6506:6544   */\n      sub\n        /* \"#utility.yul\":6503:6587   */\n      tag_139\n      jumpi\n        /* \"#utility.yul\":6559:6577   */\n      tag_140\n      tag_51\n      jump\t// in\n    tag_140:\n        /* \"#utility.yul\":6503:6587   */\n    tag_139:\n        /* \"#utility.yul\":6324:6593   */\n      pop\n        /* \"#utility.yul\":6273:6593   */\n      swap2\n      swap1\n      pop\n      jump\t// out\n        /* \"#utility.yul\":6599:6740   */\n    tag_52:\n        /* \"#utility.yul\":6648:6652   */\n      0x00\n        /* \"#utility.yul\":6671:6674   */\n      dup2\n        /* \"#utility.yul\":6663:6674   */\n      swap1\n      pop\n        /* \"#utility.yul\":6694:6697   */\n      dup2\n        /* \"#utility.yul\":6691:6692   */\n      0x00\n        /* \"#utility.yul\":6684:6698   */\n      mstore\n        /* \"#utility.yul\":6728:6732   */\n      0x20\n        /* \"#utility.yul\":6725:6726   */\n      0x00\n        /* \"#utility.yul\":6715:6733   */\n      keccak256\n        /* \"#utility.yul\":6707:6733   */\n      swap1\n      pop\n        /* \"#utility.yul\":6599:6740   */\n      swap2\n      swap1\n      pop\n      jump\t// out\n        /* \"#utility.yul\":6746:6839   */\n    tag_53:\n        /* \"#utility.yul\":6783:6789   */\n      0x00\n        /* \"#utility.yul\":6830:6832   */\n      0x20\n        /* \"#utility.yul\":6825:6827   */\n      0x1f\n        /* \"#utility.yul\":6818:6823   */\n      dup4\n        /* \"#utility.yul\":6814:6828   */\n      add\n        /* \"#utility.yul\":6810:6833   */\n      div\n        /* \"#utility.yul\":6800:6833   */\n      swap1\n      pop\n        /* \"#utility.yul\":6746:6839   */\n      swap2\n      swap1\n      pop\n      jump\t// out\n        /* \"#utility.yul\":6845:6952   */\n    tag_54:\n        /* \"#utility.yul\":6889:6897   */\n      0x00\n        /* \"#utility.yul\":6939:6944   */\n      dup3\n        /* \"#utility.yul\":6933:6937   */\n      dup3\n        /* \"#utility.yul\":6929:6945   */\n      shl\n        /* \"#utility.yul\":6908:6945   */\n      swap1\n      pop\n        /* \"#utility.yul\":6845:6952   */\n      swap3\n      swap2\n      pop\n      pop\n      jump\t// out\n        /* \"#utility.yul\":6958:7351   */\n    tag_55:\n        /* \"#utility.yul\":7027:7033   */\n      0x00\n        /* \"#utility.yul\":7077:7078   */\n      0x08\n        /* \"#utility.yul\":7065:7075   */\n      dup4\n        /* \"#utility.yul\":7061:7079   */\n      mul\n        /* \"#utility.yul\":7100:7197   */\n      tag_145\n        /* \"#utility.yul\":7130:7196   */\n      0xffffffffffffffffffffffffffffffffffffffffffffffffffffffffffffffff\n        /* \"#utility.yul\":7119:7128   */\n      dup3\n        /* \"#utility.yul\":7100:7197   */\n      tag_54\n      jump\t// in\n    tag_145:\n        /* \"#utility.yul\":7218:7257   */\n      tag_146\n        /* \"#utility.yul\":7248:7256   */\n      dup7\n        /* \"#utility.yul\":7237:7246   */\n      dup4\n        /* \"#utility.yul\":7218:7257   */\n      tag_54\n      jump\t// in\n    tag_146:\n        /* \"#utility.yul\":7206:7257   */\n      swap6\n      pop\n        /* \"#utility.yul\":7290:7294   */\n      dup1\n        /* \"#utility.yul\":7286:7295   */\n      not\n        /* \"#utility.yul\":7279:7284   */\n      dup5\n        /* \"#utility.yul\":7275:7296   */\n      and\n        /* \"#utility.yul\":7266:7296   */\n      swap4\n      pop\n        /* \"#utility.yul\":7339:7343   */\n      dup1\n        /* \"#utility.yul\":7329:7337   */\n      dup7\n        /* \"#utility.yul\":7325:7344   */\n      and\n        /* \"#utility.yul\":7318:7323   */\n      dup5\n        /* \"#utility.yul\":7315:7345   */\n      or\n        /* \"#utility.yul\":7305:7345   */\n      swap3\n      pop\n        /* \"#utility.yul\":7034:7351   */\n      pop\n      pop\n        /* \"#utility.yul\":6958:7351   */\n      swap4\n      swap3\n      pop\n      pop\n      pop\n      jump\t// out\n        /* \"#utility.yul\":7357:7417   */\n    tag_56:\n        /* \"#utility.yul\":7385:7388   */\n      0x00\n        /* \"#utility.yul\":7406:7411   */\n      dup2\n        /* \"#utility.yul\":7399:7411   */\n      swap1\n      pop\n        /* \"#utility.yul\":7357:7417   */\n      swap2\n      swap1\n      pop\n      jump\t// out\n        /* \"#utility.yul\":7423:7565   */\n    tag_57:\n        /* \"#utility.yul\":7473:7482   */\n      0x00\n        /* \"#utility.yul\":7506:7559   */\n      tag_149\n        /* \"#utility.yul\":7524:7558   */\n      tag_150\n        /* \"#utility.yul\":7533:7557   */\n      tag_151\n        /* \"#utility.yul\":7551:7556   */\n      dup5\n        /* \"#utility.yul\":7533:7557   */\n      tag_33\n      jump\t// in\n    tag_151:\n        /* \"#utility.yul\":7524:7558   */\n      tag_56\n      jump\t// in\n    tag_150:\n        /* \"#utility.yul\":7506:7559   */\n      tag_33\n      jump\t// in\n    tag_149:\n        /* \"#utility.yul\":7493:7559   */\n      swap1\n      pop\n        /* \"#utility.yul\":7423:7565   */\n      swap2\n      swap1\n      pop\n      jump\t// out\n        /* \"#utility.yul\":7571:7646   */\n    tag_58:\n        /* \"#utility.yul\":7614:7617   */\n      0x00\n        /* \"#utility.yul\":7635:7640   */\n      dup2\n        /* \"#utility.yul\":7628:7640   */\n      swap1\n      pop\n        /* \"#utility.yul\":7571:7646   */\n      swap2\n      swap1\n      pop\n      jump\t// out\n        /* \"#utility.yul\":7652:7921   */\n    tag_59:\n        /* \"#utility.yul\":7762:7801   */\n      tag_154\n        /* \"#utility.yul\":7793:7800   */\n      dup4\n        /* \"#utility.yul\":7762:7801   */\n      tag_57\n      jump\t// in\n    tag_154:\n        /* \"#utility.yul\":7823:7914   */\n      tag_155\n        /* \"#utility.yul\":7872:7913   */\n      tag_156\n        /* \"#utility.yul\":7896:7912   */\n      dup3\n        /* \"#utility.yul\":7872:7913   */\n      tag_58\n      jump\t// in\n    tag_156:\n        /* \"#utility.yul\":7864:7870   */\n      dup5\n        /* \"#utility.yul\":7857:7861   */\n      dup5\n        /* \"#utility.yul\":7851:7862   */\n      sload\n        /* \"#utility.yul\":7823:7914   */\n      tag_55\n      jump\t// in\n    tag_155:\n        /* \"#utility.yul\":7817:7821   */\n      dup3\n        /* \"#utility.yul\":7810:7915   */\n      sstore\n        /* \"#utility.yul\":7728:7921   */\n      pop\n        /* \"#utility.yul\":7652:7921   */\n      pop\n      pop\n      pop\n      jump\t// out\n        /* \"#utility.yul\":7927:8000   */\n    tag_60:\n        /* \"#utility.yul\":7972:7975   */\n      0x00\n        /* \"#utility.yul\":7927:8000   */\n      swap1\n      jump\t// out\n        /* \"#utility.yul\":8006:8195   */\n    tag_61:\n        /* \"#utility.yul\":8083:8115   */\n      tag_159\n      tag_60\n      jump\t// in\n    tag_159:\n        /* \"#utility.yul\":8124:8189   */\n      tag_160\n        /* \"#utility.yul\":8182:8188   */\n      dup2\n        /* \"#utility.yul\":8174:8180   */\n      dup5\n        /* \"#utility.yul\":8168:8172   */\n      dup5\n        /* \"#utility.yul\":8124:8189   */\n      tag_59\n      jump\t// in\n    tag_160:\n        /* \"#utility.yul\":8059:8195   */\n      pop\n        /* \"#utility.yul\":8006:8195   */\n      pop\n      pop\n      jump\t// out\n        /* \"#utility.yul\":8201:8387   */\n    tag_62:\n        /* \"#utility.yul\":8261:8381   */\n    tag_162:\n        /* \"#utility.yul\":8278:8281   */\n      dup2\n        /* \"#utility.yul\":8271:8276   */\n      dup2\n        /* \"#utility.yul\":8268:8282   */\n      lt\n        /* \"#utility.yul\":8261:8381   */\n      iszero\n      tag_164\n      jumpi\n        /* \"#utility.yul\":8332:8371   */\n      tag_165\n        /* \"#utility.yul\":8369:8370   */\n      0x00\n        /* \"#utility.yul\":8362:8367   */\n      dup3\n        /* \"#utility.yul\":8332:8371   */\n      tag_61\n      jump\t// in\n    tag_165:\n        /* \"#utility.yul\":8305:8306   */\n      0x01\n        /* \"#utility.yul\":8298:8303   */\n      dup2\n        /* \"#utility.yul\":8294:8307   */\n      add\n        /* \"#utility.yul\":8285:8307   */\n      swap1\n      pop\n        /* \"#utility.yul\":8261:8381   */\n      jump(tag_162)\n    tag_164:\n        /* \"#utility.yul\":8201:8387   */\n      pop\n      pop\n      jump\t// out\n        /* \"#utility.yul\":8393:8936   */\n    tag_63:\n        /* \"#utility.yul\":8494:8496   */\n      0x1f\n        /* \"#utility.yul\":8489:8492   */\n      dup3\n        /* \"#utility.yul\":8486:8497   */\n      gt\n        /* \"#utility.yul\":8483:8929   */\n      iszero\n      tag_167\n      jumpi\n        /* \"#utility.yul\":8528:8566   */\n      tag_168\n        /* \"#utility.yul\":8560:8565   */\n      dup2\n        /* \"#utility.yul\":8528:8566   */\n      tag_52\n      jump\t// in\n    tag_168:\n        /* \"#utility.yul\":8612:8641   */\n      tag_169\n        /* \"#utility.yul\":8630:8640   */\n      dup5\n        /* \"#utility.yul\":8612:8641   */\n      tag_53\n      jump\t// in\n    tag_169:\n        /* \"#utility.yul\":8602:8610   */\n      dup2\n        /* \"#utility.yul\":8598:8642   */\n      add\n        /* \"#utility.yul\":8795:8797   */\n      0x20\n        /* \"#utility.yul\":8783:8793   */\n      dup6\n        /* \"#utility.yul\":8780:8798   */\n      lt\n        /* \"#utility.yul\":8777:8826   */\n      iszero\n      tag_170\n      jumpi\n        /* \"#utility.yul\":8816:8824   */\n      dup2\n        /* \"#utility.yul\":8801:8824   */\n      swap1\n      pop\n        /* \"#utility.yul\":8777:8826   */\n    tag_170:\n        /* \"#utility.yul\":8839:8919   */\n      tag_171\n        /* \"#utility.yul\":8895:8917   */\n      tag_172\n        /* \"#utility.yul\":8913:8916   */\n      dup6\n        /* \"#utility.yul\":8895:8917   */\n      tag_53\n      jump\t// in\n    tag_172:\n        /* \"#utility.yul\":8885:8893   */\n      dup4\n        /* \"#utility.yul\":8881:8918   */\n      add\n        /* \"#utility.yul\":8868:8879   */\n      dup3\n        /* \"#utility.yul\":8839:8919   */\n      tag_62\n      jump\t// in\n    tag_171:\n        /* \"#utility.yul\":8498:8929   */\n      pop\n      pop\n        /* \"#utility.yul\":8483:8929   */\n    tag_167:\n        /* \"#utility.yul\":8393:8936   */\n      pop\n      pop\n      pop\n      jump\t// out\n        /* \"#utility.yul\":8942:9059   */\n    tag_64:\n        /* \"#utility.yul\":8996:9004   */\n      0x00\n        /* \"#utility.yul\":9046:9051   */\n      dup3\n        /* \"#utility.yul\":9040:9044   */\n      dup3\n        /* \"#utility.yul\":9036:9052   */\n      shr\n        /* \"#utility.yul\":9015:9052   */\n      swap1\n      pop\n        /* \"#utility.yul\":8942:9059   */\n      swap3\n      swap2\n      pop\n      pop\n      jump\t// out\n        /* \"#utility.yul\":9065:9234   */\n    tag_65:\n        /* \"#utility.yul\":9109:9115   */\n      0x00\n        /* \"#utility.yul\":9142:9193   */\n      tag_175\n        /* \"#utility.yul\":9190:9191   */\n      0x00\n        /* \"#utility.yul\":9186:9192   */\n      not\n        /* \"#utility.yul\":9178:9183   */\n      dup5\n        /* \"#utility.yul\":9175:9176   */\n      0x08\n        /* \"#utility.yul\":9171:9184   */\n      mul\n        /* \"#utility.yul\":9142:9193   */\n      tag_64\n      jump\t// in\n    tag_175:\n        /* \"#utility.yul\":9138:9194   */\n      not\n        /* \"#utility.yul\":9223:9227   */\n      dup1\n        /* \"#utility.yul\":9217:9221   */\n      dup4\n        /* \"#utility.yul\":9213:9228   */\n      and\n        /* \"#utility.yul\":9203:9228   */\n      swap2\n      pop\n        /* \"#utility.yul\":9116:9234   */\n      pop\n        /* \"#utility.yul\":9065:9234   */\n      swap3\n      swap2\n      pop\n      pop\n      jump\t// out\n        /* \"#utility.yul\":9239:9534   */\n    tag_66:\n        /* \"#utility.yul\":9315:9319   */\n      0x00\n        /* \"#utility.yul\":9461:9490   */\n      tag_177\n        /* \"#utility.yul\":9486:9489   */\n      dup4\n        /* \"#utility.yul\":9480:9484   */\n      dup4\n        /* \"#utility.yul\":9461:9490   */\n      tag_65\n      jump\t// in\n    tag_177:\n        /* \"#utility.yul\":9453:9490   */\n      swap2\n      pop\n        /* \"#utility.yul\":9523:9526   */\n      dup3\n        /* \"#utility.yul\":9520:9521   */\n      0x02\n        /* \"#utility.yul\":9516:9527   */\n      mul\n        /* \"#utility.yul\":9510:9514   */\n      dup3\n        /* \"#utility.yul\":9507:9528   */\n      or\n        /* \"#utility.yul\":9499:9528   */\n      swap1\n      pop\n        /* \"#utility.yul\":9239:9534   */\n      swap3\n      swap2\n      pop\n      pop\n      jump\t// out\n        /* \"#utility.yul\":9539:10934   */\n    tag_28:\n        /* \"#utility.yul\":9656:9693   */\n      tag_179\n        /* \"#utility.yul\":9689:9692   */\n      dup3\n        /* \"#utility.yul\":9656:9693   */\n      tag_36\n      jump\t// in\n    tag_179:\n        /* \"#utility.yul\":9758:9776   */\n      0xffffffffffffffff\n        /* \"#utility.yul\":9750:9756   */\n      dup2\n        /* \"#utility.yul\":9747:9777   */\n      gt\n        /* \"#utility.yul\":9744:9800   */\n      iszero\n      tag_180\n      jumpi\n        /* \"#utility.yul\":9780:9798   */\n      tag_181\n      tag_44\n      jump\t// in\n    tag_181:\n        /* \"#utility.yul\":9744:9800   */\n    tag_180:\n        /* \"#utility.yul\":9824:9862   */\n      tag_182\n        /* \"#utility.yul\":9856:9860   */\n      dup3\n        /* \"#utility.yul\":9850:9861   */\n      sload\n        /* \"#utility.yul\":9824:9862   */\n      tag_16\n      jump\t// in\n    tag_182:\n        /* \"#utility.yul\":9909:9976   */\n      tag_183\n        /* \"#utility.yul\":9969:9975   */\n      dup3\n        /* \"#utility.yul\":9961:9967   */\n      dup3\n        /* \"#utility.yul\":9955:9959   */\n      dup6\n        /* \"#utility.yul\":9909:9976   */\n      tag_63\n      jump\t// in\n    tag_183:\n        /* \"#utility.yul\":10003:10004   */\n      0x00\n        /* \"#utility.yul\":10027:10031   */\n      0x20\n        /* \"#utility.yul\":10014:10031   */\n      swap1\n      pop\n        /* \"#utility.yul\":10059:10061   */\n      0x1f\n        /* \"#utility.yul\":10051:10057   */\n      dup4\n        /* \"#utility.yul\":10048:10062   */\n      gt\n        /* \"#utility.yul\":10076:10077   */\n      0x01\n        /* \"#utility.yul\":10071:10689   */\n      dup2\n      eq\n      tag_185\n      jumpi\n        /* \"#utility.yul\":10733:10734   */\n      0x00\n        /* \"#utility.yul\":10750:10756   */\n      dup5\n        /* \"#utility.yul\":10747:10824   */\n      iszero\n      tag_186\n      jumpi\n        /* \"#utility.yul\":10799:10808   */\n      dup3\n        /* \"#utility.yul\":10794:10797   */\n      dup8\n        /* \"#utility.yul\":10790:10809   */\n      add\n        /* \"#utility.yul\":10784:10810   */\n      mload\n        /* \"#utility.yul\":10775:10810   */\n      swap1\n      pop\n        /* \"#utility.yul\":10747:10824   */\n    tag_186:\n        /* \"#utility.yul\":10850:10917   */\n      tag_187\n        /* \"#utility.yul\":10910:10916   */\n      dup6\n        /* \"#utility.yul\":10903:10908   */\n      dup3\n        /* \"#utility.yul\":10850:10917   */\n      tag_66\n      jump\t// in\n    tag_187:\n        /* \"#utility.yul\":10844:10848   */\n      dup7\n        /* \"#utility.yul\":10837:10918   */\n      sstore\n        /* \"#utility.yul\":10706:10928   */\n      pop\n        /* \"#utility.yul\":10041:10928   */\n      jump(tag_184)\n        /* \"#utility.yul\":10071:10689   */\n    tag_185:\n        /* \"#utility.yul\":10123:10127   */\n      0x1f\n        /* \"#utility.yul\":10119:10128   */\n      not\n        /* \"#utility.yul\":10111:10117   */\n      dup5\n        /* \"#utility.yul\":10107:10129   */\n      and\n        /* \"#utility.yul\":10157:10194   */\n      tag_188\n        /* \"#utility.yul\":10189:10193   */\n      dup7\n        /* \"#utility.yul\":10157:10194   */\n      tag_52\n      jump\t// in\n    tag_188:\n        /* \"#utility.yul\":10216:10217   */\n      0x00\n        /* \"#utility.yul\":10230:10438   */\n    tag_189:\n        /* \"#utility.yul\":10244:10251   */\n      dup3\n        /* \"#utility.yul\":10241:10242   */\n      dup2\n        /* \"#utility.yul\":10238:10252   */\n      lt\n        /* \"#utility.yul\":10230:10438   */\n      iszero\n      tag_191\n      jumpi\n        /* \"#utility.yul\":10323:10332   */\n      dup5\n        /* \"#utility.yul\":10318:10321   */\n      dup10\n        /* \"#utility.yul\":10314:10333   */\n      add\n        /* \"#utility.yul\":10308:10334   */\n      mload\n        /* \"#utility.yul\":10300:10306   */\n      dup3\n        /* \"#utility.yul\":10293:10335   */\n      sstore\n        /* \"#utility.yul\":10374:10375   */\n      0x01\n        /* \"#utility.yul\":10366:10372   */\n      dup3\n        /* \"#utility.yul\":10362:10376   */\n      add\n        /* \"#utility.yul\":10352:10376   */\n      swap2\n      pop\n        /* \"#utility.yul\":10421:10423   */\n      0x20\n        /* \"#utility.yul\":10410:10419   */\n      dup6\n        /* \"#utility.yul\":10406:10424   */\n      add\n        /* \"#utility.yul\":10393:10424   */\n      swap5\n      pop\n        /* \"#utility.yul\":10267:10271   */\n      0x20\n        /* \"#utility.yul\":10264:10265   */\n      dup2\n        /* \"#utility.yul\":10260:10272   */\n      add\n        /* \"#utility.yul\":10255:10272   */\n      swap1\n      pop\n        /* \"#utility.yul\":10230:10438   */\n      jump(tag_189)\n    tag_191:\n        /* \"#utility.yul\":10466:10472   */\n      dup7\n        /* \"#utility.yul\":10457:10464   */\n      dup4\n        /* \"#utility.yul\":10454:10473   */\n      lt\n        /* \"#utility.yul\":10451:10630   */\n      iszero\n      tag_192\n      jumpi\n        /* \"#utility.yul\":10524:10533   */\n      dup5\n        /* \"#utility.yul\":10519:10522   */\n      dup10\n        /* \"#utility.yul\":10515:10534   */\n      add\n        /* \"#utility.yul\":10509:10535   */\n      mload\n        /* \"#utility.yul\":10567:10615   */\n      tag_193\n        /* \"#utility.yul\":10609:10613   */\n      0x1f\n        /* \"#utility.yul\":10601:10607   */\n      dup10\n        /* \"#utility.yul\":10597:10614   */\n      and\n        /* \"#utility.yul\":10586:10595   */\n      dup3\n        /* \"#utility.yul\":10567:10615   */\n      tag_65\n      jump\t// in\n    tag_193:\n        /* \"#utility.yul\":10559:10565   */\n      dup4\n        /* \"#utility.yul\":10552:10616   */\n      sstore\n        /* \"#utility.yul\":10474:10630   */\n      pop\n        /* \"#utility.yul\":10451:10630   */\n    tag_192:\n        /* \"#utility.yul\":10676:10677   */\n      0x01\n        /* \"#utility.yul\":10672:10673   */\n      0x02\n        /* \"#utility.yul\":10664:10670   */\n      dup9\n        /* \"#utility.yul\":10660:10674   */\n      mul\n        /* \"#utility.yul\":10656:10678   */\n      add\n        /* \"#utility.yul\":10650:10654   */\n      dup9\n        /* \"#utility.yul\":10643:10679   */\n      sstore\n        /* \"#utility.yul\":10078:10689   */\n      pop\n      pop\n      pop\n        /* \"#utility.yul\":10041:10928   */\n    tag_184:\n      pop\n        /* \"#utility.yul\":9631:10934   */\n      pop\n      pop\n      pop\n        /* \"#utility.yul\":9539:10934   */\n      pop\n      pop\n      jump\t// out\n\n    auxdata: 0xa2646970667358221220ef763b2a25cad9eb2ce856cf3496a3fd685d18bdb312301861a81b0e06ce072064736f6c634300080f0033\n}\n",
				"bytecode": {
					"linkReferences": {},
					"object": "608060405234801561001057600080fd5b5061087b806100206000396000f3fe608060405234801561001057600080fd5b50600436106100365760003560e01c8063a85e58ca1461003b578063e8338b731461006d575b600080fd5b61005560048036038101906100509190610279565b610089565b6040516100649392919061034e565b60405180910390f35b610087600480360381019061008291906104c8565b6101c3565b005b60006020528060005260406000206000915090508060000180546100ac90610596565b80601f01602080910402602001604051908101604052809291908181526020018280546100d890610596565b80156101255780601f106100fa57610100808354040283529160200191610125565b820191906000526020600020905b81548152906001019060200180831161010857829003601f168201915b50505050509080600101549080600201805461014090610596565b80601f016020809104026020016040519081016040528092919081815260200182805461016c90610596565b80156101b95780601f1061018e576101008083540402835291602001916101b9565b820191906000526020600020905b81548152906001019060200180831161019c57829003601f168201915b5050505050905083565b60405180606001604052808481526020018381526020018281525060008086815260200190815260200160002060008201518160000190816102059190610773565b506020820151816001015560408201518160020190816102259190610773565b5090505050505050565b6000604051905090565b600080fd5b600080fd5b6000819050919050565b61025681610243565b811461026157600080fd5b50565b6000813590506102738161024d565b92915050565b60006020828403121561028f5761028e610239565b5b600061029d84828501610264565b91505092915050565b600081519050919050565b600082825260208201905092915050565b60005b838110156102e05780820151818401526020810190506102c5565b838111156102ef576000848401525b50505050565b6000601f19601f8301169050919050565b6000610311826102a6565b61031b81856102b1565b935061032b8185602086016102c2565b610334816102f5565b840191505092915050565b61034881610243565b82525050565b600060608201905081810360008301526103688186610306565b9050610377602083018561033f565b81810360408301526103898184610306565b9050949350505050565b600080fd5b600080fd5b7f4e487b7100000000000000000000000000000000000000000000000000000000600052604160045260246000fd5b6103d5826102f5565b810181811067ffffffffffffffff821117156103f4576103f361039d565b5b80604052505050565b600061040761022f565b905061041382826103cc565b919050565b600067ffffffffffffffff8211156104335761043261039d565b5b61043c826102f5565b9050602081019050919050565b82818337600083830152505050565b600061046b61046684610418565b6103fd565b90508281526020810184848401111561048757610486610398565b5b610492848285610449565b509392505050565b600082601f8301126104af576104ae610393565b5b81356104bf848260208601610458565b91505092915050565b600080600080608085870312156104e2576104e1610239565b5b60006104f087828801610264565b945050602085013567ffffffffffffffff8111156105115761051061023e565b5b61051d8782880161049a565b935050604061052e87828801610264565b925050606085013567ffffffffffffffff81111561054f5761054e61023e565b5b61055b8782880161049a565b91505092959194509250565b7f4e487b7100000000000000000000000000000000000000000000000000000000600052602260045260246000fd5b600060028204905060018216806105ae57607f821691505b6020821081036105c1576105c0610567565b5b50919050565b60008190508160005260206000209050919050565b60006020601f8301049050919050565b600082821b905092915050565b6000600883026106297fffffffffffffffffffffffffffffffffffffffffffffffffffffffffffffffff826105ec565b61063386836105ec565b95508019841693508086168417925050509392505050565b6000819050919050565b600061067061066b61066684610243565b61064b565b610243565b9050919050565b6000819050919050565b61068a83610655565b61069e61069682610677565b8484546105f9565b825550505050565b600090565b6106b36106a6565b6106be818484610681565b505050565b5b818110156106e2576106d76000826106ab565b6001810190506106c4565b5050565b601f821115610727576106f8816105c7565b610701846105dc565b81016020851015610710578190505b61072461071c856105dc565b8301826106c3565b50505b505050565b600082821c905092915050565b600061074a6000198460080261072c565b1980831691505092915050565b60006107638383610739565b9150826002028217905092915050565b61077c826102a6565b67ffffffffffffffff8111156107955761079461039d565b5b61079f8254610596565b6107aa8282856106e6565b600060209050601f8311600181146107dd57600084156107cb578287015190505b6107d58582610757565b86555061083d565b601f1984166107eb866105c7565b60005b82811015610813578489015182556001820191506020850194506020810190506107ee565b86831015610830578489015161082c601f891682610739565b8355505b6001600288020188555050505b50505050505056fea2646970667358221220ef763b2a25cad9eb2ce856cf3496a3fd685d18bdb312301861a81b0e06ce072064736f6c634300080f0033",
					"opcodes": "PUSH1 0x80 PUSH1 0x40 MSTORE CALLVALUE DUP1 ISZERO PUSH2 0x10 JUMPI PUSH1 0x0 DUP1 REVERT JUMPDEST POP PUSH2 0x87B DUP1 PUSH2 0x20 PUSH1 0x0 CODECOPY PUSH1 0x0 RETURN INVALID PUSH1 0x80 PUSH1 0x40 MSTORE CALLVALUE DUP1 ISZERO PUSH2 0x10 JUMPI PUSH1 0x0 DUP1 REVERT JUMPDEST POP PUSH1 0x4 CALLDATASIZE LT PUSH2 0x36 JUMPI PUSH1 0x0 CALLDATALOAD PUSH1 0xE0 SHR DUP1 PUSH4 0xA85E58CA EQ PUSH2 0x3B JUMPI DUP1 PUSH4 0xE8338B73 EQ PUSH2 0x6D JUMPI JUMPDEST PUSH1 0x0 DUP1 REVERT JUMPDEST PUSH2 0x55 PUSH1 0x4 DUP1 CALLDATASIZE SUB DUP2 ADD SWAP1 PUSH2 0x50 SWAP2 SWAP1 PUSH2 0x279 JUMP JUMPDEST PUSH2 0x89 JUMP JUMPDEST PUSH1 0x40 MLOAD PUSH2 0x64 SWAP4 SWAP3 SWAP2 SWAP1 PUSH2 0x34E JUMP JUMPDEST PUSH1 0x40 MLOAD DUP1 SWAP2 SUB SWAP1 RETURN JUMPDEST PUSH2 0x87 PUSH1 0x4 DUP1 CALLDATASIZE SUB DUP2 ADD SWAP1 PUSH2 0x82 SWAP2 SWAP1 PUSH2 0x4C8 JUMP JUMPDEST PUSH2 0x1C3 JUMP JUMPDEST STOP JUMPDEST PUSH1 0x0 PUSH1 0x20 MSTORE DUP1 PUSH1 0x0 MSTORE PUSH1 0x40 PUSH1 0x0 KECCAK256 PUSH1 0x0 SWAP2 POP SWAP1 POP DUP1 PUSH1 0x0 ADD DUP1 SLOAD PUSH2 0xAC SWAP1 PUSH2 0x596 JUMP JUMPDEST DUP1 PUSH1 0x1F ADD PUSH1 0x20 DUP1 SWAP2 DIV MUL PUSH1 0x20 ADD PUSH1 0x40 MLOAD SWAP1 DUP2 ADD PUSH1 0x40 MSTORE DUP1 SWAP3 SWAP2 SWAP1 DUP2 DUP2 MSTORE PUSH1 0x20 ADD DUP3 DUP1 SLOAD PUSH2 0xD8 SWAP1 PUSH2 0x596 JUMP JUMPDEST DUP1 ISZERO PUSH2 0x125 JUMPI DUP1 PUSH1 0x1F LT PUSH2 0xFA JUMPI PUSH2 0x100 DUP1 DUP4 SLOAD DIV MUL DUP4 MSTORE SWAP2 PUSH1 0x20 ADD SWAP2 PUSH2 0x125 JUMP JUMPDEST DUP3 ADD SWAP2 SWAP1 PUSH1 0x0 MSTORE PUSH1 0x20 PUSH1 0x0 KECCAK256 SWAP1 JUMPDEST DUP2 SLOAD DUP2 MSTORE SWAP1 PUSH1 0x1 ADD SWAP1 PUSH1 0x20 ADD DUP1 DUP4 GT PUSH2 0x108 JUMPI DUP3 SWAP1 SUB PUSH1 0x1F AND DUP3 ADD SWAP2 JUMPDEST POP POP POP POP POP SWAP1 DUP1 PUSH1 0x1 ADD SLOAD SWAP1 DUP1 PUSH1 0x2 ADD DUP1 SLOAD PUSH2 0x140 SWAP1 PUSH2 0x596 JUMP JUMPDEST DUP1 PUSH1 0x1F ADD PUSH1 0x20 DUP1 SWAP2 DIV MUL PUSH1 0x20 ADD PUSH1 0x40 MLOAD SWAP1 DUP2 ADD PUSH1 0x40 MSTORE DUP1 SWAP3 SWAP2 SWAP1 DUP2 DUP2 MSTORE PUSH1 0x20 ADD DUP3 DUP1 SLOAD PUSH2 0x16C SWAP1 PUSH2 0x596 JUMP JUMPDEST DUP1 ISZERO PUSH2 0x1B9 JUMPI DUP1 PUSH1 0x1F LT PUSH2 0x18E JUMPI PUSH2 0x100 DUP1 DUP4 SLOAD DIV MUL DUP4 MSTORE SWAP2 PUSH1 0x20 ADD SWAP2 PUSH2 0x1B9 JUMP JUMPDEST DUP3 ADD SWAP2 SWAP1 PUSH1 0x0 MSTORE PUSH1 0x20 PUSH1 0x0 KECCAK256 SWAP1 JUMPDEST DUP2 SLOAD DUP2 MSTORE SWAP1 PUSH1 0x1 ADD SWAP1 PUSH1 0x20 ADD DUP1 DUP4 GT PUSH2 0x19C JUMPI DUP3 SWAP1 SUB PUSH1 0x1F AND DUP3 ADD SWAP2 JUMPDEST POP POP POP POP POP SWAP1 POP DUP4 JUMP JUMPDEST PUSH1 0x40 MLOAD DUP1 PUSH1 0x60 ADD PUSH1 0x40 MSTORE DUP1 DUP5 DUP2 MSTORE PUSH1 0x20 ADD DUP4 DUP2 MSTORE PUSH1 0x20 ADD DUP3 DUP2 MSTORE POP PUSH1 0x0 DUP1 DUP7 DUP2 MSTORE PUSH1 0x20 ADD SWAP1 DUP2 MSTORE PUSH1 0x20 ADD PUSH1 0x0 KECCAK256 PUSH1 0x0 DUP3 ADD MLOAD DUP2 PUSH1 0x0 ADD SWAP1 DUP2 PUSH2 0x205 SWAP2 SWAP1 PUSH2 0x773 JUMP JUMPDEST POP PUSH1 0x20 DUP3 ADD MLOAD DUP2 PUSH1 0x1 ADD SSTORE PUSH1 0x40 DUP3 ADD MLOAD DUP2 PUSH1 0x2 ADD SWAP1 DUP2 PUSH2 0x225 SWAP2 SWAP1 PUSH2 0x773 JUMP JUMPDEST POP SWAP1 POP POP POP POP POP POP JUMP JUMPDEST PUSH1 0x0 PUSH1 0x40 MLOAD SWAP1 POP SWAP1 JUMP JUMPDEST PUSH1 0x0 DUP1 REVERT JUMPDEST PUSH1 0x0 DUP1 REVERT JUMPDEST PUSH1 0x0 DUP2 SWAP1 POP SWAP2 SWAP1 POP JUMP JUMPDEST PUSH2 0x256 DUP2 PUSH2 0x243 JUMP JUMPDEST DUP2 EQ PUSH2 0x261 JUMPI PUSH1 0x0 DUP1 REVERT JUMPDEST POP JUMP JUMPDEST PUSH1 0x0 DUP2 CALLDATALOAD SWAP1 POP PUSH2 0x273 DUP2 PUSH2 0x24D JUMP JUMPDEST SWAP3 SWAP2 POP POP JUMP JUMPDEST PUSH1 0x0 PUSH1 0x20 DUP3 DUP5 SUB SLT ISZERO PUSH2 0x28F JUMPI PUSH2 0x28E PUSH2 0x239 JUMP JUMPDEST JUMPDEST PUSH1 0x0 PUSH2 0x29D DUP5 DUP3 DUP6 ADD PUSH2 0x264 JUMP JUMPDEST SWAP2 POP POP SWAP3 SWAP2 POP POP JUMP JUMPDEST PUSH1 0x0 DUP2 MLOAD SWAP1 POP SWAP2 SWAP1 POP JUMP JUMPDEST PUSH1 0x0 DUP3 DUP3 MSTORE PUSH1 0x20 DUP3 ADD SWAP1 POP SWAP3 SWAP2 POP POP JUMP JUMPDEST PUSH1 0x0 JUMPDEST DUP4 DUP2 LT ISZERO PUSH2 0x2E0 JUMPI DUP1 DUP3 ADD MLOAD DUP2 DUP5 ADD MSTORE PUSH1 0x20 DUP2 ADD SWAP1 POP PUSH2 0x2C5 JUMP JUMPDEST DUP4 DUP2 GT ISZERO PUSH2 0x2EF JUMPI PUSH1 0x0 DUP5 DUP5 ADD MSTORE JUMPDEST POP POP POP POP JUMP JUMPDEST PUSH1 0x0 PUSH1 0x1F NOT PUSH1 0x1F DUP4 ADD AND SWAP1 POP SWAP2 SWAP1 POP JUMP JUMPDEST PUSH1 0x0 PUSH2 0x311 DUP3 PUSH2 0x2A6 JUMP JUMPDEST PUSH2 0x31B DUP2 DUP6 PUSH2 0x2B1 JUMP JUMPDEST SWAP4 POP PUSH2 0x32B DUP2 DUP6 PUSH1 0x20 DUP7 ADD PUSH2 0x2C2 JUMP JUMPDEST PUSH2 0x334 DUP2 PUSH2 0x2F5 JUMP JUMPDEST DUP5 ADD SWAP2 POP POP SWAP3 SWAP2 POP POP JUMP JUMPDEST PUSH2 0x348 DUP2 PUSH2 0x243 JUMP JUMPDEST DUP3 MSTORE POP POP JUMP JUMPDEST PUSH1 0x0 PUSH1 0x60 DUP3 ADD SWAP1 POP DUP2 DUP2 SUB PUSH1 0x0 DUP4 ADD MSTORE PUSH2 0x368 DUP2 DUP7 PUSH2 0x306 JUMP JUMPDEST SWAP1 POP PUSH2 0x377 PUSH1 0x20 DUP4 ADD DUP6 PUSH2 0x33F JUMP JUMPDEST DUP2 DUP2 SUB PUSH1 0x40 DUP4 ADD MSTORE PUSH2 0x389 DUP2 DUP5 PUSH2 0x306 JUMP JUMPDEST SWAP1 POP SWAP5 SWAP4 POP POP POP POP JUMP JUMPDEST PUSH1 0x0 DUP1 REVERT JUMPDEST PUSH1 0x0 DUP1 REVERT JUMPDEST PUSH32 0x4E487B7100000000000000000000000000000000000000000000000000000000 PUSH1 0x0 MSTORE PUSH1 0x41 PUSH1 0x4 MSTORE PUSH1 0x24 PUSH1 0x0 REVERT JUMPDEST PUSH2 0x3D5 DUP3 PUSH2 0x2F5 JUMP JUMPDEST DUP2 ADD DUP2 DUP2 LT PUSH8 0xFFFFFFFFFFFFFFFF DUP3 GT OR ISZERO PUSH2 0x3F4 JUMPI PUSH2 0x3F3 PUSH2 0x39D JUMP JUMPDEST JUMPDEST DUP1 PUSH1 0x40 MSTORE POP POP POP JUMP JUMPDEST PUSH1 0x0 PUSH2 0x407 PUSH2 0x22F JUMP JUMPDEST SWAP1 POP PUSH2 0x413 DUP3 DUP3 PUSH2 0x3CC JUMP JUMPDEST SWAP2 SWAP1 POP JUMP JUMPDEST PUSH1 0x0 PUSH8 0xFFFFFFFFFFFFFFFF DUP3 GT ISZERO PUSH2 0x433 JUMPI PUSH2 0x432 PUSH2 0x39D JUMP JUMPDEST JUMPDEST PUSH2 0x43C DUP3 PUSH2 0x2F5 JUMP JUMPDEST SWAP1 POP PUSH1 0x20 DUP2 ADD SWAP1 POP SWAP2 SWAP1 POP JUMP JUMPDEST DUP3 DUP2 DUP4 CALLDATACOPY PUSH1 0x0 DUP4 DUP4 ADD MSTORE POP POP POP JUMP JUMPDEST PUSH1 0x0 PUSH2 0x46B PUSH2 0x466 DUP5 PUSH2 0x418 JUMP JUMPDEST PUSH2 0x3FD JUMP JUMPDEST SWAP1 POP DUP3 DUP2 MSTORE PUSH1 0x20 DUP2 ADD DUP5 DUP5 DUP5 ADD GT ISZERO PUSH2 0x487 JUMPI PUSH2 0x486 PUSH2 0x398 JUMP JUMPDEST JUMPDEST PUSH2 0x492 DUP5 DUP3 DUP6 PUSH2 0x449 JUMP JUMPDEST POP SWAP4 SWAP3 POP POP POP JUMP JUMPDEST PUSH1 0x0 DUP3 PUSH1 0x1F DUP4 ADD SLT PUSH2 0x4AF JUMPI PUSH2 0x4AE PUSH2 0x393 JUMP JUMPDEST JUMPDEST DUP2 CALLDATALOAD PUSH2 0x4BF DUP5 DUP3 PUSH1 0x20 DUP7 ADD PUSH2 0x458 JUMP JUMPDEST SWAP2 POP POP SWAP3 SWAP2 POP POP JUMP JUMPDEST PUSH1 0x0 DUP1 PUSH1 0x0 DUP1 PUSH1 0x80 DUP6 DUP8 SUB SLT ISZERO PUSH2 0x4E2 JUMPI PUSH2 0x4E1 PUSH2 0x239 JUMP JUMPDEST JUMPDEST PUSH1 0x0 PUSH2 0x4F0 DUP8 DUP3 DUP9 ADD PUSH2 0x264 JUMP JUMPDEST SWAP5 POP POP PUSH1 0x20 DUP6 ADD CALLDATALOAD PUSH8 0xFFFFFFFFFFFFFFFF DUP2 GT ISZERO PUSH2 0x511 JUMPI PUSH2 0x510 PUSH2 0x23E JUMP JUMPDEST JUMPDEST PUSH2 0x51D DUP8 DUP3 DUP9 ADD PUSH2 0x49A JUMP JUMPDEST SWAP4 POP POP PUSH1 0x40 PUSH2 0x52E DUP8 DUP3 DUP9 ADD PUSH2 0x264 JUMP JUMPDEST SWAP3 POP POP PUSH1 0x60 DUP6 ADD CALLDATALOAD PUSH8 0xFFFFFFFFFFFFFFFF DUP2 GT ISZERO PUSH2 0x54F JUMPI PUSH2 0x54E PUSH2 0x23E JUMP JUMPDEST JUMPDEST PUSH2 0x55B DUP8 DUP3 DUP9 ADD PUSH2 0x49A JUMP JUMPDEST SWAP2 POP POP SWAP3 SWAP6 SWAP2 SWAP5 POP SWAP3 POP JUMP JUMPDEST PUSH32 0x4E487B7100000000000000000000000000000000000000000000000000000000 PUSH1 0x0 MSTORE PUSH1 0x22 PUSH1 0x4 MSTORE PUSH1 0x24 PUSH1 0x0 REVERT JUMPDEST PUSH1 0x0 PUSH1 0x2 DUP3 DIV SWAP1 POP PUSH1 0x1 DUP3 AND DUP1 PUSH2 0x5AE JUMPI PUSH1 0x7F DUP3 AND SWAP2 POP JUMPDEST PUSH1 0x20 DUP3 LT DUP2 SUB PUSH2 0x5C1 JUMPI PUSH2 0x5C0 PUSH2 0x567 JUMP JUMPDEST JUMPDEST POP SWAP2 SWAP1 POP JUMP JUMPDEST PUSH1 0x0 DUP2 SWAP1 POP DUP2 PUSH1 0x0 MSTORE PUSH1 0x20 PUSH1 0x0 KECCAK256 SWAP1 POP SWAP2 SWAP1 POP JUMP JUMPDEST PUSH1 0x0 PUSH1 0x20 PUSH1 0x1F DUP4 ADD DIV SWAP1 POP SWAP2 SWAP1 POP JUMP JUMPDEST PUSH1 0x0 DUP3 DUP3 SHL SWAP1 POP SWAP3 SWAP2 POP POP JUMP JUMPDEST PUSH1 0x0 PUSH1 0x8 DUP4 MUL PUSH2 0x629 PUSH32 0xFFFFFFFFFFFFFFFFFFFFFFFFFFFFFFFFFFFFFFFFFFFFFFFFFFFFFFFFFFFFFFFF DUP3 PUSH2 0x5EC JUMP JUMPDEST PUSH2 0x633 DUP7 DUP4 PUSH2 0x5EC JUMP JUMPDEST SWAP6 POP DUP1 NOT DUP5 AND SWAP4 POP DUP1 DUP7 AND DUP5 OR SWAP3 POP POP POP SWAP4 SWAP3 POP POP POP JUMP JUMPDEST PUSH1 0x0 DUP2 SWAP1 POP SWAP2 SWAP1 POP JUMP JUMPDEST PUSH1 0x0 PUSH2 0x670 PUSH2 0x66B PUSH2 0x666 DUP5 PUSH2 0x243 JUMP JUMPDEST PUSH2 0x64B JUMP JUMPDEST PUSH2 0x243 JUMP JUMPDEST SWAP1 POP SWAP2 SWAP1 POP JUMP JUMPDEST PUSH1 0x0 DUP2 SWAP1 POP SWAP2 SWAP1 POP JUMP JUMPDEST PUSH2 0x68A DUP4 PUSH2 0x655 JUMP JUMPDEST PUSH2 0x69E PUSH2 0x696 DUP3 PUSH2 0x677 JUMP JUMPDEST DUP5 DUP5 SLOAD PUSH2 0x5F9 JUMP JUMPDEST DUP3 SSTORE POP POP POP POP JUMP JUMPDEST PUSH1 0x0 SWAP1 JUMP JUMPDEST PUSH2 0x6B3 PUSH2 0x6A6 JUMP JUMPDEST PUSH2 0x6BE DUP2 DUP5 DUP5 PUSH2 0x681 JUMP JUMPDEST POP POP POP JUMP JUMPDEST JUMPDEST DUP2 DUP2 LT ISZERO PUSH2 0x6E2 JUMPI PUSH2 0x6D7 PUSH1 0x0 DUP3 PUSH2 0x6AB JUMP JUMPDEST PUSH1 0x1 DUP2 ADD SWAP1 POP PUSH2 0x6C4 JUMP JUMPDEST POP POP JUMP JUMPDEST PUSH1 0x1F DUP3 GT ISZERO PUSH2 0x727 JUMPI PUSH2 0x6F8 DUP2 PUSH2 0x5C7 JUMP JUMPDEST PUSH2 0x701 DUP5 PUSH2 0x5DC JUMP JUMPDEST DUP2 ADD PUSH1 0x20 DUP6 LT ISZERO PUSH2 0x710 JUMPI DUP2 SWAP1 POP JUMPDEST PUSH2 0x724 PUSH2 0x71C DUP6 PUSH2 0x5DC JUMP JUMPDEST DUP4 ADD DUP3 PUSH2 0x6C3 JUMP JUMPDEST POP POP JUMPDEST POP POP POP JUMP JUMPDEST PUSH1 0x0 DUP3 DUP3 SHR SWAP1 POP SWAP3 SWAP2 POP POP JUMP JUMPDEST PUSH1 0x0 PUSH2 0x74A PUSH1 0x0 NOT DUP5 PUSH1 0x8 MUL PUSH2 0x72C JUMP JUMPDEST NOT DUP1 DUP4 AND SWAP2 POP POP SWAP3 SWAP2 POP POP JUMP JUMPDEST PUSH1 0x0 PUSH2 0x763 DUP4 DUP4 PUSH2 0x739 JUMP JUMPDEST SWAP2 POP DUP3 PUSH1 0x2 MUL DUP3 OR SWAP1 POP SWAP3 SWAP2 POP POP JUMP JUMPDEST PUSH2 0x77C DUP3 PUSH2 0x2A6 JUMP JUMPDEST PUSH8 0xFFFFFFFFFFFFFFFF DUP2 GT ISZERO PUSH2 0x795 JUMPI PUSH2 0x794 PUSH2 0x39D JUMP JUMPDEST JUMPDEST PUSH2 0x79F DUP3 SLOAD PUSH2 0x596 JUMP JUMPDEST PUSH2 0x7AA DUP3 DUP3 DUP6 PUSH2 0x6E6 JUMP JUMPDEST PUSH1 0x0 PUSH1 0x20 SWAP1 POP PUSH1 0x1F DUP4 GT PUSH1 0x1 DUP2 EQ PUSH2 0x7DD JUMPI PUSH1 0x0 DUP5 ISZERO PUSH2 0x7CB JUMPI DUP3 DUP8 ADD MLOAD SWAP1 POP JUMPDEST PUSH2 0x7D5 DUP6 DUP3 PUSH2 0x757 JUMP JUMPDEST DUP7 SSTORE POP PUSH2 0x83D JUMP JUMPDEST PUSH1 0x1F NOT DUP5 AND PUSH2 0x7EB DUP7 PUSH2 0x5C7 JUMP JUMPDEST PUSH1 0x0 JUMPDEST DUP3 DUP2 LT ISZERO PUSH2 0x813 JUMPI DUP5 DUP10 ADD MLOAD DUP3 SSTORE PUSH1 0x1 DUP3 ADD SWAP2 POP PUSH1 0x20 DUP6 ADD SWAP5 POP PUSH1 0x20 DUP2 ADD SWAP1 POP PUSH2 0x7EE JUMP JUMPDEST DUP7 DUP4 LT ISZERO PUSH2 0x830 JUMPI DUP5 DUP10 ADD MLOAD PUSH2 0x82C PUSH1 0x1F DUP10 AND DUP3 PUSH2 0x739 JUMP JUMPDEST DUP4 SSTORE POP JUMPDEST PUSH1 0x1 PUSH1 0x2 DUP9 MUL ADD DUP9 SSTORE POP POP POP JUMPDEST POP POP POP POP POP POP JUMP INVALID LOG2 PUSH5 0x6970667358 0x22 SLT KECCAK256 0xEF PUSH23 0x3B2A25CAD9EB2CE856CF3496A3FD685D18BDB312301861 0xA8 SHL 0xE MOD 0xCE SMOD KECCAK256 PUSH5 0x736F6C6343 STOP ADDMOD 0xF STOP CALLER "
				},
				"gasEstimates": {
					"creation": {
						"codeDepositCost": "434200",
						"executionCost": "468",
						"totalCost": "434668"
					},
					"external": {
						"my_car(uint256)": "infinite",
						"setter(uint256,string,uint256,string)": "infinite"
					}
				},
				"methodIdentifiers": {
					"my_car(uint256)": "a85e58ca",
					"setter(uint256,string,uint256,string)": "e8338b73"
				}
			},
			"storageLayout": {
				"storage": [
					{
						"astId": 13,
						"contract": "mapping.sol:MappingTest",
						"label": "my_car",
						"offset": 0,
						"slot": "0",
						"type": "t_mapping(t_uint256,t_struct(car)8_storage)"
					}
				],
				"types": {
					"t_mapping(t_uint256,t_struct(car)8_storage)": {
						"encoding": "mapping",
						"key": "t_uint256",
						"label": "mapping(uint256 => struct MappingTest.car)",
						"numberOfBytes": "32",
						"value": "t_struct(car)8_storage"
					},
					"t_string_storage": {
						"encoding": "bytes",
						"label": "string",
						"numberOfBytes": "32"
					},
					"t_struct(car)8_storage": {
						"encoding": "inplace",
						"label": "struct MappingTest.car",
						"members": [
							{
								"astId": 3,
								"contract": "mapping.sol:MappingTest",
								"label": "name",
								"offset": 0,
								"slot": "0",
								"type": "t_string_storage"
							},
							{
								"astId": 5,
								"contract": "mapping.sol:MappingTest",
								"label": "carnumber",
								"offset": 0,
								"slot": "1",
								"type": "t_uint256"
							},
							{
								"astId": 7,
								"contract": "mapping.sol:MappingTest",
								"label": "ownername",
								"offset": 0,
								"slot": "2",
								"type": "t_string_storage"
							}
						],
						"numberOfBytes": "96"
					},
					"t_uint256": {
						"encoding": "inplace",
						"label": "uint256",
						"numberOfBytes": "32"
					}
				}
			},
			"userdoc": {
				"kind": "user",
				"methods": {},
				"version": 1
			}
		}
	}
}