{
	"testing.sol": {
		"testing": {
			"abi": [
				{
					"inputs": [
						{
							"internalType": "uint256",
							"name": "",
							"type": "uint256"
						}
					],
					"name": "book_detail",
					"outputs": [
						{
							"internalType": "string",
							"name": "title",
							"type": "string"
						},
						{
							"internalType": "string",
							"name": "author",
							"type": "string"
						},
						{
							"internalType": "uint256",
							"name": "number",
							"type": "uint256"
						},
						{
							"internalType": "uint256",
							"name": "shelfbook",
							"type": "uint256"
						}
					],
					"stateMutability": "view",
					"type": "function"
				}
			],
			"devdoc": {
				"kind": "dev",
				"methods": {},
				"version": 1
			},
			"evm": {
				"assembly": "    /* \"testing.sol\":66:439  contract testing{\r... */\n  mstore(0x40, 0x80)\n  callvalue\n  dup1\n  iszero\n  tag_1\n  jumpi\n  0x00\n  dup1\n  revert\ntag_1:\n  pop\n  dataSize(sub_0)\n  dup1\n  dataOffset(sub_0)\n  0x00\n  codecopy\n  0x00\n  return\nstop\n\nsub_0: assembly {\n        /* \"testing.sol\":66:439  contract testing{\r... */\n      mstore(0x40, 0x80)\n      callvalue\n      dup1\n      iszero\n      tag_1\n      jumpi\n      0x00\n      dup1\n      revert\n    tag_1:\n      pop\n      jumpi(tag_2, lt(calldatasize, 0x04))\n      shr(0xe0, calldataload(0x00))\n      dup1\n      0x9ab14cb0\n      eq\n      tag_3\n      jumpi\n    tag_2:\n      0x00\n      dup1\n      revert\n        /* \"testing.sol\":208:249  mapping (uint => book) public book_detail */\n    tag_3:\n      tag_4\n      0x04\n      dup1\n      calldatasize\n      sub\n      dup2\n      add\n      swap1\n      tag_5\n      swap2\n      swap1\n      tag_6\n      jump\t// in\n    tag_5:\n      tag_7\n      jump\t// in\n    tag_4:\n      mload(0x40)\n      tag_8\n      swap5\n      swap4\n      swap3\n      swap2\n      swap1\n      tag_9\n      jump\t// in\n    tag_8:\n      mload(0x40)\n      dup1\n      swap2\n      sub\n      swap1\n      return\n    tag_7:\n      mstore(0x20, 0x00)\n      dup1\n      0x00\n      mstore\n      keccak256(0x00, 0x40)\n      0x00\n      swap2\n      pop\n      swap1\n      pop\n      dup1\n      0x00\n      add\n      dup1\n      sload\n      tag_10\n      swap1\n      tag_11\n      jump\t// in\n    tag_10:\n      dup1\n      0x1f\n      add\n      0x20\n      dup1\n      swap2\n      div\n      mul\n      0x20\n      add\n      mload(0x40)\n      swap1\n      dup2\n      add\n      0x40\n      mstore\n      dup1\n      swap3\n      swap2\n      swap1\n      dup2\n      dup2\n      mstore\n      0x20\n      add\n      dup3\n      dup1\n      sload\n      tag_12\n      swap1\n      tag_11\n      jump\t// in\n    tag_12:\n      dup1\n      iszero\n      tag_13\n      jumpi\n      dup1\n      0x1f\n      lt\n      tag_14\n      jumpi\n      0x0100\n      dup1\n      dup4\n      sload\n      div\n      mul\n      dup4\n      mstore\n      swap2\n      0x20\n      add\n      swap2\n      jump(tag_13)\n    tag_14:\n      dup3\n      add\n      swap2\n      swap1\n      0x00\n      mstore\n      keccak256(0x00, 0x20)\n      swap1\n    tag_15:\n      dup2\n      sload\n      dup2\n      mstore\n      swap1\n      0x01\n      add\n      swap1\n      0x20\n      add\n      dup1\n      dup4\n      gt\n      tag_15\n      jumpi\n      dup3\n      swap1\n      sub\n      0x1f\n      and\n      dup3\n      add\n      swap2\n    tag_13:\n      pop\n      pop\n      pop\n      pop\n      pop\n      swap1\n      dup1\n      0x01\n      add\n      dup1\n      sload\n      tag_16\n      swap1\n      tag_11\n      jump\t// in\n    tag_16:\n      dup1\n      0x1f\n      add\n      0x20\n      dup1\n      swap2\n      div\n      mul\n      0x20\n      add\n      mload(0x40)\n      swap1\n      dup2\n      add\n      0x40\n      mstore\n      dup1\n      swap3\n      swap2\n      swap1\n      dup2\n      dup2\n      mstore\n      0x20\n      add\n      dup3\n      dup1\n      sload\n      tag_17\n      swap1\n      tag_11\n      jump\t// in\n    tag_17:\n      dup1\n      iszero\n      tag_18\n      jumpi\n      dup1\n      0x1f\n      lt\n      tag_19\n      jumpi\n      0x0100\n      dup1\n      dup4\n      sload\n      div\n      mul\n      dup4\n      mstore\n      swap2\n      0x20\n      add\n      swap2\n      jump(tag_18)\n    tag_19:\n      dup3\n      add\n      swap2\n      swap1\n      0x00\n      mstore\n      keccak256(0x00, 0x20)\n      swap1\n    tag_20:\n      dup2\n      sload\n      dup2\n      mstore\n      swap1\n      0x01\n      add\n      swap1\n      0x20\n      add\n      dup1\n      dup4\n      gt\n      tag_20\n      jumpi\n      dup3\n      swap1\n      sub\n      0x1f\n      and\n      dup3\n      add\n      swap2\n    tag_18:\n      pop\n      pop\n      pop\n      pop\n      pop\n      swap1\n      dup1\n      0x02\n      add\n      sload\n      swap1\n      dup1\n      0x03\n      add\n      sload\n      swap1\n      pop\n      dup5\n      jump\t// out\n        /* \"#utility.yul\":7:146   */\n    tag_22:\n        /* \"#utility.yul\":53:58   */\n      0x00\n        /* \"#utility.yul\":91:97   */\n      dup2\n        /* \"#utility.yul\":78:98   */\n      calldataload\n        /* \"#utility.yul\":69:98   */\n      swap1\n      pop\n        /* \"#utility.yul\":107:140   */\n      tag_24\n        /* \"#utility.yul\":134:139   */\n      dup2\n        /* \"#utility.yul\":107:140   */\n      tag_25\n      jump\t// in\n    tag_24:\n        /* \"#utility.yul\":7:146   */\n      swap3\n      swap2\n      pop\n      pop\n      jump\t// out\n        /* \"#utility.yul\":152:481   */\n    tag_6:\n        /* \"#utility.yul\":211:217   */\n      0x00\n        /* \"#utility.yul\":260:262   */\n      0x20\n        /* \"#utility.yul\":248:257   */\n      dup3\n        /* \"#utility.yul\":239:246   */\n      dup5\n        /* \"#utility.yul\":235:258   */\n      sub\n        /* \"#utility.yul\":231:263   */\n      slt\n        /* \"#utility.yul\":228:347   */\n      iszero\n      tag_27\n      jumpi\n        /* \"#utility.yul\":266:345   */\n      tag_28\n      tag_29\n      jump\t// in\n    tag_28:\n        /* \"#utility.yul\":228:347   */\n    tag_27:\n        /* \"#utility.yul\":386:387   */\n      0x00\n        /* \"#utility.yul\":411:464   */\n      tag_30\n        /* \"#utility.yul\":456:463   */\n      dup5\n        /* \"#utility.yul\":447:453   */\n      dup3\n        /* \"#utility.yul\":436:445   */\n      dup6\n        /* \"#utility.yul\":432:454   */\n      add\n        /* \"#utility.yul\":411:464   */\n      tag_22\n      jump\t// in\n    tag_30:\n        /* \"#utility.yul\":401:464   */\n      swap2\n      pop\n        /* \"#utility.yul\":357:474   */\n      pop\n        /* \"#utility.yul\":152:481   */\n      swap3\n      swap2\n      pop\n      pop\n      jump\t// out\n        /* \"#utility.yul\":487:851   */\n    tag_31:\n        /* \"#utility.yul\":575:578   */\n      0x00\n        /* \"#utility.yul\":603:642   */\n      tag_33\n        /* \"#utility.yul\":636:641   */\n      dup3\n        /* \"#utility.yul\":603:642   */\n      tag_34\n      jump\t// in\n    tag_33:\n        /* \"#utility.yul\":658:729   */\n      tag_35\n        /* \"#utility.yul\":722:728   */\n      dup2\n        /* \"#utility.yul\":717:720   */\n      dup6\n        /* \"#utility.yul\":658:729   */\n      tag_36\n      jump\t// in\n    tag_35:\n        /* \"#utility.yul\":651:729   */\n      swap4\n      pop\n        /* \"#utility.yul\":738:790   */\n      tag_37\n        /* \"#utility.yul\":783:789   */\n      dup2\n        /* \"#utility.yul\":778:781   */\n      dup6\n        /* \"#utility.yul\":771:775   */\n      0x20\n        /* \"#utility.yul\":764:769   */\n      dup7\n        /* \"#utility.yul\":760:776   */\n      add\n        /* \"#utility.yul\":738:790   */\n      tag_38\n      jump\t// in\n    tag_37:\n        /* \"#utility.yul\":815:844   */\n      tag_39\n        /* \"#utility.yul\":837:843   */\n      dup2\n        /* \"#utility.yul\":815:844   */\n      tag_40\n      jump\t// in\n    tag_39:\n        /* \"#utility.yul\":810:813   */\n      dup5\n        /* \"#utility.yul\":806:845   */\n      add\n        /* \"#utility.yul\":799:845   */\n      swap2\n      pop\n        /* \"#utility.yul\":579:851   */\n      pop\n        /* \"#utility.yul\":487:851   */\n      swap3\n      swap2\n      pop\n      pop\n      jump\t// out\n        /* \"#utility.yul\":857:975   */\n    tag_41:\n        /* \"#utility.yul\":944:968   */\n      tag_43\n        /* \"#utility.yul\":962:967   */\n      dup2\n        /* \"#utility.yul\":944:968   */\n      tag_44\n      jump\t// in\n    tag_43:\n        /* \"#utility.yul\":939:942   */\n      dup3\n        /* \"#utility.yul\":932:969   */\n      mstore\n        /* \"#utility.yul\":857:975   */\n      pop\n      pop\n      jump\t// out\n        /* \"#utility.yul\":981:1716   */\n    tag_9:\n        /* \"#utility.yul\":1198:1202   */\n      0x00\n        /* \"#utility.yul\":1236:1239   */\n      0x80\n        /* \"#utility.yul\":1225:1234   */\n      dup3\n        /* \"#utility.yul\":1221:1240   */\n      add\n        /* \"#utility.yul\":1213:1240   */\n      swap1\n      pop\n        /* \"#utility.yul\":1286:1295   */\n      dup2\n        /* \"#utility.yul\":1280:1284   */\n      dup2\n        /* \"#utility.yul\":1276:1296   */\n      sub\n        /* \"#utility.yul\":1272:1273   */\n      0x00\n        /* \"#utility.yul\":1261:1270   */\n      dup4\n        /* \"#utility.yul\":1257:1274   */\n      add\n        /* \"#utility.yul\":1250:1297   */\n      mstore\n        /* \"#utility.yul\":1314:1392   */\n      tag_46\n        /* \"#utility.yul\":1387:1391   */\n      dup2\n        /* \"#utility.yul\":1378:1384   */\n      dup8\n        /* \"#utility.yul\":1314:1392   */\n      tag_31\n      jump\t// in\n    tag_46:\n        /* \"#utility.yul\":1306:1392   */\n      swap1\n      pop\n        /* \"#utility.yul\":1439:1448   */\n      dup2\n        /* \"#utility.yul\":1433:1437   */\n      dup2\n        /* \"#utility.yul\":1429:1449   */\n      sub\n        /* \"#utility.yul\":1424:1426   */\n      0x20\n        /* \"#utility.yul\":1413:1422   */\n      dup4\n        /* \"#utility.yul\":1409:1427   */\n      add\n        /* \"#utility.yul\":1402:1450   */\n      mstore\n        /* \"#utility.yul\":1467:1545   */\n      tag_47\n        /* \"#utility.yul\":1540:1544   */\n      dup2\n        /* \"#utility.yul\":1531:1537   */\n      dup7\n        /* \"#utility.yul\":1467:1545   */\n      tag_31\n      jump\t// in\n    tag_47:\n        /* \"#utility.yul\":1459:1545   */\n      swap1\n      pop\n        /* \"#utility.yul\":1555:1627   */\n      tag_48\n        /* \"#utility.yul\":1623:1625   */\n      0x40\n        /* \"#utility.yul\":1612:1621   */\n      dup4\n        /* \"#utility.yul\":1608:1626   */\n      add\n        /* \"#utility.yul\":1599:1605   */\n      dup6\n        /* \"#utility.yul\":1555:1627   */\n      tag_41\n      jump\t// in\n    tag_48:\n        /* \"#utility.yul\":1637:1709   */\n      tag_49\n        /* \"#utility.yul\":1705:1707   */\n      0x60\n        /* \"#utility.yul\":1694:1703   */\n      dup4\n        /* \"#utility.yul\":1690:1708   */\n      add\n        /* \"#utility.yul\":1681:1687   */\n      dup5\n        /* \"#utility.yul\":1637:1709   */\n      tag_41\n      jump\t// in\n    tag_49:\n        /* \"#utility.yul\":981:1716   */\n      swap6\n      swap5\n      pop\n      pop\n      pop\n      pop\n      pop\n      jump\t// out\n        /* \"#utility.yul\":1803:1902   */\n    tag_34:\n        /* \"#utility.yul\":1855:1861   */\n      0x00\n        /* \"#utility.yul\":1889:1894   */\n      dup2\n        /* \"#utility.yul\":1883:1895   */\n      mload\n        /* \"#utility.yul\":1873:1895   */\n      swap1\n      pop\n        /* \"#utility.yul\":1803:1902   */\n      swap2\n      swap1\n      pop\n      jump\t// out\n        /* \"#utility.yul\":1908:2077   */\n    tag_36:\n        /* \"#utility.yul\":1992:2003   */\n      0x00\n        /* \"#utility.yul\":2026:2032   */\n      dup3\n        /* \"#utility.yul\":2021:2024   */\n      dup3\n        /* \"#utility.yul\":2014:2033   */\n      mstore\n        /* \"#utility.yul\":2066:2070   */\n      0x20\n        /* \"#utility.yul\":2061:2064   */\n      dup3\n        /* \"#utility.yul\":2057:2071   */\n      add\n        /* \"#utility.yul\":2042:2071   */\n      swap1\n      pop\n        /* \"#utility.yul\":1908:2077   */\n      swap3\n      swap2\n      pop\n      pop\n      jump\t// out\n        /* \"#utility.yul\":2083:2160   */\n    tag_44:\n        /* \"#utility.yul\":2120:2127   */\n      0x00\n        /* \"#utility.yul\":2149:2154   */\n      dup2\n        /* \"#utility.yul\":2138:2154   */\n      swap1\n      pop\n        /* \"#utility.yul\":2083:2160   */\n      swap2\n      swap1\n      pop\n      jump\t// out\n        /* \"#utility.yul\":2166:2473   */\n    tag_38:\n        /* \"#utility.yul\":2234:2235   */\n      0x00\n        /* \"#utility.yul\":2244:2357   */\n    tag_56:\n        /* \"#utility.yul\":2258:2264   */\n      dup4\n        /* \"#utility.yul\":2255:2256   */\n      dup2\n        /* \"#utility.yul\":2252:2265   */\n      lt\n        /* \"#utility.yul\":2244:2357   */\n      iszero\n      tag_58\n      jumpi\n        /* \"#utility.yul\":2343:2344   */\n      dup1\n        /* \"#utility.yul\":2338:2341   */\n      dup3\n        /* \"#utility.yul\":2334:2345   */\n      add\n        /* \"#utility.yul\":2328:2346   */\n      mload\n        /* \"#utility.yul\":2324:2325   */\n      dup2\n        /* \"#utility.yul\":2319:2322   */\n      dup5\n        /* \"#utility.yul\":2315:2326   */\n      add\n        /* \"#utility.yul\":2308:2347   */\n      mstore\n        /* \"#utility.yul\":2280:2282   */\n      0x20\n        /* \"#utility.yul\":2277:2278   */\n      dup2\n        /* \"#utility.yul\":2273:2283   */\n      add\n        /* \"#utility.yul\":2268:2283   */\n      swap1\n      pop\n        /* \"#utility.yul\":2244:2357   */\n      jump(tag_56)\n    tag_58:\n        /* \"#utility.yul\":2375:2381   */\n      dup4\n        /* \"#utility.yul\":2372:2373   */\n      dup2\n        /* \"#utility.yul\":2369:2382   */\n      gt\n        /* \"#utility.yul\":2366:2467   */\n      iszero\n      tag_59\n      jumpi\n        /* \"#utility.yul\":2455:2456   */\n      0x00\n        /* \"#utility.yul\":2446:2452   */\n      dup5\n        /* \"#utility.yul\":2441:2444   */\n      dup5\n        /* \"#utility.yul\":2437:2453   */\n      add\n        /* \"#utility.yul\":2430:2457   */\n      mstore\n        /* \"#utility.yul\":2366:2467   */\n    tag_59:\n        /* \"#utility.yul\":2215:2473   */\n      pop\n        /* \"#utility.yul\":2166:2473   */\n      pop\n      pop\n      pop\n      jump\t// out\n        /* \"#utility.yul\":2479:2799   */\n    tag_11:\n        /* \"#utility.yul\":2523:2529   */\n      0x00\n        /* \"#utility.yul\":2560:2561   */\n      0x02\n        /* \"#utility.yul\":2554:2558   */\n      dup3\n        /* \"#utility.yul\":2550:2562   */\n      div\n        /* \"#utility.yul\":2540:2562   */\n      swap1\n      pop\n        /* \"#utility.yul\":2607:2608   */\n      0x01\n        /* \"#utility.yul\":2601:2605   */\n      dup3\n        /* \"#utility.yul\":2597:2609   */\n      and\n        /* \"#utility.yul\":2628:2646   */\n      dup1\n        /* \"#utility.yul\":2618:2699   */\n      tag_61\n      jumpi\n        /* \"#utility.yul\":2684:2688   */\n      0x7f\n        /* \"#utility.yul\":2676:2682   */\n      dup3\n        /* \"#utility.yul\":2672:2689   */\n      and\n        /* \"#utility.yul\":2662:2689   */\n      swap2\n      pop\n        /* \"#utility.yul\":2618:2699   */\n    tag_61:\n        /* \"#utility.yul\":2746:2748   */\n      0x20\n        /* \"#utility.yul\":2738:2744   */\n      dup3\n        /* \"#utility.yul\":2735:2749   */\n      lt\n        /* \"#utility.yul\":2715:2733   */\n      dup2\n        /* \"#utility.yul\":2712:2750   */\n      eq\n        /* \"#utility.yul\":2709:2793   */\n      iszero\n      tag_62\n      jumpi\n        /* \"#utility.yul\":2765:2783   */\n      tag_63\n      tag_64\n      jump\t// in\n    tag_63:\n        /* \"#utility.yul\":2709:2793   */\n    tag_62:\n        /* \"#utility.yul\":2530:2799   */\n      pop\n        /* \"#utility.yul\":2479:2799   */\n      swap2\n      swap1\n      pop\n      jump\t// out\n        /* \"#utility.yul\":2805:2985   */\n    tag_64:\n        /* \"#utility.yul\":2853:2930   */\n      0x4e487b7100000000000000000000000000000000000000000000000000000000\n        /* \"#utility.yul\":2850:2851   */\n      0x00\n        /* \"#utility.yul\":2843:2931   */\n      mstore\n        /* \"#utility.yul\":2950:2954   */\n      0x22\n        /* \"#utility.yul\":2947:2948   */\n      0x04\n        /* \"#utility.yul\":2940:2955   */\n      mstore\n        /* \"#utility.yul\":2974:2978   */\n      0x24\n        /* \"#utility.yul\":2971:2972   */\n      0x00\n        /* \"#utility.yul\":2964:2979   */\n      revert\n        /* \"#utility.yul\":3114:3231   */\n    tag_29:\n        /* \"#utility.yul\":3223:3224   */\n      0x00\n        /* \"#utility.yul\":3220:3221   */\n      dup1\n        /* \"#utility.yul\":3213:3225   */\n      revert\n        /* \"#utility.yul\":3237:3339   */\n    tag_40:\n        /* \"#utility.yul\":3278:3284   */\n      0x00\n        /* \"#utility.yul\":3329:3331   */\n      0x1f\n        /* \"#utility.yul\":3325:3332   */\n      not\n        /* \"#utility.yul\":3320:3322   */\n      0x1f\n        /* \"#utility.yul\":3313:3318   */\n      dup4\n        /* \"#utility.yul\":3309:3323   */\n      add\n        /* \"#utility.yul\":3305:3333   */\n      and\n        /* \"#utility.yul\":3295:3333   */\n      swap1\n      pop\n        /* \"#utility.yul\":3237:3339   */\n      swap2\n      swap1\n      pop\n      jump\t// out\n        /* \"#utility.yul\":3345:3467   */\n    tag_25:\n        /* \"#utility.yul\":3418:3442   */\n      tag_71\n        /* \"#utility.yul\":3436:3441   */\n      dup2\n        /* \"#utility.yul\":3418:3442   */\n      tag_44\n      jump\t// in\n    tag_71:\n        /* \"#utility.yul\":3411:3416   */\n      dup2\n        /* \"#utility.yul\":3408:3443   */\n      eq\n        /* \"#utility.yul\":3398:3461   */\n      tag_72\n      jumpi\n        /* \"#utility.yul\":3457:3458   */\n      0x00\n        /* \"#utility.yul\":3454:3455   */\n      dup1\n        /* \"#utility.yul\":3447:3459   */\n      revert\n        /* \"#utility.yul\":3398:3461   */\n    tag_72:\n        /* \"#utility.yul\":3345:3467   */\n      pop\n      jump\t// out\n\n    auxdata: 0xa2646970667358221220c0f214490bc383edb06b2dbf1d45e4abd9f84a0492b764cadb9392e27c91ca6564736f6c63430008070033\n}\n",
				"bytecode": {
					"linkReferences": {},
					"object": "608060405234801561001057600080fd5b5061039d806100206000396000f3fe608060405234801561001057600080fd5b506004361061002b5760003560e01c80639ab14cb014610030575b600080fd5b61004a600480360381019061004591906101b8565b610063565b60405161005a949392919061022d565b60405180910390f35b6000602052806000526040600020600091509050806000018054610086906102d9565b80601f01602080910402602001604051908101604052809291908181526020018280546100b2906102d9565b80156100ff5780601f106100d4576101008083540402835291602001916100ff565b820191906000526020600020905b8154815290600101906020018083116100e257829003601f168201915b505050505090806001018054610114906102d9565b80601f0160208091040260200160405190810160405280929190818152602001828054610140906102d9565b801561018d5780601f106101625761010080835404028352916020019161018d565b820191906000526020600020905b81548152906001019060200180831161017057829003601f168201915b5050505050908060020154908060030154905084565b6000813590506101b281610350565b92915050565b6000602082840312156101ce576101cd61033a565b5b60006101dc848285016101a3565b91505092915050565b60006101f082610280565b6101fa818561028b565b935061020a8185602086016102a6565b6102138161033f565b840191505092915050565b6102278161029c565b82525050565b6000608082019050818103600083015261024781876101e5565b9050818103602083015261025b81866101e5565b905061026a604083018561021e565b610277606083018461021e565b95945050505050565b600081519050919050565b600082825260208201905092915050565b6000819050919050565b60005b838110156102c45780820151818401526020810190506102a9565b838111156102d3576000848401525b50505050565b600060028204905060018216806102f157607f821691505b602082108114156103055761030461030b565b5b50919050565b7f4e487b7100000000000000000000000000000000000000000000000000000000600052602260045260246000fd5b600080fd5b6000601f19601f8301169050919050565b6103598161029c565b811461036457600080fd5b5056fea2646970667358221220c0f214490bc383edb06b2dbf1d45e4abd9f84a0492b764cadb9392e27c91ca6564736f6c63430008070033",
					"opcodes": "PUSH1 0x80 PUSH1 0x40 MSTORE CALLVALUE DUP1 ISZERO PUSH2 0x10 JUMPI PUSH1 0x0 DUP1 REVERT JUMPDEST POP PUSH2 0x39D DUP1 PUSH2 0x20 PUSH1 0x0 CODECOPY PUSH1 0x0 RETURN INVALID PUSH1 0x80 PUSH1 0x40 MSTORE CALLVALUE DUP1 ISZERO PUSH2 0x10 JUMPI PUSH1 0x0 DUP1 REVERT JUMPDEST POP PUSH1 0x4 CALLDATASIZE LT PUSH2 0x2B JUMPI PUSH1 0x0 CALLDATALOAD PUSH1 0xE0 SHR DUP1 PUSH4 0x9AB14CB0 EQ PUSH2 0x30 JUMPI JUMPDEST PUSH1 0x0 DUP1 REVERT JUMPDEST PUSH2 0x4A PUSH1 0x4 DUP1 CALLDATASIZE SUB DUP2 ADD SWAP1 PUSH2 0x45 SWAP2 SWAP1 PUSH2 0x1B8 JUMP JUMPDEST PUSH2 0x63 JUMP JUMPDEST PUSH1 0x40 MLOAD PUSH2 0x5A SWAP5 SWAP4 SWAP3 SWAP2 SWAP1 PUSH2 0x22D JUMP JUMPDEST PUSH1 0x40 MLOAD DUP1 SWAP2 SUB SWAP1 RETURN JUMPDEST PUSH1 0x0 PUSH1 0x20 MSTORE DUP1 PUSH1 0x0 MSTORE PUSH1 0x40 PUSH1 0x0 KECCAK256 PUSH1 0x0 SWAP2 POP SWAP1 POP DUP1 PUSH1 0x0 ADD DUP1 SLOAD PUSH2 0x86 SWAP1 PUSH2 0x2D9 JUMP JUMPDEST DUP1 PUSH1 0x1F ADD PUSH1 0x20 DUP1 SWAP2 DIV MUL PUSH1 0x20 ADD PUSH1 0x40 MLOAD SWAP1 DUP2 ADD PUSH1 0x40 MSTORE DUP1 SWAP3 SWAP2 SWAP1 DUP2 DUP2 MSTORE PUSH1 0x20 ADD DUP3 DUP1 SLOAD PUSH2 0xB2 SWAP1 PUSH2 0x2D9 JUMP JUMPDEST DUP1 ISZERO PUSH2 0xFF JUMPI DUP1 PUSH1 0x1F LT PUSH2 0xD4 JUMPI PUSH2 0x100 DUP1 DUP4 SLOAD DIV MUL DUP4 MSTORE SWAP2 PUSH1 0x20 ADD SWAP2 PUSH2 0xFF JUMP JUMPDEST DUP3 ADD SWAP2 SWAP1 PUSH1 0x0 MSTORE PUSH1 0x20 PUSH1 0x0 KECCAK256 SWAP1 JUMPDEST DUP2 SLOAD DUP2 MSTORE SWAP1 PUSH1 0x1 ADD SWAP1 PUSH1 0x20 ADD DUP1 DUP4 GT PUSH2 0xE2 JUMPI DUP3 SWAP1 SUB PUSH1 0x1F AND DUP3 ADD SWAP2 JUMPDEST POP POP POP POP POP SWAP1 DUP1 PUSH1 0x1 ADD DUP1 SLOAD PUSH2 0x114 SWAP1 PUSH2 0x2D9 JUMP JUMPDEST DUP1 PUSH1 0x1F ADD PUSH1 0x20 DUP1 SWAP2 DIV MUL PUSH1 0x20 ADD PUSH1 0x40 MLOAD SWAP1 DUP2 ADD PUSH1 0x40 MSTORE DUP1 SWAP3 SWAP2 SWAP1 DUP2 DUP2 MSTORE PUSH1 0x20 ADD DUP3 DUP1 SLOAD PUSH2 0x140 SWAP1 PUSH2 0x2D9 JUMP JUMPDEST DUP1 ISZERO PUSH2 0x18D JUMPI DUP1 PUSH1 0x1F LT PUSH2 0x162 JUMPI PUSH2 0x100 DUP1 DUP4 SLOAD DIV MUL DUP4 MSTORE SWAP2 PUSH1 0x20 ADD SWAP2 PUSH2 0x18D JUMP JUMPDEST DUP3 ADD SWAP2 SWAP1 PUSH1 0x0 MSTORE PUSH1 0x20 PUSH1 0x0 KECCAK256 SWAP1 JUMPDEST DUP2 SLOAD DUP2 MSTORE SWAP1 PUSH1 0x1 ADD SWAP1 PUSH1 0x20 ADD DUP1 DUP4 GT PUSH2 0x170 JUMPI DUP3 SWAP1 SUB PUSH1 0x1F AND DUP3 ADD SWAP2 JUMPDEST POP POP POP POP POP SWAP1 DUP1 PUSH1 0x2 ADD SLOAD SWAP1 DUP1 PUSH1 0x3 ADD SLOAD SWAP1 POP DUP5 JUMP JUMPDEST PUSH1 0x0 DUP2 CALLDATALOAD SWAP1 POP PUSH2 0x1B2 DUP2 PUSH2 0x350 JUMP JUMPDEST SWAP3 SWAP2 POP POP JUMP JUMPDEST PUSH1 0x0 PUSH1 0x20 DUP3 DUP5 SUB SLT ISZERO PUSH2 0x1CE JUMPI PUSH2 0x1CD PUSH2 0x33A JUMP JUMPDEST JUMPDEST PUSH1 0x0 PUSH2 0x1DC DUP5 DUP3 DUP6 ADD PUSH2 0x1A3 JUMP JUMPDEST SWAP2 POP POP SWAP3 SWAP2 POP POP JUMP JUMPDEST PUSH1 0x0 PUSH2 0x1F0 DUP3 PUSH2 0x280 JUMP JUMPDEST PUSH2 0x1FA DUP2 DUP6 PUSH2 0x28B JUMP JUMPDEST SWAP4 POP PUSH2 0x20A DUP2 DUP6 PUSH1 0x20 DUP7 ADD PUSH2 0x2A6 JUMP JUMPDEST PUSH2 0x213 DUP2 PUSH2 0x33F JUMP JUMPDEST DUP5 ADD SWAP2 POP POP SWAP3 SWAP2 POP POP JUMP JUMPDEST PUSH2 0x227 DUP2 PUSH2 0x29C JUMP JUMPDEST DUP3 MSTORE POP POP JUMP JUMPDEST PUSH1 0x0 PUSH1 0x80 DUP3 ADD SWAP1 POP DUP2 DUP2 SUB PUSH1 0x0 DUP4 ADD MSTORE PUSH2 0x247 DUP2 DUP8 PUSH2 0x1E5 JUMP JUMPDEST SWAP1 POP DUP2 DUP2 SUB PUSH1 0x20 DUP4 ADD MSTORE PUSH2 0x25B DUP2 DUP7 PUSH2 0x1E5 JUMP JUMPDEST SWAP1 POP PUSH2 0x26A PUSH1 0x40 DUP4 ADD DUP6 PUSH2 0x21E JUMP JUMPDEST PUSH2 0x277 PUSH1 0x60 DUP4 ADD DUP5 PUSH2 0x21E JUMP JUMPDEST SWAP6 SWAP5 POP POP POP POP POP JUMP JUMPDEST PUSH1 0x0 DUP2 MLOAD SWAP1 POP SWAP2 SWAP1 POP JUMP JUMPDEST PUSH1 0x0 DUP3 DUP3 MSTORE PUSH1 0x20 DUP3 ADD SWAP1 POP SWAP3 SWAP2 POP POP JUMP JUMPDEST PUSH1 0x0 DUP2 SWAP1 POP SWAP2 SWAP1 POP JUMP JUMPDEST PUSH1 0x0 JUMPDEST DUP4 DUP2 LT ISZERO PUSH2 0x2C4 JUMPI DUP1 DUP3 ADD MLOAD DUP2 DUP5 ADD MSTORE PUSH1 0x20 DUP2 ADD SWAP1 POP PUSH2 0x2A9 JUMP JUMPDEST DUP4 DUP2 GT ISZERO PUSH2 0x2D3 JUMPI PUSH1 0x0 DUP5 DUP5 ADD MSTORE JUMPDEST POP POP POP POP JUMP JUMPDEST PUSH1 0x0 PUSH1 0x2 DUP3 DIV SWAP1 POP PUSH1 0x1 DUP3 AND DUP1 PUSH2 0x2F1 JUMPI PUSH1 0x7F DUP3 AND SWAP2 POP JUMPDEST PUSH1 0x20 DUP3 LT DUP2 EQ ISZERO PUSH2 0x305 JUMPI PUSH2 0x304 PUSH2 0x30B JUMP JUMPDEST JUMPDEST POP SWAP2 SWAP1 POP JUMP JUMPDEST PUSH32 0x4E487B7100000000000000000000000000000000000000000000000000000000 PUSH1 0x0 MSTORE PUSH1 0x22 PUSH1 0x4 MSTORE PUSH1 0x24 PUSH1 0x0 REVERT JUMPDEST PUSH1 0x0 DUP1 REVERT JUMPDEST PUSH1 0x0 PUSH1 0x1F NOT PUSH1 0x1F DUP4 ADD AND SWAP1 POP SWAP2 SWAP1 POP JUMP JUMPDEST PUSH2 0x359 DUP2 PUSH2 0x29C JUMP JUMPDEST DUP2 EQ PUSH2 0x364 JUMPI PUSH1 0x0 DUP1 REVERT JUMPDEST POP JUMP INVALID LOG2 PUSH5 0x6970667358 0x22 SLT KECCAK256 0xC0 CALLCODE EQ 0x49 SIGNEXTEND 0xC3 DUP4 0xED 0xB0 PUSH12 0x2DBF1D45E4ABD9F84A0492B7 PUSH5 0xCADB9392E2 PUSH29 0x91CA6564736F6C63430008070033000000000000000000000000000000 "
				},
				"gasEstimates": {
					"creation": {
						"codeDepositCost": "185000",
						"executionCost": "226",
						"totalCost": "185226"
					},
					"external": {
						"book_detail(uint256)": "infinite"
					},
					"internal": {
						"set(uint256,string memory,string memory,uint256,uint256)": "infinite"
					}
				},
				"methodIdentifiers": {
					"book_detail(uint256)": "9ab14cb0"
				}
			},
			"storageLayout": {
				"storage": [
					{
						"astId": 15,
						"contract": "testing.sol:testing",
						"label": "book_detail",
						"offset": 0,
						"slot": "0",
						"type": "t_mapping(t_uint256,t_struct(book)10_storage)"
					}
				],
				"types": {
					"t_mapping(t_uint256,t_struct(book)10_storage)": {
						"encoding": "mapping",
						"key": "t_uint256",
						"label": "mapping(uint256 => struct testing.book)",
						"numberOfBytes": "32",
						"value": "t_struct(book)10_storage"
					},
					"t_string_storage": {
						"encoding": "bytes",
						"label": "string",
						"numberOfBytes": "32"
					},
					"t_struct(book)10_storage": {
						"encoding": "inplace",
						"label": "struct testing.book",
						"members": [
							{
								"astId": 3,
								"contract": "testing.sol:testing",
								"label": "title",
								"offset": 0,
								"slot": "0",
								"type": "t_string_storage"
							},
							{
								"astId": 5,
								"contract": "testing.sol:testing",
								"label": "author",
								"offset": 0,
								"slot": "1",
								"type": "t_string_storage"
							},
							{
								"astId": 7,
								"contract": "testing.sol:testing",
								"label": "number",
								"offset": 0,
								"slot": "2",
								"type": "t_uint256"
							},
							{
								"astId": 9,
								"contract": "testing.sol:testing",
								"label": "shelfbook",
								"offset": 0,
								"slot": "3",
								"type": "t_uint256"
							}
						],
						"numberOfBytes": "128"
					},
					"t_uint256": {
						"encoding": "inplace",
						"label": "uint256",
						"numberOfBytes": "32"
					}
				}
			},
			"userdoc": {
				"kind": "user",
				"methods": {},
				"version": 1
			}
		}
	}
}