{
	"functionex.sol": {
		"First": {
			"abi": [
				{
					"inputs": [],
					"name": "doSomeWork",
					"outputs": [],
					"stateMutability": "view",
					"type": "function"
				},
				{
					"inputs": [],
					"name": "getAge",
					"outputs": [
						{
							"internalType": "uint256",
							"name": "",
							"type": "uint256"
						}
					],
					"stateMutability": "view",
					"type": "function"
				}
			],
			"devdoc": {
				"kind": "dev",
				"methods": {},
				"version": 1
			},
			"evm": {
				"assembly": "    /* \"functionex.sol\":27:272  contract First{... */\n  mstore(0x40, 0x80)\n    /* \"functionex.sol\":61:63  56 */\n  0x38\n    /* \"functionex.sol\":50:63  uint age = 56 */\n  0x00\n  sstore\n    /* \"functionex.sol\":27:272  contract First{... */\n  callvalue\n  dup1\n  iszero\n  tag_1\n  jumpi\n  0x00\n  dup1\n  revert\ntag_1:\n  pop\n  dataSize(sub_0)\n  dup1\n  dataOffset(sub_0)\n  0x00\n  codecopy\n  0x00\n  return\nstop\n\nsub_0: assembly {\n        /* \"functionex.sol\":27:272  contract First{... */\n      mstore(0x40, 0x80)\n      callvalue\n      dup1\n      iszero\n      tag_1\n      jumpi\n      0x00\n      dup1\n      revert\n    tag_1:\n      pop\n      jumpi(tag_2, lt(calldatasize, 0x04))\n      shr(0xe0, calldataload(0x00))\n      dup1\n      0x303b5192\n      eq\n      tag_3\n      jumpi\n      dup1\n      0x967e6e65\n      eq\n      tag_4\n      jumpi\n    tag_2:\n      0x00\n      dup1\n      revert\n        /* \"functionex.sol\":72:123  function doSomeWork() public view {... */\n    tag_3:\n      tag_5\n      tag_6\n      jump\t// in\n    tag_5:\n      stop\n        /* \"functionex.sol\":131:256  function getAge() public view returns (uint) {... */\n    tag_4:\n      tag_7\n      tag_8\n      jump\t// in\n    tag_7:\n      mload(0x40)\n      tag_9\n      swap2\n      swap1\n      tag_10\n      jump\t// in\n    tag_9:\n      mload(0x40)\n      dup1\n      swap2\n      sub\n      swap1\n      return\n        /* \"functionex.sol\":72:123  function doSomeWork() public view {... */\n    tag_6:\n      jump\t// out\n        /* \"functionex.sol\":131:256  function getAge() public view returns (uint) {... */\n    tag_8:\n        /* \"functionex.sol\":170:174  uint */\n      0x00\n        /* \"functionex.sol\":187:193  uint a */\n      dup1\n        /* \"functionex.sol\":202:203  2 */\n      0x02\n        /* \"functionex.sol\":196:199  age */\n      sload(0x00)\n        /* \"functionex.sol\":196:203  age * 2 */\n      tag_13\n      swap2\n      swap1\n      tag_14\n      jump\t// in\n    tag_13:\n        /* \"functionex.sol\":187:203  uint a = age * 2 */\n      swap1\n      pop\n        /* \"functionex.sol\":214:227  doSomeWork () */\n      tag_15\n        /* \"functionex.sol\":214:224  doSomeWork */\n      tag_6\n        /* \"functionex.sol\":214:227  doSomeWork () */\n      jump\t// in\n    tag_15:\n        /* \"functionex.sol\":245:248  age */\n      sload(0x00)\n        /* \"functionex.sol\":238:248  return age */\n      swap2\n      pop\n      pop\n        /* \"functionex.sol\":131:256  function getAge() public view returns (uint) {... */\n      swap1\n      jump\t// out\n        /* \"#utility.yul\":7:84   */\n    tag_16:\n        /* \"#utility.yul\":44:51   */\n      0x00\n        /* \"#utility.yul\":73:78   */\n      dup2\n        /* \"#utility.yul\":62:78   */\n      swap1\n      pop\n        /* \"#utility.yul\":7:84   */\n      swap2\n      swap1\n      pop\n      jump\t// out\n        /* \"#utility.yul\":90:208   */\n    tag_17:\n        /* \"#utility.yul\":177:201   */\n      tag_22\n        /* \"#utility.yul\":195:200   */\n      dup2\n        /* \"#utility.yul\":177:201   */\n      tag_16\n      jump\t// in\n    tag_22:\n        /* \"#utility.yul\":172:175   */\n      dup3\n        /* \"#utility.yul\":165:202   */\n      mstore\n        /* \"#utility.yul\":90:208   */\n      pop\n      pop\n      jump\t// out\n        /* \"#utility.yul\":214:436   */\n    tag_10:\n        /* \"#utility.yul\":307:311   */\n      0x00\n        /* \"#utility.yul\":345:347   */\n      0x20\n        /* \"#utility.yul\":334:343   */\n      dup3\n        /* \"#utility.yul\":330:348   */\n      add\n        /* \"#utility.yul\":322:348   */\n      swap1\n      pop\n        /* \"#utility.yul\":358:429   */\n      tag_24\n        /* \"#utility.yul\":426:427   */\n      0x00\n        /* \"#utility.yul\":415:424   */\n      dup4\n        /* \"#utility.yul\":411:428   */\n      add\n        /* \"#utility.yul\":402:408   */\n      dup5\n        /* \"#utility.yul\":358:429   */\n      tag_17\n      jump\t// in\n    tag_24:\n        /* \"#utility.yul\":214:436   */\n      swap3\n      swap2\n      pop\n      pop\n      jump\t// out\n        /* \"#utility.yul\":442:622   */\n    tag_18:\n        /* \"#utility.yul\":490:567   */\n      0x4e487b7100000000000000000000000000000000000000000000000000000000\n        /* \"#utility.yul\":487:488   */\n      0x00\n        /* \"#utility.yul\":480:568   */\n      mstore\n        /* \"#utility.yul\":587:591   */\n      0x11\n        /* \"#utility.yul\":584:585   */\n      0x04\n        /* \"#utility.yul\":577:592   */\n      mstore\n        /* \"#utility.yul\":611:615   */\n      0x24\n        /* \"#utility.yul\":608:609   */\n      0x00\n        /* \"#utility.yul\":601:616   */\n      revert\n        /* \"#utility.yul\":628:976   */\n    tag_14:\n        /* \"#utility.yul\":668:675   */\n      0x00\n        /* \"#utility.yul\":691:711   */\n      tag_27\n        /* \"#utility.yul\":709:710   */\n      dup3\n        /* \"#utility.yul\":691:711   */\n      tag_16\n      jump\t// in\n    tag_27:\n        /* \"#utility.yul\":686:711   */\n      swap2\n      pop\n        /* \"#utility.yul\":725:745   */\n      tag_28\n        /* \"#utility.yul\":743:744   */\n      dup4\n        /* \"#utility.yul\":725:745   */\n      tag_16\n      jump\t// in\n    tag_28:\n        /* \"#utility.yul\":720:745   */\n      swap3\n      pop\n        /* \"#utility.yul\":913:914   */\n      dup2\n        /* \"#utility.yul\":845:911   */\n      0xffffffffffffffffffffffffffffffffffffffffffffffffffffffffffffffff\n        /* \"#utility.yul\":841:915   */\n      div\n        /* \"#utility.yul\":838:839   */\n      dup4\n        /* \"#utility.yul\":835:916   */\n      gt\n        /* \"#utility.yul\":830:831   */\n      dup3\n        /* \"#utility.yul\":823:832   */\n      iszero\n        /* \"#utility.yul\":816:833   */\n      iszero\n        /* \"#utility.yul\":812:917   */\n      and\n        /* \"#utility.yul\":809:940   */\n      iszero\n      tag_29\n      jumpi\n        /* \"#utility.yul\":920:938   */\n      tag_30\n      tag_18\n      jump\t// in\n    tag_30:\n        /* \"#utility.yul\":809:940   */\n    tag_29:\n        /* \"#utility.yul\":968:969   */\n      dup3\n        /* \"#utility.yul\":965:966   */\n      dup3\n        /* \"#utility.yul\":961:970   */\n      mul\n        /* \"#utility.yul\":950:970   */\n      swap1\n      pop\n        /* \"#utility.yul\":628:976   */\n      swap3\n      swap2\n      pop\n      pop\n      jump\t// out\n\n    auxdata: 0xa2646970667358221220091f0af60d239949803fbb7b914c0100ed859e4c0c2c52760e1bf1de4611401464736f6c634300080f0033\n}\n",
				"bytecode": {
					"linkReferences": {},
					"object": "6080604052603860005534801561001557600080fd5b5061017d806100256000396000f3fe608060405234801561001057600080fd5b50600436106100365760003560e01c8063303b51921461003b578063967e6e6514610045575b600080fd5b610043610063565b005b61004d610065565b60405161005a91906100a3565b60405180910390f35b565b600080600260005461007791906100ed565b9050610081610063565b60005491505090565b6000819050919050565b61009d8161008a565b82525050565b60006020820190506100b86000830184610094565b92915050565b7f4e487b7100000000000000000000000000000000000000000000000000000000600052601160045260246000fd5b60006100f88261008a565b91506101038361008a565b9250817fffffffffffffffffffffffffffffffffffffffffffffffffffffffffffffffff048311821515161561013c5761013b6100be565b5b82820290509291505056fea2646970667358221220091f0af60d239949803fbb7b914c0100ed859e4c0c2c52760e1bf1de4611401464736f6c634300080f0033",
					"opcodes": "PUSH1 0x80 PUSH1 0x40 MSTORE PUSH1 0x38 PUSH1 0x0 SSTORE CALLVALUE DUP1 ISZERO PUSH2 0x15 JUMPI PUSH1 0x0 DUP1 REVERT JUMPDEST POP PUSH2 0x17D DUP1 PUSH2 0x25 PUSH1 0x0 CODECOPY PUSH1 0x0 RETURN INVALID PUSH1 0x80 PUSH1 0x40 MSTORE CALLVALUE DUP1 ISZERO PUSH2 0x10 JUMPI PUSH1 0x0 DUP1 REVERT JUMPDEST POP PUSH1 0x4 CALLDATASIZE LT PUSH2 0x36 JUMPI PUSH1 0x0 CALLDATALOAD PUSH1 0xE0 SHR DUP1 PUSH4 0x303B5192 EQ PUSH2 0x3B JUMPI DUP1 PUSH4 0x967E6E65 EQ PUSH2 0x45 JUMPI JUMPDEST PUSH1 0x0 DUP1 REVERT JUMPDEST PUSH2 0x43 PUSH2 0x63 JUMP JUMPDEST STOP JUMPDEST PUSH2 0x4D PUSH2 0x65 JUMP JUMPDEST PUSH1 0x40 MLOAD PUSH2 0x5A SWAP2 SWAP1 PUSH2 0xA3 JUMP JUMPDEST PUSH1 0x40 MLOAD DUP1 SWAP2 SUB SWAP1 RETURN JUMPDEST JUMP JUMPDEST PUSH1 0x0 DUP1 PUSH1 0x2 PUSH1 0x0 SLOAD PUSH2 0x77 SWAP2 SWAP1 PUSH2 0xED JUMP JUMPDEST SWAP1 POP PUSH2 0x81 PUSH2 0x63 JUMP JUMPDEST PUSH1 0x0 SLOAD SWAP2 POP POP SWAP1 JUMP JUMPDEST PUSH1 0x0 DUP2 SWAP1 POP SWAP2 SWAP1 POP JUMP JUMPDEST PUSH2 0x9D DUP2 PUSH2 0x8A JUMP JUMPDEST DUP3 MSTORE POP POP JUMP JUMPDEST PUSH1 0x0 PUSH1 0x20 DUP3 ADD SWAP1 POP PUSH2 0xB8 PUSH1 0x0 DUP4 ADD DUP5 PUSH2 0x94 JUMP JUMPDEST SWAP3 SWAP2 POP POP JUMP JUMPDEST PUSH32 0x4E487B7100000000000000000000000000000000000000000000000000000000 PUSH1 0x0 MSTORE PUSH1 0x11 PUSH1 0x4 MSTORE PUSH1 0x24 PUSH1 0x0 REVERT JUMPDEST PUSH1 0x0 PUSH2 0xF8 DUP3 PUSH2 0x8A JUMP JUMPDEST SWAP2 POP PUSH2 0x103 DUP4 PUSH2 0x8A JUMP JUMPDEST SWAP3 POP DUP2 PUSH32 0xFFFFFFFFFFFFFFFFFFFFFFFFFFFFFFFFFFFFFFFFFFFFFFFFFFFFFFFFFFFFFFFF DIV DUP4 GT DUP3 ISZERO ISZERO AND ISZERO PUSH2 0x13C JUMPI PUSH2 0x13B PUSH2 0xBE JUMP JUMPDEST JUMPDEST DUP3 DUP3 MUL SWAP1 POP SWAP3 SWAP2 POP POP JUMP INVALID LOG2 PUSH5 0x6970667358 0x22 SLT KECCAK256 MULMOD 0x1F EXP 0xF6 0xD 0x23 SWAP10 0x49 DUP1 EXTCODEHASH 0xBB PUSH28 0x914C0100ED859E4C0C2C52760E1BF1DE4611401464736F6C63430008 0xF STOP CALLER "
				},
				"gasEstimates": {
					"creation": {
						"codeDepositCost": "76200",
						"executionCost": "22229",
						"totalCost": "98429"
					},
					"external": {
						"doSomeWork()": "122",
						"getAge()": "infinite"
					}
				},
				"methodIdentifiers": {
					"doSomeWork()": "303b5192",
					"getAge()": "967e6e65"
				}
			},
			"storageLayout": {
				"storage": [
					{
						"astId": 4,
						"contract": "functionex.sol:First",
						"label": "age",
						"offset": 0,
						"slot": "0",
						"type": "t_uint256"
					}
				],
				"types": {
					"t_uint256": {
						"encoding": "inplace",
						"label": "uint256",
						"numberOfBytes": "32"
					}
				}
			},
			"userdoc": {
				"kind": "user",
				"methods": {},
				"version": 1
			}
		}
	}
}