{
	"enumbig.sol": {
		"Test": {
			"abi": [
				{
					"constant": true,
					"inputs": [],
					"name": "return_example",
					"outputs": [
						{
							"internalType": "uint256",
							"name": "",
							"type": "uint256"
						},
						{
							"internalType": "uint256",
							"name": "",
							"type": "uint256"
						},
						{
							"internalType": "uint256",
							"name": "",
							"type": "uint256"
						},
						{
							"internalType": "string",
							"name": "",
							"type": "string"
						}
					],
					"payable": false,
					"stateMutability": "view",
					"type": "function"
				}
			],
			"devdoc": {
				"methods": {}
			},
			"evm": {
				"assembly": "    /* \"enumbig.sol\":64:454  contract Test {\r... */\n  mstore(0x40, 0x80)\n  callvalue\n    /* \"--CODEGEN--\":8:17   */\n  dup1\n    /* \"--CODEGEN--\":5:7   */\n  iszero\n  tag_1\n  jumpi\n    /* \"--CODEGEN--\":30:31   */\n  0x00\n    /* \"--CODEGEN--\":27:28   */\n  dup1\n    /* \"--CODEGEN--\":20:32   */\n  revert\n    /* \"--CODEGEN--\":5:7   */\ntag_1:\n    /* \"enumbig.sol\":64:454  contract Test {\r... */\n  pop\n  dataSize(sub_0)\n  dup1\n  dataOffset(sub_0)\n  0x00\n  codecopy\n  0x00\n  return\nstop\n\nsub_0: assembly {\n        /* \"enumbig.sol\":64:454  contract Test {\r... */\n      mstore(0x40, 0x80)\n      callvalue\n        /* \"--CODEGEN--\":8:17   */\n      dup1\n        /* \"--CODEGEN--\":5:7   */\n      iszero\n      tag_1\n      jumpi\n        /* \"--CODEGEN--\":30:31   */\n      0x00\n        /* \"--CODEGEN--\":27:28   */\n      dup1\n        /* \"--CODEGEN--\":20:32   */\n      revert\n        /* \"--CODEGEN--\":5:7   */\n    tag_1:\n        /* \"enumbig.sol\":64:454  contract Test {\r... */\n      pop\n      jumpi(tag_2, lt(calldatasize, 0x04))\n      shr(0xe0, calldataload(0x00))\n      dup1\n      0xff9a3274\n      eq\n      tag_3\n      jumpi\n    tag_2:\n      0x00\n      dup1\n      revert\n        /* \"enumbig.sol\":153:453  function return_example() public view returns(uint, uint, uint, string memory){\r... */\n    tag_3:\n      tag_4\n      tag_5\n      jump\t// in\n    tag_4:\n      mload(0x40)\n      dup1\n      dup6\n      dup2\n      mstore\n      0x20\n      add\n      dup5\n      dup2\n      mstore\n      0x20\n      add\n      dup4\n      dup2\n      mstore\n      0x20\n      add\n      dup1\n      0x20\n      add\n      dup3\n      dup2\n      sub\n      dup3\n      mstore\n      dup4\n      dup2\n      dup2\n      mload\n      dup2\n      mstore\n      0x20\n      add\n      swap2\n      pop\n      dup1\n      mload\n      swap1\n      0x20\n      add\n      swap1\n      dup1\n      dup4\n      dup4\n        /* \"--CODEGEN--\":23:24   */\n      0x00\n        /* \"--CODEGEN--\":8:108   */\n    tag_6:\n        /* \"--CODEGEN--\":33:36   */\n      dup4\n        /* \"--CODEGEN--\":30:31   */\n      dup2\n        /* \"--CODEGEN--\":27:37   */\n      lt\n        /* \"--CODEGEN--\":8:108   */\n      iszero\n      tag_8\n      jumpi\n        /* \"--CODEGEN--\":99:100   */\n      dup1\n        /* \"--CODEGEN--\":94:97   */\n      dup3\n        /* \"--CODEGEN--\":90:101   */\n      add\n        /* \"--CODEGEN--\":84:102   */\n      mload\n        /* \"--CODEGEN--\":80:81   */\n      dup2\n        /* \"--CODEGEN--\":75:78   */\n      dup5\n        /* \"--CODEGEN--\":71:82   */\n      add\n        /* \"--CODEGEN--\":64:103   */\n      mstore\n        /* \"--CODEGEN--\":52:54   */\n      0x20\n        /* \"--CODEGEN--\":49:50   */\n      dup2\n        /* \"--CODEGEN--\":45:55   */\n      add\n        /* \"--CODEGEN--\":40:55   */\n      swap1\n      pop\n        /* \"--CODEGEN--\":8:108   */\n      jump(tag_6)\n    tag_8:\n        /* \"--CODEGEN--\":12:26   */\n      pop\n        /* \"enumbig.sol\":153:453  function return_example() public view returns(uint, uint, uint, string memory){\r... */\n      pop\n      pop\n      pop\n      swap1\n      pop\n      swap1\n      dup2\n      add\n      swap1\n      0x1f\n      and\n      dup1\n      iszero\n      tag_9\n      jumpi\n      dup1\n      dup3\n      sub\n      dup1\n      mload\n      0x01\n      dup4\n      0x20\n      sub\n      0x0100\n      exp\n      sub\n      not\n      and\n      dup2\n      mstore\n      0x20\n      add\n      swap2\n      pop\n    tag_9:\n      pop\n      swap6\n      pop\n      pop\n      pop\n      pop\n      pop\n      pop\n      mload(0x40)\n      dup1\n      swap2\n      sub\n      swap1\n      return\n    tag_5:\n        /* \"enumbig.sol\":199:203  uint */\n      0x00\n        /* \"enumbig.sol\":205:209  uint */\n      dup1\n        /* \"enumbig.sol\":211:215  uint */\n      0x00\n        /* \"enumbig.sol\":217:230  string memory */\n      0x60\n        /* \"enumbig.sol\":238:247  uint num1 */\n      0x00\n        /* \"enumbig.sol\":250:252  10 */\n      0x0a\n        /* \"enumbig.sol\":238:252  uint num1 = 10 */\n      swap1\n      pop\n        /* \"enumbig.sol\":259:268  uint num2 */\n      0x00\n        /* \"enumbig.sol\":271:273  16 */\n      0x10\n        /* \"enumbig.sol\":259:273  uint num2 = 16 */\n      swap1\n      pop\n        /* \"enumbig.sol\":280:288  uint sum */\n      0x00\n        /* \"enumbig.sol\":298:302  num2 */\n      dup2\n        /* \"enumbig.sol\":291:295  num1 */\n      dup4\n        /* \"enumbig.sol\":291:302  num1 + num2 */\n      add\n        /* \"enumbig.sol\":280:302  uint sum = num1 + num2 */\n      swap1\n      pop\n        /* \"enumbig.sol\":309:318  uint prod */\n      0x00\n        /* \"enumbig.sol\":328:332  num2 */\n      dup3\n        /* \"enumbig.sol\":321:325  num1 */\n      dup5\n        /* \"enumbig.sol\":321:332  num1 * num2 */\n      mul\n        /* \"enumbig.sol\":309:332  uint prod = num1 * num2 */\n      swap1\n      pop\n        /* \"enumbig.sol\":339:348  uint diff */\n      0x00\n        /* \"enumbig.sol\":358:362  num1 */\n      dup5\n        /* \"enumbig.sol\":351:355  num2 */\n      dup5\n        /* \"enumbig.sol\":351:362  num2 - num1 */\n      sub\n        /* \"enumbig.sol\":339:362  uint diff = num2 - num1 */\n      swap1\n      pop\n        /* \"enumbig.sol\":369:386  string memory msg */\n      0x60\n        /* \"enumbig.sol\":369:413  string memory msg = \"Multiple return values\" */\n      mload(0x40)\n      dup1\n      0x40\n      add\n      0x40\n      mstore\n      dup1\n      0x16\n      dup2\n      mstore\n      0x20\n      add\n      0x4d756c7469706c652072657475726e2076616c75657300000000000000000000\n      dup2\n      mstore\n      pop\n      swap1\n      pop\n        /* \"enumbig.sol\":428:431  sum */\n      dup4\n        /* \"enumbig.sol\":433:437  prod */\n      dup4\n        /* \"enumbig.sol\":439:443  diff */\n      dup4\n        /* \"enumbig.sol\":445:448  msg */\n      dup4\n        /* \"enumbig.sol\":420:449  return (sum, prod, diff, msg) */\n      swap10\n      pop\n      swap10\n      pop\n      swap10\n      pop\n      swap10\n      pop\n      pop\n      pop\n      pop\n      pop\n      pop\n      pop\n        /* \"enumbig.sol\":153:453  function return_example() public view returns(uint, uint, uint, string memory){\r... */\n      swap1\n      swap2\n      swap3\n      swap4\n      jump\t// out\n\n    auxdata: 0xa265627a7a7231582017fc00fa3e70d80593bb12a75bf84c60f6d2f394519c483253c7a5e120313b9164736f6c63430005110032\n}\n",
				"bytecode": {
					"linkReferences": {},
					"object": "608060405234801561001057600080fd5b50610177806100206000396000f3fe608060405234801561001057600080fd5b506004361061002b5760003560e01c8063ff9a327414610030575b600080fd5b6100386100c8565b6040518085815260200184815260200183815260200180602001828103825283818151815260200191508051906020019080838360005b8381101561008a57808201518184015260208101905061006f565b50505050905090810190601f1680156100b75780820380516001836020036101000a031916815260200191505b509550505050505060405180910390f35b600080600060606000600a905060006010905060008183019050600082840290506000848403905060606040518060400160405280601681526020017f4d756c7469706c652072657475726e2076616c7565730000000000000000000081525090508383838399509950995099505050505050509091929356fea265627a7a7231582017fc00fa3e70d80593bb12a75bf84c60f6d2f394519c483253c7a5e120313b9164736f6c63430005110032",
					"opcodes": "PUSH1 0x80 PUSH1 0x40 MSTORE CALLVALUE DUP1 ISZERO PUSH2 0x10 JUMPI PUSH1 0x0 DUP1 REVERT JUMPDEST POP PUSH2 0x177 DUP1 PUSH2 0x20 PUSH1 0x0 CODECOPY PUSH1 0x0 RETURN INVALID PUSH1 0x80 PUSH1 0x40 MSTORE CALLVALUE DUP1 ISZERO PUSH2 0x10 JUMPI PUSH1 0x0 DUP1 REVERT JUMPDEST POP PUSH1 0x4 CALLDATASIZE LT PUSH2 0x2B JUMPI PUSH1 0x0 CALLDATALOAD PUSH1 0xE0 SHR DUP1 PUSH4 0xFF9A3274 EQ PUSH2 0x30 JUMPI JUMPDEST PUSH1 0x0 DUP1 REVERT JUMPDEST PUSH2 0x38 PUSH2 0xC8 JUMP JUMPDEST PUSH1 0x40 MLOAD DUP1 DUP6 DUP2 MSTORE PUSH1 0x20 ADD DUP5 DUP2 MSTORE PUSH1 0x20 ADD DUP4 DUP2 MSTORE PUSH1 0x20 ADD DUP1 PUSH1 0x20 ADD DUP3 DUP2 SUB DUP3 MSTORE DUP4 DUP2 DUP2 MLOAD DUP2 MSTORE PUSH1 0x20 ADD SWAP2 POP DUP1 MLOAD SWAP1 PUSH1 0x20 ADD SWAP1 DUP1 DUP4 DUP4 PUSH1 0x0 JUMPDEST DUP4 DUP2 LT ISZERO PUSH2 0x8A JUMPI DUP1 DUP3 ADD MLOAD DUP2 DUP5 ADD MSTORE PUSH1 0x20 DUP2 ADD SWAP1 POP PUSH2 0x6F JUMP JUMPDEST POP POP POP POP SWAP1 POP SWAP1 DUP2 ADD SWAP1 PUSH1 0x1F AND DUP1 ISZERO PUSH2 0xB7 JUMPI DUP1 DUP3 SUB DUP1 MLOAD PUSH1 0x1 DUP4 PUSH1 0x20 SUB PUSH2 0x100 EXP SUB NOT AND DUP2 MSTORE PUSH1 0x20 ADD SWAP2 POP JUMPDEST POP SWAP6 POP POP POP POP POP POP PUSH1 0x40 MLOAD DUP1 SWAP2 SUB SWAP1 RETURN JUMPDEST PUSH1 0x0 DUP1 PUSH1 0x0 PUSH1 0x60 PUSH1 0x0 PUSH1 0xA SWAP1 POP PUSH1 0x0 PUSH1 0x10 SWAP1 POP PUSH1 0x0 DUP2 DUP4 ADD SWAP1 POP PUSH1 0x0 DUP3 DUP5 MUL SWAP1 POP PUSH1 0x0 DUP5 DUP5 SUB SWAP1 POP PUSH1 0x60 PUSH1 0x40 MLOAD DUP1 PUSH1 0x40 ADD PUSH1 0x40 MSTORE DUP1 PUSH1 0x16 DUP2 MSTORE PUSH1 0x20 ADD PUSH32 0x4D756C7469706C652072657475726E2076616C75657300000000000000000000 DUP2 MSTORE POP SWAP1 POP DUP4 DUP4 DUP4 DUP4 SWAP10 POP SWAP10 POP SWAP10 POP SWAP10 POP POP POP POP POP POP POP SWAP1 SWAP2 SWAP3 SWAP4 JUMP INVALID LOG2 PUSH6 0x627A7A723158 KECCAK256 OR 0xFC STOP STATICCALL RETURNDATACOPY PUSH17 0xD80593BB12A75BF84C60F6D2F394519C48 ORIGIN MSTORE8 0xC7 0xA5 0xE1 KECCAK256 BALANCE EXTCODESIZE SWAP2 PUSH5 0x736F6C6343 STOP SDIV GT STOP ORIGIN "
				},
				"gasEstimates": {
					"creation": {
						"codeDepositCost": "75000",
						"executionCost": "123",
						"totalCost": "75123"
					},
					"external": {
						"return_example()": "infinite"
					}
				},
				"methodIdentifiers": {
					"return_example()": "ff9a3274"
				}
			},
			"storageLayout": {
				"storage": [],
				"types": null
			},
			"userdoc": {
				"methods": {}
			}
		}
	}
}