{
	"mappingprac.sol": {
		"Mapping": {
			"abi": [
				{
					"inputs": [
						{
							"internalType": "uint256",
							"name": "",
							"type": "uint256"
						}
					],
					"name": "my_studio",
					"outputs": [
						{
							"internalType": "string",
							"name": "camera",
							"type": "string"
						},
						{
							"internalType": "uint256",
							"name": "model",
							"type": "uint256"
						},
						{
							"internalType": "string",
							"name": "studioname",
							"type": "string"
						}
					],
					"stateMutability": "view",
					"type": "function"
				},
				{
					"inputs": [
						{
							"internalType": "uint256",
							"name": "id",
							"type": "uint256"
						},
						{
							"internalType": "string",
							"name": "camera",
							"type": "string"
						},
						{
							"internalType": "uint256",
							"name": "model",
							"type": "uint256"
						},
						{
							"internalType": "string",
							"name": "studioname",
							"type": "string"
						}
					],
					"name": "set",
					"outputs": [],
					"stateMutability": "nonpayable",
					"type": "function"
				}
			],
			"devdoc": {
				"kind": "dev",
				"methods": {},
				"version": 1
			},
			"evm": {
				"assembly": "    /* \"mappingprac.sol\":66:403  contract Mapping{\r... */\n  mstore(0x40, 0x80)\n  callvalue\n  dup1\n  iszero\n  tag_1\n  jumpi\n  0x00\n  dup1\n  revert\ntag_1:\n  pop\n  dataSize(sub_0)\n  dup1\n  dataOffset(sub_0)\n  0x00\n  codecopy\n  0x00\n  return\nstop\n\nsub_0: assembly {\n        /* \"mappingprac.sol\":66:403  contract Mapping{\r... */\n      mstore(0x40, 0x80)\n      callvalue\n      dup1\n      iszero\n      tag_1\n      jumpi\n      0x00\n      dup1\n      revert\n    tag_1:\n      pop\n      jumpi(tag_2, lt(calldatasize, 0x04))\n      shr(0xe0, calldataload(0x00))\n      dup1\n      0xb1405b58\n      eq\n      tag_3\n      jumpi\n      dup1\n      0xcb533448\n      eq\n      tag_4\n      jumpi\n    tag_2:\n      0x00\n      dup1\n      revert\n        /* \"mappingprac.sol\":243:400  function set(uint id, string memory camera, uint model, string memory studioname) public{\r... */\n    tag_3:\n      tag_5\n      0x04\n      dup1\n      calldatasize\n      sub\n      dup2\n      add\n      swap1\n      tag_6\n      swap2\n      swap1\n      tag_7\n      jump\t// in\n    tag_6:\n      tag_8\n      jump\t// in\n    tag_5:\n      stop\n        /* \"mappingprac.sol\":193:234  mapping (uint => studio) public my_studio */\n    tag_4:\n      tag_9\n      0x04\n      dup1\n      calldatasize\n      sub\n      dup2\n      add\n      swap1\n      tag_10\n      swap2\n      swap1\n      tag_11\n      jump\t// in\n    tag_10:\n      tag_12\n      jump\t// in\n    tag_9:\n      mload(0x40)\n      tag_13\n      swap4\n      swap3\n      swap2\n      swap1\n      tag_14\n      jump\t// in\n    tag_13:\n      mload(0x40)\n      dup1\n      swap2\n      sub\n      swap1\n      return\n        /* \"mappingprac.sol\":243:400  function set(uint id, string memory camera, uint model, string memory studioname) public{\r... */\n    tag_8:\n        /* \"mappingprac.sol\":360:392  studio (camera,model,studioname) */\n      mload(0x40)\n      dup1\n      0x60\n      add\n      0x40\n      mstore\n      dup1\n        /* \"mappingprac.sol\":368:374  camera */\n      dup5\n        /* \"mappingprac.sol\":360:392  studio (camera,model,studioname) */\n      dup2\n      mstore\n      0x20\n      add\n        /* \"mappingprac.sol\":375:380  model */\n      dup4\n        /* \"mappingprac.sol\":360:392  studio (camera,model,studioname) */\n      dup2\n      mstore\n      0x20\n      add\n        /* \"mappingprac.sol\":381:391  studioname */\n      dup3\n        /* \"mappingprac.sol\":360:392  studio (camera,model,studioname) */\n      dup2\n      mstore\n      pop\n        /* \"mappingprac.sol\":344:353  my_studio */\n      0x00\n        /* \"mappingprac.sol\":344:357  my_studio[id] */\n      dup1\n        /* \"mappingprac.sol\":354:356  id */\n      dup7\n        /* \"mappingprac.sol\":344:357  my_studio[id] */\n      dup2\n      mstore\n      0x20\n      add\n      swap1\n      dup2\n      mstore\n      0x20\n      add\n      0x00\n      keccak256\n        /* \"mappingprac.sol\":344:392  my_studio[id] = studio (camera,model,studioname) */\n      0x00\n      dup3\n      add\n      mload\n      dup2\n      0x00\n      add\n      swap1\n      dup1\n      mload\n      swap1\n      0x20\n      add\n      swap1\n      tag_16\n      swap3\n      swap2\n      swap1\n      tag_17\n      jump\t// in\n    tag_16:\n      pop\n      0x20\n      dup3\n      add\n      mload\n      dup2\n      0x01\n      add\n      sstore\n      0x40\n      dup3\n      add\n      mload\n      dup2\n      0x02\n      add\n      swap1\n      dup1\n      mload\n      swap1\n      0x20\n      add\n      swap1\n      tag_18\n      swap3\n      swap2\n      swap1\n      tag_17\n      jump\t// in\n    tag_18:\n      pop\n      swap1\n      pop\n      pop\n        /* \"mappingprac.sol\":243:400  function set(uint id, string memory camera, uint model, string memory studioname) public{\r... */\n      pop\n      pop\n      pop\n      pop\n      jump\t// out\n        /* \"mappingprac.sol\":193:234  mapping (uint => studio) public my_studio */\n    tag_12:\n      mstore(0x20, 0x00)\n      dup1\n      0x00\n      mstore\n      keccak256(0x00, 0x40)\n      0x00\n      swap2\n      pop\n      swap1\n      pop\n      dup1\n      0x00\n      add\n      dup1\n      sload\n      tag_19\n      swap1\n      tag_20\n      jump\t// in\n    tag_19:\n      dup1\n      0x1f\n      add\n      0x20\n      dup1\n      swap2\n      div\n      mul\n      0x20\n      add\n      mload(0x40)\n      swap1\n      dup2\n      add\n      0x40\n      mstore\n      dup1\n      swap3\n      swap2\n      swap1\n      dup2\n      dup2\n      mstore\n      0x20\n      add\n      dup3\n      dup1\n      sload\n      tag_21\n      swap1\n      tag_20\n      jump\t// in\n    tag_21:\n      dup1\n      iszero\n      tag_22\n      jumpi\n      dup1\n      0x1f\n      lt\n      tag_23\n      jumpi\n      0x0100\n      dup1\n      dup4\n      sload\n      div\n      mul\n      dup4\n      mstore\n      swap2\n      0x20\n      add\n      swap2\n      jump(tag_22)\n    tag_23:\n      dup3\n      add\n      swap2\n      swap1\n      0x00\n      mstore\n      keccak256(0x00, 0x20)\n      swap1\n    tag_24:\n      dup2\n      sload\n      dup2\n      mstore\n      swap1\n      0x01\n      add\n      swap1\n      0x20\n      add\n      dup1\n      dup4\n      gt\n      tag_24\n      jumpi\n      dup3\n      swap1\n      sub\n      0x1f\n      and\n      dup3\n      add\n      swap2\n    tag_22:\n      pop\n      pop\n      pop\n      pop\n      pop\n      swap1\n      dup1\n      0x01\n      add\n      sload\n      swap1\n      dup1\n      0x02\n      add\n      dup1\n      sload\n      tag_25\n      swap1\n      tag_20\n      jump\t// in\n    tag_25:\n      dup1\n      0x1f\n      add\n      0x20\n      dup1\n      swap2\n      div\n      mul\n      0x20\n      add\n      mload(0x40)\n      swap1\n      dup2\n      add\n      0x40\n      mstore\n      dup1\n      swap3\n      swap2\n      swap1\n      dup2\n      dup2\n      mstore\n      0x20\n      add\n      dup3\n      dup1\n      sload\n      tag_26\n      swap1\n      tag_20\n      jump\t// in\n    tag_26:\n      dup1\n      iszero\n      tag_27\n      jumpi\n      dup1\n      0x1f\n      lt\n      tag_28\n      jumpi\n      0x0100\n      dup1\n      dup4\n      sload\n      div\n      mul\n      dup4\n      mstore\n      swap2\n      0x20\n      add\n      swap2\n      jump(tag_27)\n    tag_28:\n      dup3\n      add\n      swap2\n      swap1\n      0x00\n      mstore\n      keccak256(0x00, 0x20)\n      swap1\n    tag_29:\n      dup2\n      sload\n      dup2\n      mstore\n      swap1\n      0x01\n      add\n      swap1\n      0x20\n      add\n      dup1\n      dup4\n      gt\n      tag_29\n      jumpi\n      dup3\n      swap1\n      sub\n      0x1f\n      and\n      dup3\n      add\n      swap2\n    tag_27:\n      pop\n      pop\n      pop\n      pop\n      pop\n      swap1\n      pop\n      dup4\n      jump\t// out\n    tag_17:\n      dup3\n      dup1\n      sload\n      tag_30\n      swap1\n      tag_20\n      jump\t// in\n    tag_30:\n      swap1\n      0x00\n      mstore\n      keccak256(0x00, 0x20)\n      swap1\n      0x1f\n      add\n      0x20\n      swap1\n      div\n      dup2\n      add\n      swap3\n      dup3\n      tag_32\n      jumpi\n      0x00\n      dup6\n      sstore\n      jump(tag_31)\n    tag_32:\n      dup3\n      0x1f\n      lt\n      tag_33\n      jumpi\n      dup1\n      mload\n      not(0xff)\n      and\n      dup4\n      dup1\n      add\n      or\n      dup6\n      sstore\n      jump(tag_31)\n    tag_33:\n      dup3\n      dup1\n      add\n      0x01\n      add\n      dup6\n      sstore\n      dup3\n      iszero\n      tag_31\n      jumpi\n      swap2\n      dup3\n      add\n    tag_34:\n      dup3\n      dup2\n      gt\n      iszero\n      tag_35\n      jumpi\n      dup3\n      mload\n      dup3\n      sstore\n      swap2\n      0x20\n      add\n      swap2\n      swap1\n      0x01\n      add\n      swap1\n      jump(tag_34)\n    tag_35:\n    tag_31:\n      pop\n      swap1\n      pop\n      tag_36\n      swap2\n      swap1\n      tag_37\n      jump\t// in\n    tag_36:\n      pop\n      swap1\n      jump\t// out\n    tag_37:\n    tag_38:\n      dup1\n      dup3\n      gt\n      iszero\n      tag_39\n      jumpi\n      0x00\n      dup2\n      0x00\n      swap1\n      sstore\n      pop\n      0x01\n      add\n      jump(tag_38)\n    tag_39:\n      pop\n      swap1\n      jump\t// out\n        /* \"#utility.yul\":7:419   */\n    tag_41:\n        /* \"#utility.yul\":85:90   */\n      0x00\n        /* \"#utility.yul\":110:176   */\n      tag_43\n        /* \"#utility.yul\":126:175   */\n      tag_44\n        /* \"#utility.yul\":168:174   */\n      dup5\n        /* \"#utility.yul\":126:175   */\n      tag_45\n      jump\t// in\n    tag_44:\n        /* \"#utility.yul\":110:176   */\n      tag_46\n      jump\t// in\n    tag_43:\n        /* \"#utility.yul\":101:176   */\n      swap1\n      pop\n        /* \"#utility.yul\":199:205   */\n      dup3\n        /* \"#utility.yul\":192:197   */\n      dup2\n        /* \"#utility.yul\":185:206   */\n      mstore\n        /* \"#utility.yul\":237:241   */\n      0x20\n        /* \"#utility.yul\":230:235   */\n      dup2\n        /* \"#utility.yul\":226:242   */\n      add\n        /* \"#utility.yul\":275:278   */\n      dup5\n        /* \"#utility.yul\":266:272   */\n      dup5\n        /* \"#utility.yul\":261:264   */\n      dup5\n        /* \"#utility.yul\":257:273   */\n      add\n        /* \"#utility.yul\":254:279   */\n      gt\n        /* \"#utility.yul\":251:363   */\n      iszero\n      tag_47\n      jumpi\n        /* \"#utility.yul\":282:361   */\n      tag_48\n      tag_49\n      jump\t// in\n    tag_48:\n        /* \"#utility.yul\":251:363   */\n    tag_47:\n        /* \"#utility.yul\":372:413   */\n      tag_50\n        /* \"#utility.yul\":406:412   */\n      dup5\n        /* \"#utility.yul\":401:404   */\n      dup3\n        /* \"#utility.yul\":396:399   */\n      dup6\n        /* \"#utility.yul\":372:413   */\n      tag_51\n      jump\t// in\n    tag_50:\n        /* \"#utility.yul\":91:419   */\n      pop\n        /* \"#utility.yul\":7:419   */\n      swap4\n      swap3\n      pop\n      pop\n      pop\n      jump\t// out\n        /* \"#utility.yul\":439:779   */\n    tag_52:\n        /* \"#utility.yul\":495:500   */\n      0x00\n        /* \"#utility.yul\":544:547   */\n      dup3\n        /* \"#utility.yul\":537:541   */\n      0x1f\n        /* \"#utility.yul\":529:535   */\n      dup4\n        /* \"#utility.yul\":525:542   */\n      add\n        /* \"#utility.yul\":521:548   */\n      slt\n        /* \"#utility.yul\":511:633   */\n      tag_54\n      jumpi\n        /* \"#utility.yul\":552:631   */\n      tag_55\n      tag_56\n      jump\t// in\n    tag_55:\n        /* \"#utility.yul\":511:633   */\n    tag_54:\n        /* \"#utility.yul\":669:675   */\n      dup2\n        /* \"#utility.yul\":656:676   */\n      calldataload\n        /* \"#utility.yul\":694:773   */\n      tag_57\n        /* \"#utility.yul\":769:772   */\n      dup5\n        /* \"#utility.yul\":761:767   */\n      dup3\n        /* \"#utility.yul\":754:758   */\n      0x20\n        /* \"#utility.yul\":746:752   */\n      dup7\n        /* \"#utility.yul\":742:759   */\n      add\n        /* \"#utility.yul\":694:773   */\n      tag_41\n      jump\t// in\n    tag_57:\n        /* \"#utility.yul\":685:773   */\n      swap2\n      pop\n        /* \"#utility.yul\":501:779   */\n      pop\n        /* \"#utility.yul\":439:779   */\n      swap3\n      swap2\n      pop\n      pop\n      jump\t// out\n        /* \"#utility.yul\":785:924   */\n    tag_58:\n        /* \"#utility.yul\":831:836   */\n      0x00\n        /* \"#utility.yul\":869:875   */\n      dup2\n        /* \"#utility.yul\":856:876   */\n      calldataload\n        /* \"#utility.yul\":847:876   */\n      swap1\n      pop\n        /* \"#utility.yul\":885:918   */\n      tag_60\n        /* \"#utility.yul\":912:917   */\n      dup2\n        /* \"#utility.yul\":885:918   */\n      tag_61\n      jump\t// in\n    tag_60:\n        /* \"#utility.yul\":785:924   */\n      swap3\n      swap2\n      pop\n      pop\n      jump\t// out\n        /* \"#utility.yul\":930:1259   */\n    tag_11:\n        /* \"#utility.yul\":989:995   */\n      0x00\n        /* \"#utility.yul\":1038:1040   */\n      0x20\n        /* \"#utility.yul\":1026:1035   */\n      dup3\n        /* \"#utility.yul\":1017:1024   */\n      dup5\n        /* \"#utility.yul\":1013:1036   */\n      sub\n        /* \"#utility.yul\":1009:1041   */\n      slt\n        /* \"#utility.yul\":1006:1125   */\n      iszero\n      tag_63\n      jumpi\n        /* \"#utility.yul\":1044:1123   */\n      tag_64\n      tag_65\n      jump\t// in\n    tag_64:\n        /* \"#utility.yul\":1006:1125   */\n    tag_63:\n        /* \"#utility.yul\":1164:1165   */\n      0x00\n        /* \"#utility.yul\":1189:1242   */\n      tag_66\n        /* \"#utility.yul\":1234:1241   */\n      dup5\n        /* \"#utility.yul\":1225:1231   */\n      dup3\n        /* \"#utility.yul\":1214:1223   */\n      dup6\n        /* \"#utility.yul\":1210:1232   */\n      add\n        /* \"#utility.yul\":1189:1242   */\n      tag_58\n      jump\t// in\n    tag_66:\n        /* \"#utility.yul\":1179:1242   */\n      swap2\n      pop\n        /* \"#utility.yul\":1135:1252   */\n      pop\n        /* \"#utility.yul\":930:1259   */\n      swap3\n      swap2\n      pop\n      pop\n      jump\t// out\n        /* \"#utility.yul\":1265:2390   */\n    tag_7:\n        /* \"#utility.yul\":1371:1377   */\n      0x00\n        /* \"#utility.yul\":1379:1385   */\n      dup1\n        /* \"#utility.yul\":1387:1393   */\n      0x00\n        /* \"#utility.yul\":1395:1401   */\n      dup1\n        /* \"#utility.yul\":1444:1447   */\n      0x80\n        /* \"#utility.yul\":1432:1441   */\n      dup6\n        /* \"#utility.yul\":1423:1430   */\n      dup8\n        /* \"#utility.yul\":1419:1442   */\n      sub\n        /* \"#utility.yul\":1415:1448   */\n      slt\n        /* \"#utility.yul\":1412:1532   */\n      iszero\n      tag_68\n      jumpi\n        /* \"#utility.yul\":1451:1530   */\n      tag_69\n      tag_65\n      jump\t// in\n    tag_69:\n        /* \"#utility.yul\":1412:1532   */\n    tag_68:\n        /* \"#utility.yul\":1571:1572   */\n      0x00\n        /* \"#utility.yul\":1596:1649   */\n      tag_70\n        /* \"#utility.yul\":1641:1648   */\n      dup8\n        /* \"#utility.yul\":1632:1638   */\n      dup3\n        /* \"#utility.yul\":1621:1630   */\n      dup9\n        /* \"#utility.yul\":1617:1639   */\n      add\n        /* \"#utility.yul\":1596:1649   */\n      tag_58\n      jump\t// in\n    tag_70:\n        /* \"#utility.yul\":1586:1649   */\n      swap5\n      pop\n        /* \"#utility.yul\":1542:1659   */\n      pop\n        /* \"#utility.yul\":1726:1728   */\n      0x20\n        /* \"#utility.yul\":1715:1724   */\n      dup6\n        /* \"#utility.yul\":1711:1729   */\n      add\n        /* \"#utility.yul\":1698:1730   */\n      calldataload\n        /* \"#utility.yul\":1757:1775   */\n      0xffffffffffffffff\n        /* \"#utility.yul\":1749:1755   */\n      dup2\n        /* \"#utility.yul\":1746:1776   */\n      gt\n        /* \"#utility.yul\":1743:1860   */\n      iszero\n      tag_71\n      jumpi\n        /* \"#utility.yul\":1779:1858   */\n      tag_72\n      tag_73\n      jump\t// in\n    tag_72:\n        /* \"#utility.yul\":1743:1860   */\n    tag_71:\n        /* \"#utility.yul\":1884:1947   */\n      tag_74\n        /* \"#utility.yul\":1939:1946   */\n      dup8\n        /* \"#utility.yul\":1930:1936   */\n      dup3\n        /* \"#utility.yul\":1919:1928   */\n      dup9\n        /* \"#utility.yul\":1915:1937   */\n      add\n        /* \"#utility.yul\":1884:1947   */\n      tag_52\n      jump\t// in\n    tag_74:\n        /* \"#utility.yul\":1874:1947   */\n      swap4\n      pop\n        /* \"#utility.yul\":1669:1957   */\n      pop\n        /* \"#utility.yul\":1996:1998   */\n      0x40\n        /* \"#utility.yul\":2022:2075   */\n      tag_75\n        /* \"#utility.yul\":2067:2074   */\n      dup8\n        /* \"#utility.yul\":2058:2064   */\n      dup3\n        /* \"#utility.yul\":2047:2056   */\n      dup9\n        /* \"#utility.yul\":2043:2065   */\n      add\n        /* \"#utility.yul\":2022:2075   */\n      tag_58\n      jump\t// in\n    tag_75:\n        /* \"#utility.yul\":2012:2075   */\n      swap3\n      pop\n        /* \"#utility.yul\":1967:2085   */\n      pop\n        /* \"#utility.yul\":2152:2154   */\n      0x60\n        /* \"#utility.yul\":2141:2150   */\n      dup6\n        /* \"#utility.yul\":2137:2155   */\n      add\n        /* \"#utility.yul\":2124:2156   */\n      calldataload\n        /* \"#utility.yul\":2183:2201   */\n      0xffffffffffffffff\n        /* \"#utility.yul\":2175:2181   */\n      dup2\n        /* \"#utility.yul\":2172:2202   */\n      gt\n        /* \"#utility.yul\":2169:2286   */\n      iszero\n      tag_76\n      jumpi\n        /* \"#utility.yul\":2205:2284   */\n      tag_77\n      tag_73\n      jump\t// in\n    tag_77:\n        /* \"#utility.yul\":2169:2286   */\n    tag_76:\n        /* \"#utility.yul\":2310:2373   */\n      tag_78\n        /* \"#utility.yul\":2365:2372   */\n      dup8\n        /* \"#utility.yul\":2356:2362   */\n      dup3\n        /* \"#utility.yul\":2345:2354   */\n      dup9\n        /* \"#utility.yul\":2341:2363   */\n      add\n        /* \"#utility.yul\":2310:2373   */\n      tag_52\n      jump\t// in\n    tag_78:\n        /* \"#utility.yul\":2300:2373   */\n      swap2\n      pop\n        /* \"#utility.yul\":2095:2383   */\n      pop\n        /* \"#utility.yul\":1265:2390   */\n      swap3\n      swap6\n      swap2\n      swap5\n      pop\n      swap3\n      pop\n      jump\t// out\n        /* \"#utility.yul\":2396:2760   */\n    tag_79:\n        /* \"#utility.yul\":2484:2487   */\n      0x00\n        /* \"#utility.yul\":2512:2551   */\n      tag_81\n        /* \"#utility.yul\":2545:2550   */\n      dup3\n        /* \"#utility.yul\":2512:2551   */\n      tag_82\n      jump\t// in\n    tag_81:\n        /* \"#utility.yul\":2567:2638   */\n      tag_83\n        /* \"#utility.yul\":2631:2637   */\n      dup2\n        /* \"#utility.yul\":2626:2629   */\n      dup6\n        /* \"#utility.yul\":2567:2638   */\n      tag_84\n      jump\t// in\n    tag_83:\n        /* \"#utility.yul\":2560:2638   */\n      swap4\n      pop\n        /* \"#utility.yul\":2647:2699   */\n      tag_85\n        /* \"#utility.yul\":2692:2698   */\n      dup2\n        /* \"#utility.yul\":2687:2690   */\n      dup6\n        /* \"#utility.yul\":2680:2684   */\n      0x20\n        /* \"#utility.yul\":2673:2678   */\n      dup7\n        /* \"#utility.yul\":2669:2685   */\n      add\n        /* \"#utility.yul\":2647:2699   */\n      tag_86\n      jump\t// in\n    tag_85:\n        /* \"#utility.yul\":2724:2753   */\n      tag_87\n        /* \"#utility.yul\":2746:2752   */\n      dup2\n        /* \"#utility.yul\":2724:2753   */\n      tag_88\n      jump\t// in\n    tag_87:\n        /* \"#utility.yul\":2719:2722   */\n      dup5\n        /* \"#utility.yul\":2715:2754   */\n      add\n        /* \"#utility.yul\":2708:2754   */\n      swap2\n      pop\n        /* \"#utility.yul\":2488:2760   */\n      pop\n        /* \"#utility.yul\":2396:2760   */\n      swap3\n      swap2\n      pop\n      pop\n      jump\t// out\n        /* \"#utility.yul\":2766:2884   */\n    tag_89:\n        /* \"#utility.yul\":2853:2877   */\n      tag_91\n        /* \"#utility.yul\":2871:2876   */\n      dup2\n        /* \"#utility.yul\":2853:2877   */\n      tag_92\n      jump\t// in\n    tag_91:\n        /* \"#utility.yul\":2848:2851   */\n      dup3\n        /* \"#utility.yul\":2841:2878   */\n      mstore\n        /* \"#utility.yul\":2766:2884   */\n      pop\n      pop\n      jump\t// out\n        /* \"#utility.yul\":2890:3514   */\n    tag_14:\n        /* \"#utility.yul\":3079:3083   */\n      0x00\n        /* \"#utility.yul\":3117:3119   */\n      0x60\n        /* \"#utility.yul\":3106:3115   */\n      dup3\n        /* \"#utility.yul\":3102:3120   */\n      add\n        /* \"#utility.yul\":3094:3120   */\n      swap1\n      pop\n        /* \"#utility.yul\":3166:3175   */\n      dup2\n        /* \"#utility.yul\":3160:3164   */\n      dup2\n        /* \"#utility.yul\":3156:3176   */\n      sub\n        /* \"#utility.yul\":3152:3153   */\n      0x00\n        /* \"#utility.yul\":3141:3150   */\n      dup4\n        /* \"#utility.yul\":3137:3154   */\n      add\n        /* \"#utility.yul\":3130:3177   */\n      mstore\n        /* \"#utility.yul\":3194:3272   */\n      tag_94\n        /* \"#utility.yul\":3267:3271   */\n      dup2\n        /* \"#utility.yul\":3258:3264   */\n      dup7\n        /* \"#utility.yul\":3194:3272   */\n      tag_79\n      jump\t// in\n    tag_94:\n        /* \"#utility.yul\":3186:3272   */\n      swap1\n      pop\n        /* \"#utility.yul\":3282:3354   */\n      tag_95\n        /* \"#utility.yul\":3350:3352   */\n      0x20\n        /* \"#utility.yul\":3339:3348   */\n      dup4\n        /* \"#utility.yul\":3335:3353   */\n      add\n        /* \"#utility.yul\":3326:3332   */\n      dup6\n        /* \"#utility.yul\":3282:3354   */\n      tag_89\n      jump\t// in\n    tag_95:\n        /* \"#utility.yul\":3401:3410   */\n      dup2\n        /* \"#utility.yul\":3395:3399   */\n      dup2\n        /* \"#utility.yul\":3391:3411   */\n      sub\n        /* \"#utility.yul\":3386:3388   */\n      0x40\n        /* \"#utility.yul\":3375:3384   */\n      dup4\n        /* \"#utility.yul\":3371:3389   */\n      add\n        /* \"#utility.yul\":3364:3412   */\n      mstore\n        /* \"#utility.yul\":3429:3507   */\n      tag_96\n        /* \"#utility.yul\":3502:3506   */\n      dup2\n        /* \"#utility.yul\":3493:3499   */\n      dup5\n        /* \"#utility.yul\":3429:3507   */\n      tag_79\n      jump\t// in\n    tag_96:\n        /* \"#utility.yul\":3421:3507   */\n      swap1\n      pop\n        /* \"#utility.yul\":2890:3514   */\n      swap5\n      swap4\n      pop\n      pop\n      pop\n      pop\n      jump\t// out\n        /* \"#utility.yul\":3520:3649   */\n    tag_46:\n        /* \"#utility.yul\":3554:3560   */\n      0x00\n        /* \"#utility.yul\":3581:3601   */\n      tag_98\n      tag_99\n      jump\t// in\n    tag_98:\n        /* \"#utility.yul\":3571:3601   */\n      swap1\n      pop\n        /* \"#utility.yul\":3610:3643   */\n      tag_100\n        /* \"#utility.yul\":3638:3642   */\n      dup3\n        /* \"#utility.yul\":3630:3636   */\n      dup3\n        /* \"#utility.yul\":3610:3643   */\n      tag_101\n      jump\t// in\n    tag_100:\n        /* \"#utility.yul\":3520:3649   */\n      swap2\n      swap1\n      pop\n      jump\t// out\n        /* \"#utility.yul\":3655:3730   */\n    tag_99:\n        /* \"#utility.yul\":3688:3694   */\n      0x00\n        /* \"#utility.yul\":3721:3723   */\n      0x40\n        /* \"#utility.yul\":3715:3724   */\n      mload\n        /* \"#utility.yul\":3705:3724   */\n      swap1\n      pop\n        /* \"#utility.yul\":3655:3730   */\n      swap1\n      jump\t// out\n        /* \"#utility.yul\":3736:4044   */\n    tag_45:\n        /* \"#utility.yul\":3798:3802   */\n      0x00\n        /* \"#utility.yul\":3888:3906   */\n      0xffffffffffffffff\n        /* \"#utility.yul\":3880:3886   */\n      dup3\n        /* \"#utility.yul\":3877:3907   */\n      gt\n        /* \"#utility.yul\":3874:3930   */\n      iszero\n      tag_104\n      jumpi\n        /* \"#utility.yul\":3910:3928   */\n      tag_105\n      tag_106\n      jump\t// in\n    tag_105:\n        /* \"#utility.yul\":3874:3930   */\n    tag_104:\n        /* \"#utility.yul\":3948:3977   */\n      tag_107\n        /* \"#utility.yul\":3970:3976   */\n      dup3\n        /* \"#utility.yul\":3948:3977   */\n      tag_88\n      jump\t// in\n    tag_107:\n        /* \"#utility.yul\":3940:3977   */\n      swap1\n      pop\n        /* \"#utility.yul\":4032:4036   */\n      0x20\n        /* \"#utility.yul\":4026:4030   */\n      dup2\n        /* \"#utility.yul\":4022:4037   */\n      add\n        /* \"#utility.yul\":4014:4037   */\n      swap1\n      pop\n        /* \"#utility.yul\":3736:4044   */\n      swap2\n      swap1\n      pop\n      jump\t// out\n        /* \"#utility.yul\":4050:4149   */\n    tag_82:\n        /* \"#utility.yul\":4102:4108   */\n      0x00\n        /* \"#utility.yul\":4136:4141   */\n      dup2\n        /* \"#utility.yul\":4130:4142   */\n      mload\n        /* \"#utility.yul\":4120:4142   */\n      swap1\n      pop\n        /* \"#utility.yul\":4050:4149   */\n      swap2\n      swap1\n      pop\n      jump\t// out\n        /* \"#utility.yul\":4155:4324   */\n    tag_84:\n        /* \"#utility.yul\":4239:4250   */\n      0x00\n        /* \"#utility.yul\":4273:4279   */\n      dup3\n        /* \"#utility.yul\":4268:4271   */\n      dup3\n        /* \"#utility.yul\":4261:4280   */\n      mstore\n        /* \"#utility.yul\":4313:4317   */\n      0x20\n        /* \"#utility.yul\":4308:4311   */\n      dup3\n        /* \"#utility.yul\":4304:4318   */\n      add\n        /* \"#utility.yul\":4289:4318   */\n      swap1\n      pop\n        /* \"#utility.yul\":4155:4324   */\n      swap3\n      swap2\n      pop\n      pop\n      jump\t// out\n        /* \"#utility.yul\":4330:4407   */\n    tag_92:\n        /* \"#utility.yul\":4367:4374   */\n      0x00\n        /* \"#utility.yul\":4396:4401   */\n      dup2\n        /* \"#utility.yul\":4385:4401   */\n      swap1\n      pop\n        /* \"#utility.yul\":4330:4407   */\n      swap2\n      swap1\n      pop\n      jump\t// out\n        /* \"#utility.yul\":4413:4567   */\n    tag_51:\n        /* \"#utility.yul\":4497:4503   */\n      dup3\n        /* \"#utility.yul\":4492:4495   */\n      dup2\n        /* \"#utility.yul\":4487:4490   */\n      dup4\n        /* \"#utility.yul\":4474:4504   */\n      calldatacopy\n        /* \"#utility.yul\":4559:4560   */\n      0x00\n        /* \"#utility.yul\":4550:4556   */\n      dup4\n        /* \"#utility.yul\":4545:4548   */\n      dup4\n        /* \"#utility.yul\":4541:4557   */\n      add\n        /* \"#utility.yul\":4534:4561   */\n      mstore\n        /* \"#utility.yul\":4413:4567   */\n      pop\n      pop\n      pop\n      jump\t// out\n        /* \"#utility.yul\":4573:4880   */\n    tag_86:\n        /* \"#utility.yul\":4641:4642   */\n      0x00\n        /* \"#utility.yul\":4651:4764   */\n    tag_113:\n        /* \"#utility.yul\":4665:4671   */\n      dup4\n        /* \"#utility.yul\":4662:4663   */\n      dup2\n        /* \"#utility.yul\":4659:4672   */\n      lt\n        /* \"#utility.yul\":4651:4764   */\n      iszero\n      tag_115\n      jumpi\n        /* \"#utility.yul\":4750:4751   */\n      dup1\n        /* \"#utility.yul\":4745:4748   */\n      dup3\n        /* \"#utility.yul\":4741:4752   */\n      add\n        /* \"#utility.yul\":4735:4753   */\n      mload\n        /* \"#utility.yul\":4731:4732   */\n      dup2\n        /* \"#utility.yul\":4726:4729   */\n      dup5\n        /* \"#utility.yul\":4722:4733   */\n      add\n        /* \"#utility.yul\":4715:4754   */\n      mstore\n        /* \"#utility.yul\":4687:4689   */\n      0x20\n        /* \"#utility.yul\":4684:4685   */\n      dup2\n        /* \"#utility.yul\":4680:4690   */\n      add\n        /* \"#utility.yul\":4675:4690   */\n      swap1\n      pop\n        /* \"#utility.yul\":4651:4764   */\n      jump(tag_113)\n    tag_115:\n        /* \"#utility.yul\":4782:4788   */\n      dup4\n        /* \"#utility.yul\":4779:4780   */\n      dup2\n        /* \"#utility.yul\":4776:4789   */\n      gt\n        /* \"#utility.yul\":4773:4874   */\n      iszero\n      tag_116\n      jumpi\n        /* \"#utility.yul\":4862:4863   */\n      0x00\n        /* \"#utility.yul\":4853:4859   */\n      dup5\n        /* \"#utility.yul\":4848:4851   */\n      dup5\n        /* \"#utility.yul\":4844:4860   */\n      add\n        /* \"#utility.yul\":4837:4864   */\n      mstore\n        /* \"#utility.yul\":4773:4874   */\n    tag_116:\n        /* \"#utility.yul\":4622:4880   */\n      pop\n        /* \"#utility.yul\":4573:4880   */\n      pop\n      pop\n      pop\n      jump\t// out\n        /* \"#utility.yul\":4886:5206   */\n    tag_20:\n        /* \"#utility.yul\":4930:4936   */\n      0x00\n        /* \"#utility.yul\":4967:4968   */\n      0x02\n        /* \"#utility.yul\":4961:4965   */\n      dup3\n        /* \"#utility.yul\":4957:4969   */\n      div\n        /* \"#utility.yul\":4947:4969   */\n      swap1\n      pop\n        /* \"#utility.yul\":5014:5015   */\n      0x01\n        /* \"#utility.yul\":5008:5012   */\n      dup3\n        /* \"#utility.yul\":5004:5016   */\n      and\n        /* \"#utility.yul\":5035:5053   */\n      dup1\n        /* \"#utility.yul\":5025:5106   */\n      tag_118\n      jumpi\n        /* \"#utility.yul\":5091:5095   */\n      0x7f\n        /* \"#utility.yul\":5083:5089   */\n      dup3\n        /* \"#utility.yul\":5079:5096   */\n      and\n        /* \"#utility.yul\":5069:5096   */\n      swap2\n      pop\n        /* \"#utility.yul\":5025:5106   */\n    tag_118:\n        /* \"#utility.yul\":5153:5155   */\n      0x20\n        /* \"#utility.yul\":5145:5151   */\n      dup3\n        /* \"#utility.yul\":5142:5156   */\n      lt\n        /* \"#utility.yul\":5122:5140   */\n      dup2\n        /* \"#utility.yul\":5119:5157   */\n      eq\n        /* \"#utility.yul\":5116:5200   */\n      iszero\n      tag_119\n      jumpi\n        /* \"#utility.yul\":5172:5190   */\n      tag_120\n      tag_121\n      jump\t// in\n    tag_120:\n        /* \"#utility.yul\":5116:5200   */\n    tag_119:\n        /* \"#utility.yul\":4937:5206   */\n      pop\n        /* \"#utility.yul\":4886:5206   */\n      swap2\n      swap1\n      pop\n      jump\t// out\n        /* \"#utility.yul\":5212:5493   */\n    tag_101:\n        /* \"#utility.yul\":5295:5322   */\n      tag_123\n        /* \"#utility.yul\":5317:5321   */\n      dup3\n        /* \"#utility.yul\":5295:5322   */\n      tag_88\n      jump\t// in\n    tag_123:\n        /* \"#utility.yul\":5287:5293   */\n      dup2\n        /* \"#utility.yul\":5283:5323   */\n      add\n        /* \"#utility.yul\":5425:5431   */\n      dup2\n        /* \"#utility.yul\":5413:5423   */\n      dup2\n        /* \"#utility.yul\":5410:5432   */\n      lt\n        /* \"#utility.yul\":5389:5407   */\n      0xffffffffffffffff\n        /* \"#utility.yul\":5377:5387   */\n      dup3\n        /* \"#utility.yul\":5374:5408   */\n      gt\n        /* \"#utility.yul\":5371:5433   */\n      or\n        /* \"#utility.yul\":5368:5456   */\n      iszero\n      tag_124\n      jumpi\n        /* \"#utility.yul\":5436:5454   */\n      tag_125\n      tag_106\n      jump\t// in\n    tag_125:\n        /* \"#utility.yul\":5368:5456   */\n    tag_124:\n        /* \"#utility.yul\":5476:5486   */\n      dup1\n        /* \"#utility.yul\":5472:5474   */\n      0x40\n        /* \"#utility.yul\":5465:5487   */\n      mstore\n        /* \"#utility.yul\":5255:5493   */\n      pop\n        /* \"#utility.yul\":5212:5493   */\n      pop\n      pop\n      jump\t// out\n        /* \"#utility.yul\":5499:5679   */\n    tag_121:\n        /* \"#utility.yul\":5547:5624   */\n      0x4e487b7100000000000000000000000000000000000000000000000000000000\n        /* \"#utility.yul\":5544:5545   */\n      0x00\n        /* \"#utility.yul\":5537:5625   */\n      mstore\n        /* \"#utility.yul\":5644:5648   */\n      0x22\n        /* \"#utility.yul\":5641:5642   */\n      0x04\n        /* \"#utility.yul\":5634:5649   */\n      mstore\n        /* \"#utility.yul\":5668:5672   */\n      0x24\n        /* \"#utility.yul\":5665:5666   */\n      0x00\n        /* \"#utility.yul\":5658:5673   */\n      revert\n        /* \"#utility.yul\":5685:5865   */\n    tag_106:\n        /* \"#utility.yul\":5733:5810   */\n      0x4e487b7100000000000000000000000000000000000000000000000000000000\n        /* \"#utility.yul\":5730:5731   */\n      0x00\n        /* \"#utility.yul\":5723:5811   */\n      mstore\n        /* \"#utility.yul\":5830:5834   */\n      0x41\n        /* \"#utility.yul\":5827:5828   */\n      0x04\n        /* \"#utility.yul\":5820:5835   */\n      mstore\n        /* \"#utility.yul\":5854:5858   */\n      0x24\n        /* \"#utility.yul\":5851:5852   */\n      0x00\n        /* \"#utility.yul\":5844:5859   */\n      revert\n        /* \"#utility.yul\":5871:5988   */\n    tag_56:\n        /* \"#utility.yul\":5980:5981   */\n      0x00\n        /* \"#utility.yul\":5977:5978   */\n      dup1\n        /* \"#utility.yul\":5970:5982   */\n      revert\n        /* \"#utility.yul\":5994:6111   */\n    tag_49:\n        /* \"#utility.yul\":6103:6104   */\n      0x00\n        /* \"#utility.yul\":6100:6101   */\n      dup1\n        /* \"#utility.yul\":6093:6105   */\n      revert\n        /* \"#utility.yul\":6117:6234   */\n    tag_73:\n        /* \"#utility.yul\":6226:6227   */\n      0x00\n        /* \"#utility.yul\":6223:6224   */\n      dup1\n        /* \"#utility.yul\":6216:6228   */\n      revert\n        /* \"#utility.yul\":6240:6357   */\n    tag_65:\n        /* \"#utility.yul\":6349:6350   */\n      0x00\n        /* \"#utility.yul\":6346:6347   */\n      dup1\n        /* \"#utility.yul\":6339:6351   */\n      revert\n        /* \"#utility.yul\":6363:6465   */\n    tag_88:\n        /* \"#utility.yul\":6404:6410   */\n      0x00\n        /* \"#utility.yul\":6455:6457   */\n      0x1f\n        /* \"#utility.yul\":6451:6458   */\n      not\n        /* \"#utility.yul\":6446:6448   */\n      0x1f\n        /* \"#utility.yul\":6439:6444   */\n      dup4\n        /* \"#utility.yul\":6435:6449   */\n      add\n        /* \"#utility.yul\":6431:6459   */\n      and\n        /* \"#utility.yul\":6421:6459   */\n      swap1\n      pop\n        /* \"#utility.yul\":6363:6465   */\n      swap2\n      swap1\n      pop\n      jump\t// out\n        /* \"#utility.yul\":6471:6593   */\n    tag_61:\n        /* \"#utility.yul\":6544:6568   */\n      tag_134\n        /* \"#utility.yul\":6562:6567   */\n      dup2\n        /* \"#utility.yul\":6544:6568   */\n      tag_92\n      jump\t// in\n    tag_134:\n        /* \"#utility.yul\":6537:6542   */\n      dup2\n        /* \"#utility.yul\":6534:6569   */\n      eq\n        /* \"#utility.yul\":6524:6587   */\n      tag_135\n      jumpi\n        /* \"#utility.yul\":6583:6584   */\n      0x00\n        /* \"#utility.yul\":6580:6581   */\n      dup1\n        /* \"#utility.yul\":6573:6585   */\n      revert\n        /* \"#utility.yul\":6524:6587   */\n    tag_135:\n        /* \"#utility.yul\":6471:6593   */\n      pop\n      jump\t// out\n\n    auxdata: 0xa26469706673582212207feff031f472ffce80bc739f21436c9c7027e532e04ed8df2051e5cf4ca7208f64736f6c63430008070033\n}\n",
				"bytecode": {
					"linkReferences": {},
					"object": "608060405234801561001057600080fd5b506106af806100206000396000f3fe608060405234801561001057600080fd5b50600436106100365760003560e01c8063b1405b581461003b578063cb53344814610057575b600080fd5b61005560048036038101906100509190610392565b610089565b005b610071600480360381019061006c9190610365565b610103565b60405161008093929190610479565b60405180910390f35b60405180606001604052808481526020018381526020018281525060008086815260200190815260200160002060008201518160000190805190602001906100d292919061023d565b506020820151816001015560408201518160020190805190602001906100f992919061023d565b5090505050505050565b60006020528060005260406000206000915090508060000180546101269061057c565b80601f01602080910402602001604051908101604052809291908181526020018280546101529061057c565b801561019f5780601f106101745761010080835404028352916020019161019f565b820191906000526020600020905b81548152906001019060200180831161018257829003601f168201915b5050505050908060010154908060020180546101ba9061057c565b80601f01602080910402602001604051908101604052809291908181526020018280546101e69061057c565b80156102335780601f1061020857610100808354040283529160200191610233565b820191906000526020600020905b81548152906001019060200180831161021657829003601f168201915b5050505050905083565b8280546102499061057c565b90600052602060002090601f01602090048101928261026b57600085556102b2565b82601f1061028457805160ff19168380011785556102b2565b828001600101855582156102b2579182015b828111156102b1578251825591602001919060010190610296565b5b5090506102bf91906102c3565b5090565b5b808211156102dc5760008160009055506001016102c4565b5090565b60006102f36102ee846104e3565b6104be565b90508281526020810184848401111561030f5761030e610642565b5b61031a84828561053a565b509392505050565b600082601f8301126103375761033661063d565b5b81356103478482602086016102e0565b91505092915050565b60008135905061035f81610662565b92915050565b60006020828403121561037b5761037a61064c565b5b600061038984828501610350565b91505092915050565b600080600080608085870312156103ac576103ab61064c565b5b60006103ba87828801610350565b945050602085013567ffffffffffffffff8111156103db576103da610647565b5b6103e787828801610322565b93505060406103f887828801610350565b925050606085013567ffffffffffffffff81111561041957610418610647565b5b61042587828801610322565b91505092959194509250565b600061043c82610514565b610446818561051f565b9350610456818560208601610549565b61045f81610651565b840191505092915050565b61047381610530565b82525050565b600060608201905081810360008301526104938186610431565b90506104a2602083018561046a565b81810360408301526104b48184610431565b9050949350505050565b60006104c86104d9565b90506104d482826105ae565b919050565b6000604051905090565b600067ffffffffffffffff8211156104fe576104fd61060e565b5b61050782610651565b9050602081019050919050565b600081519050919050565b600082825260208201905092915050565b6000819050919050565b82818337600083830152505050565b60005b8381101561056757808201518184015260208101905061054c565b83811115610576576000848401525b50505050565b6000600282049050600182168061059457607f821691505b602082108114156105a8576105a76105df565b5b50919050565b6105b782610651565b810181811067ffffffffffffffff821117156105d6576105d561060e565b5b80604052505050565b7f4e487b7100000000000000000000000000000000000000000000000000000000600052602260045260246000fd5b7f4e487b7100000000000000000000000000000000000000000000000000000000600052604160045260246000fd5b600080fd5b600080fd5b600080fd5b600080fd5b6000601f19601f8301169050919050565b61066b81610530565b811461067657600080fd5b5056fea26469706673582212207feff031f472ffce80bc739f21436c9c7027e532e04ed8df2051e5cf4ca7208f64736f6c63430008070033",
					"opcodes": "PUSH1 0x80 PUSH1 0x40 MSTORE CALLVALUE DUP1 ISZERO PUSH2 0x10 JUMPI PUSH1 0x0 DUP1 REVERT JUMPDEST POP PUSH2 0x6AF DUP1 PUSH2 0x20 PUSH1 0x0 CODECOPY PUSH1 0x0 RETURN INVALID PUSH1 0x80 PUSH1 0x40 MSTORE CALLVALUE DUP1 ISZERO PUSH2 0x10 JUMPI PUSH1 0x0 DUP1 REVERT JUMPDEST POP PUSH1 0x4 CALLDATASIZE LT PUSH2 0x36 JUMPI PUSH1 0x0 CALLDATALOAD PUSH1 0xE0 SHR DUP1 PUSH4 0xB1405B58 EQ PUSH2 0x3B JUMPI DUP1 PUSH4 0xCB533448 EQ PUSH2 0x57 JUMPI JUMPDEST PUSH1 0x0 DUP1 REVERT JUMPDEST PUSH2 0x55 PUSH1 0x4 DUP1 CALLDATASIZE SUB DUP2 ADD SWAP1 PUSH2 0x50 SWAP2 SWAP1 PUSH2 0x392 JUMP JUMPDEST PUSH2 0x89 JUMP JUMPDEST STOP JUMPDEST PUSH2 0x71 PUSH1 0x4 DUP1 CALLDATASIZE SUB DUP2 ADD SWAP1 PUSH2 0x6C SWAP2 SWAP1 PUSH2 0x365 JUMP JUMPDEST PUSH2 0x103 JUMP JUMPDEST PUSH1 0x40 MLOAD PUSH2 0x80 SWAP4 SWAP3 SWAP2 SWAP1 PUSH2 0x479 JUMP JUMPDEST PUSH1 0x40 MLOAD DUP1 SWAP2 SUB SWAP1 RETURN JUMPDEST PUSH1 0x40 MLOAD DUP1 PUSH1 0x60 ADD PUSH1 0x40 MSTORE DUP1 DUP5 DUP2 MSTORE PUSH1 0x20 ADD DUP4 DUP2 MSTORE PUSH1 0x20 ADD DUP3 DUP2 MSTORE POP PUSH1 0x0 DUP1 DUP7 DUP2 MSTORE PUSH1 0x20 ADD SWAP1 DUP2 MSTORE PUSH1 0x20 ADD PUSH1 0x0 KECCAK256 PUSH1 0x0 DUP3 ADD MLOAD DUP2 PUSH1 0x0 ADD SWAP1 DUP1 MLOAD SWAP1 PUSH1 0x20 ADD SWAP1 PUSH2 0xD2 SWAP3 SWAP2 SWAP1 PUSH2 0x23D JUMP JUMPDEST POP PUSH1 0x20 DUP3 ADD MLOAD DUP2 PUSH1 0x1 ADD SSTORE PUSH1 0x40 DUP3 ADD MLOAD DUP2 PUSH1 0x2 ADD SWAP1 DUP1 MLOAD SWAP1 PUSH1 0x20 ADD SWAP1 PUSH2 0xF9 SWAP3 SWAP2 SWAP1 PUSH2 0x23D JUMP JUMPDEST POP SWAP1 POP POP POP POP POP POP JUMP JUMPDEST PUSH1 0x0 PUSH1 0x20 MSTORE DUP1 PUSH1 0x0 MSTORE PUSH1 0x40 PUSH1 0x0 KECCAK256 PUSH1 0x0 SWAP2 POP SWAP1 POP DUP1 PUSH1 0x0 ADD DUP1 SLOAD PUSH2 0x126 SWAP1 PUSH2 0x57C JUMP JUMPDEST DUP1 PUSH1 0x1F ADD PUSH1 0x20 DUP1 SWAP2 DIV MUL PUSH1 0x20 ADD PUSH1 0x40 MLOAD SWAP1 DUP2 ADD PUSH1 0x40 MSTORE DUP1 SWAP3 SWAP2 SWAP1 DUP2 DUP2 MSTORE PUSH1 0x20 ADD DUP3 DUP1 SLOAD PUSH2 0x152 SWAP1 PUSH2 0x57C JUMP JUMPDEST DUP1 ISZERO PUSH2 0x19F JUMPI DUP1 PUSH1 0x1F LT PUSH2 0x174 JUMPI PUSH2 0x100 DUP1 DUP4 SLOAD DIV MUL DUP4 MSTORE SWAP2 PUSH1 0x20 ADD SWAP2 PUSH2 0x19F JUMP JUMPDEST DUP3 ADD SWAP2 SWAP1 PUSH1 0x0 MSTORE PUSH1 0x20 PUSH1 0x0 KECCAK256 SWAP1 JUMPDEST DUP2 SLOAD DUP2 MSTORE SWAP1 PUSH1 0x1 ADD SWAP1 PUSH1 0x20 ADD DUP1 DUP4 GT PUSH2 0x182 JUMPI DUP3 SWAP1 SUB PUSH1 0x1F AND DUP3 ADD SWAP2 JUMPDEST POP POP POP POP POP SWAP1 DUP1 PUSH1 0x1 ADD SLOAD SWAP1 DUP1 PUSH1 0x2 ADD DUP1 SLOAD PUSH2 0x1BA SWAP1 PUSH2 0x57C JUMP JUMPDEST DUP1 PUSH1 0x1F ADD PUSH1 0x20 DUP1 SWAP2 DIV MUL PUSH1 0x20 ADD PUSH1 0x40 MLOAD SWAP1 DUP2 ADD PUSH1 0x40 MSTORE DUP1 SWAP3 SWAP2 SWAP1 DUP2 DUP2 MSTORE PUSH1 0x20 ADD DUP3 DUP1 SLOAD PUSH2 0x1E6 SWAP1 PUSH2 0x57C JUMP JUMPDEST DUP1 ISZERO PUSH2 0x233 JUMPI DUP1 PUSH1 0x1F LT PUSH2 0x208 JUMPI PUSH2 0x100 DUP1 DUP4 SLOAD DIV MUL DUP4 MSTORE SWAP2 PUSH1 0x20 ADD SWAP2 PUSH2 0x233 JUMP JUMPDEST DUP3 ADD SWAP2 SWAP1 PUSH1 0x0 MSTORE PUSH1 0x20 PUSH1 0x0 KECCAK256 SWAP1 JUMPDEST DUP2 SLOAD DUP2 MSTORE SWAP1 PUSH1 0x1 ADD SWAP1 PUSH1 0x20 ADD DUP1 DUP4 GT PUSH2 0x216 JUMPI DUP3 SWAP1 SUB PUSH1 0x1F AND DUP3 ADD SWAP2 JUMPDEST POP POP POP POP POP SWAP1 POP DUP4 JUMP JUMPDEST DUP3 DUP1 SLOAD PUSH2 0x249 SWAP1 PUSH2 0x57C JUMP JUMPDEST SWAP1 PUSH1 0x0 MSTORE PUSH1 0x20 PUSH1 0x0 KECCAK256 SWAP1 PUSH1 0x1F ADD PUSH1 0x20 SWAP1 DIV DUP2 ADD SWAP3 DUP3 PUSH2 0x26B JUMPI PUSH1 0x0 DUP6 SSTORE PUSH2 0x2B2 JUMP JUMPDEST DUP3 PUSH1 0x1F LT PUSH2 0x284 JUMPI DUP1 MLOAD PUSH1 0xFF NOT AND DUP4 DUP1 ADD OR DUP6 SSTORE PUSH2 0x2B2 JUMP JUMPDEST DUP3 DUP1 ADD PUSH1 0x1 ADD DUP6 SSTORE DUP3 ISZERO PUSH2 0x2B2 JUMPI SWAP2 DUP3 ADD JUMPDEST DUP3 DUP2 GT ISZERO PUSH2 0x2B1 JUMPI DUP3 MLOAD DUP3 SSTORE SWAP2 PUSH1 0x20 ADD SWAP2 SWAP1 PUSH1 0x1 ADD SWAP1 PUSH2 0x296 JUMP JUMPDEST JUMPDEST POP SWAP1 POP PUSH2 0x2BF SWAP2 SWAP1 PUSH2 0x2C3 JUMP JUMPDEST POP SWAP1 JUMP JUMPDEST JUMPDEST DUP1 DUP3 GT ISZERO PUSH2 0x2DC JUMPI PUSH1 0x0 DUP2 PUSH1 0x0 SWAP1 SSTORE POP PUSH1 0x1 ADD PUSH2 0x2C4 JUMP JUMPDEST POP SWAP1 JUMP JUMPDEST PUSH1 0x0 PUSH2 0x2F3 PUSH2 0x2EE DUP5 PUSH2 0x4E3 JUMP JUMPDEST PUSH2 0x4BE JUMP JUMPDEST SWAP1 POP DUP3 DUP2 MSTORE PUSH1 0x20 DUP2 ADD DUP5 DUP5 DUP5 ADD GT ISZERO PUSH2 0x30F JUMPI PUSH2 0x30E PUSH2 0x642 JUMP JUMPDEST JUMPDEST PUSH2 0x31A DUP5 DUP3 DUP6 PUSH2 0x53A JUMP JUMPDEST POP SWAP4 SWAP3 POP POP POP JUMP JUMPDEST PUSH1 0x0 DUP3 PUSH1 0x1F DUP4 ADD SLT PUSH2 0x337 JUMPI PUSH2 0x336 PUSH2 0x63D JUMP JUMPDEST JUMPDEST DUP2 CALLDATALOAD PUSH2 0x347 DUP5 DUP3 PUSH1 0x20 DUP7 ADD PUSH2 0x2E0 JUMP JUMPDEST SWAP2 POP POP SWAP3 SWAP2 POP POP JUMP JUMPDEST PUSH1 0x0 DUP2 CALLDATALOAD SWAP1 POP PUSH2 0x35F DUP2 PUSH2 0x662 JUMP JUMPDEST SWAP3 SWAP2 POP POP JUMP JUMPDEST PUSH1 0x0 PUSH1 0x20 DUP3 DUP5 SUB SLT ISZERO PUSH2 0x37B JUMPI PUSH2 0x37A PUSH2 0x64C JUMP JUMPDEST JUMPDEST PUSH1 0x0 PUSH2 0x389 DUP5 DUP3 DUP6 ADD PUSH2 0x350 JUMP JUMPDEST SWAP2 POP POP SWAP3 SWAP2 POP POP JUMP JUMPDEST PUSH1 0x0 DUP1 PUSH1 0x0 DUP1 PUSH1 0x80 DUP6 DUP8 SUB SLT ISZERO PUSH2 0x3AC JUMPI PUSH2 0x3AB PUSH2 0x64C JUMP JUMPDEST JUMPDEST PUSH1 0x0 PUSH2 0x3BA DUP8 DUP3 DUP9 ADD PUSH2 0x350 JUMP JUMPDEST SWAP5 POP POP PUSH1 0x20 DUP6 ADD CALLDATALOAD PUSH8 0xFFFFFFFFFFFFFFFF DUP2 GT ISZERO PUSH2 0x3DB JUMPI PUSH2 0x3DA PUSH2 0x647 JUMP JUMPDEST JUMPDEST PUSH2 0x3E7 DUP8 DUP3 DUP9 ADD PUSH2 0x322 JUMP JUMPDEST SWAP4 POP POP PUSH1 0x40 PUSH2 0x3F8 DUP8 DUP3 DUP9 ADD PUSH2 0x350 JUMP JUMPDEST SWAP3 POP POP PUSH1 0x60 DUP6 ADD CALLDATALOAD PUSH8 0xFFFFFFFFFFFFFFFF DUP2 GT ISZERO PUSH2 0x419 JUMPI PUSH2 0x418 PUSH2 0x647 JUMP JUMPDEST JUMPDEST PUSH2 0x425 DUP8 DUP3 DUP9 ADD PUSH2 0x322 JUMP JUMPDEST SWAP2 POP POP SWAP3 SWAP6 SWAP2 SWAP5 POP SWAP3 POP JUMP JUMPDEST PUSH1 0x0 PUSH2 0x43C DUP3 PUSH2 0x514 JUMP JUMPDEST PUSH2 0x446 DUP2 DUP6 PUSH2 0x51F JUMP JUMPDEST SWAP4 POP PUSH2 0x456 DUP2 DUP6 PUSH1 0x20 DUP7 ADD PUSH2 0x549 JUMP JUMPDEST PUSH2 0x45F DUP2 PUSH2 0x651 JUMP JUMPDEST DUP5 ADD SWAP2 POP POP SWAP3 SWAP2 POP POP JUMP JUMPDEST PUSH2 0x473 DUP2 PUSH2 0x530 JUMP JUMPDEST DUP3 MSTORE POP POP JUMP JUMPDEST PUSH1 0x0 PUSH1 0x60 DUP3 ADD SWAP1 POP DUP2 DUP2 SUB PUSH1 0x0 DUP4 ADD MSTORE PUSH2 0x493 DUP2 DUP7 PUSH2 0x431 JUMP JUMPDEST SWAP1 POP PUSH2 0x4A2 PUSH1 0x20 DUP4 ADD DUP6 PUSH2 0x46A JUMP JUMPDEST DUP2 DUP2 SUB PUSH1 0x40 DUP4 ADD MSTORE PUSH2 0x4B4 DUP2 DUP5 PUSH2 0x431 JUMP JUMPDEST SWAP1 POP SWAP5 SWAP4 POP POP POP POP JUMP JUMPDEST PUSH1 0x0 PUSH2 0x4C8 PUSH2 0x4D9 JUMP JUMPDEST SWAP1 POP PUSH2 0x4D4 DUP3 DUP3 PUSH2 0x5AE JUMP JUMPDEST SWAP2 SWAP1 POP JUMP JUMPDEST PUSH1 0x0 PUSH1 0x40 MLOAD SWAP1 POP SWAP1 JUMP JUMPDEST PUSH1 0x0 PUSH8 0xFFFFFFFFFFFFFFFF DUP3 GT ISZERO PUSH2 0x4FE JUMPI PUSH2 0x4FD PUSH2 0x60E JUMP JUMPDEST JUMPDEST PUSH2 0x507 DUP3 PUSH2 0x651 JUMP JUMPDEST SWAP1 POP PUSH1 0x20 DUP2 ADD SWAP1 POP SWAP2 SWAP1 POP JUMP JUMPDEST PUSH1 0x0 DUP2 MLOAD SWAP1 POP SWAP2 SWAP1 POP JUMP JUMPDEST PUSH1 0x0 DUP3 DUP3 MSTORE PUSH1 0x20 DUP3 ADD SWAP1 POP SWAP3 SWAP2 POP POP JUMP JUMPDEST PUSH1 0x0 DUP2 SWAP1 POP SWAP2 SWAP1 POP JUMP JUMPDEST DUP3 DUP2 DUP4 CALLDATACOPY PUSH1 0x0 DUP4 DUP4 ADD MSTORE POP POP POP JUMP JUMPDEST PUSH1 0x0 JUMPDEST DUP4 DUP2 LT ISZERO PUSH2 0x567 JUMPI DUP1 DUP3 ADD MLOAD DUP2 DUP5 ADD MSTORE PUSH1 0x20 DUP2 ADD SWAP1 POP PUSH2 0x54C JUMP JUMPDEST DUP4 DUP2 GT ISZERO PUSH2 0x576 JUMPI PUSH1 0x0 DUP5 DUP5 ADD MSTORE JUMPDEST POP POP POP POP JUMP JUMPDEST PUSH1 0x0 PUSH1 0x2 DUP3 DIV SWAP1 POP PUSH1 0x1 DUP3 AND DUP1 PUSH2 0x594 JUMPI PUSH1 0x7F DUP3 AND SWAP2 POP JUMPDEST PUSH1 0x20 DUP3 LT DUP2 EQ ISZERO PUSH2 0x5A8 JUMPI PUSH2 0x5A7 PUSH2 0x5DF JUMP JUMPDEST JUMPDEST POP SWAP2 SWAP1 POP JUMP JUMPDEST PUSH2 0x5B7 DUP3 PUSH2 0x651 JUMP JUMPDEST DUP2 ADD DUP2 DUP2 LT PUSH8 0xFFFFFFFFFFFFFFFF DUP3 GT OR ISZERO PUSH2 0x5D6 JUMPI PUSH2 0x5D5 PUSH2 0x60E JUMP JUMPDEST JUMPDEST DUP1 PUSH1 0x40 MSTORE POP POP POP JUMP JUMPDEST PUSH32 0x4E487B7100000000000000000000000000000000000000000000000000000000 PUSH1 0x0 MSTORE PUSH1 0x22 PUSH1 0x4 MSTORE PUSH1 0x24 PUSH1 0x0 REVERT JUMPDEST PUSH32 0x4E487B7100000000000000000000000000000000000000000000000000000000 PUSH1 0x0 MSTORE PUSH1 0x41 PUSH1 0x4 MSTORE PUSH1 0x24 PUSH1 0x0 REVERT JUMPDEST PUSH1 0x0 DUP1 REVERT JUMPDEST PUSH1 0x0 DUP1 REVERT JUMPDEST PUSH1 0x0 DUP1 REVERT JUMPDEST PUSH1 0x0 DUP1 REVERT JUMPDEST PUSH1 0x0 PUSH1 0x1F NOT PUSH1 0x1F DUP4 ADD AND SWAP1 POP SWAP2 SWAP1 POP JUMP JUMPDEST PUSH2 0x66B DUP2 PUSH2 0x530 JUMP JUMPDEST DUP2 EQ PUSH2 0x676 JUMPI PUSH1 0x0 DUP1 REVERT JUMPDEST POP JUMP INVALID LOG2 PUSH5 0x6970667358 0x22 SLT KECCAK256 PUSH32 0xEFF031F472FFCE80BC739F21436C9C7027E532E04ED8DF2051E5CF4CA7208F64 PUSH20 0x6F6C634300080700330000000000000000000000 "
				},
				"gasEstimates": {
					"creation": {
						"codeDepositCost": "342200",
						"executionCost": "380",
						"totalCost": "342580"
					},
					"external": {
						"my_studio(uint256)": "infinite",
						"set(uint256,string,uint256,string)": "infinite"
					}
				},
				"methodIdentifiers": {
					"my_studio(uint256)": "cb533448",
					"set(uint256,string,uint256,string)": "b1405b58"
				}
			},
			"storageLayout": {
				"storage": [
					{
						"astId": 13,
						"contract": "mappingprac.sol:Mapping",
						"label": "my_studio",
						"offset": 0,
						"slot": "0",
						"type": "t_mapping(t_uint256,t_struct(studio)8_storage)"
					}
				],
				"types": {
					"t_mapping(t_uint256,t_struct(studio)8_storage)": {
						"encoding": "mapping",
						"key": "t_uint256",
						"label": "mapping(uint256 => struct Mapping.studio)",
						"numberOfBytes": "32",
						"value": "t_struct(studio)8_storage"
					},
					"t_string_storage": {
						"encoding": "bytes",
						"label": "string",
						"numberOfBytes": "32"
					},
					"t_struct(studio)8_storage": {
						"encoding": "inplace",
						"label": "struct Mapping.studio",
						"members": [
							{
								"astId": 3,
								"contract": "mappingprac.sol:Mapping",
								"label": "camera",
								"offset": 0,
								"slot": "0",
								"type": "t_string_storage"
							},
							{
								"astId": 5,
								"contract": "mappingprac.sol:Mapping",
								"label": "model",
								"offset": 0,
								"slot": "1",
								"type": "t_uint256"
							},
							{
								"astId": 7,
								"contract": "mappingprac.sol:Mapping",
								"label": "studioname",
								"offset": 0,
								"slot": "2",
								"type": "t_string_storage"
							}
						],
						"numberOfBytes": "96"
					},
					"t_uint256": {
						"encoding": "inplace",
						"label": "uint256",
						"numberOfBytes": "32"
					}
				}
			},
			"userdoc": {
				"kind": "user",
				"methods": {},
				"version": 1
			}
		}
	}
}