{
	"mappingg1.sol": {
		"Mapping1testing": {
			"abi": [
				{
					"inputs": [
						{
							"internalType": "uint256",
							"name": "id",
							"type": "uint256"
						},
						{
							"internalType": "string",
							"name": "name",
							"type": "string"
						},
						{
							"internalType": "uint256",
							"name": "model_name",
							"type": "uint256"
						},
						{
							"internalType": "string",
							"name": "owner_name",
							"type": "string"
						},
						{
							"internalType": "string",
							"name": "color",
							"type": "string"
						}
					],
					"name": "set",
					"outputs": [],
					"stateMutability": "nonpayable",
					"type": "function"
				}
			],
			"devdoc": {
				"kind": "dev",
				"methods": {},
				"version": 1
			},
			"evm": {
				"assembly": "    /* \"mappingg1.sol\":65:416  contract Mapping1testing{\r... */\n  mstore(0x40, 0x80)\n  callvalue\n  dup1\n  iszero\n  tag_1\n  jumpi\n  0x00\n  dup1\n  revert\ntag_1:\n  pop\n  dataSize(sub_0)\n  dup1\n  dataOffset(sub_0)\n  0x00\n  codecopy\n  0x00\n  return\nstop\n\nsub_0: assembly {\n        /* \"mappingg1.sol\":65:416  contract Mapping1testing{\r... */\n      mstore(0x40, 0x80)\n      callvalue\n      dup1\n      iszero\n      tag_1\n      jumpi\n      0x00\n      dup1\n      revert\n    tag_1:\n      pop\n      jumpi(tag_2, lt(calldatasize, 0x04))\n      shr(0xe0, calldataload(0x00))\n      dup1\n      0x50900743\n      eq\n      tag_3\n      jumpi\n    tag_2:\n      0x00\n      dup1\n      revert\n        /* \"mappingg1.sol\":279:413  function set(uint id, string memory name, uint256 model_name, string memory owner_name, string memory color) public {\r... */\n    tag_3:\n      tag_4\n      0x04\n      dup1\n      calldatasize\n      sub\n      dup2\n      add\n      swap1\n      tag_5\n      swap2\n      swap1\n      tag_6\n      jump\t// in\n    tag_5:\n      tag_7\n      jump\t// in\n    tag_4:\n      stop\n    tag_7:\n      pop\n      pop\n      pop\n      pop\n      pop\n      jump\t// out\n        /* \"#utility.yul\":7:419   */\n    tag_10:\n        /* \"#utility.yul\":85:90   */\n      0x00\n        /* \"#utility.yul\":110:176   */\n      tag_12\n        /* \"#utility.yul\":126:175   */\n      tag_13\n        /* \"#utility.yul\":168:174   */\n      dup5\n        /* \"#utility.yul\":126:175   */\n      tag_14\n      jump\t// in\n    tag_13:\n        /* \"#utility.yul\":110:176   */\n      tag_15\n      jump\t// in\n    tag_12:\n        /* \"#utility.yul\":101:176   */\n      swap1\n      pop\n        /* \"#utility.yul\":199:205   */\n      dup3\n        /* \"#utility.yul\":192:197   */\n      dup2\n        /* \"#utility.yul\":185:206   */\n      mstore\n        /* \"#utility.yul\":237:241   */\n      0x20\n        /* \"#utility.yul\":230:235   */\n      dup2\n        /* \"#utility.yul\":226:242   */\n      add\n        /* \"#utility.yul\":275:278   */\n      dup5\n        /* \"#utility.yul\":266:272   */\n      dup5\n        /* \"#utility.yul\":261:264   */\n      dup5\n        /* \"#utility.yul\":257:273   */\n      add\n        /* \"#utility.yul\":254:279   */\n      gt\n        /* \"#utility.yul\":251:363   */\n      iszero\n      tag_16\n      jumpi\n        /* \"#utility.yul\":282:361   */\n      tag_17\n      tag_18\n      jump\t// in\n    tag_17:\n        /* \"#utility.yul\":251:363   */\n    tag_16:\n        /* \"#utility.yul\":372:413   */\n      tag_19\n        /* \"#utility.yul\":406:412   */\n      dup5\n        /* \"#utility.yul\":401:404   */\n      dup3\n        /* \"#utility.yul\":396:399   */\n      dup6\n        /* \"#utility.yul\":372:413   */\n      tag_20\n      jump\t// in\n    tag_19:\n        /* \"#utility.yul\":91:419   */\n      pop\n        /* \"#utility.yul\":7:419   */\n      swap4\n      swap3\n      pop\n      pop\n      pop\n      jump\t// out\n        /* \"#utility.yul\":439:779   */\n    tag_21:\n        /* \"#utility.yul\":495:500   */\n      0x00\n        /* \"#utility.yul\":544:547   */\n      dup3\n        /* \"#utility.yul\":537:541   */\n      0x1f\n        /* \"#utility.yul\":529:535   */\n      dup4\n        /* \"#utility.yul\":525:542   */\n      add\n        /* \"#utility.yul\":521:548   */\n      slt\n        /* \"#utility.yul\":511:633   */\n      tag_23\n      jumpi\n        /* \"#utility.yul\":552:631   */\n      tag_24\n      tag_25\n      jump\t// in\n    tag_24:\n        /* \"#utility.yul\":511:633   */\n    tag_23:\n        /* \"#utility.yul\":669:675   */\n      dup2\n        /* \"#utility.yul\":656:676   */\n      calldataload\n        /* \"#utility.yul\":694:773   */\n      tag_26\n        /* \"#utility.yul\":769:772   */\n      dup5\n        /* \"#utility.yul\":761:767   */\n      dup3\n        /* \"#utility.yul\":754:758   */\n      0x20\n        /* \"#utility.yul\":746:752   */\n      dup7\n        /* \"#utility.yul\":742:759   */\n      add\n        /* \"#utility.yul\":694:773   */\n      tag_10\n      jump\t// in\n    tag_26:\n        /* \"#utility.yul\":685:773   */\n      swap2\n      pop\n        /* \"#utility.yul\":501:779   */\n      pop\n        /* \"#utility.yul\":439:779   */\n      swap3\n      swap2\n      pop\n      pop\n      jump\t// out\n        /* \"#utility.yul\":785:924   */\n    tag_27:\n        /* \"#utility.yul\":831:836   */\n      0x00\n        /* \"#utility.yul\":869:875   */\n      dup2\n        /* \"#utility.yul\":856:876   */\n      calldataload\n        /* \"#utility.yul\":847:876   */\n      swap1\n      pop\n        /* \"#utility.yul\":885:918   */\n      tag_29\n        /* \"#utility.yul\":912:917   */\n      dup2\n        /* \"#utility.yul\":885:918   */\n      tag_30\n      jump\t// in\n    tag_29:\n        /* \"#utility.yul\":785:924   */\n      swap3\n      swap2\n      pop\n      pop\n      jump\t// out\n        /* \"#utility.yul\":930:2381   */\n    tag_6:\n        /* \"#utility.yul\":1055:1061   */\n      0x00\n        /* \"#utility.yul\":1063:1069   */\n      dup1\n        /* \"#utility.yul\":1071:1077   */\n      0x00\n        /* \"#utility.yul\":1079:1085   */\n      dup1\n        /* \"#utility.yul\":1087:1093   */\n      0x00\n        /* \"#utility.yul\":1136:1139   */\n      0xa0\n        /* \"#utility.yul\":1124:1133   */\n      dup7\n        /* \"#utility.yul\":1115:1122   */\n      dup9\n        /* \"#utility.yul\":1111:1134   */\n      sub\n        /* \"#utility.yul\":1107:1140   */\n      slt\n        /* \"#utility.yul\":1104:1224   */\n      iszero\n      tag_32\n      jumpi\n        /* \"#utility.yul\":1143:1222   */\n      tag_33\n      tag_34\n      jump\t// in\n    tag_33:\n        /* \"#utility.yul\":1104:1224   */\n    tag_32:\n        /* \"#utility.yul\":1263:1264   */\n      0x00\n        /* \"#utility.yul\":1288:1341   */\n      tag_35\n        /* \"#utility.yul\":1333:1340   */\n      dup9\n        /* \"#utility.yul\":1324:1330   */\n      dup3\n        /* \"#utility.yul\":1313:1322   */\n      dup10\n        /* \"#utility.yul\":1309:1331   */\n      add\n        /* \"#utility.yul\":1288:1341   */\n      tag_27\n      jump\t// in\n    tag_35:\n        /* \"#utility.yul\":1278:1341   */\n      swap6\n      pop\n        /* \"#utility.yul\":1234:1351   */\n      pop\n        /* \"#utility.yul\":1418:1420   */\n      0x20\n        /* \"#utility.yul\":1407:1416   */\n      dup7\n        /* \"#utility.yul\":1403:1421   */\n      add\n        /* \"#utility.yul\":1390:1422   */\n      calldataload\n        /* \"#utility.yul\":1449:1467   */\n      0xffffffffffffffff\n        /* \"#utility.yul\":1441:1447   */\n      dup2\n        /* \"#utility.yul\":1438:1468   */\n      gt\n        /* \"#utility.yul\":1435:1552   */\n      iszero\n      tag_36\n      jumpi\n        /* \"#utility.yul\":1471:1550   */\n      tag_37\n      tag_38\n      jump\t// in\n    tag_37:\n        /* \"#utility.yul\":1435:1552   */\n    tag_36:\n        /* \"#utility.yul\":1576:1639   */\n      tag_39\n        /* \"#utility.yul\":1631:1638   */\n      dup9\n        /* \"#utility.yul\":1622:1628   */\n      dup3\n        /* \"#utility.yul\":1611:1620   */\n      dup10\n        /* \"#utility.yul\":1607:1629   */\n      add\n        /* \"#utility.yul\":1576:1639   */\n      tag_21\n      jump\t// in\n    tag_39:\n        /* \"#utility.yul\":1566:1639   */\n      swap5\n      pop\n        /* \"#utility.yul\":1361:1649   */\n      pop\n        /* \"#utility.yul\":1688:1690   */\n      0x40\n        /* \"#utility.yul\":1714:1767   */\n      tag_40\n        /* \"#utility.yul\":1759:1766   */\n      dup9\n        /* \"#utility.yul\":1750:1756   */\n      dup3\n        /* \"#utility.yul\":1739:1748   */\n      dup10\n        /* \"#utility.yul\":1735:1757   */\n      add\n        /* \"#utility.yul\":1714:1767   */\n      tag_27\n      jump\t// in\n    tag_40:\n        /* \"#utility.yul\":1704:1767   */\n      swap4\n      pop\n        /* \"#utility.yul\":1659:1777   */\n      pop\n        /* \"#utility.yul\":1844:1846   */\n      0x60\n        /* \"#utility.yul\":1833:1842   */\n      dup7\n        /* \"#utility.yul\":1829:1847   */\n      add\n        /* \"#utility.yul\":1816:1848   */\n      calldataload\n        /* \"#utility.yul\":1875:1893   */\n      0xffffffffffffffff\n        /* \"#utility.yul\":1867:1873   */\n      dup2\n        /* \"#utility.yul\":1864:1894   */\n      gt\n        /* \"#utility.yul\":1861:1978   */\n      iszero\n      tag_41\n      jumpi\n        /* \"#utility.yul\":1897:1976   */\n      tag_42\n      tag_38\n      jump\t// in\n    tag_42:\n        /* \"#utility.yul\":1861:1978   */\n    tag_41:\n        /* \"#utility.yul\":2002:2065   */\n      tag_43\n        /* \"#utility.yul\":2057:2064   */\n      dup9\n        /* \"#utility.yul\":2048:2054   */\n      dup3\n        /* \"#utility.yul\":2037:2046   */\n      dup10\n        /* \"#utility.yul\":2033:2055   */\n      add\n        /* \"#utility.yul\":2002:2065   */\n      tag_21\n      jump\t// in\n    tag_43:\n        /* \"#utility.yul\":1992:2065   */\n      swap3\n      pop\n        /* \"#utility.yul\":1787:2075   */\n      pop\n        /* \"#utility.yul\":2142:2145   */\n      0x80\n        /* \"#utility.yul\":2131:2140   */\n      dup7\n        /* \"#utility.yul\":2127:2146   */\n      add\n        /* \"#utility.yul\":2114:2147   */\n      calldataload\n        /* \"#utility.yul\":2174:2192   */\n      0xffffffffffffffff\n        /* \"#utility.yul\":2166:2172   */\n      dup2\n        /* \"#utility.yul\":2163:2193   */\n      gt\n        /* \"#utility.yul\":2160:2277   */\n      iszero\n      tag_44\n      jumpi\n        /* \"#utility.yul\":2196:2275   */\n      tag_45\n      tag_38\n      jump\t// in\n    tag_45:\n        /* \"#utility.yul\":2160:2277   */\n    tag_44:\n        /* \"#utility.yul\":2301:2364   */\n      tag_46\n        /* \"#utility.yul\":2356:2363   */\n      dup9\n        /* \"#utility.yul\":2347:2353   */\n      dup3\n        /* \"#utility.yul\":2336:2345   */\n      dup10\n        /* \"#utility.yul\":2332:2354   */\n      add\n        /* \"#utility.yul\":2301:2364   */\n      tag_21\n      jump\t// in\n    tag_46:\n        /* \"#utility.yul\":2291:2364   */\n      swap2\n      pop\n        /* \"#utility.yul\":2085:2374   */\n      pop\n        /* \"#utility.yul\":930:2381   */\n      swap3\n      swap6\n      pop\n      swap3\n      swap6\n      swap1\n      swap4\n      pop\n      jump\t// out\n        /* \"#utility.yul\":2387:2516   */\n    tag_15:\n        /* \"#utility.yul\":2421:2427   */\n      0x00\n        /* \"#utility.yul\":2448:2468   */\n      tag_48\n      tag_49\n      jump\t// in\n    tag_48:\n        /* \"#utility.yul\":2438:2468   */\n      swap1\n      pop\n        /* \"#utility.yul\":2477:2510   */\n      tag_50\n        /* \"#utility.yul\":2505:2509   */\n      dup3\n        /* \"#utility.yul\":2497:2503   */\n      dup3\n        /* \"#utility.yul\":2477:2510   */\n      tag_51\n      jump\t// in\n    tag_50:\n        /* \"#utility.yul\":2387:2516   */\n      swap2\n      swap1\n      pop\n      jump\t// out\n        /* \"#utility.yul\":2522:2597   */\n    tag_49:\n        /* \"#utility.yul\":2555:2561   */\n      0x00\n        /* \"#utility.yul\":2588:2590   */\n      0x40\n        /* \"#utility.yul\":2582:2591   */\n      mload\n        /* \"#utility.yul\":2572:2591   */\n      swap1\n      pop\n        /* \"#utility.yul\":2522:2597   */\n      swap1\n      jump\t// out\n        /* \"#utility.yul\":2603:2911   */\n    tag_14:\n        /* \"#utility.yul\":2665:2669   */\n      0x00\n        /* \"#utility.yul\":2755:2773   */\n      0xffffffffffffffff\n        /* \"#utility.yul\":2747:2753   */\n      dup3\n        /* \"#utility.yul\":2744:2774   */\n      gt\n        /* \"#utility.yul\":2741:2797   */\n      iszero\n      tag_54\n      jumpi\n        /* \"#utility.yul\":2777:2795   */\n      tag_55\n      tag_56\n      jump\t// in\n    tag_55:\n        /* \"#utility.yul\":2741:2797   */\n    tag_54:\n        /* \"#utility.yul\":2815:2844   */\n      tag_57\n        /* \"#utility.yul\":2837:2843   */\n      dup3\n        /* \"#utility.yul\":2815:2844   */\n      tag_58\n      jump\t// in\n    tag_57:\n        /* \"#utility.yul\":2807:2844   */\n      swap1\n      pop\n        /* \"#utility.yul\":2899:2903   */\n      0x20\n        /* \"#utility.yul\":2893:2897   */\n      dup2\n        /* \"#utility.yul\":2889:2904   */\n      add\n        /* \"#utility.yul\":2881:2904   */\n      swap1\n      pop\n        /* \"#utility.yul\":2603:2911   */\n      swap2\n      swap1\n      pop\n      jump\t// out\n        /* \"#utility.yul\":2917:2994   */\n    tag_59:\n        /* \"#utility.yul\":2954:2961   */\n      0x00\n        /* \"#utility.yul\":2983:2988   */\n      dup2\n        /* \"#utility.yul\":2972:2988   */\n      swap1\n      pop\n        /* \"#utility.yul\":2917:2994   */\n      swap2\n      swap1\n      pop\n      jump\t// out\n        /* \"#utility.yul\":3000:3154   */\n    tag_20:\n        /* \"#utility.yul\":3084:3090   */\n      dup3\n        /* \"#utility.yul\":3079:3082   */\n      dup2\n        /* \"#utility.yul\":3074:3077   */\n      dup4\n        /* \"#utility.yul\":3061:3091   */\n      calldatacopy\n        /* \"#utility.yul\":3146:3147   */\n      0x00\n        /* \"#utility.yul\":3137:3143   */\n      dup4\n        /* \"#utility.yul\":3132:3135   */\n      dup4\n        /* \"#utility.yul\":3128:3144   */\n      add\n        /* \"#utility.yul\":3121:3148   */\n      mstore\n        /* \"#utility.yul\":3000:3154   */\n      pop\n      pop\n      pop\n      jump\t// out\n        /* \"#utility.yul\":3160:3441   */\n    tag_51:\n        /* \"#utility.yul\":3243:3270   */\n      tag_63\n        /* \"#utility.yul\":3265:3269   */\n      dup3\n        /* \"#utility.yul\":3243:3270   */\n      tag_58\n      jump\t// in\n    tag_63:\n        /* \"#utility.yul\":3235:3241   */\n      dup2\n        /* \"#utility.yul\":3231:3271   */\n      add\n        /* \"#utility.yul\":3373:3379   */\n      dup2\n        /* \"#utility.yul\":3361:3371   */\n      dup2\n        /* \"#utility.yul\":3358:3380   */\n      lt\n        /* \"#utility.yul\":3337:3355   */\n      0xffffffffffffffff\n        /* \"#utility.yul\":3325:3335   */\n      dup3\n        /* \"#utility.yul\":3322:3356   */\n      gt\n        /* \"#utility.yul\":3319:3381   */\n      or\n        /* \"#utility.yul\":3316:3404   */\n      iszero\n      tag_64\n      jumpi\n        /* \"#utility.yul\":3384:3402   */\n      tag_65\n      tag_56\n      jump\t// in\n    tag_65:\n        /* \"#utility.yul\":3316:3404   */\n    tag_64:\n        /* \"#utility.yul\":3424:3434   */\n      dup1\n        /* \"#utility.yul\":3420:3422   */\n      0x40\n        /* \"#utility.yul\":3413:3435   */\n      mstore\n        /* \"#utility.yul\":3203:3441   */\n      pop\n        /* \"#utility.yul\":3160:3441   */\n      pop\n      pop\n      jump\t// out\n        /* \"#utility.yul\":3447:3627   */\n    tag_56:\n        /* \"#utility.yul\":3495:3572   */\n      0x4e487b7100000000000000000000000000000000000000000000000000000000\n        /* \"#utility.yul\":3492:3493   */\n      0x00\n        /* \"#utility.yul\":3485:3573   */\n      mstore\n        /* \"#utility.yul\":3592:3596   */\n      0x41\n        /* \"#utility.yul\":3589:3590   */\n      0x04\n        /* \"#utility.yul\":3582:3597   */\n      mstore\n        /* \"#utility.yul\":3616:3620   */\n      0x24\n        /* \"#utility.yul\":3613:3614   */\n      0x00\n        /* \"#utility.yul\":3606:3621   */\n      revert\n        /* \"#utility.yul\":3633:3750   */\n    tag_25:\n        /* \"#utility.yul\":3742:3743   */\n      0x00\n        /* \"#utility.yul\":3739:3740   */\n      dup1\n        /* \"#utility.yul\":3732:3744   */\n      revert\n        /* \"#utility.yul\":3756:3873   */\n    tag_18:\n        /* \"#utility.yul\":3865:3866   */\n      0x00\n        /* \"#utility.yul\":3862:3863   */\n      dup1\n        /* \"#utility.yul\":3855:3867   */\n      revert\n        /* \"#utility.yul\":3879:3996   */\n    tag_38:\n        /* \"#utility.yul\":3988:3989   */\n      0x00\n        /* \"#utility.yul\":3985:3986   */\n      dup1\n        /* \"#utility.yul\":3978:3990   */\n      revert\n        /* \"#utility.yul\":4002:4119   */\n    tag_34:\n        /* \"#utility.yul\":4111:4112   */\n      0x00\n        /* \"#utility.yul\":4108:4109   */\n      dup1\n        /* \"#utility.yul\":4101:4113   */\n      revert\n        /* \"#utility.yul\":4125:4227   */\n    tag_58:\n        /* \"#utility.yul\":4166:4172   */\n      0x00\n        /* \"#utility.yul\":4217:4219   */\n      0x1f\n        /* \"#utility.yul\":4213:4220   */\n      not\n        /* \"#utility.yul\":4208:4210   */\n      0x1f\n        /* \"#utility.yul\":4201:4206   */\n      dup4\n        /* \"#utility.yul\":4197:4211   */\n      add\n        /* \"#utility.yul\":4193:4221   */\n      and\n        /* \"#utility.yul\":4183:4221   */\n      swap1\n      pop\n        /* \"#utility.yul\":4125:4227   */\n      swap2\n      swap1\n      pop\n      jump\t// out\n        /* \"#utility.yul\":4233:4355   */\n    tag_30:\n        /* \"#utility.yul\":4306:4330   */\n      tag_73\n        /* \"#utility.yul\":4324:4329   */\n      dup2\n        /* \"#utility.yul\":4306:4330   */\n      tag_59\n      jump\t// in\n    tag_73:\n        /* \"#utility.yul\":4299:4304   */\n      dup2\n        /* \"#utility.yul\":4296:4331   */\n      eq\n        /* \"#utility.yul\":4286:4349   */\n      tag_74\n      jumpi\n        /* \"#utility.yul\":4345:4346   */\n      0x00\n        /* \"#utility.yul\":4342:4343   */\n      dup1\n        /* \"#utility.yul\":4335:4347   */\n      revert\n        /* \"#utility.yul\":4286:4349   */\n    tag_74:\n        /* \"#utility.yul\":4233:4355   */\n      pop\n      jump\t// out\n\n    auxdata: 0xa2646970667358221220a23909254e5a69b916ea3899cdd670f503e920ca5f485c1de6179d1d1bf5172064736f6c63430008070033\n}\n",
				"bytecode": {
					"linkReferences": {},
					"object": "608060405234801561001057600080fd5b506102e8806100206000396000f3fe608060405234801561001057600080fd5b506004361061002b5760003560e01c80635090074314610030575b600080fd5b61004a600480360381019061004591906100d8565b61004c565b005b5050505050565b6000610066610061846101cc565b6101a7565b9050828152602081018484840111156100825761008161027b565b5b61008d848285610207565b509392505050565b600082601f8301126100aa576100a9610276565b5b81356100ba848260208601610053565b91505092915050565b6000813590506100d28161029b565b92915050565b600080600080600060a086880312156100f4576100f3610285565b5b6000610102888289016100c3565b955050602086013567ffffffffffffffff81111561012357610122610280565b5b61012f88828901610095565b9450506040610140888289016100c3565b935050606086013567ffffffffffffffff81111561016157610160610280565b5b61016d88828901610095565b925050608086013567ffffffffffffffff81111561018e5761018d610280565b5b61019a88828901610095565b9150509295509295909350565b60006101b16101c2565b90506101bd8282610216565b919050565b6000604051905090565b600067ffffffffffffffff8211156101e7576101e6610247565b5b6101f08261028a565b9050602081019050919050565b6000819050919050565b82818337600083830152505050565b61021f8261028a565b810181811067ffffffffffffffff8211171561023e5761023d610247565b5b80604052505050565b7f4e487b7100000000000000000000000000000000000000000000000000000000600052604160045260246000fd5b600080fd5b600080fd5b600080fd5b600080fd5b6000601f19601f8301169050919050565b6102a4816101fd565b81146102af57600080fd5b5056fea2646970667358221220a23909254e5a69b916ea3899cdd670f503e920ca5f485c1de6179d1d1bf5172064736f6c63430008070033",
					"opcodes": "PUSH1 0x80 PUSH1 0x40 MSTORE CALLVALUE DUP1 ISZERO PUSH2 0x10 JUMPI PUSH1 0x0 DUP1 REVERT JUMPDEST POP PUSH2 0x2E8 DUP1 PUSH2 0x20 PUSH1 0x0 CODECOPY PUSH1 0x0 RETURN INVALID PUSH1 0x80 PUSH1 0x40 MSTORE CALLVALUE DUP1 ISZERO PUSH2 0x10 JUMPI PUSH1 0x0 DUP1 REVERT JUMPDEST POP PUSH1 0x4 CALLDATASIZE LT PUSH2 0x2B JUMPI PUSH1 0x0 CALLDATALOAD PUSH1 0xE0 SHR DUP1 PUSH4 0x50900743 EQ PUSH2 0x30 JUMPI JUMPDEST PUSH1 0x0 DUP1 REVERT JUMPDEST PUSH2 0x4A PUSH1 0x4 DUP1 CALLDATASIZE SUB DUP2 ADD SWAP1 PUSH2 0x45 SWAP2 SWAP1 PUSH2 0xD8 JUMP JUMPDEST PUSH2 0x4C JUMP JUMPDEST STOP JUMPDEST POP POP POP POP POP JUMP JUMPDEST PUSH1 0x0 PUSH2 0x66 PUSH2 0x61 DUP5 PUSH2 0x1CC JUMP JUMPDEST PUSH2 0x1A7 JUMP JUMPDEST SWAP1 POP DUP3 DUP2 MSTORE PUSH1 0x20 DUP2 ADD DUP5 DUP5 DUP5 ADD GT ISZERO PUSH2 0x82 JUMPI PUSH2 0x81 PUSH2 0x27B JUMP JUMPDEST JUMPDEST PUSH2 0x8D DUP5 DUP3 DUP6 PUSH2 0x207 JUMP JUMPDEST POP SWAP4 SWAP3 POP POP POP JUMP JUMPDEST PUSH1 0x0 DUP3 PUSH1 0x1F DUP4 ADD SLT PUSH2 0xAA JUMPI PUSH2 0xA9 PUSH2 0x276 JUMP JUMPDEST JUMPDEST DUP2 CALLDATALOAD PUSH2 0xBA DUP5 DUP3 PUSH1 0x20 DUP7 ADD PUSH2 0x53 JUMP JUMPDEST SWAP2 POP POP SWAP3 SWAP2 POP POP JUMP JUMPDEST PUSH1 0x0 DUP2 CALLDATALOAD SWAP1 POP PUSH2 0xD2 DUP2 PUSH2 0x29B JUMP JUMPDEST SWAP3 SWAP2 POP POP JUMP JUMPDEST PUSH1 0x0 DUP1 PUSH1 0x0 DUP1 PUSH1 0x0 PUSH1 0xA0 DUP7 DUP9 SUB SLT ISZERO PUSH2 0xF4 JUMPI PUSH2 0xF3 PUSH2 0x285 JUMP JUMPDEST JUMPDEST PUSH1 0x0 PUSH2 0x102 DUP9 DUP3 DUP10 ADD PUSH2 0xC3 JUMP JUMPDEST SWAP6 POP POP PUSH1 0x20 DUP7 ADD CALLDATALOAD PUSH8 0xFFFFFFFFFFFFFFFF DUP2 GT ISZERO PUSH2 0x123 JUMPI PUSH2 0x122 PUSH2 0x280 JUMP JUMPDEST JUMPDEST PUSH2 0x12F DUP9 DUP3 DUP10 ADD PUSH2 0x95 JUMP JUMPDEST SWAP5 POP POP PUSH1 0x40 PUSH2 0x140 DUP9 DUP3 DUP10 ADD PUSH2 0xC3 JUMP JUMPDEST SWAP4 POP POP PUSH1 0x60 DUP7 ADD CALLDATALOAD PUSH8 0xFFFFFFFFFFFFFFFF DUP2 GT ISZERO PUSH2 0x161 JUMPI PUSH2 0x160 PUSH2 0x280 JUMP JUMPDEST JUMPDEST PUSH2 0x16D DUP9 DUP3 DUP10 ADD PUSH2 0x95 JUMP JUMPDEST SWAP3 POP POP PUSH1 0x80 DUP7 ADD CALLDATALOAD PUSH8 0xFFFFFFFFFFFFFFFF DUP2 GT ISZERO PUSH2 0x18E JUMPI PUSH2 0x18D PUSH2 0x280 JUMP JUMPDEST JUMPDEST PUSH2 0x19A DUP9 DUP3 DUP10 ADD PUSH2 0x95 JUMP JUMPDEST SWAP2 POP POP SWAP3 SWAP6 POP SWAP3 SWAP6 SWAP1 SWAP4 POP JUMP JUMPDEST PUSH1 0x0 PUSH2 0x1B1 PUSH2 0x1C2 JUMP JUMPDEST SWAP1 POP PUSH2 0x1BD DUP3 DUP3 PUSH2 0x216 JUMP JUMPDEST SWAP2 SWAP1 POP JUMP JUMPDEST PUSH1 0x0 PUSH1 0x40 MLOAD SWAP1 POP SWAP1 JUMP JUMPDEST PUSH1 0x0 PUSH8 0xFFFFFFFFFFFFFFFF DUP3 GT ISZERO PUSH2 0x1E7 JUMPI PUSH2 0x1E6 PUSH2 0x247 JUMP JUMPDEST JUMPDEST PUSH2 0x1F0 DUP3 PUSH2 0x28A JUMP JUMPDEST SWAP1 POP PUSH1 0x20 DUP2 ADD SWAP1 POP SWAP2 SWAP1 POP JUMP JUMPDEST PUSH1 0x0 DUP2 SWAP1 POP SWAP2 SWAP1 POP JUMP JUMPDEST DUP3 DUP2 DUP4 CALLDATACOPY PUSH1 0x0 DUP4 DUP4 ADD MSTORE POP POP POP JUMP JUMPDEST PUSH2 0x21F DUP3 PUSH2 0x28A JUMP JUMPDEST DUP2 ADD DUP2 DUP2 LT PUSH8 0xFFFFFFFFFFFFFFFF DUP3 GT OR ISZERO PUSH2 0x23E JUMPI PUSH2 0x23D PUSH2 0x247 JUMP JUMPDEST JUMPDEST DUP1 PUSH1 0x40 MSTORE POP POP POP JUMP JUMPDEST PUSH32 0x4E487B7100000000000000000000000000000000000000000000000000000000 PUSH1 0x0 MSTORE PUSH1 0x41 PUSH1 0x4 MSTORE PUSH1 0x24 PUSH1 0x0 REVERT JUMPDEST PUSH1 0x0 DUP1 REVERT JUMPDEST PUSH1 0x0 DUP1 REVERT JUMPDEST PUSH1 0x0 DUP1 REVERT JUMPDEST PUSH1 0x0 DUP1 REVERT JUMPDEST PUSH1 0x0 PUSH1 0x1F NOT PUSH1 0x1F DUP4 ADD AND SWAP1 POP SWAP2 SWAP1 POP JUMP JUMPDEST PUSH2 0x2A4 DUP2 PUSH2 0x1FD JUMP JUMPDEST DUP2 EQ PUSH2 0x2AF JUMPI PUSH1 0x0 DUP1 REVERT JUMPDEST POP JUMP INVALID LOG2 PUSH5 0x6970667358 0x22 SLT KECCAK256 LOG2 CODECOPY MULMOD 0x25 0x4E GAS PUSH10 0xB916EA3899CDD670F503 0xE9 KECCAK256 0xCA 0x5F BASEFEE 0x5C SAR 0xE6 OR SWAP14 SAR SHL CREATE2 OR KECCAK256 PUSH5 0x736F6C6343 STOP ADDMOD SMOD STOP CALLER "
				},
				"gasEstimates": {
					"creation": {
						"codeDepositCost": "148800",
						"executionCost": "196",
						"totalCost": "148996"
					},
					"external": {
						"set(uint256,string,uint256,string,string)": "infinite"
					}
				},
				"methodIdentifiers": {
					"set(uint256,string,uint256,string,string)": "50900743"
				}
			},
			"storageLayout": {
				"storage": [
					{
						"astId": 15,
						"contract": "mappingg1.sol:Mapping1testing",
						"label": "my_mobile",
						"offset": 0,
						"slot": "0",
						"type": "t_mapping(t_uint256,t_struct(mobile)10_storage)"
					}
				],
				"types": {
					"t_mapping(t_uint256,t_struct(mobile)10_storage)": {
						"encoding": "mapping",
						"key": "t_uint256",
						"label": "mapping(uint256 => struct Mapping1testing.mobile)",
						"numberOfBytes": "32",
						"value": "t_struct(mobile)10_storage"
					},
					"t_string_storage": {
						"encoding": "bytes",
						"label": "string",
						"numberOfBytes": "32"
					},
					"t_struct(mobile)10_storage": {
						"encoding": "inplace",
						"label": "struct Mapping1testing.mobile",
						"members": [
							{
								"astId": 3,
								"contract": "mappingg1.sol:Mapping1testing",
								"label": "Name",
								"offset": 0,
								"slot": "0",
								"type": "t_string_storage"
							},
							{
								"astId": 5,
								"contract": "mappingg1.sol:Mapping1testing",
								"label": "model_name",
								"offset": 0,
								"slot": "1",
								"type": "t_uint256"
							},
							{
								"astId": 7,
								"contract": "mappingg1.sol:Mapping1testing",
								"label": "owner_name",
								"offset": 0,
								"slot": "2",
								"type": "t_string_storage"
							},
							{
								"astId": 9,
								"contract": "mappingg1.sol:Mapping1testing",
								"label": "color",
								"offset": 0,
								"slot": "3",
								"type": "t_string_storage"
							}
						],
						"numberOfBytes": "128"
					},
					"t_uint256": {
						"encoding": "inplace",
						"label": "uint256",
						"numberOfBytes": "32"
					}
				}
			},
			"userdoc": {
				"kind": "user",
				"methods": {},
				"version": 1
			}
		}
	}
}