{
	"enumpure.sol": {
		"specialhub": {
			"abi": [
				{
					"inputs": [],
					"name": "changeOwner",
					"outputs": [],
					"stateMutability": "nonpayable",
					"type": "function"
				},
				{
					"inputs": [],
					"name": "lottery",
					"outputs": [
						{
							"internalType": "uint256",
							"name": "",
							"type": "uint256"
						}
					],
					"stateMutability": "view",
					"type": "function"
				},
				{
					"inputs": [],
					"name": "owner",
					"outputs": [],
					"stateMutability": "nonpayable",
					"type": "function"
				},
				{
					"inputs": [],
					"name": "u1",
					"outputs": [
						{
							"internalType": "enum specialhub.user",
							"name": "",
							"type": "uint8"
						}
					],
					"stateMutability": "view",
					"type": "function"
				}
			],
			"devdoc": {
				"kind": "dev",
				"methods": {},
				"version": 1
			},
			"evm": {
				"assembly": "    /* \"enumpure.sol\":75:377  contract specialhub{\r... */\n  mstore(0x40, 0x80)\n    /* \"enumpure.sol\":148:157  user.wait */\n  0x02\n    /* \"enumpure.sol\":132:157  user public u1= user.wait */\n  0x00\n  dup1\n  0x0100\n  exp\n  dup2\n  sload\n  dup2\n  0xff\n  mul\n  not\n  and\n  swap1\n  dup4\n  0x02\n  dup2\n  gt\n  iszero\n  tag_1\n  jumpi\n  tag_2\n  tag_3\n  jump\t// in\ntag_2:\ntag_1:\n  mul\n  or\n  swap1\n  sstore\n  pop\n    /* \"enumpure.sol\":186:190  2000 */\n  0x07d0\n    /* \"enumpure.sol\":164:190  uint public lottery = 2000 */\n  0x01\n  sstore\n    /* \"enumpure.sol\":75:377  contract specialhub{\r... */\n  callvalue\n  dup1\n  iszero\n  tag_4\n  jumpi\n  0x00\n  dup1\n  revert\ntag_4:\n  pop\n  jump(tag_5)\n    /* \"#utility.yul\":7:187   */\ntag_3:\n    /* \"#utility.yul\":55:132   */\n  0x4e487b7100000000000000000000000000000000000000000000000000000000\n    /* \"#utility.yul\":52:53   */\n  0x00\n    /* \"#utility.yul\":45:133   */\n  mstore\n    /* \"#utility.yul\":152:156   */\n  0x21\n    /* \"#utility.yul\":149:150   */\n  0x04\n    /* \"#utility.yul\":142:157   */\n  mstore\n    /* \"#utility.yul\":176:180   */\n  0x24\n    /* \"#utility.yul\":173:174   */\n  0x00\n    /* \"#utility.yul\":166:181   */\n  revert\n    /* \"enumpure.sol\":75:377  contract specialhub{\r... */\ntag_5:\n  dataSize(sub_0)\n  dup1\n  dataOffset(sub_0)\n  0x00\n  codecopy\n  0x00\n  return\nstop\n\nsub_0: assembly {\n        /* \"enumpure.sol\":75:377  contract specialhub{\r... */\n      mstore(0x40, 0x80)\n      callvalue\n      dup1\n      iszero\n      tag_1\n      jumpi\n      0x00\n      dup1\n      revert\n    tag_1:\n      pop\n      jumpi(tag_2, lt(calldatasize, 0x04))\n      shr(0xe0, calldataload(0x00))\n      dup1\n      0x1aa35610\n      eq\n      tag_3\n      jumpi\n      dup1\n      0x62a09477\n      eq\n      tag_4\n      jumpi\n      dup1\n      0x8da5cb5b\n      eq\n      tag_5\n      jumpi\n      dup1\n      0xba13a572\n      eq\n      tag_6\n      jumpi\n    tag_2:\n      0x00\n      dup1\n      revert\n        /* \"enumpure.sol\":132:157  user public u1= user.wait */\n    tag_3:\n      tag_7\n      tag_8\n      jump\t// in\n    tag_7:\n      mload(0x40)\n      tag_9\n      swap2\n      swap1\n      tag_10\n      jump\t// in\n    tag_9:\n      mload(0x40)\n      dup1\n      swap2\n      sub\n      swap1\n      return\n        /* \"enumpure.sol\":311:374  function changeOwner() public {\r... */\n    tag_4:\n      tag_11\n      tag_12\n      jump\t// in\n    tag_11:\n      stop\n        /* \"enumpure.sol\":197:305  function owner() public {\r... */\n    tag_5:\n      tag_13\n      tag_14\n      jump\t// in\n    tag_13:\n      stop\n        /* \"enumpure.sol\":164:190  uint public lottery = 2000 */\n    tag_6:\n      tag_15\n      tag_16\n      jump\t// in\n    tag_15:\n      mload(0x40)\n      tag_17\n      swap2\n      swap1\n      tag_18\n      jump\t// in\n    tag_17:\n      mload(0x40)\n      dup1\n      swap2\n      sub\n      swap1\n      return\n        /* \"enumpure.sol\":132:157  user public u1= user.wait */\n    tag_8:\n      0x00\n      dup1\n      sload\n      swap1\n      0x0100\n      exp\n      swap1\n      div\n      0xff\n      and\n      dup2\n      jump\t// out\n        /* \"enumpure.sol\":311:374  function changeOwner() public {\r... */\n    tag_12:\n        /* \"enumpure.sol\":357:366  user.lose */\n      0x01\n        /* \"enumpure.sol\":352:366  u1== user.lose */\n      0x02\n      dup2\n      gt\n      iszero\n      tag_20\n      jumpi\n      tag_21\n      tag_22\n      jump\t// in\n    tag_21:\n    tag_20:\n        /* \"enumpure.sol\":352:354  u1 */\n      0x00\n      dup1\n      sload\n      swap1\n      0x0100\n      exp\n      swap1\n      div\n      0xff\n      and\n        /* \"enumpure.sol\":352:366  u1== user.lose */\n      0x02\n      dup2\n      gt\n      iszero\n      tag_23\n      jumpi\n      tag_24\n      tag_22\n      jump\t// in\n    tag_24:\n    tag_23:\n      pop\n      pop\n        /* \"enumpure.sol\":311:374  function changeOwner() public {\r... */\n      jump\t// out\n        /* \"enumpure.sol\":197:305  function owner() public {\r... */\n    tag_14:\n        /* \"enumpure.sol\":241:249  user.win */\n      0x00\n        /* \"enumpure.sol\":236:249  u1== user.win */\n      0x02\n      dup2\n      gt\n      iszero\n      tag_26\n      jumpi\n      tag_27\n      tag_22\n      jump\t// in\n    tag_27:\n    tag_26:\n        /* \"enumpure.sol\":236:238  u1 */\n      0x00\n      dup1\n      sload\n      swap1\n      0x0100\n      exp\n      swap1\n      div\n      0xff\n      and\n        /* \"enumpure.sol\":236:249  u1== user.win */\n      0x02\n      dup2\n      gt\n      iszero\n      tag_28\n      jumpi\n      tag_29\n      tag_22\n      jump\t// in\n    tag_29:\n    tag_28:\n      eq\n        /* \"enumpure.sol\":232:298  if (u1== user.win)\r... */\n      iszero\n      tag_30\n      jumpi\n        /* \"enumpure.sol\":285:286  0 */\n      0x00\n        /* \"enumpure.sol\":275:282  lottery */\n      0x01\n        /* \"enumpure.sol\":275:286  lottery = 0 */\n      dup2\n      swap1\n      sstore\n      pop\n        /* \"enumpure.sol\":232:298  if (u1== user.win)\r... */\n    tag_30:\n        /* \"enumpure.sol\":197:305  function owner() public {\r... */\n      jump\t// out\n        /* \"enumpure.sol\":164:190  uint public lottery = 2000 */\n    tag_16:\n      sload(0x01)\n      dup2\n      jump\t// out\n        /* \"#utility.yul\":7:146   */\n    tag_32:\n        /* \"#utility.yul\":98:139   */\n      tag_34\n        /* \"#utility.yul\":133:138   */\n      dup2\n        /* \"#utility.yul\":98:139   */\n      tag_35\n      jump\t// in\n    tag_34:\n        /* \"#utility.yul\":93:96   */\n      dup3\n        /* \"#utility.yul\":86:140   */\n      mstore\n        /* \"#utility.yul\":7:146   */\n      pop\n      pop\n      jump\t// out\n        /* \"#utility.yul\":152:270   */\n    tag_36:\n        /* \"#utility.yul\":239:263   */\n      tag_38\n        /* \"#utility.yul\":257:262   */\n      dup2\n        /* \"#utility.yul\":239:263   */\n      tag_39\n      jump\t// in\n    tag_38:\n        /* \"#utility.yul\":234:237   */\n      dup3\n        /* \"#utility.yul\":227:264   */\n      mstore\n        /* \"#utility.yul\":152:270   */\n      pop\n      pop\n      jump\t// out\n        /* \"#utility.yul\":276:506   */\n    tag_10:\n        /* \"#utility.yul\":373:377   */\n      0x00\n        /* \"#utility.yul\":411:413   */\n      0x20\n        /* \"#utility.yul\":400:409   */\n      dup3\n        /* \"#utility.yul\":396:414   */\n      add\n        /* \"#utility.yul\":388:414   */\n      swap1\n      pop\n        /* \"#utility.yul\":424:499   */\n      tag_41\n        /* \"#utility.yul\":496:497   */\n      0x00\n        /* \"#utility.yul\":485:494   */\n      dup4\n        /* \"#utility.yul\":481:498   */\n      add\n        /* \"#utility.yul\":472:478   */\n      dup5\n        /* \"#utility.yul\":424:499   */\n      tag_32\n      jump\t// in\n    tag_41:\n        /* \"#utility.yul\":276:506   */\n      swap3\n      swap2\n      pop\n      pop\n      jump\t// out\n        /* \"#utility.yul\":512:734   */\n    tag_18:\n        /* \"#utility.yul\":605:609   */\n      0x00\n        /* \"#utility.yul\":643:645   */\n      0x20\n        /* \"#utility.yul\":632:641   */\n      dup3\n        /* \"#utility.yul\":628:646   */\n      add\n        /* \"#utility.yul\":620:646   */\n      swap1\n      pop\n        /* \"#utility.yul\":656:727   */\n      tag_43\n        /* \"#utility.yul\":724:725   */\n      0x00\n        /* \"#utility.yul\":713:722   */\n      dup4\n        /* \"#utility.yul\":709:726   */\n      add\n        /* \"#utility.yul\":700:706   */\n      dup5\n        /* \"#utility.yul\":656:727   */\n      tag_36\n      jump\t// in\n    tag_43:\n        /* \"#utility.yul\":512:734   */\n      swap3\n      swap2\n      pop\n      pop\n      jump\t// out\n        /* \"#utility.yul\":740:863   */\n    tag_44:\n        /* \"#utility.yul\":783:790   */\n      0x00\n        /* \"#utility.yul\":812:817   */\n      dup2\n        /* \"#utility.yul\":801:817   */\n      swap1\n      pop\n        /* \"#utility.yul\":818:857   */\n      tag_46\n        /* \"#utility.yul\":851:856   */\n      dup3\n        /* \"#utility.yul\":818:857   */\n      tag_47\n      jump\t// in\n    tag_46:\n        /* \"#utility.yul\":740:863   */\n      swap2\n      swap1\n      pop\n      jump\t// out\n        /* \"#utility.yul\":869:946   */\n    tag_39:\n        /* \"#utility.yul\":906:913   */\n      0x00\n        /* \"#utility.yul\":935:940   */\n      dup2\n        /* \"#utility.yul\":924:940   */\n      swap1\n      pop\n        /* \"#utility.yul\":869:946   */\n      swap2\n      swap1\n      pop\n      jump\t// out\n        /* \"#utility.yul\":952:1075   */\n    tag_35:\n        /* \"#utility.yul\":1006:1015   */\n      0x00\n        /* \"#utility.yul\":1039:1069   */\n      tag_50\n        /* \"#utility.yul\":1063:1068   */\n      dup3\n        /* \"#utility.yul\":1039:1069   */\n      tag_44\n      jump\t// in\n    tag_50:\n        /* \"#utility.yul\":1026:1069   */\n      swap1\n      pop\n        /* \"#utility.yul\":952:1075   */\n      swap2\n      swap1\n      pop\n      jump\t// out\n        /* \"#utility.yul\":1081:1261   */\n    tag_22:\n        /* \"#utility.yul\":1129:1206   */\n      0x4e487b7100000000000000000000000000000000000000000000000000000000\n        /* \"#utility.yul\":1126:1127   */\n      0x00\n        /* \"#utility.yul\":1119:1207   */\n      mstore\n        /* \"#utility.yul\":1226:1230   */\n      0x21\n        /* \"#utility.yul\":1223:1224   */\n      0x04\n        /* \"#utility.yul\":1216:1231   */\n      mstore\n        /* \"#utility.yul\":1250:1254   */\n      0x24\n        /* \"#utility.yul\":1247:1248   */\n      0x00\n        /* \"#utility.yul\":1240:1255   */\n      revert\n        /* \"#utility.yul\":1267:1378   */\n    tag_47:\n        /* \"#utility.yul\":1346:1347   */\n      0x03\n        /* \"#utility.yul\":1339:1344   */\n      dup2\n        /* \"#utility.yul\":1336:1348   */\n      lt\n        /* \"#utility.yul\":1326:1372   */\n      tag_53\n      jumpi\n        /* \"#utility.yul\":1352:1370   */\n      tag_54\n      tag_22\n      jump\t// in\n    tag_54:\n        /* \"#utility.yul\":1326:1372   */\n    tag_53:\n        /* \"#utility.yul\":1267:1378   */\n      pop\n      jump\t// out\n\n    auxdata: 0xa264697066735822122069e4ee9f444cbf7e26f3ad10b576d9eb5b1c2c641d6e4509bcb0a3e92b823ccb64736f6c63430008070033\n}\n",
				"bytecode": {
					"linkReferences": {},
					"object": "608060405260026000806101000a81548160ff0219169083600281111561002957610028610046565b5b02179055506107d060015534801561004057600080fd5b50610075565b7f4e487b7100000000000000000000000000000000000000000000000000000000600052602160045260246000fd5b610231806100846000396000f3fe608060405234801561001057600080fd5b506004361061004c5760003560e01c80631aa356101461005157806362a094771461006f5780638da5cb5b14610079578063ba13a57214610083575b600080fd5b6100596100a1565b6040516100669190610153565b60405180910390f35b6100776100b2565b005b6100816100ea565b005b61008b61012f565b604051610098919061016e565b60405180910390f35b60008054906101000a900460ff1681565b600160028111156100c6576100c56101b8565b5b60008054906101000a900460ff1660028111156100e6576100e56101b8565b5b5050565b600060028111156100fe576100fd6101b8565b5b60008054906101000a900460ff16600281111561011e5761011d6101b8565b5b141561012d5760006001819055505b565b60015481565b61013e816101a6565b82525050565b61014d8161019c565b82525050565b60006020820190506101686000830184610135565b92915050565b60006020820190506101836000830184610144565b92915050565b6000819050610197826101e7565b919050565b6000819050919050565b60006101b182610189565b9050919050565b7f4e487b7100000000000000000000000000000000000000000000000000000000600052602160045260246000fd5b600381106101f8576101f76101b8565b5b5056fea264697066735822122069e4ee9f444cbf7e26f3ad10b576d9eb5b1c2c641d6e4509bcb0a3e92b823ccb64736f6c63430008070033",
					"opcodes": "PUSH1 0x80 PUSH1 0x40 MSTORE PUSH1 0x2 PUSH1 0x0 DUP1 PUSH2 0x100 EXP DUP2 SLOAD DUP2 PUSH1 0xFF MUL NOT AND SWAP1 DUP4 PUSH1 0x2 DUP2 GT ISZERO PUSH2 0x29 JUMPI PUSH2 0x28 PUSH2 0x46 JUMP JUMPDEST JUMPDEST MUL OR SWAP1 SSTORE POP PUSH2 0x7D0 PUSH1 0x1 SSTORE CALLVALUE DUP1 ISZERO PUSH2 0x40 JUMPI PUSH1 0x0 DUP1 REVERT JUMPDEST POP PUSH2 0x75 JUMP JUMPDEST PUSH32 0x4E487B7100000000000000000000000000000000000000000000000000000000 PUSH1 0x0 MSTORE PUSH1 0x21 PUSH1 0x4 MSTORE PUSH1 0x24 PUSH1 0x0 REVERT JUMPDEST PUSH2 0x231 DUP1 PUSH2 0x84 PUSH1 0x0 CODECOPY PUSH1 0x0 RETURN INVALID PUSH1 0x80 PUSH1 0x40 MSTORE CALLVALUE DUP1 ISZERO PUSH2 0x10 JUMPI PUSH1 0x0 DUP1 REVERT JUMPDEST POP PUSH1 0x4 CALLDATASIZE LT PUSH2 0x4C JUMPI PUSH1 0x0 CALLDATALOAD PUSH1 0xE0 SHR DUP1 PUSH4 0x1AA35610 EQ PUSH2 0x51 JUMPI DUP1 PUSH4 0x62A09477 EQ PUSH2 0x6F JUMPI DUP1 PUSH4 0x8DA5CB5B EQ PUSH2 0x79 JUMPI DUP1 PUSH4 0xBA13A572 EQ PUSH2 0x83 JUMPI JUMPDEST PUSH1 0x0 DUP1 REVERT JUMPDEST PUSH2 0x59 PUSH2 0xA1 JUMP JUMPDEST PUSH1 0x40 MLOAD PUSH2 0x66 SWAP2 SWAP1 PUSH2 0x153 JUMP JUMPDEST PUSH1 0x40 MLOAD DUP1 SWAP2 SUB SWAP1 RETURN JUMPDEST PUSH2 0x77 PUSH2 0xB2 JUMP JUMPDEST STOP JUMPDEST PUSH2 0x81 PUSH2 0xEA JUMP JUMPDEST STOP JUMPDEST PUSH2 0x8B PUSH2 0x12F JUMP JUMPDEST PUSH1 0x40 MLOAD PUSH2 0x98 SWAP2 SWAP1 PUSH2 0x16E JUMP JUMPDEST PUSH1 0x40 MLOAD DUP1 SWAP2 SUB SWAP1 RETURN JUMPDEST PUSH1 0x0 DUP1 SLOAD SWAP1 PUSH2 0x100 EXP SWAP1 DIV PUSH1 0xFF AND DUP2 JUMP JUMPDEST PUSH1 0x1 PUSH1 0x2 DUP2 GT ISZERO PUSH2 0xC6 JUMPI PUSH2 0xC5 PUSH2 0x1B8 JUMP JUMPDEST JUMPDEST PUSH1 0x0 DUP1 SLOAD SWAP1 PUSH2 0x100 EXP SWAP1 DIV PUSH1 0xFF AND PUSH1 0x2 DUP2 GT ISZERO PUSH2 0xE6 JUMPI PUSH2 0xE5 PUSH2 0x1B8 JUMP JUMPDEST JUMPDEST POP POP JUMP JUMPDEST PUSH1 0x0 PUSH1 0x2 DUP2 GT ISZERO PUSH2 0xFE JUMPI PUSH2 0xFD PUSH2 0x1B8 JUMP JUMPDEST JUMPDEST PUSH1 0x0 DUP1 SLOAD SWAP1 PUSH2 0x100 EXP SWAP1 DIV PUSH1 0xFF AND PUSH1 0x2 DUP2 GT ISZERO PUSH2 0x11E JUMPI PUSH2 0x11D PUSH2 0x1B8 JUMP JUMPDEST JUMPDEST EQ ISZERO PUSH2 0x12D JUMPI PUSH1 0x0 PUSH1 0x1 DUP2 SWAP1 SSTORE POP JUMPDEST JUMP JUMPDEST PUSH1 0x1 SLOAD DUP2 JUMP JUMPDEST PUSH2 0x13E DUP2 PUSH2 0x1A6 JUMP JUMPDEST DUP3 MSTORE POP POP JUMP JUMPDEST PUSH2 0x14D DUP2 PUSH2 0x19C JUMP JUMPDEST DUP3 MSTORE POP POP JUMP JUMPDEST PUSH1 0x0 PUSH1 0x20 DUP3 ADD SWAP1 POP PUSH2 0x168 PUSH1 0x0 DUP4 ADD DUP5 PUSH2 0x135 JUMP JUMPDEST SWAP3 SWAP2 POP POP JUMP JUMPDEST PUSH1 0x0 PUSH1 0x20 DUP3 ADD SWAP1 POP PUSH2 0x183 PUSH1 0x0 DUP4 ADD DUP5 PUSH2 0x144 JUMP JUMPDEST SWAP3 SWAP2 POP POP JUMP JUMPDEST PUSH1 0x0 DUP2 SWAP1 POP PUSH2 0x197 DUP3 PUSH2 0x1E7 JUMP JUMPDEST SWAP2 SWAP1 POP JUMP JUMPDEST PUSH1 0x0 DUP2 SWAP1 POP SWAP2 SWAP1 POP JUMP JUMPDEST PUSH1 0x0 PUSH2 0x1B1 DUP3 PUSH2 0x189 JUMP JUMPDEST SWAP1 POP SWAP2 SWAP1 POP JUMP JUMPDEST PUSH32 0x4E487B7100000000000000000000000000000000000000000000000000000000 PUSH1 0x0 MSTORE PUSH1 0x21 PUSH1 0x4 MSTORE PUSH1 0x24 PUSH1 0x0 REVERT JUMPDEST PUSH1 0x3 DUP2 LT PUSH2 0x1F8 JUMPI PUSH2 0x1F7 PUSH2 0x1B8 JUMP JUMPDEST JUMPDEST POP JUMP INVALID LOG2 PUSH5 0x6970667358 0x22 SLT KECCAK256 PUSH10 0xE4EE9F444CBF7E26F3AD LT 0xB5 PUSH23 0xD9EB5B1C2C641D6E4509BCB0A3E92B823CCB64736F6C63 NUMBER STOP ADDMOD SMOD STOP CALLER "
				},
				"gasEstimates": {
					"creation": {
						"codeDepositCost": "112200",
						"executionCost": "46564",
						"totalCost": "158764"
					},
					"external": {
						"changeOwner()": "2364",
						"lottery()": "2473",
						"owner()": "7391",
						"u1()": "2535"
					}
				},
				"methodIdentifiers": {
					"changeOwner()": "62a09477",
					"lottery()": "ba13a572",
					"owner()": "8da5cb5b",
					"u1()": "1aa35610"
				}
			},
			"storageLayout": {
				"storage": [
					{
						"astId": 10,
						"contract": "enumpure.sol:specialhub",
						"label": "u1",
						"offset": 0,
						"slot": "0",
						"type": "t_enum(user)5"
					},
					{
						"astId": 13,
						"contract": "enumpure.sol:specialhub",
						"label": "lottery",
						"offset": 0,
						"slot": "1",
						"type": "t_uint256"
					}
				],
				"types": {
					"t_enum(user)5": {
						"encoding": "inplace",
						"label": "enum specialhub.user",
						"numberOfBytes": "1"
					},
					"t_uint256": {
						"encoding": "inplace",
						"label": "uint256",
						"numberOfBytes": "32"
					}
				}
			},
			"userdoc": {
				"kind": "user",
				"methods": {},
				"version": 1
			}
		}
	}
}