{
	"rule8.sol": {
		"rule8": {
			"abi": [
				{
					"inputs": [],
					"name": "assignment7",
					"outputs": [
						{
							"internalType": "int256",
							"name": "",
							"type": "int256"
						}
					],
					"stateMutability": "nonpayable",
					"type": "function"
				}
			],
			"devdoc": {
				"kind": "dev",
				"methods": {},
				"version": 1
			},
			"evm": {
				"assembly": "    /* \"rule8.sol\":27:248  contract rule8{... */\n  mstore(0x40, 0x80)\n  callvalue\n  dup1\n  iszero\n  tag_1\n  jumpi\n  0x00\n  dup1\n  revert\ntag_1:\n  pop\n  dataSize(sub_0)\n  dup1\n  dataOffset(sub_0)\n  0x00\n  codecopy\n  0x00\n  return\nstop\n\nsub_0: assembly {\n        /* \"rule8.sol\":27:248  contract rule8{... */\n      mstore(0x40, 0x80)\n      callvalue\n      dup1\n      iszero\n      tag_1\n      jumpi\n      0x00\n      dup1\n      revert\n    tag_1:\n      pop\n      jumpi(tag_2, lt(calldatasize, 0x04))\n      shr(0xe0, calldataload(0x00))\n      dup1\n      0x569d4ba6\n      eq\n      tag_3\n      jumpi\n    tag_2:\n      0x00\n      dup1\n      revert\n        /* \"rule8.sol\":50:243  function assignment7() public returns (int) {  int rule8LocalVar1 = 20;... */\n    tag_3:\n      tag_4\n      tag_5\n      jump\t// in\n    tag_4:\n      mload(0x40)\n      tag_6\n      swap2\n      swap1\n      tag_7\n      jump\t// in\n    tag_6:\n      mload(0x40)\n      dup1\n      swap2\n      sub\n      swap1\n      return\n    tag_5:\n        /* \"rule8.sol\":89:92  int */\n      0x00\n        /* \"rule8.sol\":97:115  int rule8LocalVar1 */\n      dup1\n        /* \"rule8.sol\":118:120  20 */\n      0x14\n        /* \"rule8.sol\":97:120  int rule8LocalVar1 = 20 */\n      swap1\n      pop\n        /* \"rule8.sol\":123:141  int rule8LocalVar2 */\n      0x00\n        /* \"rule8.sol\":144:146  30 */\n      0x1e\n        /* \"rule8.sol\":123:146  int rule8LocalVar2 = 30 */\n      swap1\n      pop\n        /* \"rule8.sol\":166:180  rule8LocalVar2 */\n      dup1\n        /* \"rule8.sol\":149:180  rule8LocalVar1 = rule8LocalVar2 */\n      swap2\n      pop\n        /* \"rule8.sol\":200:202  60 */\n      0x3c\n        /* \"rule8.sol\":183:202  rule8LocalVar2 = 60 */\n      swap1\n      pop\n        /* \"rule8.sol\":212:226  rule8LocalVar1 */\n      dup2\n        /* \"rule8.sol\":205:226  return rule8LocalVar1 */\n      swap3\n      pop\n      pop\n      pop\n        /* \"rule8.sol\":50:243  function assignment7() public returns (int) {  int rule8LocalVar1 = 20;... */\n      swap1\n      jump\t// out\n        /* \"#utility.yul\":7:83   */\n    tag_9:\n        /* \"#utility.yul\":43:50   */\n      0x00\n        /* \"#utility.yul\":72:77   */\n      dup2\n        /* \"#utility.yul\":61:77   */\n      swap1\n      pop\n        /* \"#utility.yul\":7:83   */\n      swap2\n      swap1\n      pop\n      jump\t// out\n        /* \"#utility.yul\":89:204   */\n    tag_10:\n        /* \"#utility.yul\":174:197   */\n      tag_14\n        /* \"#utility.yul\":191:196   */\n      dup2\n        /* \"#utility.yul\":174:197   */\n      tag_9\n      jump\t// in\n    tag_14:\n        /* \"#utility.yul\":169:172   */\n      dup3\n        /* \"#utility.yul\":162:198   */\n      mstore\n        /* \"#utility.yul\":89:204   */\n      pop\n      pop\n      jump\t// out\n        /* \"#utility.yul\":210:428   */\n    tag_7:\n        /* \"#utility.yul\":301:305   */\n      0x00\n        /* \"#utility.yul\":339:341   */\n      0x20\n        /* \"#utility.yul\":328:337   */\n      dup3\n        /* \"#utility.yul\":324:342   */\n      add\n        /* \"#utility.yul\":316:342   */\n      swap1\n      pop\n        /* \"#utility.yul\":352:421   */\n      tag_16\n        /* \"#utility.yul\":418:419   */\n      0x00\n        /* \"#utility.yul\":407:416   */\n      dup4\n        /* \"#utility.yul\":403:420   */\n      add\n        /* \"#utility.yul\":394:400   */\n      dup5\n        /* \"#utility.yul\":352:421   */\n      tag_10\n      jump\t// in\n    tag_16:\n        /* \"#utility.yul\":210:428   */\n      swap3\n      swap2\n      pop\n      pop\n      jump\t// out\n\n    auxdata: 0xa2646970667358221220e5cd04de386bf6311326db1e9012ce5556ac8502b657bc881ed823089b06ac9264736f6c634300080f0033\n}\n",
				"bytecode": {
					"linkReferences": {},
					"object": "608060405234801561001057600080fd5b5060c98061001f6000396000f3fe6080604052348015600f57600080fd5b506004361060285760003560e01c8063569d4ba614602d575b600080fd5b60336047565b604051603e9190607a565b60405180910390f35b600080601490506000601e9050809150603c9050819250505090565b6000819050919050565b6074816063565b82525050565b6000602082019050608d6000830184606d565b9291505056fea2646970667358221220e5cd04de386bf6311326db1e9012ce5556ac8502b657bc881ed823089b06ac9264736f6c634300080f0033",
					"opcodes": "PUSH1 0x80 PUSH1 0x40 MSTORE CALLVALUE DUP1 ISZERO PUSH2 0x10 JUMPI PUSH1 0x0 DUP1 REVERT JUMPDEST POP PUSH1 0xC9 DUP1 PUSH2 0x1F PUSH1 0x0 CODECOPY PUSH1 0x0 RETURN INVALID PUSH1 0x80 PUSH1 0x40 MSTORE CALLVALUE DUP1 ISZERO PUSH1 0xF JUMPI PUSH1 0x0 DUP1 REVERT JUMPDEST POP PUSH1 0x4 CALLDATASIZE LT PUSH1 0x28 JUMPI PUSH1 0x0 CALLDATALOAD PUSH1 0xE0 SHR DUP1 PUSH4 0x569D4BA6 EQ PUSH1 0x2D JUMPI JUMPDEST PUSH1 0x0 DUP1 REVERT JUMPDEST PUSH1 0x33 PUSH1 0x47 JUMP JUMPDEST PUSH1 0x40 MLOAD PUSH1 0x3E SWAP2 SWAP1 PUSH1 0x7A JUMP JUMPDEST PUSH1 0x40 MLOAD DUP1 SWAP2 SUB SWAP1 RETURN JUMPDEST PUSH1 0x0 DUP1 PUSH1 0x14 SWAP1 POP PUSH1 0x0 PUSH1 0x1E SWAP1 POP DUP1 SWAP2 POP PUSH1 0x3C SWAP1 POP DUP2 SWAP3 POP POP POP SWAP1 JUMP JUMPDEST PUSH1 0x0 DUP2 SWAP1 POP SWAP2 SWAP1 POP JUMP JUMPDEST PUSH1 0x74 DUP2 PUSH1 0x63 JUMP JUMPDEST DUP3 MSTORE POP POP JUMP JUMPDEST PUSH1 0x0 PUSH1 0x20 DUP3 ADD SWAP1 POP PUSH1 0x8D PUSH1 0x0 DUP4 ADD DUP5 PUSH1 0x6D JUMP JUMPDEST SWAP3 SWAP2 POP POP JUMP INVALID LOG2 PUSH5 0x6970667358 0x22 SLT KECCAK256 0xE5 0xCD DIV 0xDE CODESIZE PUSH12 0xF6311326DB1E9012CE5556AC DUP6 MUL 0xB6 JUMPI 0xBC DUP9 0x1E 0xD8 0x23 ADDMOD SWAP12 MOD 0xAC SWAP3 PUSH5 0x736F6C6343 STOP ADDMOD 0xF STOP CALLER "
				},
				"gasEstimates": {
					"creation": {
						"codeDepositCost": "40200",
						"executionCost": "93",
						"totalCost": "40293"
					},
					"external": {
						"assignment7()": "357"
					}
				},
				"methodIdentifiers": {
					"assignment7()": "569d4ba6"
				}
			},
			"storageLayout": {
				"storage": [],
				"types": null
			},
			"userdoc": {
				"kind": "user",
				"methods": {},
				"version": 1
			}
		}
	}
}