{
	"mappingprac.sol": {
		"Mapping_example": {
			"abi": [
				{
					"inputs": [
						{
							"internalType": "uint256",
							"name": "id",
							"type": "uint256"
						},
						{
							"internalType": "string",
							"name": "Name",
							"type": "string"
						},
						{
							"internalType": "uint256",
							"name": "rollnum",
							"type": "uint256"
						},
						{
							"internalType": "string",
							"name": "section",
							"type": "string"
						},
						{
							"internalType": "string",
							"name": "subject",
							"type": "string"
						},
						{
							"internalType": "uint256",
							"name": "year",
							"type": "uint256"
						}
					],
					"name": "set",
					"outputs": [],
					"stateMutability": "nonpayable",
					"type": "function"
				}
			],
			"devdoc": {
				"kind": "dev",
				"methods": {},
				"version": 1
			},
			"evm": {
				"assembly": "    /* \"mappingprac.sol\":66:433  contract Mapping_example{\r... */\n  mstore(0x40, 0x80)\n  callvalue\n  dup1\n  iszero\n  tag_1\n  jumpi\n  0x00\n  dup1\n  revert\ntag_1:\n  pop\n  dataSize(sub_0)\n  dup1\n  dataOffset(sub_0)\n  0x00\n  codecopy\n  0x00\n  return\nstop\n\nsub_0: assembly {\n        /* \"mappingprac.sol\":66:433  contract Mapping_example{\r... */\n      mstore(0x40, 0x80)\n      callvalue\n      dup1\n      iszero\n      tag_1\n      jumpi\n      0x00\n      dup1\n      revert\n    tag_1:\n      pop\n      jumpi(tag_2, lt(calldatasize, 0x04))\n      shr(0xe0, calldataload(0x00))\n      dup1\n      0x7a6ac709\n      eq\n      tag_3\n      jumpi\n    tag_2:\n      0x00\n      dup1\n      revert\n        /* \"mappingprac.sol\":292:430  function set( uint id, string memory Name, uint rollnum, string memory section, string memory subject, uint year) public{\r... */\n    tag_3:\n      tag_4\n      0x04\n      dup1\n      calldatasize\n      sub\n      dup2\n      add\n      swap1\n      tag_5\n      swap2\n      swap1\n      tag_6\n      jump\t// in\n    tag_5:\n      tag_7\n      jump\t// in\n    tag_4:\n      stop\n    tag_7:\n      pop\n      pop\n      pop\n      pop\n      pop\n      pop\n      jump\t// out\n        /* \"#utility.yul\":7:419   */\n    tag_10:\n        /* \"#utility.yul\":85:90   */\n      0x00\n        /* \"#utility.yul\":110:176   */\n      tag_12\n        /* \"#utility.yul\":126:175   */\n      tag_13\n        /* \"#utility.yul\":168:174   */\n      dup5\n        /* \"#utility.yul\":126:175   */\n      tag_14\n      jump\t// in\n    tag_13:\n        /* \"#utility.yul\":110:176   */\n      tag_15\n      jump\t// in\n    tag_12:\n        /* \"#utility.yul\":101:176   */\n      swap1\n      pop\n        /* \"#utility.yul\":199:205   */\n      dup3\n        /* \"#utility.yul\":192:197   */\n      dup2\n        /* \"#utility.yul\":185:206   */\n      mstore\n        /* \"#utility.yul\":237:241   */\n      0x20\n        /* \"#utility.yul\":230:235   */\n      dup2\n        /* \"#utility.yul\":226:242   */\n      add\n        /* \"#utility.yul\":275:278   */\n      dup5\n        /* \"#utility.yul\":266:272   */\n      dup5\n        /* \"#utility.yul\":261:264   */\n      dup5\n        /* \"#utility.yul\":257:273   */\n      add\n        /* \"#utility.yul\":254:279   */\n      gt\n        /* \"#utility.yul\":251:363   */\n      iszero\n      tag_16\n      jumpi\n        /* \"#utility.yul\":282:361   */\n      tag_17\n      tag_18\n      jump\t// in\n    tag_17:\n        /* \"#utility.yul\":251:363   */\n    tag_16:\n        /* \"#utility.yul\":372:413   */\n      tag_19\n        /* \"#utility.yul\":406:412   */\n      dup5\n        /* \"#utility.yul\":401:404   */\n      dup3\n        /* \"#utility.yul\":396:399   */\n      dup6\n        /* \"#utility.yul\":372:413   */\n      tag_20\n      jump\t// in\n    tag_19:\n        /* \"#utility.yul\":91:419   */\n      pop\n        /* \"#utility.yul\":7:419   */\n      swap4\n      swap3\n      pop\n      pop\n      pop\n      jump\t// out\n        /* \"#utility.yul\":439:779   */\n    tag_21:\n        /* \"#utility.yul\":495:500   */\n      0x00\n        /* \"#utility.yul\":544:547   */\n      dup3\n        /* \"#utility.yul\":537:541   */\n      0x1f\n        /* \"#utility.yul\":529:535   */\n      dup4\n        /* \"#utility.yul\":525:542   */\n      add\n        /* \"#utility.yul\":521:548   */\n      slt\n        /* \"#utility.yul\":511:633   */\n      tag_23\n      jumpi\n        /* \"#utility.yul\":552:631   */\n      tag_24\n      tag_25\n      jump\t// in\n    tag_24:\n        /* \"#utility.yul\":511:633   */\n    tag_23:\n        /* \"#utility.yul\":669:675   */\n      dup2\n        /* \"#utility.yul\":656:676   */\n      calldataload\n        /* \"#utility.yul\":694:773   */\n      tag_26\n        /* \"#utility.yul\":769:772   */\n      dup5\n        /* \"#utility.yul\":761:767   */\n      dup3\n        /* \"#utility.yul\":754:758   */\n      0x20\n        /* \"#utility.yul\":746:752   */\n      dup7\n        /* \"#utility.yul\":742:759   */\n      add\n        /* \"#utility.yul\":694:773   */\n      tag_10\n      jump\t// in\n    tag_26:\n        /* \"#utility.yul\":685:773   */\n      swap2\n      pop\n        /* \"#utility.yul\":501:779   */\n      pop\n        /* \"#utility.yul\":439:779   */\n      swap3\n      swap2\n      pop\n      pop\n      jump\t// out\n        /* \"#utility.yul\":785:924   */\n    tag_27:\n        /* \"#utility.yul\":831:836   */\n      0x00\n        /* \"#utility.yul\":869:875   */\n      dup2\n        /* \"#utility.yul\":856:876   */\n      calldataload\n        /* \"#utility.yul\":847:876   */\n      swap1\n      pop\n        /* \"#utility.yul\":885:918   */\n      tag_29\n        /* \"#utility.yul\":912:917   */\n      dup2\n        /* \"#utility.yul\":885:918   */\n      tag_30\n      jump\t// in\n    tag_29:\n        /* \"#utility.yul\":785:924   */\n      swap3\n      swap2\n      pop\n      pop\n      jump\t// out\n        /* \"#utility.yul\":930:2527   */\n    tag_6:\n        /* \"#utility.yul\":1064:1070   */\n      0x00\n        /* \"#utility.yul\":1072:1078   */\n      dup1\n        /* \"#utility.yul\":1080:1086   */\n      0x00\n        /* \"#utility.yul\":1088:1094   */\n      dup1\n        /* \"#utility.yul\":1096:1102   */\n      0x00\n        /* \"#utility.yul\":1104:1110   */\n      dup1\n        /* \"#utility.yul\":1153:1156   */\n      0xc0\n        /* \"#utility.yul\":1141:1150   */\n      dup8\n        /* \"#utility.yul\":1132:1139   */\n      dup10\n        /* \"#utility.yul\":1128:1151   */\n      sub\n        /* \"#utility.yul\":1124:1157   */\n      slt\n        /* \"#utility.yul\":1121:1241   */\n      iszero\n      tag_32\n      jumpi\n        /* \"#utility.yul\":1160:1239   */\n      tag_33\n      tag_34\n      jump\t// in\n    tag_33:\n        /* \"#utility.yul\":1121:1241   */\n    tag_32:\n        /* \"#utility.yul\":1280:1281   */\n      0x00\n        /* \"#utility.yul\":1305:1358   */\n      tag_35\n        /* \"#utility.yul\":1350:1357   */\n      dup10\n        /* \"#utility.yul\":1341:1347   */\n      dup3\n        /* \"#utility.yul\":1330:1339   */\n      dup11\n        /* \"#utility.yul\":1326:1348   */\n      add\n        /* \"#utility.yul\":1305:1358   */\n      tag_27\n      jump\t// in\n    tag_35:\n        /* \"#utility.yul\":1295:1358   */\n      swap7\n      pop\n        /* \"#utility.yul\":1251:1368   */\n      pop\n        /* \"#utility.yul\":1435:1437   */\n      0x20\n        /* \"#utility.yul\":1424:1433   */\n      dup8\n        /* \"#utility.yul\":1420:1438   */\n      add\n        /* \"#utility.yul\":1407:1439   */\n      calldataload\n        /* \"#utility.yul\":1466:1484   */\n      0xffffffffffffffff\n        /* \"#utility.yul\":1458:1464   */\n      dup2\n        /* \"#utility.yul\":1455:1485   */\n      gt\n        /* \"#utility.yul\":1452:1569   */\n      iszero\n      tag_36\n      jumpi\n        /* \"#utility.yul\":1488:1567   */\n      tag_37\n      tag_38\n      jump\t// in\n    tag_37:\n        /* \"#utility.yul\":1452:1569   */\n    tag_36:\n        /* \"#utility.yul\":1593:1656   */\n      tag_39\n        /* \"#utility.yul\":1648:1655   */\n      dup10\n        /* \"#utility.yul\":1639:1645   */\n      dup3\n        /* \"#utility.yul\":1628:1637   */\n      dup11\n        /* \"#utility.yul\":1624:1646   */\n      add\n        /* \"#utility.yul\":1593:1656   */\n      tag_21\n      jump\t// in\n    tag_39:\n        /* \"#utility.yul\":1583:1656   */\n      swap6\n      pop\n        /* \"#utility.yul\":1378:1666   */\n      pop\n        /* \"#utility.yul\":1705:1707   */\n      0x40\n        /* \"#utility.yul\":1731:1784   */\n      tag_40\n        /* \"#utility.yul\":1776:1783   */\n      dup10\n        /* \"#utility.yul\":1767:1773   */\n      dup3\n        /* \"#utility.yul\":1756:1765   */\n      dup11\n        /* \"#utility.yul\":1752:1774   */\n      add\n        /* \"#utility.yul\":1731:1784   */\n      tag_27\n      jump\t// in\n    tag_40:\n        /* \"#utility.yul\":1721:1784   */\n      swap5\n      pop\n        /* \"#utility.yul\":1676:1794   */\n      pop\n        /* \"#utility.yul\":1861:1863   */\n      0x60\n        /* \"#utility.yul\":1850:1859   */\n      dup8\n        /* \"#utility.yul\":1846:1864   */\n      add\n        /* \"#utility.yul\":1833:1865   */\n      calldataload\n        /* \"#utility.yul\":1892:1910   */\n      0xffffffffffffffff\n        /* \"#utility.yul\":1884:1890   */\n      dup2\n        /* \"#utility.yul\":1881:1911   */\n      gt\n        /* \"#utility.yul\":1878:1995   */\n      iszero\n      tag_41\n      jumpi\n        /* \"#utility.yul\":1914:1993   */\n      tag_42\n      tag_38\n      jump\t// in\n    tag_42:\n        /* \"#utility.yul\":1878:1995   */\n    tag_41:\n        /* \"#utility.yul\":2019:2082   */\n      tag_43\n        /* \"#utility.yul\":2074:2081   */\n      dup10\n        /* \"#utility.yul\":2065:2071   */\n      dup3\n        /* \"#utility.yul\":2054:2063   */\n      dup11\n        /* \"#utility.yul\":2050:2072   */\n      add\n        /* \"#utility.yul\":2019:2082   */\n      tag_21\n      jump\t// in\n    tag_43:\n        /* \"#utility.yul\":2009:2082   */\n      swap4\n      pop\n        /* \"#utility.yul\":1804:2092   */\n      pop\n        /* \"#utility.yul\":2159:2162   */\n      0x80\n        /* \"#utility.yul\":2148:2157   */\n      dup8\n        /* \"#utility.yul\":2144:2163   */\n      add\n        /* \"#utility.yul\":2131:2164   */\n      calldataload\n        /* \"#utility.yul\":2191:2209   */\n      0xffffffffffffffff\n        /* \"#utility.yul\":2183:2189   */\n      dup2\n        /* \"#utility.yul\":2180:2210   */\n      gt\n        /* \"#utility.yul\":2177:2294   */\n      iszero\n      tag_44\n      jumpi\n        /* \"#utility.yul\":2213:2292   */\n      tag_45\n      tag_38\n      jump\t// in\n    tag_45:\n        /* \"#utility.yul\":2177:2294   */\n    tag_44:\n        /* \"#utility.yul\":2318:2381   */\n      tag_46\n        /* \"#utility.yul\":2373:2380   */\n      dup10\n        /* \"#utility.yul\":2364:2370   */\n      dup3\n        /* \"#utility.yul\":2353:2362   */\n      dup11\n        /* \"#utility.yul\":2349:2371   */\n      add\n        /* \"#utility.yul\":2318:2381   */\n      tag_21\n      jump\t// in\n    tag_46:\n        /* \"#utility.yul\":2308:2381   */\n      swap3\n      pop\n        /* \"#utility.yul\":2102:2391   */\n      pop\n        /* \"#utility.yul\":2430:2433   */\n      0xa0\n        /* \"#utility.yul\":2457:2510   */\n      tag_47\n        /* \"#utility.yul\":2502:2509   */\n      dup10\n        /* \"#utility.yul\":2493:2499   */\n      dup3\n        /* \"#utility.yul\":2482:2491   */\n      dup11\n        /* \"#utility.yul\":2478:2500   */\n      add\n        /* \"#utility.yul\":2457:2510   */\n      tag_27\n      jump\t// in\n    tag_47:\n        /* \"#utility.yul\":2447:2510   */\n      swap2\n      pop\n        /* \"#utility.yul\":2401:2520   */\n      pop\n        /* \"#utility.yul\":930:2527   */\n      swap3\n      swap6\n      pop\n      swap3\n      swap6\n      pop\n      swap3\n      swap6\n      jump\t// out\n        /* \"#utility.yul\":2533:2662   */\n    tag_15:\n        /* \"#utility.yul\":2567:2573   */\n      0x00\n        /* \"#utility.yul\":2594:2614   */\n      tag_49\n      tag_50\n      jump\t// in\n    tag_49:\n        /* \"#utility.yul\":2584:2614   */\n      swap1\n      pop\n        /* \"#utility.yul\":2623:2656   */\n      tag_51\n        /* \"#utility.yul\":2651:2655   */\n      dup3\n        /* \"#utility.yul\":2643:2649   */\n      dup3\n        /* \"#utility.yul\":2623:2656   */\n      tag_52\n      jump\t// in\n    tag_51:\n        /* \"#utility.yul\":2533:2662   */\n      swap2\n      swap1\n      pop\n      jump\t// out\n        /* \"#utility.yul\":2668:2743   */\n    tag_50:\n        /* \"#utility.yul\":2701:2707   */\n      0x00\n        /* \"#utility.yul\":2734:2736   */\n      0x40\n        /* \"#utility.yul\":2728:2737   */\n      mload\n        /* \"#utility.yul\":2718:2737   */\n      swap1\n      pop\n        /* \"#utility.yul\":2668:2743   */\n      swap1\n      jump\t// out\n        /* \"#utility.yul\":2749:3057   */\n    tag_14:\n        /* \"#utility.yul\":2811:2815   */\n      0x00\n        /* \"#utility.yul\":2901:2919   */\n      0xffffffffffffffff\n        /* \"#utility.yul\":2893:2899   */\n      dup3\n        /* \"#utility.yul\":2890:2920   */\n      gt\n        /* \"#utility.yul\":2887:2943   */\n      iszero\n      tag_55\n      jumpi\n        /* \"#utility.yul\":2923:2941   */\n      tag_56\n      tag_57\n      jump\t// in\n    tag_56:\n        /* \"#utility.yul\":2887:2943   */\n    tag_55:\n        /* \"#utility.yul\":2961:2990   */\n      tag_58\n        /* \"#utility.yul\":2983:2989   */\n      dup3\n        /* \"#utility.yul\":2961:2990   */\n      tag_59\n      jump\t// in\n    tag_58:\n        /* \"#utility.yul\":2953:2990   */\n      swap1\n      pop\n        /* \"#utility.yul\":3045:3049   */\n      0x20\n        /* \"#utility.yul\":3039:3043   */\n      dup2\n        /* \"#utility.yul\":3035:3050   */\n      add\n        /* \"#utility.yul\":3027:3050   */\n      swap1\n      pop\n        /* \"#utility.yul\":2749:3057   */\n      swap2\n      swap1\n      pop\n      jump\t// out\n        /* \"#utility.yul\":3063:3140   */\n    tag_60:\n        /* \"#utility.yul\":3100:3107   */\n      0x00\n        /* \"#utility.yul\":3129:3134   */\n      dup2\n        /* \"#utility.yul\":3118:3134   */\n      swap1\n      pop\n        /* \"#utility.yul\":3063:3140   */\n      swap2\n      swap1\n      pop\n      jump\t// out\n        /* \"#utility.yul\":3146:3300   */\n    tag_20:\n        /* \"#utility.yul\":3230:3236   */\n      dup3\n        /* \"#utility.yul\":3225:3228   */\n      dup2\n        /* \"#utility.yul\":3220:3223   */\n      dup4\n        /* \"#utility.yul\":3207:3237   */\n      calldatacopy\n        /* \"#utility.yul\":3292:3293   */\n      0x00\n        /* \"#utility.yul\":3283:3289   */\n      dup4\n        /* \"#utility.yul\":3278:3281   */\n      dup4\n        /* \"#utility.yul\":3274:3290   */\n      add\n        /* \"#utility.yul\":3267:3294   */\n      mstore\n        /* \"#utility.yul\":3146:3300   */\n      pop\n      pop\n      pop\n      jump\t// out\n        /* \"#utility.yul\":3306:3587   */\n    tag_52:\n        /* \"#utility.yul\":3389:3416   */\n      tag_64\n        /* \"#utility.yul\":3411:3415   */\n      dup3\n        /* \"#utility.yul\":3389:3416   */\n      tag_59\n      jump\t// in\n    tag_64:\n        /* \"#utility.yul\":3381:3387   */\n      dup2\n        /* \"#utility.yul\":3377:3417   */\n      add\n        /* \"#utility.yul\":3519:3525   */\n      dup2\n        /* \"#utility.yul\":3507:3517   */\n      dup2\n        /* \"#utility.yul\":3504:3526   */\n      lt\n        /* \"#utility.yul\":3483:3501   */\n      0xffffffffffffffff\n        /* \"#utility.yul\":3471:3481   */\n      dup3\n        /* \"#utility.yul\":3468:3502   */\n      gt\n        /* \"#utility.yul\":3465:3527   */\n      or\n        /* \"#utility.yul\":3462:3550   */\n      iszero\n      tag_65\n      jumpi\n        /* \"#utility.yul\":3530:3548   */\n      tag_66\n      tag_57\n      jump\t// in\n    tag_66:\n        /* \"#utility.yul\":3462:3550   */\n    tag_65:\n        /* \"#utility.yul\":3570:3580   */\n      dup1\n        /* \"#utility.yul\":3566:3568   */\n      0x40\n        /* \"#utility.yul\":3559:3581   */\n      mstore\n        /* \"#utility.yul\":3349:3587   */\n      pop\n        /* \"#utility.yul\":3306:3587   */\n      pop\n      pop\n      jump\t// out\n        /* \"#utility.yul\":3593:3773   */\n    tag_57:\n        /* \"#utility.yul\":3641:3718   */\n      0x4e487b7100000000000000000000000000000000000000000000000000000000\n        /* \"#utility.yul\":3638:3639   */\n      0x00\n        /* \"#utility.yul\":3631:3719   */\n      mstore\n        /* \"#utility.yul\":3738:3742   */\n      0x41\n        /* \"#utility.yul\":3735:3736   */\n      0x04\n        /* \"#utility.yul\":3728:3743   */\n      mstore\n        /* \"#utility.yul\":3762:3766   */\n      0x24\n        /* \"#utility.yul\":3759:3760   */\n      0x00\n        /* \"#utility.yul\":3752:3767   */\n      revert\n        /* \"#utility.yul\":3779:3896   */\n    tag_25:\n        /* \"#utility.yul\":3888:3889   */\n      0x00\n        /* \"#utility.yul\":3885:3886   */\n      dup1\n        /* \"#utility.yul\":3878:3890   */\n      revert\n        /* \"#utility.yul\":3902:4019   */\n    tag_18:\n        /* \"#utility.yul\":4011:4012   */\n      0x00\n        /* \"#utility.yul\":4008:4009   */\n      dup1\n        /* \"#utility.yul\":4001:4013   */\n      revert\n        /* \"#utility.yul\":4025:4142   */\n    tag_38:\n        /* \"#utility.yul\":4134:4135   */\n      0x00\n        /* \"#utility.yul\":4131:4132   */\n      dup1\n        /* \"#utility.yul\":4124:4136   */\n      revert\n        /* \"#utility.yul\":4148:4265   */\n    tag_34:\n        /* \"#utility.yul\":4257:4258   */\n      0x00\n        /* \"#utility.yul\":4254:4255   */\n      dup1\n        /* \"#utility.yul\":4247:4259   */\n      revert\n        /* \"#utility.yul\":4271:4373   */\n    tag_59:\n        /* \"#utility.yul\":4312:4318   */\n      0x00\n        /* \"#utility.yul\":4363:4365   */\n      0x1f\n        /* \"#utility.yul\":4359:4366   */\n      not\n        /* \"#utility.yul\":4354:4356   */\n      0x1f\n        /* \"#utility.yul\":4347:4352   */\n      dup4\n        /* \"#utility.yul\":4343:4357   */\n      add\n        /* \"#utility.yul\":4339:4367   */\n      and\n        /* \"#utility.yul\":4329:4367   */\n      swap1\n      pop\n        /* \"#utility.yul\":4271:4373   */\n      swap2\n      swap1\n      pop\n      jump\t// out\n        /* \"#utility.yul\":4379:4501   */\n    tag_30:\n        /* \"#utility.yul\":4452:4476   */\n      tag_74\n        /* \"#utility.yul\":4470:4475   */\n      dup2\n        /* \"#utility.yul\":4452:4476   */\n      tag_60\n      jump\t// in\n    tag_74:\n        /* \"#utility.yul\":4445:4450   */\n      dup2\n        /* \"#utility.yul\":4442:4477   */\n      eq\n        /* \"#utility.yul\":4432:4495   */\n      tag_75\n      jumpi\n        /* \"#utility.yul\":4491:4492   */\n      0x00\n        /* \"#utility.yul\":4488:4489   */\n      dup1\n        /* \"#utility.yul\":4481:4493   */\n      revert\n        /* \"#utility.yul\":4432:4495   */\n    tag_75:\n        /* \"#utility.yul\":4379:4501   */\n      pop\n      jump\t// out\n\n    auxdata: 0xa2646970667358221220f66c980e1a1305413973226ede9c1f7a47d83a37b79d233250455b9f05afbaf264736f6c63430008070033\n}\n",
				"bytecode": {
					"linkReferences": {},
					"object": "608060405234801561001057600080fd5b506102fb806100206000396000f3fe608060405234801561001057600080fd5b506004361061002b5760003560e01c80637a6ac70914610030575b600080fd5b61004a600480360381019061004591906100d9565b61004c565b005b505050505050565b6000610067610062846101df565b6101ba565b9050828152602081018484840111156100835761008261028e565b5b61008e84828561021a565b509392505050565b600082601f8301126100ab576100aa610289565b5b81356100bb848260208601610054565b91505092915050565b6000813590506100d3816102ae565b92915050565b60008060008060008060c087890312156100f6576100f5610298565b5b600061010489828a016100c4565b965050602087013567ffffffffffffffff81111561012557610124610293565b5b61013189828a01610096565b955050604061014289828a016100c4565b945050606087013567ffffffffffffffff81111561016357610162610293565b5b61016f89828a01610096565b935050608087013567ffffffffffffffff8111156101905761018f610293565b5b61019c89828a01610096565b92505060a06101ad89828a016100c4565b9150509295509295509295565b60006101c46101d5565b90506101d08282610229565b919050565b6000604051905090565b600067ffffffffffffffff8211156101fa576101f961025a565b5b6102038261029d565b9050602081019050919050565b6000819050919050565b82818337600083830152505050565b6102328261029d565b810181811067ffffffffffffffff821117156102515761025061025a565b5b80604052505050565b7f4e487b7100000000000000000000000000000000000000000000000000000000600052604160045260246000fd5b600080fd5b600080fd5b600080fd5b600080fd5b6000601f19601f8301169050919050565b6102b781610210565b81146102c257600080fd5b5056fea2646970667358221220f66c980e1a1305413973226ede9c1f7a47d83a37b79d233250455b9f05afbaf264736f6c63430008070033",
					"opcodes": "PUSH1 0x80 PUSH1 0x40 MSTORE CALLVALUE DUP1 ISZERO PUSH2 0x10 JUMPI PUSH1 0x0 DUP1 REVERT JUMPDEST POP PUSH2 0x2FB DUP1 PUSH2 0x20 PUSH1 0x0 CODECOPY PUSH1 0x0 RETURN INVALID PUSH1 0x80 PUSH1 0x40 MSTORE CALLVALUE DUP1 ISZERO PUSH2 0x10 JUMPI PUSH1 0x0 DUP1 REVERT JUMPDEST POP PUSH1 0x4 CALLDATASIZE LT PUSH2 0x2B JUMPI PUSH1 0x0 CALLDATALOAD PUSH1 0xE0 SHR DUP1 PUSH4 0x7A6AC709 EQ PUSH2 0x30 JUMPI JUMPDEST PUSH1 0x0 DUP1 REVERT JUMPDEST PUSH2 0x4A PUSH1 0x4 DUP1 CALLDATASIZE SUB DUP2 ADD SWAP1 PUSH2 0x45 SWAP2 SWAP1 PUSH2 0xD9 JUMP JUMPDEST PUSH2 0x4C JUMP JUMPDEST STOP JUMPDEST POP POP POP POP POP POP JUMP JUMPDEST PUSH1 0x0 PUSH2 0x67 PUSH2 0x62 DUP5 PUSH2 0x1DF JUMP JUMPDEST PUSH2 0x1BA JUMP JUMPDEST SWAP1 POP DUP3 DUP2 MSTORE PUSH1 0x20 DUP2 ADD DUP5 DUP5 DUP5 ADD GT ISZERO PUSH2 0x83 JUMPI PUSH2 0x82 PUSH2 0x28E JUMP JUMPDEST JUMPDEST PUSH2 0x8E DUP5 DUP3 DUP6 PUSH2 0x21A JUMP JUMPDEST POP SWAP4 SWAP3 POP POP POP JUMP JUMPDEST PUSH1 0x0 DUP3 PUSH1 0x1F DUP4 ADD SLT PUSH2 0xAB JUMPI PUSH2 0xAA PUSH2 0x289 JUMP JUMPDEST JUMPDEST DUP2 CALLDATALOAD PUSH2 0xBB DUP5 DUP3 PUSH1 0x20 DUP7 ADD PUSH2 0x54 JUMP JUMPDEST SWAP2 POP POP SWAP3 SWAP2 POP POP JUMP JUMPDEST PUSH1 0x0 DUP2 CALLDATALOAD SWAP1 POP PUSH2 0xD3 DUP2 PUSH2 0x2AE JUMP JUMPDEST SWAP3 SWAP2 POP POP JUMP JUMPDEST PUSH1 0x0 DUP1 PUSH1 0x0 DUP1 PUSH1 0x0 DUP1 PUSH1 0xC0 DUP8 DUP10 SUB SLT ISZERO PUSH2 0xF6 JUMPI PUSH2 0xF5 PUSH2 0x298 JUMP JUMPDEST JUMPDEST PUSH1 0x0 PUSH2 0x104 DUP10 DUP3 DUP11 ADD PUSH2 0xC4 JUMP JUMPDEST SWAP7 POP POP PUSH1 0x20 DUP8 ADD CALLDATALOAD PUSH8 0xFFFFFFFFFFFFFFFF DUP2 GT ISZERO PUSH2 0x125 JUMPI PUSH2 0x124 PUSH2 0x293 JUMP JUMPDEST JUMPDEST PUSH2 0x131 DUP10 DUP3 DUP11 ADD PUSH2 0x96 JUMP JUMPDEST SWAP6 POP POP PUSH1 0x40 PUSH2 0x142 DUP10 DUP3 DUP11 ADD PUSH2 0xC4 JUMP JUMPDEST SWAP5 POP POP PUSH1 0x60 DUP8 ADD CALLDATALOAD PUSH8 0xFFFFFFFFFFFFFFFF DUP2 GT ISZERO PUSH2 0x163 JUMPI PUSH2 0x162 PUSH2 0x293 JUMP JUMPDEST JUMPDEST PUSH2 0x16F DUP10 DUP3 DUP11 ADD PUSH2 0x96 JUMP JUMPDEST SWAP4 POP POP PUSH1 0x80 DUP8 ADD CALLDATALOAD PUSH8 0xFFFFFFFFFFFFFFFF DUP2 GT ISZERO PUSH2 0x190 JUMPI PUSH2 0x18F PUSH2 0x293 JUMP JUMPDEST JUMPDEST PUSH2 0x19C DUP10 DUP3 DUP11 ADD PUSH2 0x96 JUMP JUMPDEST SWAP3 POP POP PUSH1 0xA0 PUSH2 0x1AD DUP10 DUP3 DUP11 ADD PUSH2 0xC4 JUMP JUMPDEST SWAP2 POP POP SWAP3 SWAP6 POP SWAP3 SWAP6 POP SWAP3 SWAP6 JUMP JUMPDEST PUSH1 0x0 PUSH2 0x1C4 PUSH2 0x1D5 JUMP JUMPDEST SWAP1 POP PUSH2 0x1D0 DUP3 DUP3 PUSH2 0x229 JUMP JUMPDEST SWAP2 SWAP1 POP JUMP JUMPDEST PUSH1 0x0 PUSH1 0x40 MLOAD SWAP1 POP SWAP1 JUMP JUMPDEST PUSH1 0x0 PUSH8 0xFFFFFFFFFFFFFFFF DUP3 GT ISZERO PUSH2 0x1FA JUMPI PUSH2 0x1F9 PUSH2 0x25A JUMP JUMPDEST JUMPDEST PUSH2 0x203 DUP3 PUSH2 0x29D JUMP JUMPDEST SWAP1 POP PUSH1 0x20 DUP2 ADD SWAP1 POP SWAP2 SWAP1 POP JUMP JUMPDEST PUSH1 0x0 DUP2 SWAP1 POP SWAP2 SWAP1 POP JUMP JUMPDEST DUP3 DUP2 DUP4 CALLDATACOPY PUSH1 0x0 DUP4 DUP4 ADD MSTORE POP POP POP JUMP JUMPDEST PUSH2 0x232 DUP3 PUSH2 0x29D JUMP JUMPDEST DUP2 ADD DUP2 DUP2 LT PUSH8 0xFFFFFFFFFFFFFFFF DUP3 GT OR ISZERO PUSH2 0x251 JUMPI PUSH2 0x250 PUSH2 0x25A JUMP JUMPDEST JUMPDEST DUP1 PUSH1 0x40 MSTORE POP POP POP JUMP JUMPDEST PUSH32 0x4E487B7100000000000000000000000000000000000000000000000000000000 PUSH1 0x0 MSTORE PUSH1 0x41 PUSH1 0x4 MSTORE PUSH1 0x24 PUSH1 0x0 REVERT JUMPDEST PUSH1 0x0 DUP1 REVERT JUMPDEST PUSH1 0x0 DUP1 REVERT JUMPDEST PUSH1 0x0 DUP1 REVERT JUMPDEST PUSH1 0x0 DUP1 REVERT JUMPDEST PUSH1 0x0 PUSH1 0x1F NOT PUSH1 0x1F DUP4 ADD AND SWAP1 POP SWAP2 SWAP1 POP JUMP JUMPDEST PUSH2 0x2B7 DUP2 PUSH2 0x210 JUMP JUMPDEST DUP2 EQ PUSH2 0x2C2 JUMPI PUSH1 0x0 DUP1 REVERT JUMPDEST POP JUMP INVALID LOG2 PUSH5 0x6970667358 0x22 SLT KECCAK256 0xF6 PUSH13 0x980E1A1305413973226EDE9C1F PUSH27 0x47D83A37B79D233250455B9F05AFBAF264736F6C63430008070033 "
				},
				"gasEstimates": {
					"creation": {
						"codeDepositCost": "152600",
						"executionCost": "196",
						"totalCost": "152796"
					},
					"external": {
						"set(uint256,string,uint256,string,string,uint256)": "infinite"
					}
				},
				"methodIdentifiers": {
					"set(uint256,string,uint256,string,string,uint256)": "7a6ac709"
				}
			},
			"storageLayout": {
				"storage": [
					{
						"astId": 17,
						"contract": "mappingprac.sol:Mapping_example",
						"label": "details",
						"offset": 0,
						"slot": "0",
						"type": "t_mapping(t_uint256,t_struct(student)12_storage)"
					}
				],
				"types": {
					"t_mapping(t_uint256,t_struct(student)12_storage)": {
						"encoding": "mapping",
						"key": "t_uint256",
						"label": "mapping(uint256 => struct Mapping_example.student)",
						"numberOfBytes": "32",
						"value": "t_struct(student)12_storage"
					},
					"t_string_storage": {
						"encoding": "bytes",
						"label": "string",
						"numberOfBytes": "32"
					},
					"t_struct(student)12_storage": {
						"encoding": "inplace",
						"label": "struct Mapping_example.student",
						"members": [
							{
								"astId": 3,
								"contract": "mappingprac.sol:Mapping_example",
								"label": "Name",
								"offset": 0,
								"slot": "0",
								"type": "t_string_storage"
							},
							{
								"astId": 5,
								"contract": "mappingprac.sol:Mapping_example",
								"label": "rollnum",
								"offset": 0,
								"slot": "1",
								"type": "t_uint256"
							},
							{
								"astId": 7,
								"contract": "mappingprac.sol:Mapping_example",
								"label": "section",
								"offset": 0,
								"slot": "2",
								"type": "t_string_storage"
							},
							{
								"astId": 9,
								"contract": "mappingprac.sol:Mapping_example",
								"label": "subject",
								"offset": 0,
								"slot": "3",
								"type": "t_string_storage"
							},
							{
								"astId": 11,
								"contract": "mappingprac.sol:Mapping_example",
								"label": "year",
								"offset": 0,
								"slot": "4",
								"type": "t_uint256"
							}
						],
						"numberOfBytes": "160"
					},
					"t_uint256": {
						"encoding": "inplace",
						"label": "uint256",
						"numberOfBytes": "32"
					}
				}
			},
			"userdoc": {
				"kind": "user",
				"methods": {},
				"version": 1
			}
		}
	}
}