{
	"mappingprac.sol": {
		"Mapping_example": {
			"abi": [
				{
					"inputs": [
						{
							"internalType": "uint256",
							"name": "id",
							"type": "uint256"
						},
						{
							"internalType": "string",
							"name": "Name",
							"type": "string"
						},
						{
							"internalType": "uint256",
							"name": "rollnum",
							"type": "uint256"
						},
						{
							"internalType": "string",
							"name": "section",
							"type": "string"
						},
						{
							"internalType": "string",
							"name": "subject",
							"type": "string"
						},
						{
							"internalType": "uint256",
							"name": "year",
							"type": "uint256"
						}
					],
					"name": "set",
					"outputs": [],
					"stateMutability": "nonpayable",
					"type": "function"
				}
			],
			"devdoc": {
				"kind": "dev",
				"methods": {},
				"version": 1
			},
			"evm": {
				"assembly": "    /* \"mappingprac.sol\":66:491  contract Mapping_example{\r... */\n  mstore(0x40, 0x80)\n  callvalue\n  dup1\n  iszero\n  tag_1\n  jumpi\n  0x00\n  dup1\n  revert\ntag_1:\n  pop\n  dataSize(sub_0)\n  dup1\n  dataOffset(sub_0)\n  0x00\n  codecopy\n  0x00\n  return\nstop\n\nsub_0: assembly {\n        /* \"mappingprac.sol\":66:491  contract Mapping_example{\r... */\n      mstore(0x40, 0x80)\n      callvalue\n      dup1\n      iszero\n      tag_1\n      jumpi\n      0x00\n      dup1\n      revert\n    tag_1:\n      pop\n      jumpi(tag_2, lt(calldatasize, 0x04))\n      shr(0xe0, calldataload(0x00))\n      dup1\n      0x7a6ac709\n      eq\n      tag_3\n      jumpi\n    tag_2:\n      0x00\n      dup1\n      revert\n        /* \"mappingprac.sol\":292:488  function set( uint id, string memory Name, uint rollnum, string memory section, string memory subject, uint year) public{\r... */\n    tag_3:\n      tag_4\n      0x04\n      dup1\n      calldatasize\n      sub\n      dup2\n      add\n      swap1\n      tag_5\n      swap2\n      swap1\n      tag_6\n      jump\t// in\n    tag_5:\n      tag_7\n      jump\t// in\n    tag_4:\n      stop\n    tag_7:\n        /* \"mappingprac.sol\":438:480  student(Name,rollnum,section,subject,year) */\n      mload(0x40)\n      dup1\n      0xa0\n      add\n      0x40\n      mstore\n      dup1\n        /* \"mappingprac.sol\":446:450  Name */\n      dup7\n        /* \"mappingprac.sol\":438:480  student(Name,rollnum,section,subject,year) */\n      dup2\n      mstore\n      0x20\n      add\n        /* \"mappingprac.sol\":451:458  rollnum */\n      dup6\n        /* \"mappingprac.sol\":438:480  student(Name,rollnum,section,subject,year) */\n      dup2\n      mstore\n      0x20\n      add\n        /* \"mappingprac.sol\":459:466  section */\n      dup5\n        /* \"mappingprac.sol\":438:480  student(Name,rollnum,section,subject,year) */\n      dup2\n      mstore\n      0x20\n      add\n        /* \"mappingprac.sol\":467:474  subject */\n      dup4\n        /* \"mappingprac.sol\":438:480  student(Name,rollnum,section,subject,year) */\n      dup2\n      mstore\n      0x20\n      add\n        /* \"mappingprac.sol\":475:479  year */\n      dup3\n        /* \"mappingprac.sol\":438:480  student(Name,rollnum,section,subject,year) */\n      dup2\n      mstore\n      pop\n        /* \"mappingprac.sol\":425:432  details */\n      0x00\n        /* \"mappingprac.sol\":425:436  details[id] */\n      dup1\n        /* \"mappingprac.sol\":433:435  id */\n      dup9\n        /* \"mappingprac.sol\":425:436  details[id] */\n      dup2\n      mstore\n      0x20\n      add\n      swap1\n      dup2\n      mstore\n      0x20\n      add\n      0x00\n      keccak256\n        /* \"mappingprac.sol\":425:480  details[id]= student(Name,rollnum,section,subject,year) */\n      0x00\n      dup3\n      add\n      mload\n      dup2\n      0x00\n      add\n      swap1\n      dup1\n      mload\n      swap1\n      0x20\n      add\n      swap1\n      tag_9\n      swap3\n      swap2\n      swap1\n      tag_10\n      jump\t// in\n    tag_9:\n      pop\n      0x20\n      dup3\n      add\n      mload\n      dup2\n      0x01\n      add\n      sstore\n      0x40\n      dup3\n      add\n      mload\n      dup2\n      0x02\n      add\n      swap1\n      dup1\n      mload\n      swap1\n      0x20\n      add\n      swap1\n      tag_11\n      swap3\n      swap2\n      swap1\n      tag_10\n      jump\t// in\n    tag_11:\n      pop\n      0x60\n      dup3\n      add\n      mload\n      dup2\n      0x03\n      add\n      swap1\n      dup1\n      mload\n      swap1\n      0x20\n      add\n      swap1\n      tag_12\n      swap3\n      swap2\n      swap1\n      tag_10\n      jump\t// in\n    tag_12:\n      pop\n      0x80\n      dup3\n      add\n      mload\n      dup2\n      0x04\n      add\n      sstore\n      swap1\n      pop\n      pop\n        /* \"mappingprac.sol\":292:488  function set( uint id, string memory Name, uint rollnum, string memory section, string memory subject, uint year) public{\r... */\n      pop\n      pop\n      pop\n      pop\n      pop\n      pop\n      jump\t// out\n    tag_10:\n      dup3\n      dup1\n      sload\n      tag_13\n      swap1\n      tag_14\n      jump\t// in\n    tag_13:\n      swap1\n      0x00\n      mstore\n      keccak256(0x00, 0x20)\n      swap1\n      0x1f\n      add\n      0x20\n      swap1\n      div\n      dup2\n      add\n      swap3\n      dup3\n      tag_16\n      jumpi\n      0x00\n      dup6\n      sstore\n      jump(tag_15)\n    tag_16:\n      dup3\n      0x1f\n      lt\n      tag_17\n      jumpi\n      dup1\n      mload\n      not(0xff)\n      and\n      dup4\n      dup1\n      add\n      or\n      dup6\n      sstore\n      jump(tag_15)\n    tag_17:\n      dup3\n      dup1\n      add\n      0x01\n      add\n      dup6\n      sstore\n      dup3\n      iszero\n      tag_15\n      jumpi\n      swap2\n      dup3\n      add\n    tag_18:\n      dup3\n      dup2\n      gt\n      iszero\n      tag_19\n      jumpi\n      dup3\n      mload\n      dup3\n      sstore\n      swap2\n      0x20\n      add\n      swap2\n      swap1\n      0x01\n      add\n      swap1\n      jump(tag_18)\n    tag_19:\n    tag_15:\n      pop\n      swap1\n      pop\n      tag_20\n      swap2\n      swap1\n      tag_21\n      jump\t// in\n    tag_20:\n      pop\n      swap1\n      jump\t// out\n    tag_21:\n    tag_22:\n      dup1\n      dup3\n      gt\n      iszero\n      tag_23\n      jumpi\n      0x00\n      dup2\n      0x00\n      swap1\n      sstore\n      pop\n      0x01\n      add\n      jump(tag_22)\n    tag_23:\n      pop\n      swap1\n      jump\t// out\n        /* \"#utility.yul\":7:419   */\n    tag_25:\n        /* \"#utility.yul\":85:90   */\n      0x00\n        /* \"#utility.yul\":110:176   */\n      tag_27\n        /* \"#utility.yul\":126:175   */\n      tag_28\n        /* \"#utility.yul\":168:174   */\n      dup5\n        /* \"#utility.yul\":126:175   */\n      tag_29\n      jump\t// in\n    tag_28:\n        /* \"#utility.yul\":110:176   */\n      tag_30\n      jump\t// in\n    tag_27:\n        /* \"#utility.yul\":101:176   */\n      swap1\n      pop\n        /* \"#utility.yul\":199:205   */\n      dup3\n        /* \"#utility.yul\":192:197   */\n      dup2\n        /* \"#utility.yul\":185:206   */\n      mstore\n        /* \"#utility.yul\":237:241   */\n      0x20\n        /* \"#utility.yul\":230:235   */\n      dup2\n        /* \"#utility.yul\":226:242   */\n      add\n        /* \"#utility.yul\":275:278   */\n      dup5\n        /* \"#utility.yul\":266:272   */\n      dup5\n        /* \"#utility.yul\":261:264   */\n      dup5\n        /* \"#utility.yul\":257:273   */\n      add\n        /* \"#utility.yul\":254:279   */\n      gt\n        /* \"#utility.yul\":251:363   */\n      iszero\n      tag_31\n      jumpi\n        /* \"#utility.yul\":282:361   */\n      tag_32\n      tag_33\n      jump\t// in\n    tag_32:\n        /* \"#utility.yul\":251:363   */\n    tag_31:\n        /* \"#utility.yul\":372:413   */\n      tag_34\n        /* \"#utility.yul\":406:412   */\n      dup5\n        /* \"#utility.yul\":401:404   */\n      dup3\n        /* \"#utility.yul\":396:399   */\n      dup6\n        /* \"#utility.yul\":372:413   */\n      tag_35\n      jump\t// in\n    tag_34:\n        /* \"#utility.yul\":91:419   */\n      pop\n        /* \"#utility.yul\":7:419   */\n      swap4\n      swap3\n      pop\n      pop\n      pop\n      jump\t// out\n        /* \"#utility.yul\":439:779   */\n    tag_36:\n        /* \"#utility.yul\":495:500   */\n      0x00\n        /* \"#utility.yul\":544:547   */\n      dup3\n        /* \"#utility.yul\":537:541   */\n      0x1f\n        /* \"#utility.yul\":529:535   */\n      dup4\n        /* \"#utility.yul\":525:542   */\n      add\n        /* \"#utility.yul\":521:548   */\n      slt\n        /* \"#utility.yul\":511:633   */\n      tag_38\n      jumpi\n        /* \"#utility.yul\":552:631   */\n      tag_39\n      tag_40\n      jump\t// in\n    tag_39:\n        /* \"#utility.yul\":511:633   */\n    tag_38:\n        /* \"#utility.yul\":669:675   */\n      dup2\n        /* \"#utility.yul\":656:676   */\n      calldataload\n        /* \"#utility.yul\":694:773   */\n      tag_41\n        /* \"#utility.yul\":769:772   */\n      dup5\n        /* \"#utility.yul\":761:767   */\n      dup3\n        /* \"#utility.yul\":754:758   */\n      0x20\n        /* \"#utility.yul\":746:752   */\n      dup7\n        /* \"#utility.yul\":742:759   */\n      add\n        /* \"#utility.yul\":694:773   */\n      tag_25\n      jump\t// in\n    tag_41:\n        /* \"#utility.yul\":685:773   */\n      swap2\n      pop\n        /* \"#utility.yul\":501:779   */\n      pop\n        /* \"#utility.yul\":439:779   */\n      swap3\n      swap2\n      pop\n      pop\n      jump\t// out\n        /* \"#utility.yul\":785:924   */\n    tag_42:\n        /* \"#utility.yul\":831:836   */\n      0x00\n        /* \"#utility.yul\":869:875   */\n      dup2\n        /* \"#utility.yul\":856:876   */\n      calldataload\n        /* \"#utility.yul\":847:876   */\n      swap1\n      pop\n        /* \"#utility.yul\":885:918   */\n      tag_44\n        /* \"#utility.yul\":912:917   */\n      dup2\n        /* \"#utility.yul\":885:918   */\n      tag_45\n      jump\t// in\n    tag_44:\n        /* \"#utility.yul\":785:924   */\n      swap3\n      swap2\n      pop\n      pop\n      jump\t// out\n        /* \"#utility.yul\":930:2527   */\n    tag_6:\n        /* \"#utility.yul\":1064:1070   */\n      0x00\n        /* \"#utility.yul\":1072:1078   */\n      dup1\n        /* \"#utility.yul\":1080:1086   */\n      0x00\n        /* \"#utility.yul\":1088:1094   */\n      dup1\n        /* \"#utility.yul\":1096:1102   */\n      0x00\n        /* \"#utility.yul\":1104:1110   */\n      dup1\n        /* \"#utility.yul\":1153:1156   */\n      0xc0\n        /* \"#utility.yul\":1141:1150   */\n      dup8\n        /* \"#utility.yul\":1132:1139   */\n      dup10\n        /* \"#utility.yul\":1128:1151   */\n      sub\n        /* \"#utility.yul\":1124:1157   */\n      slt\n        /* \"#utility.yul\":1121:1241   */\n      iszero\n      tag_47\n      jumpi\n        /* \"#utility.yul\":1160:1239   */\n      tag_48\n      tag_49\n      jump\t// in\n    tag_48:\n        /* \"#utility.yul\":1121:1241   */\n    tag_47:\n        /* \"#utility.yul\":1280:1281   */\n      0x00\n        /* \"#utility.yul\":1305:1358   */\n      tag_50\n        /* \"#utility.yul\":1350:1357   */\n      dup10\n        /* \"#utility.yul\":1341:1347   */\n      dup3\n        /* \"#utility.yul\":1330:1339   */\n      dup11\n        /* \"#utility.yul\":1326:1348   */\n      add\n        /* \"#utility.yul\":1305:1358   */\n      tag_42\n      jump\t// in\n    tag_50:\n        /* \"#utility.yul\":1295:1358   */\n      swap7\n      pop\n        /* \"#utility.yul\":1251:1368   */\n      pop\n        /* \"#utility.yul\":1435:1437   */\n      0x20\n        /* \"#utility.yul\":1424:1433   */\n      dup8\n        /* \"#utility.yul\":1420:1438   */\n      add\n        /* \"#utility.yul\":1407:1439   */\n      calldataload\n        /* \"#utility.yul\":1466:1484   */\n      0xffffffffffffffff\n        /* \"#utility.yul\":1458:1464   */\n      dup2\n        /* \"#utility.yul\":1455:1485   */\n      gt\n        /* \"#utility.yul\":1452:1569   */\n      iszero\n      tag_51\n      jumpi\n        /* \"#utility.yul\":1488:1567   */\n      tag_52\n      tag_53\n      jump\t// in\n    tag_52:\n        /* \"#utility.yul\":1452:1569   */\n    tag_51:\n        /* \"#utility.yul\":1593:1656   */\n      tag_54\n        /* \"#utility.yul\":1648:1655   */\n      dup10\n        /* \"#utility.yul\":1639:1645   */\n      dup3\n        /* \"#utility.yul\":1628:1637   */\n      dup11\n        /* \"#utility.yul\":1624:1646   */\n      add\n        /* \"#utility.yul\":1593:1656   */\n      tag_36\n      jump\t// in\n    tag_54:\n        /* \"#utility.yul\":1583:1656   */\n      swap6\n      pop\n        /* \"#utility.yul\":1378:1666   */\n      pop\n        /* \"#utility.yul\":1705:1707   */\n      0x40\n        /* \"#utility.yul\":1731:1784   */\n      tag_55\n        /* \"#utility.yul\":1776:1783   */\n      dup10\n        /* \"#utility.yul\":1767:1773   */\n      dup3\n        /* \"#utility.yul\":1756:1765   */\n      dup11\n        /* \"#utility.yul\":1752:1774   */\n      add\n        /* \"#utility.yul\":1731:1784   */\n      tag_42\n      jump\t// in\n    tag_55:\n        /* \"#utility.yul\":1721:1784   */\n      swap5\n      pop\n        /* \"#utility.yul\":1676:1794   */\n      pop\n        /* \"#utility.yul\":1861:1863   */\n      0x60\n        /* \"#utility.yul\":1850:1859   */\n      dup8\n        /* \"#utility.yul\":1846:1864   */\n      add\n        /* \"#utility.yul\":1833:1865   */\n      calldataload\n        /* \"#utility.yul\":1892:1910   */\n      0xffffffffffffffff\n        /* \"#utility.yul\":1884:1890   */\n      dup2\n        /* \"#utility.yul\":1881:1911   */\n      gt\n        /* \"#utility.yul\":1878:1995   */\n      iszero\n      tag_56\n      jumpi\n        /* \"#utility.yul\":1914:1993   */\n      tag_57\n      tag_53\n      jump\t// in\n    tag_57:\n        /* \"#utility.yul\":1878:1995   */\n    tag_56:\n        /* \"#utility.yul\":2019:2082   */\n      tag_58\n        /* \"#utility.yul\":2074:2081   */\n      dup10\n        /* \"#utility.yul\":2065:2071   */\n      dup3\n        /* \"#utility.yul\":2054:2063   */\n      dup11\n        /* \"#utility.yul\":2050:2072   */\n      add\n        /* \"#utility.yul\":2019:2082   */\n      tag_36\n      jump\t// in\n    tag_58:\n        /* \"#utility.yul\":2009:2082   */\n      swap4\n      pop\n        /* \"#utility.yul\":1804:2092   */\n      pop\n        /* \"#utility.yul\":2159:2162   */\n      0x80\n        /* \"#utility.yul\":2148:2157   */\n      dup8\n        /* \"#utility.yul\":2144:2163   */\n      add\n        /* \"#utility.yul\":2131:2164   */\n      calldataload\n        /* \"#utility.yul\":2191:2209   */\n      0xffffffffffffffff\n        /* \"#utility.yul\":2183:2189   */\n      dup2\n        /* \"#utility.yul\":2180:2210   */\n      gt\n        /* \"#utility.yul\":2177:2294   */\n      iszero\n      tag_59\n      jumpi\n        /* \"#utility.yul\":2213:2292   */\n      tag_60\n      tag_53\n      jump\t// in\n    tag_60:\n        /* \"#utility.yul\":2177:2294   */\n    tag_59:\n        /* \"#utility.yul\":2318:2381   */\n      tag_61\n        /* \"#utility.yul\":2373:2380   */\n      dup10\n        /* \"#utility.yul\":2364:2370   */\n      dup3\n        /* \"#utility.yul\":2353:2362   */\n      dup11\n        /* \"#utility.yul\":2349:2371   */\n      add\n        /* \"#utility.yul\":2318:2381   */\n      tag_36\n      jump\t// in\n    tag_61:\n        /* \"#utility.yul\":2308:2381   */\n      swap3\n      pop\n        /* \"#utility.yul\":2102:2391   */\n      pop\n        /* \"#utility.yul\":2430:2433   */\n      0xa0\n        /* \"#utility.yul\":2457:2510   */\n      tag_62\n        /* \"#utility.yul\":2502:2509   */\n      dup10\n        /* \"#utility.yul\":2493:2499   */\n      dup3\n        /* \"#utility.yul\":2482:2491   */\n      dup11\n        /* \"#utility.yul\":2478:2500   */\n      add\n        /* \"#utility.yul\":2457:2510   */\n      tag_42\n      jump\t// in\n    tag_62:\n        /* \"#utility.yul\":2447:2510   */\n      swap2\n      pop\n        /* \"#utility.yul\":2401:2520   */\n      pop\n        /* \"#utility.yul\":930:2527   */\n      swap3\n      swap6\n      pop\n      swap3\n      swap6\n      pop\n      swap3\n      swap6\n      jump\t// out\n        /* \"#utility.yul\":2533:2662   */\n    tag_30:\n        /* \"#utility.yul\":2567:2573   */\n      0x00\n        /* \"#utility.yul\":2594:2614   */\n      tag_64\n      tag_65\n      jump\t// in\n    tag_64:\n        /* \"#utility.yul\":2584:2614   */\n      swap1\n      pop\n        /* \"#utility.yul\":2623:2656   */\n      tag_66\n        /* \"#utility.yul\":2651:2655   */\n      dup3\n        /* \"#utility.yul\":2643:2649   */\n      dup3\n        /* \"#utility.yul\":2623:2656   */\n      tag_67\n      jump\t// in\n    tag_66:\n        /* \"#utility.yul\":2533:2662   */\n      swap2\n      swap1\n      pop\n      jump\t// out\n        /* \"#utility.yul\":2668:2743   */\n    tag_65:\n        /* \"#utility.yul\":2701:2707   */\n      0x00\n        /* \"#utility.yul\":2734:2736   */\n      0x40\n        /* \"#utility.yul\":2728:2737   */\n      mload\n        /* \"#utility.yul\":2718:2737   */\n      swap1\n      pop\n        /* \"#utility.yul\":2668:2743   */\n      swap1\n      jump\t// out\n        /* \"#utility.yul\":2749:3057   */\n    tag_29:\n        /* \"#utility.yul\":2811:2815   */\n      0x00\n        /* \"#utility.yul\":2901:2919   */\n      0xffffffffffffffff\n        /* \"#utility.yul\":2893:2899   */\n      dup3\n        /* \"#utility.yul\":2890:2920   */\n      gt\n        /* \"#utility.yul\":2887:2943   */\n      iszero\n      tag_70\n      jumpi\n        /* \"#utility.yul\":2923:2941   */\n      tag_71\n      tag_72\n      jump\t// in\n    tag_71:\n        /* \"#utility.yul\":2887:2943   */\n    tag_70:\n        /* \"#utility.yul\":2961:2990   */\n      tag_73\n        /* \"#utility.yul\":2983:2989   */\n      dup3\n        /* \"#utility.yul\":2961:2990   */\n      tag_74\n      jump\t// in\n    tag_73:\n        /* \"#utility.yul\":2953:2990   */\n      swap1\n      pop\n        /* \"#utility.yul\":3045:3049   */\n      0x20\n        /* \"#utility.yul\":3039:3043   */\n      dup2\n        /* \"#utility.yul\":3035:3050   */\n      add\n        /* \"#utility.yul\":3027:3050   */\n      swap1\n      pop\n        /* \"#utility.yul\":2749:3057   */\n      swap2\n      swap1\n      pop\n      jump\t// out\n        /* \"#utility.yul\":3063:3140   */\n    tag_75:\n        /* \"#utility.yul\":3100:3107   */\n      0x00\n        /* \"#utility.yul\":3129:3134   */\n      dup2\n        /* \"#utility.yul\":3118:3134   */\n      swap1\n      pop\n        /* \"#utility.yul\":3063:3140   */\n      swap2\n      swap1\n      pop\n      jump\t// out\n        /* \"#utility.yul\":3146:3300   */\n    tag_35:\n        /* \"#utility.yul\":3230:3236   */\n      dup3\n        /* \"#utility.yul\":3225:3228   */\n      dup2\n        /* \"#utility.yul\":3220:3223   */\n      dup4\n        /* \"#utility.yul\":3207:3237   */\n      calldatacopy\n        /* \"#utility.yul\":3292:3293   */\n      0x00\n        /* \"#utility.yul\":3283:3289   */\n      dup4\n        /* \"#utility.yul\":3278:3281   */\n      dup4\n        /* \"#utility.yul\":3274:3290   */\n      add\n        /* \"#utility.yul\":3267:3294   */\n      mstore\n        /* \"#utility.yul\":3146:3300   */\n      pop\n      pop\n      pop\n      jump\t// out\n        /* \"#utility.yul\":3306:3626   */\n    tag_14:\n        /* \"#utility.yul\":3350:3356   */\n      0x00\n        /* \"#utility.yul\":3387:3388   */\n      0x02\n        /* \"#utility.yul\":3381:3385   */\n      dup3\n        /* \"#utility.yul\":3377:3389   */\n      div\n        /* \"#utility.yul\":3367:3389   */\n      swap1\n      pop\n        /* \"#utility.yul\":3434:3435   */\n      0x01\n        /* \"#utility.yul\":3428:3432   */\n      dup3\n        /* \"#utility.yul\":3424:3436   */\n      and\n        /* \"#utility.yul\":3455:3473   */\n      dup1\n        /* \"#utility.yul\":3445:3526   */\n      tag_79\n      jumpi\n        /* \"#utility.yul\":3511:3515   */\n      0x7f\n        /* \"#utility.yul\":3503:3509   */\n      dup3\n        /* \"#utility.yul\":3499:3516   */\n      and\n        /* \"#utility.yul\":3489:3516   */\n      swap2\n      pop\n        /* \"#utility.yul\":3445:3526   */\n    tag_79:\n        /* \"#utility.yul\":3573:3575   */\n      0x20\n        /* \"#utility.yul\":3565:3571   */\n      dup3\n        /* \"#utility.yul\":3562:3576   */\n      lt\n        /* \"#utility.yul\":3542:3560   */\n      dup2\n        /* \"#utility.yul\":3539:3577   */\n      eq\n        /* \"#utility.yul\":3536:3620   */\n      iszero\n      tag_80\n      jumpi\n        /* \"#utility.yul\":3592:3610   */\n      tag_81\n      tag_82\n      jump\t// in\n    tag_81:\n        /* \"#utility.yul\":3536:3620   */\n    tag_80:\n        /* \"#utility.yul\":3357:3626   */\n      pop\n        /* \"#utility.yul\":3306:3626   */\n      swap2\n      swap1\n      pop\n      jump\t// out\n        /* \"#utility.yul\":3632:3913   */\n    tag_67:\n        /* \"#utility.yul\":3715:3742   */\n      tag_84\n        /* \"#utility.yul\":3737:3741   */\n      dup3\n        /* \"#utility.yul\":3715:3742   */\n      tag_74\n      jump\t// in\n    tag_84:\n        /* \"#utility.yul\":3707:3713   */\n      dup2\n        /* \"#utility.yul\":3703:3743   */\n      add\n        /* \"#utility.yul\":3845:3851   */\n      dup2\n        /* \"#utility.yul\":3833:3843   */\n      dup2\n        /* \"#utility.yul\":3830:3852   */\n      lt\n        /* \"#utility.yul\":3809:3827   */\n      0xffffffffffffffff\n        /* \"#utility.yul\":3797:3807   */\n      dup3\n        /* \"#utility.yul\":3794:3828   */\n      gt\n        /* \"#utility.yul\":3791:3853   */\n      or\n        /* \"#utility.yul\":3788:3876   */\n      iszero\n      tag_85\n      jumpi\n        /* \"#utility.yul\":3856:3874   */\n      tag_86\n      tag_72\n      jump\t// in\n    tag_86:\n        /* \"#utility.yul\":3788:3876   */\n    tag_85:\n        /* \"#utility.yul\":3896:3906   */\n      dup1\n        /* \"#utility.yul\":3892:3894   */\n      0x40\n        /* \"#utility.yul\":3885:3907   */\n      mstore\n        /* \"#utility.yul\":3675:3913   */\n      pop\n        /* \"#utility.yul\":3632:3913   */\n      pop\n      pop\n      jump\t// out\n        /* \"#utility.yul\":3919:4099   */\n    tag_82:\n        /* \"#utility.yul\":3967:4044   */\n      0x4e487b7100000000000000000000000000000000000000000000000000000000\n        /* \"#utility.yul\":3964:3965   */\n      0x00\n        /* \"#utility.yul\":3957:4045   */\n      mstore\n        /* \"#utility.yul\":4064:4068   */\n      0x22\n        /* \"#utility.yul\":4061:4062   */\n      0x04\n        /* \"#utility.yul\":4054:4069   */\n      mstore\n        /* \"#utility.yul\":4088:4092   */\n      0x24\n        /* \"#utility.yul\":4085:4086   */\n      0x00\n        /* \"#utility.yul\":4078:4093   */\n      revert\n        /* \"#utility.yul\":4105:4285   */\n    tag_72:\n        /* \"#utility.yul\":4153:4230   */\n      0x4e487b7100000000000000000000000000000000000000000000000000000000\n        /* \"#utility.yul\":4150:4151   */\n      0x00\n        /* \"#utility.yul\":4143:4231   */\n      mstore\n        /* \"#utility.yul\":4250:4254   */\n      0x41\n        /* \"#utility.yul\":4247:4248   */\n      0x04\n        /* \"#utility.yul\":4240:4255   */\n      mstore\n        /* \"#utility.yul\":4274:4278   */\n      0x24\n        /* \"#utility.yul\":4271:4272   */\n      0x00\n        /* \"#utility.yul\":4264:4279   */\n      revert\n        /* \"#utility.yul\":4291:4408   */\n    tag_40:\n        /* \"#utility.yul\":4400:4401   */\n      0x00\n        /* \"#utility.yul\":4397:4398   */\n      dup1\n        /* \"#utility.yul\":4390:4402   */\n      revert\n        /* \"#utility.yul\":4414:4531   */\n    tag_33:\n        /* \"#utility.yul\":4523:4524   */\n      0x00\n        /* \"#utility.yul\":4520:4521   */\n      dup1\n        /* \"#utility.yul\":4513:4525   */\n      revert\n        /* \"#utility.yul\":4537:4654   */\n    tag_53:\n        /* \"#utility.yul\":4646:4647   */\n      0x00\n        /* \"#utility.yul\":4643:4644   */\n      dup1\n        /* \"#utility.yul\":4636:4648   */\n      revert\n        /* \"#utility.yul\":4660:4777   */\n    tag_49:\n        /* \"#utility.yul\":4769:4770   */\n      0x00\n        /* \"#utility.yul\":4766:4767   */\n      dup1\n        /* \"#utility.yul\":4759:4771   */\n      revert\n        /* \"#utility.yul\":4783:4885   */\n    tag_74:\n        /* \"#utility.yul\":4824:4830   */\n      0x00\n        /* \"#utility.yul\":4875:4877   */\n      0x1f\n        /* \"#utility.yul\":4871:4878   */\n      not\n        /* \"#utility.yul\":4866:4868   */\n      0x1f\n        /* \"#utility.yul\":4859:4864   */\n      dup4\n        /* \"#utility.yul\":4855:4869   */\n      add\n        /* \"#utility.yul\":4851:4879   */\n      and\n        /* \"#utility.yul\":4841:4879   */\n      swap1\n      pop\n        /* \"#utility.yul\":4783:4885   */\n      swap2\n      swap1\n      pop\n      jump\t// out\n        /* \"#utility.yul\":4891:5013   */\n    tag_45:\n        /* \"#utility.yul\":4964:4988   */\n      tag_95\n        /* \"#utility.yul\":4982:4987   */\n      dup2\n        /* \"#utility.yul\":4964:4988   */\n      tag_75\n      jump\t// in\n    tag_95:\n        /* \"#utility.yul\":4957:4962   */\n      dup2\n        /* \"#utility.yul\":4954:4989   */\n      eq\n        /* \"#utility.yul\":4944:5007   */\n      tag_96\n      jumpi\n        /* \"#utility.yul\":5003:5004   */\n      0x00\n        /* \"#utility.yul\":5000:5001   */\n      dup1\n        /* \"#utility.yul\":4993:5005   */\n      revert\n        /* \"#utility.yul\":4944:5007   */\n    tag_96:\n        /* \"#utility.yul\":4891:5013   */\n      pop\n      jump\t// out\n\n    auxdata: 0xa26469706673582212202b559353f0412ce0af4cf7857d116ef3d3f9c8053df6b92a62936fd7cdbbca6d64736f6c63430008070033\n}\n",
				"bytecode": {
					"linkReferences": {},
					"object": "608060405234801561001057600080fd5b506104a6806100206000396000f3fe608060405234801561001057600080fd5b506004361061002b5760003560e01c80637a6ac70914610030575b600080fd5b61004a60048036038101906100459190610223565b61004c565b005b6040518060a001604052808681526020018581526020018481526020018381526020018281525060008088815260200190815260200160002060008201518160000190805190602001906100a19291906100fb565b506020820151816001015560408201518160020190805190602001906100c89291906100fb565b5060608201518160030190805190602001906100e59291906100fb565b5060808201518160040155905050505050505050565b82805461010790610373565b90600052602060002090601f0160209004810192826101295760008555610170565b82601f1061014257805160ff1916838001178555610170565b82800160010185558215610170579182015b8281111561016f578251825591602001919060010190610154565b5b50905061017d9190610181565b5090565b5b8082111561019a576000816000905550600101610182565b5090565b60006101b16101ac84610329565b610304565b9050828152602081018484840111156101cd576101cc610439565b5b6101d8848285610364565b509392505050565b600082601f8301126101f5576101f4610434565b5b813561020584826020860161019e565b91505092915050565b60008135905061021d81610459565b92915050565b60008060008060008060c087890312156102405761023f610443565b5b600061024e89828a0161020e565b965050602087013567ffffffffffffffff81111561026f5761026e61043e565b5b61027b89828a016101e0565b955050604061028c89828a0161020e565b945050606087013567ffffffffffffffff8111156102ad576102ac61043e565b5b6102b989828a016101e0565b935050608087013567ffffffffffffffff8111156102da576102d961043e565b5b6102e689828a016101e0565b92505060a06102f789828a0161020e565b9150509295509295509295565b600061030e61031f565b905061031a82826103a5565b919050565b6000604051905090565b600067ffffffffffffffff82111561034457610343610405565b5b61034d82610448565b9050602081019050919050565b6000819050919050565b82818337600083830152505050565b6000600282049050600182168061038b57607f821691505b6020821081141561039f5761039e6103d6565b5b50919050565b6103ae82610448565b810181811067ffffffffffffffff821117156103cd576103cc610405565b5b80604052505050565b7f4e487b7100000000000000000000000000000000000000000000000000000000600052602260045260246000fd5b7f4e487b7100000000000000000000000000000000000000000000000000000000600052604160045260246000fd5b600080fd5b600080fd5b600080fd5b600080fd5b6000601f19601f8301169050919050565b6104628161035a565b811461046d57600080fd5b5056fea26469706673582212202b559353f0412ce0af4cf7857d116ef3d3f9c8053df6b92a62936fd7cdbbca6d64736f6c63430008070033",
					"opcodes": "PUSH1 0x80 PUSH1 0x40 MSTORE CALLVALUE DUP1 ISZERO PUSH2 0x10 JUMPI PUSH1 0x0 DUP1 REVERT JUMPDEST POP PUSH2 0x4A6 DUP1 PUSH2 0x20 PUSH1 0x0 CODECOPY PUSH1 0x0 RETURN INVALID PUSH1 0x80 PUSH1 0x40 MSTORE CALLVALUE DUP1 ISZERO PUSH2 0x10 JUMPI PUSH1 0x0 DUP1 REVERT JUMPDEST POP PUSH1 0x4 CALLDATASIZE LT PUSH2 0x2B JUMPI PUSH1 0x0 CALLDATALOAD PUSH1 0xE0 SHR DUP1 PUSH4 0x7A6AC709 EQ PUSH2 0x30 JUMPI JUMPDEST PUSH1 0x0 DUP1 REVERT JUMPDEST PUSH2 0x4A PUSH1 0x4 DUP1 CALLDATASIZE SUB DUP2 ADD SWAP1 PUSH2 0x45 SWAP2 SWAP1 PUSH2 0x223 JUMP JUMPDEST PUSH2 0x4C JUMP JUMPDEST STOP JUMPDEST PUSH1 0x40 MLOAD DUP1 PUSH1 0xA0 ADD PUSH1 0x40 MSTORE DUP1 DUP7 DUP2 MSTORE PUSH1 0x20 ADD DUP6 DUP2 MSTORE PUSH1 0x20 ADD DUP5 DUP2 MSTORE PUSH1 0x20 ADD DUP4 DUP2 MSTORE PUSH1 0x20 ADD DUP3 DUP2 MSTORE POP PUSH1 0x0 DUP1 DUP9 DUP2 MSTORE PUSH1 0x20 ADD SWAP1 DUP2 MSTORE PUSH1 0x20 ADD PUSH1 0x0 KECCAK256 PUSH1 0x0 DUP3 ADD MLOAD DUP2 PUSH1 0x0 ADD SWAP1 DUP1 MLOAD SWAP1 PUSH1 0x20 ADD SWAP1 PUSH2 0xA1 SWAP3 SWAP2 SWAP1 PUSH2 0xFB JUMP JUMPDEST POP PUSH1 0x20 DUP3 ADD MLOAD DUP2 PUSH1 0x1 ADD SSTORE PUSH1 0x40 DUP3 ADD MLOAD DUP2 PUSH1 0x2 ADD SWAP1 DUP1 MLOAD SWAP1 PUSH1 0x20 ADD SWAP1 PUSH2 0xC8 SWAP3 SWAP2 SWAP1 PUSH2 0xFB JUMP JUMPDEST POP PUSH1 0x60 DUP3 ADD MLOAD DUP2 PUSH1 0x3 ADD SWAP1 DUP1 MLOAD SWAP1 PUSH1 0x20 ADD SWAP1 PUSH2 0xE5 SWAP3 SWAP2 SWAP1 PUSH2 0xFB JUMP JUMPDEST POP PUSH1 0x80 DUP3 ADD MLOAD DUP2 PUSH1 0x4 ADD SSTORE SWAP1 POP POP POP POP POP POP POP POP JUMP JUMPDEST DUP3 DUP1 SLOAD PUSH2 0x107 SWAP1 PUSH2 0x373 JUMP JUMPDEST SWAP1 PUSH1 0x0 MSTORE PUSH1 0x20 PUSH1 0x0 KECCAK256 SWAP1 PUSH1 0x1F ADD PUSH1 0x20 SWAP1 DIV DUP2 ADD SWAP3 DUP3 PUSH2 0x129 JUMPI PUSH1 0x0 DUP6 SSTORE PUSH2 0x170 JUMP JUMPDEST DUP3 PUSH1 0x1F LT PUSH2 0x142 JUMPI DUP1 MLOAD PUSH1 0xFF NOT AND DUP4 DUP1 ADD OR DUP6 SSTORE PUSH2 0x170 JUMP JUMPDEST DUP3 DUP1 ADD PUSH1 0x1 ADD DUP6 SSTORE DUP3 ISZERO PUSH2 0x170 JUMPI SWAP2 DUP3 ADD JUMPDEST DUP3 DUP2 GT ISZERO PUSH2 0x16F JUMPI DUP3 MLOAD DUP3 SSTORE SWAP2 PUSH1 0x20 ADD SWAP2 SWAP1 PUSH1 0x1 ADD SWAP1 PUSH2 0x154 JUMP JUMPDEST JUMPDEST POP SWAP1 POP PUSH2 0x17D SWAP2 SWAP1 PUSH2 0x181 JUMP JUMPDEST POP SWAP1 JUMP JUMPDEST JUMPDEST DUP1 DUP3 GT ISZERO PUSH2 0x19A JUMPI PUSH1 0x0 DUP2 PUSH1 0x0 SWAP1 SSTORE POP PUSH1 0x1 ADD PUSH2 0x182 JUMP JUMPDEST POP SWAP1 JUMP JUMPDEST PUSH1 0x0 PUSH2 0x1B1 PUSH2 0x1AC DUP5 PUSH2 0x329 JUMP JUMPDEST PUSH2 0x304 JUMP JUMPDEST SWAP1 POP DUP3 DUP2 MSTORE PUSH1 0x20 DUP2 ADD DUP5 DUP5 DUP5 ADD GT ISZERO PUSH2 0x1CD JUMPI PUSH2 0x1CC PUSH2 0x439 JUMP JUMPDEST JUMPDEST PUSH2 0x1D8 DUP5 DUP3 DUP6 PUSH2 0x364 JUMP JUMPDEST POP SWAP4 SWAP3 POP POP POP JUMP JUMPDEST PUSH1 0x0 DUP3 PUSH1 0x1F DUP4 ADD SLT PUSH2 0x1F5 JUMPI PUSH2 0x1F4 PUSH2 0x434 JUMP JUMPDEST JUMPDEST DUP2 CALLDATALOAD PUSH2 0x205 DUP5 DUP3 PUSH1 0x20 DUP7 ADD PUSH2 0x19E JUMP JUMPDEST SWAP2 POP POP SWAP3 SWAP2 POP POP JUMP JUMPDEST PUSH1 0x0 DUP2 CALLDATALOAD SWAP1 POP PUSH2 0x21D DUP2 PUSH2 0x459 JUMP JUMPDEST SWAP3 SWAP2 POP POP JUMP JUMPDEST PUSH1 0x0 DUP1 PUSH1 0x0 DUP1 PUSH1 0x0 DUP1 PUSH1 0xC0 DUP8 DUP10 SUB SLT ISZERO PUSH2 0x240 JUMPI PUSH2 0x23F PUSH2 0x443 JUMP JUMPDEST JUMPDEST PUSH1 0x0 PUSH2 0x24E DUP10 DUP3 DUP11 ADD PUSH2 0x20E JUMP JUMPDEST SWAP7 POP POP PUSH1 0x20 DUP8 ADD CALLDATALOAD PUSH8 0xFFFFFFFFFFFFFFFF DUP2 GT ISZERO PUSH2 0x26F JUMPI PUSH2 0x26E PUSH2 0x43E JUMP JUMPDEST JUMPDEST PUSH2 0x27B DUP10 DUP3 DUP11 ADD PUSH2 0x1E0 JUMP JUMPDEST SWAP6 POP POP PUSH1 0x40 PUSH2 0x28C DUP10 DUP3 DUP11 ADD PUSH2 0x20E JUMP JUMPDEST SWAP5 POP POP PUSH1 0x60 DUP8 ADD CALLDATALOAD PUSH8 0xFFFFFFFFFFFFFFFF DUP2 GT ISZERO PUSH2 0x2AD JUMPI PUSH2 0x2AC PUSH2 0x43E JUMP JUMPDEST JUMPDEST PUSH2 0x2B9 DUP10 DUP3 DUP11 ADD PUSH2 0x1E0 JUMP JUMPDEST SWAP4 POP POP PUSH1 0x80 DUP8 ADD CALLDATALOAD PUSH8 0xFFFFFFFFFFFFFFFF DUP2 GT ISZERO PUSH2 0x2DA JUMPI PUSH2 0x2D9 PUSH2 0x43E JUMP JUMPDEST JUMPDEST PUSH2 0x2E6 DUP10 DUP3 DUP11 ADD PUSH2 0x1E0 JUMP JUMPDEST SWAP3 POP POP PUSH1 0xA0 PUSH2 0x2F7 DUP10 DUP3 DUP11 ADD PUSH2 0x20E JUMP JUMPDEST SWAP2 POP POP SWAP3 SWAP6 POP SWAP3 SWAP6 POP SWAP3 SWAP6 JUMP JUMPDEST PUSH1 0x0 PUSH2 0x30E PUSH2 0x31F JUMP JUMPDEST SWAP1 POP PUSH2 0x31A DUP3 DUP3 PUSH2 0x3A5 JUMP JUMPDEST SWAP2 SWAP1 POP JUMP JUMPDEST PUSH1 0x0 PUSH1 0x40 MLOAD SWAP1 POP SWAP1 JUMP JUMPDEST PUSH1 0x0 PUSH8 0xFFFFFFFFFFFFFFFF DUP3 GT ISZERO PUSH2 0x344 JUMPI PUSH2 0x343 PUSH2 0x405 JUMP JUMPDEST JUMPDEST PUSH2 0x34D DUP3 PUSH2 0x448 JUMP JUMPDEST SWAP1 POP PUSH1 0x20 DUP2 ADD SWAP1 POP SWAP2 SWAP1 POP JUMP JUMPDEST PUSH1 0x0 DUP2 SWAP1 POP SWAP2 SWAP1 POP JUMP JUMPDEST DUP3 DUP2 DUP4 CALLDATACOPY PUSH1 0x0 DUP4 DUP4 ADD MSTORE POP POP POP JUMP JUMPDEST PUSH1 0x0 PUSH1 0x2 DUP3 DIV SWAP1 POP PUSH1 0x1 DUP3 AND DUP1 PUSH2 0x38B JUMPI PUSH1 0x7F DUP3 AND SWAP2 POP JUMPDEST PUSH1 0x20 DUP3 LT DUP2 EQ ISZERO PUSH2 0x39F JUMPI PUSH2 0x39E PUSH2 0x3D6 JUMP JUMPDEST JUMPDEST POP SWAP2 SWAP1 POP JUMP JUMPDEST PUSH2 0x3AE DUP3 PUSH2 0x448 JUMP JUMPDEST DUP2 ADD DUP2 DUP2 LT PUSH8 0xFFFFFFFFFFFFFFFF DUP3 GT OR ISZERO PUSH2 0x3CD JUMPI PUSH2 0x3CC PUSH2 0x405 JUMP JUMPDEST JUMPDEST DUP1 PUSH1 0x40 MSTORE POP POP POP JUMP JUMPDEST PUSH32 0x4E487B7100000000000000000000000000000000000000000000000000000000 PUSH1 0x0 MSTORE PUSH1 0x22 PUSH1 0x4 MSTORE PUSH1 0x24 PUSH1 0x0 REVERT JUMPDEST PUSH32 0x4E487B7100000000000000000000000000000000000000000000000000000000 PUSH1 0x0 MSTORE PUSH1 0x41 PUSH1 0x4 MSTORE PUSH1 0x24 PUSH1 0x0 REVERT JUMPDEST PUSH1 0x0 DUP1 REVERT JUMPDEST PUSH1 0x0 DUP1 REVERT JUMPDEST PUSH1 0x0 DUP1 REVERT JUMPDEST PUSH1 0x0 DUP1 REVERT JUMPDEST PUSH1 0x0 PUSH1 0x1F NOT PUSH1 0x1F DUP4 ADD AND SWAP1 POP SWAP2 SWAP1 POP JUMP JUMPDEST PUSH2 0x462 DUP2 PUSH2 0x35A JUMP JUMPDEST DUP2 EQ PUSH2 0x46D JUMPI PUSH1 0x0 DUP1 REVERT JUMPDEST POP JUMP INVALID LOG2 PUSH5 0x6970667358 0x22 SLT KECCAK256 0x2B SSTORE SWAP4 MSTORE8 CREATE COINBASE 0x2C 0xE0 0xAF 0x4C 0xF7 DUP6 PUSH30 0x116EF3D3F9C8053DF6B92A62936FD7CDBBCA6D64736F6C63430008070033 "
				},
				"gasEstimates": {
					"creation": {
						"codeDepositCost": "238000",
						"executionCost": "281",
						"totalCost": "238281"
					},
					"external": {
						"set(uint256,string,uint256,string,string,uint256)": "infinite"
					}
				},
				"methodIdentifiers": {
					"set(uint256,string,uint256,string,string,uint256)": "7a6ac709"
				}
			},
			"storageLayout": {
				"storage": [
					{
						"astId": 17,
						"contract": "mappingprac.sol:Mapping_example",
						"label": "details",
						"offset": 0,
						"slot": "0",
						"type": "t_mapping(t_uint256,t_struct(student)12_storage)"
					}
				],
				"types": {
					"t_mapping(t_uint256,t_struct(student)12_storage)": {
						"encoding": "mapping",
						"key": "t_uint256",
						"label": "mapping(uint256 => struct Mapping_example.student)",
						"numberOfBytes": "32",
						"value": "t_struct(student)12_storage"
					},
					"t_string_storage": {
						"encoding": "bytes",
						"label": "string",
						"numberOfBytes": "32"
					},
					"t_struct(student)12_storage": {
						"encoding": "inplace",
						"label": "struct Mapping_example.student",
						"members": [
							{
								"astId": 3,
								"contract": "mappingprac.sol:Mapping_example",
								"label": "Name",
								"offset": 0,
								"slot": "0",
								"type": "t_string_storage"
							},
							{
								"astId": 5,
								"contract": "mappingprac.sol:Mapping_example",
								"label": "rollnum",
								"offset": 0,
								"slot": "1",
								"type": "t_uint256"
							},
							{
								"astId": 7,
								"contract": "mappingprac.sol:Mapping_example",
								"label": "section",
								"offset": 0,
								"slot": "2",
								"type": "t_string_storage"
							},
							{
								"astId": 9,
								"contract": "mappingprac.sol:Mapping_example",
								"label": "subject",
								"offset": 0,
								"slot": "3",
								"type": "t_string_storage"
							},
							{
								"astId": 11,
								"contract": "mappingprac.sol:Mapping_example",
								"label": "year",
								"offset": 0,
								"slot": "4",
								"type": "t_uint256"
							}
						],
						"numberOfBytes": "160"
					},
					"t_uint256": {
						"encoding": "inplace",
						"label": "uint256",
						"numberOfBytes": "32"
					}
				}
			},
			"userdoc": {
				"kind": "user",
				"methods": {},
				"version": 1
			}
		}
	}
}