{
	"rule6exp.sol": {
		"ruleexp6": {
			"abi": [
				{
					"inputs": [],
					"name": "assignment4",
					"outputs": [
						{
							"internalType": "int256",
							"name": "",
							"type": "int256"
						}
					],
					"stateMutability": "nonpayable",
					"type": "function"
				}
			],
			"devdoc": {
				"kind": "dev",
				"methods": {},
				"version": 1
			},
			"evm": {
				"assembly": "    /* \"rule6exp.sol\":26:283  contract ruleexp6{... */\n  mstore(0x40, 0x80)\n    /* \"rule6exp.sol\":50:84  int[2] rule6StateVar2 = [int(1),2] */\n  mload(0x40)\n  dup1\n  0x40\n  add\n  0x40\n  mstore\n  dup1\n    /* \"rule6exp.sol\":79:80  1 */\n  0x01\n    /* \"rule6exp.sol\":50:84  int[2] rule6StateVar2 = [int(1),2] */\n  dup2\n  mstore\n  0x20\n  add\n    /* \"rule6exp.sol\":82:83  2 */\n  0x02\n    /* \"rule6exp.sol\":50:84  int[2] rule6StateVar2 = [int(1),2] */\n  dup2\n  mstore\n  pop\n  0x00\n  swap1\n  0x02\n  tag_1\n  swap3\n  swap2\n  swap1\n  tag_2\n  jump\t// in\ntag_1:\n  pop\n    /* \"rule6exp.sol\":26:283  contract ruleexp6{... */\n  callvalue\n  dup1\n  iszero\n  tag_3\n  jumpi\n  0x00\n  dup1\n  revert\ntag_3:\n  pop\n  jump(tag_4)\ntag_2:\n  dup3\n  0x02\n  dup2\n  add\n  swap3\n  dup3\n  iszero\n  tag_5\n  jumpi\n  swap2\n  0x20\n  mul\n  dup3\n  add\ntag_6:\n  dup3\n  dup2\n  gt\n  iszero\n  tag_7\n  jumpi\n  dup3\n  mload\n  dup3\n  sstore\n  swap2\n  0x20\n  add\n  swap2\n  swap1\n  0x01\n  add\n  swap1\n  jump(tag_6)\ntag_7:\ntag_5:\n  pop\n  swap1\n  pop\n  tag_8\n  swap2\n  swap1\n  tag_9\n  jump\t// in\ntag_8:\n  pop\n  swap1\n  jump\t// out\ntag_9:\ntag_10:\n  dup1\n  dup3\n  gt\n  iszero\n  tag_11\n  jumpi\n  0x00\n  dup2\n  0x00\n  swap1\n  sstore\n  pop\n  0x01\n  add\n  jump(tag_10)\ntag_11:\n  pop\n  swap1\n  jump\t// out\ntag_4:\n  dataSize(sub_0)\n  dup1\n  dataOffset(sub_0)\n  0x00\n  codecopy\n  0x00\n  return\nstop\n\nsub_0: assembly {\n        /* \"rule6exp.sol\":26:283  contract ruleexp6{... */\n      mstore(0x40, 0x80)\n      callvalue\n      dup1\n      iszero\n      tag_1\n      jumpi\n      0x00\n      dup1\n      revert\n    tag_1:\n      pop\n      jumpi(tag_2, lt(calldatasize, 0x04))\n      shr(0xe0, calldataload(0x00))\n      dup1\n      0x1df91a74\n      eq\n      tag_3\n      jumpi\n    tag_2:\n      0x00\n      dup1\n      revert\n        /* \"rule6exp.sol\":87:278  function assignment4() public returns (int) {  int[2] memory rule6LocalVar1 = [int(3),4];  rule6StateVar2 = rule6LocalVar1;  rule6LocalVar1[1] = 10;... */\n    tag_3:\n      tag_4\n      tag_5\n      jump\t// in\n    tag_4:\n      mload(0x40)\n      tag_6\n      swap2\n      swap1\n      tag_7\n      jump\t// in\n    tag_6:\n      mload(0x40)\n      dup1\n      swap2\n      sub\n      swap1\n      return\n    tag_5:\n        /* \"rule6exp.sol\":126:129  int */\n      0x00\n        /* \"rule6exp.sol\":134:162  int[2] memory rule6LocalVar1 */\n      dup1\n        /* \"rule6exp.sol\":134:175  int[2] memory rule6LocalVar1 = [int(3),4] */\n      mload(0x40)\n      dup1\n      0x40\n      add\n      0x40\n      mstore\n      dup1\n        /* \"rule6exp.sol\":170:171  3 */\n      0x03\n        /* \"rule6exp.sol\":134:175  int[2] memory rule6LocalVar1 = [int(3),4] */\n      dup2\n      mstore\n      0x20\n      add\n        /* \"rule6exp.sol\":173:174  4 */\n      0x04\n        /* \"rule6exp.sol\":134:175  int[2] memory rule6LocalVar1 = [int(3),4] */\n      dup2\n      mstore\n      pop\n      swap1\n      pop\n        /* \"rule6exp.sol\":195:209  rule6LocalVar1 */\n      dup1\n        /* \"rule6exp.sol\":178:192  rule6StateVar2 */\n      0x00\n        /* \"rule6exp.sol\":178:209  rule6StateVar2 = rule6LocalVar1 */\n      swap1\n      0x02\n      tag_9\n      swap3\n      swap2\n      swap1\n      tag_10\n      jump\t// in\n    tag_9:\n      pop\n        /* \"rule6exp.sol\":232:234  10 */\n      0x0a\n        /* \"rule6exp.sol\":212:226  rule6LocalVar1 */\n      dup2\n        /* \"rule6exp.sol\":227:228  1 */\n      0x01\n        /* \"rule6exp.sol\":212:229  rule6LocalVar1[1] */\n      0x02\n      dup2\n      lt\n      tag_11\n      jumpi\n      tag_12\n      tag_13\n      jump\t// in\n    tag_12:\n    tag_11:\n      0x20\n      mul\n      add\n        /* \"rule6exp.sol\":212:234  rule6LocalVar1[1] = 10 */\n      dup2\n      dup2\n      mstore\n      pop\n      pop\n        /* \"rule6exp.sol\":244:258  rule6StateVar2 */\n      0x00\n        /* \"rule6exp.sol\":259:260  1 */\n      0x01\n        /* \"rule6exp.sol\":244:261  rule6StateVar2[1] */\n      0x02\n      dup2\n      lt\n      tag_14\n      jumpi\n      tag_15\n      tag_13\n      jump\t// in\n    tag_15:\n    tag_14:\n      add\n      sload\n        /* \"rule6exp.sol\":237:261  return rule6StateVar2[1] */\n      swap2\n      pop\n      pop\n        /* \"rule6exp.sol\":87:278  function assignment4() public returns (int) {  int[2] memory rule6LocalVar1 = [int(3),4];  rule6StateVar2 = rule6LocalVar1;  rule6LocalVar1[1] = 10;... */\n      swap1\n      jump\t// out\n    tag_10:\n      dup3\n      0x02\n      dup2\n      add\n      swap3\n      dup3\n      iszero\n      tag_17\n      jumpi\n      swap2\n      0x20\n      mul\n      dup3\n      add\n    tag_18:\n      dup3\n      dup2\n      gt\n      iszero\n      tag_19\n      jumpi\n      dup3\n      mload\n      dup3\n      sstore\n      swap2\n      0x20\n      add\n      swap2\n      swap1\n      0x01\n      add\n      swap1\n      jump(tag_18)\n    tag_19:\n    tag_17:\n      pop\n      swap1\n      pop\n      tag_20\n      swap2\n      swap1\n      tag_21\n      jump\t// in\n    tag_20:\n      pop\n      swap1\n      jump\t// out\n    tag_21:\n    tag_22:\n      dup1\n      dup3\n      gt\n      iszero\n      tag_23\n      jumpi\n      0x00\n      dup2\n      0x00\n      swap1\n      sstore\n      pop\n      0x01\n      add\n      jump(tag_22)\n    tag_23:\n      pop\n      swap1\n      jump\t// out\n        /* \"#utility.yul\":7:83   */\n    tag_24:\n        /* \"#utility.yul\":43:50   */\n      0x00\n        /* \"#utility.yul\":72:77   */\n      dup2\n        /* \"#utility.yul\":61:77   */\n      swap1\n      pop\n        /* \"#utility.yul\":7:83   */\n      swap2\n      swap1\n      pop\n      jump\t// out\n        /* \"#utility.yul\":89:204   */\n    tag_25:\n        /* \"#utility.yul\":174:197   */\n      tag_29\n        /* \"#utility.yul\":191:196   */\n      dup2\n        /* \"#utility.yul\":174:197   */\n      tag_24\n      jump\t// in\n    tag_29:\n        /* \"#utility.yul\":169:172   */\n      dup3\n        /* \"#utility.yul\":162:198   */\n      mstore\n        /* \"#utility.yul\":89:204   */\n      pop\n      pop\n      jump\t// out\n        /* \"#utility.yul\":210:428   */\n    tag_7:\n        /* \"#utility.yul\":301:305   */\n      0x00\n        /* \"#utility.yul\":339:341   */\n      0x20\n        /* \"#utility.yul\":328:337   */\n      dup3\n        /* \"#utility.yul\":324:342   */\n      add\n        /* \"#utility.yul\":316:342   */\n      swap1\n      pop\n        /* \"#utility.yul\":352:421   */\n      tag_31\n        /* \"#utility.yul\":418:419   */\n      0x00\n        /* \"#utility.yul\":407:416   */\n      dup4\n        /* \"#utility.yul\":403:420   */\n      add\n        /* \"#utility.yul\":394:400   */\n      dup5\n        /* \"#utility.yul\":352:421   */\n      tag_25\n      jump\t// in\n    tag_31:\n        /* \"#utility.yul\":210:428   */\n      swap3\n      swap2\n      pop\n      pop\n      jump\t// out\n        /* \"#utility.yul\":434:614   */\n    tag_13:\n        /* \"#utility.yul\":482:559   */\n      0x4e487b7100000000000000000000000000000000000000000000000000000000\n        /* \"#utility.yul\":479:480   */\n      0x00\n        /* \"#utility.yul\":472:560   */\n      mstore\n        /* \"#utility.yul\":579:583   */\n      0x32\n        /* \"#utility.yul\":576:577   */\n      0x04\n        /* \"#utility.yul\":569:584   */\n      mstore\n        /* \"#utility.yul\":603:607   */\n      0x24\n        /* \"#utility.yul\":600:601   */\n      0x00\n        /* \"#utility.yul\":593:608   */\n      revert\n\n    auxdata: 0xa2646970667358221220a6a077514960ff731f7cdd1388a3ec01285e58a387440c6b31fb36bd12f0de8164736f6c634300080f0033\n}\n",
				"bytecode": {
					"linkReferences": {},
					"object": "60806040526040518060400160405280600181526020016002815250600090600261002b92919061003e565b5034801561003857600080fd5b5061009b565b826002810192821561006d579160200282015b8281111561006c578251825591602001919060010190610051565b5b50905061007a919061007e565b5090565b5b8082111561009757600081600090555060010161007f565b5090565b6101ae806100aa6000396000f3fe608060405234801561001057600080fd5b506004361061002b5760003560e01c80631df91a7414610030575b600080fd5b61003861004e565b604051610045919061012e565b60405180910390f35b6000806040518060400160405280600381526020016004815250905080600090600261007b9291906100b8565b50600a8160016002811061009257610091610149565b5b60200201818152505060006001600281106100b0576100af610149565b5b015491505090565b82600281019282156100e7579160200282015b828111156100e65782518255916020019190600101906100cb565b5b5090506100f491906100f8565b5090565b5b808211156101115760008160009055506001016100f9565b5090565b6000819050919050565b61012881610115565b82525050565b6000602082019050610143600083018461011f565b92915050565b7f4e487b7100000000000000000000000000000000000000000000000000000000600052603260045260246000fdfea2646970667358221220a6a077514960ff731f7cdd1388a3ec01285e58a387440c6b31fb36bd12f0de8164736f6c634300080f0033",
					"opcodes": "PUSH1 0x80 PUSH1 0x40 MSTORE PUSH1 0x40 MLOAD DUP1 PUSH1 0x40 ADD PUSH1 0x40 MSTORE DUP1 PUSH1 0x1 DUP2 MSTORE PUSH1 0x20 ADD PUSH1 0x2 DUP2 MSTORE POP PUSH1 0x0 SWAP1 PUSH1 0x2 PUSH2 0x2B SWAP3 SWAP2 SWAP1 PUSH2 0x3E JUMP JUMPDEST POP CALLVALUE DUP1 ISZERO PUSH2 0x38 JUMPI PUSH1 0x0 DUP1 REVERT JUMPDEST POP PUSH2 0x9B JUMP JUMPDEST DUP3 PUSH1 0x2 DUP2 ADD SWAP3 DUP3 ISZERO PUSH2 0x6D JUMPI SWAP2 PUSH1 0x20 MUL DUP3 ADD JUMPDEST DUP3 DUP2 GT ISZERO PUSH2 0x6C JUMPI DUP3 MLOAD DUP3 SSTORE SWAP2 PUSH1 0x20 ADD SWAP2 SWAP1 PUSH1 0x1 ADD SWAP1 PUSH2 0x51 JUMP JUMPDEST JUMPDEST POP SWAP1 POP PUSH2 0x7A SWAP2 SWAP1 PUSH2 0x7E JUMP JUMPDEST POP SWAP1 JUMP JUMPDEST JUMPDEST DUP1 DUP3 GT ISZERO PUSH2 0x97 JUMPI PUSH1 0x0 DUP2 PUSH1 0x0 SWAP1 SSTORE POP PUSH1 0x1 ADD PUSH2 0x7F JUMP JUMPDEST POP SWAP1 JUMP JUMPDEST PUSH2 0x1AE DUP1 PUSH2 0xAA PUSH1 0x0 CODECOPY PUSH1 0x0 RETURN INVALID PUSH1 0x80 PUSH1 0x40 MSTORE CALLVALUE DUP1 ISZERO PUSH2 0x10 JUMPI PUSH1 0x0 DUP1 REVERT JUMPDEST POP PUSH1 0x4 CALLDATASIZE LT PUSH2 0x2B JUMPI PUSH1 0x0 CALLDATALOAD PUSH1 0xE0 SHR DUP1 PUSH4 0x1DF91A74 EQ PUSH2 0x30 JUMPI JUMPDEST PUSH1 0x0 DUP1 REVERT JUMPDEST PUSH2 0x38 PUSH2 0x4E JUMP JUMPDEST PUSH1 0x40 MLOAD PUSH2 0x45 SWAP2 SWAP1 PUSH2 0x12E JUMP JUMPDEST PUSH1 0x40 MLOAD DUP1 SWAP2 SUB SWAP1 RETURN JUMPDEST PUSH1 0x0 DUP1 PUSH1 0x40 MLOAD DUP1 PUSH1 0x40 ADD PUSH1 0x40 MSTORE DUP1 PUSH1 0x3 DUP2 MSTORE PUSH1 0x20 ADD PUSH1 0x4 DUP2 MSTORE POP SWAP1 POP DUP1 PUSH1 0x0 SWAP1 PUSH1 0x2 PUSH2 0x7B SWAP3 SWAP2 SWAP1 PUSH2 0xB8 JUMP JUMPDEST POP PUSH1 0xA DUP2 PUSH1 0x1 PUSH1 0x2 DUP2 LT PUSH2 0x92 JUMPI PUSH2 0x91 PUSH2 0x149 JUMP JUMPDEST JUMPDEST PUSH1 0x20 MUL ADD DUP2 DUP2 MSTORE POP POP PUSH1 0x0 PUSH1 0x1 PUSH1 0x2 DUP2 LT PUSH2 0xB0 JUMPI PUSH2 0xAF PUSH2 0x149 JUMP JUMPDEST JUMPDEST ADD SLOAD SWAP2 POP POP SWAP1 JUMP JUMPDEST DUP3 PUSH1 0x2 DUP2 ADD SWAP3 DUP3 ISZERO PUSH2 0xE7 JUMPI SWAP2 PUSH1 0x20 MUL DUP3 ADD JUMPDEST DUP3 DUP2 GT ISZERO PUSH2 0xE6 JUMPI DUP3 MLOAD DUP3 SSTORE SWAP2 PUSH1 0x20 ADD SWAP2 SWAP1 PUSH1 0x1 ADD SWAP1 PUSH2 0xCB JUMP JUMPDEST JUMPDEST POP SWAP1 POP PUSH2 0xF4 SWAP2 SWAP1 PUSH2 0xF8 JUMP JUMPDEST POP SWAP1 JUMP JUMPDEST JUMPDEST DUP1 DUP3 GT ISZERO PUSH2 0x111 JUMPI PUSH1 0x0 DUP2 PUSH1 0x0 SWAP1 SSTORE POP PUSH1 0x1 ADD PUSH2 0xF9 JUMP JUMPDEST POP SWAP1 JUMP JUMPDEST PUSH1 0x0 DUP2 SWAP1 POP SWAP2 SWAP1 POP JUMP JUMPDEST PUSH2 0x128 DUP2 PUSH2 0x115 JUMP JUMPDEST DUP3 MSTORE POP POP JUMP JUMPDEST PUSH1 0x0 PUSH1 0x20 DUP3 ADD SWAP1 POP PUSH2 0x143 PUSH1 0x0 DUP4 ADD DUP5 PUSH2 0x11F JUMP JUMPDEST SWAP3 SWAP2 POP POP JUMP JUMPDEST PUSH32 0x4E487B7100000000000000000000000000000000000000000000000000000000 PUSH1 0x0 MSTORE PUSH1 0x32 PUSH1 0x4 MSTORE PUSH1 0x24 PUSH1 0x0 REVERT INVALID LOG2 PUSH5 0x6970667358 0x22 SLT KECCAK256 0xA6 LOG0 PUSH24 0x514960FF731F7CDD1388A3EC01285E58A387440C6B31FB36 0xBD SLT CREATE 0xDE DUP2 PUSH5 0x736F6C6343 STOP ADDMOD 0xF STOP CALLER "
				},
				"gasEstimates": {
					"creation": {
						"codeDepositCost": "86000",
						"executionCost": "infinite",
						"totalCost": "infinite"
					},
					"external": {
						"assignment4()": "infinite"
					}
				},
				"methodIdentifiers": {
					"assignment4()": "1df91a74"
				}
			},
			"storageLayout": {
				"storage": [
					{
						"astId": 11,
						"contract": "rule6exp.sol:ruleexp6",
						"label": "rule6StateVar2",
						"offset": 0,
						"slot": "0",
						"type": "t_array(t_int256)2_storage"
					}
				],
				"types": {
					"t_array(t_int256)2_storage": {
						"base": "t_int256",
						"encoding": "inplace",
						"label": "int256[2]",
						"numberOfBytes": "64"
					},
					"t_int256": {
						"encoding": "inplace",
						"label": "int256",
						"numberOfBytes": "32"
					}
				}
			},
			"userdoc": {
				"kind": "user",
				"methods": {},
				"version": 1
			}
		}
	}
}