{
	"rule6.sol": {
		"rule6": {
			"abi": [
				{
					"inputs": [],
					"name": "assignment3",
					"outputs": [
						{
							"internalType": "int256",
							"name": "",
							"type": "int256"
						}
					],
					"stateMutability": "nonpayable",
					"type": "function"
				},
				{
					"inputs": [],
					"name": "rule6StateVar1",
					"outputs": [
						{
							"internalType": "int256",
							"name": "",
							"type": "int256"
						}
					],
					"stateMutability": "view",
					"type": "function"
				}
			],
			"devdoc": {
				"kind": "dev",
				"methods": {},
				"version": 1
			},
			"evm": {
				"assembly": "    /* \"rule6.sol\":27:250  contract rule6{... */\n  mstore(0x40, 0x80)\n    /* \"rule6.sol\":76:78  10 */\n  0x0a\n    /* \"rule6.sol\":48:78  int public rule6StateVar1 = 10 */\n  0x00\n  sstore\n    /* \"rule6.sol\":27:250  contract rule6{... */\n  callvalue\n  dup1\n  iszero\n  tag_1\n  jumpi\n  0x00\n  dup1\n  revert\ntag_1:\n  pop\n  dataSize(sub_0)\n  dup1\n  dataOffset(sub_0)\n  0x00\n  codecopy\n  0x00\n  return\nstop\n\nsub_0: assembly {\n        /* \"rule6.sol\":27:250  contract rule6{... */\n      mstore(0x40, 0x80)\n      callvalue\n      dup1\n      iszero\n      tag_1\n      jumpi\n      0x00\n      dup1\n      revert\n    tag_1:\n      pop\n      jumpi(tag_2, lt(calldatasize, 0x04))\n      shr(0xe0, calldataload(0x00))\n      dup1\n      0x3be6ba56\n      eq\n      tag_3\n      jumpi\n      dup1\n      0xb912d5d0\n      eq\n      tag_4\n      jumpi\n    tag_2:\n      0x00\n      dup1\n      revert\n        /* \"rule6.sol\":48:78  int public rule6StateVar1 = 10 */\n    tag_3:\n      tag_5\n      tag_6\n      jump\t// in\n    tag_5:\n      mload(0x40)\n      tag_7\n      swap2\n      swap1\n      tag_8\n      jump\t// in\n    tag_7:\n      mload(0x40)\n      dup1\n      swap2\n      sub\n      swap1\n      return\n        /* \"rule6.sol\":81:245  function assignment3() public returns (int) {  int rule6LocalVar = 20;... */\n    tag_4:\n      tag_9\n      tag_10\n      jump\t// in\n    tag_9:\n      mload(0x40)\n      tag_11\n      swap2\n      swap1\n      tag_8\n      jump\t// in\n    tag_11:\n      mload(0x40)\n      dup1\n      swap2\n      sub\n      swap1\n      return\n        /* \"rule6.sol\":48:78  int public rule6StateVar1 = 10 */\n    tag_6:\n      sload(0x00)\n      dup2\n      jump\t// out\n        /* \"rule6.sol\":81:245  function assignment3() public returns (int) {  int rule6LocalVar = 20;... */\n    tag_10:\n        /* \"rule6.sol\":120:123  int */\n      0x00\n        /* \"rule6.sol\":128:145  int rule6LocalVar */\n      dup1\n        /* \"rule6.sol\":148:150  20 */\n      0x14\n        /* \"rule6.sol\":128:150  int rule6LocalVar = 20 */\n      swap1\n      pop\n        /* \"rule6.sol\":170:183  rule6LocalVar */\n      dup1\n        /* \"rule6.sol\":153:167  rule6StateVar1 */\n      0x00\n        /* \"rule6.sol\":153:183  rule6StateVar1 = rule6LocalVar */\n      dup2\n      swap1\n      sstore\n      pop\n        /* \"rule6.sol\":202:204  60 */\n      0x3c\n        /* \"rule6.sol\":186:204  rule6LocalVar = 60 */\n      swap1\n      pop\n        /* \"rule6.sol\":214:228  rule6StateVar1 */\n      sload(0x00)\n        /* \"rule6.sol\":207:228  return rule6StateVar1 */\n      swap2\n      pop\n      pop\n        /* \"rule6.sol\":81:245  function assignment3() public returns (int) {  int rule6LocalVar = 20;... */\n      swap1\n      jump\t// out\n        /* \"#utility.yul\":7:83   */\n    tag_13:\n        /* \"#utility.yul\":43:50   */\n      0x00\n        /* \"#utility.yul\":72:77   */\n      dup2\n        /* \"#utility.yul\":61:77   */\n      swap1\n      pop\n        /* \"#utility.yul\":7:83   */\n      swap2\n      swap1\n      pop\n      jump\t// out\n        /* \"#utility.yul\":89:204   */\n    tag_14:\n        /* \"#utility.yul\":174:197   */\n      tag_18\n        /* \"#utility.yul\":191:196   */\n      dup2\n        /* \"#utility.yul\":174:197   */\n      tag_13\n      jump\t// in\n    tag_18:\n        /* \"#utility.yul\":169:172   */\n      dup3\n        /* \"#utility.yul\":162:198   */\n      mstore\n        /* \"#utility.yul\":89:204   */\n      pop\n      pop\n      jump\t// out\n        /* \"#utility.yul\":210:428   */\n    tag_8:\n        /* \"#utility.yul\":301:305   */\n      0x00\n        /* \"#utility.yul\":339:341   */\n      0x20\n        /* \"#utility.yul\":328:337   */\n      dup3\n        /* \"#utility.yul\":324:342   */\n      add\n        /* \"#utility.yul\":316:342   */\n      swap1\n      pop\n        /* \"#utility.yul\":352:421   */\n      tag_20\n        /* \"#utility.yul\":418:419   */\n      0x00\n        /* \"#utility.yul\":407:416   */\n      dup4\n        /* \"#utility.yul\":403:420   */\n      add\n        /* \"#utility.yul\":394:400   */\n      dup5\n        /* \"#utility.yul\":352:421   */\n      tag_14\n      jump\t// in\n    tag_20:\n        /* \"#utility.yul\":210:428   */\n      swap3\n      swap2\n      pop\n      pop\n      jump\t// out\n\n    auxdata: 0xa26469706673582212205a4d4392f5e363481b5e946870be01eb293833a67b1e27d8c4c51a3cbb680eda64736f6c634300080f0033\n}\n",
				"bytecode": {
					"linkReferences": {},
					"object": "6080604052600a60005534801561001557600080fd5b5060f2806100246000396000f3fe6080604052348015600f57600080fd5b506004361060325760003560e01c80633be6ba56146037578063b912d5d0146051575b600080fd5b603d606b565b6040516048919060a3565b60405180910390f35b60576071565b6040516062919060a3565b60405180910390f35b60005481565b6000806014905080600081905550603c905060005491505090565b6000819050919050565b609d81608c565b82525050565b600060208201905060b660008301846096565b9291505056fea26469706673582212205a4d4392f5e363481b5e946870be01eb293833a67b1e27d8c4c51a3cbb680eda64736f6c634300080f0033",
					"opcodes": "PUSH1 0x80 PUSH1 0x40 MSTORE PUSH1 0xA PUSH1 0x0 SSTORE CALLVALUE DUP1 ISZERO PUSH2 0x15 JUMPI PUSH1 0x0 DUP1 REVERT JUMPDEST POP PUSH1 0xF2 DUP1 PUSH2 0x24 PUSH1 0x0 CODECOPY PUSH1 0x0 RETURN INVALID PUSH1 0x80 PUSH1 0x40 MSTORE CALLVALUE DUP1 ISZERO PUSH1 0xF JUMPI PUSH1 0x0 DUP1 REVERT JUMPDEST POP PUSH1 0x4 CALLDATASIZE LT PUSH1 0x32 JUMPI PUSH1 0x0 CALLDATALOAD PUSH1 0xE0 SHR DUP1 PUSH4 0x3BE6BA56 EQ PUSH1 0x37 JUMPI DUP1 PUSH4 0xB912D5D0 EQ PUSH1 0x51 JUMPI JUMPDEST PUSH1 0x0 DUP1 REVERT JUMPDEST PUSH1 0x3D PUSH1 0x6B JUMP JUMPDEST PUSH1 0x40 MLOAD PUSH1 0x48 SWAP2 SWAP1 PUSH1 0xA3 JUMP JUMPDEST PUSH1 0x40 MLOAD DUP1 SWAP2 SUB SWAP1 RETURN JUMPDEST PUSH1 0x57 PUSH1 0x71 JUMP JUMPDEST PUSH1 0x40 MLOAD PUSH1 0x62 SWAP2 SWAP1 PUSH1 0xA3 JUMP JUMPDEST PUSH1 0x40 MLOAD DUP1 SWAP2 SUB SWAP1 RETURN JUMPDEST PUSH1 0x0 SLOAD DUP2 JUMP JUMPDEST PUSH1 0x0 DUP1 PUSH1 0x14 SWAP1 POP DUP1 PUSH1 0x0 DUP2 SWAP1 SSTORE POP PUSH1 0x3C SWAP1 POP PUSH1 0x0 SLOAD SWAP2 POP POP SWAP1 JUMP JUMPDEST PUSH1 0x0 DUP2 SWAP1 POP SWAP2 SWAP1 POP JUMP JUMPDEST PUSH1 0x9D DUP2 PUSH1 0x8C JUMP JUMPDEST DUP3 MSTORE POP POP JUMP JUMPDEST PUSH1 0x0 PUSH1 0x20 DUP3 ADD SWAP1 POP PUSH1 0xB6 PUSH1 0x0 DUP4 ADD DUP5 PUSH1 0x96 JUMP JUMPDEST SWAP3 SWAP2 POP POP JUMP INVALID LOG2 PUSH5 0x6970667358 0x22 SLT KECCAK256 GAS 0x4D NUMBER SWAP3 CREATE2 0xE3 PUSH4 0x481B5E94 PUSH9 0x70BE01EB293833A67B 0x1E 0x27 0xD8 0xC4 0xC5 BYTE EXTCODECOPY 0xBB PUSH9 0xEDA64736F6C634300 ADDMOD 0xF STOP CALLER "
				},
				"gasEstimates": {
					"creation": {
						"codeDepositCost": "48400",
						"executionCost": "22205",
						"totalCost": "70605"
					},
					"external": {
						"assignment3()": "24572",
						"rule6StateVar1()": "2407"
					}
				},
				"methodIdentifiers": {
					"assignment3()": "b912d5d0",
					"rule6StateVar1()": "3be6ba56"
				}
			},
			"storageLayout": {
				"storage": [
					{
						"astId": 4,
						"contract": "rule6.sol:rule6",
						"label": "rule6StateVar1",
						"offset": 0,
						"slot": "0",
						"type": "t_int256"
					}
				],
				"types": {
					"t_int256": {
						"encoding": "inplace",
						"label": "int256",
						"numberOfBytes": "32"
					}
				}
			},
			"userdoc": {
				"kind": "user",
				"methods": {},
				"version": 1
			}
		}
	}
}