{
	"rule8exp.sol": {
		"rule8": {
			"abi": [
				{
					"inputs": [],
					"name": "assignment8",
					"outputs": [
						{
							"internalType": "int256",
							"name": "",
							"type": "int256"
						}
					],
					"stateMutability": "nonpayable",
					"type": "function"
				}
			],
			"devdoc": {
				"kind": "dev",
				"methods": {},
				"version": 1
			},
			"evm": {
				"assembly": "    /* \"rule8exp.sol\":26:288  contract rule8{... */\n  mstore(0x40, 0x80)\n  callvalue\n  dup1\n  iszero\n  tag_1\n  jumpi\n  0x00\n  dup1\n  revert\ntag_1:\n  pop\n  dataSize(sub_0)\n  dup1\n  dataOffset(sub_0)\n  0x00\n  codecopy\n  0x00\n  return\nstop\n\nsub_0: assembly {\n        /* \"rule8exp.sol\":26:288  contract rule8{... */\n      mstore(0x40, 0x80)\n      callvalue\n      dup1\n      iszero\n      tag_1\n      jumpi\n      0x00\n      dup1\n      revert\n    tag_1:\n      pop\n      jumpi(tag_2, lt(calldatasize, 0x04))\n      shr(0xe0, calldataload(0x00))\n      dup1\n      0x3855b677\n      eq\n      tag_3\n      jumpi\n    tag_2:\n      0x00\n      dup1\n      revert\n        /* \"rule8exp.sol\":47:283  function assignment8() public returns (int) {... */\n    tag_3:\n      tag_4\n      tag_5\n      jump\t// in\n    tag_4:\n      mload(0x40)\n      tag_6\n      swap2\n      swap1\n      tag_7\n      jump\t// in\n    tag_6:\n      mload(0x40)\n      dup1\n      swap2\n      sub\n      swap1\n      return\n    tag_5:\n        /* \"rule8exp.sol\":86:89  int */\n      0x00\n        /* \"rule8exp.sol\":94:122  int[2] memory rule8LocalVar1 */\n      dup1\n        /* \"rule8exp.sol\":94:135  int[2] memory rule8LocalVar1 = [int(1),2] */\n      mload(0x40)\n      dup1\n      0x40\n      add\n      0x40\n      mstore\n      dup1\n        /* \"rule8exp.sol\":130:131  1 */\n      0x01\n        /* \"rule8exp.sol\":94:135  int[2] memory rule8LocalVar1 = [int(1),2] */\n      dup2\n      mstore\n      0x20\n      add\n        /* \"rule8exp.sol\":133:134  2 */\n      0x02\n        /* \"rule8exp.sol\":94:135  int[2] memory rule8LocalVar1 = [int(1),2] */\n      dup2\n      mstore\n      pop\n      swap1\n      pop\n        /* \"rule8exp.sol\":138:166  int[2] memory rule8LocalVar2 */\n      0x00\n        /* \"rule8exp.sol\":138:179  int[2] memory rule8LocalVar2 = [int(3),4] */\n      mload(0x40)\n      dup1\n      0x40\n      add\n      0x40\n      mstore\n      dup1\n        /* \"rule8exp.sol\":174:175  3 */\n      0x03\n        /* \"rule8exp.sol\":138:179  int[2] memory rule8LocalVar2 = [int(3),4] */\n      dup2\n      mstore\n      0x20\n      add\n        /* \"rule8exp.sol\":177:178  4 */\n      0x04\n        /* \"rule8exp.sol\":138:179  int[2] memory rule8LocalVar2 = [int(3),4] */\n      dup2\n      mstore\n      pop\n      swap1\n      pop\n        /* \"rule8exp.sol\":199:213  rule8LocalVar2 */\n      dup1\n        /* \"rule8exp.sol\":182:213  rule8LocalVar1 = rule8LocalVar2 */\n      swap2\n      pop\n        /* \"rule8exp.sol\":236:238  10 */\n      0x0a\n        /* \"rule8exp.sol\":216:230  rule8LocalVar2 */\n      dup2\n        /* \"rule8exp.sol\":231:232  1 */\n      0x01\n        /* \"rule8exp.sol\":216:233  rule8LocalVar2[1] */\n      0x02\n      dup2\n      lt\n      tag_9\n      jumpi\n      tag_10\n      tag_11\n      jump\t// in\n    tag_10:\n    tag_9:\n      0x20\n      mul\n      add\n        /* \"rule8exp.sol\":216:238  rule8LocalVar2[1] = 10 */\n      dup2\n      dup2\n      mstore\n      pop\n      pop\n        /* \"rule8exp.sol\":248:262  rule8LocalVar1 */\n      dup2\n        /* \"rule8exp.sol\":263:264  1 */\n      0x01\n        /* \"rule8exp.sol\":248:265  rule8LocalVar1[1] */\n      0x02\n      dup2\n      lt\n      tag_12\n      jumpi\n      tag_13\n      tag_11\n      jump\t// in\n    tag_13:\n    tag_12:\n      0x20\n      mul\n      add\n      mload\n        /* \"rule8exp.sol\":241:265  return rule8LocalVar1[1] */\n      swap3\n      pop\n      pop\n      pop\n        /* \"rule8exp.sol\":47:283  function assignment8() public returns (int) {... */\n      swap1\n      jump\t// out\n        /* \"#utility.yul\":7:83   */\n    tag_14:\n        /* \"#utility.yul\":43:50   */\n      0x00\n        /* \"#utility.yul\":72:77   */\n      dup2\n        /* \"#utility.yul\":61:77   */\n      swap1\n      pop\n        /* \"#utility.yul\":7:83   */\n      swap2\n      swap1\n      pop\n      jump\t// out\n        /* \"#utility.yul\":89:204   */\n    tag_15:\n        /* \"#utility.yul\":174:197   */\n      tag_19\n        /* \"#utility.yul\":191:196   */\n      dup2\n        /* \"#utility.yul\":174:197   */\n      tag_14\n      jump\t// in\n    tag_19:\n        /* \"#utility.yul\":169:172   */\n      dup3\n        /* \"#utility.yul\":162:198   */\n      mstore\n        /* \"#utility.yul\":89:204   */\n      pop\n      pop\n      jump\t// out\n        /* \"#utility.yul\":210:428   */\n    tag_7:\n        /* \"#utility.yul\":301:305   */\n      0x00\n        /* \"#utility.yul\":339:341   */\n      0x20\n        /* \"#utility.yul\":328:337   */\n      dup3\n        /* \"#utility.yul\":324:342   */\n      add\n        /* \"#utility.yul\":316:342   */\n      swap1\n      pop\n        /* \"#utility.yul\":352:421   */\n      tag_21\n        /* \"#utility.yul\":418:419   */\n      0x00\n        /* \"#utility.yul\":407:416   */\n      dup4\n        /* \"#utility.yul\":403:420   */\n      add\n        /* \"#utility.yul\":394:400   */\n      dup5\n        /* \"#utility.yul\":352:421   */\n      tag_15\n      jump\t// in\n    tag_21:\n        /* \"#utility.yul\":210:428   */\n      swap3\n      swap2\n      pop\n      pop\n      jump\t// out\n        /* \"#utility.yul\":434:614   */\n    tag_11:\n        /* \"#utility.yul\":482:559   */\n      0x4e487b7100000000000000000000000000000000000000000000000000000000\n        /* \"#utility.yul\":479:480   */\n      0x00\n        /* \"#utility.yul\":472:560   */\n      mstore\n        /* \"#utility.yul\":579:583   */\n      0x32\n        /* \"#utility.yul\":576:577   */\n      0x04\n        /* \"#utility.yul\":569:584   */\n      mstore\n        /* \"#utility.yul\":603:607   */\n      0x24\n        /* \"#utility.yul\":600:601   */\n      0x00\n        /* \"#utility.yul\":593:608   */\n      revert\n\n    auxdata: 0xa2646970667358221220296676b0c8680980d75c21ac82dc8667690a2ed573083422fa18ab480ccecea464736f6c634300080f0033\n}\n",
				"bytecode": {
					"linkReferences": {},
					"object": "608060405234801561001057600080fd5b50610160806100206000396000f3fe608060405234801561001057600080fd5b506004361061002b5760003560e01c80633855b67714610030575b600080fd5b61003861004e565b60405161004591906100e0565b60405180910390f35b60008060405180604001604052806001815260200160028152509050600060405180604001604052806003815260200160048152509050809150600a8160016002811061009e5761009d6100fb565b5b602002018181525050816001600281106100bb576100ba6100fb565b5b60200201519250505090565b6000819050919050565b6100da816100c7565b82525050565b60006020820190506100f560008301846100d1565b92915050565b7f4e487b7100000000000000000000000000000000000000000000000000000000600052603260045260246000fdfea2646970667358221220296676b0c8680980d75c21ac82dc8667690a2ed573083422fa18ab480ccecea464736f6c634300080f0033",
					"opcodes": "PUSH1 0x80 PUSH1 0x40 MSTORE CALLVALUE DUP1 ISZERO PUSH2 0x10 JUMPI PUSH1 0x0 DUP1 REVERT JUMPDEST POP PUSH2 0x160 DUP1 PUSH2 0x20 PUSH1 0x0 CODECOPY PUSH1 0x0 RETURN INVALID PUSH1 0x80 PUSH1 0x40 MSTORE CALLVALUE DUP1 ISZERO PUSH2 0x10 JUMPI PUSH1 0x0 DUP1 REVERT JUMPDEST POP PUSH1 0x4 CALLDATASIZE LT PUSH2 0x2B JUMPI PUSH1 0x0 CALLDATALOAD PUSH1 0xE0 SHR DUP1 PUSH4 0x3855B677 EQ PUSH2 0x30 JUMPI JUMPDEST PUSH1 0x0 DUP1 REVERT JUMPDEST PUSH2 0x38 PUSH2 0x4E JUMP JUMPDEST PUSH1 0x40 MLOAD PUSH2 0x45 SWAP2 SWAP1 PUSH2 0xE0 JUMP JUMPDEST PUSH1 0x40 MLOAD DUP1 SWAP2 SUB SWAP1 RETURN JUMPDEST PUSH1 0x0 DUP1 PUSH1 0x40 MLOAD DUP1 PUSH1 0x40 ADD PUSH1 0x40 MSTORE DUP1 PUSH1 0x1 DUP2 MSTORE PUSH1 0x20 ADD PUSH1 0x2 DUP2 MSTORE POP SWAP1 POP PUSH1 0x0 PUSH1 0x40 MLOAD DUP1 PUSH1 0x40 ADD PUSH1 0x40 MSTORE DUP1 PUSH1 0x3 DUP2 MSTORE PUSH1 0x20 ADD PUSH1 0x4 DUP2 MSTORE POP SWAP1 POP DUP1 SWAP2 POP PUSH1 0xA DUP2 PUSH1 0x1 PUSH1 0x2 DUP2 LT PUSH2 0x9E JUMPI PUSH2 0x9D PUSH2 0xFB JUMP JUMPDEST JUMPDEST PUSH1 0x20 MUL ADD DUP2 DUP2 MSTORE POP POP DUP2 PUSH1 0x1 PUSH1 0x2 DUP2 LT PUSH2 0xBB JUMPI PUSH2 0xBA PUSH2 0xFB JUMP JUMPDEST JUMPDEST PUSH1 0x20 MUL ADD MLOAD SWAP3 POP POP POP SWAP1 JUMP JUMPDEST PUSH1 0x0 DUP2 SWAP1 POP SWAP2 SWAP1 POP JUMP JUMPDEST PUSH2 0xDA DUP2 PUSH2 0xC7 JUMP JUMPDEST DUP3 MSTORE POP POP JUMP JUMPDEST PUSH1 0x0 PUSH1 0x20 DUP3 ADD SWAP1 POP PUSH2 0xF5 PUSH1 0x0 DUP4 ADD DUP5 PUSH2 0xD1 JUMP JUMPDEST SWAP3 SWAP2 POP POP JUMP JUMPDEST PUSH32 0x4E487B7100000000000000000000000000000000000000000000000000000000 PUSH1 0x0 MSTORE PUSH1 0x32 PUSH1 0x4 MSTORE PUSH1 0x24 PUSH1 0x0 REVERT INVALID LOG2 PUSH5 0x6970667358 0x22 SLT KECCAK256 0x29 PUSH7 0x76B0C8680980D7 0x5C 0x21 0xAC DUP3 0xDC DUP7 PUSH8 0x690A2ED573083422 STATICCALL XOR 0xAB BASEFEE 0xC 0xCE 0xCE LOG4 PUSH5 0x736F6C6343 STOP ADDMOD 0xF STOP CALLER "
				},
				"gasEstimates": {
					"creation": {
						"codeDepositCost": "70400",
						"executionCost": "117",
						"totalCost": "70517"
					},
					"external": {
						"assignment8()": "551"
					}
				},
				"methodIdentifiers": {
					"assignment8()": "3855b677"
				}
			},
			"storageLayout": {
				"storage": [],
				"types": null
			},
			"userdoc": {
				"kind": "user",
				"methods": {},
				"version": 1
			}
		}
	}
}