{
	"mappingprac.sol": {
		"Mapping": {
			"abi": [
				{
					"inputs": [
						{
							"internalType": "uint256",
							"name": "id",
							"type": "uint256"
						},
						{
							"internalType": "string",
							"name": "camera",
							"type": "string"
						},
						{
							"internalType": "uint256",
							"name": "model",
							"type": "uint256"
						},
						{
							"internalType": "string",
							"name": "studioname",
							"type": "string"
						}
					],
					"name": "set",
					"outputs": [],
					"stateMutability": "nonpayable",
					"type": "function"
				}
			],
			"devdoc": {
				"kind": "dev",
				"methods": {},
				"version": 1
			},
			"evm": {
				"assembly": "    /* \"mappingprac.sol\":66:355  contract Mapping{\r... */\n  mstore(0x40, 0x80)\n  callvalue\n  dup1\n  iszero\n  tag_1\n  jumpi\n  0x00\n  dup1\n  revert\ntag_1:\n  pop\n  dataSize(sub_0)\n  dup1\n  dataOffset(sub_0)\n  0x00\n  codecopy\n  0x00\n  return\nstop\n\nsub_0: assembly {\n        /* \"mappingprac.sol\":66:355  contract Mapping{\r... */\n      mstore(0x40, 0x80)\n      callvalue\n      dup1\n      iszero\n      tag_1\n      jumpi\n      0x00\n      dup1\n      revert\n    tag_1:\n      pop\n      jumpi(tag_2, lt(calldatasize, 0x04))\n      shr(0xe0, calldataload(0x00))\n      dup1\n      0xb1405b58\n      eq\n      tag_3\n      jumpi\n    tag_2:\n      0x00\n      dup1\n      revert\n        /* \"mappingprac.sol\":244:352  function set(uint id, string memory camera, uint model, string memory studioname) public{\r... */\n    tag_3:\n      tag_4\n      0x04\n      dup1\n      calldatasize\n      sub\n      dup2\n      add\n      swap1\n      tag_5\n      swap2\n      swap1\n      tag_6\n      jump\t// in\n    tag_5:\n      tag_7\n      jump\t// in\n    tag_4:\n      stop\n    tag_7:\n      pop\n      pop\n      pop\n      pop\n      jump\t// out\n        /* \"#utility.yul\":7:419   */\n    tag_10:\n        /* \"#utility.yul\":85:90   */\n      0x00\n        /* \"#utility.yul\":110:176   */\n      tag_12\n        /* \"#utility.yul\":126:175   */\n      tag_13\n        /* \"#utility.yul\":168:174   */\n      dup5\n        /* \"#utility.yul\":126:175   */\n      tag_14\n      jump\t// in\n    tag_13:\n        /* \"#utility.yul\":110:176   */\n      tag_15\n      jump\t// in\n    tag_12:\n        /* \"#utility.yul\":101:176   */\n      swap1\n      pop\n        /* \"#utility.yul\":199:205   */\n      dup3\n        /* \"#utility.yul\":192:197   */\n      dup2\n        /* \"#utility.yul\":185:206   */\n      mstore\n        /* \"#utility.yul\":237:241   */\n      0x20\n        /* \"#utility.yul\":230:235   */\n      dup2\n        /* \"#utility.yul\":226:242   */\n      add\n        /* \"#utility.yul\":275:278   */\n      dup5\n        /* \"#utility.yul\":266:272   */\n      dup5\n        /* \"#utility.yul\":261:264   */\n      dup5\n        /* \"#utility.yul\":257:273   */\n      add\n        /* \"#utility.yul\":254:279   */\n      gt\n        /* \"#utility.yul\":251:363   */\n      iszero\n      tag_16\n      jumpi\n        /* \"#utility.yul\":282:361   */\n      tag_17\n      tag_18\n      jump\t// in\n    tag_17:\n        /* \"#utility.yul\":251:363   */\n    tag_16:\n        /* \"#utility.yul\":372:413   */\n      tag_19\n        /* \"#utility.yul\":406:412   */\n      dup5\n        /* \"#utility.yul\":401:404   */\n      dup3\n        /* \"#utility.yul\":396:399   */\n      dup6\n        /* \"#utility.yul\":372:413   */\n      tag_20\n      jump\t// in\n    tag_19:\n        /* \"#utility.yul\":91:419   */\n      pop\n        /* \"#utility.yul\":7:419   */\n      swap4\n      swap3\n      pop\n      pop\n      pop\n      jump\t// out\n        /* \"#utility.yul\":439:779   */\n    tag_21:\n        /* \"#utility.yul\":495:500   */\n      0x00\n        /* \"#utility.yul\":544:547   */\n      dup3\n        /* \"#utility.yul\":537:541   */\n      0x1f\n        /* \"#utility.yul\":529:535   */\n      dup4\n        /* \"#utility.yul\":525:542   */\n      add\n        /* \"#utility.yul\":521:548   */\n      slt\n        /* \"#utility.yul\":511:633   */\n      tag_23\n      jumpi\n        /* \"#utility.yul\":552:631   */\n      tag_24\n      tag_25\n      jump\t// in\n    tag_24:\n        /* \"#utility.yul\":511:633   */\n    tag_23:\n        /* \"#utility.yul\":669:675   */\n      dup2\n        /* \"#utility.yul\":656:676   */\n      calldataload\n        /* \"#utility.yul\":694:773   */\n      tag_26\n        /* \"#utility.yul\":769:772   */\n      dup5\n        /* \"#utility.yul\":761:767   */\n      dup3\n        /* \"#utility.yul\":754:758   */\n      0x20\n        /* \"#utility.yul\":746:752   */\n      dup7\n        /* \"#utility.yul\":742:759   */\n      add\n        /* \"#utility.yul\":694:773   */\n      tag_10\n      jump\t// in\n    tag_26:\n        /* \"#utility.yul\":685:773   */\n      swap2\n      pop\n        /* \"#utility.yul\":501:779   */\n      pop\n        /* \"#utility.yul\":439:779   */\n      swap3\n      swap2\n      pop\n      pop\n      jump\t// out\n        /* \"#utility.yul\":785:924   */\n    tag_27:\n        /* \"#utility.yul\":831:836   */\n      0x00\n        /* \"#utility.yul\":869:875   */\n      dup2\n        /* \"#utility.yul\":856:876   */\n      calldataload\n        /* \"#utility.yul\":847:876   */\n      swap1\n      pop\n        /* \"#utility.yul\":885:918   */\n      tag_29\n        /* \"#utility.yul\":912:917   */\n      dup2\n        /* \"#utility.yul\":885:918   */\n      tag_30\n      jump\t// in\n    tag_29:\n        /* \"#utility.yul\":785:924   */\n      swap3\n      swap2\n      pop\n      pop\n      jump\t// out\n        /* \"#utility.yul\":930:2055   */\n    tag_6:\n        /* \"#utility.yul\":1036:1042   */\n      0x00\n        /* \"#utility.yul\":1044:1050   */\n      dup1\n        /* \"#utility.yul\":1052:1058   */\n      0x00\n        /* \"#utility.yul\":1060:1066   */\n      dup1\n        /* \"#utility.yul\":1109:1112   */\n      0x80\n        /* \"#utility.yul\":1097:1106   */\n      dup6\n        /* \"#utility.yul\":1088:1095   */\n      dup8\n        /* \"#utility.yul\":1084:1107   */\n      sub\n        /* \"#utility.yul\":1080:1113   */\n      slt\n        /* \"#utility.yul\":1077:1197   */\n      iszero\n      tag_32\n      jumpi\n        /* \"#utility.yul\":1116:1195   */\n      tag_33\n      tag_34\n      jump\t// in\n    tag_33:\n        /* \"#utility.yul\":1077:1197   */\n    tag_32:\n        /* \"#utility.yul\":1236:1237   */\n      0x00\n        /* \"#utility.yul\":1261:1314   */\n      tag_35\n        /* \"#utility.yul\":1306:1313   */\n      dup8\n        /* \"#utility.yul\":1297:1303   */\n      dup3\n        /* \"#utility.yul\":1286:1295   */\n      dup9\n        /* \"#utility.yul\":1282:1304   */\n      add\n        /* \"#utility.yul\":1261:1314   */\n      tag_27\n      jump\t// in\n    tag_35:\n        /* \"#utility.yul\":1251:1314   */\n      swap5\n      pop\n        /* \"#utility.yul\":1207:1324   */\n      pop\n        /* \"#utility.yul\":1391:1393   */\n      0x20\n        /* \"#utility.yul\":1380:1389   */\n      dup6\n        /* \"#utility.yul\":1376:1394   */\n      add\n        /* \"#utility.yul\":1363:1395   */\n      calldataload\n        /* \"#utility.yul\":1422:1440   */\n      0xffffffffffffffff\n        /* \"#utility.yul\":1414:1420   */\n      dup2\n        /* \"#utility.yul\":1411:1441   */\n      gt\n        /* \"#utility.yul\":1408:1525   */\n      iszero\n      tag_36\n      jumpi\n        /* \"#utility.yul\":1444:1523   */\n      tag_37\n      tag_38\n      jump\t// in\n    tag_37:\n        /* \"#utility.yul\":1408:1525   */\n    tag_36:\n        /* \"#utility.yul\":1549:1612   */\n      tag_39\n        /* \"#utility.yul\":1604:1611   */\n      dup8\n        /* \"#utility.yul\":1595:1601   */\n      dup3\n        /* \"#utility.yul\":1584:1593   */\n      dup9\n        /* \"#utility.yul\":1580:1602   */\n      add\n        /* \"#utility.yul\":1549:1612   */\n      tag_21\n      jump\t// in\n    tag_39:\n        /* \"#utility.yul\":1539:1612   */\n      swap4\n      pop\n        /* \"#utility.yul\":1334:1622   */\n      pop\n        /* \"#utility.yul\":1661:1663   */\n      0x40\n        /* \"#utility.yul\":1687:1740   */\n      tag_40\n        /* \"#utility.yul\":1732:1739   */\n      dup8\n        /* \"#utility.yul\":1723:1729   */\n      dup3\n        /* \"#utility.yul\":1712:1721   */\n      dup9\n        /* \"#utility.yul\":1708:1730   */\n      add\n        /* \"#utility.yul\":1687:1740   */\n      tag_27\n      jump\t// in\n    tag_40:\n        /* \"#utility.yul\":1677:1740   */\n      swap3\n      pop\n        /* \"#utility.yul\":1632:1750   */\n      pop\n        /* \"#utility.yul\":1817:1819   */\n      0x60\n        /* \"#utility.yul\":1806:1815   */\n      dup6\n        /* \"#utility.yul\":1802:1820   */\n      add\n        /* \"#utility.yul\":1789:1821   */\n      calldataload\n        /* \"#utility.yul\":1848:1866   */\n      0xffffffffffffffff\n        /* \"#utility.yul\":1840:1846   */\n      dup2\n        /* \"#utility.yul\":1837:1867   */\n      gt\n        /* \"#utility.yul\":1834:1951   */\n      iszero\n      tag_41\n      jumpi\n        /* \"#utility.yul\":1870:1949   */\n      tag_42\n      tag_38\n      jump\t// in\n    tag_42:\n        /* \"#utility.yul\":1834:1951   */\n    tag_41:\n        /* \"#utility.yul\":1975:2038   */\n      tag_43\n        /* \"#utility.yul\":2030:2037   */\n      dup8\n        /* \"#utility.yul\":2021:2027   */\n      dup3\n        /* \"#utility.yul\":2010:2019   */\n      dup9\n        /* \"#utility.yul\":2006:2028   */\n      add\n        /* \"#utility.yul\":1975:2038   */\n      tag_21\n      jump\t// in\n    tag_43:\n        /* \"#utility.yul\":1965:2038   */\n      swap2\n      pop\n        /* \"#utility.yul\":1760:2048   */\n      pop\n        /* \"#utility.yul\":930:2055   */\n      swap3\n      swap6\n      swap2\n      swap5\n      pop\n      swap3\n      pop\n      jump\t// out\n        /* \"#utility.yul\":2061:2190   */\n    tag_15:\n        /* \"#utility.yul\":2095:2101   */\n      0x00\n        /* \"#utility.yul\":2122:2142   */\n      tag_45\n      tag_46\n      jump\t// in\n    tag_45:\n        /* \"#utility.yul\":2112:2142   */\n      swap1\n      pop\n        /* \"#utility.yul\":2151:2184   */\n      tag_47\n        /* \"#utility.yul\":2179:2183   */\n      dup3\n        /* \"#utility.yul\":2171:2177   */\n      dup3\n        /* \"#utility.yul\":2151:2184   */\n      tag_48\n      jump\t// in\n    tag_47:\n        /* \"#utility.yul\":2061:2190   */\n      swap2\n      swap1\n      pop\n      jump\t// out\n        /* \"#utility.yul\":2196:2271   */\n    tag_46:\n        /* \"#utility.yul\":2229:2235   */\n      0x00\n        /* \"#utility.yul\":2262:2264   */\n      0x40\n        /* \"#utility.yul\":2256:2265   */\n      mload\n        /* \"#utility.yul\":2246:2265   */\n      swap1\n      pop\n        /* \"#utility.yul\":2196:2271   */\n      swap1\n      jump\t// out\n        /* \"#utility.yul\":2277:2585   */\n    tag_14:\n        /* \"#utility.yul\":2339:2343   */\n      0x00\n        /* \"#utility.yul\":2429:2447   */\n      0xffffffffffffffff\n        /* \"#utility.yul\":2421:2427   */\n      dup3\n        /* \"#utility.yul\":2418:2448   */\n      gt\n        /* \"#utility.yul\":2415:2471   */\n      iszero\n      tag_51\n      jumpi\n        /* \"#utility.yul\":2451:2469   */\n      tag_52\n      tag_53\n      jump\t// in\n    tag_52:\n        /* \"#utility.yul\":2415:2471   */\n    tag_51:\n        /* \"#utility.yul\":2489:2518   */\n      tag_54\n        /* \"#utility.yul\":2511:2517   */\n      dup3\n        /* \"#utility.yul\":2489:2518   */\n      tag_55\n      jump\t// in\n    tag_54:\n        /* \"#utility.yul\":2481:2518   */\n      swap1\n      pop\n        /* \"#utility.yul\":2573:2577   */\n      0x20\n        /* \"#utility.yul\":2567:2571   */\n      dup2\n        /* \"#utility.yul\":2563:2578   */\n      add\n        /* \"#utility.yul\":2555:2578   */\n      swap1\n      pop\n        /* \"#utility.yul\":2277:2585   */\n      swap2\n      swap1\n      pop\n      jump\t// out\n        /* \"#utility.yul\":2591:2668   */\n    tag_56:\n        /* \"#utility.yul\":2628:2635   */\n      0x00\n        /* \"#utility.yul\":2657:2662   */\n      dup2\n        /* \"#utility.yul\":2646:2662   */\n      swap1\n      pop\n        /* \"#utility.yul\":2591:2668   */\n      swap2\n      swap1\n      pop\n      jump\t// out\n        /* \"#utility.yul\":2674:2828   */\n    tag_20:\n        /* \"#utility.yul\":2758:2764   */\n      dup3\n        /* \"#utility.yul\":2753:2756   */\n      dup2\n        /* \"#utility.yul\":2748:2751   */\n      dup4\n        /* \"#utility.yul\":2735:2765   */\n      calldatacopy\n        /* \"#utility.yul\":2820:2821   */\n      0x00\n        /* \"#utility.yul\":2811:2817   */\n      dup4\n        /* \"#utility.yul\":2806:2809   */\n      dup4\n        /* \"#utility.yul\":2802:2818   */\n      add\n        /* \"#utility.yul\":2795:2822   */\n      mstore\n        /* \"#utility.yul\":2674:2828   */\n      pop\n      pop\n      pop\n      jump\t// out\n        /* \"#utility.yul\":2834:3115   */\n    tag_48:\n        /* \"#utility.yul\":2917:2944   */\n      tag_60\n        /* \"#utility.yul\":2939:2943   */\n      dup3\n        /* \"#utility.yul\":2917:2944   */\n      tag_55\n      jump\t// in\n    tag_60:\n        /* \"#utility.yul\":2909:2915   */\n      dup2\n        /* \"#utility.yul\":2905:2945   */\n      add\n        /* \"#utility.yul\":3047:3053   */\n      dup2\n        /* \"#utility.yul\":3035:3045   */\n      dup2\n        /* \"#utility.yul\":3032:3054   */\n      lt\n        /* \"#utility.yul\":3011:3029   */\n      0xffffffffffffffff\n        /* \"#utility.yul\":2999:3009   */\n      dup3\n        /* \"#utility.yul\":2996:3030   */\n      gt\n        /* \"#utility.yul\":2993:3055   */\n      or\n        /* \"#utility.yul\":2990:3078   */\n      iszero\n      tag_61\n      jumpi\n        /* \"#utility.yul\":3058:3076   */\n      tag_62\n      tag_53\n      jump\t// in\n    tag_62:\n        /* \"#utility.yul\":2990:3078   */\n    tag_61:\n        /* \"#utility.yul\":3098:3108   */\n      dup1\n        /* \"#utility.yul\":3094:3096   */\n      0x40\n        /* \"#utility.yul\":3087:3109   */\n      mstore\n        /* \"#utility.yul\":2877:3115   */\n      pop\n        /* \"#utility.yul\":2834:3115   */\n      pop\n      pop\n      jump\t// out\n        /* \"#utility.yul\":3121:3301   */\n    tag_53:\n        /* \"#utility.yul\":3169:3246   */\n      0x4e487b7100000000000000000000000000000000000000000000000000000000\n        /* \"#utility.yul\":3166:3167   */\n      0x00\n        /* \"#utility.yul\":3159:3247   */\n      mstore\n        /* \"#utility.yul\":3266:3270   */\n      0x41\n        /* \"#utility.yul\":3263:3264   */\n      0x04\n        /* \"#utility.yul\":3256:3271   */\n      mstore\n        /* \"#utility.yul\":3290:3294   */\n      0x24\n        /* \"#utility.yul\":3287:3288   */\n      0x00\n        /* \"#utility.yul\":3280:3295   */\n      revert\n        /* \"#utility.yul\":3307:3424   */\n    tag_25:\n        /* \"#utility.yul\":3416:3417   */\n      0x00\n        /* \"#utility.yul\":3413:3414   */\n      dup1\n        /* \"#utility.yul\":3406:3418   */\n      revert\n        /* \"#utility.yul\":3430:3547   */\n    tag_18:\n        /* \"#utility.yul\":3539:3540   */\n      0x00\n        /* \"#utility.yul\":3536:3537   */\n      dup1\n        /* \"#utility.yul\":3529:3541   */\n      revert\n        /* \"#utility.yul\":3553:3670   */\n    tag_38:\n        /* \"#utility.yul\":3662:3663   */\n      0x00\n        /* \"#utility.yul\":3659:3660   */\n      dup1\n        /* \"#utility.yul\":3652:3664   */\n      revert\n        /* \"#utility.yul\":3676:3793   */\n    tag_34:\n        /* \"#utility.yul\":3785:3786   */\n      0x00\n        /* \"#utility.yul\":3782:3783   */\n      dup1\n        /* \"#utility.yul\":3775:3787   */\n      revert\n        /* \"#utility.yul\":3799:3901   */\n    tag_55:\n        /* \"#utility.yul\":3840:3846   */\n      0x00\n        /* \"#utility.yul\":3891:3893   */\n      0x1f\n        /* \"#utility.yul\":3887:3894   */\n      not\n        /* \"#utility.yul\":3882:3884   */\n      0x1f\n        /* \"#utility.yul\":3875:3880   */\n      dup4\n        /* \"#utility.yul\":3871:3885   */\n      add\n        /* \"#utility.yul\":3867:3895   */\n      and\n        /* \"#utility.yul\":3857:3895   */\n      swap1\n      pop\n        /* \"#utility.yul\":3799:3901   */\n      swap2\n      swap1\n      pop\n      jump\t// out\n        /* \"#utility.yul\":3907:4029   */\n    tag_30:\n        /* \"#utility.yul\":3980:4004   */\n      tag_70\n        /* \"#utility.yul\":3998:4003   */\n      dup2\n        /* \"#utility.yul\":3980:4004   */\n      tag_56\n      jump\t// in\n    tag_70:\n        /* \"#utility.yul\":3973:3978   */\n      dup2\n        /* \"#utility.yul\":3970:4005   */\n      eq\n        /* \"#utility.yul\":3960:4023   */\n      tag_71\n      jumpi\n        /* \"#utility.yul\":4019:4020   */\n      0x00\n        /* \"#utility.yul\":4016:4017   */\n      dup1\n        /* \"#utility.yul\":4009:4021   */\n      revert\n        /* \"#utility.yul\":3960:4023   */\n    tag_71:\n        /* \"#utility.yul\":3907:4029   */\n      pop\n      jump\t// out\n\n    auxdata: 0xa2646970667358221220b38cf445e949914c3957f0f7d50a2d31462dcf8e3152b7a79df7a18402da82ff64736f6c63430008070033\n}\n",
				"bytecode": {
					"linkReferences": {},
					"object": "608060405234801561001057600080fd5b506102b7806100206000396000f3fe608060405234801561001057600080fd5b506004361061002b5760003560e01c8063b1405b5814610030575b600080fd5b61004a600480360381019061004591906100d7565b61004c565b005b50505050565b60006100656100608461019b565b610176565b9050828152602081018484840111156100815761008061024a565b5b61008c8482856101d6565b509392505050565b600082601f8301126100a9576100a8610245565b5b81356100b9848260208601610052565b91505092915050565b6000813590506100d18161026a565b92915050565b600080600080608085870312156100f1576100f0610254565b5b60006100ff878288016100c2565b945050602085013567ffffffffffffffff8111156101205761011f61024f565b5b61012c87828801610094565b935050604061013d878288016100c2565b925050606085013567ffffffffffffffff81111561015e5761015d61024f565b5b61016a87828801610094565b91505092959194509250565b6000610180610191565b905061018c82826101e5565b919050565b6000604051905090565b600067ffffffffffffffff8211156101b6576101b5610216565b5b6101bf82610259565b9050602081019050919050565b6000819050919050565b82818337600083830152505050565b6101ee82610259565b810181811067ffffffffffffffff8211171561020d5761020c610216565b5b80604052505050565b7f4e487b7100000000000000000000000000000000000000000000000000000000600052604160045260246000fd5b600080fd5b600080fd5b600080fd5b600080fd5b6000601f19601f8301169050919050565b610273816101cc565b811461027e57600080fd5b5056fea2646970667358221220b38cf445e949914c3957f0f7d50a2d31462dcf8e3152b7a79df7a18402da82ff64736f6c63430008070033",
					"opcodes": "PUSH1 0x80 PUSH1 0x40 MSTORE CALLVALUE DUP1 ISZERO PUSH2 0x10 JUMPI PUSH1 0x0 DUP1 REVERT JUMPDEST POP PUSH2 0x2B7 DUP1 PUSH2 0x20 PUSH1 0x0 CODECOPY PUSH1 0x0 RETURN INVALID PUSH1 0x80 PUSH1 0x40 MSTORE CALLVALUE DUP1 ISZERO PUSH2 0x10 JUMPI PUSH1 0x0 DUP1 REVERT JUMPDEST POP PUSH1 0x4 CALLDATASIZE LT PUSH2 0x2B JUMPI PUSH1 0x0 CALLDATALOAD PUSH1 0xE0 SHR DUP1 PUSH4 0xB1405B58 EQ PUSH2 0x30 JUMPI JUMPDEST PUSH1 0x0 DUP1 REVERT JUMPDEST PUSH2 0x4A PUSH1 0x4 DUP1 CALLDATASIZE SUB DUP2 ADD SWAP1 PUSH2 0x45 SWAP2 SWAP1 PUSH2 0xD7 JUMP JUMPDEST PUSH2 0x4C JUMP JUMPDEST STOP JUMPDEST POP POP POP POP JUMP JUMPDEST PUSH1 0x0 PUSH2 0x65 PUSH2 0x60 DUP5 PUSH2 0x19B JUMP JUMPDEST PUSH2 0x176 JUMP JUMPDEST SWAP1 POP DUP3 DUP2 MSTORE PUSH1 0x20 DUP2 ADD DUP5 DUP5 DUP5 ADD GT ISZERO PUSH2 0x81 JUMPI PUSH2 0x80 PUSH2 0x24A JUMP JUMPDEST JUMPDEST PUSH2 0x8C DUP5 DUP3 DUP6 PUSH2 0x1D6 JUMP JUMPDEST POP SWAP4 SWAP3 POP POP POP JUMP JUMPDEST PUSH1 0x0 DUP3 PUSH1 0x1F DUP4 ADD SLT PUSH2 0xA9 JUMPI PUSH2 0xA8 PUSH2 0x245 JUMP JUMPDEST JUMPDEST DUP2 CALLDATALOAD PUSH2 0xB9 DUP5 DUP3 PUSH1 0x20 DUP7 ADD PUSH2 0x52 JUMP JUMPDEST SWAP2 POP POP SWAP3 SWAP2 POP POP JUMP JUMPDEST PUSH1 0x0 DUP2 CALLDATALOAD SWAP1 POP PUSH2 0xD1 DUP2 PUSH2 0x26A JUMP JUMPDEST SWAP3 SWAP2 POP POP JUMP JUMPDEST PUSH1 0x0 DUP1 PUSH1 0x0 DUP1 PUSH1 0x80 DUP6 DUP8 SUB SLT ISZERO PUSH2 0xF1 JUMPI PUSH2 0xF0 PUSH2 0x254 JUMP JUMPDEST JUMPDEST PUSH1 0x0 PUSH2 0xFF DUP8 DUP3 DUP9 ADD PUSH2 0xC2 JUMP JUMPDEST SWAP5 POP POP PUSH1 0x20 DUP6 ADD CALLDATALOAD PUSH8 0xFFFFFFFFFFFFFFFF DUP2 GT ISZERO PUSH2 0x120 JUMPI PUSH2 0x11F PUSH2 0x24F JUMP JUMPDEST JUMPDEST PUSH2 0x12C DUP8 DUP3 DUP9 ADD PUSH2 0x94 JUMP JUMPDEST SWAP4 POP POP PUSH1 0x40 PUSH2 0x13D DUP8 DUP3 DUP9 ADD PUSH2 0xC2 JUMP JUMPDEST SWAP3 POP POP PUSH1 0x60 DUP6 ADD CALLDATALOAD PUSH8 0xFFFFFFFFFFFFFFFF DUP2 GT ISZERO PUSH2 0x15E JUMPI PUSH2 0x15D PUSH2 0x24F JUMP JUMPDEST JUMPDEST PUSH2 0x16A DUP8 DUP3 DUP9 ADD PUSH2 0x94 JUMP JUMPDEST SWAP2 POP POP SWAP3 SWAP6 SWAP2 SWAP5 POP SWAP3 POP JUMP JUMPDEST PUSH1 0x0 PUSH2 0x180 PUSH2 0x191 JUMP JUMPDEST SWAP1 POP PUSH2 0x18C DUP3 DUP3 PUSH2 0x1E5 JUMP JUMPDEST SWAP2 SWAP1 POP JUMP JUMPDEST PUSH1 0x0 PUSH1 0x40 MLOAD SWAP1 POP SWAP1 JUMP JUMPDEST PUSH1 0x0 PUSH8 0xFFFFFFFFFFFFFFFF DUP3 GT ISZERO PUSH2 0x1B6 JUMPI PUSH2 0x1B5 PUSH2 0x216 JUMP JUMPDEST JUMPDEST PUSH2 0x1BF DUP3 PUSH2 0x259 JUMP JUMPDEST SWAP1 POP PUSH1 0x20 DUP2 ADD SWAP1 POP SWAP2 SWAP1 POP JUMP JUMPDEST PUSH1 0x0 DUP2 SWAP1 POP SWAP2 SWAP1 POP JUMP JUMPDEST DUP3 DUP2 DUP4 CALLDATACOPY PUSH1 0x0 DUP4 DUP4 ADD MSTORE POP POP POP JUMP JUMPDEST PUSH2 0x1EE DUP3 PUSH2 0x259 JUMP JUMPDEST DUP2 ADD DUP2 DUP2 LT PUSH8 0xFFFFFFFFFFFFFFFF DUP3 GT OR ISZERO PUSH2 0x20D JUMPI PUSH2 0x20C PUSH2 0x216 JUMP JUMPDEST JUMPDEST DUP1 PUSH1 0x40 MSTORE POP POP POP JUMP JUMPDEST PUSH32 0x4E487B7100000000000000000000000000000000000000000000000000000000 PUSH1 0x0 MSTORE PUSH1 0x41 PUSH1 0x4 MSTORE PUSH1 0x24 PUSH1 0x0 REVERT JUMPDEST PUSH1 0x0 DUP1 REVERT JUMPDEST PUSH1 0x0 DUP1 REVERT JUMPDEST PUSH1 0x0 DUP1 REVERT JUMPDEST PUSH1 0x0 DUP1 REVERT JUMPDEST PUSH1 0x0 PUSH1 0x1F NOT PUSH1 0x1F DUP4 ADD AND SWAP1 POP SWAP2 SWAP1 POP JUMP JUMPDEST PUSH2 0x273 DUP2 PUSH2 0x1CC JUMP JUMPDEST DUP2 EQ PUSH2 0x27E JUMPI PUSH1 0x0 DUP1 REVERT JUMPDEST POP JUMP INVALID LOG2 PUSH5 0x6970667358 0x22 SLT KECCAK256 0xB3 DUP13 DELEGATECALL GASLIMIT 0xE9 0x49 SWAP2 0x4C CODECOPY JUMPI CREATE 0xF7 0xD5 EXP 0x2D BALANCE CHAINID 0x2D 0xCF DUP15 BALANCE MSTORE 0xB7 0xA7 SWAP14 0xF7 LOG1 DUP5 MUL 0xDA DUP3 SELFDESTRUCT PUSH5 0x736F6C6343 STOP ADDMOD SMOD STOP CALLER "
				},
				"gasEstimates": {
					"creation": {
						"codeDepositCost": "139000",
						"executionCost": "183",
						"totalCost": "139183"
					},
					"external": {
						"set(uint256,string,uint256,string)": "infinite"
					}
				},
				"methodIdentifiers": {
					"set(uint256,string,uint256,string)": "b1405b58"
				}
			},
			"storageLayout": {
				"storage": [
					{
						"astId": 13,
						"contract": "mappingprac.sol:Mapping",
						"label": "my_studio",
						"offset": 0,
						"slot": "0",
						"type": "t_mapping(t_uint256,t_struct(studio)8_storage)"
					}
				],
				"types": {
					"t_mapping(t_uint256,t_struct(studio)8_storage)": {
						"encoding": "mapping",
						"key": "t_uint256",
						"label": "mapping(uint256 => struct Mapping.studio)",
						"numberOfBytes": "32",
						"value": "t_struct(studio)8_storage"
					},
					"t_string_storage": {
						"encoding": "bytes",
						"label": "string",
						"numberOfBytes": "32"
					},
					"t_struct(studio)8_storage": {
						"encoding": "inplace",
						"label": "struct Mapping.studio",
						"members": [
							{
								"astId": 3,
								"contract": "mappingprac.sol:Mapping",
								"label": "camera",
								"offset": 0,
								"slot": "0",
								"type": "t_string_storage"
							},
							{
								"astId": 5,
								"contract": "mappingprac.sol:Mapping",
								"label": "model",
								"offset": 0,
								"slot": "1",
								"type": "t_uint256"
							},
							{
								"astId": 7,
								"contract": "mappingprac.sol:Mapping",
								"label": "studioname",
								"offset": 0,
								"slot": "2",
								"type": "t_string_storage"
							}
						],
						"numberOfBytes": "96"
					},
					"t_uint256": {
						"encoding": "inplace",
						"label": "uint256",
						"numberOfBytes": "32"
					}
				}
			},
			"userdoc": {
				"kind": "user",
				"methods": {},
				"version": 1
			}
		}
	}
}