{
	"gist.sol": {
		"Demo": {
			"abi": [
				{
					"inputs": [
						{
							"internalType": "uint256",
							"name": "_roll",
							"type": "uint256"
						},
						{
							"internalType": "string",
							"name": "_name",
							"type": "string"
						}
					],
					"stateMutability": "nonpayable",
					"type": "constructor"
				},
				{
					"inputs": [
						{
							"internalType": "uint256",
							"name": "_roll",
							"type": "uint256"
						},
						{
							"internalType": "string",
							"name": "_name",
							"type": "string"
						}
					],
					"name": "change",
					"outputs": [],
					"stateMutability": "nonpayable",
					"type": "function"
				},
				{
					"inputs": [],
					"name": "s1",
					"outputs": [
						{
							"internalType": "uint256",
							"name": "roll",
							"type": "uint256"
						},
						{
							"internalType": "string",
							"name": "name",
							"type": "string"
						}
					],
					"stateMutability": "view",
					"type": "function"
				}
			],
			"devdoc": {
				"kind": "dev",
				"methods": {},
				"version": 1
			},
			"evm": {
				"assembly": "    /* \"gist.sol\":130:506  contract Demo {... */\n  mstore(0x40, 0x80)\n    /* \"gist.sol\":179:280  constructor (uint _roll,string memory _name){... */\n  callvalue\n  dup1\n  iszero\n  tag_1\n  jumpi\n  0x00\n  dup1\n  revert\ntag_1:\n  pop\n  mload(0x40)\n  sub(codesize, bytecodeSize)\n  dup1\n  bytecodeSize\n  dup4\n  codecopy\n  dup2\n  dup2\n  add\n  0x40\n  mstore\n  dup2\n  add\n  swap1\n  tag_2\n  swap2\n  swap1\n  tag_3\n  jump\t// in\ntag_2:\n    /* \"gist.sol\":243:248  _roll */\n  dup2\n    /* \"gist.sol\":234:236  s1 */\n  0x00\n    /* \"gist.sol\":234:241  s1.roll */\n  dup1\n  add\n    /* \"gist.sol\":234:248  s1.roll= _roll */\n  dup2\n  swap1\n  sstore\n  pop\n    /* \"gist.sol\":267:272  _name */\n  dup1\n    /* \"gist.sol\":259:261  s1 */\n  0x00\n    /* \"gist.sol\":259:266  s1.name */\n  0x01\n  add\n    /* \"gist.sol\":259:272  s1.name=_name */\n  swap1\n  dup2\n  tag_6\n  swap2\n  swap1\n  tag_7\n  jump\t// in\ntag_6:\n  pop\n    /* \"gist.sol\":179:280  constructor (uint _roll,string memory _name){... */\n  pop\n  pop\n    /* \"gist.sol\":130:506  contract Demo {... */\n  jump(tag_8)\n    /* \"#utility.yul\":7:82   */\ntag_9:\n    /* \"#utility.yul\":40:46   */\n  0x00\n    /* \"#utility.yul\":73:75   */\n  0x40\n    /* \"#utility.yul\":67:76   */\n  mload\n    /* \"#utility.yul\":57:76   */\n  swap1\n  pop\n    /* \"#utility.yul\":7:82   */\n  swap1\n  jump\t// out\n    /* \"#utility.yul\":88:205   */\ntag_10:\n    /* \"#utility.yul\":197:198   */\n  0x00\n    /* \"#utility.yul\":194:195   */\n  dup1\n    /* \"#utility.yul\":187:199   */\n  revert\n    /* \"#utility.yul\":211:328   */\ntag_11:\n    /* \"#utility.yul\":320:321   */\n  0x00\n    /* \"#utility.yul\":317:318   */\n  dup1\n    /* \"#utility.yul\":310:322   */\n  revert\n    /* \"#utility.yul\":334:411   */\ntag_12:\n    /* \"#utility.yul\":371:378   */\n  0x00\n    /* \"#utility.yul\":400:405   */\n  dup2\n    /* \"#utility.yul\":389:405   */\n  swap1\n  pop\n    /* \"#utility.yul\":334:411   */\n  swap2\n  swap1\n  pop\n  jump\t// out\n    /* \"#utility.yul\":417:539   */\ntag_13:\n    /* \"#utility.yul\":490:514   */\n  tag_49\n    /* \"#utility.yul\":508:513   */\n  dup2\n    /* \"#utility.yul\":490:514   */\n  tag_12\n  jump\t// in\ntag_49:\n    /* \"#utility.yul\":483:488   */\n  dup2\n    /* \"#utility.yul\":480:515   */\n  eq\n    /* \"#utility.yul\":470:533   */\n  tag_50\n  jumpi\n    /* \"#utility.yul\":529:530   */\n  0x00\n    /* \"#utility.yul\":526:527   */\n  dup1\n    /* \"#utility.yul\":519:531   */\n  revert\n    /* \"#utility.yul\":470:533   */\ntag_50:\n    /* \"#utility.yul\":417:539   */\n  pop\n  jump\t// out\n    /* \"#utility.yul\":545:688   */\ntag_14:\n    /* \"#utility.yul\":602:607   */\n  0x00\n    /* \"#utility.yul\":633:639   */\n  dup2\n    /* \"#utility.yul\":627:640   */\n  mload\n    /* \"#utility.yul\":618:640   */\n  swap1\n  pop\n    /* \"#utility.yul\":649:682   */\n  tag_52\n    /* \"#utility.yul\":676:681   */\n  dup2\n    /* \"#utility.yul\":649:682   */\n  tag_13\n  jump\t// in\ntag_52:\n    /* \"#utility.yul\":545:688   */\n  swap3\n  swap2\n  pop\n  pop\n  jump\t// out\n    /* \"#utility.yul\":694:811   */\ntag_15:\n    /* \"#utility.yul\":803:804   */\n  0x00\n    /* \"#utility.yul\":800:801   */\n  dup1\n    /* \"#utility.yul\":793:805   */\n  revert\n    /* \"#utility.yul\":817:934   */\ntag_16:\n    /* \"#utility.yul\":926:927   */\n  0x00\n    /* \"#utility.yul\":923:924   */\n  dup1\n    /* \"#utility.yul\":916:928   */\n  revert\n    /* \"#utility.yul\":940:1042   */\ntag_17:\n    /* \"#utility.yul\":981:987   */\n  0x00\n    /* \"#utility.yul\":1032:1034   */\n  0x1f\n    /* \"#utility.yul\":1028:1035   */\n  not\n    /* \"#utility.yul\":1023:1025   */\n  0x1f\n    /* \"#utility.yul\":1016:1021   */\n  dup4\n    /* \"#utility.yul\":1012:1026   */\n  add\n    /* \"#utility.yul\":1008:1036   */\n  and\n    /* \"#utility.yul\":998:1036   */\n  swap1\n  pop\n    /* \"#utility.yul\":940:1042   */\n  swap2\n  swap1\n  pop\n  jump\t// out\n    /* \"#utility.yul\":1048:1228   */\ntag_18:\n    /* \"#utility.yul\":1096:1173   */\n  0x4e487b7100000000000000000000000000000000000000000000000000000000\n    /* \"#utility.yul\":1093:1094   */\n  0x00\n    /* \"#utility.yul\":1086:1174   */\n  mstore\n    /* \"#utility.yul\":1193:1197   */\n  0x41\n    /* \"#utility.yul\":1190:1191   */\n  0x04\n    /* \"#utility.yul\":1183:1198   */\n  mstore\n    /* \"#utility.yul\":1217:1221   */\n  0x24\n    /* \"#utility.yul\":1214:1215   */\n  0x00\n    /* \"#utility.yul\":1207:1222   */\n  revert\n    /* \"#utility.yul\":1234:1515   */\ntag_19:\n    /* \"#utility.yul\":1317:1344   */\n  tag_58\n    /* \"#utility.yul\":1339:1343   */\n  dup3\n    /* \"#utility.yul\":1317:1344   */\n  tag_17\n  jump\t// in\ntag_58:\n    /* \"#utility.yul\":1309:1315   */\n  dup2\n    /* \"#utility.yul\":1305:1345   */\n  add\n    /* \"#utility.yul\":1447:1453   */\n  dup2\n    /* \"#utility.yul\":1435:1445   */\n  dup2\n    /* \"#utility.yul\":1432:1454   */\n  lt\n    /* \"#utility.yul\":1411:1429   */\n  0xffffffffffffffff\n    /* \"#utility.yul\":1399:1409   */\n  dup3\n    /* \"#utility.yul\":1396:1430   */\n  gt\n    /* \"#utility.yul\":1393:1455   */\n  or\n    /* \"#utility.yul\":1390:1478   */\n  iszero\n  tag_59\n  jumpi\n    /* \"#utility.yul\":1458:1476   */\n  tag_60\n  tag_18\n  jump\t// in\ntag_60:\n    /* \"#utility.yul\":1390:1478   */\ntag_59:\n    /* \"#utility.yul\":1498:1508   */\n  dup1\n    /* \"#utility.yul\":1494:1496   */\n  0x40\n    /* \"#utility.yul\":1487:1509   */\n  mstore\n    /* \"#utility.yul\":1277:1515   */\n  pop\n    /* \"#utility.yul\":1234:1515   */\n  pop\n  pop\n  jump\t// out\n    /* \"#utility.yul\":1521:1650   */\ntag_20:\n    /* \"#utility.yul\":1555:1561   */\n  0x00\n    /* \"#utility.yul\":1582:1602   */\n  tag_62\n  tag_9\n  jump\t// in\ntag_62:\n    /* \"#utility.yul\":1572:1602   */\n  swap1\n  pop\n    /* \"#utility.yul\":1611:1644   */\n  tag_63\n    /* \"#utility.yul\":1639:1643   */\n  dup3\n    /* \"#utility.yul\":1631:1637   */\n  dup3\n    /* \"#utility.yul\":1611:1644   */\n  tag_19\n  jump\t// in\ntag_63:\n    /* \"#utility.yul\":1521:1650   */\n  swap2\n  swap1\n  pop\n  jump\t// out\n    /* \"#utility.yul\":1656:1964   */\ntag_21:\n    /* \"#utility.yul\":1718:1722   */\n  0x00\n    /* \"#utility.yul\":1808:1826   */\n  0xffffffffffffffff\n    /* \"#utility.yul\":1800:1806   */\n  dup3\n    /* \"#utility.yul\":1797:1827   */\n  gt\n    /* \"#utility.yul\":1794:1850   */\n  iszero\n  tag_65\n  jumpi\n    /* \"#utility.yul\":1830:1848   */\n  tag_66\n  tag_18\n  jump\t// in\ntag_66:\n    /* \"#utility.yul\":1794:1850   */\ntag_65:\n    /* \"#utility.yul\":1868:1897   */\n  tag_67\n    /* \"#utility.yul\":1890:1896   */\n  dup3\n    /* \"#utility.yul\":1868:1897   */\n  tag_17\n  jump\t// in\ntag_67:\n    /* \"#utility.yul\":1860:1897   */\n  swap1\n  pop\n    /* \"#utility.yul\":1952:1956   */\n  0x20\n    /* \"#utility.yul\":1946:1950   */\n  dup2\n    /* \"#utility.yul\":1942:1957   */\n  add\n    /* \"#utility.yul\":1934:1957   */\n  swap1\n  pop\n    /* \"#utility.yul\":1656:1964   */\n  swap2\n  swap1\n  pop\n  jump\t// out\n    /* \"#utility.yul\":1970:2277   */\ntag_22:\n    /* \"#utility.yul\":2038:2039   */\n  0x00\n    /* \"#utility.yul\":2048:2161   */\ntag_69:\n    /* \"#utility.yul\":2062:2068   */\n  dup4\n    /* \"#utility.yul\":2059:2060   */\n  dup2\n    /* \"#utility.yul\":2056:2069   */\n  lt\n    /* \"#utility.yul\":2048:2161   */\n  iszero\n  tag_71\n  jumpi\n    /* \"#utility.yul\":2147:2148   */\n  dup1\n    /* \"#utility.yul\":2142:2145   */\n  dup3\n    /* \"#utility.yul\":2138:2149   */\n  add\n    /* \"#utility.yul\":2132:2150   */\n  mload\n    /* \"#utility.yul\":2128:2129   */\n  dup2\n    /* \"#utility.yul\":2123:2126   */\n  dup5\n    /* \"#utility.yul\":2119:2130   */\n  add\n    /* \"#utility.yul\":2112:2151   */\n  mstore\n    /* \"#utility.yul\":2084:2086   */\n  0x20\n    /* \"#utility.yul\":2081:2082   */\n  dup2\n    /* \"#utility.yul\":2077:2087   */\n  add\n    /* \"#utility.yul\":2072:2087   */\n  swap1\n  pop\n    /* \"#utility.yul\":2048:2161   */\n  jump(tag_69)\ntag_71:\n    /* \"#utility.yul\":2179:2185   */\n  dup4\n    /* \"#utility.yul\":2176:2177   */\n  dup2\n    /* \"#utility.yul\":2173:2186   */\n  gt\n    /* \"#utility.yul\":2170:2271   */\n  iszero\n  tag_72\n  jumpi\n    /* \"#utility.yul\":2259:2260   */\n  0x00\n    /* \"#utility.yul\":2250:2256   */\n  dup5\n    /* \"#utility.yul\":2245:2248   */\n  dup5\n    /* \"#utility.yul\":2241:2257   */\n  add\n    /* \"#utility.yul\":2234:2261   */\n  mstore\n    /* \"#utility.yul\":2170:2271   */\ntag_72:\n    /* \"#utility.yul\":2019:2277   */\n  pop\n    /* \"#utility.yul\":1970:2277   */\n  pop\n  pop\n  pop\n  jump\t// out\n    /* \"#utility.yul\":2283:2704   */\ntag_23:\n    /* \"#utility.yul\":2372:2377   */\n  0x00\n    /* \"#utility.yul\":2397:2463   */\n  tag_74\n    /* \"#utility.yul\":2413:2462   */\n  tag_75\n    /* \"#utility.yul\":2455:2461   */\n  dup5\n    /* \"#utility.yul\":2413:2462   */\n  tag_21\n  jump\t// in\ntag_75:\n    /* \"#utility.yul\":2397:2463   */\n  tag_20\n  jump\t// in\ntag_74:\n    /* \"#utility.yul\":2388:2463   */\n  swap1\n  pop\n    /* \"#utility.yul\":2486:2492   */\n  dup3\n    /* \"#utility.yul\":2479:2484   */\n  dup2\n    /* \"#utility.yul\":2472:2493   */\n  mstore\n    /* \"#utility.yul\":2524:2528   */\n  0x20\n    /* \"#utility.yul\":2517:2522   */\n  dup2\n    /* \"#utility.yul\":2513:2529   */\n  add\n    /* \"#utility.yul\":2562:2565   */\n  dup5\n    /* \"#utility.yul\":2553:2559   */\n  dup5\n    /* \"#utility.yul\":2548:2551   */\n  dup5\n    /* \"#utility.yul\":2544:2560   */\n  add\n    /* \"#utility.yul\":2541:2566   */\n  gt\n    /* \"#utility.yul\":2538:2650   */\n  iszero\n  tag_76\n  jumpi\n    /* \"#utility.yul\":2569:2648   */\n  tag_77\n  tag_16\n  jump\t// in\ntag_77:\n    /* \"#utility.yul\":2538:2650   */\ntag_76:\n    /* \"#utility.yul\":2659:2698   */\n  tag_78\n    /* \"#utility.yul\":2691:2697   */\n  dup5\n    /* \"#utility.yul\":2686:2689   */\n  dup3\n    /* \"#utility.yul\":2681:2684   */\n  dup6\n    /* \"#utility.yul\":2659:2698   */\n  tag_22\n  jump\t// in\ntag_78:\n    /* \"#utility.yul\":2378:2704   */\n  pop\n    /* \"#utility.yul\":2283:2704   */\n  swap4\n  swap3\n  pop\n  pop\n  pop\n  jump\t// out\n    /* \"#utility.yul\":2724:3079   */\ntag_24:\n    /* \"#utility.yul\":2791:2796   */\n  0x00\n    /* \"#utility.yul\":2840:2843   */\n  dup3\n    /* \"#utility.yul\":2833:2837   */\n  0x1f\n    /* \"#utility.yul\":2825:2831   */\n  dup4\n    /* \"#utility.yul\":2821:2838   */\n  add\n    /* \"#utility.yul\":2817:2844   */\n  slt\n    /* \"#utility.yul\":2807:2929   */\n  tag_80\n  jumpi\n    /* \"#utility.yul\":2848:2927   */\n  tag_81\n  tag_15\n  jump\t// in\ntag_81:\n    /* \"#utility.yul\":2807:2929   */\ntag_80:\n    /* \"#utility.yul\":2958:2964   */\n  dup2\n    /* \"#utility.yul\":2952:2965   */\n  mload\n    /* \"#utility.yul\":2983:3073   */\n  tag_82\n    /* \"#utility.yul\":3069:3072   */\n  dup5\n    /* \"#utility.yul\":3061:3067   */\n  dup3\n    /* \"#utility.yul\":3054:3058   */\n  0x20\n    /* \"#utility.yul\":3046:3052   */\n  dup7\n    /* \"#utility.yul\":3042:3059   */\n  add\n    /* \"#utility.yul\":2983:3073   */\n  tag_23\n  jump\t// in\ntag_82:\n    /* \"#utility.yul\":2974:3073   */\n  swap2\n  pop\n    /* \"#utility.yul\":2797:3079   */\n  pop\n    /* \"#utility.yul\":2724:3079   */\n  swap3\n  swap2\n  pop\n  pop\n  jump\t// out\n    /* \"#utility.yul\":3085:3765   */\ntag_3:\n    /* \"#utility.yul\":3174:3180   */\n  0x00\n    /* \"#utility.yul\":3182:3188   */\n  dup1\n    /* \"#utility.yul\":3231:3233   */\n  0x40\n    /* \"#utility.yul\":3219:3228   */\n  dup4\n    /* \"#utility.yul\":3210:3217   */\n  dup6\n    /* \"#utility.yul\":3206:3229   */\n  sub\n    /* \"#utility.yul\":3202:3234   */\n  slt\n    /* \"#utility.yul\":3199:3318   */\n  iszero\n  tag_84\n  jumpi\n    /* \"#utility.yul\":3237:3316   */\n  tag_85\n  tag_10\n  jump\t// in\ntag_85:\n    /* \"#utility.yul\":3199:3318   */\ntag_84:\n    /* \"#utility.yul\":3357:3358   */\n  0x00\n    /* \"#utility.yul\":3382:3446   */\n  tag_86\n    /* \"#utility.yul\":3438:3445   */\n  dup6\n    /* \"#utility.yul\":3429:3435   */\n  dup3\n    /* \"#utility.yul\":3418:3427   */\n  dup7\n    /* \"#utility.yul\":3414:3436   */\n  add\n    /* \"#utility.yul\":3382:3446   */\n  tag_14\n  jump\t// in\ntag_86:\n    /* \"#utility.yul\":3372:3446   */\n  swap3\n  pop\n    /* \"#utility.yul\":3328:3456   */\n  pop\n    /* \"#utility.yul\":3516:3518   */\n  0x20\n    /* \"#utility.yul\":3505:3514   */\n  dup4\n    /* \"#utility.yul\":3501:3519   */\n  add\n    /* \"#utility.yul\":3495:3520   */\n  mload\n    /* \"#utility.yul\":3547:3565   */\n  0xffffffffffffffff\n    /* \"#utility.yul\":3539:3545   */\n  dup2\n    /* \"#utility.yul\":3536:3566   */\n  gt\n    /* \"#utility.yul\":3533:3650   */\n  iszero\n  tag_87\n  jumpi\n    /* \"#utility.yul\":3569:3648   */\n  tag_88\n  tag_11\n  jump\t// in\ntag_88:\n    /* \"#utility.yul\":3533:3650   */\ntag_87:\n    /* \"#utility.yul\":3674:3748   */\n  tag_89\n    /* \"#utility.yul\":3740:3747   */\n  dup6\n    /* \"#utility.yul\":3731:3737   */\n  dup3\n    /* \"#utility.yul\":3720:3729   */\n  dup7\n    /* \"#utility.yul\":3716:3738   */\n  add\n    /* \"#utility.yul\":3674:3748   */\n  tag_24\n  jump\t// in\ntag_89:\n    /* \"#utility.yul\":3664:3748   */\n  swap2\n  pop\n    /* \"#utility.yul\":3466:3758   */\n  pop\n    /* \"#utility.yul\":3085:3765   */\n  swap3\n  pop\n  swap3\n  swap1\n  pop\n  jump\t// out\n    /* \"#utility.yul\":3771:3870   */\ntag_25:\n    /* \"#utility.yul\":3823:3829   */\n  0x00\n    /* \"#utility.yul\":3857:3862   */\n  dup2\n    /* \"#utility.yul\":3851:3863   */\n  mload\n    /* \"#utility.yul\":3841:3863   */\n  swap1\n  pop\n    /* \"#utility.yul\":3771:3870   */\n  swap2\n  swap1\n  pop\n  jump\t// out\n    /* \"#utility.yul\":3876:4056   */\ntag_26:\n    /* \"#utility.yul\":3924:4001   */\n  0x4e487b7100000000000000000000000000000000000000000000000000000000\n    /* \"#utility.yul\":3921:3922   */\n  0x00\n    /* \"#utility.yul\":3914:4002   */\n  mstore\n    /* \"#utility.yul\":4021:4025   */\n  0x22\n    /* \"#utility.yul\":4018:4019   */\n  0x04\n    /* \"#utility.yul\":4011:4026   */\n  mstore\n    /* \"#utility.yul\":4045:4049   */\n  0x24\n    /* \"#utility.yul\":4042:4043   */\n  0x00\n    /* \"#utility.yul\":4035:4050   */\n  revert\n    /* \"#utility.yul\":4062:4382   */\ntag_27:\n    /* \"#utility.yul\":4106:4112   */\n  0x00\n    /* \"#utility.yul\":4143:4144   */\n  0x02\n    /* \"#utility.yul\":4137:4141   */\n  dup3\n    /* \"#utility.yul\":4133:4145   */\n  div\n    /* \"#utility.yul\":4123:4145   */\n  swap1\n  pop\n    /* \"#utility.yul\":4190:4191   */\n  0x01\n    /* \"#utility.yul\":4184:4188   */\n  dup3\n    /* \"#utility.yul\":4180:4192   */\n  and\n    /* \"#utility.yul\":4211:4229   */\n  dup1\n    /* \"#utility.yul\":4201:4282   */\n  tag_93\n  jumpi\n    /* \"#utility.yul\":4267:4271   */\n  0x7f\n    /* \"#utility.yul\":4259:4265   */\n  dup3\n    /* \"#utility.yul\":4255:4272   */\n  and\n    /* \"#utility.yul\":4245:4272   */\n  swap2\n  pop\n    /* \"#utility.yul\":4201:4282   */\ntag_93:\n    /* \"#utility.yul\":4329:4331   */\n  0x20\n    /* \"#utility.yul\":4321:4327   */\n  dup3\n    /* \"#utility.yul\":4318:4332   */\n  lt\n    /* \"#utility.yul\":4298:4316   */\n  dup2\n    /* \"#utility.yul\":4295:4333   */\n  sub\n    /* \"#utility.yul\":4292:4376   */\n  tag_94\n  jumpi\n    /* \"#utility.yul\":4348:4366   */\n  tag_95\n  tag_26\n  jump\t// in\ntag_95:\n    /* \"#utility.yul\":4292:4376   */\ntag_94:\n    /* \"#utility.yul\":4113:4382   */\n  pop\n    /* \"#utility.yul\":4062:4382   */\n  swap2\n  swap1\n  pop\n  jump\t// out\n    /* \"#utility.yul\":4388:4529   */\ntag_28:\n    /* \"#utility.yul\":4437:4441   */\n  0x00\n    /* \"#utility.yul\":4460:4463   */\n  dup2\n    /* \"#utility.yul\":4452:4463   */\n  swap1\n  pop\n    /* \"#utility.yul\":4483:4486   */\n  dup2\n    /* \"#utility.yul\":4480:4481   */\n  0x00\n    /* \"#utility.yul\":4473:4487   */\n  mstore\n    /* \"#utility.yul\":4517:4521   */\n  0x20\n    /* \"#utility.yul\":4514:4515   */\n  0x00\n    /* \"#utility.yul\":4504:4522   */\n  keccak256\n    /* \"#utility.yul\":4496:4522   */\n  swap1\n  pop\n    /* \"#utility.yul\":4388:4529   */\n  swap2\n  swap1\n  pop\n  jump\t// out\n    /* \"#utility.yul\":4535:4628   */\ntag_29:\n    /* \"#utility.yul\":4572:4578   */\n  0x00\n    /* \"#utility.yul\":4619:4621   */\n  0x20\n    /* \"#utility.yul\":4614:4616   */\n  0x1f\n    /* \"#utility.yul\":4607:4612   */\n  dup4\n    /* \"#utility.yul\":4603:4617   */\n  add\n    /* \"#utility.yul\":4599:4622   */\n  div\n    /* \"#utility.yul\":4589:4622   */\n  swap1\n  pop\n    /* \"#utility.yul\":4535:4628   */\n  swap2\n  swap1\n  pop\n  jump\t// out\n    /* \"#utility.yul\":4634:4741   */\ntag_30:\n    /* \"#utility.yul\":4678:4686   */\n  0x00\n    /* \"#utility.yul\":4728:4733   */\n  dup3\n    /* \"#utility.yul\":4722:4726   */\n  dup3\n    /* \"#utility.yul\":4718:4734   */\n  shl\n    /* \"#utility.yul\":4697:4734   */\n  swap1\n  pop\n    /* \"#utility.yul\":4634:4741   */\n  swap3\n  swap2\n  pop\n  pop\n  jump\t// out\n    /* \"#utility.yul\":4747:5140   */\ntag_31:\n    /* \"#utility.yul\":4816:4822   */\n  0x00\n    /* \"#utility.yul\":4866:4867   */\n  0x08\n    /* \"#utility.yul\":4854:4864   */\n  dup4\n    /* \"#utility.yul\":4850:4868   */\n  mul\n    /* \"#utility.yul\":4889:4986   */\n  tag_100\n    /* \"#utility.yul\":4919:4985   */\n  0xffffffffffffffffffffffffffffffffffffffffffffffffffffffffffffffff\n    /* \"#utility.yul\":4908:4917   */\n  dup3\n    /* \"#utility.yul\":4889:4986   */\n  tag_30\n  jump\t// in\ntag_100:\n    /* \"#utility.yul\":5007:5046   */\n  tag_101\n    /* \"#utility.yul\":5037:5045   */\n  dup7\n    /* \"#utility.yul\":5026:5035   */\n  dup4\n    /* \"#utility.yul\":5007:5046   */\n  tag_30\n  jump\t// in\ntag_101:\n    /* \"#utility.yul\":4995:5046   */\n  swap6\n  pop\n    /* \"#utility.yul\":5079:5083   */\n  dup1\n    /* \"#utility.yul\":5075:5084   */\n  not\n    /* \"#utility.yul\":5068:5073   */\n  dup5\n    /* \"#utility.yul\":5064:5085   */\n  and\n    /* \"#utility.yul\":5055:5085   */\n  swap4\n  pop\n    /* \"#utility.yul\":5128:5132   */\n  dup1\n    /* \"#utility.yul\":5118:5126   */\n  dup7\n    /* \"#utility.yul\":5114:5133   */\n  and\n    /* \"#utility.yul\":5107:5112   */\n  dup5\n    /* \"#utility.yul\":5104:5134   */\n  or\n    /* \"#utility.yul\":5094:5134   */\n  swap3\n  pop\n    /* \"#utility.yul\":4823:5140   */\n  pop\n  pop\n    /* \"#utility.yul\":4747:5140   */\n  swap4\n  swap3\n  pop\n  pop\n  pop\n  jump\t// out\n    /* \"#utility.yul\":5146:5206   */\ntag_32:\n    /* \"#utility.yul\":5174:5177   */\n  0x00\n    /* \"#utility.yul\":5195:5200   */\n  dup2\n    /* \"#utility.yul\":5188:5200   */\n  swap1\n  pop\n    /* \"#utility.yul\":5146:5206   */\n  swap2\n  swap1\n  pop\n  jump\t// out\n    /* \"#utility.yul\":5212:5354   */\ntag_33:\n    /* \"#utility.yul\":5262:5271   */\n  0x00\n    /* \"#utility.yul\":5295:5348   */\n  tag_104\n    /* \"#utility.yul\":5313:5347   */\n  tag_105\n    /* \"#utility.yul\":5322:5346   */\n  tag_106\n    /* \"#utility.yul\":5340:5345   */\n  dup5\n    /* \"#utility.yul\":5322:5346   */\n  tag_12\n  jump\t// in\ntag_106:\n    /* \"#utility.yul\":5313:5347   */\n  tag_32\n  jump\t// in\ntag_105:\n    /* \"#utility.yul\":5295:5348   */\n  tag_12\n  jump\t// in\ntag_104:\n    /* \"#utility.yul\":5282:5348   */\n  swap1\n  pop\n    /* \"#utility.yul\":5212:5354   */\n  swap2\n  swap1\n  pop\n  jump\t// out\n    /* \"#utility.yul\":5360:5435   */\ntag_34:\n    /* \"#utility.yul\":5403:5406   */\n  0x00\n    /* \"#utility.yul\":5424:5429   */\n  dup2\n    /* \"#utility.yul\":5417:5429   */\n  swap1\n  pop\n    /* \"#utility.yul\":5360:5435   */\n  swap2\n  swap1\n  pop\n  jump\t// out\n    /* \"#utility.yul\":5441:5710   */\ntag_35:\n    /* \"#utility.yul\":5551:5590   */\n  tag_109\n    /* \"#utility.yul\":5582:5589   */\n  dup4\n    /* \"#utility.yul\":5551:5590   */\n  tag_33\n  jump\t// in\ntag_109:\n    /* \"#utility.yul\":5612:5703   */\n  tag_110\n    /* \"#utility.yul\":5661:5702   */\n  tag_111\n    /* \"#utility.yul\":5685:5701   */\n  dup3\n    /* \"#utility.yul\":5661:5702   */\n  tag_34\n  jump\t// in\ntag_111:\n    /* \"#utility.yul\":5653:5659   */\n  dup5\n    /* \"#utility.yul\":5646:5650   */\n  dup5\n    /* \"#utility.yul\":5640:5651   */\n  sload\n    /* \"#utility.yul\":5612:5703   */\n  tag_31\n  jump\t// in\ntag_110:\n    /* \"#utility.yul\":5606:5610   */\n  dup3\n    /* \"#utility.yul\":5599:5704   */\n  sstore\n    /* \"#utility.yul\":5517:5710   */\n  pop\n    /* \"#utility.yul\":5441:5710   */\n  pop\n  pop\n  pop\n  jump\t// out\n    /* \"#utility.yul\":5716:5789   */\ntag_36:\n    /* \"#utility.yul\":5761:5764   */\n  0x00\n    /* \"#utility.yul\":5716:5789   */\n  swap1\n  jump\t// out\n    /* \"#utility.yul\":5795:5984   */\ntag_37:\n    /* \"#utility.yul\":5872:5904   */\n  tag_114\n  tag_36\n  jump\t// in\ntag_114:\n    /* \"#utility.yul\":5913:5978   */\n  tag_115\n    /* \"#utility.yul\":5971:5977   */\n  dup2\n    /* \"#utility.yul\":5963:5969   */\n  dup5\n    /* \"#utility.yul\":5957:5961   */\n  dup5\n    /* \"#utility.yul\":5913:5978   */\n  tag_35\n  jump\t// in\ntag_115:\n    /* \"#utility.yul\":5848:5984   */\n  pop\n    /* \"#utility.yul\":5795:5984   */\n  pop\n  pop\n  jump\t// out\n    /* \"#utility.yul\":5990:6176   */\ntag_38:\n    /* \"#utility.yul\":6050:6170   */\ntag_117:\n    /* \"#utility.yul\":6067:6070   */\n  dup2\n    /* \"#utility.yul\":6060:6065   */\n  dup2\n    /* \"#utility.yul\":6057:6071   */\n  lt\n    /* \"#utility.yul\":6050:6170   */\n  iszero\n  tag_119\n  jumpi\n    /* \"#utility.yul\":6121:6160   */\n  tag_120\n    /* \"#utility.yul\":6158:6159   */\n  0x00\n    /* \"#utility.yul\":6151:6156   */\n  dup3\n    /* \"#utility.yul\":6121:6160   */\n  tag_37\n  jump\t// in\ntag_120:\n    /* \"#utility.yul\":6094:6095   */\n  0x01\n    /* \"#utility.yul\":6087:6092   */\n  dup2\n    /* \"#utility.yul\":6083:6096   */\n  add\n    /* \"#utility.yul\":6074:6096   */\n  swap1\n  pop\n    /* \"#utility.yul\":6050:6170   */\n  jump(tag_117)\ntag_119:\n    /* \"#utility.yul\":5990:6176   */\n  pop\n  pop\n  jump\t// out\n    /* \"#utility.yul\":6182:6725   */\ntag_39:\n    /* \"#utility.yul\":6283:6285   */\n  0x1f\n    /* \"#utility.yul\":6278:6281   */\n  dup3\n    /* \"#utility.yul\":6275:6286   */\n  gt\n    /* \"#utility.yul\":6272:6718   */\n  iszero\n  tag_122\n  jumpi\n    /* \"#utility.yul\":6317:6355   */\n  tag_123\n    /* \"#utility.yul\":6349:6354   */\n  dup2\n    /* \"#utility.yul\":6317:6355   */\n  tag_28\n  jump\t// in\ntag_123:\n    /* \"#utility.yul\":6401:6430   */\n  tag_124\n    /* \"#utility.yul\":6419:6429   */\n  dup5\n    /* \"#utility.yul\":6401:6430   */\n  tag_29\n  jump\t// in\ntag_124:\n    /* \"#utility.yul\":6391:6399   */\n  dup2\n    /* \"#utility.yul\":6387:6431   */\n  add\n    /* \"#utility.yul\":6584:6586   */\n  0x20\n    /* \"#utility.yul\":6572:6582   */\n  dup6\n    /* \"#utility.yul\":6569:6587   */\n  lt\n    /* \"#utility.yul\":6566:6615   */\n  iszero\n  tag_125\n  jumpi\n    /* \"#utility.yul\":6605:6613   */\n  dup2\n    /* \"#utility.yul\":6590:6613   */\n  swap1\n  pop\n    /* \"#utility.yul\":6566:6615   */\ntag_125:\n    /* \"#utility.yul\":6628:6708   */\n  tag_126\n    /* \"#utility.yul\":6684:6706   */\n  tag_127\n    /* \"#utility.yul\":6702:6705   */\n  dup6\n    /* \"#utility.yul\":6684:6706   */\n  tag_29\n  jump\t// in\ntag_127:\n    /* \"#utility.yul\":6674:6682   */\n  dup4\n    /* \"#utility.yul\":6670:6707   */\n  add\n    /* \"#utility.yul\":6657:6668   */\n  dup3\n    /* \"#utility.yul\":6628:6708   */\n  tag_38\n  jump\t// in\ntag_126:\n    /* \"#utility.yul\":6287:6718   */\n  pop\n  pop\n    /* \"#utility.yul\":6272:6718   */\ntag_122:\n    /* \"#utility.yul\":6182:6725   */\n  pop\n  pop\n  pop\n  jump\t// out\n    /* \"#utility.yul\":6731:6848   */\ntag_40:\n    /* \"#utility.yul\":6785:6793   */\n  0x00\n    /* \"#utility.yul\":6835:6840   */\n  dup3\n    /* \"#utility.yul\":6829:6833   */\n  dup3\n    /* \"#utility.yul\":6825:6841   */\n  shr\n    /* \"#utility.yul\":6804:6841   */\n  swap1\n  pop\n    /* \"#utility.yul\":6731:6848   */\n  swap3\n  swap2\n  pop\n  pop\n  jump\t// out\n    /* \"#utility.yul\":6854:7023   */\ntag_41:\n    /* \"#utility.yul\":6898:6904   */\n  0x00\n    /* \"#utility.yul\":6931:6982   */\n  tag_130\n    /* \"#utility.yul\":6979:6980   */\n  0x00\n    /* \"#utility.yul\":6975:6981   */\n  not\n    /* \"#utility.yul\":6967:6972   */\n  dup5\n    /* \"#utility.yul\":6964:6965   */\n  0x08\n    /* \"#utility.yul\":6960:6973   */\n  mul\n    /* \"#utility.yul\":6931:6982   */\n  tag_40\n  jump\t// in\ntag_130:\n    /* \"#utility.yul\":6927:6983   */\n  not\n    /* \"#utility.yul\":7012:7016   */\n  dup1\n    /* \"#utility.yul\":7006:7010   */\n  dup4\n    /* \"#utility.yul\":7002:7017   */\n  and\n    /* \"#utility.yul\":6992:7017   */\n  swap2\n  pop\n    /* \"#utility.yul\":6905:7023   */\n  pop\n    /* \"#utility.yul\":6854:7023   */\n  swap3\n  swap2\n  pop\n  pop\n  jump\t// out\n    /* \"#utility.yul\":7028:7323   */\ntag_42:\n    /* \"#utility.yul\":7104:7108   */\n  0x00\n    /* \"#utility.yul\":7250:7279   */\n  tag_132\n    /* \"#utility.yul\":7275:7278   */\n  dup4\n    /* \"#utility.yul\":7269:7273   */\n  dup4\n    /* \"#utility.yul\":7250:7279   */\n  tag_41\n  jump\t// in\ntag_132:\n    /* \"#utility.yul\":7242:7279   */\n  swap2\n  pop\n    /* \"#utility.yul\":7312:7315   */\n  dup3\n    /* \"#utility.yul\":7309:7310   */\n  0x02\n    /* \"#utility.yul\":7305:7316   */\n  mul\n    /* \"#utility.yul\":7299:7303   */\n  dup3\n    /* \"#utility.yul\":7296:7317   */\n  or\n    /* \"#utility.yul\":7288:7317   */\n  swap1\n  pop\n    /* \"#utility.yul\":7028:7323   */\n  swap3\n  swap2\n  pop\n  pop\n  jump\t// out\n    /* \"#utility.yul\":7328:8723   */\ntag_7:\n    /* \"#utility.yul\":7445:7482   */\n  tag_134\n    /* \"#utility.yul\":7478:7481   */\n  dup3\n    /* \"#utility.yul\":7445:7482   */\n  tag_25\n  jump\t// in\ntag_134:\n    /* \"#utility.yul\":7547:7565   */\n  0xffffffffffffffff\n    /* \"#utility.yul\":7539:7545   */\n  dup2\n    /* \"#utility.yul\":7536:7566   */\n  gt\n    /* \"#utility.yul\":7533:7589   */\n  iszero\n  tag_135\n  jumpi\n    /* \"#utility.yul\":7569:7587   */\n  tag_136\n  tag_18\n  jump\t// in\ntag_136:\n    /* \"#utility.yul\":7533:7589   */\ntag_135:\n    /* \"#utility.yul\":7613:7651   */\n  tag_137\n    /* \"#utility.yul\":7645:7649   */\n  dup3\n    /* \"#utility.yul\":7639:7650   */\n  sload\n    /* \"#utility.yul\":7613:7651   */\n  tag_27\n  jump\t// in\ntag_137:\n    /* \"#utility.yul\":7698:7765   */\n  tag_138\n    /* \"#utility.yul\":7758:7764   */\n  dup3\n    /* \"#utility.yul\":7750:7756   */\n  dup3\n    /* \"#utility.yul\":7744:7748   */\n  dup6\n    /* \"#utility.yul\":7698:7765   */\n  tag_39\n  jump\t// in\ntag_138:\n    /* \"#utility.yul\":7792:7793   */\n  0x00\n    /* \"#utility.yul\":7816:7820   */\n  0x20\n    /* \"#utility.yul\":7803:7820   */\n  swap1\n  pop\n    /* \"#utility.yul\":7848:7850   */\n  0x1f\n    /* \"#utility.yul\":7840:7846   */\n  dup4\n    /* \"#utility.yul\":7837:7851   */\n  gt\n    /* \"#utility.yul\":7865:7866   */\n  0x01\n    /* \"#utility.yul\":7860:8478   */\n  dup2\n  eq\n  tag_140\n  jumpi\n    /* \"#utility.yul\":8522:8523   */\n  0x00\n    /* \"#utility.yul\":8539:8545   */\n  dup5\n    /* \"#utility.yul\":8536:8613   */\n  iszero\n  tag_141\n  jumpi\n    /* \"#utility.yul\":8588:8597   */\n  dup3\n    /* \"#utility.yul\":8583:8586   */\n  dup8\n    /* \"#utility.yul\":8579:8598   */\n  add\n    /* \"#utility.yul\":8573:8599   */\n  mload\n    /* \"#utility.yul\":8564:8599   */\n  swap1\n  pop\n    /* \"#utility.yul\":8536:8613   */\ntag_141:\n    /* \"#utility.yul\":8639:8706   */\n  tag_142\n    /* \"#utility.yul\":8699:8705   */\n  dup6\n    /* \"#utility.yul\":8692:8697   */\n  dup3\n    /* \"#utility.yul\":8639:8706   */\n  tag_42\n  jump\t// in\ntag_142:\n    /* \"#utility.yul\":8633:8637   */\n  dup7\n    /* \"#utility.yul\":8626:8707   */\n  sstore\n    /* \"#utility.yul\":8495:8717   */\n  pop\n    /* \"#utility.yul\":7830:8717   */\n  jump(tag_139)\n    /* \"#utility.yul\":7860:8478   */\ntag_140:\n    /* \"#utility.yul\":7912:7916   */\n  0x1f\n    /* \"#utility.yul\":7908:7917   */\n  not\n    /* \"#utility.yul\":7900:7906   */\n  dup5\n    /* \"#utility.yul\":7896:7918   */\n  and\n    /* \"#utility.yul\":7946:7983   */\n  tag_143\n    /* \"#utility.yul\":7978:7982   */\n  dup7\n    /* \"#utility.yul\":7946:7983   */\n  tag_28\n  jump\t// in\ntag_143:\n    /* \"#utility.yul\":8005:8006   */\n  0x00\n    /* \"#utility.yul\":8019:8227   */\ntag_144:\n    /* \"#utility.yul\":8033:8040   */\n  dup3\n    /* \"#utility.yul\":8030:8031   */\n  dup2\n    /* \"#utility.yul\":8027:8041   */\n  lt\n    /* \"#utility.yul\":8019:8227   */\n  iszero\n  tag_146\n  jumpi\n    /* \"#utility.yul\":8112:8121   */\n  dup5\n    /* \"#utility.yul\":8107:8110   */\n  dup10\n    /* \"#utility.yul\":8103:8122   */\n  add\n    /* \"#utility.yul\":8097:8123   */\n  mload\n    /* \"#utility.yul\":8089:8095   */\n  dup3\n    /* \"#utility.yul\":8082:8124   */\n  sstore\n    /* \"#utility.yul\":8163:8164   */\n  0x01\n    /* \"#utility.yul\":8155:8161   */\n  dup3\n    /* \"#utility.yul\":8151:8165   */\n  add\n    /* \"#utility.yul\":8141:8165   */\n  swap2\n  pop\n    /* \"#utility.yul\":8210:8212   */\n  0x20\n    /* \"#utility.yul\":8199:8208   */\n  dup6\n    /* \"#utility.yul\":8195:8213   */\n  add\n    /* \"#utility.yul\":8182:8213   */\n  swap5\n  pop\n    /* \"#utility.yul\":8056:8060   */\n  0x20\n    /* \"#utility.yul\":8053:8054   */\n  dup2\n    /* \"#utility.yul\":8049:8061   */\n  add\n    /* \"#utility.yul\":8044:8061   */\n  swap1\n  pop\n    /* \"#utility.yul\":8019:8227   */\n  jump(tag_144)\ntag_146:\n    /* \"#utility.yul\":8255:8261   */\n  dup7\n    /* \"#utility.yul\":8246:8253   */\n  dup4\n    /* \"#utility.yul\":8243:8262   */\n  lt\n    /* \"#utility.yul\":8240:8419   */\n  iszero\n  tag_147\n  jumpi\n    /* \"#utility.yul\":8313:8322   */\n  dup5\n    /* \"#utility.yul\":8308:8311   */\n  dup10\n    /* \"#utility.yul\":8304:8323   */\n  add\n    /* \"#utility.yul\":8298:8324   */\n  mload\n    /* \"#utility.yul\":8356:8404   */\n  tag_148\n    /* \"#utility.yul\":8398:8402   */\n  0x1f\n    /* \"#utility.yul\":8390:8396   */\n  dup10\n    /* \"#utility.yul\":8386:8403   */\n  and\n    /* \"#utility.yul\":8375:8384   */\n  dup3\n    /* \"#utility.yul\":8356:8404   */\n  tag_41\n  jump\t// in\ntag_148:\n    /* \"#utility.yul\":8348:8354   */\n  dup4\n    /* \"#utility.yul\":8341:8405   */\n  sstore\n    /* \"#utility.yul\":8263:8419   */\n  pop\n    /* \"#utility.yul\":8240:8419   */\ntag_147:\n    /* \"#utility.yul\":8465:8466   */\n  0x01\n    /* \"#utility.yul\":8461:8462   */\n  0x02\n    /* \"#utility.yul\":8453:8459   */\n  dup9\n    /* \"#utility.yul\":8449:8463   */\n  mul\n    /* \"#utility.yul\":8445:8467   */\n  add\n    /* \"#utility.yul\":8439:8443   */\n  dup9\n    /* \"#utility.yul\":8432:8468   */\n  sstore\n    /* \"#utility.yul\":7867:8478   */\n  pop\n  pop\n  pop\n    /* \"#utility.yul\":7830:8717   */\ntag_139:\n  pop\n    /* \"#utility.yul\":7420:8723   */\n  pop\n  pop\n  pop\n    /* \"#utility.yul\":7328:8723   */\n  pop\n  pop\n  jump\t// out\n    /* \"gist.sol\":130:506  contract Demo {... */\ntag_8:\n  dataSize(sub_0)\n  dup1\n  dataOffset(sub_0)\n  0x00\n  codecopy\n  0x00\n  return\nstop\n\nsub_0: assembly {\n        /* \"gist.sol\":130:506  contract Demo {... */\n      mstore(0x40, 0x80)\n      callvalue\n      dup1\n      iszero\n      tag_1\n      jumpi\n      0x00\n      dup1\n      revert\n    tag_1:\n      pop\n      jumpi(tag_2, lt(calldatasize, 0x04))\n      shr(0xe0, calldataload(0x00))\n      dup1\n      0x6cc014de\n      eq\n      tag_3\n      jumpi\n      dup1\n      0xc75226ec\n      eq\n      tag_4\n      jumpi\n    tag_2:\n      0x00\n      dup1\n      revert\n        /* \"gist.sol\":151:168  Student public s1 */\n    tag_3:\n      tag_5\n      tag_6\n      jump\t// in\n    tag_5:\n      mload(0x40)\n      tag_7\n      swap3\n      swap2\n      swap1\n      tag_8\n      jump\t// in\n    tag_7:\n      mload(0x40)\n      dup1\n      swap2\n      sub\n      swap1\n      return\n        /* \"gist.sol\":306:503  function change (uint _roll,string memory _name)public {... */\n    tag_4:\n      tag_9\n      0x04\n      dup1\n      calldatasize\n      sub\n      dup2\n      add\n      swap1\n      tag_10\n      swap2\n      swap1\n      tag_11\n      jump\t// in\n    tag_10:\n      tag_12\n      jump\t// in\n    tag_9:\n      stop\n        /* \"gist.sol\":151:168  Student public s1 */\n    tag_6:\n      0x00\n      dup1\n      0x00\n      add\n      sload\n      swap1\n      dup1\n      0x01\n      add\n      dup1\n      sload\n      tag_13\n      swap1\n      tag_14\n      jump\t// in\n    tag_13:\n      dup1\n      0x1f\n      add\n      0x20\n      dup1\n      swap2\n      div\n      mul\n      0x20\n      add\n      mload(0x40)\n      swap1\n      dup2\n      add\n      0x40\n      mstore\n      dup1\n      swap3\n      swap2\n      swap1\n      dup2\n      dup2\n      mstore\n      0x20\n      add\n      dup3\n      dup1\n      sload\n      tag_15\n      swap1\n      tag_14\n      jump\t// in\n    tag_15:\n      dup1\n      iszero\n      tag_16\n      jumpi\n      dup1\n      0x1f\n      lt\n      tag_17\n      jumpi\n      0x0100\n      dup1\n      dup4\n      sload\n      div\n      mul\n      dup4\n      mstore\n      swap2\n      0x20\n      add\n      swap2\n      jump(tag_16)\n    tag_17:\n      dup3\n      add\n      swap2\n      swap1\n      0x00\n      mstore\n      keccak256(0x00, 0x20)\n      swap1\n    tag_18:\n      dup2\n      sload\n      dup2\n      mstore\n      swap1\n      0x01\n      add\n      swap1\n      0x20\n      add\n      dup1\n      dup4\n      gt\n      tag_18\n      jumpi\n      dup3\n      swap1\n      sub\n      0x1f\n      and\n      dup3\n      add\n      swap2\n    tag_16:\n      pop\n      pop\n      pop\n      pop\n      pop\n      swap1\n      pop\n      dup3\n      jump\t// out\n        /* \"gist.sol\":306:503  function change (uint _roll,string memory _name)public {... */\n    tag_12:\n        /* \"gist.sol\":372:398  Student memory new_student */\n      0x00\n        /* \"gist.sol\":399:470  Student({... */\n      mload(0x40)\n      dup1\n      0x40\n      add\n      0x40\n      mstore\n      dup1\n        /* \"gist.sol\":428:433  _roll */\n      dup5\n        /* \"gist.sol\":399:470  Student({... */\n      dup2\n      mstore\n      0x20\n      add\n        /* \"gist.sol\":453:458  _name */\n      dup4\n        /* \"gist.sol\":399:470  Student({... */\n      dup2\n      mstore\n      pop\n        /* \"gist.sol\":372:470  Student memory new_student=Student({... */\n      swap1\n      pop\n        /* \"gist.sol\":484:495  new_student */\n      dup1\n        /* \"gist.sol\":481:483  s1 */\n      0x00\n        /* \"gist.sol\":481:495  s1=new_student */\n      dup1\n      dup3\n      add\n      mload\n      dup2\n      0x00\n      add\n      sstore\n      0x20\n      dup3\n      add\n      mload\n      dup2\n      0x01\n      add\n      swap1\n      dup2\n      tag_20\n      swap2\n      swap1\n      tag_21\n      jump\t// in\n    tag_20:\n      pop\n      swap1\n      pop\n      pop\n        /* \"gist.sol\":361:503  {... */\n      pop\n        /* \"gist.sol\":306:503  function change (uint _roll,string memory _name)public {... */\n      pop\n      pop\n      jump\t// out\n        /* \"#utility.yul\":7:84   */\n    tag_22:\n        /* \"#utility.yul\":44:51   */\n      0x00\n        /* \"#utility.yul\":73:78   */\n      dup2\n        /* \"#utility.yul\":62:78   */\n      swap1\n      pop\n        /* \"#utility.yul\":7:84   */\n      swap2\n      swap1\n      pop\n      jump\t// out\n        /* \"#utility.yul\":90:208   */\n    tag_23:\n        /* \"#utility.yul\":177:201   */\n      tag_62\n        /* \"#utility.yul\":195:200   */\n      dup2\n        /* \"#utility.yul\":177:201   */\n      tag_22\n      jump\t// in\n    tag_62:\n        /* \"#utility.yul\":172:175   */\n      dup3\n        /* \"#utility.yul\":165:202   */\n      mstore\n        /* \"#utility.yul\":90:208   */\n      pop\n      pop\n      jump\t// out\n        /* \"#utility.yul\":214:313   */\n    tag_24:\n        /* \"#utility.yul\":266:272   */\n      0x00\n        /* \"#utility.yul\":300:305   */\n      dup2\n        /* \"#utility.yul\":294:306   */\n      mload\n        /* \"#utility.yul\":284:306   */\n      swap1\n      pop\n        /* \"#utility.yul\":214:313   */\n      swap2\n      swap1\n      pop\n      jump\t// out\n        /* \"#utility.yul\":319:488   */\n    tag_25:\n        /* \"#utility.yul\":403:414   */\n      0x00\n        /* \"#utility.yul\":437:443   */\n      dup3\n        /* \"#utility.yul\":432:435   */\n      dup3\n        /* \"#utility.yul\":425:444   */\n      mstore\n        /* \"#utility.yul\":477:481   */\n      0x20\n        /* \"#utility.yul\":472:475   */\n      dup3\n        /* \"#utility.yul\":468:482   */\n      add\n        /* \"#utility.yul\":453:482   */\n      swap1\n      pop\n        /* \"#utility.yul\":319:488   */\n      swap3\n      swap2\n      pop\n      pop\n      jump\t// out\n        /* \"#utility.yul\":494:801   */\n    tag_26:\n        /* \"#utility.yul\":562:563   */\n      0x00\n        /* \"#utility.yul\":572:685   */\n    tag_66:\n        /* \"#utility.yul\":586:592   */\n      dup4\n        /* \"#utility.yul\":583:584   */\n      dup2\n        /* \"#utility.yul\":580:593   */\n      lt\n        /* \"#utility.yul\":572:685   */\n      iszero\n      tag_68\n      jumpi\n        /* \"#utility.yul\":671:672   */\n      dup1\n        /* \"#utility.yul\":666:669   */\n      dup3\n        /* \"#utility.yul\":662:673   */\n      add\n        /* \"#utility.yul\":656:674   */\n      mload\n        /* \"#utility.yul\":652:653   */\n      dup2\n        /* \"#utility.yul\":647:650   */\n      dup5\n        /* \"#utility.yul\":643:654   */\n      add\n        /* \"#utility.yul\":636:675   */\n      mstore\n        /* \"#utility.yul\":608:610   */\n      0x20\n        /* \"#utility.yul\":605:606   */\n      dup2\n        /* \"#utility.yul\":601:611   */\n      add\n        /* \"#utility.yul\":596:611   */\n      swap1\n      pop\n        /* \"#utility.yul\":572:685   */\n      jump(tag_66)\n    tag_68:\n        /* \"#utility.yul\":703:709   */\n      dup4\n        /* \"#utility.yul\":700:701   */\n      dup2\n        /* \"#utility.yul\":697:710   */\n      gt\n        /* \"#utility.yul\":694:795   */\n      iszero\n      tag_69\n      jumpi\n        /* \"#utility.yul\":783:784   */\n      0x00\n        /* \"#utility.yul\":774:780   */\n      dup5\n        /* \"#utility.yul\":769:772   */\n      dup5\n        /* \"#utility.yul\":765:781   */\n      add\n        /* \"#utility.yul\":758:785   */\n      mstore\n        /* \"#utility.yul\":694:795   */\n    tag_69:\n        /* \"#utility.yul\":543:801   */\n      pop\n        /* \"#utility.yul\":494:801   */\n      pop\n      pop\n      pop\n      jump\t// out\n        /* \"#utility.yul\":807:909   */\n    tag_27:\n        /* \"#utility.yul\":848:854   */\n      0x00\n        /* \"#utility.yul\":899:901   */\n      0x1f\n        /* \"#utility.yul\":895:902   */\n      not\n        /* \"#utility.yul\":890:892   */\n      0x1f\n        /* \"#utility.yul\":883:888   */\n      dup4\n        /* \"#utility.yul\":879:893   */\n      add\n        /* \"#utility.yul\":875:903   */\n      and\n        /* \"#utility.yul\":865:903   */\n      swap1\n      pop\n        /* \"#utility.yul\":807:909   */\n      swap2\n      swap1\n      pop\n      jump\t// out\n        /* \"#utility.yul\":915:1279   */\n    tag_28:\n        /* \"#utility.yul\":1003:1006   */\n      0x00\n        /* \"#utility.yul\":1031:1070   */\n      tag_72\n        /* \"#utility.yul\":1064:1069   */\n      dup3\n        /* \"#utility.yul\":1031:1070   */\n      tag_24\n      jump\t// in\n    tag_72:\n        /* \"#utility.yul\":1086:1157   */\n      tag_73\n        /* \"#utility.yul\":1150:1156   */\n      dup2\n        /* \"#utility.yul\":1145:1148   */\n      dup6\n        /* \"#utility.yul\":1086:1157   */\n      tag_25\n      jump\t// in\n    tag_73:\n        /* \"#utility.yul\":1079:1157   */\n      swap4\n      pop\n        /* \"#utility.yul\":1166:1218   */\n      tag_74\n        /* \"#utility.yul\":1211:1217   */\n      dup2\n        /* \"#utility.yul\":1206:1209   */\n      dup6\n        /* \"#utility.yul\":1199:1203   */\n      0x20\n        /* \"#utility.yul\":1192:1197   */\n      dup7\n        /* \"#utility.yul\":1188:1204   */\n      add\n        /* \"#utility.yul\":1166:1218   */\n      tag_26\n      jump\t// in\n    tag_74:\n        /* \"#utility.yul\":1243:1272   */\n      tag_75\n        /* \"#utility.yul\":1265:1271   */\n      dup2\n        /* \"#utility.yul\":1243:1272   */\n      tag_27\n      jump\t// in\n    tag_75:\n        /* \"#utility.yul\":1238:1241   */\n      dup5\n        /* \"#utility.yul\":1234:1273   */\n      add\n        /* \"#utility.yul\":1227:1273   */\n      swap2\n      pop\n        /* \"#utility.yul\":1007:1279   */\n      pop\n        /* \"#utility.yul\":915:1279   */\n      swap3\n      swap2\n      pop\n      pop\n      jump\t// out\n        /* \"#utility.yul\":1285:1708   */\n    tag_8:\n        /* \"#utility.yul\":1426:1430   */\n      0x00\n        /* \"#utility.yul\":1464:1466   */\n      0x40\n        /* \"#utility.yul\":1453:1462   */\n      dup3\n        /* \"#utility.yul\":1449:1467   */\n      add\n        /* \"#utility.yul\":1441:1467   */\n      swap1\n      pop\n        /* \"#utility.yul\":1477:1548   */\n      tag_77\n        /* \"#utility.yul\":1545:1546   */\n      0x00\n        /* \"#utility.yul\":1534:1543   */\n      dup4\n        /* \"#utility.yul\":1530:1547   */\n      add\n        /* \"#utility.yul\":1521:1527   */\n      dup6\n        /* \"#utility.yul\":1477:1548   */\n      tag_23\n      jump\t// in\n    tag_77:\n        /* \"#utility.yul\":1595:1604   */\n      dup2\n        /* \"#utility.yul\":1589:1593   */\n      dup2\n        /* \"#utility.yul\":1585:1605   */\n      sub\n        /* \"#utility.yul\":1580:1582   */\n      0x20\n        /* \"#utility.yul\":1569:1578   */\n      dup4\n        /* \"#utility.yul\":1565:1583   */\n      add\n        /* \"#utility.yul\":1558:1606   */\n      mstore\n        /* \"#utility.yul\":1623:1701   */\n      tag_78\n        /* \"#utility.yul\":1696:1700   */\n      dup2\n        /* \"#utility.yul\":1687:1693   */\n      dup5\n        /* \"#utility.yul\":1623:1701   */\n      tag_28\n      jump\t// in\n    tag_78:\n        /* \"#utility.yul\":1615:1701   */\n      swap1\n      pop\n        /* \"#utility.yul\":1285:1708   */\n      swap4\n      swap3\n      pop\n      pop\n      pop\n      jump\t// out\n        /* \"#utility.yul\":1714:1789   */\n    tag_29:\n        /* \"#utility.yul\":1747:1753   */\n      0x00\n        /* \"#utility.yul\":1780:1782   */\n      0x40\n        /* \"#utility.yul\":1774:1783   */\n      mload\n        /* \"#utility.yul\":1764:1783   */\n      swap1\n      pop\n        /* \"#utility.yul\":1714:1789   */\n      swap1\n      jump\t// out\n        /* \"#utility.yul\":1795:1912   */\n    tag_30:\n        /* \"#utility.yul\":1904:1905   */\n      0x00\n        /* \"#utility.yul\":1901:1902   */\n      dup1\n        /* \"#utility.yul\":1894:1906   */\n      revert\n        /* \"#utility.yul\":1918:2035   */\n    tag_31:\n        /* \"#utility.yul\":2027:2028   */\n      0x00\n        /* \"#utility.yul\":2024:2025   */\n      dup1\n        /* \"#utility.yul\":2017:2029   */\n      revert\n        /* \"#utility.yul\":2041:2163   */\n    tag_32:\n        /* \"#utility.yul\":2114:2138   */\n      tag_83\n        /* \"#utility.yul\":2132:2137   */\n      dup2\n        /* \"#utility.yul\":2114:2138   */\n      tag_22\n      jump\t// in\n    tag_83:\n        /* \"#utility.yul\":2107:2112   */\n      dup2\n        /* \"#utility.yul\":2104:2139   */\n      eq\n        /* \"#utility.yul\":2094:2157   */\n      tag_84\n      jumpi\n        /* \"#utility.yul\":2153:2154   */\n      0x00\n        /* \"#utility.yul\":2150:2151   */\n      dup1\n        /* \"#utility.yul\":2143:2155   */\n      revert\n        /* \"#utility.yul\":2094:2157   */\n    tag_84:\n        /* \"#utility.yul\":2041:2163   */\n      pop\n      jump\t// out\n        /* \"#utility.yul\":2169:2308   */\n    tag_33:\n        /* \"#utility.yul\":2215:2220   */\n      0x00\n        /* \"#utility.yul\":2253:2259   */\n      dup2\n        /* \"#utility.yul\":2240:2260   */\n      calldataload\n        /* \"#utility.yul\":2231:2260   */\n      swap1\n      pop\n        /* \"#utility.yul\":2269:2302   */\n      tag_86\n        /* \"#utility.yul\":2296:2301   */\n      dup2\n        /* \"#utility.yul\":2269:2302   */\n      tag_32\n      jump\t// in\n    tag_86:\n        /* \"#utility.yul\":2169:2308   */\n      swap3\n      swap2\n      pop\n      pop\n      jump\t// out\n        /* \"#utility.yul\":2314:2431   */\n    tag_34:\n        /* \"#utility.yul\":2423:2424   */\n      0x00\n        /* \"#utility.yul\":2420:2421   */\n      dup1\n        /* \"#utility.yul\":2413:2425   */\n      revert\n        /* \"#utility.yul\":2437:2554   */\n    tag_35:\n        /* \"#utility.yul\":2546:2547   */\n      0x00\n        /* \"#utility.yul\":2543:2544   */\n      dup1\n        /* \"#utility.yul\":2536:2548   */\n      revert\n        /* \"#utility.yul\":2560:2740   */\n    tag_36:\n        /* \"#utility.yul\":2608:2685   */\n      0x4e487b7100000000000000000000000000000000000000000000000000000000\n        /* \"#utility.yul\":2605:2606   */\n      0x00\n        /* \"#utility.yul\":2598:2686   */\n      mstore\n        /* \"#utility.yul\":2705:2709   */\n      0x41\n        /* \"#utility.yul\":2702:2703   */\n      0x04\n        /* \"#utility.yul\":2695:2710   */\n      mstore\n        /* \"#utility.yul\":2729:2733   */\n      0x24\n        /* \"#utility.yul\":2726:2727   */\n      0x00\n        /* \"#utility.yul\":2719:2734   */\n      revert\n        /* \"#utility.yul\":2746:3027   */\n    tag_37:\n        /* \"#utility.yul\":2829:2856   */\n      tag_91\n        /* \"#utility.yul\":2851:2855   */\n      dup3\n        /* \"#utility.yul\":2829:2856   */\n      tag_27\n      jump\t// in\n    tag_91:\n        /* \"#utility.yul\":2821:2827   */\n      dup2\n        /* \"#utility.yul\":2817:2857   */\n      add\n        /* \"#utility.yul\":2959:2965   */\n      dup2\n        /* \"#utility.yul\":2947:2957   */\n      dup2\n        /* \"#utility.yul\":2944:2966   */\n      lt\n        /* \"#utility.yul\":2923:2941   */\n      0xffffffffffffffff\n        /* \"#utility.yul\":2911:2921   */\n      dup3\n        /* \"#utility.yul\":2908:2942   */\n      gt\n        /* \"#utility.yul\":2905:2967   */\n      or\n        /* \"#utility.yul\":2902:2990   */\n      iszero\n      tag_92\n      jumpi\n        /* \"#utility.yul\":2970:2988   */\n      tag_93\n      tag_36\n      jump\t// in\n    tag_93:\n        /* \"#utility.yul\":2902:2990   */\n    tag_92:\n        /* \"#utility.yul\":3010:3020   */\n      dup1\n        /* \"#utility.yul\":3006:3008   */\n      0x40\n        /* \"#utility.yul\":2999:3021   */\n      mstore\n        /* \"#utility.yul\":2789:3027   */\n      pop\n        /* \"#utility.yul\":2746:3027   */\n      pop\n      pop\n      jump\t// out\n        /* \"#utility.yul\":3033:3162   */\n    tag_38:\n        /* \"#utility.yul\":3067:3073   */\n      0x00\n        /* \"#utility.yul\":3094:3114   */\n      tag_95\n      tag_29\n      jump\t// in\n    tag_95:\n        /* \"#utility.yul\":3084:3114   */\n      swap1\n      pop\n        /* \"#utility.yul\":3123:3156   */\n      tag_96\n        /* \"#utility.yul\":3151:3155   */\n      dup3\n        /* \"#utility.yul\":3143:3149   */\n      dup3\n        /* \"#utility.yul\":3123:3156   */\n      tag_37\n      jump\t// in\n    tag_96:\n        /* \"#utility.yul\":3033:3162   */\n      swap2\n      swap1\n      pop\n      jump\t// out\n        /* \"#utility.yul\":3168:3476   */\n    tag_39:\n        /* \"#utility.yul\":3230:3234   */\n      0x00\n        /* \"#utility.yul\":3320:3338   */\n      0xffffffffffffffff\n        /* \"#utility.yul\":3312:3318   */\n      dup3\n        /* \"#utility.yul\":3309:3339   */\n      gt\n        /* \"#utility.yul\":3306:3362   */\n      iszero\n      tag_98\n      jumpi\n        /* \"#utility.yul\":3342:3360   */\n      tag_99\n      tag_36\n      jump\t// in\n    tag_99:\n        /* \"#utility.yul\":3306:3362   */\n    tag_98:\n        /* \"#utility.yul\":3380:3409   */\n      tag_100\n        /* \"#utility.yul\":3402:3408   */\n      dup3\n        /* \"#utility.yul\":3380:3409   */\n      tag_27\n      jump\t// in\n    tag_100:\n        /* \"#utility.yul\":3372:3409   */\n      swap1\n      pop\n        /* \"#utility.yul\":3464:3468   */\n      0x20\n        /* \"#utility.yul\":3458:3462   */\n      dup2\n        /* \"#utility.yul\":3454:3469   */\n      add\n        /* \"#utility.yul\":3446:3469   */\n      swap1\n      pop\n        /* \"#utility.yul\":3168:3476   */\n      swap2\n      swap1\n      pop\n      jump\t// out\n        /* \"#utility.yul\":3482:3636   */\n    tag_40:\n        /* \"#utility.yul\":3566:3572   */\n      dup3\n        /* \"#utility.yul\":3561:3564   */\n      dup2\n        /* \"#utility.yul\":3556:3559   */\n      dup4\n        /* \"#utility.yul\":3543:3573   */\n      calldatacopy\n        /* \"#utility.yul\":3628:3629   */\n      0x00\n        /* \"#utility.yul\":3619:3625   */\n      dup4\n        /* \"#utility.yul\":3614:3617   */\n      dup4\n        /* \"#utility.yul\":3610:3626   */\n      add\n        /* \"#utility.yul\":3603:3630   */\n      mstore\n        /* \"#utility.yul\":3482:3636   */\n      pop\n      pop\n      pop\n      jump\t// out\n        /* \"#utility.yul\":3642:4054   */\n    tag_41:\n        /* \"#utility.yul\":3720:3725   */\n      0x00\n        /* \"#utility.yul\":3745:3811   */\n      tag_103\n        /* \"#utility.yul\":3761:3810   */\n      tag_104\n        /* \"#utility.yul\":3803:3809   */\n      dup5\n        /* \"#utility.yul\":3761:3810   */\n      tag_39\n      jump\t// in\n    tag_104:\n        /* \"#utility.yul\":3745:3811   */\n      tag_38\n      jump\t// in\n    tag_103:\n        /* \"#utility.yul\":3736:3811   */\n      swap1\n      pop\n        /* \"#utility.yul\":3834:3840   */\n      dup3\n        /* \"#utility.yul\":3827:3832   */\n      dup2\n        /* \"#utility.yul\":3820:3841   */\n      mstore\n        /* \"#utility.yul\":3872:3876   */\n      0x20\n        /* \"#utility.yul\":3865:3870   */\n      dup2\n        /* \"#utility.yul\":3861:3877   */\n      add\n        /* \"#utility.yul\":3910:3913   */\n      dup5\n        /* \"#utility.yul\":3901:3907   */\n      dup5\n        /* \"#utility.yul\":3896:3899   */\n      dup5\n        /* \"#utility.yul\":3892:3908   */\n      add\n        /* \"#utility.yul\":3889:3914   */\n      gt\n        /* \"#utility.yul\":3886:3998   */\n      iszero\n      tag_105\n      jumpi\n        /* \"#utility.yul\":3917:3996   */\n      tag_106\n      tag_35\n      jump\t// in\n    tag_106:\n        /* \"#utility.yul\":3886:3998   */\n    tag_105:\n        /* \"#utility.yul\":4007:4048   */\n      tag_107\n        /* \"#utility.yul\":4041:4047   */\n      dup5\n        /* \"#utility.yul\":4036:4039   */\n      dup3\n        /* \"#utility.yul\":4031:4034   */\n      dup6\n        /* \"#utility.yul\":4007:4048   */\n      tag_40\n      jump\t// in\n    tag_107:\n        /* \"#utility.yul\":3726:4054   */\n      pop\n        /* \"#utility.yul\":3642:4054   */\n      swap4\n      swap3\n      pop\n      pop\n      pop\n      jump\t// out\n        /* \"#utility.yul\":4074:4414   */\n    tag_42:\n        /* \"#utility.yul\":4130:4135   */\n      0x00\n        /* \"#utility.yul\":4179:4182   */\n      dup3\n        /* \"#utility.yul\":4172:4176   */\n      0x1f\n        /* \"#utility.yul\":4164:4170   */\n      dup4\n        /* \"#utility.yul\":4160:4177   */\n      add\n        /* \"#utility.yul\":4156:4183   */\n      slt\n        /* \"#utility.yul\":4146:4268   */\n      tag_109\n      jumpi\n        /* \"#utility.yul\":4187:4266   */\n      tag_110\n      tag_34\n      jump\t// in\n    tag_110:\n        /* \"#utility.yul\":4146:4268   */\n    tag_109:\n        /* \"#utility.yul\":4304:4310   */\n      dup2\n        /* \"#utility.yul\":4291:4311   */\n      calldataload\n        /* \"#utility.yul\":4329:4408   */\n      tag_111\n        /* \"#utility.yul\":4404:4407   */\n      dup5\n        /* \"#utility.yul\":4396:4402   */\n      dup3\n        /* \"#utility.yul\":4389:4393   */\n      0x20\n        /* \"#utility.yul\":4381:4387   */\n      dup7\n        /* \"#utility.yul\":4377:4394   */\n      add\n        /* \"#utility.yul\":4329:4408   */\n      tag_41\n      jump\t// in\n    tag_111:\n        /* \"#utility.yul\":4320:4408   */\n      swap2\n      pop\n        /* \"#utility.yul\":4136:4414   */\n      pop\n        /* \"#utility.yul\":4074:4414   */\n      swap3\n      swap2\n      pop\n      pop\n      jump\t// out\n        /* \"#utility.yul\":4420:5074   */\n    tag_11:\n        /* \"#utility.yul\":4498:4504   */\n      0x00\n        /* \"#utility.yul\":4506:4512   */\n      dup1\n        /* \"#utility.yul\":4555:4557   */\n      0x40\n        /* \"#utility.yul\":4543:4552   */\n      dup4\n        /* \"#utility.yul\":4534:4541   */\n      dup6\n        /* \"#utility.yul\":4530:4553   */\n      sub\n        /* \"#utility.yul\":4526:4558   */\n      slt\n        /* \"#utility.yul\":4523:4642   */\n      iszero\n      tag_113\n      jumpi\n        /* \"#utility.yul\":4561:4640   */\n      tag_114\n      tag_30\n      jump\t// in\n    tag_114:\n        /* \"#utility.yul\":4523:4642   */\n    tag_113:\n        /* \"#utility.yul\":4681:4682   */\n      0x00\n        /* \"#utility.yul\":4706:4759   */\n      tag_115\n        /* \"#utility.yul\":4751:4758   */\n      dup6\n        /* \"#utility.yul\":4742:4748   */\n      dup3\n        /* \"#utility.yul\":4731:4740   */\n      dup7\n        /* \"#utility.yul\":4727:4749   */\n      add\n        /* \"#utility.yul\":4706:4759   */\n      tag_33\n      jump\t// in\n    tag_115:\n        /* \"#utility.yul\":4696:4759   */\n      swap3\n      pop\n        /* \"#utility.yul\":4652:4769   */\n      pop\n        /* \"#utility.yul\":4836:4838   */\n      0x20\n        /* \"#utility.yul\":4825:4834   */\n      dup4\n        /* \"#utility.yul\":4821:4839   */\n      add\n        /* \"#utility.yul\":4808:4840   */\n      calldataload\n        /* \"#utility.yul\":4867:4885   */\n      0xffffffffffffffff\n        /* \"#utility.yul\":4859:4865   */\n      dup2\n        /* \"#utility.yul\":4856:4886   */\n      gt\n        /* \"#utility.yul\":4853:4970   */\n      iszero\n      tag_116\n      jumpi\n        /* \"#utility.yul\":4889:4968   */\n      tag_117\n      tag_31\n      jump\t// in\n    tag_117:\n        /* \"#utility.yul\":4853:4970   */\n    tag_116:\n        /* \"#utility.yul\":4994:5057   */\n      tag_118\n        /* \"#utility.yul\":5049:5056   */\n      dup6\n        /* \"#utility.yul\":5040:5046   */\n      dup3\n        /* \"#utility.yul\":5029:5038   */\n      dup7\n        /* \"#utility.yul\":5025:5047   */\n      add\n        /* \"#utility.yul\":4994:5057   */\n      tag_42\n      jump\t// in\n    tag_118:\n        /* \"#utility.yul\":4984:5057   */\n      swap2\n      pop\n        /* \"#utility.yul\":4779:5067   */\n      pop\n        /* \"#utility.yul\":4420:5074   */\n      swap3\n      pop\n      swap3\n      swap1\n      pop\n      jump\t// out\n        /* \"#utility.yul\":5080:5260   */\n    tag_43:\n        /* \"#utility.yul\":5128:5205   */\n      0x4e487b7100000000000000000000000000000000000000000000000000000000\n        /* \"#utility.yul\":5125:5126   */\n      0x00\n        /* \"#utility.yul\":5118:5206   */\n      mstore\n        /* \"#utility.yul\":5225:5229   */\n      0x22\n        /* \"#utility.yul\":5222:5223   */\n      0x04\n        /* \"#utility.yul\":5215:5230   */\n      mstore\n        /* \"#utility.yul\":5249:5253   */\n      0x24\n        /* \"#utility.yul\":5246:5247   */\n      0x00\n        /* \"#utility.yul\":5239:5254   */\n      revert\n        /* \"#utility.yul\":5266:5586   */\n    tag_14:\n        /* \"#utility.yul\":5310:5316   */\n      0x00\n        /* \"#utility.yul\":5347:5348   */\n      0x02\n        /* \"#utility.yul\":5341:5345   */\n      dup3\n        /* \"#utility.yul\":5337:5349   */\n      div\n        /* \"#utility.yul\":5327:5349   */\n      swap1\n      pop\n        /* \"#utility.yul\":5394:5395   */\n      0x01\n        /* \"#utility.yul\":5388:5392   */\n      dup3\n        /* \"#utility.yul\":5384:5396   */\n      and\n        /* \"#utility.yul\":5415:5433   */\n      dup1\n        /* \"#utility.yul\":5405:5486   */\n      tag_121\n      jumpi\n        /* \"#utility.yul\":5471:5475   */\n      0x7f\n        /* \"#utility.yul\":5463:5469   */\n      dup3\n        /* \"#utility.yul\":5459:5476   */\n      and\n        /* \"#utility.yul\":5449:5476   */\n      swap2\n      pop\n        /* \"#utility.yul\":5405:5486   */\n    tag_121:\n        /* \"#utility.yul\":5533:5535   */\n      0x20\n        /* \"#utility.yul\":5525:5531   */\n      dup3\n        /* \"#utility.yul\":5522:5536   */\n      lt\n        /* \"#utility.yul\":5502:5520   */\n      dup2\n        /* \"#utility.yul\":5499:5537   */\n      sub\n        /* \"#utility.yul\":5496:5580   */\n      tag_122\n      jumpi\n        /* \"#utility.yul\":5552:5570   */\n      tag_123\n      tag_43\n      jump\t// in\n    tag_123:\n        /* \"#utility.yul\":5496:5580   */\n    tag_122:\n        /* \"#utility.yul\":5317:5586   */\n      pop\n        /* \"#utility.yul\":5266:5586   */\n      swap2\n      swap1\n      pop\n      jump\t// out\n        /* \"#utility.yul\":5592:5733   */\n    tag_44:\n        /* \"#utility.yul\":5641:5645   */\n      0x00\n        /* \"#utility.yul\":5664:5667   */\n      dup2\n        /* \"#utility.yul\":5656:5667   */\n      swap1\n      pop\n        /* \"#utility.yul\":5687:5690   */\n      dup2\n        /* \"#utility.yul\":5684:5685   */\n      0x00\n        /* \"#utility.yul\":5677:5691   */\n      mstore\n        /* \"#utility.yul\":5721:5725   */\n      0x20\n        /* \"#utility.yul\":5718:5719   */\n      0x00\n        /* \"#utility.yul\":5708:5726   */\n      keccak256\n        /* \"#utility.yul\":5700:5726   */\n      swap1\n      pop\n        /* \"#utility.yul\":5592:5733   */\n      swap2\n      swap1\n      pop\n      jump\t// out\n        /* \"#utility.yul\":5739:5832   */\n    tag_45:\n        /* \"#utility.yul\":5776:5782   */\n      0x00\n        /* \"#utility.yul\":5823:5825   */\n      0x20\n        /* \"#utility.yul\":5818:5820   */\n      0x1f\n        /* \"#utility.yul\":5811:5816   */\n      dup4\n        /* \"#utility.yul\":5807:5821   */\n      add\n        /* \"#utility.yul\":5803:5826   */\n      div\n        /* \"#utility.yul\":5793:5826   */\n      swap1\n      pop\n        /* \"#utility.yul\":5739:5832   */\n      swap2\n      swap1\n      pop\n      jump\t// out\n        /* \"#utility.yul\":5838:5945   */\n    tag_46:\n        /* \"#utility.yul\":5882:5890   */\n      0x00\n        /* \"#utility.yul\":5932:5937   */\n      dup3\n        /* \"#utility.yul\":5926:5930   */\n      dup3\n        /* \"#utility.yul\":5922:5938   */\n      shl\n        /* \"#utility.yul\":5901:5938   */\n      swap1\n      pop\n        /* \"#utility.yul\":5838:5945   */\n      swap3\n      swap2\n      pop\n      pop\n      jump\t// out\n        /* \"#utility.yul\":5951:6344   */\n    tag_47:\n        /* \"#utility.yul\":6020:6026   */\n      0x00\n        /* \"#utility.yul\":6070:6071   */\n      0x08\n        /* \"#utility.yul\":6058:6068   */\n      dup4\n        /* \"#utility.yul\":6054:6072   */\n      mul\n        /* \"#utility.yul\":6093:6190   */\n      tag_128\n        /* \"#utility.yul\":6123:6189   */\n      0xffffffffffffffffffffffffffffffffffffffffffffffffffffffffffffffff\n        /* \"#utility.yul\":6112:6121   */\n      dup3\n        /* \"#utility.yul\":6093:6190   */\n      tag_46\n      jump\t// in\n    tag_128:\n        /* \"#utility.yul\":6211:6250   */\n      tag_129\n        /* \"#utility.yul\":6241:6249   */\n      dup7\n        /* \"#utility.yul\":6230:6239   */\n      dup4\n        /* \"#utility.yul\":6211:6250   */\n      tag_46\n      jump\t// in\n    tag_129:\n        /* \"#utility.yul\":6199:6250   */\n      swap6\n      pop\n        /* \"#utility.yul\":6283:6287   */\n      dup1\n        /* \"#utility.yul\":6279:6288   */\n      not\n        /* \"#utility.yul\":6272:6277   */\n      dup5\n        /* \"#utility.yul\":6268:6289   */\n      and\n        /* \"#utility.yul\":6259:6289   */\n      swap4\n      pop\n        /* \"#utility.yul\":6332:6336   */\n      dup1\n        /* \"#utility.yul\":6322:6330   */\n      dup7\n        /* \"#utility.yul\":6318:6337   */\n      and\n        /* \"#utility.yul\":6311:6316   */\n      dup5\n        /* \"#utility.yul\":6308:6338   */\n      or\n        /* \"#utility.yul\":6298:6338   */\n      swap3\n      pop\n        /* \"#utility.yul\":6027:6344   */\n      pop\n      pop\n        /* \"#utility.yul\":5951:6344   */\n      swap4\n      swap3\n      pop\n      pop\n      pop\n      jump\t// out\n        /* \"#utility.yul\":6350:6410   */\n    tag_48:\n        /* \"#utility.yul\":6378:6381   */\n      0x00\n        /* \"#utility.yul\":6399:6404   */\n      dup2\n        /* \"#utility.yul\":6392:6404   */\n      swap1\n      pop\n        /* \"#utility.yul\":6350:6410   */\n      swap2\n      swap1\n      pop\n      jump\t// out\n        /* \"#utility.yul\":6416:6558   */\n    tag_49:\n        /* \"#utility.yul\":6466:6475   */\n      0x00\n        /* \"#utility.yul\":6499:6552   */\n      tag_132\n        /* \"#utility.yul\":6517:6551   */\n      tag_133\n        /* \"#utility.yul\":6526:6550   */\n      tag_134\n        /* \"#utility.yul\":6544:6549   */\n      dup5\n        /* \"#utility.yul\":6526:6550   */\n      tag_22\n      jump\t// in\n    tag_134:\n        /* \"#utility.yul\":6517:6551   */\n      tag_48\n      jump\t// in\n    tag_133:\n        /* \"#utility.yul\":6499:6552   */\n      tag_22\n      jump\t// in\n    tag_132:\n        /* \"#utility.yul\":6486:6552   */\n      swap1\n      pop\n        /* \"#utility.yul\":6416:6558   */\n      swap2\n      swap1\n      pop\n      jump\t// out\n        /* \"#utility.yul\":6564:6639   */\n    tag_50:\n        /* \"#utility.yul\":6607:6610   */\n      0x00\n        /* \"#utility.yul\":6628:6633   */\n      dup2\n        /* \"#utility.yul\":6621:6633   */\n      swap1\n      pop\n        /* \"#utility.yul\":6564:6639   */\n      swap2\n      swap1\n      pop\n      jump\t// out\n        /* \"#utility.yul\":6645:6914   */\n    tag_51:\n        /* \"#utility.yul\":6755:6794   */\n      tag_137\n        /* \"#utility.yul\":6786:6793   */\n      dup4\n        /* \"#utility.yul\":6755:6794   */\n      tag_49\n      jump\t// in\n    tag_137:\n        /* \"#utility.yul\":6816:6907   */\n      tag_138\n        /* \"#utility.yul\":6865:6906   */\n      tag_139\n        /* \"#utility.yul\":6889:6905   */\n      dup3\n        /* \"#utility.yul\":6865:6906   */\n      tag_50\n      jump\t// in\n    tag_139:\n        /* \"#utility.yul\":6857:6863   */\n      dup5\n        /* \"#utility.yul\":6850:6854   */\n      dup5\n        /* \"#utility.yul\":6844:6855   */\n      sload\n        /* \"#utility.yul\":6816:6907   */\n      tag_47\n      jump\t// in\n    tag_138:\n        /* \"#utility.yul\":6810:6814   */\n      dup3\n        /* \"#utility.yul\":6803:6908   */\n      sstore\n        /* \"#utility.yul\":6721:6914   */\n      pop\n        /* \"#utility.yul\":6645:6914   */\n      pop\n      pop\n      pop\n      jump\t// out\n        /* \"#utility.yul\":6920:6993   */\n    tag_52:\n        /* \"#utility.yul\":6965:6968   */\n      0x00\n        /* \"#utility.yul\":6920:6993   */\n      swap1\n      jump\t// out\n        /* \"#utility.yul\":6999:7188   */\n    tag_53:\n        /* \"#utility.yul\":7076:7108   */\n      tag_142\n      tag_52\n      jump\t// in\n    tag_142:\n        /* \"#utility.yul\":7117:7182   */\n      tag_143\n        /* \"#utility.yul\":7175:7181   */\n      dup2\n        /* \"#utility.yul\":7167:7173   */\n      dup5\n        /* \"#utility.yul\":7161:7165   */\n      dup5\n        /* \"#utility.yul\":7117:7182   */\n      tag_51\n      jump\t// in\n    tag_143:\n        /* \"#utility.yul\":7052:7188   */\n      pop\n        /* \"#utility.yul\":6999:7188   */\n      pop\n      pop\n      jump\t// out\n        /* \"#utility.yul\":7194:7380   */\n    tag_54:\n        /* \"#utility.yul\":7254:7374   */\n    tag_145:\n        /* \"#utility.yul\":7271:7274   */\n      dup2\n        /* \"#utility.yul\":7264:7269   */\n      dup2\n        /* \"#utility.yul\":7261:7275   */\n      lt\n        /* \"#utility.yul\":7254:7374   */\n      iszero\n      tag_147\n      jumpi\n        /* \"#utility.yul\":7325:7364   */\n      tag_148\n        /* \"#utility.yul\":7362:7363   */\n      0x00\n        /* \"#utility.yul\":7355:7360   */\n      dup3\n        /* \"#utility.yul\":7325:7364   */\n      tag_53\n      jump\t// in\n    tag_148:\n        /* \"#utility.yul\":7298:7299   */\n      0x01\n        /* \"#utility.yul\":7291:7296   */\n      dup2\n        /* \"#utility.yul\":7287:7300   */\n      add\n        /* \"#utility.yul\":7278:7300   */\n      swap1\n      pop\n        /* \"#utility.yul\":7254:7374   */\n      jump(tag_145)\n    tag_147:\n        /* \"#utility.yul\":7194:7380   */\n      pop\n      pop\n      jump\t// out\n        /* \"#utility.yul\":7386:7929   */\n    tag_55:\n        /* \"#utility.yul\":7487:7489   */\n      0x1f\n        /* \"#utility.yul\":7482:7485   */\n      dup3\n        /* \"#utility.yul\":7479:7490   */\n      gt\n        /* \"#utility.yul\":7476:7922   */\n      iszero\n      tag_150\n      jumpi\n        /* \"#utility.yul\":7521:7559   */\n      tag_151\n        /* \"#utility.yul\":7553:7558   */\n      dup2\n        /* \"#utility.yul\":7521:7559   */\n      tag_44\n      jump\t// in\n    tag_151:\n        /* \"#utility.yul\":7605:7634   */\n      tag_152\n        /* \"#utility.yul\":7623:7633   */\n      dup5\n        /* \"#utility.yul\":7605:7634   */\n      tag_45\n      jump\t// in\n    tag_152:\n        /* \"#utility.yul\":7595:7603   */\n      dup2\n        /* \"#utility.yul\":7591:7635   */\n      add\n        /* \"#utility.yul\":7788:7790   */\n      0x20\n        /* \"#utility.yul\":7776:7786   */\n      dup6\n        /* \"#utility.yul\":7773:7791   */\n      lt\n        /* \"#utility.yul\":7770:7819   */\n      iszero\n      tag_153\n      jumpi\n        /* \"#utility.yul\":7809:7817   */\n      dup2\n        /* \"#utility.yul\":7794:7817   */\n      swap1\n      pop\n        /* \"#utility.yul\":7770:7819   */\n    tag_153:\n        /* \"#utility.yul\":7832:7912   */\n      tag_154\n        /* \"#utility.yul\":7888:7910   */\n      tag_155\n        /* \"#utility.yul\":7906:7909   */\n      dup6\n        /* \"#utility.yul\":7888:7910   */\n      tag_45\n      jump\t// in\n    tag_155:\n        /* \"#utility.yul\":7878:7886   */\n      dup4\n        /* \"#utility.yul\":7874:7911   */\n      add\n        /* \"#utility.yul\":7861:7872   */\n      dup3\n        /* \"#utility.yul\":7832:7912   */\n      tag_54\n      jump\t// in\n    tag_154:\n        /* \"#utility.yul\":7491:7922   */\n      pop\n      pop\n        /* \"#utility.yul\":7476:7922   */\n    tag_150:\n        /* \"#utility.yul\":7386:7929   */\n      pop\n      pop\n      pop\n      jump\t// out\n        /* \"#utility.yul\":7935:8052   */\n    tag_56:\n        /* \"#utility.yul\":7989:7997   */\n      0x00\n        /* \"#utility.yul\":8039:8044   */\n      dup3\n        /* \"#utility.yul\":8033:8037   */\n      dup3\n        /* \"#utility.yul\":8029:8045   */\n      shr\n        /* \"#utility.yul\":8008:8045   */\n      swap1\n      pop\n        /* \"#utility.yul\":7935:8052   */\n      swap3\n      swap2\n      pop\n      pop\n      jump\t// out\n        /* \"#utility.yul\":8058:8227   */\n    tag_57:\n        /* \"#utility.yul\":8102:8108   */\n      0x00\n        /* \"#utility.yul\":8135:8186   */\n      tag_158\n        /* \"#utility.yul\":8183:8184   */\n      0x00\n        /* \"#utility.yul\":8179:8185   */\n      not\n        /* \"#utility.yul\":8171:8176   */\n      dup5\n        /* \"#utility.yul\":8168:8169   */\n      0x08\n        /* \"#utility.yul\":8164:8177   */\n      mul\n        /* \"#utility.yul\":8135:8186   */\n      tag_56\n      jump\t// in\n    tag_158:\n        /* \"#utility.yul\":8131:8187   */\n      not\n        /* \"#utility.yul\":8216:8220   */\n      dup1\n        /* \"#utility.yul\":8210:8214   */\n      dup4\n        /* \"#utility.yul\":8206:8221   */\n      and\n        /* \"#utility.yul\":8196:8221   */\n      swap2\n      pop\n        /* \"#utility.yul\":8109:8227   */\n      pop\n        /* \"#utility.yul\":8058:8227   */\n      swap3\n      swap2\n      pop\n      pop\n      jump\t// out\n        /* \"#utility.yul\":8232:8527   */\n    tag_58:\n        /* \"#utility.yul\":8308:8312   */\n      0x00\n        /* \"#utility.yul\":8454:8483   */\n      tag_160\n        /* \"#utility.yul\":8479:8482   */\n      dup4\n        /* \"#utility.yul\":8473:8477   */\n      dup4\n        /* \"#utility.yul\":8454:8483   */\n      tag_57\n      jump\t// in\n    tag_160:\n        /* \"#utility.yul\":8446:8483   */\n      swap2\n      pop\n        /* \"#utility.yul\":8516:8519   */\n      dup3\n        /* \"#utility.yul\":8513:8514   */\n      0x02\n        /* \"#utility.yul\":8509:8520   */\n      mul\n        /* \"#utility.yul\":8503:8507   */\n      dup3\n        /* \"#utility.yul\":8500:8521   */\n      or\n        /* \"#utility.yul\":8492:8521   */\n      swap1\n      pop\n        /* \"#utility.yul\":8232:8527   */\n      swap3\n      swap2\n      pop\n      pop\n      jump\t// out\n        /* \"#utility.yul\":8532:9927   */\n    tag_21:\n        /* \"#utility.yul\":8649:8686   */\n      tag_162\n        /* \"#utility.yul\":8682:8685   */\n      dup3\n        /* \"#utility.yul\":8649:8686   */\n      tag_24\n      jump\t// in\n    tag_162:\n        /* \"#utility.yul\":8751:8769   */\n      0xffffffffffffffff\n        /* \"#utility.yul\":8743:8749   */\n      dup2\n        /* \"#utility.yul\":8740:8770   */\n      gt\n        /* \"#utility.yul\":8737:8793   */\n      iszero\n      tag_163\n      jumpi\n        /* \"#utility.yul\":8773:8791   */\n      tag_164\n      tag_36\n      jump\t// in\n    tag_164:\n        /* \"#utility.yul\":8737:8793   */\n    tag_163:\n        /* \"#utility.yul\":8817:8855   */\n      tag_165\n        /* \"#utility.yul\":8849:8853   */\n      dup3\n        /* \"#utility.yul\":8843:8854   */\n      sload\n        /* \"#utility.yul\":8817:8855   */\n      tag_14\n      jump\t// in\n    tag_165:\n        /* \"#utility.yul\":8902:8969   */\n      tag_166\n        /* \"#utility.yul\":8962:8968   */\n      dup3\n        /* \"#utility.yul\":8954:8960   */\n      dup3\n        /* \"#utility.yul\":8948:8952   */\n      dup6\n        /* \"#utility.yul\":8902:8969   */\n      tag_55\n      jump\t// in\n    tag_166:\n        /* \"#utility.yul\":8996:8997   */\n      0x00\n        /* \"#utility.yul\":9020:9024   */\n      0x20\n        /* \"#utility.yul\":9007:9024   */\n      swap1\n      pop\n        /* \"#utility.yul\":9052:9054   */\n      0x1f\n        /* \"#utility.yul\":9044:9050   */\n      dup4\n        /* \"#utility.yul\":9041:9055   */\n      gt\n        /* \"#utility.yul\":9069:9070   */\n      0x01\n        /* \"#utility.yul\":9064:9682   */\n      dup2\n      eq\n      tag_168\n      jumpi\n        /* \"#utility.yul\":9726:9727   */\n      0x00\n        /* \"#utility.yul\":9743:9749   */\n      dup5\n        /* \"#utility.yul\":9740:9817   */\n      iszero\n      tag_169\n      jumpi\n        /* \"#utility.yul\":9792:9801   */\n      dup3\n        /* \"#utility.yul\":9787:9790   */\n      dup8\n        /* \"#utility.yul\":9783:9802   */\n      add\n        /* \"#utility.yul\":9777:9803   */\n      mload\n        /* \"#utility.yul\":9768:9803   */\n      swap1\n      pop\n        /* \"#utility.yul\":9740:9817   */\n    tag_169:\n        /* \"#utility.yul\":9843:9910   */\n      tag_170\n        /* \"#utility.yul\":9903:9909   */\n      dup6\n        /* \"#utility.yul\":9896:9901   */\n      dup3\n        /* \"#utility.yul\":9843:9910   */\n      tag_58\n      jump\t// in\n    tag_170:\n        /* \"#utility.yul\":9837:9841   */\n      dup7\n        /* \"#utility.yul\":9830:9911   */\n      sstore\n        /* \"#utility.yul\":9699:9921   */\n      pop\n        /* \"#utility.yul\":9034:9921   */\n      jump(tag_167)\n        /* \"#utility.yul\":9064:9682   */\n    tag_168:\n        /* \"#utility.yul\":9116:9120   */\n      0x1f\n        /* \"#utility.yul\":9112:9121   */\n      not\n        /* \"#utility.yul\":9104:9110   */\n      dup5\n        /* \"#utility.yul\":9100:9122   */\n      and\n        /* \"#utility.yul\":9150:9187   */\n      tag_171\n        /* \"#utility.yul\":9182:9186   */\n      dup7\n        /* \"#utility.yul\":9150:9187   */\n      tag_44\n      jump\t// in\n    tag_171:\n        /* \"#utility.yul\":9209:9210   */\n      0x00\n        /* \"#utility.yul\":9223:9431   */\n    tag_172:\n        /* \"#utility.yul\":9237:9244   */\n      dup3\n        /* \"#utility.yul\":9234:9235   */\n      dup2\n        /* \"#utility.yul\":9231:9245   */\n      lt\n        /* \"#utility.yul\":9223:9431   */\n      iszero\n      tag_174\n      jumpi\n        /* \"#utility.yul\":9316:9325   */\n      dup5\n        /* \"#utility.yul\":9311:9314   */\n      dup10\n        /* \"#utility.yul\":9307:9326   */\n      add\n        /* \"#utility.yul\":9301:9327   */\n      mload\n        /* \"#utility.yul\":9293:9299   */\n      dup3\n        /* \"#utility.yul\":9286:9328   */\n      sstore\n        /* \"#utility.yul\":9367:9368   */\n      0x01\n        /* \"#utility.yul\":9359:9365   */\n      dup3\n        /* \"#utility.yul\":9355:9369   */\n      add\n        /* \"#utility.yul\":9345:9369   */\n      swap2\n      pop\n        /* \"#utility.yul\":9414:9416   */\n      0x20\n        /* \"#utility.yul\":9403:9412   */\n      dup6\n        /* \"#utility.yul\":9399:9417   */\n      add\n        /* \"#utility.yul\":9386:9417   */\n      swap5\n      pop\n        /* \"#utility.yul\":9260:9264   */\n      0x20\n        /* \"#utility.yul\":9257:9258   */\n      dup2\n        /* \"#utility.yul\":9253:9265   */\n      add\n        /* \"#utility.yul\":9248:9265   */\n      swap1\n      pop\n        /* \"#utility.yul\":9223:9431   */\n      jump(tag_172)\n    tag_174:\n        /* \"#utility.yul\":9459:9465   */\n      dup7\n        /* \"#utility.yul\":9450:9457   */\n      dup4\n        /* \"#utility.yul\":9447:9466   */\n      lt\n        /* \"#utility.yul\":9444:9623   */\n      iszero\n      tag_175\n      jumpi\n        /* \"#utility.yul\":9517:9526   */\n      dup5\n        /* \"#utility.yul\":9512:9515   */\n      dup10\n        /* \"#utility.yul\":9508:9527   */\n      add\n        /* \"#utility.yul\":9502:9528   */\n      mload\n        /* \"#utility.yul\":9560:9608   */\n      tag_176\n        /* \"#utility.yul\":9602:9606   */\n      0x1f\n        /* \"#utility.yul\":9594:9600   */\n      dup10\n        /* \"#utility.yul\":9590:9607   */\n      and\n        /* \"#utility.yul\":9579:9588   */\n      dup3\n        /* \"#utility.yul\":9560:9608   */\n      tag_57\n      jump\t// in\n    tag_176:\n        /* \"#utility.yul\":9552:9558   */\n      dup4\n        /* \"#utility.yul\":9545:9609   */\n      sstore\n        /* \"#utility.yul\":9467:9623   */\n      pop\n        /* \"#utility.yul\":9444:9623   */\n    tag_175:\n        /* \"#utility.yul\":9669:9670   */\n      0x01\n        /* \"#utility.yul\":9665:9666   */\n      0x02\n        /* \"#utility.yul\":9657:9663   */\n      dup9\n        /* \"#utility.yul\":9653:9667   */\n      mul\n        /* \"#utility.yul\":9649:9671   */\n      add\n        /* \"#utility.yul\":9643:9647   */\n      dup9\n        /* \"#utility.yul\":9636:9672   */\n      sstore\n        /* \"#utility.yul\":9071:9682   */\n      pop\n      pop\n      pop\n        /* \"#utility.yul\":9034:9921   */\n    tag_167:\n      pop\n        /* \"#utility.yul\":8624:9927   */\n      pop\n      pop\n      pop\n        /* \"#utility.yul\":8532:9927   */\n      pop\n      pop\n      jump\t// out\n\n    auxdata: 0xa2646970667358221220a3cfd5cc8006526ef26dadd3d02a03c135e9ff77db4fa2fd06e5853f814c8e6a64736f6c634300080f0033\n}\n",
				"bytecode": {
					"linkReferences": {},
					"object": "60806040523480156200001157600080fd5b5060405162000ced38038062000ced833981810160405281019062000037919062000235565b8160008001819055508060006001019081620000549190620004dc565b505050620005c3565b6000604051905090565b600080fd5b600080fd5b6000819050919050565b620000868162000071565b81146200009257600080fd5b50565b600081519050620000a6816200007b565b92915050565b600080fd5b600080fd5b6000601f19601f8301169050919050565b7f4e487b7100000000000000000000000000000000000000000000000000000000600052604160045260246000fd5b6200010182620000b6565b810181811067ffffffffffffffff82111715620001235762000122620000c7565b5b80604052505050565b6000620001386200005d565b9050620001468282620000f6565b919050565b600067ffffffffffffffff821115620001695762000168620000c7565b5b6200017482620000b6565b9050602081019050919050565b60005b83811015620001a157808201518184015260208101905062000184565b83811115620001b1576000848401525b50505050565b6000620001ce620001c8846200014b565b6200012c565b905082815260208101848484011115620001ed57620001ec620000b1565b5b620001fa84828562000181565b509392505050565b600082601f8301126200021a5762000219620000ac565b5b81516200022c848260208601620001b7565b91505092915050565b600080604083850312156200024f576200024e62000067565b5b60006200025f8582860162000095565b925050602083015167ffffffffffffffff8111156200028357620002826200006c565b5b620002918582860162000202565b9150509250929050565b600081519050919050565b7f4e487b7100000000000000000000000000000000000000000000000000000000600052602260045260246000fd5b60006002820490506001821680620002ee57607f821691505b602082108103620003045762000303620002a6565b5b50919050565b60008190508160005260206000209050919050565b60006020601f8301049050919050565b600082821b905092915050565b6000600883026200036e7fffffffffffffffffffffffffffffffffffffffffffffffffffffffffffffffff826200032f565b6200037a86836200032f565b95508019841693508086168417925050509392505050565b6000819050919050565b6000620003bd620003b7620003b18462000071565b62000392565b62000071565b9050919050565b6000819050919050565b620003d9836200039c565b620003f1620003e882620003c4565b8484546200033c565b825550505050565b600090565b62000408620003f9565b62000415818484620003ce565b505050565b5b818110156200043d5762000431600082620003fe565b6001810190506200041b565b5050565b601f8211156200048c5762000456816200030a565b62000461846200031f565b8101602085101562000471578190505b6200048962000480856200031f565b8301826200041a565b50505b505050565b600082821c905092915050565b6000620004b16000198460080262000491565b1980831691505092915050565b6000620004cc83836200049e565b9150826002028217905092915050565b620004e7826200029b565b67ffffffffffffffff811115620005035762000502620000c7565b5b6200050f8254620002d5565b6200051c82828562000441565b600060209050601f8311600181146200055457600084156200053f578287015190505b6200054b8582620004be565b865550620005bb565b601f19841662000564866200030a565b60005b828110156200058e5784890151825560018201915060208501945060208101905062000567565b86831015620005ae5784890151620005aa601f8916826200049e565b8355505b6001600288020188555050505b505050505050565b61071a80620005d36000396000f3fe608060405234801561001057600080fd5b50600436106100365760003560e01c80636cc014de1461003b578063c75226ec1461005a575b600080fd5b610043610076565b604051610051929190610205565b60405180910390f35b610074600480360381019061006f91906103aa565b610110565b005b600080600001549080600101805461008d90610435565b80601f01602080910402602001604051908101604052809291908181526020018280546100b990610435565b80156101065780601f106100db57610100808354040283529160200191610106565b820191906000526020600020905b8154815290600101906020018083116100e957829003601f168201915b5050505050905082565b60006040518060400160405280848152602001838152509050806000808201518160000155602082015181600101908161014a9190610612565b50905050505050565b6000819050919050565b61016681610153565b82525050565b600081519050919050565b600082825260208201905092915050565b60005b838110156101a657808201518184015260208101905061018b565b838111156101b5576000848401525b50505050565b6000601f19601f8301169050919050565b60006101d78261016c565b6101e18185610177565b93506101f1818560208601610188565b6101fa816101bb565b840191505092915050565b600060408201905061021a600083018561015d565b818103602083015261022c81846101cc565b90509392505050565b6000604051905090565b600080fd5b600080fd5b61025281610153565b811461025d57600080fd5b50565b60008135905061026f81610249565b92915050565b600080fd5b600080fd5b7f4e487b7100000000000000000000000000000000000000000000000000000000600052604160045260246000fd5b6102b7826101bb565b810181811067ffffffffffffffff821117156102d6576102d561027f565b5b80604052505050565b60006102e9610235565b90506102f582826102ae565b919050565b600067ffffffffffffffff8211156103155761031461027f565b5b61031e826101bb565b9050602081019050919050565b82818337600083830152505050565b600061034d610348846102fa565b6102df565b9050828152602081018484840111156103695761036861027a565b5b61037484828561032b565b509392505050565b600082601f83011261039157610390610275565b5b81356103a184826020860161033a565b91505092915050565b600080604083850312156103c1576103c061023f565b5b60006103cf85828601610260565b925050602083013567ffffffffffffffff8111156103f0576103ef610244565b5b6103fc8582860161037c565b9150509250929050565b7f4e487b7100000000000000000000000000000000000000000000000000000000600052602260045260246000fd5b6000600282049050600182168061044d57607f821691505b6020821081036104605761045f610406565b5b50919050565b60008190508160005260206000209050919050565b60006020601f8301049050919050565b600082821b905092915050565b6000600883026104c87fffffffffffffffffffffffffffffffffffffffffffffffffffffffffffffffff8261048b565b6104d2868361048b565b95508019841693508086168417925050509392505050565b6000819050919050565b600061050f61050a61050584610153565b6104ea565b610153565b9050919050565b6000819050919050565b610529836104f4565b61053d61053582610516565b848454610498565b825550505050565b600090565b610552610545565b61055d818484610520565b505050565b5b818110156105815761057660008261054a565b600181019050610563565b5050565b601f8211156105c65761059781610466565b6105a08461047b565b810160208510156105af578190505b6105c36105bb8561047b565b830182610562565b50505b505050565b600082821c905092915050565b60006105e9600019846008026105cb565b1980831691505092915050565b600061060283836105d8565b9150826002028217905092915050565b61061b8261016c565b67ffffffffffffffff8111156106345761063361027f565b5b61063e8254610435565b610649828285610585565b600060209050601f83116001811461067c576000841561066a578287015190505b61067485826105f6565b8655506106dc565b601f19841661068a86610466565b60005b828110156106b25784890151825560018201915060208501945060208101905061068d565b868310156106cf57848901516106cb601f8916826105d8565b8355505b6001600288020188555050505b50505050505056fea2646970667358221220a3cfd5cc8006526ef26dadd3d02a03c135e9ff77db4fa2fd06e5853f814c8e6a64736f6c634300080f0033",
					"opcodes": "PUSH1 0x80 PUSH1 0x40 MSTORE CALLVALUE DUP1 ISZERO PUSH3 0x11 JUMPI PUSH1 0x0 DUP1 REVERT JUMPDEST POP PUSH1 0x40 MLOAD PUSH3 0xCED CODESIZE SUB DUP1 PUSH3 0xCED DUP4 CODECOPY DUP2 DUP2 ADD PUSH1 0x40 MSTORE DUP2 ADD SWAP1 PUSH3 0x37 SWAP2 SWAP1 PUSH3 0x235 JUMP JUMPDEST DUP2 PUSH1 0x0 DUP1 ADD DUP2 SWAP1 SSTORE POP DUP1 PUSH1 0x0 PUSH1 0x1 ADD SWAP1 DUP2 PUSH3 0x54 SWAP2 SWAP1 PUSH3 0x4DC JUMP JUMPDEST POP POP POP PUSH3 0x5C3 JUMP JUMPDEST PUSH1 0x0 PUSH1 0x40 MLOAD SWAP1 POP SWAP1 JUMP JUMPDEST PUSH1 0x0 DUP1 REVERT JUMPDEST PUSH1 0x0 DUP1 REVERT JUMPDEST PUSH1 0x0 DUP2 SWAP1 POP SWAP2 SWAP1 POP JUMP JUMPDEST PUSH3 0x86 DUP2 PUSH3 0x71 JUMP JUMPDEST DUP2 EQ PUSH3 0x92 JUMPI PUSH1 0x0 DUP1 REVERT JUMPDEST POP JUMP JUMPDEST PUSH1 0x0 DUP2 MLOAD SWAP1 POP PUSH3 0xA6 DUP2 PUSH3 0x7B JUMP JUMPDEST SWAP3 SWAP2 POP POP JUMP JUMPDEST PUSH1 0x0 DUP1 REVERT JUMPDEST PUSH1 0x0 DUP1 REVERT JUMPDEST PUSH1 0x0 PUSH1 0x1F NOT PUSH1 0x1F DUP4 ADD AND SWAP1 POP SWAP2 SWAP1 POP JUMP JUMPDEST PUSH32 0x4E487B7100000000000000000000000000000000000000000000000000000000 PUSH1 0x0 MSTORE PUSH1 0x41 PUSH1 0x4 MSTORE PUSH1 0x24 PUSH1 0x0 REVERT JUMPDEST PUSH3 0x101 DUP3 PUSH3 0xB6 JUMP JUMPDEST DUP2 ADD DUP2 DUP2 LT PUSH8 0xFFFFFFFFFFFFFFFF DUP3 GT OR ISZERO PUSH3 0x123 JUMPI PUSH3 0x122 PUSH3 0xC7 JUMP JUMPDEST JUMPDEST DUP1 PUSH1 0x40 MSTORE POP POP POP JUMP JUMPDEST PUSH1 0x0 PUSH3 0x138 PUSH3 0x5D JUMP JUMPDEST SWAP1 POP PUSH3 0x146 DUP3 DUP3 PUSH3 0xF6 JUMP JUMPDEST SWAP2 SWAP1 POP JUMP JUMPDEST PUSH1 0x0 PUSH8 0xFFFFFFFFFFFFFFFF DUP3 GT ISZERO PUSH3 0x169 JUMPI PUSH3 0x168 PUSH3 0xC7 JUMP JUMPDEST JUMPDEST PUSH3 0x174 DUP3 PUSH3 0xB6 JUMP JUMPDEST SWAP1 POP PUSH1 0x20 DUP2 ADD SWAP1 POP SWAP2 SWAP1 POP JUMP JUMPDEST PUSH1 0x0 JUMPDEST DUP4 DUP2 LT ISZERO PUSH3 0x1A1 JUMPI DUP1 DUP3 ADD MLOAD DUP2 DUP5 ADD MSTORE PUSH1 0x20 DUP2 ADD SWAP1 POP PUSH3 0x184 JUMP JUMPDEST DUP4 DUP2 GT ISZERO PUSH3 0x1B1 JUMPI PUSH1 0x0 DUP5 DUP5 ADD MSTORE JUMPDEST POP POP POP POP JUMP JUMPDEST PUSH1 0x0 PUSH3 0x1CE PUSH3 0x1C8 DUP5 PUSH3 0x14B JUMP JUMPDEST PUSH3 0x12C JUMP JUMPDEST SWAP1 POP DUP3 DUP2 MSTORE PUSH1 0x20 DUP2 ADD DUP5 DUP5 DUP5 ADD GT ISZERO PUSH3 0x1ED JUMPI PUSH3 0x1EC PUSH3 0xB1 JUMP JUMPDEST JUMPDEST PUSH3 0x1FA DUP5 DUP3 DUP6 PUSH3 0x181 JUMP JUMPDEST POP SWAP4 SWAP3 POP POP POP JUMP JUMPDEST PUSH1 0x0 DUP3 PUSH1 0x1F DUP4 ADD SLT PUSH3 0x21A JUMPI PUSH3 0x219 PUSH3 0xAC JUMP JUMPDEST JUMPDEST DUP2 MLOAD PUSH3 0x22C DUP5 DUP3 PUSH1 0x20 DUP7 ADD PUSH3 0x1B7 JUMP JUMPDEST SWAP2 POP POP SWAP3 SWAP2 POP POP JUMP JUMPDEST PUSH1 0x0 DUP1 PUSH1 0x40 DUP4 DUP6 SUB SLT ISZERO PUSH3 0x24F JUMPI PUSH3 0x24E PUSH3 0x67 JUMP JUMPDEST JUMPDEST PUSH1 0x0 PUSH3 0x25F DUP6 DUP3 DUP7 ADD PUSH3 0x95 JUMP JUMPDEST SWAP3 POP POP PUSH1 0x20 DUP4 ADD MLOAD PUSH8 0xFFFFFFFFFFFFFFFF DUP2 GT ISZERO PUSH3 0x283 JUMPI PUSH3 0x282 PUSH3 0x6C JUMP JUMPDEST JUMPDEST PUSH3 0x291 DUP6 DUP3 DUP7 ADD PUSH3 0x202 JUMP JUMPDEST SWAP2 POP POP SWAP3 POP SWAP3 SWAP1 POP JUMP JUMPDEST PUSH1 0x0 DUP2 MLOAD SWAP1 POP SWAP2 SWAP1 POP JUMP JUMPDEST PUSH32 0x4E487B7100000000000000000000000000000000000000000000000000000000 PUSH1 0x0 MSTORE PUSH1 0x22 PUSH1 0x4 MSTORE PUSH1 0x24 PUSH1 0x0 REVERT JUMPDEST PUSH1 0x0 PUSH1 0x2 DUP3 DIV SWAP1 POP PUSH1 0x1 DUP3 AND DUP1 PUSH3 0x2EE JUMPI PUSH1 0x7F DUP3 AND SWAP2 POP JUMPDEST PUSH1 0x20 DUP3 LT DUP2 SUB PUSH3 0x304 JUMPI PUSH3 0x303 PUSH3 0x2A6 JUMP JUMPDEST JUMPDEST POP SWAP2 SWAP1 POP JUMP JUMPDEST PUSH1 0x0 DUP2 SWAP1 POP DUP2 PUSH1 0x0 MSTORE PUSH1 0x20 PUSH1 0x0 KECCAK256 SWAP1 POP SWAP2 SWAP1 POP JUMP JUMPDEST PUSH1 0x0 PUSH1 0x20 PUSH1 0x1F DUP4 ADD DIV SWAP1 POP SWAP2 SWAP1 POP JUMP JUMPDEST PUSH1 0x0 DUP3 DUP3 SHL SWAP1 POP SWAP3 SWAP2 POP POP JUMP JUMPDEST PUSH1 0x0 PUSH1 0x8 DUP4 MUL PUSH3 0x36E PUSH32 0xFFFFFFFFFFFFFFFFFFFFFFFFFFFFFFFFFFFFFFFFFFFFFFFFFFFFFFFFFFFFFFFF DUP3 PUSH3 0x32F JUMP JUMPDEST PUSH3 0x37A DUP7 DUP4 PUSH3 0x32F JUMP JUMPDEST SWAP6 POP DUP1 NOT DUP5 AND SWAP4 POP DUP1 DUP7 AND DUP5 OR SWAP3 POP POP POP SWAP4 SWAP3 POP POP POP JUMP JUMPDEST PUSH1 0x0 DUP2 SWAP1 POP SWAP2 SWAP1 POP JUMP JUMPDEST PUSH1 0x0 PUSH3 0x3BD PUSH3 0x3B7 PUSH3 0x3B1 DUP5 PUSH3 0x71 JUMP JUMPDEST PUSH3 0x392 JUMP JUMPDEST PUSH3 0x71 JUMP JUMPDEST SWAP1 POP SWAP2 SWAP1 POP JUMP JUMPDEST PUSH1 0x0 DUP2 SWAP1 POP SWAP2 SWAP1 POP JUMP JUMPDEST PUSH3 0x3D9 DUP4 PUSH3 0x39C JUMP JUMPDEST PUSH3 0x3F1 PUSH3 0x3E8 DUP3 PUSH3 0x3C4 JUMP JUMPDEST DUP5 DUP5 SLOAD PUSH3 0x33C JUMP JUMPDEST DUP3 SSTORE POP POP POP POP JUMP JUMPDEST PUSH1 0x0 SWAP1 JUMP JUMPDEST PUSH3 0x408 PUSH3 0x3F9 JUMP JUMPDEST PUSH3 0x415 DUP2 DUP5 DUP5 PUSH3 0x3CE JUMP JUMPDEST POP POP POP JUMP JUMPDEST JUMPDEST DUP2 DUP2 LT ISZERO PUSH3 0x43D JUMPI PUSH3 0x431 PUSH1 0x0 DUP3 PUSH3 0x3FE JUMP JUMPDEST PUSH1 0x1 DUP2 ADD SWAP1 POP PUSH3 0x41B JUMP JUMPDEST POP POP JUMP JUMPDEST PUSH1 0x1F DUP3 GT ISZERO PUSH3 0x48C JUMPI PUSH3 0x456 DUP2 PUSH3 0x30A JUMP JUMPDEST PUSH3 0x461 DUP5 PUSH3 0x31F JUMP JUMPDEST DUP2 ADD PUSH1 0x20 DUP6 LT ISZERO PUSH3 0x471 JUMPI DUP2 SWAP1 POP JUMPDEST PUSH3 0x489 PUSH3 0x480 DUP6 PUSH3 0x31F JUMP JUMPDEST DUP4 ADD DUP3 PUSH3 0x41A JUMP JUMPDEST POP POP JUMPDEST POP POP POP JUMP JUMPDEST PUSH1 0x0 DUP3 DUP3 SHR SWAP1 POP SWAP3 SWAP2 POP POP JUMP JUMPDEST PUSH1 0x0 PUSH3 0x4B1 PUSH1 0x0 NOT DUP5 PUSH1 0x8 MUL PUSH3 0x491 JUMP JUMPDEST NOT DUP1 DUP4 AND SWAP2 POP POP SWAP3 SWAP2 POP POP JUMP JUMPDEST PUSH1 0x0 PUSH3 0x4CC DUP4 DUP4 PUSH3 0x49E JUMP JUMPDEST SWAP2 POP DUP3 PUSH1 0x2 MUL DUP3 OR SWAP1 POP SWAP3 SWAP2 POP POP JUMP JUMPDEST PUSH3 0x4E7 DUP3 PUSH3 0x29B JUMP JUMPDEST PUSH8 0xFFFFFFFFFFFFFFFF DUP2 GT ISZERO PUSH3 0x503 JUMPI PUSH3 0x502 PUSH3 0xC7 JUMP JUMPDEST JUMPDEST PUSH3 0x50F DUP3 SLOAD PUSH3 0x2D5 JUMP JUMPDEST PUSH3 0x51C DUP3 DUP3 DUP6 PUSH3 0x441 JUMP JUMPDEST PUSH1 0x0 PUSH1 0x20 SWAP1 POP PUSH1 0x1F DUP4 GT PUSH1 0x1 DUP2 EQ PUSH3 0x554 JUMPI PUSH1 0x0 DUP5 ISZERO PUSH3 0x53F JUMPI DUP3 DUP8 ADD MLOAD SWAP1 POP JUMPDEST PUSH3 0x54B DUP6 DUP3 PUSH3 0x4BE JUMP JUMPDEST DUP7 SSTORE POP PUSH3 0x5BB JUMP JUMPDEST PUSH1 0x1F NOT DUP5 AND PUSH3 0x564 DUP7 PUSH3 0x30A JUMP JUMPDEST PUSH1 0x0 JUMPDEST DUP3 DUP2 LT ISZERO PUSH3 0x58E JUMPI DUP5 DUP10 ADD MLOAD DUP3 SSTORE PUSH1 0x1 DUP3 ADD SWAP2 POP PUSH1 0x20 DUP6 ADD SWAP5 POP PUSH1 0x20 DUP2 ADD SWAP1 POP PUSH3 0x567 JUMP JUMPDEST DUP7 DUP4 LT ISZERO PUSH3 0x5AE JUMPI DUP5 DUP10 ADD MLOAD PUSH3 0x5AA PUSH1 0x1F DUP10 AND DUP3 PUSH3 0x49E JUMP JUMPDEST DUP4 SSTORE POP JUMPDEST PUSH1 0x1 PUSH1 0x2 DUP9 MUL ADD DUP9 SSTORE POP POP POP JUMPDEST POP POP POP POP POP POP JUMP JUMPDEST PUSH2 0x71A DUP1 PUSH3 0x5D3 PUSH1 0x0 CODECOPY PUSH1 0x0 RETURN INVALID PUSH1 0x80 PUSH1 0x40 MSTORE CALLVALUE DUP1 ISZERO PUSH2 0x10 JUMPI PUSH1 0x0 DUP1 REVERT JUMPDEST POP PUSH1 0x4 CALLDATASIZE LT PUSH2 0x36 JUMPI PUSH1 0x0 CALLDATALOAD PUSH1 0xE0 SHR DUP1 PUSH4 0x6CC014DE EQ PUSH2 0x3B JUMPI DUP1 PUSH4 0xC75226EC EQ PUSH2 0x5A JUMPI JUMPDEST PUSH1 0x0 DUP1 REVERT JUMPDEST PUSH2 0x43 PUSH2 0x76 JUMP JUMPDEST PUSH1 0x40 MLOAD PUSH2 0x51 SWAP3 SWAP2 SWAP1 PUSH2 0x205 JUMP JUMPDEST PUSH1 0x40 MLOAD DUP1 SWAP2 SUB SWAP1 RETURN JUMPDEST PUSH2 0x74 PUSH1 0x4 DUP1 CALLDATASIZE SUB DUP2 ADD SWAP1 PUSH2 0x6F SWAP2 SWAP1 PUSH2 0x3AA JUMP JUMPDEST PUSH2 0x110 JUMP JUMPDEST STOP JUMPDEST PUSH1 0x0 DUP1 PUSH1 0x0 ADD SLOAD SWAP1 DUP1 PUSH1 0x1 ADD DUP1 SLOAD PUSH2 0x8D SWAP1 PUSH2 0x435 JUMP JUMPDEST DUP1 PUSH1 0x1F ADD PUSH1 0x20 DUP1 SWAP2 DIV MUL PUSH1 0x20 ADD PUSH1 0x40 MLOAD SWAP1 DUP2 ADD PUSH1 0x40 MSTORE DUP1 SWAP3 SWAP2 SWAP1 DUP2 DUP2 MSTORE PUSH1 0x20 ADD DUP3 DUP1 SLOAD PUSH2 0xB9 SWAP1 PUSH2 0x435 JUMP JUMPDEST DUP1 ISZERO PUSH2 0x106 JUMPI DUP1 PUSH1 0x1F LT PUSH2 0xDB JUMPI PUSH2 0x100 DUP1 DUP4 SLOAD DIV MUL DUP4 MSTORE SWAP2 PUSH1 0x20 ADD SWAP2 PUSH2 0x106 JUMP JUMPDEST DUP3 ADD SWAP2 SWAP1 PUSH1 0x0 MSTORE PUSH1 0x20 PUSH1 0x0 KECCAK256 SWAP1 JUMPDEST DUP2 SLOAD DUP2 MSTORE SWAP1 PUSH1 0x1 ADD SWAP1 PUSH1 0x20 ADD DUP1 DUP4 GT PUSH2 0xE9 JUMPI DUP3 SWAP1 SUB PUSH1 0x1F AND DUP3 ADD SWAP2 JUMPDEST POP POP POP POP POP SWAP1 POP DUP3 JUMP JUMPDEST PUSH1 0x0 PUSH1 0x40 MLOAD DUP1 PUSH1 0x40 ADD PUSH1 0x40 MSTORE DUP1 DUP5 DUP2 MSTORE PUSH1 0x20 ADD DUP4 DUP2 MSTORE POP SWAP1 POP DUP1 PUSH1 0x0 DUP1 DUP3 ADD MLOAD DUP2 PUSH1 0x0 ADD SSTORE PUSH1 0x20 DUP3 ADD MLOAD DUP2 PUSH1 0x1 ADD SWAP1 DUP2 PUSH2 0x14A SWAP2 SWAP1 PUSH2 0x612 JUMP JUMPDEST POP SWAP1 POP POP POP POP POP JUMP JUMPDEST PUSH1 0x0 DUP2 SWAP1 POP SWAP2 SWAP1 POP JUMP JUMPDEST PUSH2 0x166 DUP2 PUSH2 0x153 JUMP JUMPDEST DUP3 MSTORE POP POP JUMP JUMPDEST PUSH1 0x0 DUP2 MLOAD SWAP1 POP SWAP2 SWAP1 POP JUMP JUMPDEST PUSH1 0x0 DUP3 DUP3 MSTORE PUSH1 0x20 DUP3 ADD SWAP1 POP SWAP3 SWAP2 POP POP JUMP JUMPDEST PUSH1 0x0 JUMPDEST DUP4 DUP2 LT ISZERO PUSH2 0x1A6 JUMPI DUP1 DUP3 ADD MLOAD DUP2 DUP5 ADD MSTORE PUSH1 0x20 DUP2 ADD SWAP1 POP PUSH2 0x18B JUMP JUMPDEST DUP4 DUP2 GT ISZERO PUSH2 0x1B5 JUMPI PUSH1 0x0 DUP5 DUP5 ADD MSTORE JUMPDEST POP POP POP POP JUMP JUMPDEST PUSH1 0x0 PUSH1 0x1F NOT PUSH1 0x1F DUP4 ADD AND SWAP1 POP SWAP2 SWAP1 POP JUMP JUMPDEST PUSH1 0x0 PUSH2 0x1D7 DUP3 PUSH2 0x16C JUMP JUMPDEST PUSH2 0x1E1 DUP2 DUP6 PUSH2 0x177 JUMP JUMPDEST SWAP4 POP PUSH2 0x1F1 DUP2 DUP6 PUSH1 0x20 DUP7 ADD PUSH2 0x188 JUMP JUMPDEST PUSH2 0x1FA DUP2 PUSH2 0x1BB JUMP JUMPDEST DUP5 ADD SWAP2 POP POP SWAP3 SWAP2 POP POP JUMP JUMPDEST PUSH1 0x0 PUSH1 0x40 DUP3 ADD SWAP1 POP PUSH2 0x21A PUSH1 0x0 DUP4 ADD DUP6 PUSH2 0x15D JUMP JUMPDEST DUP2 DUP2 SUB PUSH1 0x20 DUP4 ADD MSTORE PUSH2 0x22C DUP2 DUP5 PUSH2 0x1CC JUMP JUMPDEST SWAP1 POP SWAP4 SWAP3 POP POP POP JUMP JUMPDEST PUSH1 0x0 PUSH1 0x40 MLOAD SWAP1 POP SWAP1 JUMP JUMPDEST PUSH1 0x0 DUP1 REVERT JUMPDEST PUSH1 0x0 DUP1 REVERT JUMPDEST PUSH2 0x252 DUP2 PUSH2 0x153 JUMP JUMPDEST DUP2 EQ PUSH2 0x25D JUMPI PUSH1 0x0 DUP1 REVERT JUMPDEST POP JUMP JUMPDEST PUSH1 0x0 DUP2 CALLDATALOAD SWAP1 POP PUSH2 0x26F DUP2 PUSH2 0x249 JUMP JUMPDEST SWAP3 SWAP2 POP POP JUMP JUMPDEST PUSH1 0x0 DUP1 REVERT JUMPDEST PUSH1 0x0 DUP1 REVERT JUMPDEST PUSH32 0x4E487B7100000000000000000000000000000000000000000000000000000000 PUSH1 0x0 MSTORE PUSH1 0x41 PUSH1 0x4 MSTORE PUSH1 0x24 PUSH1 0x0 REVERT JUMPDEST PUSH2 0x2B7 DUP3 PUSH2 0x1BB JUMP JUMPDEST DUP2 ADD DUP2 DUP2 LT PUSH8 0xFFFFFFFFFFFFFFFF DUP3 GT OR ISZERO PUSH2 0x2D6 JUMPI PUSH2 0x2D5 PUSH2 0x27F JUMP JUMPDEST JUMPDEST DUP1 PUSH1 0x40 MSTORE POP POP POP JUMP JUMPDEST PUSH1 0x0 PUSH2 0x2E9 PUSH2 0x235 JUMP JUMPDEST SWAP1 POP PUSH2 0x2F5 DUP3 DUP3 PUSH2 0x2AE JUMP JUMPDEST SWAP2 SWAP1 POP JUMP JUMPDEST PUSH1 0x0 PUSH8 0xFFFFFFFFFFFFFFFF DUP3 GT ISZERO PUSH2 0x315 JUMPI PUSH2 0x314 PUSH2 0x27F JUMP JUMPDEST JUMPDEST PUSH2 0x31E DUP3 PUSH2 0x1BB JUMP JUMPDEST SWAP1 POP PUSH1 0x20 DUP2 ADD SWAP1 POP SWAP2 SWAP1 POP JUMP JUMPDEST DUP3 DUP2 DUP4 CALLDATACOPY PUSH1 0x0 DUP4 DUP4 ADD MSTORE POP POP POP JUMP JUMPDEST PUSH1 0x0 PUSH2 0x34D PUSH2 0x348 DUP5 PUSH2 0x2FA JUMP JUMPDEST PUSH2 0x2DF JUMP JUMPDEST SWAP1 POP DUP3 DUP2 MSTORE PUSH1 0x20 DUP2 ADD DUP5 DUP5 DUP5 ADD GT ISZERO PUSH2 0x369 JUMPI PUSH2 0x368 PUSH2 0x27A JUMP JUMPDEST JUMPDEST PUSH2 0x374 DUP5 DUP3 DUP6 PUSH2 0x32B JUMP JUMPDEST POP SWAP4 SWAP3 POP POP POP JUMP JUMPDEST PUSH1 0x0 DUP3 PUSH1 0x1F DUP4 ADD SLT PUSH2 0x391 JUMPI PUSH2 0x390 PUSH2 0x275 JUMP JUMPDEST JUMPDEST DUP2 CALLDATALOAD PUSH2 0x3A1 DUP5 DUP3 PUSH1 0x20 DUP7 ADD PUSH2 0x33A JUMP JUMPDEST SWAP2 POP POP SWAP3 SWAP2 POP POP JUMP JUMPDEST PUSH1 0x0 DUP1 PUSH1 0x40 DUP4 DUP6 SUB SLT ISZERO PUSH2 0x3C1 JUMPI PUSH2 0x3C0 PUSH2 0x23F JUMP JUMPDEST JUMPDEST PUSH1 0x0 PUSH2 0x3CF DUP6 DUP3 DUP7 ADD PUSH2 0x260 JUMP JUMPDEST SWAP3 POP POP PUSH1 0x20 DUP4 ADD CALLDATALOAD PUSH8 0xFFFFFFFFFFFFFFFF DUP2 GT ISZERO PUSH2 0x3F0 JUMPI PUSH2 0x3EF PUSH2 0x244 JUMP JUMPDEST JUMPDEST PUSH2 0x3FC DUP6 DUP3 DUP7 ADD PUSH2 0x37C JUMP JUMPDEST SWAP2 POP POP SWAP3 POP SWAP3 SWAP1 POP JUMP JUMPDEST PUSH32 0x4E487B7100000000000000000000000000000000000000000000000000000000 PUSH1 0x0 MSTORE PUSH1 0x22 PUSH1 0x4 MSTORE PUSH1 0x24 PUSH1 0x0 REVERT JUMPDEST PUSH1 0x0 PUSH1 0x2 DUP3 DIV SWAP1 POP PUSH1 0x1 DUP3 AND DUP1 PUSH2 0x44D JUMPI PUSH1 0x7F DUP3 AND SWAP2 POP JUMPDEST PUSH1 0x20 DUP3 LT DUP2 SUB PUSH2 0x460 JUMPI PUSH2 0x45F PUSH2 0x406 JUMP JUMPDEST JUMPDEST POP SWAP2 SWAP1 POP JUMP JUMPDEST PUSH1 0x0 DUP2 SWAP1 POP DUP2 PUSH1 0x0 MSTORE PUSH1 0x20 PUSH1 0x0 KECCAK256 SWAP1 POP SWAP2 SWAP1 POP JUMP JUMPDEST PUSH1 0x0 PUSH1 0x20 PUSH1 0x1F DUP4 ADD DIV SWAP1 POP SWAP2 SWAP1 POP JUMP JUMPDEST PUSH1 0x0 DUP3 DUP3 SHL SWAP1 POP SWAP3 SWAP2 POP POP JUMP JUMPDEST PUSH1 0x0 PUSH1 0x8 DUP4 MUL PUSH2 0x4C8 PUSH32 0xFFFFFFFFFFFFFFFFFFFFFFFFFFFFFFFFFFFFFFFFFFFFFFFFFFFFFFFFFFFFFFFF DUP3 PUSH2 0x48B JUMP JUMPDEST PUSH2 0x4D2 DUP7 DUP4 PUSH2 0x48B JUMP JUMPDEST SWAP6 POP DUP1 NOT DUP5 AND SWAP4 POP DUP1 DUP7 AND DUP5 OR SWAP3 POP POP POP SWAP4 SWAP3 POP POP POP JUMP JUMPDEST PUSH1 0x0 DUP2 SWAP1 POP SWAP2 SWAP1 POP JUMP JUMPDEST PUSH1 0x0 PUSH2 0x50F PUSH2 0x50A PUSH2 0x505 DUP5 PUSH2 0x153 JUMP JUMPDEST PUSH2 0x4EA JUMP JUMPDEST PUSH2 0x153 JUMP JUMPDEST SWAP1 POP SWAP2 SWAP1 POP JUMP JUMPDEST PUSH1 0x0 DUP2 SWAP1 POP SWAP2 SWAP1 POP JUMP JUMPDEST PUSH2 0x529 DUP4 PUSH2 0x4F4 JUMP JUMPDEST PUSH2 0x53D PUSH2 0x535 DUP3 PUSH2 0x516 JUMP JUMPDEST DUP5 DUP5 SLOAD PUSH2 0x498 JUMP JUMPDEST DUP3 SSTORE POP POP POP POP JUMP JUMPDEST PUSH1 0x0 SWAP1 JUMP JUMPDEST PUSH2 0x552 PUSH2 0x545 JUMP JUMPDEST PUSH2 0x55D DUP2 DUP5 DUP5 PUSH2 0x520 JUMP JUMPDEST POP POP POP JUMP JUMPDEST JUMPDEST DUP2 DUP2 LT ISZERO PUSH2 0x581 JUMPI PUSH2 0x576 PUSH1 0x0 DUP3 PUSH2 0x54A JUMP JUMPDEST PUSH1 0x1 DUP2 ADD SWAP1 POP PUSH2 0x563 JUMP JUMPDEST POP POP JUMP JUMPDEST PUSH1 0x1F DUP3 GT ISZERO PUSH2 0x5C6 JUMPI PUSH2 0x597 DUP2 PUSH2 0x466 JUMP JUMPDEST PUSH2 0x5A0 DUP5 PUSH2 0x47B JUMP JUMPDEST DUP2 ADD PUSH1 0x20 DUP6 LT ISZERO PUSH2 0x5AF JUMPI DUP2 SWAP1 POP JUMPDEST PUSH2 0x5C3 PUSH2 0x5BB DUP6 PUSH2 0x47B JUMP JUMPDEST DUP4 ADD DUP3 PUSH2 0x562 JUMP JUMPDEST POP POP JUMPDEST POP POP POP JUMP JUMPDEST PUSH1 0x0 DUP3 DUP3 SHR SWAP1 POP SWAP3 SWAP2 POP POP JUMP JUMPDEST PUSH1 0x0 PUSH2 0x5E9 PUSH1 0x0 NOT DUP5 PUSH1 0x8 MUL PUSH2 0x5CB JUMP JUMPDEST NOT DUP1 DUP4 AND SWAP2 POP POP SWAP3 SWAP2 POP POP JUMP JUMPDEST PUSH1 0x0 PUSH2 0x602 DUP4 DUP4 PUSH2 0x5D8 JUMP JUMPDEST SWAP2 POP DUP3 PUSH1 0x2 MUL DUP3 OR SWAP1 POP SWAP3 SWAP2 POP POP JUMP JUMPDEST PUSH2 0x61B DUP3 PUSH2 0x16C JUMP JUMPDEST PUSH8 0xFFFFFFFFFFFFFFFF DUP2 GT ISZERO PUSH2 0x634 JUMPI PUSH2 0x633 PUSH2 0x27F JUMP JUMPDEST JUMPDEST PUSH2 0x63E DUP3 SLOAD PUSH2 0x435 JUMP JUMPDEST PUSH2 0x649 DUP3 DUP3 DUP6 PUSH2 0x585 JUMP JUMPDEST PUSH1 0x0 PUSH1 0x20 SWAP1 POP PUSH1 0x1F DUP4 GT PUSH1 0x1 DUP2 EQ PUSH2 0x67C JUMPI PUSH1 0x0 DUP5 ISZERO PUSH2 0x66A JUMPI DUP3 DUP8 ADD MLOAD SWAP1 POP JUMPDEST PUSH2 0x674 DUP6 DUP3 PUSH2 0x5F6 JUMP JUMPDEST DUP7 SSTORE POP PUSH2 0x6DC JUMP JUMPDEST PUSH1 0x1F NOT DUP5 AND PUSH2 0x68A DUP7 PUSH2 0x466 JUMP JUMPDEST PUSH1 0x0 JUMPDEST DUP3 DUP2 LT ISZERO PUSH2 0x6B2 JUMPI DUP5 DUP10 ADD MLOAD DUP3 SSTORE PUSH1 0x1 DUP3 ADD SWAP2 POP PUSH1 0x20 DUP6 ADD SWAP5 POP PUSH1 0x20 DUP2 ADD SWAP1 POP PUSH2 0x68D JUMP JUMPDEST DUP7 DUP4 LT ISZERO PUSH2 0x6CF JUMPI DUP5 DUP10 ADD MLOAD PUSH2 0x6CB PUSH1 0x1F DUP10 AND DUP3 PUSH2 0x5D8 JUMP JUMPDEST DUP4 SSTORE POP JUMPDEST PUSH1 0x1 PUSH1 0x2 DUP9 MUL ADD DUP9 SSTORE POP POP POP JUMPDEST POP POP POP POP POP POP JUMP INVALID LOG2 PUSH5 0x6970667358 0x22 SLT KECCAK256 LOG3 0xCF 0xD5 0xCC DUP1 MOD MSTORE PUSH15 0xF26DADD3D02A03C135E9FF77DB4FA2 REVERT MOD 0xE5 DUP6 EXTCODEHASH DUP2 0x4C DUP15 PUSH11 0x64736F6C634300080F0033 "
				},
				"gasEstimates": {
					"creation": {
						"codeDepositCost": "363600",
						"executionCost": "infinite",
						"totalCost": "infinite"
					},
					"external": {
						"change(uint256,string)": "infinite",
						"s1()": "infinite"
					}
				},
				"methodIdentifiers": {
					"change(uint256,string)": "c75226ec",
					"s1()": "6cc014de"
				}
			},
			"storageLayout": {
				"storage": [
					{
						"astId": 9,
						"contract": "gist.sol:Demo",
						"label": "s1",
						"offset": 0,
						"slot": "0",
						"type": "t_struct(Student)6_storage"
					}
				],
				"types": {
					"t_string_storage": {
						"encoding": "bytes",
						"label": "string",
						"numberOfBytes": "32"
					},
					"t_struct(Student)6_storage": {
						"encoding": "inplace",
						"label": "struct Student",
						"members": [
							{
								"astId": 3,
								"contract": "gist.sol:Demo",
								"label": "roll",
								"offset": 0,
								"slot": "0",
								"type": "t_uint256"
							},
							{
								"astId": 5,
								"contract": "gist.sol:Demo",
								"label": "name",
								"offset": 0,
								"slot": "1",
								"type": "t_string_storage"
							}
						],
						"numberOfBytes": "64"
					},
					"t_uint256": {
						"encoding": "inplace",
						"label": "uint256",
						"numberOfBytes": "32"
					}
				}
			},
			"userdoc": {
				"kind": "user",
				"methods": {},
				"version": 1
			}
		}
	}
}