{
	"testing.sol": {
		"testing": {
			"abi": [
				{
					"inputs": [
						{
							"internalType": "uint256",
							"name": "",
							"type": "uint256"
						}
					],
					"name": "book_detail",
					"outputs": [
						{
							"internalType": "string",
							"name": "title",
							"type": "string"
						},
						{
							"internalType": "string",
							"name": "author",
							"type": "string"
						},
						{
							"internalType": "uint256",
							"name": "number",
							"type": "uint256"
						},
						{
							"internalType": "uint256",
							"name": "shelfbook",
							"type": "uint256"
						}
					],
					"stateMutability": "view",
					"type": "function"
				},
				{
					"inputs": [
						{
							"internalType": "uint256",
							"name": "id",
							"type": "uint256"
						},
						{
							"internalType": "string",
							"name": "title",
							"type": "string"
						},
						{
							"internalType": "string",
							"name": "author",
							"type": "string"
						},
						{
							"internalType": "uint256",
							"name": "number",
							"type": "uint256"
						},
						{
							"internalType": "uint256",
							"name": "shelfbook",
							"type": "uint256"
						}
					],
					"name": "set",
					"outputs": [],
					"stateMutability": "nonpayable",
					"type": "function"
				}
			],
			"devdoc": {
				"kind": "dev",
				"methods": {},
				"version": 1
			},
			"evm": {
				"assembly": "    /* \"testing.sol\":66:437  contract testing{... */\n  mstore(0x40, 0x80)\n  callvalue\n  dup1\n  iszero\n  tag_1\n  jumpi\n  0x00\n  dup1\n  revert\ntag_1:\n  pop\n  dataSize(sub_0)\n  dup1\n  dataOffset(sub_0)\n  0x00\n  codecopy\n  0x00\n  return\nstop\n\nsub_0: assembly {\n        /* \"testing.sol\":66:437  contract testing{... */\n      mstore(0x40, 0x80)\n      callvalue\n      dup1\n      iszero\n      tag_1\n      jumpi\n      0x00\n      dup1\n      revert\n    tag_1:\n      pop\n      jumpi(tag_2, lt(calldatasize, 0x04))\n      shr(0xe0, calldataload(0x00))\n      dup1\n      0x5365ce58\n      eq\n      tag_3\n      jumpi\n      dup1\n      0x9ab14cb0\n      eq\n      tag_4\n      jumpi\n    tag_2:\n      0x00\n      dup1\n      revert\n        /* \"testing.sol\":258:434  function set (uint id, string memory title, string memory author, uint number, uint shelfbook) public {... */\n    tag_3:\n      tag_5\n      0x04\n      dup1\n      calldatasize\n      sub\n      dup2\n      add\n      swap1\n      tag_6\n      swap2\n      swap1\n      tag_7\n      jump\t// in\n    tag_6:\n      tag_8\n      jump\t// in\n    tag_5:\n      stop\n        /* \"testing.sol\":208:249  mapping (uint => book) public book_detail */\n    tag_4:\n      tag_9\n      0x04\n      dup1\n      calldatasize\n      sub\n      dup2\n      add\n      swap1\n      tag_10\n      swap2\n      swap1\n      tag_11\n      jump\t// in\n    tag_10:\n      tag_12\n      jump\t// in\n    tag_9:\n      mload(0x40)\n      tag_13\n      swap5\n      swap4\n      swap3\n      swap2\n      swap1\n      tag_14\n      jump\t// in\n    tag_13:\n      mload(0x40)\n      dup1\n      swap2\n      sub\n      swap1\n      return\n        /* \"testing.sol\":258:434  function set (uint id, string memory title, string memory author, uint number, uint shelfbook) public {... */\n    tag_8:\n        /* \"testing.sol\":388:424  book (title,author,number,shelfbook) */\n      mload(0x40)\n      dup1\n      0x80\n      add\n      0x40\n      mstore\n      dup1\n        /* \"testing.sol\":394:399  title */\n      dup6\n        /* \"testing.sol\":388:424  book (title,author,number,shelfbook) */\n      dup2\n      mstore\n      0x20\n      add\n        /* \"testing.sol\":400:406  author */\n      dup5\n        /* \"testing.sol\":388:424  book (title,author,number,shelfbook) */\n      dup2\n      mstore\n      0x20\n      add\n        /* \"testing.sol\":407:413  number */\n      dup4\n        /* \"testing.sol\":388:424  book (title,author,number,shelfbook) */\n      dup2\n      mstore\n      0x20\n      add\n        /* \"testing.sol\":414:423  shelfbook */\n      dup3\n        /* \"testing.sol\":388:424  book (title,author,number,shelfbook) */\n      dup2\n      mstore\n      pop\n        /* \"testing.sol\":371:382  book_detail */\n      0x00\n        /* \"testing.sol\":371:386  book_detail[id] */\n      dup1\n        /* \"testing.sol\":383:385  id */\n      dup8\n        /* \"testing.sol\":371:386  book_detail[id] */\n      dup2\n      mstore\n      0x20\n      add\n      swap1\n      dup2\n      mstore\n      0x20\n      add\n      0x00\n      keccak256\n        /* \"testing.sol\":371:424  book_detail[id]= book (title,author,number,shelfbook) */\n      0x00\n      dup3\n      add\n      mload\n      dup2\n      0x00\n      add\n      swap1\n      dup2\n      tag_16\n      swap2\n      swap1\n      tag_17\n      jump\t// in\n    tag_16:\n      pop\n      0x20\n      dup3\n      add\n      mload\n      dup2\n      0x01\n      add\n      swap1\n      dup2\n      tag_18\n      swap2\n      swap1\n      tag_17\n      jump\t// in\n    tag_18:\n      pop\n      0x40\n      dup3\n      add\n      mload\n      dup2\n      0x02\n      add\n      sstore\n      0x60\n      dup3\n      add\n      mload\n      dup2\n      0x03\n      add\n      sstore\n      swap1\n      pop\n      pop\n        /* \"testing.sol\":258:434  function set (uint id, string memory title, string memory author, uint number, uint shelfbook) public {... */\n      pop\n      pop\n      pop\n      pop\n      pop\n      jump\t// out\n        /* \"testing.sol\":208:249  mapping (uint => book) public book_detail */\n    tag_12:\n      mstore(0x20, 0x00)\n      dup1\n      0x00\n      mstore\n      keccak256(0x00, 0x40)\n      0x00\n      swap2\n      pop\n      swap1\n      pop\n      dup1\n      0x00\n      add\n      dup1\n      sload\n      tag_19\n      swap1\n      tag_20\n      jump\t// in\n    tag_19:\n      dup1\n      0x1f\n      add\n      0x20\n      dup1\n      swap2\n      div\n      mul\n      0x20\n      add\n      mload(0x40)\n      swap1\n      dup2\n      add\n      0x40\n      mstore\n      dup1\n      swap3\n      swap2\n      swap1\n      dup2\n      dup2\n      mstore\n      0x20\n      add\n      dup3\n      dup1\n      sload\n      tag_21\n      swap1\n      tag_20\n      jump\t// in\n    tag_21:\n      dup1\n      iszero\n      tag_22\n      jumpi\n      dup1\n      0x1f\n      lt\n      tag_23\n      jumpi\n      0x0100\n      dup1\n      dup4\n      sload\n      div\n      mul\n      dup4\n      mstore\n      swap2\n      0x20\n      add\n      swap2\n      jump(tag_22)\n    tag_23:\n      dup3\n      add\n      swap2\n      swap1\n      0x00\n      mstore\n      keccak256(0x00, 0x20)\n      swap1\n    tag_24:\n      dup2\n      sload\n      dup2\n      mstore\n      swap1\n      0x01\n      add\n      swap1\n      0x20\n      add\n      dup1\n      dup4\n      gt\n      tag_24\n      jumpi\n      dup3\n      swap1\n      sub\n      0x1f\n      and\n      dup3\n      add\n      swap2\n    tag_22:\n      pop\n      pop\n      pop\n      pop\n      pop\n      swap1\n      dup1\n      0x01\n      add\n      dup1\n      sload\n      tag_25\n      swap1\n      tag_20\n      jump\t// in\n    tag_25:\n      dup1\n      0x1f\n      add\n      0x20\n      dup1\n      swap2\n      div\n      mul\n      0x20\n      add\n      mload(0x40)\n      swap1\n      dup2\n      add\n      0x40\n      mstore\n      dup1\n      swap3\n      swap2\n      swap1\n      dup2\n      dup2\n      mstore\n      0x20\n      add\n      dup3\n      dup1\n      sload\n      tag_26\n      swap1\n      tag_20\n      jump\t// in\n    tag_26:\n      dup1\n      iszero\n      tag_27\n      jumpi\n      dup1\n      0x1f\n      lt\n      tag_28\n      jumpi\n      0x0100\n      dup1\n      dup4\n      sload\n      div\n      mul\n      dup4\n      mstore\n      swap2\n      0x20\n      add\n      swap2\n      jump(tag_27)\n    tag_28:\n      dup3\n      add\n      swap2\n      swap1\n      0x00\n      mstore\n      keccak256(0x00, 0x20)\n      swap1\n    tag_29:\n      dup2\n      sload\n      dup2\n      mstore\n      swap1\n      0x01\n      add\n      swap1\n      0x20\n      add\n      dup1\n      dup4\n      gt\n      tag_29\n      jumpi\n      dup3\n      swap1\n      sub\n      0x1f\n      and\n      dup3\n      add\n      swap2\n    tag_27:\n      pop\n      pop\n      pop\n      pop\n      pop\n      swap1\n      dup1\n      0x02\n      add\n      sload\n      swap1\n      dup1\n      0x03\n      add\n      sload\n      swap1\n      pop\n      dup5\n      jump\t// out\n        /* \"#utility.yul\":7:82   */\n    tag_30:\n        /* \"#utility.yul\":40:46   */\n      0x00\n        /* \"#utility.yul\":73:75   */\n      0x40\n        /* \"#utility.yul\":67:76   */\n      mload\n        /* \"#utility.yul\":57:76   */\n      swap1\n      pop\n        /* \"#utility.yul\":7:82   */\n      swap1\n      jump\t// out\n        /* \"#utility.yul\":88:205   */\n    tag_31:\n        /* \"#utility.yul\":197:198   */\n      0x00\n        /* \"#utility.yul\":194:195   */\n      dup1\n        /* \"#utility.yul\":187:199   */\n      revert\n        /* \"#utility.yul\":211:328   */\n    tag_32:\n        /* \"#utility.yul\":320:321   */\n      0x00\n        /* \"#utility.yul\":317:318   */\n      dup1\n        /* \"#utility.yul\":310:322   */\n      revert\n        /* \"#utility.yul\":334:411   */\n    tag_33:\n        /* \"#utility.yul\":371:378   */\n      0x00\n        /* \"#utility.yul\":400:405   */\n      dup2\n        /* \"#utility.yul\":389:405   */\n      swap1\n      pop\n        /* \"#utility.yul\":334:411   */\n      swap2\n      swap1\n      pop\n      jump\t// out\n        /* \"#utility.yul\":417:539   */\n    tag_34:\n        /* \"#utility.yul\":490:514   */\n      tag_73\n        /* \"#utility.yul\":508:513   */\n      dup2\n        /* \"#utility.yul\":490:514   */\n      tag_33\n      jump\t// in\n    tag_73:\n        /* \"#utility.yul\":483:488   */\n      dup2\n        /* \"#utility.yul\":480:515   */\n      eq\n        /* \"#utility.yul\":470:533   */\n      tag_74\n      jumpi\n        /* \"#utility.yul\":529:530   */\n      0x00\n        /* \"#utility.yul\":526:527   */\n      dup1\n        /* \"#utility.yul\":519:531   */\n      revert\n        /* \"#utility.yul\":470:533   */\n    tag_74:\n        /* \"#utility.yul\":417:539   */\n      pop\n      jump\t// out\n        /* \"#utility.yul\":545:684   */\n    tag_35:\n        /* \"#utility.yul\":591:596   */\n      0x00\n        /* \"#utility.yul\":629:635   */\n      dup2\n        /* \"#utility.yul\":616:636   */\n      calldataload\n        /* \"#utility.yul\":607:636   */\n      swap1\n      pop\n        /* \"#utility.yul\":645:678   */\n      tag_76\n        /* \"#utility.yul\":672:677   */\n      dup2\n        /* \"#utility.yul\":645:678   */\n      tag_34\n      jump\t// in\n    tag_76:\n        /* \"#utility.yul\":545:684   */\n      swap3\n      swap2\n      pop\n      pop\n      jump\t// out\n        /* \"#utility.yul\":690:807   */\n    tag_36:\n        /* \"#utility.yul\":799:800   */\n      0x00\n        /* \"#utility.yul\":796:797   */\n      dup1\n        /* \"#utility.yul\":789:801   */\n      revert\n        /* \"#utility.yul\":813:930   */\n    tag_37:\n        /* \"#utility.yul\":922:923   */\n      0x00\n        /* \"#utility.yul\":919:920   */\n      dup1\n        /* \"#utility.yul\":912:924   */\n      revert\n        /* \"#utility.yul\":936:1038   */\n    tag_38:\n        /* \"#utility.yul\":977:983   */\n      0x00\n        /* \"#utility.yul\":1028:1030   */\n      0x1f\n        /* \"#utility.yul\":1024:1031   */\n      not\n        /* \"#utility.yul\":1019:1021   */\n      0x1f\n        /* \"#utility.yul\":1012:1017   */\n      dup4\n        /* \"#utility.yul\":1008:1022   */\n      add\n        /* \"#utility.yul\":1004:1032   */\n      and\n        /* \"#utility.yul\":994:1032   */\n      swap1\n      pop\n        /* \"#utility.yul\":936:1038   */\n      swap2\n      swap1\n      pop\n      jump\t// out\n        /* \"#utility.yul\":1044:1224   */\n    tag_39:\n        /* \"#utility.yul\":1092:1169   */\n      0x4e487b7100000000000000000000000000000000000000000000000000000000\n        /* \"#utility.yul\":1089:1090   */\n      0x00\n        /* \"#utility.yul\":1082:1170   */\n      mstore\n        /* \"#utility.yul\":1189:1193   */\n      0x41\n        /* \"#utility.yul\":1186:1187   */\n      0x04\n        /* \"#utility.yul\":1179:1194   */\n      mstore\n        /* \"#utility.yul\":1213:1217   */\n      0x24\n        /* \"#utility.yul\":1210:1211   */\n      0x00\n        /* \"#utility.yul\":1203:1218   */\n      revert\n        /* \"#utility.yul\":1230:1511   */\n    tag_40:\n        /* \"#utility.yul\":1313:1340   */\n      tag_82\n        /* \"#utility.yul\":1335:1339   */\n      dup3\n        /* \"#utility.yul\":1313:1340   */\n      tag_38\n      jump\t// in\n    tag_82:\n        /* \"#utility.yul\":1305:1311   */\n      dup2\n        /* \"#utility.yul\":1301:1341   */\n      add\n        /* \"#utility.yul\":1443:1449   */\n      dup2\n        /* \"#utility.yul\":1431:1441   */\n      dup2\n        /* \"#utility.yul\":1428:1450   */\n      lt\n        /* \"#utility.yul\":1407:1425   */\n      0xffffffffffffffff\n        /* \"#utility.yul\":1395:1405   */\n      dup3\n        /* \"#utility.yul\":1392:1426   */\n      gt\n        /* \"#utility.yul\":1389:1451   */\n      or\n        /* \"#utility.yul\":1386:1474   */\n      iszero\n      tag_83\n      jumpi\n        /* \"#utility.yul\":1454:1472   */\n      tag_84\n      tag_39\n      jump\t// in\n    tag_84:\n        /* \"#utility.yul\":1386:1474   */\n    tag_83:\n        /* \"#utility.yul\":1494:1504   */\n      dup1\n        /* \"#utility.yul\":1490:1492   */\n      0x40\n        /* \"#utility.yul\":1483:1505   */\n      mstore\n        /* \"#utility.yul\":1273:1511   */\n      pop\n        /* \"#utility.yul\":1230:1511   */\n      pop\n      pop\n      jump\t// out\n        /* \"#utility.yul\":1517:1646   */\n    tag_41:\n        /* \"#utility.yul\":1551:1557   */\n      0x00\n        /* \"#utility.yul\":1578:1598   */\n      tag_86\n      tag_30\n      jump\t// in\n    tag_86:\n        /* \"#utility.yul\":1568:1598   */\n      swap1\n      pop\n        /* \"#utility.yul\":1607:1640   */\n      tag_87\n        /* \"#utility.yul\":1635:1639   */\n      dup3\n        /* \"#utility.yul\":1627:1633   */\n      dup3\n        /* \"#utility.yul\":1607:1640   */\n      tag_40\n      jump\t// in\n    tag_87:\n        /* \"#utility.yul\":1517:1646   */\n      swap2\n      swap1\n      pop\n      jump\t// out\n        /* \"#utility.yul\":1652:1960   */\n    tag_42:\n        /* \"#utility.yul\":1714:1718   */\n      0x00\n        /* \"#utility.yul\":1804:1822   */\n      0xffffffffffffffff\n        /* \"#utility.yul\":1796:1802   */\n      dup3\n        /* \"#utility.yul\":1793:1823   */\n      gt\n        /* \"#utility.yul\":1790:1846   */\n      iszero\n      tag_89\n      jumpi\n        /* \"#utility.yul\":1826:1844   */\n      tag_90\n      tag_39\n      jump\t// in\n    tag_90:\n        /* \"#utility.yul\":1790:1846   */\n    tag_89:\n        /* \"#utility.yul\":1864:1893   */\n      tag_91\n        /* \"#utility.yul\":1886:1892   */\n      dup3\n        /* \"#utility.yul\":1864:1893   */\n      tag_38\n      jump\t// in\n    tag_91:\n        /* \"#utility.yul\":1856:1893   */\n      swap1\n      pop\n        /* \"#utility.yul\":1948:1952   */\n      0x20\n        /* \"#utility.yul\":1942:1946   */\n      dup2\n        /* \"#utility.yul\":1938:1953   */\n      add\n        /* \"#utility.yul\":1930:1953   */\n      swap1\n      pop\n        /* \"#utility.yul\":1652:1960   */\n      swap2\n      swap1\n      pop\n      jump\t// out\n        /* \"#utility.yul\":1966:2120   */\n    tag_43:\n        /* \"#utility.yul\":2050:2056   */\n      dup3\n        /* \"#utility.yul\":2045:2048   */\n      dup2\n        /* \"#utility.yul\":2040:2043   */\n      dup4\n        /* \"#utility.yul\":2027:2057   */\n      calldatacopy\n        /* \"#utility.yul\":2112:2113   */\n      0x00\n        /* \"#utility.yul\":2103:2109   */\n      dup4\n        /* \"#utility.yul\":2098:2101   */\n      dup4\n        /* \"#utility.yul\":2094:2110   */\n      add\n        /* \"#utility.yul\":2087:2114   */\n      mstore\n        /* \"#utility.yul\":1966:2120   */\n      pop\n      pop\n      pop\n      jump\t// out\n        /* \"#utility.yul\":2126:2538   */\n    tag_44:\n        /* \"#utility.yul\":2204:2209   */\n      0x00\n        /* \"#utility.yul\":2229:2295   */\n      tag_94\n        /* \"#utility.yul\":2245:2294   */\n      tag_95\n        /* \"#utility.yul\":2287:2293   */\n      dup5\n        /* \"#utility.yul\":2245:2294   */\n      tag_42\n      jump\t// in\n    tag_95:\n        /* \"#utility.yul\":2229:2295   */\n      tag_41\n      jump\t// in\n    tag_94:\n        /* \"#utility.yul\":2220:2295   */\n      swap1\n      pop\n        /* \"#utility.yul\":2318:2324   */\n      dup3\n        /* \"#utility.yul\":2311:2316   */\n      dup2\n        /* \"#utility.yul\":2304:2325   */\n      mstore\n        /* \"#utility.yul\":2356:2360   */\n      0x20\n        /* \"#utility.yul\":2349:2354   */\n      dup2\n        /* \"#utility.yul\":2345:2361   */\n      add\n        /* \"#utility.yul\":2394:2397   */\n      dup5\n        /* \"#utility.yul\":2385:2391   */\n      dup5\n        /* \"#utility.yul\":2380:2383   */\n      dup5\n        /* \"#utility.yul\":2376:2392   */\n      add\n        /* \"#utility.yul\":2373:2398   */\n      gt\n        /* \"#utility.yul\":2370:2482   */\n      iszero\n      tag_96\n      jumpi\n        /* \"#utility.yul\":2401:2480   */\n      tag_97\n      tag_37\n      jump\t// in\n    tag_97:\n        /* \"#utility.yul\":2370:2482   */\n    tag_96:\n        /* \"#utility.yul\":2491:2532   */\n      tag_98\n        /* \"#utility.yul\":2525:2531   */\n      dup5\n        /* \"#utility.yul\":2520:2523   */\n      dup3\n        /* \"#utility.yul\":2515:2518   */\n      dup6\n        /* \"#utility.yul\":2491:2532   */\n      tag_43\n      jump\t// in\n    tag_98:\n        /* \"#utility.yul\":2210:2538   */\n      pop\n        /* \"#utility.yul\":2126:2538   */\n      swap4\n      swap3\n      pop\n      pop\n      pop\n      jump\t// out\n        /* \"#utility.yul\":2558:2898   */\n    tag_45:\n        /* \"#utility.yul\":2614:2619   */\n      0x00\n        /* \"#utility.yul\":2663:2666   */\n      dup3\n        /* \"#utility.yul\":2656:2660   */\n      0x1f\n        /* \"#utility.yul\":2648:2654   */\n      dup4\n        /* \"#utility.yul\":2644:2661   */\n      add\n        /* \"#utility.yul\":2640:2667   */\n      slt\n        /* \"#utility.yul\":2630:2752   */\n      tag_100\n      jumpi\n        /* \"#utility.yul\":2671:2750   */\n      tag_101\n      tag_36\n      jump\t// in\n    tag_101:\n        /* \"#utility.yul\":2630:2752   */\n    tag_100:\n        /* \"#utility.yul\":2788:2794   */\n      dup2\n        /* \"#utility.yul\":2775:2795   */\n      calldataload\n        /* \"#utility.yul\":2813:2892   */\n      tag_102\n        /* \"#utility.yul\":2888:2891   */\n      dup5\n        /* \"#utility.yul\":2880:2886   */\n      dup3\n        /* \"#utility.yul\":2873:2877   */\n      0x20\n        /* \"#utility.yul\":2865:2871   */\n      dup7\n        /* \"#utility.yul\":2861:2878   */\n      add\n        /* \"#utility.yul\":2813:2892   */\n      tag_44\n      jump\t// in\n    tag_102:\n        /* \"#utility.yul\":2804:2892   */\n      swap2\n      pop\n        /* \"#utility.yul\":2620:2898   */\n      pop\n        /* \"#utility.yul\":2558:2898   */\n      swap3\n      swap2\n      pop\n      pop\n      jump\t// out\n        /* \"#utility.yul\":2904:4175   */\n    tag_7:\n        /* \"#utility.yul\":3019:3025   */\n      0x00\n        /* \"#utility.yul\":3027:3033   */\n      dup1\n        /* \"#utility.yul\":3035:3041   */\n      0x00\n        /* \"#utility.yul\":3043:3049   */\n      dup1\n        /* \"#utility.yul\":3051:3057   */\n      0x00\n        /* \"#utility.yul\":3100:3103   */\n      0xa0\n        /* \"#utility.yul\":3088:3097   */\n      dup7\n        /* \"#utility.yul\":3079:3086   */\n      dup9\n        /* \"#utility.yul\":3075:3098   */\n      sub\n        /* \"#utility.yul\":3071:3104   */\n      slt\n        /* \"#utility.yul\":3068:3188   */\n      iszero\n      tag_104\n      jumpi\n        /* \"#utility.yul\":3107:3186   */\n      tag_105\n      tag_31\n      jump\t// in\n    tag_105:\n        /* \"#utility.yul\":3068:3188   */\n    tag_104:\n        /* \"#utility.yul\":3227:3228   */\n      0x00\n        /* \"#utility.yul\":3252:3305   */\n      tag_106\n        /* \"#utility.yul\":3297:3304   */\n      dup9\n        /* \"#utility.yul\":3288:3294   */\n      dup3\n        /* \"#utility.yul\":3277:3286   */\n      dup10\n        /* \"#utility.yul\":3273:3295   */\n      add\n        /* \"#utility.yul\":3252:3305   */\n      tag_35\n      jump\t// in\n    tag_106:\n        /* \"#utility.yul\":3242:3305   */\n      swap6\n      pop\n        /* \"#utility.yul\":3198:3315   */\n      pop\n        /* \"#utility.yul\":3382:3384   */\n      0x20\n        /* \"#utility.yul\":3371:3380   */\n      dup7\n        /* \"#utility.yul\":3367:3385   */\n      add\n        /* \"#utility.yul\":3354:3386   */\n      calldataload\n        /* \"#utility.yul\":3413:3431   */\n      0xffffffffffffffff\n        /* \"#utility.yul\":3405:3411   */\n      dup2\n        /* \"#utility.yul\":3402:3432   */\n      gt\n        /* \"#utility.yul\":3399:3516   */\n      iszero\n      tag_107\n      jumpi\n        /* \"#utility.yul\":3435:3514   */\n      tag_108\n      tag_32\n      jump\t// in\n    tag_108:\n        /* \"#utility.yul\":3399:3516   */\n    tag_107:\n        /* \"#utility.yul\":3540:3603   */\n      tag_109\n        /* \"#utility.yul\":3595:3602   */\n      dup9\n        /* \"#utility.yul\":3586:3592   */\n      dup3\n        /* \"#utility.yul\":3575:3584   */\n      dup10\n        /* \"#utility.yul\":3571:3593   */\n      add\n        /* \"#utility.yul\":3540:3603   */\n      tag_45\n      jump\t// in\n    tag_109:\n        /* \"#utility.yul\":3530:3603   */\n      swap5\n      pop\n        /* \"#utility.yul\":3325:3613   */\n      pop\n        /* \"#utility.yul\":3680:3682   */\n      0x40\n        /* \"#utility.yul\":3669:3678   */\n      dup7\n        /* \"#utility.yul\":3665:3683   */\n      add\n        /* \"#utility.yul\":3652:3684   */\n      calldataload\n        /* \"#utility.yul\":3711:3729   */\n      0xffffffffffffffff\n        /* \"#utility.yul\":3703:3709   */\n      dup2\n        /* \"#utility.yul\":3700:3730   */\n      gt\n        /* \"#utility.yul\":3697:3814   */\n      iszero\n      tag_110\n      jumpi\n        /* \"#utility.yul\":3733:3812   */\n      tag_111\n      tag_32\n      jump\t// in\n    tag_111:\n        /* \"#utility.yul\":3697:3814   */\n    tag_110:\n        /* \"#utility.yul\":3838:3901   */\n      tag_112\n        /* \"#utility.yul\":3893:3900   */\n      dup9\n        /* \"#utility.yul\":3884:3890   */\n      dup3\n        /* \"#utility.yul\":3873:3882   */\n      dup10\n        /* \"#utility.yul\":3869:3891   */\n      add\n        /* \"#utility.yul\":3838:3901   */\n      tag_45\n      jump\t// in\n    tag_112:\n        /* \"#utility.yul\":3828:3901   */\n      swap4\n      pop\n        /* \"#utility.yul\":3623:3911   */\n      pop\n        /* \"#utility.yul\":3950:3952   */\n      0x60\n        /* \"#utility.yul\":3976:4029   */\n      tag_113\n        /* \"#utility.yul\":4021:4028   */\n      dup9\n        /* \"#utility.yul\":4012:4018   */\n      dup3\n        /* \"#utility.yul\":4001:4010   */\n      dup10\n        /* \"#utility.yul\":3997:4019   */\n      add\n        /* \"#utility.yul\":3976:4029   */\n      tag_35\n      jump\t// in\n    tag_113:\n        /* \"#utility.yul\":3966:4029   */\n      swap3\n      pop\n        /* \"#utility.yul\":3921:4039   */\n      pop\n        /* \"#utility.yul\":4078:4081   */\n      0x80\n        /* \"#utility.yul\":4105:4158   */\n      tag_114\n        /* \"#utility.yul\":4150:4157   */\n      dup9\n        /* \"#utility.yul\":4141:4147   */\n      dup3\n        /* \"#utility.yul\":4130:4139   */\n      dup10\n        /* \"#utility.yul\":4126:4148   */\n      add\n        /* \"#utility.yul\":4105:4158   */\n      tag_35\n      jump\t// in\n    tag_114:\n        /* \"#utility.yul\":4095:4158   */\n      swap2\n      pop\n        /* \"#utility.yul\":4049:4168   */\n      pop\n        /* \"#utility.yul\":2904:4175   */\n      swap3\n      swap6\n      pop\n      swap3\n      swap6\n      swap1\n      swap4\n      pop\n      jump\t// out\n        /* \"#utility.yul\":4181:4510   */\n    tag_11:\n        /* \"#utility.yul\":4240:4246   */\n      0x00\n        /* \"#utility.yul\":4289:4291   */\n      0x20\n        /* \"#utility.yul\":4277:4286   */\n      dup3\n        /* \"#utility.yul\":4268:4275   */\n      dup5\n        /* \"#utility.yul\":4264:4287   */\n      sub\n        /* \"#utility.yul\":4260:4292   */\n      slt\n        /* \"#utility.yul\":4257:4376   */\n      iszero\n      tag_116\n      jumpi\n        /* \"#utility.yul\":4295:4374   */\n      tag_117\n      tag_31\n      jump\t// in\n    tag_117:\n        /* \"#utility.yul\":4257:4376   */\n    tag_116:\n        /* \"#utility.yul\":4415:4416   */\n      0x00\n        /* \"#utility.yul\":4440:4493   */\n      tag_118\n        /* \"#utility.yul\":4485:4492   */\n      dup5\n        /* \"#utility.yul\":4476:4482   */\n      dup3\n        /* \"#utility.yul\":4465:4474   */\n      dup6\n        /* \"#utility.yul\":4461:4483   */\n      add\n        /* \"#utility.yul\":4440:4493   */\n      tag_35\n      jump\t// in\n    tag_118:\n        /* \"#utility.yul\":4430:4493   */\n      swap2\n      pop\n        /* \"#utility.yul\":4386:4503   */\n      pop\n        /* \"#utility.yul\":4181:4510   */\n      swap3\n      swap2\n      pop\n      pop\n      jump\t// out\n        /* \"#utility.yul\":4516:4615   */\n    tag_46:\n        /* \"#utility.yul\":4568:4574   */\n      0x00\n        /* \"#utility.yul\":4602:4607   */\n      dup2\n        /* \"#utility.yul\":4596:4608   */\n      mload\n        /* \"#utility.yul\":4586:4608   */\n      swap1\n      pop\n        /* \"#utility.yul\":4516:4615   */\n      swap2\n      swap1\n      pop\n      jump\t// out\n        /* \"#utility.yul\":4621:4790   */\n    tag_47:\n        /* \"#utility.yul\":4705:4716   */\n      0x00\n        /* \"#utility.yul\":4739:4745   */\n      dup3\n        /* \"#utility.yul\":4734:4737   */\n      dup3\n        /* \"#utility.yul\":4727:4746   */\n      mstore\n        /* \"#utility.yul\":4779:4783   */\n      0x20\n        /* \"#utility.yul\":4774:4777   */\n      dup3\n        /* \"#utility.yul\":4770:4784   */\n      add\n        /* \"#utility.yul\":4755:4784   */\n      swap1\n      pop\n        /* \"#utility.yul\":4621:4790   */\n      swap3\n      swap2\n      pop\n      pop\n      jump\t// out\n        /* \"#utility.yul\":4796:5103   */\n    tag_48:\n        /* \"#utility.yul\":4864:4865   */\n      0x00\n        /* \"#utility.yul\":4874:4987   */\n    tag_122:\n        /* \"#utility.yul\":4888:4894   */\n      dup4\n        /* \"#utility.yul\":4885:4886   */\n      dup2\n        /* \"#utility.yul\":4882:4895   */\n      lt\n        /* \"#utility.yul\":4874:4987   */\n      iszero\n      tag_124\n      jumpi\n        /* \"#utility.yul\":4973:4974   */\n      dup1\n        /* \"#utility.yul\":4968:4971   */\n      dup3\n        /* \"#utility.yul\":4964:4975   */\n      add\n        /* \"#utility.yul\":4958:4976   */\n      mload\n        /* \"#utility.yul\":4954:4955   */\n      dup2\n        /* \"#utility.yul\":4949:4952   */\n      dup5\n        /* \"#utility.yul\":4945:4956   */\n      add\n        /* \"#utility.yul\":4938:4977   */\n      mstore\n        /* \"#utility.yul\":4910:4912   */\n      0x20\n        /* \"#utility.yul\":4907:4908   */\n      dup2\n        /* \"#utility.yul\":4903:4913   */\n      add\n        /* \"#utility.yul\":4898:4913   */\n      swap1\n      pop\n        /* \"#utility.yul\":4874:4987   */\n      jump(tag_122)\n    tag_124:\n        /* \"#utility.yul\":5005:5011   */\n      dup4\n        /* \"#utility.yul\":5002:5003   */\n      dup2\n        /* \"#utility.yul\":4999:5012   */\n      gt\n        /* \"#utility.yul\":4996:5097   */\n      iszero\n      tag_125\n      jumpi\n        /* \"#utility.yul\":5085:5086   */\n      0x00\n        /* \"#utility.yul\":5076:5082   */\n      dup5\n        /* \"#utility.yul\":5071:5074   */\n      dup5\n        /* \"#utility.yul\":5067:5083   */\n      add\n        /* \"#utility.yul\":5060:5087   */\n      mstore\n        /* \"#utility.yul\":4996:5097   */\n    tag_125:\n        /* \"#utility.yul\":4845:5103   */\n      pop\n        /* \"#utility.yul\":4796:5103   */\n      pop\n      pop\n      pop\n      jump\t// out\n        /* \"#utility.yul\":5109:5473   */\n    tag_49:\n        /* \"#utility.yul\":5197:5200   */\n      0x00\n        /* \"#utility.yul\":5225:5264   */\n      tag_127\n        /* \"#utility.yul\":5258:5263   */\n      dup3\n        /* \"#utility.yul\":5225:5264   */\n      tag_46\n      jump\t// in\n    tag_127:\n        /* \"#utility.yul\":5280:5351   */\n      tag_128\n        /* \"#utility.yul\":5344:5350   */\n      dup2\n        /* \"#utility.yul\":5339:5342   */\n      dup6\n        /* \"#utility.yul\":5280:5351   */\n      tag_47\n      jump\t// in\n    tag_128:\n        /* \"#utility.yul\":5273:5351   */\n      swap4\n      pop\n        /* \"#utility.yul\":5360:5412   */\n      tag_129\n        /* \"#utility.yul\":5405:5411   */\n      dup2\n        /* \"#utility.yul\":5400:5403   */\n      dup6\n        /* \"#utility.yul\":5393:5397   */\n      0x20\n        /* \"#utility.yul\":5386:5391   */\n      dup7\n        /* \"#utility.yul\":5382:5398   */\n      add\n        /* \"#utility.yul\":5360:5412   */\n      tag_48\n      jump\t// in\n    tag_129:\n        /* \"#utility.yul\":5437:5466   */\n      tag_130\n        /* \"#utility.yul\":5459:5465   */\n      dup2\n        /* \"#utility.yul\":5437:5466   */\n      tag_38\n      jump\t// in\n    tag_130:\n        /* \"#utility.yul\":5432:5435   */\n      dup5\n        /* \"#utility.yul\":5428:5467   */\n      add\n        /* \"#utility.yul\":5421:5467   */\n      swap2\n      pop\n        /* \"#utility.yul\":5201:5473   */\n      pop\n        /* \"#utility.yul\":5109:5473   */\n      swap3\n      swap2\n      pop\n      pop\n      jump\t// out\n        /* \"#utility.yul\":5479:5597   */\n    tag_50:\n        /* \"#utility.yul\":5566:5590   */\n      tag_132\n        /* \"#utility.yul\":5584:5589   */\n      dup2\n        /* \"#utility.yul\":5566:5590   */\n      tag_33\n      jump\t// in\n    tag_132:\n        /* \"#utility.yul\":5561:5564   */\n      dup3\n        /* \"#utility.yul\":5554:5591   */\n      mstore\n        /* \"#utility.yul\":5479:5597   */\n      pop\n      pop\n      jump\t// out\n        /* \"#utility.yul\":5603:6338   */\n    tag_14:\n        /* \"#utility.yul\":5820:5824   */\n      0x00\n        /* \"#utility.yul\":5858:5861   */\n      0x80\n        /* \"#utility.yul\":5847:5856   */\n      dup3\n        /* \"#utility.yul\":5843:5862   */\n      add\n        /* \"#utility.yul\":5835:5862   */\n      swap1\n      pop\n        /* \"#utility.yul\":5908:5917   */\n      dup2\n        /* \"#utility.yul\":5902:5906   */\n      dup2\n        /* \"#utility.yul\":5898:5918   */\n      sub\n        /* \"#utility.yul\":5894:5895   */\n      0x00\n        /* \"#utility.yul\":5883:5892   */\n      dup4\n        /* \"#utility.yul\":5879:5896   */\n      add\n        /* \"#utility.yul\":5872:5919   */\n      mstore\n        /* \"#utility.yul\":5936:6014   */\n      tag_134\n        /* \"#utility.yul\":6009:6013   */\n      dup2\n        /* \"#utility.yul\":6000:6006   */\n      dup8\n        /* \"#utility.yul\":5936:6014   */\n      tag_49\n      jump\t// in\n    tag_134:\n        /* \"#utility.yul\":5928:6014   */\n      swap1\n      pop\n        /* \"#utility.yul\":6061:6070   */\n      dup2\n        /* \"#utility.yul\":6055:6059   */\n      dup2\n        /* \"#utility.yul\":6051:6071   */\n      sub\n        /* \"#utility.yul\":6046:6048   */\n      0x20\n        /* \"#utility.yul\":6035:6044   */\n      dup4\n        /* \"#utility.yul\":6031:6049   */\n      add\n        /* \"#utility.yul\":6024:6072   */\n      mstore\n        /* \"#utility.yul\":6089:6167   */\n      tag_135\n        /* \"#utility.yul\":6162:6166   */\n      dup2\n        /* \"#utility.yul\":6153:6159   */\n      dup7\n        /* \"#utility.yul\":6089:6167   */\n      tag_49\n      jump\t// in\n    tag_135:\n        /* \"#utility.yul\":6081:6167   */\n      swap1\n      pop\n        /* \"#utility.yul\":6177:6249   */\n      tag_136\n        /* \"#utility.yul\":6245:6247   */\n      0x40\n        /* \"#utility.yul\":6234:6243   */\n      dup4\n        /* \"#utility.yul\":6230:6248   */\n      add\n        /* \"#utility.yul\":6221:6227   */\n      dup6\n        /* \"#utility.yul\":6177:6249   */\n      tag_50\n      jump\t// in\n    tag_136:\n        /* \"#utility.yul\":6259:6331   */\n      tag_137\n        /* \"#utility.yul\":6327:6329   */\n      0x60\n        /* \"#utility.yul\":6316:6325   */\n      dup4\n        /* \"#utility.yul\":6312:6330   */\n      add\n        /* \"#utility.yul\":6303:6309   */\n      dup5\n        /* \"#utility.yul\":6259:6331   */\n      tag_50\n      jump\t// in\n    tag_137:\n        /* \"#utility.yul\":5603:6338   */\n      swap6\n      swap5\n      pop\n      pop\n      pop\n      pop\n      pop\n      jump\t// out\n        /* \"#utility.yul\":6344:6524   */\n    tag_51:\n        /* \"#utility.yul\":6392:6469   */\n      0x4e487b7100000000000000000000000000000000000000000000000000000000\n        /* \"#utility.yul\":6389:6390   */\n      0x00\n        /* \"#utility.yul\":6382:6470   */\n      mstore\n        /* \"#utility.yul\":6489:6493   */\n      0x22\n        /* \"#utility.yul\":6486:6487   */\n      0x04\n        /* \"#utility.yul\":6479:6494   */\n      mstore\n        /* \"#utility.yul\":6513:6517   */\n      0x24\n        /* \"#utility.yul\":6510:6511   */\n      0x00\n        /* \"#utility.yul\":6503:6518   */\n      revert\n        /* \"#utility.yul\":6530:6850   */\n    tag_20:\n        /* \"#utility.yul\":6574:6580   */\n      0x00\n        /* \"#utility.yul\":6611:6612   */\n      0x02\n        /* \"#utility.yul\":6605:6609   */\n      dup3\n        /* \"#utility.yul\":6601:6613   */\n      div\n        /* \"#utility.yul\":6591:6613   */\n      swap1\n      pop\n        /* \"#utility.yul\":6658:6659   */\n      0x01\n        /* \"#utility.yul\":6652:6656   */\n      dup3\n        /* \"#utility.yul\":6648:6660   */\n      and\n        /* \"#utility.yul\":6679:6697   */\n      dup1\n        /* \"#utility.yul\":6669:6750   */\n      tag_140\n      jumpi\n        /* \"#utility.yul\":6735:6739   */\n      0x7f\n        /* \"#utility.yul\":6727:6733   */\n      dup3\n        /* \"#utility.yul\":6723:6740   */\n      and\n        /* \"#utility.yul\":6713:6740   */\n      swap2\n      pop\n        /* \"#utility.yul\":6669:6750   */\n    tag_140:\n        /* \"#utility.yul\":6797:6799   */\n      0x20\n        /* \"#utility.yul\":6789:6795   */\n      dup3\n        /* \"#utility.yul\":6786:6800   */\n      lt\n        /* \"#utility.yul\":6766:6784   */\n      dup2\n        /* \"#utility.yul\":6763:6801   */\n      sub\n        /* \"#utility.yul\":6760:6844   */\n      tag_141\n      jumpi\n        /* \"#utility.yul\":6816:6834   */\n      tag_142\n      tag_51\n      jump\t// in\n    tag_142:\n        /* \"#utility.yul\":6760:6844   */\n    tag_141:\n        /* \"#utility.yul\":6581:6850   */\n      pop\n        /* \"#utility.yul\":6530:6850   */\n      swap2\n      swap1\n      pop\n      jump\t// out\n        /* \"#utility.yul\":6856:6997   */\n    tag_52:\n        /* \"#utility.yul\":6905:6909   */\n      0x00\n        /* \"#utility.yul\":6928:6931   */\n      dup2\n        /* \"#utility.yul\":6920:6931   */\n      swap1\n      pop\n        /* \"#utility.yul\":6951:6954   */\n      dup2\n        /* \"#utility.yul\":6948:6949   */\n      0x00\n        /* \"#utility.yul\":6941:6955   */\n      mstore\n        /* \"#utility.yul\":6985:6989   */\n      0x20\n        /* \"#utility.yul\":6982:6983   */\n      0x00\n        /* \"#utility.yul\":6972:6990   */\n      keccak256\n        /* \"#utility.yul\":6964:6990   */\n      swap1\n      pop\n        /* \"#utility.yul\":6856:6997   */\n      swap2\n      swap1\n      pop\n      jump\t// out\n        /* \"#utility.yul\":7003:7096   */\n    tag_53:\n        /* \"#utility.yul\":7040:7046   */\n      0x00\n        /* \"#utility.yul\":7087:7089   */\n      0x20\n        /* \"#utility.yul\":7082:7084   */\n      0x1f\n        /* \"#utility.yul\":7075:7080   */\n      dup4\n        /* \"#utility.yul\":7071:7085   */\n      add\n        /* \"#utility.yul\":7067:7090   */\n      div\n        /* \"#utility.yul\":7057:7090   */\n      swap1\n      pop\n        /* \"#utility.yul\":7003:7096   */\n      swap2\n      swap1\n      pop\n      jump\t// out\n        /* \"#utility.yul\":7102:7209   */\n    tag_54:\n        /* \"#utility.yul\":7146:7154   */\n      0x00\n        /* \"#utility.yul\":7196:7201   */\n      dup3\n        /* \"#utility.yul\":7190:7194   */\n      dup3\n        /* \"#utility.yul\":7186:7202   */\n      shl\n        /* \"#utility.yul\":7165:7202   */\n      swap1\n      pop\n        /* \"#utility.yul\":7102:7209   */\n      swap3\n      swap2\n      pop\n      pop\n      jump\t// out\n        /* \"#utility.yul\":7215:7608   */\n    tag_55:\n        /* \"#utility.yul\":7284:7290   */\n      0x00\n        /* \"#utility.yul\":7334:7335   */\n      0x08\n        /* \"#utility.yul\":7322:7332   */\n      dup4\n        /* \"#utility.yul\":7318:7336   */\n      mul\n        /* \"#utility.yul\":7357:7454   */\n      tag_147\n        /* \"#utility.yul\":7387:7453   */\n      0xffffffffffffffffffffffffffffffffffffffffffffffffffffffffffffffff\n        /* \"#utility.yul\":7376:7385   */\n      dup3\n        /* \"#utility.yul\":7357:7454   */\n      tag_54\n      jump\t// in\n    tag_147:\n        /* \"#utility.yul\":7475:7514   */\n      tag_148\n        /* \"#utility.yul\":7505:7513   */\n      dup7\n        /* \"#utility.yul\":7494:7503   */\n      dup4\n        /* \"#utility.yul\":7475:7514   */\n      tag_54\n      jump\t// in\n    tag_148:\n        /* \"#utility.yul\":7463:7514   */\n      swap6\n      pop\n        /* \"#utility.yul\":7547:7551   */\n      dup1\n        /* \"#utility.yul\":7543:7552   */\n      not\n        /* \"#utility.yul\":7536:7541   */\n      dup5\n        /* \"#utility.yul\":7532:7553   */\n      and\n        /* \"#utility.yul\":7523:7553   */\n      swap4\n      pop\n        /* \"#utility.yul\":7596:7600   */\n      dup1\n        /* \"#utility.yul\":7586:7594   */\n      dup7\n        /* \"#utility.yul\":7582:7601   */\n      and\n        /* \"#utility.yul\":7575:7580   */\n      dup5\n        /* \"#utility.yul\":7572:7602   */\n      or\n        /* \"#utility.yul\":7562:7602   */\n      swap3\n      pop\n        /* \"#utility.yul\":7291:7608   */\n      pop\n      pop\n        /* \"#utility.yul\":7215:7608   */\n      swap4\n      swap3\n      pop\n      pop\n      pop\n      jump\t// out\n        /* \"#utility.yul\":7614:7674   */\n    tag_56:\n        /* \"#utility.yul\":7642:7645   */\n      0x00\n        /* \"#utility.yul\":7663:7668   */\n      dup2\n        /* \"#utility.yul\":7656:7668   */\n      swap1\n      pop\n        /* \"#utility.yul\":7614:7674   */\n      swap2\n      swap1\n      pop\n      jump\t// out\n        /* \"#utility.yul\":7680:7822   */\n    tag_57:\n        /* \"#utility.yul\":7730:7739   */\n      0x00\n        /* \"#utility.yul\":7763:7816   */\n      tag_151\n        /* \"#utility.yul\":7781:7815   */\n      tag_152\n        /* \"#utility.yul\":7790:7814   */\n      tag_153\n        /* \"#utility.yul\":7808:7813   */\n      dup5\n        /* \"#utility.yul\":7790:7814   */\n      tag_33\n      jump\t// in\n    tag_153:\n        /* \"#utility.yul\":7781:7815   */\n      tag_56\n      jump\t// in\n    tag_152:\n        /* \"#utility.yul\":7763:7816   */\n      tag_33\n      jump\t// in\n    tag_151:\n        /* \"#utility.yul\":7750:7816   */\n      swap1\n      pop\n        /* \"#utility.yul\":7680:7822   */\n      swap2\n      swap1\n      pop\n      jump\t// out\n        /* \"#utility.yul\":7828:7903   */\n    tag_58:\n        /* \"#utility.yul\":7871:7874   */\n      0x00\n        /* \"#utility.yul\":7892:7897   */\n      dup2\n        /* \"#utility.yul\":7885:7897   */\n      swap1\n      pop\n        /* \"#utility.yul\":7828:7903   */\n      swap2\n      swap1\n      pop\n      jump\t// out\n        /* \"#utility.yul\":7909:8178   */\n    tag_59:\n        /* \"#utility.yul\":8019:8058   */\n      tag_156\n        /* \"#utility.yul\":8050:8057   */\n      dup4\n        /* \"#utility.yul\":8019:8058   */\n      tag_57\n      jump\t// in\n    tag_156:\n        /* \"#utility.yul\":8080:8171   */\n      tag_157\n        /* \"#utility.yul\":8129:8170   */\n      tag_158\n        /* \"#utility.yul\":8153:8169   */\n      dup3\n        /* \"#utility.yul\":8129:8170   */\n      tag_58\n      jump\t// in\n    tag_158:\n        /* \"#utility.yul\":8121:8127   */\n      dup5\n        /* \"#utility.yul\":8114:8118   */\n      dup5\n        /* \"#utility.yul\":8108:8119   */\n      sload\n        /* \"#utility.yul\":8080:8171   */\n      tag_55\n      jump\t// in\n    tag_157:\n        /* \"#utility.yul\":8074:8078   */\n      dup3\n        /* \"#utility.yul\":8067:8172   */\n      sstore\n        /* \"#utility.yul\":7985:8178   */\n      pop\n        /* \"#utility.yul\":7909:8178   */\n      pop\n      pop\n      pop\n      jump\t// out\n        /* \"#utility.yul\":8184:8257   */\n    tag_60:\n        /* \"#utility.yul\":8229:8232   */\n      0x00\n        /* \"#utility.yul\":8184:8257   */\n      swap1\n      jump\t// out\n        /* \"#utility.yul\":8263:8452   */\n    tag_61:\n        /* \"#utility.yul\":8340:8372   */\n      tag_161\n      tag_60\n      jump\t// in\n    tag_161:\n        /* \"#utility.yul\":8381:8446   */\n      tag_162\n        /* \"#utility.yul\":8439:8445   */\n      dup2\n        /* \"#utility.yul\":8431:8437   */\n      dup5\n        /* \"#utility.yul\":8425:8429   */\n      dup5\n        /* \"#utility.yul\":8381:8446   */\n      tag_59\n      jump\t// in\n    tag_162:\n        /* \"#utility.yul\":8316:8452   */\n      pop\n        /* \"#utility.yul\":8263:8452   */\n      pop\n      pop\n      jump\t// out\n        /* \"#utility.yul\":8458:8644   */\n    tag_62:\n        /* \"#utility.yul\":8518:8638   */\n    tag_164:\n        /* \"#utility.yul\":8535:8538   */\n      dup2\n        /* \"#utility.yul\":8528:8533   */\n      dup2\n        /* \"#utility.yul\":8525:8539   */\n      lt\n        /* \"#utility.yul\":8518:8638   */\n      iszero\n      tag_166\n      jumpi\n        /* \"#utility.yul\":8589:8628   */\n      tag_167\n        /* \"#utility.yul\":8626:8627   */\n      0x00\n        /* \"#utility.yul\":8619:8624   */\n      dup3\n        /* \"#utility.yul\":8589:8628   */\n      tag_61\n      jump\t// in\n    tag_167:\n        /* \"#utility.yul\":8562:8563   */\n      0x01\n        /* \"#utility.yul\":8555:8560   */\n      dup2\n        /* \"#utility.yul\":8551:8564   */\n      add\n        /* \"#utility.yul\":8542:8564   */\n      swap1\n      pop\n        /* \"#utility.yul\":8518:8638   */\n      jump(tag_164)\n    tag_166:\n        /* \"#utility.yul\":8458:8644   */\n      pop\n      pop\n      jump\t// out\n        /* \"#utility.yul\":8650:9193   */\n    tag_63:\n        /* \"#utility.yul\":8751:8753   */\n      0x1f\n        /* \"#utility.yul\":8746:8749   */\n      dup3\n        /* \"#utility.yul\":8743:8754   */\n      gt\n        /* \"#utility.yul\":8740:9186   */\n      iszero\n      tag_169\n      jumpi\n        /* \"#utility.yul\":8785:8823   */\n      tag_170\n        /* \"#utility.yul\":8817:8822   */\n      dup2\n        /* \"#utility.yul\":8785:8823   */\n      tag_52\n      jump\t// in\n    tag_170:\n        /* \"#utility.yul\":8869:8898   */\n      tag_171\n        /* \"#utility.yul\":8887:8897   */\n      dup5\n        /* \"#utility.yul\":8869:8898   */\n      tag_53\n      jump\t// in\n    tag_171:\n        /* \"#utility.yul\":8859:8867   */\n      dup2\n        /* \"#utility.yul\":8855:8899   */\n      add\n        /* \"#utility.yul\":9052:9054   */\n      0x20\n        /* \"#utility.yul\":9040:9050   */\n      dup6\n        /* \"#utility.yul\":9037:9055   */\n      lt\n        /* \"#utility.yul\":9034:9083   */\n      iszero\n      tag_172\n      jumpi\n        /* \"#utility.yul\":9073:9081   */\n      dup2\n        /* \"#utility.yul\":9058:9081   */\n      swap1\n      pop\n        /* \"#utility.yul\":9034:9083   */\n    tag_172:\n        /* \"#utility.yul\":9096:9176   */\n      tag_173\n        /* \"#utility.yul\":9152:9174   */\n      tag_174\n        /* \"#utility.yul\":9170:9173   */\n      dup6\n        /* \"#utility.yul\":9152:9174   */\n      tag_53\n      jump\t// in\n    tag_174:\n        /* \"#utility.yul\":9142:9150   */\n      dup4\n        /* \"#utility.yul\":9138:9175   */\n      add\n        /* \"#utility.yul\":9125:9136   */\n      dup3\n        /* \"#utility.yul\":9096:9176   */\n      tag_62\n      jump\t// in\n    tag_173:\n        /* \"#utility.yul\":8755:9186   */\n      pop\n      pop\n        /* \"#utility.yul\":8740:9186   */\n    tag_169:\n        /* \"#utility.yul\":8650:9193   */\n      pop\n      pop\n      pop\n      jump\t// out\n        /* \"#utility.yul\":9199:9316   */\n    tag_64:\n        /* \"#utility.yul\":9253:9261   */\n      0x00\n        /* \"#utility.yul\":9303:9308   */\n      dup3\n        /* \"#utility.yul\":9297:9301   */\n      dup3\n        /* \"#utility.yul\":9293:9309   */\n      shr\n        /* \"#utility.yul\":9272:9309   */\n      swap1\n      pop\n        /* \"#utility.yul\":9199:9316   */\n      swap3\n      swap2\n      pop\n      pop\n      jump\t// out\n        /* \"#utility.yul\":9322:9491   */\n    tag_65:\n        /* \"#utility.yul\":9366:9372   */\n      0x00\n        /* \"#utility.yul\":9399:9450   */\n      tag_177\n        /* \"#utility.yul\":9447:9448   */\n      0x00\n        /* \"#utility.yul\":9443:9449   */\n      not\n        /* \"#utility.yul\":9435:9440   */\n      dup5\n        /* \"#utility.yul\":9432:9433   */\n      0x08\n        /* \"#utility.yul\":9428:9441   */\n      mul\n        /* \"#utility.yul\":9399:9450   */\n      tag_64\n      jump\t// in\n    tag_177:\n        /* \"#utility.yul\":9395:9451   */\n      not\n        /* \"#utility.yul\":9480:9484   */\n      dup1\n        /* \"#utility.yul\":9474:9478   */\n      dup4\n        /* \"#utility.yul\":9470:9485   */\n      and\n        /* \"#utility.yul\":9460:9485   */\n      swap2\n      pop\n        /* \"#utility.yul\":9373:9491   */\n      pop\n        /* \"#utility.yul\":9322:9491   */\n      swap3\n      swap2\n      pop\n      pop\n      jump\t// out\n        /* \"#utility.yul\":9496:9791   */\n    tag_66:\n        /* \"#utility.yul\":9572:9576   */\n      0x00\n        /* \"#utility.yul\":9718:9747   */\n      tag_179\n        /* \"#utility.yul\":9743:9746   */\n      dup4\n        /* \"#utility.yul\":9737:9741   */\n      dup4\n        /* \"#utility.yul\":9718:9747   */\n      tag_65\n      jump\t// in\n    tag_179:\n        /* \"#utility.yul\":9710:9747   */\n      swap2\n      pop\n        /* \"#utility.yul\":9780:9783   */\n      dup3\n        /* \"#utility.yul\":9777:9778   */\n      0x02\n        /* \"#utility.yul\":9773:9784   */\n      mul\n        /* \"#utility.yul\":9767:9771   */\n      dup3\n        /* \"#utility.yul\":9764:9785   */\n      or\n        /* \"#utility.yul\":9756:9785   */\n      swap1\n      pop\n        /* \"#utility.yul\":9496:9791   */\n      swap3\n      swap2\n      pop\n      pop\n      jump\t// out\n        /* \"#utility.yul\":9796:11191   */\n    tag_17:\n        /* \"#utility.yul\":9913:9950   */\n      tag_181\n        /* \"#utility.yul\":9946:9949   */\n      dup3\n        /* \"#utility.yul\":9913:9950   */\n      tag_46\n      jump\t// in\n    tag_181:\n        /* \"#utility.yul\":10015:10033   */\n      0xffffffffffffffff\n        /* \"#utility.yul\":10007:10013   */\n      dup2\n        /* \"#utility.yul\":10004:10034   */\n      gt\n        /* \"#utility.yul\":10001:10057   */\n      iszero\n      tag_182\n      jumpi\n        /* \"#utility.yul\":10037:10055   */\n      tag_183\n      tag_39\n      jump\t// in\n    tag_183:\n        /* \"#utility.yul\":10001:10057   */\n    tag_182:\n        /* \"#utility.yul\":10081:10119   */\n      tag_184\n        /* \"#utility.yul\":10113:10117   */\n      dup3\n        /* \"#utility.yul\":10107:10118   */\n      sload\n        /* \"#utility.yul\":10081:10119   */\n      tag_20\n      jump\t// in\n    tag_184:\n        /* \"#utility.yul\":10166:10233   */\n      tag_185\n        /* \"#utility.yul\":10226:10232   */\n      dup3\n        /* \"#utility.yul\":10218:10224   */\n      dup3\n        /* \"#utility.yul\":10212:10216   */\n      dup6\n        /* \"#utility.yul\":10166:10233   */\n      tag_63\n      jump\t// in\n    tag_185:\n        /* \"#utility.yul\":10260:10261   */\n      0x00\n        /* \"#utility.yul\":10284:10288   */\n      0x20\n        /* \"#utility.yul\":10271:10288   */\n      swap1\n      pop\n        /* \"#utility.yul\":10316:10318   */\n      0x1f\n        /* \"#utility.yul\":10308:10314   */\n      dup4\n        /* \"#utility.yul\":10305:10319   */\n      gt\n        /* \"#utility.yul\":10333:10334   */\n      0x01\n        /* \"#utility.yul\":10328:10946   */\n      dup2\n      eq\n      tag_187\n      jumpi\n        /* \"#utility.yul\":10990:10991   */\n      0x00\n        /* \"#utility.yul\":11007:11013   */\n      dup5\n        /* \"#utility.yul\":11004:11081   */\n      iszero\n      tag_188\n      jumpi\n        /* \"#utility.yul\":11056:11065   */\n      dup3\n        /* \"#utility.yul\":11051:11054   */\n      dup8\n        /* \"#utility.yul\":11047:11066   */\n      add\n        /* \"#utility.yul\":11041:11067   */\n      mload\n        /* \"#utility.yul\":11032:11067   */\n      swap1\n      pop\n        /* \"#utility.yul\":11004:11081   */\n    tag_188:\n        /* \"#utility.yul\":11107:11174   */\n      tag_189\n        /* \"#utility.yul\":11167:11173   */\n      dup6\n        /* \"#utility.yul\":11160:11165   */\n      dup3\n        /* \"#utility.yul\":11107:11174   */\n      tag_66\n      jump\t// in\n    tag_189:\n        /* \"#utility.yul\":11101:11105   */\n      dup7\n        /* \"#utility.yul\":11094:11175   */\n      sstore\n        /* \"#utility.yul\":10963:11185   */\n      pop\n        /* \"#utility.yul\":10298:11185   */\n      jump(tag_186)\n        /* \"#utility.yul\":10328:10946   */\n    tag_187:\n        /* \"#utility.yul\":10380:10384   */\n      0x1f\n        /* \"#utility.yul\":10376:10385   */\n      not\n        /* \"#utility.yul\":10368:10374   */\n      dup5\n        /* \"#utility.yul\":10364:10386   */\n      and\n        /* \"#utility.yul\":10414:10451   */\n      tag_190\n        /* \"#utility.yul\":10446:10450   */\n      dup7\n        /* \"#utility.yul\":10414:10451   */\n      tag_52\n      jump\t// in\n    tag_190:\n        /* \"#utility.yul\":10473:10474   */\n      0x00\n        /* \"#utility.yul\":10487:10695   */\n    tag_191:\n        /* \"#utility.yul\":10501:10508   */\n      dup3\n        /* \"#utility.yul\":10498:10499   */\n      dup2\n        /* \"#utility.yul\":10495:10509   */\n      lt\n        /* \"#utility.yul\":10487:10695   */\n      iszero\n      tag_193\n      jumpi\n        /* \"#utility.yul\":10580:10589   */\n      dup5\n        /* \"#utility.yul\":10575:10578   */\n      dup10\n        /* \"#utility.yul\":10571:10590   */\n      add\n        /* \"#utility.yul\":10565:10591   */\n      mload\n        /* \"#utility.yul\":10557:10563   */\n      dup3\n        /* \"#utility.yul\":10550:10592   */\n      sstore\n        /* \"#utility.yul\":10631:10632   */\n      0x01\n        /* \"#utility.yul\":10623:10629   */\n      dup3\n        /* \"#utility.yul\":10619:10633   */\n      add\n        /* \"#utility.yul\":10609:10633   */\n      swap2\n      pop\n        /* \"#utility.yul\":10678:10680   */\n      0x20\n        /* \"#utility.yul\":10667:10676   */\n      dup6\n        /* \"#utility.yul\":10663:10681   */\n      add\n        /* \"#utility.yul\":10650:10681   */\n      swap5\n      pop\n        /* \"#utility.yul\":10524:10528   */\n      0x20\n        /* \"#utility.yul\":10521:10522   */\n      dup2\n        /* \"#utility.yul\":10517:10529   */\n      add\n        /* \"#utility.yul\":10512:10529   */\n      swap1\n      pop\n        /* \"#utility.yul\":10487:10695   */\n      jump(tag_191)\n    tag_193:\n        /* \"#utility.yul\":10723:10729   */\n      dup7\n        /* \"#utility.yul\":10714:10721   */\n      dup4\n        /* \"#utility.yul\":10711:10730   */\n      lt\n        /* \"#utility.yul\":10708:10887   */\n      iszero\n      tag_194\n      jumpi\n        /* \"#utility.yul\":10781:10790   */\n      dup5\n        /* \"#utility.yul\":10776:10779   */\n      dup10\n        /* \"#utility.yul\":10772:10791   */\n      add\n        /* \"#utility.yul\":10766:10792   */\n      mload\n        /* \"#utility.yul\":10824:10872   */\n      tag_195\n        /* \"#utility.yul\":10866:10870   */\n      0x1f\n        /* \"#utility.yul\":10858:10864   */\n      dup10\n        /* \"#utility.yul\":10854:10871   */\n      and\n        /* \"#utility.yul\":10843:10852   */\n      dup3\n        /* \"#utility.yul\":10824:10872   */\n      tag_65\n      jump\t// in\n    tag_195:\n        /* \"#utility.yul\":10816:10822   */\n      dup4\n        /* \"#utility.yul\":10809:10873   */\n      sstore\n        /* \"#utility.yul\":10731:10887   */\n      pop\n        /* \"#utility.yul\":10708:10887   */\n    tag_194:\n        /* \"#utility.yul\":10933:10934   */\n      0x01\n        /* \"#utility.yul\":10929:10930   */\n      0x02\n        /* \"#utility.yul\":10921:10927   */\n      dup9\n        /* \"#utility.yul\":10917:10931   */\n      mul\n        /* \"#utility.yul\":10913:10935   */\n      add\n        /* \"#utility.yul\":10907:10911   */\n      dup9\n        /* \"#utility.yul\":10900:10936   */\n      sstore\n        /* \"#utility.yul\":10335:10946   */\n      pop\n      pop\n      pop\n        /* \"#utility.yul\":10298:11185   */\n    tag_186:\n      pop\n        /* \"#utility.yul\":9888:11191   */\n      pop\n      pop\n      pop\n        /* \"#utility.yul\":9796:11191   */\n      pop\n      pop\n      jump\t// out\n\n    auxdata: 0xa2646970667358221220fccd8ee1bea6ef2721afa2ddce95b3244a11a689cf68f2b5362ecbd39320251b64736f6c634300080f0033\n}\n",
				"bytecode": {
					"linkReferences": {},
					"object": "608060405234801561001057600080fd5b506108b5806100206000396000f3fe608060405234801561001057600080fd5b50600436106100365760003560e01c80635365ce581461003b5780639ab14cb014610057575b600080fd5b610055600480360381019061005091906103d7565b61008a565b005b610071600480360381019061006c919061048a565b610107565b604051610081949392919061054e565b60405180910390f35b60405180608001604052808581526020018481526020018381526020018281525060008087815260200190815260200160002060008201518160000190816100d291906107ad565b5060208201518160010190816100e891906107ad565b5060408201518160020155606082015181600301559050505050505050565b600060205280600052604060002060009150905080600001805461012a906105d0565b80601f0160208091040260200160405190810160405280929190818152602001828054610156906105d0565b80156101a35780601f10610178576101008083540402835291602001916101a3565b820191906000526020600020905b81548152906001019060200180831161018657829003601f168201915b5050505050908060010180546101b8906105d0565b80601f01602080910402602001604051908101604052809291908181526020018280546101e4906105d0565b80156102315780601f1061020657610100808354040283529160200191610231565b820191906000526020600020905b81548152906001019060200180831161021457829003601f168201915b5050505050908060020154908060030154905084565b6000604051905090565b600080fd5b600080fd5b6000819050919050565b61026e8161025b565b811461027957600080fd5b50565b60008135905061028b81610265565b92915050565b600080fd5b600080fd5b6000601f19601f8301169050919050565b7f4e487b7100000000000000000000000000000000000000000000000000000000600052604160045260246000fd5b6102e48261029b565b810181811067ffffffffffffffff82111715610303576103026102ac565b5b80604052505050565b6000610316610247565b905061032282826102db565b919050565b600067ffffffffffffffff821115610342576103416102ac565b5b61034b8261029b565b9050602081019050919050565b82818337600083830152505050565b600061037a61037584610327565b61030c565b90508281526020810184848401111561039657610395610296565b5b6103a1848285610358565b509392505050565b600082601f8301126103be576103bd610291565b5b81356103ce848260208601610367565b91505092915050565b600080600080600060a086880312156103f3576103f2610251565b5b60006104018882890161027c565b955050602086013567ffffffffffffffff81111561042257610421610256565b5b61042e888289016103a9565b945050604086013567ffffffffffffffff81111561044f5761044e610256565b5b61045b888289016103a9565b935050606061046c8882890161027c565b925050608061047d8882890161027c565b9150509295509295909350565b6000602082840312156104a05761049f610251565b5b60006104ae8482850161027c565b91505092915050565b600081519050919050565b600082825260208201905092915050565b60005b838110156104f15780820151818401526020810190506104d6565b83811115610500576000848401525b50505050565b6000610511826104b7565b61051b81856104c2565b935061052b8185602086016104d3565b6105348161029b565b840191505092915050565b6105488161025b565b82525050565b600060808201905081810360008301526105688187610506565b9050818103602083015261057c8186610506565b905061058b604083018561053f565b610598606083018461053f565b95945050505050565b7f4e487b7100000000000000000000000000000000000000000000000000000000600052602260045260246000fd5b600060028204905060018216806105e857607f821691505b6020821081036105fb576105fa6105a1565b5b50919050565b60008190508160005260206000209050919050565b60006020601f8301049050919050565b600082821b905092915050565b6000600883026106637fffffffffffffffffffffffffffffffffffffffffffffffffffffffffffffffff82610626565b61066d8683610626565b95508019841693508086168417925050509392505050565b6000819050919050565b60006106aa6106a56106a08461025b565b610685565b61025b565b9050919050565b6000819050919050565b6106c48361068f565b6106d86106d0826106b1565b848454610633565b825550505050565b600090565b6106ed6106e0565b6106f88184846106bb565b505050565b5b8181101561071c576107116000826106e5565b6001810190506106fe565b5050565b601f8211156107615761073281610601565b61073b84610616565b8101602085101561074a578190505b61075e61075685610616565b8301826106fd565b50505b505050565b600082821c905092915050565b600061078460001984600802610766565b1980831691505092915050565b600061079d8383610773565b9150826002028217905092915050565b6107b6826104b7565b67ffffffffffffffff8111156107cf576107ce6102ac565b5b6107d982546105d0565b6107e4828285610720565b600060209050601f8311600181146108175760008415610805578287015190505b61080f8582610791565b865550610877565b601f19841661082586610601565b60005b8281101561084d57848901518255600182019150602085019450602081019050610828565b8683101561086a5784890151610866601f891682610773565b8355505b6001600288020188555050505b50505050505056fea2646970667358221220fccd8ee1bea6ef2721afa2ddce95b3244a11a689cf68f2b5362ecbd39320251b64736f6c634300080f0033",
					"opcodes": "PUSH1 0x80 PUSH1 0x40 MSTORE CALLVALUE DUP1 ISZERO PUSH2 0x10 JUMPI PUSH1 0x0 DUP1 REVERT JUMPDEST POP PUSH2 0x8B5 DUP1 PUSH2 0x20 PUSH1 0x0 CODECOPY PUSH1 0x0 RETURN INVALID PUSH1 0x80 PUSH1 0x40 MSTORE CALLVALUE DUP1 ISZERO PUSH2 0x10 JUMPI PUSH1 0x0 DUP1 REVERT JUMPDEST POP PUSH1 0x4 CALLDATASIZE LT PUSH2 0x36 JUMPI PUSH1 0x0 CALLDATALOAD PUSH1 0xE0 SHR DUP1 PUSH4 0x5365CE58 EQ PUSH2 0x3B JUMPI DUP1 PUSH4 0x9AB14CB0 EQ PUSH2 0x57 JUMPI JUMPDEST PUSH1 0x0 DUP1 REVERT JUMPDEST PUSH2 0x55 PUSH1 0x4 DUP1 CALLDATASIZE SUB DUP2 ADD SWAP1 PUSH2 0x50 SWAP2 SWAP1 PUSH2 0x3D7 JUMP JUMPDEST PUSH2 0x8A JUMP JUMPDEST STOP JUMPDEST PUSH2 0x71 PUSH1 0x4 DUP1 CALLDATASIZE SUB DUP2 ADD SWAP1 PUSH2 0x6C SWAP2 SWAP1 PUSH2 0x48A JUMP JUMPDEST PUSH2 0x107 JUMP JUMPDEST PUSH1 0x40 MLOAD PUSH2 0x81 SWAP5 SWAP4 SWAP3 SWAP2 SWAP1 PUSH2 0x54E JUMP JUMPDEST PUSH1 0x40 MLOAD DUP1 SWAP2 SUB SWAP1 RETURN JUMPDEST PUSH1 0x40 MLOAD DUP1 PUSH1 0x80 ADD PUSH1 0x40 MSTORE DUP1 DUP6 DUP2 MSTORE PUSH1 0x20 ADD DUP5 DUP2 MSTORE PUSH1 0x20 ADD DUP4 DUP2 MSTORE PUSH1 0x20 ADD DUP3 DUP2 MSTORE POP PUSH1 0x0 DUP1 DUP8 DUP2 MSTORE PUSH1 0x20 ADD SWAP1 DUP2 MSTORE PUSH1 0x20 ADD PUSH1 0x0 KECCAK256 PUSH1 0x0 DUP3 ADD MLOAD DUP2 PUSH1 0x0 ADD SWAP1 DUP2 PUSH2 0xD2 SWAP2 SWAP1 PUSH2 0x7AD JUMP JUMPDEST POP PUSH1 0x20 DUP3 ADD MLOAD DUP2 PUSH1 0x1 ADD SWAP1 DUP2 PUSH2 0xE8 SWAP2 SWAP1 PUSH2 0x7AD JUMP JUMPDEST POP PUSH1 0x40 DUP3 ADD MLOAD DUP2 PUSH1 0x2 ADD SSTORE PUSH1 0x60 DUP3 ADD MLOAD DUP2 PUSH1 0x3 ADD SSTORE SWAP1 POP POP POP POP POP POP POP JUMP JUMPDEST PUSH1 0x0 PUSH1 0x20 MSTORE DUP1 PUSH1 0x0 MSTORE PUSH1 0x40 PUSH1 0x0 KECCAK256 PUSH1 0x0 SWAP2 POP SWAP1 POP DUP1 PUSH1 0x0 ADD DUP1 SLOAD PUSH2 0x12A SWAP1 PUSH2 0x5D0 JUMP JUMPDEST DUP1 PUSH1 0x1F ADD PUSH1 0x20 DUP1 SWAP2 DIV MUL PUSH1 0x20 ADD PUSH1 0x40 MLOAD SWAP1 DUP2 ADD PUSH1 0x40 MSTORE DUP1 SWAP3 SWAP2 SWAP1 DUP2 DUP2 MSTORE PUSH1 0x20 ADD DUP3 DUP1 SLOAD PUSH2 0x156 SWAP1 PUSH2 0x5D0 JUMP JUMPDEST DUP1 ISZERO PUSH2 0x1A3 JUMPI DUP1 PUSH1 0x1F LT PUSH2 0x178 JUMPI PUSH2 0x100 DUP1 DUP4 SLOAD DIV MUL DUP4 MSTORE SWAP2 PUSH1 0x20 ADD SWAP2 PUSH2 0x1A3 JUMP JUMPDEST DUP3 ADD SWAP2 SWAP1 PUSH1 0x0 MSTORE PUSH1 0x20 PUSH1 0x0 KECCAK256 SWAP1 JUMPDEST DUP2 SLOAD DUP2 MSTORE SWAP1 PUSH1 0x1 ADD SWAP1 PUSH1 0x20 ADD DUP1 DUP4 GT PUSH2 0x186 JUMPI DUP3 SWAP1 SUB PUSH1 0x1F AND DUP3 ADD SWAP2 JUMPDEST POP POP POP POP POP SWAP1 DUP1 PUSH1 0x1 ADD DUP1 SLOAD PUSH2 0x1B8 SWAP1 PUSH2 0x5D0 JUMP JUMPDEST DUP1 PUSH1 0x1F ADD PUSH1 0x20 DUP1 SWAP2 DIV MUL PUSH1 0x20 ADD PUSH1 0x40 MLOAD SWAP1 DUP2 ADD PUSH1 0x40 MSTORE DUP1 SWAP3 SWAP2 SWAP1 DUP2 DUP2 MSTORE PUSH1 0x20 ADD DUP3 DUP1 SLOAD PUSH2 0x1E4 SWAP1 PUSH2 0x5D0 JUMP JUMPDEST DUP1 ISZERO PUSH2 0x231 JUMPI DUP1 PUSH1 0x1F LT PUSH2 0x206 JUMPI PUSH2 0x100 DUP1 DUP4 SLOAD DIV MUL DUP4 MSTORE SWAP2 PUSH1 0x20 ADD SWAP2 PUSH2 0x231 JUMP JUMPDEST DUP3 ADD SWAP2 SWAP1 PUSH1 0x0 MSTORE PUSH1 0x20 PUSH1 0x0 KECCAK256 SWAP1 JUMPDEST DUP2 SLOAD DUP2 MSTORE SWAP1 PUSH1 0x1 ADD SWAP1 PUSH1 0x20 ADD DUP1 DUP4 GT PUSH2 0x214 JUMPI DUP3 SWAP1 SUB PUSH1 0x1F AND DUP3 ADD SWAP2 JUMPDEST POP POP POP POP POP SWAP1 DUP1 PUSH1 0x2 ADD SLOAD SWAP1 DUP1 PUSH1 0x3 ADD SLOAD SWAP1 POP DUP5 JUMP JUMPDEST PUSH1 0x0 PUSH1 0x40 MLOAD SWAP1 POP SWAP1 JUMP JUMPDEST PUSH1 0x0 DUP1 REVERT JUMPDEST PUSH1 0x0 DUP1 REVERT JUMPDEST PUSH1 0x0 DUP2 SWAP1 POP SWAP2 SWAP1 POP JUMP JUMPDEST PUSH2 0x26E DUP2 PUSH2 0x25B JUMP JUMPDEST DUP2 EQ PUSH2 0x279 JUMPI PUSH1 0x0 DUP1 REVERT JUMPDEST POP JUMP JUMPDEST PUSH1 0x0 DUP2 CALLDATALOAD SWAP1 POP PUSH2 0x28B DUP2 PUSH2 0x265 JUMP JUMPDEST SWAP3 SWAP2 POP POP JUMP JUMPDEST PUSH1 0x0 DUP1 REVERT JUMPDEST PUSH1 0x0 DUP1 REVERT JUMPDEST PUSH1 0x0 PUSH1 0x1F NOT PUSH1 0x1F DUP4 ADD AND SWAP1 POP SWAP2 SWAP1 POP JUMP JUMPDEST PUSH32 0x4E487B7100000000000000000000000000000000000000000000000000000000 PUSH1 0x0 MSTORE PUSH1 0x41 PUSH1 0x4 MSTORE PUSH1 0x24 PUSH1 0x0 REVERT JUMPDEST PUSH2 0x2E4 DUP3 PUSH2 0x29B JUMP JUMPDEST DUP2 ADD DUP2 DUP2 LT PUSH8 0xFFFFFFFFFFFFFFFF DUP3 GT OR ISZERO PUSH2 0x303 JUMPI PUSH2 0x302 PUSH2 0x2AC JUMP JUMPDEST JUMPDEST DUP1 PUSH1 0x40 MSTORE POP POP POP JUMP JUMPDEST PUSH1 0x0 PUSH2 0x316 PUSH2 0x247 JUMP JUMPDEST SWAP1 POP PUSH2 0x322 DUP3 DUP3 PUSH2 0x2DB JUMP JUMPDEST SWAP2 SWAP1 POP JUMP JUMPDEST PUSH1 0x0 PUSH8 0xFFFFFFFFFFFFFFFF DUP3 GT ISZERO PUSH2 0x342 JUMPI PUSH2 0x341 PUSH2 0x2AC JUMP JUMPDEST JUMPDEST PUSH2 0x34B DUP3 PUSH2 0x29B JUMP JUMPDEST SWAP1 POP PUSH1 0x20 DUP2 ADD SWAP1 POP SWAP2 SWAP1 POP JUMP JUMPDEST DUP3 DUP2 DUP4 CALLDATACOPY PUSH1 0x0 DUP4 DUP4 ADD MSTORE POP POP POP JUMP JUMPDEST PUSH1 0x0 PUSH2 0x37A PUSH2 0x375 DUP5 PUSH2 0x327 JUMP JUMPDEST PUSH2 0x30C JUMP JUMPDEST SWAP1 POP DUP3 DUP2 MSTORE PUSH1 0x20 DUP2 ADD DUP5 DUP5 DUP5 ADD GT ISZERO PUSH2 0x396 JUMPI PUSH2 0x395 PUSH2 0x296 JUMP JUMPDEST JUMPDEST PUSH2 0x3A1 DUP5 DUP3 DUP6 PUSH2 0x358 JUMP JUMPDEST POP SWAP4 SWAP3 POP POP POP JUMP JUMPDEST PUSH1 0x0 DUP3 PUSH1 0x1F DUP4 ADD SLT PUSH2 0x3BE JUMPI PUSH2 0x3BD PUSH2 0x291 JUMP JUMPDEST JUMPDEST DUP2 CALLDATALOAD PUSH2 0x3CE DUP5 DUP3 PUSH1 0x20 DUP7 ADD PUSH2 0x367 JUMP JUMPDEST SWAP2 POP POP SWAP3 SWAP2 POP POP JUMP JUMPDEST PUSH1 0x0 DUP1 PUSH1 0x0 DUP1 PUSH1 0x0 PUSH1 0xA0 DUP7 DUP9 SUB SLT ISZERO PUSH2 0x3F3 JUMPI PUSH2 0x3F2 PUSH2 0x251 JUMP JUMPDEST JUMPDEST PUSH1 0x0 PUSH2 0x401 DUP9 DUP3 DUP10 ADD PUSH2 0x27C JUMP JUMPDEST SWAP6 POP POP PUSH1 0x20 DUP7 ADD CALLDATALOAD PUSH8 0xFFFFFFFFFFFFFFFF DUP2 GT ISZERO PUSH2 0x422 JUMPI PUSH2 0x421 PUSH2 0x256 JUMP JUMPDEST JUMPDEST PUSH2 0x42E DUP9 DUP3 DUP10 ADD PUSH2 0x3A9 JUMP JUMPDEST SWAP5 POP POP PUSH1 0x40 DUP7 ADD CALLDATALOAD PUSH8 0xFFFFFFFFFFFFFFFF DUP2 GT ISZERO PUSH2 0x44F JUMPI PUSH2 0x44E PUSH2 0x256 JUMP JUMPDEST JUMPDEST PUSH2 0x45B DUP9 DUP3 DUP10 ADD PUSH2 0x3A9 JUMP JUMPDEST SWAP4 POP POP PUSH1 0x60 PUSH2 0x46C DUP9 DUP3 DUP10 ADD PUSH2 0x27C JUMP JUMPDEST SWAP3 POP POP PUSH1 0x80 PUSH2 0x47D DUP9 DUP3 DUP10 ADD PUSH2 0x27C JUMP JUMPDEST SWAP2 POP POP SWAP3 SWAP6 POP SWAP3 SWAP6 SWAP1 SWAP4 POP JUMP JUMPDEST PUSH1 0x0 PUSH1 0x20 DUP3 DUP5 SUB SLT ISZERO PUSH2 0x4A0 JUMPI PUSH2 0x49F PUSH2 0x251 JUMP JUMPDEST JUMPDEST PUSH1 0x0 PUSH2 0x4AE DUP5 DUP3 DUP6 ADD PUSH2 0x27C JUMP JUMPDEST SWAP2 POP POP SWAP3 SWAP2 POP POP JUMP JUMPDEST PUSH1 0x0 DUP2 MLOAD SWAP1 POP SWAP2 SWAP1 POP JUMP JUMPDEST PUSH1 0x0 DUP3 DUP3 MSTORE PUSH1 0x20 DUP3 ADD SWAP1 POP SWAP3 SWAP2 POP POP JUMP JUMPDEST PUSH1 0x0 JUMPDEST DUP4 DUP2 LT ISZERO PUSH2 0x4F1 JUMPI DUP1 DUP3 ADD MLOAD DUP2 DUP5 ADD MSTORE PUSH1 0x20 DUP2 ADD SWAP1 POP PUSH2 0x4D6 JUMP JUMPDEST DUP4 DUP2 GT ISZERO PUSH2 0x500 JUMPI PUSH1 0x0 DUP5 DUP5 ADD MSTORE JUMPDEST POP POP POP POP JUMP JUMPDEST PUSH1 0x0 PUSH2 0x511 DUP3 PUSH2 0x4B7 JUMP JUMPDEST PUSH2 0x51B DUP2 DUP6 PUSH2 0x4C2 JUMP JUMPDEST SWAP4 POP PUSH2 0x52B DUP2 DUP6 PUSH1 0x20 DUP7 ADD PUSH2 0x4D3 JUMP JUMPDEST PUSH2 0x534 DUP2 PUSH2 0x29B JUMP JUMPDEST DUP5 ADD SWAP2 POP POP SWAP3 SWAP2 POP POP JUMP JUMPDEST PUSH2 0x548 DUP2 PUSH2 0x25B JUMP JUMPDEST DUP3 MSTORE POP POP JUMP JUMPDEST PUSH1 0x0 PUSH1 0x80 DUP3 ADD SWAP1 POP DUP2 DUP2 SUB PUSH1 0x0 DUP4 ADD MSTORE PUSH2 0x568 DUP2 DUP8 PUSH2 0x506 JUMP JUMPDEST SWAP1 POP DUP2 DUP2 SUB PUSH1 0x20 DUP4 ADD MSTORE PUSH2 0x57C DUP2 DUP7 PUSH2 0x506 JUMP JUMPDEST SWAP1 POP PUSH2 0x58B PUSH1 0x40 DUP4 ADD DUP6 PUSH2 0x53F JUMP JUMPDEST PUSH2 0x598 PUSH1 0x60 DUP4 ADD DUP5 PUSH2 0x53F JUMP JUMPDEST SWAP6 SWAP5 POP POP POP POP POP JUMP JUMPDEST PUSH32 0x4E487B7100000000000000000000000000000000000000000000000000000000 PUSH1 0x0 MSTORE PUSH1 0x22 PUSH1 0x4 MSTORE PUSH1 0x24 PUSH1 0x0 REVERT JUMPDEST PUSH1 0x0 PUSH1 0x2 DUP3 DIV SWAP1 POP PUSH1 0x1 DUP3 AND DUP1 PUSH2 0x5E8 JUMPI PUSH1 0x7F DUP3 AND SWAP2 POP JUMPDEST PUSH1 0x20 DUP3 LT DUP2 SUB PUSH2 0x5FB JUMPI PUSH2 0x5FA PUSH2 0x5A1 JUMP JUMPDEST JUMPDEST POP SWAP2 SWAP1 POP JUMP JUMPDEST PUSH1 0x0 DUP2 SWAP1 POP DUP2 PUSH1 0x0 MSTORE PUSH1 0x20 PUSH1 0x0 KECCAK256 SWAP1 POP SWAP2 SWAP1 POP JUMP JUMPDEST PUSH1 0x0 PUSH1 0x20 PUSH1 0x1F DUP4 ADD DIV SWAP1 POP SWAP2 SWAP1 POP JUMP JUMPDEST PUSH1 0x0 DUP3 DUP3 SHL SWAP1 POP SWAP3 SWAP2 POP POP JUMP JUMPDEST PUSH1 0x0 PUSH1 0x8 DUP4 MUL PUSH2 0x663 PUSH32 0xFFFFFFFFFFFFFFFFFFFFFFFFFFFFFFFFFFFFFFFFFFFFFFFFFFFFFFFFFFFFFFFF DUP3 PUSH2 0x626 JUMP JUMPDEST PUSH2 0x66D DUP7 DUP4 PUSH2 0x626 JUMP JUMPDEST SWAP6 POP DUP1 NOT DUP5 AND SWAP4 POP DUP1 DUP7 AND DUP5 OR SWAP3 POP POP POP SWAP4 SWAP3 POP POP POP JUMP JUMPDEST PUSH1 0x0 DUP2 SWAP1 POP SWAP2 SWAP1 POP JUMP JUMPDEST PUSH1 0x0 PUSH2 0x6AA PUSH2 0x6A5 PUSH2 0x6A0 DUP5 PUSH2 0x25B JUMP JUMPDEST PUSH2 0x685 JUMP JUMPDEST PUSH2 0x25B JUMP JUMPDEST SWAP1 POP SWAP2 SWAP1 POP JUMP JUMPDEST PUSH1 0x0 DUP2 SWAP1 POP SWAP2 SWAP1 POP JUMP JUMPDEST PUSH2 0x6C4 DUP4 PUSH2 0x68F JUMP JUMPDEST PUSH2 0x6D8 PUSH2 0x6D0 DUP3 PUSH2 0x6B1 JUMP JUMPDEST DUP5 DUP5 SLOAD PUSH2 0x633 JUMP JUMPDEST DUP3 SSTORE POP POP POP POP JUMP JUMPDEST PUSH1 0x0 SWAP1 JUMP JUMPDEST PUSH2 0x6ED PUSH2 0x6E0 JUMP JUMPDEST PUSH2 0x6F8 DUP2 DUP5 DUP5 PUSH2 0x6BB JUMP JUMPDEST POP POP POP JUMP JUMPDEST JUMPDEST DUP2 DUP2 LT ISZERO PUSH2 0x71C JUMPI PUSH2 0x711 PUSH1 0x0 DUP3 PUSH2 0x6E5 JUMP JUMPDEST PUSH1 0x1 DUP2 ADD SWAP1 POP PUSH2 0x6FE JUMP JUMPDEST POP POP JUMP JUMPDEST PUSH1 0x1F DUP3 GT ISZERO PUSH2 0x761 JUMPI PUSH2 0x732 DUP2 PUSH2 0x601 JUMP JUMPDEST PUSH2 0x73B DUP5 PUSH2 0x616 JUMP JUMPDEST DUP2 ADD PUSH1 0x20 DUP6 LT ISZERO PUSH2 0x74A JUMPI DUP2 SWAP1 POP JUMPDEST PUSH2 0x75E PUSH2 0x756 DUP6 PUSH2 0x616 JUMP JUMPDEST DUP4 ADD DUP3 PUSH2 0x6FD JUMP JUMPDEST POP POP JUMPDEST POP POP POP JUMP JUMPDEST PUSH1 0x0 DUP3 DUP3 SHR SWAP1 POP SWAP3 SWAP2 POP POP JUMP JUMPDEST PUSH1 0x0 PUSH2 0x784 PUSH1 0x0 NOT DUP5 PUSH1 0x8 MUL PUSH2 0x766 JUMP JUMPDEST NOT DUP1 DUP4 AND SWAP2 POP POP SWAP3 SWAP2 POP POP JUMP JUMPDEST PUSH1 0x0 PUSH2 0x79D DUP4 DUP4 PUSH2 0x773 JUMP JUMPDEST SWAP2 POP DUP3 PUSH1 0x2 MUL DUP3 OR SWAP1 POP SWAP3 SWAP2 POP POP JUMP JUMPDEST PUSH2 0x7B6 DUP3 PUSH2 0x4B7 JUMP JUMPDEST PUSH8 0xFFFFFFFFFFFFFFFF DUP2 GT ISZERO PUSH2 0x7CF JUMPI PUSH2 0x7CE PUSH2 0x2AC JUMP JUMPDEST JUMPDEST PUSH2 0x7D9 DUP3 SLOAD PUSH2 0x5D0 JUMP JUMPDEST PUSH2 0x7E4 DUP3 DUP3 DUP6 PUSH2 0x720 JUMP JUMPDEST PUSH1 0x0 PUSH1 0x20 SWAP1 POP PUSH1 0x1F DUP4 GT PUSH1 0x1 DUP2 EQ PUSH2 0x817 JUMPI PUSH1 0x0 DUP5 ISZERO PUSH2 0x805 JUMPI DUP3 DUP8 ADD MLOAD SWAP1 POP JUMPDEST PUSH2 0x80F DUP6 DUP3 PUSH2 0x791 JUMP JUMPDEST DUP7 SSTORE POP PUSH2 0x877 JUMP JUMPDEST PUSH1 0x1F NOT DUP5 AND PUSH2 0x825 DUP7 PUSH2 0x601 JUMP JUMPDEST PUSH1 0x0 JUMPDEST DUP3 DUP2 LT ISZERO PUSH2 0x84D JUMPI DUP5 DUP10 ADD MLOAD DUP3 SSTORE PUSH1 0x1 DUP3 ADD SWAP2 POP PUSH1 0x20 DUP6 ADD SWAP5 POP PUSH1 0x20 DUP2 ADD SWAP1 POP PUSH2 0x828 JUMP JUMPDEST DUP7 DUP4 LT ISZERO PUSH2 0x86A JUMPI DUP5 DUP10 ADD MLOAD PUSH2 0x866 PUSH1 0x1F DUP10 AND DUP3 PUSH2 0x773 JUMP JUMPDEST DUP4 SSTORE POP JUMPDEST PUSH1 0x1 PUSH1 0x2 DUP9 MUL ADD DUP9 SSTORE POP POP POP JUMPDEST POP POP POP POP POP POP JUMP INVALID LOG2 PUSH5 0x6970667358 0x22 SLT KECCAK256 0xFC 0xCD DUP15 0xE1 0xBE 0xA6 0xEF 0x27 0x21 0xAF LOG2 0xDD 0xCE SWAP6 0xB3 0x24 0x4A GT 0xA6 DUP10 0xCF PUSH9 0xF2B5362ECBD3932025 SHL PUSH5 0x736F6C6343 STOP ADDMOD 0xF STOP CALLER "
				},
				"gasEstimates": {
					"creation": {
						"codeDepositCost": "445800",
						"executionCost": "480",
						"totalCost": "446280"
					},
					"external": {
						"book_detail(uint256)": "infinite",
						"set(uint256,string,string,uint256,uint256)": "infinite"
					}
				},
				"methodIdentifiers": {
					"book_detail(uint256)": "9ab14cb0",
					"set(uint256,string,string,uint256,uint256)": "5365ce58"
				}
			},
			"storageLayout": {
				"storage": [
					{
						"astId": 15,
						"contract": "testing.sol:testing",
						"label": "book_detail",
						"offset": 0,
						"slot": "0",
						"type": "t_mapping(t_uint256,t_struct(book)10_storage)"
					}
				],
				"types": {
					"t_mapping(t_uint256,t_struct(book)10_storage)": {
						"encoding": "mapping",
						"key": "t_uint256",
						"label": "mapping(uint256 => struct testing.book)",
						"numberOfBytes": "32",
						"value": "t_struct(book)10_storage"
					},
					"t_string_storage": {
						"encoding": "bytes",
						"label": "string",
						"numberOfBytes": "32"
					},
					"t_struct(book)10_storage": {
						"encoding": "inplace",
						"label": "struct testing.book",
						"members": [
							{
								"astId": 3,
								"contract": "testing.sol:testing",
								"label": "title",
								"offset": 0,
								"slot": "0",
								"type": "t_string_storage"
							},
							{
								"astId": 5,
								"contract": "testing.sol:testing",
								"label": "author",
								"offset": 0,
								"slot": "1",
								"type": "t_string_storage"
							},
							{
								"astId": 7,
								"contract": "testing.sol:testing",
								"label": "number",
								"offset": 0,
								"slot": "2",
								"type": "t_uint256"
							},
							{
								"astId": 9,
								"contract": "testing.sol:testing",
								"label": "shelfbook",
								"offset": 0,
								"slot": "3",
								"type": "t_uint256"
							}
						],
						"numberOfBytes": "128"
					},
					"t_uint256": {
						"encoding": "inplace",
						"label": "uint256",
						"numberOfBytes": "32"
					}
				}
			},
			"userdoc": {
				"kind": "user",
				"methods": {},
				"version": 1
			}
		}
	}
}