{
	"mapping.sol": {
		"MappingTest": {
			"abi": [
				{
					"inputs": [
						{
							"internalType": "uint256",
							"name": "keys",
							"type": "uint256"
						},
						{
							"internalType": "string",
							"name": "value",
							"type": "string"
						}
					],
					"name": "setter",
					"outputs": [],
					"stateMutability": "nonpayable",
					"type": "function"
				}
			],
			"devdoc": {
				"kind": "dev",
				"methods": {},
				"version": 1
			},
			"evm": {
				"assembly": "    /* \"mapping.sol\":65:228  contract MappingTest{... */\n  mstore(0x40, 0x80)\n  callvalue\n  dup1\n  iszero\n  tag_1\n  jumpi\n  0x00\n  dup1\n  revert\ntag_1:\n  pop\n  dataSize(sub_0)\n  dup1\n  dataOffset(sub_0)\n  0x00\n  codecopy\n  0x00\n  return\nstop\n\nsub_0: assembly {\n        /* \"mapping.sol\":65:228  contract MappingTest{... */\n      mstore(0x40, 0x80)\n      callvalue\n      dup1\n      iszero\n      tag_1\n      jumpi\n      0x00\n      dup1\n      revert\n    tag_1:\n      pop\n      jumpi(tag_2, lt(calldatasize, 0x04))\n      shr(0xe0, calldataload(0x00))\n      dup1\n      0xbcb131c9\n      eq\n      tag_3\n      jumpi\n    tag_2:\n      0x00\n      dup1\n      revert\n        /* \"mapping.sol\":132:225  function setter(uint keys, string memory value) public{... */\n    tag_3:\n      tag_4\n      0x04\n      dup1\n      calldatasize\n      sub\n      dup2\n      add\n      swap1\n      tag_5\n      swap2\n      swap1\n      tag_6\n      jump\t// in\n    tag_5:\n      tag_7\n      jump\t// in\n    tag_4:\n      stop\n    tag_7:\n        /* \"mapping.sol\":212:217  value */\n      dup1\n        /* \"mapping.sol\":199:205  my_car */\n      0x00\n        /* \"mapping.sol\":199:211  my_car[keys] */\n      dup1\n        /* \"mapping.sol\":206:210  keys */\n      dup5\n        /* \"mapping.sol\":199:211  my_car[keys] */\n      dup2\n      mstore\n      0x20\n      add\n      swap1\n      dup2\n      mstore\n      0x20\n      add\n      0x00\n      keccak256\n        /* \"mapping.sol\":199:217  my_car[keys]=value */\n      swap1\n      dup2\n      tag_9\n      swap2\n      swap1\n      tag_10\n      jump\t// in\n    tag_9:\n      pop\n        /* \"mapping.sol\":132:225  function setter(uint keys, string memory value) public{... */\n      pop\n      pop\n      jump\t// out\n        /* \"#utility.yul\":7:82   */\n    tag_11:\n        /* \"#utility.yul\":40:46   */\n      0x00\n        /* \"#utility.yul\":73:75   */\n      0x40\n        /* \"#utility.yul\":67:76   */\n      mload\n        /* \"#utility.yul\":57:76   */\n      swap1\n      pop\n        /* \"#utility.yul\":7:82   */\n      swap1\n      jump\t// out\n        /* \"#utility.yul\":88:205   */\n    tag_12:\n        /* \"#utility.yul\":197:198   */\n      0x00\n        /* \"#utility.yul\":194:195   */\n      dup1\n        /* \"#utility.yul\":187:199   */\n      revert\n        /* \"#utility.yul\":211:328   */\n    tag_13:\n        /* \"#utility.yul\":320:321   */\n      0x00\n        /* \"#utility.yul\":317:318   */\n      dup1\n        /* \"#utility.yul\":310:322   */\n      revert\n        /* \"#utility.yul\":334:411   */\n    tag_14:\n        /* \"#utility.yul\":371:378   */\n      0x00\n        /* \"#utility.yul\":400:405   */\n      dup2\n        /* \"#utility.yul\":389:405   */\n      swap1\n      pop\n        /* \"#utility.yul\":334:411   */\n      swap2\n      swap1\n      pop\n      jump\t// out\n        /* \"#utility.yul\":417:539   */\n    tag_15:\n        /* \"#utility.yul\":490:514   */\n      tag_51\n        /* \"#utility.yul\":508:513   */\n      dup2\n        /* \"#utility.yul\":490:514   */\n      tag_14\n      jump\t// in\n    tag_51:\n        /* \"#utility.yul\":483:488   */\n      dup2\n        /* \"#utility.yul\":480:515   */\n      eq\n        /* \"#utility.yul\":470:533   */\n      tag_52\n      jumpi\n        /* \"#utility.yul\":529:530   */\n      0x00\n        /* \"#utility.yul\":526:527   */\n      dup1\n        /* \"#utility.yul\":519:531   */\n      revert\n        /* \"#utility.yul\":470:533   */\n    tag_52:\n        /* \"#utility.yul\":417:539   */\n      pop\n      jump\t// out\n        /* \"#utility.yul\":545:684   */\n    tag_16:\n        /* \"#utility.yul\":591:596   */\n      0x00\n        /* \"#utility.yul\":629:635   */\n      dup2\n        /* \"#utility.yul\":616:636   */\n      calldataload\n        /* \"#utility.yul\":607:636   */\n      swap1\n      pop\n        /* \"#utility.yul\":645:678   */\n      tag_54\n        /* \"#utility.yul\":672:677   */\n      dup2\n        /* \"#utility.yul\":645:678   */\n      tag_15\n      jump\t// in\n    tag_54:\n        /* \"#utility.yul\":545:684   */\n      swap3\n      swap2\n      pop\n      pop\n      jump\t// out\n        /* \"#utility.yul\":690:807   */\n    tag_17:\n        /* \"#utility.yul\":799:800   */\n      0x00\n        /* \"#utility.yul\":796:797   */\n      dup1\n        /* \"#utility.yul\":789:801   */\n      revert\n        /* \"#utility.yul\":813:930   */\n    tag_18:\n        /* \"#utility.yul\":922:923   */\n      0x00\n        /* \"#utility.yul\":919:920   */\n      dup1\n        /* \"#utility.yul\":912:924   */\n      revert\n        /* \"#utility.yul\":936:1038   */\n    tag_19:\n        /* \"#utility.yul\":977:983   */\n      0x00\n        /* \"#utility.yul\":1028:1030   */\n      0x1f\n        /* \"#utility.yul\":1024:1031   */\n      not\n        /* \"#utility.yul\":1019:1021   */\n      0x1f\n        /* \"#utility.yul\":1012:1017   */\n      dup4\n        /* \"#utility.yul\":1008:1022   */\n      add\n        /* \"#utility.yul\":1004:1032   */\n      and\n        /* \"#utility.yul\":994:1032   */\n      swap1\n      pop\n        /* \"#utility.yul\":936:1038   */\n      swap2\n      swap1\n      pop\n      jump\t// out\n        /* \"#utility.yul\":1044:1224   */\n    tag_20:\n        /* \"#utility.yul\":1092:1169   */\n      0x4e487b7100000000000000000000000000000000000000000000000000000000\n        /* \"#utility.yul\":1089:1090   */\n      0x00\n        /* \"#utility.yul\":1082:1170   */\n      mstore\n        /* \"#utility.yul\":1189:1193   */\n      0x41\n        /* \"#utility.yul\":1186:1187   */\n      0x04\n        /* \"#utility.yul\":1179:1194   */\n      mstore\n        /* \"#utility.yul\":1213:1217   */\n      0x24\n        /* \"#utility.yul\":1210:1211   */\n      0x00\n        /* \"#utility.yul\":1203:1218   */\n      revert\n        /* \"#utility.yul\":1230:1511   */\n    tag_21:\n        /* \"#utility.yul\":1313:1340   */\n      tag_60\n        /* \"#utility.yul\":1335:1339   */\n      dup3\n        /* \"#utility.yul\":1313:1340   */\n      tag_19\n      jump\t// in\n    tag_60:\n        /* \"#utility.yul\":1305:1311   */\n      dup2\n        /* \"#utility.yul\":1301:1341   */\n      add\n        /* \"#utility.yul\":1443:1449   */\n      dup2\n        /* \"#utility.yul\":1431:1441   */\n      dup2\n        /* \"#utility.yul\":1428:1450   */\n      lt\n        /* \"#utility.yul\":1407:1425   */\n      0xffffffffffffffff\n        /* \"#utility.yul\":1395:1405   */\n      dup3\n        /* \"#utility.yul\":1392:1426   */\n      gt\n        /* \"#utility.yul\":1389:1451   */\n      or\n        /* \"#utility.yul\":1386:1474   */\n      iszero\n      tag_61\n      jumpi\n        /* \"#utility.yul\":1454:1472   */\n      tag_62\n      tag_20\n      jump\t// in\n    tag_62:\n        /* \"#utility.yul\":1386:1474   */\n    tag_61:\n        /* \"#utility.yul\":1494:1504   */\n      dup1\n        /* \"#utility.yul\":1490:1492   */\n      0x40\n        /* \"#utility.yul\":1483:1505   */\n      mstore\n        /* \"#utility.yul\":1273:1511   */\n      pop\n        /* \"#utility.yul\":1230:1511   */\n      pop\n      pop\n      jump\t// out\n        /* \"#utility.yul\":1517:1646   */\n    tag_22:\n        /* \"#utility.yul\":1551:1557   */\n      0x00\n        /* \"#utility.yul\":1578:1598   */\n      tag_64\n      tag_11\n      jump\t// in\n    tag_64:\n        /* \"#utility.yul\":1568:1598   */\n      swap1\n      pop\n        /* \"#utility.yul\":1607:1640   */\n      tag_65\n        /* \"#utility.yul\":1635:1639   */\n      dup3\n        /* \"#utility.yul\":1627:1633   */\n      dup3\n        /* \"#utility.yul\":1607:1640   */\n      tag_21\n      jump\t// in\n    tag_65:\n        /* \"#utility.yul\":1517:1646   */\n      swap2\n      swap1\n      pop\n      jump\t// out\n        /* \"#utility.yul\":1652:1960   */\n    tag_23:\n        /* \"#utility.yul\":1714:1718   */\n      0x00\n        /* \"#utility.yul\":1804:1822   */\n      0xffffffffffffffff\n        /* \"#utility.yul\":1796:1802   */\n      dup3\n        /* \"#utility.yul\":1793:1823   */\n      gt\n        /* \"#utility.yul\":1790:1846   */\n      iszero\n      tag_67\n      jumpi\n        /* \"#utility.yul\":1826:1844   */\n      tag_68\n      tag_20\n      jump\t// in\n    tag_68:\n        /* \"#utility.yul\":1790:1846   */\n    tag_67:\n        /* \"#utility.yul\":1864:1893   */\n      tag_69\n        /* \"#utility.yul\":1886:1892   */\n      dup3\n        /* \"#utility.yul\":1864:1893   */\n      tag_19\n      jump\t// in\n    tag_69:\n        /* \"#utility.yul\":1856:1893   */\n      swap1\n      pop\n        /* \"#utility.yul\":1948:1952   */\n      0x20\n        /* \"#utility.yul\":1942:1946   */\n      dup2\n        /* \"#utility.yul\":1938:1953   */\n      add\n        /* \"#utility.yul\":1930:1953   */\n      swap1\n      pop\n        /* \"#utility.yul\":1652:1960   */\n      swap2\n      swap1\n      pop\n      jump\t// out\n        /* \"#utility.yul\":1966:2120   */\n    tag_24:\n        /* \"#utility.yul\":2050:2056   */\n      dup3\n        /* \"#utility.yul\":2045:2048   */\n      dup2\n        /* \"#utility.yul\":2040:2043   */\n      dup4\n        /* \"#utility.yul\":2027:2057   */\n      calldatacopy\n        /* \"#utility.yul\":2112:2113   */\n      0x00\n        /* \"#utility.yul\":2103:2109   */\n      dup4\n        /* \"#utility.yul\":2098:2101   */\n      dup4\n        /* \"#utility.yul\":2094:2110   */\n      add\n        /* \"#utility.yul\":2087:2114   */\n      mstore\n        /* \"#utility.yul\":1966:2120   */\n      pop\n      pop\n      pop\n      jump\t// out\n        /* \"#utility.yul\":2126:2538   */\n    tag_25:\n        /* \"#utility.yul\":2204:2209   */\n      0x00\n        /* \"#utility.yul\":2229:2295   */\n      tag_72\n        /* \"#utility.yul\":2245:2294   */\n      tag_73\n        /* \"#utility.yul\":2287:2293   */\n      dup5\n        /* \"#utility.yul\":2245:2294   */\n      tag_23\n      jump\t// in\n    tag_73:\n        /* \"#utility.yul\":2229:2295   */\n      tag_22\n      jump\t// in\n    tag_72:\n        /* \"#utility.yul\":2220:2295   */\n      swap1\n      pop\n        /* \"#utility.yul\":2318:2324   */\n      dup3\n        /* \"#utility.yul\":2311:2316   */\n      dup2\n        /* \"#utility.yul\":2304:2325   */\n      mstore\n        /* \"#utility.yul\":2356:2360   */\n      0x20\n        /* \"#utility.yul\":2349:2354   */\n      dup2\n        /* \"#utility.yul\":2345:2361   */\n      add\n        /* \"#utility.yul\":2394:2397   */\n      dup5\n        /* \"#utility.yul\":2385:2391   */\n      dup5\n        /* \"#utility.yul\":2380:2383   */\n      dup5\n        /* \"#utility.yul\":2376:2392   */\n      add\n        /* \"#utility.yul\":2373:2398   */\n      gt\n        /* \"#utility.yul\":2370:2482   */\n      iszero\n      tag_74\n      jumpi\n        /* \"#utility.yul\":2401:2480   */\n      tag_75\n      tag_18\n      jump\t// in\n    tag_75:\n        /* \"#utility.yul\":2370:2482   */\n    tag_74:\n        /* \"#utility.yul\":2491:2532   */\n      tag_76\n        /* \"#utility.yul\":2525:2531   */\n      dup5\n        /* \"#utility.yul\":2520:2523   */\n      dup3\n        /* \"#utility.yul\":2515:2518   */\n      dup6\n        /* \"#utility.yul\":2491:2532   */\n      tag_24\n      jump\t// in\n    tag_76:\n        /* \"#utility.yul\":2210:2538   */\n      pop\n        /* \"#utility.yul\":2126:2538   */\n      swap4\n      swap3\n      pop\n      pop\n      pop\n      jump\t// out\n        /* \"#utility.yul\":2558:2898   */\n    tag_26:\n        /* \"#utility.yul\":2614:2619   */\n      0x00\n        /* \"#utility.yul\":2663:2666   */\n      dup3\n        /* \"#utility.yul\":2656:2660   */\n      0x1f\n        /* \"#utility.yul\":2648:2654   */\n      dup4\n        /* \"#utility.yul\":2644:2661   */\n      add\n        /* \"#utility.yul\":2640:2667   */\n      slt\n        /* \"#utility.yul\":2630:2752   */\n      tag_78\n      jumpi\n        /* \"#utility.yul\":2671:2750   */\n      tag_79\n      tag_17\n      jump\t// in\n    tag_79:\n        /* \"#utility.yul\":2630:2752   */\n    tag_78:\n        /* \"#utility.yul\":2788:2794   */\n      dup2\n        /* \"#utility.yul\":2775:2795   */\n      calldataload\n        /* \"#utility.yul\":2813:2892   */\n      tag_80\n        /* \"#utility.yul\":2888:2891   */\n      dup5\n        /* \"#utility.yul\":2880:2886   */\n      dup3\n        /* \"#utility.yul\":2873:2877   */\n      0x20\n        /* \"#utility.yul\":2865:2871   */\n      dup7\n        /* \"#utility.yul\":2861:2878   */\n      add\n        /* \"#utility.yul\":2813:2892   */\n      tag_25\n      jump\t// in\n    tag_80:\n        /* \"#utility.yul\":2804:2892   */\n      swap2\n      pop\n        /* \"#utility.yul\":2620:2898   */\n      pop\n        /* \"#utility.yul\":2558:2898   */\n      swap3\n      swap2\n      pop\n      pop\n      jump\t// out\n        /* \"#utility.yul\":2904:3558   */\n    tag_6:\n        /* \"#utility.yul\":2982:2988   */\n      0x00\n        /* \"#utility.yul\":2990:2996   */\n      dup1\n        /* \"#utility.yul\":3039:3041   */\n      0x40\n        /* \"#utility.yul\":3027:3036   */\n      dup4\n        /* \"#utility.yul\":3018:3025   */\n      dup6\n        /* \"#utility.yul\":3014:3037   */\n      sub\n        /* \"#utility.yul\":3010:3042   */\n      slt\n        /* \"#utility.yul\":3007:3126   */\n      iszero\n      tag_82\n      jumpi\n        /* \"#utility.yul\":3045:3124   */\n      tag_83\n      tag_12\n      jump\t// in\n    tag_83:\n        /* \"#utility.yul\":3007:3126   */\n    tag_82:\n        /* \"#utility.yul\":3165:3166   */\n      0x00\n        /* \"#utility.yul\":3190:3243   */\n      tag_84\n        /* \"#utility.yul\":3235:3242   */\n      dup6\n        /* \"#utility.yul\":3226:3232   */\n      dup3\n        /* \"#utility.yul\":3215:3224   */\n      dup7\n        /* \"#utility.yul\":3211:3233   */\n      add\n        /* \"#utility.yul\":3190:3243   */\n      tag_16\n      jump\t// in\n    tag_84:\n        /* \"#utility.yul\":3180:3243   */\n      swap3\n      pop\n        /* \"#utility.yul\":3136:3253   */\n      pop\n        /* \"#utility.yul\":3320:3322   */\n      0x20\n        /* \"#utility.yul\":3309:3318   */\n      dup4\n        /* \"#utility.yul\":3305:3323   */\n      add\n        /* \"#utility.yul\":3292:3324   */\n      calldataload\n        /* \"#utility.yul\":3351:3369   */\n      0xffffffffffffffff\n        /* \"#utility.yul\":3343:3349   */\n      dup2\n        /* \"#utility.yul\":3340:3370   */\n      gt\n        /* \"#utility.yul\":3337:3454   */\n      iszero\n      tag_85\n      jumpi\n        /* \"#utility.yul\":3373:3452   */\n      tag_86\n      tag_13\n      jump\t// in\n    tag_86:\n        /* \"#utility.yul\":3337:3454   */\n    tag_85:\n        /* \"#utility.yul\":3478:3541   */\n      tag_87\n        /* \"#utility.yul\":3533:3540   */\n      dup6\n        /* \"#utility.yul\":3524:3530   */\n      dup3\n        /* \"#utility.yul\":3513:3522   */\n      dup7\n        /* \"#utility.yul\":3509:3531   */\n      add\n        /* \"#utility.yul\":3478:3541   */\n      tag_26\n      jump\t// in\n    tag_87:\n        /* \"#utility.yul\":3468:3541   */\n      swap2\n      pop\n        /* \"#utility.yul\":3263:3551   */\n      pop\n        /* \"#utility.yul\":2904:3558   */\n      swap3\n      pop\n      swap3\n      swap1\n      pop\n      jump\t// out\n        /* \"#utility.yul\":3564:3663   */\n    tag_27:\n        /* \"#utility.yul\":3616:3622   */\n      0x00\n        /* \"#utility.yul\":3650:3655   */\n      dup2\n        /* \"#utility.yul\":3644:3656   */\n      mload\n        /* \"#utility.yul\":3634:3656   */\n      swap1\n      pop\n        /* \"#utility.yul\":3564:3663   */\n      swap2\n      swap1\n      pop\n      jump\t// out\n        /* \"#utility.yul\":3669:3849   */\n    tag_28:\n        /* \"#utility.yul\":3717:3794   */\n      0x4e487b7100000000000000000000000000000000000000000000000000000000\n        /* \"#utility.yul\":3714:3715   */\n      0x00\n        /* \"#utility.yul\":3707:3795   */\n      mstore\n        /* \"#utility.yul\":3814:3818   */\n      0x22\n        /* \"#utility.yul\":3811:3812   */\n      0x04\n        /* \"#utility.yul\":3804:3819   */\n      mstore\n        /* \"#utility.yul\":3838:3842   */\n      0x24\n        /* \"#utility.yul\":3835:3836   */\n      0x00\n        /* \"#utility.yul\":3828:3843   */\n      revert\n        /* \"#utility.yul\":3855:4175   */\n    tag_29:\n        /* \"#utility.yul\":3899:3905   */\n      0x00\n        /* \"#utility.yul\":3936:3937   */\n      0x02\n        /* \"#utility.yul\":3930:3934   */\n      dup3\n        /* \"#utility.yul\":3926:3938   */\n      div\n        /* \"#utility.yul\":3916:3938   */\n      swap1\n      pop\n        /* \"#utility.yul\":3983:3984   */\n      0x01\n        /* \"#utility.yul\":3977:3981   */\n      dup3\n        /* \"#utility.yul\":3973:3985   */\n      and\n        /* \"#utility.yul\":4004:4022   */\n      dup1\n        /* \"#utility.yul\":3994:4075   */\n      tag_91\n      jumpi\n        /* \"#utility.yul\":4060:4064   */\n      0x7f\n        /* \"#utility.yul\":4052:4058   */\n      dup3\n        /* \"#utility.yul\":4048:4065   */\n      and\n        /* \"#utility.yul\":4038:4065   */\n      swap2\n      pop\n        /* \"#utility.yul\":3994:4075   */\n    tag_91:\n        /* \"#utility.yul\":4122:4124   */\n      0x20\n        /* \"#utility.yul\":4114:4120   */\n      dup3\n        /* \"#utility.yul\":4111:4125   */\n      lt\n        /* \"#utility.yul\":4091:4109   */\n      dup2\n        /* \"#utility.yul\":4088:4126   */\n      sub\n        /* \"#utility.yul\":4085:4169   */\n      tag_92\n      jumpi\n        /* \"#utility.yul\":4141:4159   */\n      tag_93\n      tag_28\n      jump\t// in\n    tag_93:\n        /* \"#utility.yul\":4085:4169   */\n    tag_92:\n        /* \"#utility.yul\":3906:4175   */\n      pop\n        /* \"#utility.yul\":3855:4175   */\n      swap2\n      swap1\n      pop\n      jump\t// out\n        /* \"#utility.yul\":4181:4322   */\n    tag_30:\n        /* \"#utility.yul\":4230:4234   */\n      0x00\n        /* \"#utility.yul\":4253:4256   */\n      dup2\n        /* \"#utility.yul\":4245:4256   */\n      swap1\n      pop\n        /* \"#utility.yul\":4276:4279   */\n      dup2\n        /* \"#utility.yul\":4273:4274   */\n      0x00\n        /* \"#utility.yul\":4266:4280   */\n      mstore\n        /* \"#utility.yul\":4310:4314   */\n      0x20\n        /* \"#utility.yul\":4307:4308   */\n      0x00\n        /* \"#utility.yul\":4297:4315   */\n      keccak256\n        /* \"#utility.yul\":4289:4315   */\n      swap1\n      pop\n        /* \"#utility.yul\":4181:4322   */\n      swap2\n      swap1\n      pop\n      jump\t// out\n        /* \"#utility.yul\":4328:4421   */\n    tag_31:\n        /* \"#utility.yul\":4365:4371   */\n      0x00\n        /* \"#utility.yul\":4412:4414   */\n      0x20\n        /* \"#utility.yul\":4407:4409   */\n      0x1f\n        /* \"#utility.yul\":4400:4405   */\n      dup4\n        /* \"#utility.yul\":4396:4410   */\n      add\n        /* \"#utility.yul\":4392:4415   */\n      div\n        /* \"#utility.yul\":4382:4415   */\n      swap1\n      pop\n        /* \"#utility.yul\":4328:4421   */\n      swap2\n      swap1\n      pop\n      jump\t// out\n        /* \"#utility.yul\":4427:4534   */\n    tag_32:\n        /* \"#utility.yul\":4471:4479   */\n      0x00\n        /* \"#utility.yul\":4521:4526   */\n      dup3\n        /* \"#utility.yul\":4515:4519   */\n      dup3\n        /* \"#utility.yul\":4511:4527   */\n      shl\n        /* \"#utility.yul\":4490:4527   */\n      swap1\n      pop\n        /* \"#utility.yul\":4427:4534   */\n      swap3\n      swap2\n      pop\n      pop\n      jump\t// out\n        /* \"#utility.yul\":4540:4933   */\n    tag_33:\n        /* \"#utility.yul\":4609:4615   */\n      0x00\n        /* \"#utility.yul\":4659:4660   */\n      0x08\n        /* \"#utility.yul\":4647:4657   */\n      dup4\n        /* \"#utility.yul\":4643:4661   */\n      mul\n        /* \"#utility.yul\":4682:4779   */\n      tag_98\n        /* \"#utility.yul\":4712:4778   */\n      0xffffffffffffffffffffffffffffffffffffffffffffffffffffffffffffffff\n        /* \"#utility.yul\":4701:4710   */\n      dup3\n        /* \"#utility.yul\":4682:4779   */\n      tag_32\n      jump\t// in\n    tag_98:\n        /* \"#utility.yul\":4800:4839   */\n      tag_99\n        /* \"#utility.yul\":4830:4838   */\n      dup7\n        /* \"#utility.yul\":4819:4828   */\n      dup4\n        /* \"#utility.yul\":4800:4839   */\n      tag_32\n      jump\t// in\n    tag_99:\n        /* \"#utility.yul\":4788:4839   */\n      swap6\n      pop\n        /* \"#utility.yul\":4872:4876   */\n      dup1\n        /* \"#utility.yul\":4868:4877   */\n      not\n        /* \"#utility.yul\":4861:4866   */\n      dup5\n        /* \"#utility.yul\":4857:4878   */\n      and\n        /* \"#utility.yul\":4848:4878   */\n      swap4\n      pop\n        /* \"#utility.yul\":4921:4925   */\n      dup1\n        /* \"#utility.yul\":4911:4919   */\n      dup7\n        /* \"#utility.yul\":4907:4926   */\n      and\n        /* \"#utility.yul\":4900:4905   */\n      dup5\n        /* \"#utility.yul\":4897:4927   */\n      or\n        /* \"#utility.yul\":4887:4927   */\n      swap3\n      pop\n        /* \"#utility.yul\":4616:4933   */\n      pop\n      pop\n        /* \"#utility.yul\":4540:4933   */\n      swap4\n      swap3\n      pop\n      pop\n      pop\n      jump\t// out\n        /* \"#utility.yul\":4939:4999   */\n    tag_34:\n        /* \"#utility.yul\":4967:4970   */\n      0x00\n        /* \"#utility.yul\":4988:4993   */\n      dup2\n        /* \"#utility.yul\":4981:4993   */\n      swap1\n      pop\n        /* \"#utility.yul\":4939:4999   */\n      swap2\n      swap1\n      pop\n      jump\t// out\n        /* \"#utility.yul\":5005:5147   */\n    tag_35:\n        /* \"#utility.yul\":5055:5064   */\n      0x00\n        /* \"#utility.yul\":5088:5141   */\n      tag_102\n        /* \"#utility.yul\":5106:5140   */\n      tag_103\n        /* \"#utility.yul\":5115:5139   */\n      tag_104\n        /* \"#utility.yul\":5133:5138   */\n      dup5\n        /* \"#utility.yul\":5115:5139   */\n      tag_14\n      jump\t// in\n    tag_104:\n        /* \"#utility.yul\":5106:5140   */\n      tag_34\n      jump\t// in\n    tag_103:\n        /* \"#utility.yul\":5088:5141   */\n      tag_14\n      jump\t// in\n    tag_102:\n        /* \"#utility.yul\":5075:5141   */\n      swap1\n      pop\n        /* \"#utility.yul\":5005:5147   */\n      swap2\n      swap1\n      pop\n      jump\t// out\n        /* \"#utility.yul\":5153:5228   */\n    tag_36:\n        /* \"#utility.yul\":5196:5199   */\n      0x00\n        /* \"#utility.yul\":5217:5222   */\n      dup2\n        /* \"#utility.yul\":5210:5222   */\n      swap1\n      pop\n        /* \"#utility.yul\":5153:5228   */\n      swap2\n      swap1\n      pop\n      jump\t// out\n        /* \"#utility.yul\":5234:5503   */\n    tag_37:\n        /* \"#utility.yul\":5344:5383   */\n      tag_107\n        /* \"#utility.yul\":5375:5382   */\n      dup4\n        /* \"#utility.yul\":5344:5383   */\n      tag_35\n      jump\t// in\n    tag_107:\n        /* \"#utility.yul\":5405:5496   */\n      tag_108\n        /* \"#utility.yul\":5454:5495   */\n      tag_109\n        /* \"#utility.yul\":5478:5494   */\n      dup3\n        /* \"#utility.yul\":5454:5495   */\n      tag_36\n      jump\t// in\n    tag_109:\n        /* \"#utility.yul\":5446:5452   */\n      dup5\n        /* \"#utility.yul\":5439:5443   */\n      dup5\n        /* \"#utility.yul\":5433:5444   */\n      sload\n        /* \"#utility.yul\":5405:5496   */\n      tag_33\n      jump\t// in\n    tag_108:\n        /* \"#utility.yul\":5399:5403   */\n      dup3\n        /* \"#utility.yul\":5392:5497   */\n      sstore\n        /* \"#utility.yul\":5310:5503   */\n      pop\n        /* \"#utility.yul\":5234:5503   */\n      pop\n      pop\n      pop\n      jump\t// out\n        /* \"#utility.yul\":5509:5582   */\n    tag_38:\n        /* \"#utility.yul\":5554:5557   */\n      0x00\n        /* \"#utility.yul\":5509:5582   */\n      swap1\n      jump\t// out\n        /* \"#utility.yul\":5588:5777   */\n    tag_39:\n        /* \"#utility.yul\":5665:5697   */\n      tag_112\n      tag_38\n      jump\t// in\n    tag_112:\n        /* \"#utility.yul\":5706:5771   */\n      tag_113\n        /* \"#utility.yul\":5764:5770   */\n      dup2\n        /* \"#utility.yul\":5756:5762   */\n      dup5\n        /* \"#utility.yul\":5750:5754   */\n      dup5\n        /* \"#utility.yul\":5706:5771   */\n      tag_37\n      jump\t// in\n    tag_113:\n        /* \"#utility.yul\":5641:5777   */\n      pop\n        /* \"#utility.yul\":5588:5777   */\n      pop\n      pop\n      jump\t// out\n        /* \"#utility.yul\":5783:5969   */\n    tag_40:\n        /* \"#utility.yul\":5843:5963   */\n    tag_115:\n        /* \"#utility.yul\":5860:5863   */\n      dup2\n        /* \"#utility.yul\":5853:5858   */\n      dup2\n        /* \"#utility.yul\":5850:5864   */\n      lt\n        /* \"#utility.yul\":5843:5963   */\n      iszero\n      tag_117\n      jumpi\n        /* \"#utility.yul\":5914:5953   */\n      tag_118\n        /* \"#utility.yul\":5951:5952   */\n      0x00\n        /* \"#utility.yul\":5944:5949   */\n      dup3\n        /* \"#utility.yul\":5914:5953   */\n      tag_39\n      jump\t// in\n    tag_118:\n        /* \"#utility.yul\":5887:5888   */\n      0x01\n        /* \"#utility.yul\":5880:5885   */\n      dup2\n        /* \"#utility.yul\":5876:5889   */\n      add\n        /* \"#utility.yul\":5867:5889   */\n      swap1\n      pop\n        /* \"#utility.yul\":5843:5963   */\n      jump(tag_115)\n    tag_117:\n        /* \"#utility.yul\":5783:5969   */\n      pop\n      pop\n      jump\t// out\n        /* \"#utility.yul\":5975:6518   */\n    tag_41:\n        /* \"#utility.yul\":6076:6078   */\n      0x1f\n        /* \"#utility.yul\":6071:6074   */\n      dup3\n        /* \"#utility.yul\":6068:6079   */\n      gt\n        /* \"#utility.yul\":6065:6511   */\n      iszero\n      tag_120\n      jumpi\n        /* \"#utility.yul\":6110:6148   */\n      tag_121\n        /* \"#utility.yul\":6142:6147   */\n      dup2\n        /* \"#utility.yul\":6110:6148   */\n      tag_30\n      jump\t// in\n    tag_121:\n        /* \"#utility.yul\":6194:6223   */\n      tag_122\n        /* \"#utility.yul\":6212:6222   */\n      dup5\n        /* \"#utility.yul\":6194:6223   */\n      tag_31\n      jump\t// in\n    tag_122:\n        /* \"#utility.yul\":6184:6192   */\n      dup2\n        /* \"#utility.yul\":6180:6224   */\n      add\n        /* \"#utility.yul\":6377:6379   */\n      0x20\n        /* \"#utility.yul\":6365:6375   */\n      dup6\n        /* \"#utility.yul\":6362:6380   */\n      lt\n        /* \"#utility.yul\":6359:6408   */\n      iszero\n      tag_123\n      jumpi\n        /* \"#utility.yul\":6398:6406   */\n      dup2\n        /* \"#utility.yul\":6383:6406   */\n      swap1\n      pop\n        /* \"#utility.yul\":6359:6408   */\n    tag_123:\n        /* \"#utility.yul\":6421:6501   */\n      tag_124\n        /* \"#utility.yul\":6477:6499   */\n      tag_125\n        /* \"#utility.yul\":6495:6498   */\n      dup6\n        /* \"#utility.yul\":6477:6499   */\n      tag_31\n      jump\t// in\n    tag_125:\n        /* \"#utility.yul\":6467:6475   */\n      dup4\n        /* \"#utility.yul\":6463:6500   */\n      add\n        /* \"#utility.yul\":6450:6461   */\n      dup3\n        /* \"#utility.yul\":6421:6501   */\n      tag_40\n      jump\t// in\n    tag_124:\n        /* \"#utility.yul\":6080:6511   */\n      pop\n      pop\n        /* \"#utility.yul\":6065:6511   */\n    tag_120:\n        /* \"#utility.yul\":5975:6518   */\n      pop\n      pop\n      pop\n      jump\t// out\n        /* \"#utility.yul\":6524:6641   */\n    tag_42:\n        /* \"#utility.yul\":6578:6586   */\n      0x00\n        /* \"#utility.yul\":6628:6633   */\n      dup3\n        /* \"#utility.yul\":6622:6626   */\n      dup3\n        /* \"#utility.yul\":6618:6634   */\n      shr\n        /* \"#utility.yul\":6597:6634   */\n      swap1\n      pop\n        /* \"#utility.yul\":6524:6641   */\n      swap3\n      swap2\n      pop\n      pop\n      jump\t// out\n        /* \"#utility.yul\":6647:6816   */\n    tag_43:\n        /* \"#utility.yul\":6691:6697   */\n      0x00\n        /* \"#utility.yul\":6724:6775   */\n      tag_128\n        /* \"#utility.yul\":6772:6773   */\n      0x00\n        /* \"#utility.yul\":6768:6774   */\n      not\n        /* \"#utility.yul\":6760:6765   */\n      dup5\n        /* \"#utility.yul\":6757:6758   */\n      0x08\n        /* \"#utility.yul\":6753:6766   */\n      mul\n        /* \"#utility.yul\":6724:6775   */\n      tag_42\n      jump\t// in\n    tag_128:\n        /* \"#utility.yul\":6720:6776   */\n      not\n        /* \"#utility.yul\":6805:6809   */\n      dup1\n        /* \"#utility.yul\":6799:6803   */\n      dup4\n        /* \"#utility.yul\":6795:6810   */\n      and\n        /* \"#utility.yul\":6785:6810   */\n      swap2\n      pop\n        /* \"#utility.yul\":6698:6816   */\n      pop\n        /* \"#utility.yul\":6647:6816   */\n      swap3\n      swap2\n      pop\n      pop\n      jump\t// out\n        /* \"#utility.yul\":6821:7116   */\n    tag_44:\n        /* \"#utility.yul\":6897:6901   */\n      0x00\n        /* \"#utility.yul\":7043:7072   */\n      tag_130\n        /* \"#utility.yul\":7068:7071   */\n      dup4\n        /* \"#utility.yul\":7062:7066   */\n      dup4\n        /* \"#utility.yul\":7043:7072   */\n      tag_43\n      jump\t// in\n    tag_130:\n        /* \"#utility.yul\":7035:7072   */\n      swap2\n      pop\n        /* \"#utility.yul\":7105:7108   */\n      dup3\n        /* \"#utility.yul\":7102:7103   */\n      0x02\n        /* \"#utility.yul\":7098:7109   */\n      mul\n        /* \"#utility.yul\":7092:7096   */\n      dup3\n        /* \"#utility.yul\":7089:7110   */\n      or\n        /* \"#utility.yul\":7081:7110   */\n      swap1\n      pop\n        /* \"#utility.yul\":6821:7116   */\n      swap3\n      swap2\n      pop\n      pop\n      jump\t// out\n        /* \"#utility.yul\":7121:8516   */\n    tag_10:\n        /* \"#utility.yul\":7238:7275   */\n      tag_132\n        /* \"#utility.yul\":7271:7274   */\n      dup3\n        /* \"#utility.yul\":7238:7275   */\n      tag_27\n      jump\t// in\n    tag_132:\n        /* \"#utility.yul\":7340:7358   */\n      0xffffffffffffffff\n        /* \"#utility.yul\":7332:7338   */\n      dup2\n        /* \"#utility.yul\":7329:7359   */\n      gt\n        /* \"#utility.yul\":7326:7382   */\n      iszero\n      tag_133\n      jumpi\n        /* \"#utility.yul\":7362:7380   */\n      tag_134\n      tag_20\n      jump\t// in\n    tag_134:\n        /* \"#utility.yul\":7326:7382   */\n    tag_133:\n        /* \"#utility.yul\":7406:7444   */\n      tag_135\n        /* \"#utility.yul\":7438:7442   */\n      dup3\n        /* \"#utility.yul\":7432:7443   */\n      sload\n        /* \"#utility.yul\":7406:7444   */\n      tag_29\n      jump\t// in\n    tag_135:\n        /* \"#utility.yul\":7491:7558   */\n      tag_136\n        /* \"#utility.yul\":7551:7557   */\n      dup3\n        /* \"#utility.yul\":7543:7549   */\n      dup3\n        /* \"#utility.yul\":7537:7541   */\n      dup6\n        /* \"#utility.yul\":7491:7558   */\n      tag_41\n      jump\t// in\n    tag_136:\n        /* \"#utility.yul\":7585:7586   */\n      0x00\n        /* \"#utility.yul\":7609:7613   */\n      0x20\n        /* \"#utility.yul\":7596:7613   */\n      swap1\n      pop\n        /* \"#utility.yul\":7641:7643   */\n      0x1f\n        /* \"#utility.yul\":7633:7639   */\n      dup4\n        /* \"#utility.yul\":7630:7644   */\n      gt\n        /* \"#utility.yul\":7658:7659   */\n      0x01\n        /* \"#utility.yul\":7653:8271   */\n      dup2\n      eq\n      tag_138\n      jumpi\n        /* \"#utility.yul\":8315:8316   */\n      0x00\n        /* \"#utility.yul\":8332:8338   */\n      dup5\n        /* \"#utility.yul\":8329:8406   */\n      iszero\n      tag_139\n      jumpi\n        /* \"#utility.yul\":8381:8390   */\n      dup3\n        /* \"#utility.yul\":8376:8379   */\n      dup8\n        /* \"#utility.yul\":8372:8391   */\n      add\n        /* \"#utility.yul\":8366:8392   */\n      mload\n        /* \"#utility.yul\":8357:8392   */\n      swap1\n      pop\n        /* \"#utility.yul\":8329:8406   */\n    tag_139:\n        /* \"#utility.yul\":8432:8499   */\n      tag_140\n        /* \"#utility.yul\":8492:8498   */\n      dup6\n        /* \"#utility.yul\":8485:8490   */\n      dup3\n        /* \"#utility.yul\":8432:8499   */\n      tag_44\n      jump\t// in\n    tag_140:\n        /* \"#utility.yul\":8426:8430   */\n      dup7\n        /* \"#utility.yul\":8419:8500   */\n      sstore\n        /* \"#utility.yul\":8288:8510   */\n      pop\n        /* \"#utility.yul\":7623:8510   */\n      jump(tag_137)\n        /* \"#utility.yul\":7653:8271   */\n    tag_138:\n        /* \"#utility.yul\":7705:7709   */\n      0x1f\n        /* \"#utility.yul\":7701:7710   */\n      not\n        /* \"#utility.yul\":7693:7699   */\n      dup5\n        /* \"#utility.yul\":7689:7711   */\n      and\n        /* \"#utility.yul\":7739:7776   */\n      tag_141\n        /* \"#utility.yul\":7771:7775   */\n      dup7\n        /* \"#utility.yul\":7739:7776   */\n      tag_30\n      jump\t// in\n    tag_141:\n        /* \"#utility.yul\":7798:7799   */\n      0x00\n        /* \"#utility.yul\":7812:8020   */\n    tag_142:\n        /* \"#utility.yul\":7826:7833   */\n      dup3\n        /* \"#utility.yul\":7823:7824   */\n      dup2\n        /* \"#utility.yul\":7820:7834   */\n      lt\n        /* \"#utility.yul\":7812:8020   */\n      iszero\n      tag_144\n      jumpi\n        /* \"#utility.yul\":7905:7914   */\n      dup5\n        /* \"#utility.yul\":7900:7903   */\n      dup10\n        /* \"#utility.yul\":7896:7915   */\n      add\n        /* \"#utility.yul\":7890:7916   */\n      mload\n        /* \"#utility.yul\":7882:7888   */\n      dup3\n        /* \"#utility.yul\":7875:7917   */\n      sstore\n        /* \"#utility.yul\":7956:7957   */\n      0x01\n        /* \"#utility.yul\":7948:7954   */\n      dup3\n        /* \"#utility.yul\":7944:7958   */\n      add\n        /* \"#utility.yul\":7934:7958   */\n      swap2\n      pop\n        /* \"#utility.yul\":8003:8005   */\n      0x20\n        /* \"#utility.yul\":7992:8001   */\n      dup6\n        /* \"#utility.yul\":7988:8006   */\n      add\n        /* \"#utility.yul\":7975:8006   */\n      swap5\n      pop\n        /* \"#utility.yul\":7849:7853   */\n      0x20\n        /* \"#utility.yul\":7846:7847   */\n      dup2\n        /* \"#utility.yul\":7842:7854   */\n      add\n        /* \"#utility.yul\":7837:7854   */\n      swap1\n      pop\n        /* \"#utility.yul\":7812:8020   */\n      jump(tag_142)\n    tag_144:\n        /* \"#utility.yul\":8048:8054   */\n      dup7\n        /* \"#utility.yul\":8039:8046   */\n      dup4\n        /* \"#utility.yul\":8036:8055   */\n      lt\n        /* \"#utility.yul\":8033:8212   */\n      iszero\n      tag_145\n      jumpi\n        /* \"#utility.yul\":8106:8115   */\n      dup5\n        /* \"#utility.yul\":8101:8104   */\n      dup10\n        /* \"#utility.yul\":8097:8116   */\n      add\n        /* \"#utility.yul\":8091:8117   */\n      mload\n        /* \"#utility.yul\":8149:8197   */\n      tag_146\n        /* \"#utility.yul\":8191:8195   */\n      0x1f\n        /* \"#utility.yul\":8183:8189   */\n      dup10\n        /* \"#utility.yul\":8179:8196   */\n      and\n        /* \"#utility.yul\":8168:8177   */\n      dup3\n        /* \"#utility.yul\":8149:8197   */\n      tag_43\n      jump\t// in\n    tag_146:\n        /* \"#utility.yul\":8141:8147   */\n      dup4\n        /* \"#utility.yul\":8134:8198   */\n      sstore\n        /* \"#utility.yul\":8056:8212   */\n      pop\n        /* \"#utility.yul\":8033:8212   */\n    tag_145:\n        /* \"#utility.yul\":8258:8259   */\n      0x01\n        /* \"#utility.yul\":8254:8255   */\n      0x02\n        /* \"#utility.yul\":8246:8252   */\n      dup9\n        /* \"#utility.yul\":8242:8256   */\n      mul\n        /* \"#utility.yul\":8238:8260   */\n      add\n        /* \"#utility.yul\":8232:8236   */\n      dup9\n        /* \"#utility.yul\":8225:8261   */\n      sstore\n        /* \"#utility.yul\":7660:8271   */\n      pop\n      pop\n      pop\n        /* \"#utility.yul\":7623:8510   */\n    tag_137:\n      pop\n        /* \"#utility.yul\":7213:8516   */\n      pop\n      pop\n      pop\n        /* \"#utility.yul\":7121:8516   */\n      pop\n      pop\n      jump\t// out\n\n    auxdata: 0xa2646970667358221220df49341f396804888be9234ac7197afbe98a684b8f08a637bc04d749a21ed16964736f6c634300080f0033\n}\n",
				"bytecode": {
					"linkReferences": {},
					"object": "608060405234801561001057600080fd5b5061057b806100206000396000f3fe608060405234801561001057600080fd5b506004361061002b5760003560e01c8063bcb131c914610030575b600080fd5b61004a60048036038101906100459190610200565b61004c565b005b80600080848152602001908152602001600020908161006b9190610473565b505050565b6000604051905090565b600080fd5b600080fd5b6000819050919050565b61009781610084565b81146100a257600080fd5b50565b6000813590506100b48161008e565b92915050565b600080fd5b600080fd5b6000601f19601f8301169050919050565b7f4e487b7100000000000000000000000000000000000000000000000000000000600052604160045260246000fd5b61010d826100c4565b810181811067ffffffffffffffff8211171561012c5761012b6100d5565b5b80604052505050565b600061013f610070565b905061014b8282610104565b919050565b600067ffffffffffffffff82111561016b5761016a6100d5565b5b610174826100c4565b9050602081019050919050565b82818337600083830152505050565b60006101a361019e84610150565b610135565b9050828152602081018484840111156101bf576101be6100bf565b5b6101ca848285610181565b509392505050565b600082601f8301126101e7576101e66100ba565b5b81356101f7848260208601610190565b91505092915050565b600080604083850312156102175761021661007a565b5b6000610225858286016100a5565b925050602083013567ffffffffffffffff8111156102465761024561007f565b5b610252858286016101d2565b9150509250929050565b600081519050919050565b7f4e487b7100000000000000000000000000000000000000000000000000000000600052602260045260246000fd5b600060028204905060018216806102ae57607f821691505b6020821081036102c1576102c0610267565b5b50919050565b60008190508160005260206000209050919050565b60006020601f8301049050919050565b600082821b905092915050565b6000600883026103297fffffffffffffffffffffffffffffffffffffffffffffffffffffffffffffffff826102ec565b61033386836102ec565b95508019841693508086168417925050509392505050565b6000819050919050565b600061037061036b61036684610084565b61034b565b610084565b9050919050565b6000819050919050565b61038a83610355565b61039e61039682610377565b8484546102f9565b825550505050565b600090565b6103b36103a6565b6103be818484610381565b505050565b5b818110156103e2576103d76000826103ab565b6001810190506103c4565b5050565b601f821115610427576103f8816102c7565b610401846102dc565b81016020851015610410578190505b61042461041c856102dc565b8301826103c3565b50505b505050565b600082821c905092915050565b600061044a6000198460080261042c565b1980831691505092915050565b60006104638383610439565b9150826002028217905092915050565b61047c8261025c565b67ffffffffffffffff811115610495576104946100d5565b5b61049f8254610296565b6104aa8282856103e6565b600060209050601f8311600181146104dd57600084156104cb578287015190505b6104d58582610457565b86555061053d565b601f1984166104eb866102c7565b60005b82811015610513578489015182556001820191506020850194506020810190506104ee565b86831015610530578489015161052c601f891682610439565b8355505b6001600288020188555050505b50505050505056fea2646970667358221220df49341f396804888be9234ac7197afbe98a684b8f08a637bc04d749a21ed16964736f6c634300080f0033",
					"opcodes": "PUSH1 0x80 PUSH1 0x40 MSTORE CALLVALUE DUP1 ISZERO PUSH2 0x10 JUMPI PUSH1 0x0 DUP1 REVERT JUMPDEST POP PUSH2 0x57B DUP1 PUSH2 0x20 PUSH1 0x0 CODECOPY PUSH1 0x0 RETURN INVALID PUSH1 0x80 PUSH1 0x40 MSTORE CALLVALUE DUP1 ISZERO PUSH2 0x10 JUMPI PUSH1 0x0 DUP1 REVERT JUMPDEST POP PUSH1 0x4 CALLDATASIZE LT PUSH2 0x2B JUMPI PUSH1 0x0 CALLDATALOAD PUSH1 0xE0 SHR DUP1 PUSH4 0xBCB131C9 EQ PUSH2 0x30 JUMPI JUMPDEST PUSH1 0x0 DUP1 REVERT JUMPDEST PUSH2 0x4A PUSH1 0x4 DUP1 CALLDATASIZE SUB DUP2 ADD SWAP1 PUSH2 0x45 SWAP2 SWAP1 PUSH2 0x200 JUMP JUMPDEST PUSH2 0x4C JUMP JUMPDEST STOP JUMPDEST DUP1 PUSH1 0x0 DUP1 DUP5 DUP2 MSTORE PUSH1 0x20 ADD SWAP1 DUP2 MSTORE PUSH1 0x20 ADD PUSH1 0x0 KECCAK256 SWAP1 DUP2 PUSH2 0x6B SWAP2 SWAP1 PUSH2 0x473 JUMP JUMPDEST POP POP POP JUMP JUMPDEST PUSH1 0x0 PUSH1 0x40 MLOAD SWAP1 POP SWAP1 JUMP JUMPDEST PUSH1 0x0 DUP1 REVERT JUMPDEST PUSH1 0x0 DUP1 REVERT JUMPDEST PUSH1 0x0 DUP2 SWAP1 POP SWAP2 SWAP1 POP JUMP JUMPDEST PUSH2 0x97 DUP2 PUSH2 0x84 JUMP JUMPDEST DUP2 EQ PUSH2 0xA2 JUMPI PUSH1 0x0 DUP1 REVERT JUMPDEST POP JUMP JUMPDEST PUSH1 0x0 DUP2 CALLDATALOAD SWAP1 POP PUSH2 0xB4 DUP2 PUSH2 0x8E JUMP JUMPDEST SWAP3 SWAP2 POP POP JUMP JUMPDEST PUSH1 0x0 DUP1 REVERT JUMPDEST PUSH1 0x0 DUP1 REVERT JUMPDEST PUSH1 0x0 PUSH1 0x1F NOT PUSH1 0x1F DUP4 ADD AND SWAP1 POP SWAP2 SWAP1 POP JUMP JUMPDEST PUSH32 0x4E487B7100000000000000000000000000000000000000000000000000000000 PUSH1 0x0 MSTORE PUSH1 0x41 PUSH1 0x4 MSTORE PUSH1 0x24 PUSH1 0x0 REVERT JUMPDEST PUSH2 0x10D DUP3 PUSH2 0xC4 JUMP JUMPDEST DUP2 ADD DUP2 DUP2 LT PUSH8 0xFFFFFFFFFFFFFFFF DUP3 GT OR ISZERO PUSH2 0x12C JUMPI PUSH2 0x12B PUSH2 0xD5 JUMP JUMPDEST JUMPDEST DUP1 PUSH1 0x40 MSTORE POP POP POP JUMP JUMPDEST PUSH1 0x0 PUSH2 0x13F PUSH2 0x70 JUMP JUMPDEST SWAP1 POP PUSH2 0x14B DUP3 DUP3 PUSH2 0x104 JUMP JUMPDEST SWAP2 SWAP1 POP JUMP JUMPDEST PUSH1 0x0 PUSH8 0xFFFFFFFFFFFFFFFF DUP3 GT ISZERO PUSH2 0x16B JUMPI PUSH2 0x16A PUSH2 0xD5 JUMP JUMPDEST JUMPDEST PUSH2 0x174 DUP3 PUSH2 0xC4 JUMP JUMPDEST SWAP1 POP PUSH1 0x20 DUP2 ADD SWAP1 POP SWAP2 SWAP1 POP JUMP JUMPDEST DUP3 DUP2 DUP4 CALLDATACOPY PUSH1 0x0 DUP4 DUP4 ADD MSTORE POP POP POP JUMP JUMPDEST PUSH1 0x0 PUSH2 0x1A3 PUSH2 0x19E DUP5 PUSH2 0x150 JUMP JUMPDEST PUSH2 0x135 JUMP JUMPDEST SWAP1 POP DUP3 DUP2 MSTORE PUSH1 0x20 DUP2 ADD DUP5 DUP5 DUP5 ADD GT ISZERO PUSH2 0x1BF JUMPI PUSH2 0x1BE PUSH2 0xBF JUMP JUMPDEST JUMPDEST PUSH2 0x1CA DUP5 DUP3 DUP6 PUSH2 0x181 JUMP JUMPDEST POP SWAP4 SWAP3 POP POP POP JUMP JUMPDEST PUSH1 0x0 DUP3 PUSH1 0x1F DUP4 ADD SLT PUSH2 0x1E7 JUMPI PUSH2 0x1E6 PUSH2 0xBA JUMP JUMPDEST JUMPDEST DUP2 CALLDATALOAD PUSH2 0x1F7 DUP5 DUP3 PUSH1 0x20 DUP7 ADD PUSH2 0x190 JUMP JUMPDEST SWAP2 POP POP SWAP3 SWAP2 POP POP JUMP JUMPDEST PUSH1 0x0 DUP1 PUSH1 0x40 DUP4 DUP6 SUB SLT ISZERO PUSH2 0x217 JUMPI PUSH2 0x216 PUSH2 0x7A JUMP JUMPDEST JUMPDEST PUSH1 0x0 PUSH2 0x225 DUP6 DUP3 DUP7 ADD PUSH2 0xA5 JUMP JUMPDEST SWAP3 POP POP PUSH1 0x20 DUP4 ADD CALLDATALOAD PUSH8 0xFFFFFFFFFFFFFFFF DUP2 GT ISZERO PUSH2 0x246 JUMPI PUSH2 0x245 PUSH2 0x7F JUMP JUMPDEST JUMPDEST PUSH2 0x252 DUP6 DUP3 DUP7 ADD PUSH2 0x1D2 JUMP JUMPDEST SWAP2 POP POP SWAP3 POP SWAP3 SWAP1 POP JUMP JUMPDEST PUSH1 0x0 DUP2 MLOAD SWAP1 POP SWAP2 SWAP1 POP JUMP JUMPDEST PUSH32 0x4E487B7100000000000000000000000000000000000000000000000000000000 PUSH1 0x0 MSTORE PUSH1 0x22 PUSH1 0x4 MSTORE PUSH1 0x24 PUSH1 0x0 REVERT JUMPDEST PUSH1 0x0 PUSH1 0x2 DUP3 DIV SWAP1 POP PUSH1 0x1 DUP3 AND DUP1 PUSH2 0x2AE JUMPI PUSH1 0x7F DUP3 AND SWAP2 POP JUMPDEST PUSH1 0x20 DUP3 LT DUP2 SUB PUSH2 0x2C1 JUMPI PUSH2 0x2C0 PUSH2 0x267 JUMP JUMPDEST JUMPDEST POP SWAP2 SWAP1 POP JUMP JUMPDEST PUSH1 0x0 DUP2 SWAP1 POP DUP2 PUSH1 0x0 MSTORE PUSH1 0x20 PUSH1 0x0 KECCAK256 SWAP1 POP SWAP2 SWAP1 POP JUMP JUMPDEST PUSH1 0x0 PUSH1 0x20 PUSH1 0x1F DUP4 ADD DIV SWAP1 POP SWAP2 SWAP1 POP JUMP JUMPDEST PUSH1 0x0 DUP3 DUP3 SHL SWAP1 POP SWAP3 SWAP2 POP POP JUMP JUMPDEST PUSH1 0x0 PUSH1 0x8 DUP4 MUL PUSH2 0x329 PUSH32 0xFFFFFFFFFFFFFFFFFFFFFFFFFFFFFFFFFFFFFFFFFFFFFFFFFFFFFFFFFFFFFFFF DUP3 PUSH2 0x2EC JUMP JUMPDEST PUSH2 0x333 DUP7 DUP4 PUSH2 0x2EC JUMP JUMPDEST SWAP6 POP DUP1 NOT DUP5 AND SWAP4 POP DUP1 DUP7 AND DUP5 OR SWAP3 POP POP POP SWAP4 SWAP3 POP POP POP JUMP JUMPDEST PUSH1 0x0 DUP2 SWAP1 POP SWAP2 SWAP1 POP JUMP JUMPDEST PUSH1 0x0 PUSH2 0x370 PUSH2 0x36B PUSH2 0x366 DUP5 PUSH2 0x84 JUMP JUMPDEST PUSH2 0x34B JUMP JUMPDEST PUSH2 0x84 JUMP JUMPDEST SWAP1 POP SWAP2 SWAP1 POP JUMP JUMPDEST PUSH1 0x0 DUP2 SWAP1 POP SWAP2 SWAP1 POP JUMP JUMPDEST PUSH2 0x38A DUP4 PUSH2 0x355 JUMP JUMPDEST PUSH2 0x39E PUSH2 0x396 DUP3 PUSH2 0x377 JUMP JUMPDEST DUP5 DUP5 SLOAD PUSH2 0x2F9 JUMP JUMPDEST DUP3 SSTORE POP POP POP POP JUMP JUMPDEST PUSH1 0x0 SWAP1 JUMP JUMPDEST PUSH2 0x3B3 PUSH2 0x3A6 JUMP JUMPDEST PUSH2 0x3BE DUP2 DUP5 DUP5 PUSH2 0x381 JUMP JUMPDEST POP POP POP JUMP JUMPDEST JUMPDEST DUP2 DUP2 LT ISZERO PUSH2 0x3E2 JUMPI PUSH2 0x3D7 PUSH1 0x0 DUP3 PUSH2 0x3AB JUMP JUMPDEST PUSH1 0x1 DUP2 ADD SWAP1 POP PUSH2 0x3C4 JUMP JUMPDEST POP POP JUMP JUMPDEST PUSH1 0x1F DUP3 GT ISZERO PUSH2 0x427 JUMPI PUSH2 0x3F8 DUP2 PUSH2 0x2C7 JUMP JUMPDEST PUSH2 0x401 DUP5 PUSH2 0x2DC JUMP JUMPDEST DUP2 ADD PUSH1 0x20 DUP6 LT ISZERO PUSH2 0x410 JUMPI DUP2 SWAP1 POP JUMPDEST PUSH2 0x424 PUSH2 0x41C DUP6 PUSH2 0x2DC JUMP JUMPDEST DUP4 ADD DUP3 PUSH2 0x3C3 JUMP JUMPDEST POP POP JUMPDEST POP POP POP JUMP JUMPDEST PUSH1 0x0 DUP3 DUP3 SHR SWAP1 POP SWAP3 SWAP2 POP POP JUMP JUMPDEST PUSH1 0x0 PUSH2 0x44A PUSH1 0x0 NOT DUP5 PUSH1 0x8 MUL PUSH2 0x42C JUMP JUMPDEST NOT DUP1 DUP4 AND SWAP2 POP POP SWAP3 SWAP2 POP POP JUMP JUMPDEST PUSH1 0x0 PUSH2 0x463 DUP4 DUP4 PUSH2 0x439 JUMP JUMPDEST SWAP2 POP DUP3 PUSH1 0x2 MUL DUP3 OR SWAP1 POP SWAP3 SWAP2 POP POP JUMP JUMPDEST PUSH2 0x47C DUP3 PUSH2 0x25C JUMP JUMPDEST PUSH8 0xFFFFFFFFFFFFFFFF DUP2 GT ISZERO PUSH2 0x495 JUMPI PUSH2 0x494 PUSH2 0xD5 JUMP JUMPDEST JUMPDEST PUSH2 0x49F DUP3 SLOAD PUSH2 0x296 JUMP JUMPDEST PUSH2 0x4AA DUP3 DUP3 DUP6 PUSH2 0x3E6 JUMP JUMPDEST PUSH1 0x0 PUSH1 0x20 SWAP1 POP PUSH1 0x1F DUP4 GT PUSH1 0x1 DUP2 EQ PUSH2 0x4DD JUMPI PUSH1 0x0 DUP5 ISZERO PUSH2 0x4CB JUMPI DUP3 DUP8 ADD MLOAD SWAP1 POP JUMPDEST PUSH2 0x4D5 DUP6 DUP3 PUSH2 0x457 JUMP JUMPDEST DUP7 SSTORE POP PUSH2 0x53D JUMP JUMPDEST PUSH1 0x1F NOT DUP5 AND PUSH2 0x4EB DUP7 PUSH2 0x2C7 JUMP JUMPDEST PUSH1 0x0 JUMPDEST DUP3 DUP2 LT ISZERO PUSH2 0x513 JUMPI DUP5 DUP10 ADD MLOAD DUP3 SSTORE PUSH1 0x1 DUP3 ADD SWAP2 POP PUSH1 0x20 DUP6 ADD SWAP5 POP PUSH1 0x20 DUP2 ADD SWAP1 POP PUSH2 0x4EE JUMP JUMPDEST DUP7 DUP4 LT ISZERO PUSH2 0x530 JUMPI DUP5 DUP10 ADD MLOAD PUSH2 0x52C PUSH1 0x1F DUP10 AND DUP3 PUSH2 0x439 JUMP JUMPDEST DUP4 SSTORE POP JUMPDEST PUSH1 0x1 PUSH1 0x2 DUP9 MUL ADD DUP9 SSTORE POP POP POP JUMPDEST POP POP POP POP POP POP JUMP INVALID LOG2 PUSH5 0x6970667358 0x22 SLT KECCAK256 0xDF 0x49 CALLVALUE 0x1F CODECOPY PUSH9 0x4888BE9234AC7197A 0xFB 0xE9 DUP11 PUSH9 0x4B8F08A637BC04D749 LOG2 0x1E 0xD1 PUSH10 0x64736F6C634300080F00 CALLER "
				},
				"gasEstimates": {
					"creation": {
						"codeDepositCost": "280600",
						"executionCost": "318",
						"totalCost": "280918"
					},
					"external": {
						"setter(uint256,string)": "infinite"
					}
				},
				"methodIdentifiers": {
					"setter(uint256,string)": "bcb131c9"
				}
			},
			"storageLayout": {
				"storage": [
					{
						"astId": 5,
						"contract": "mapping.sol:MappingTest",
						"label": "my_car",
						"offset": 0,
						"slot": "0",
						"type": "t_mapping(t_uint256,t_string_storage)"
					}
				],
				"types": {
					"t_mapping(t_uint256,t_string_storage)": {
						"encoding": "mapping",
						"key": "t_uint256",
						"label": "mapping(uint256 => string)",
						"numberOfBytes": "32",
						"value": "t_string_storage"
					},
					"t_string_storage": {
						"encoding": "bytes",
						"label": "string",
						"numberOfBytes": "32"
					},
					"t_uint256": {
						"encoding": "inplace",
						"label": "uint256",
						"numberOfBytes": "32"
					}
				}
			},
			"userdoc": {
				"kind": "user",
				"methods": {},
				"version": 1
			}
		}
	}
}