{
	"event1.sol": {
		"eventExample": {
			"abi": [
				{
					"anonymous": false,
					"inputs": [
						{
							"indexed": false,
							"internalType": "address",
							"name": "owner",
							"type": "address"
						}
					],
					"name": "Increment",
					"type": "event"
				},
				{
					"inputs": [
						{
							"internalType": "uint256",
							"name": "_a",
							"type": "uint256"
						},
						{
							"internalType": "uint256",
							"name": "_b",
							"type": "uint256"
						}
					],
					"name": "getValue",
					"outputs": [],
					"stateMutability": "nonpayable",
					"type": "function"
				},
				{
					"inputs": [],
					"name": "value",
					"outputs": [
						{
							"internalType": "uint256",
							"name": "",
							"type": "uint256"
						}
					],
					"stateMutability": "view",
					"type": "function"
				}
			],
			"devdoc": {
				"kind": "dev",
				"methods": {},
				"version": 1
			},
			"evm": {
				"assembly": "    /* \"event1.sol\":51:378  contract eventExample {... */\n  mstore(0x40, 0x80)\n    /* \"event1.sol\":139:140  0 */\n  0x00\n    /* \"event1.sol\":116:140  uint256 public value = 0 */\n  dup1\n  sstore\n    /* \"event1.sol\":51:378  contract eventExample {... */\n  callvalue\n  dup1\n  iszero\n  tag_1\n  jumpi\n  0x00\n  dup1\n  revert\ntag_1:\n  pop\n  dataSize(sub_0)\n  dup1\n  dataOffset(sub_0)\n  0x00\n  codecopy\n  0x00\n  return\nstop\n\nsub_0: assembly {\n        /* \"event1.sol\":51:378  contract eventExample {... */\n      mstore(0x40, 0x80)\n      callvalue\n      dup1\n      iszero\n      tag_1\n      jumpi\n      0x00\n      dup1\n      revert\n    tag_1:\n      pop\n      jumpi(tag_2, lt(calldatasize, 0x04))\n      shr(0xe0, calldataload(0x00))\n      dup1\n      0x3fa4f245\n      eq\n      tag_3\n      jumpi\n      dup1\n      0x6a19e6de\n      eq\n      tag_4\n      jumpi\n    tag_2:\n      0x00\n      dup1\n      revert\n        /* \"event1.sol\":116:140  uint256 public value = 0 */\n    tag_3:\n      tag_5\n      tag_6\n      jump\t// in\n    tag_5:\n      mload(0x40)\n      tag_7\n      swap2\n      swap1\n      tag_8\n      jump\t// in\n    tag_7:\n      mload(0x40)\n      dup1\n      swap2\n      sub\n      swap1\n      return\n        /* \"event1.sol\":261:375  function getValue(uint _a, uint _b) public {... */\n    tag_4:\n      tag_9\n      0x04\n      dup1\n      calldatasize\n      sub\n      dup2\n      add\n      swap1\n      tag_10\n      swap2\n      swap1\n      tag_11\n      jump\t// in\n    tag_10:\n      tag_12\n      jump\t// in\n    tag_9:\n      stop\n        /* \"event1.sol\":116:140  uint256 public value = 0 */\n    tag_6:\n      sload(0x00)\n      dup2\n      jump\t// out\n        /* \"event1.sol\":261:375  function getValue(uint _a, uint _b) public {... */\n    tag_12:\n        /* \"event1.sol\":320:341  Increment(msg.sender) */\n      0xfc3a67c9f0b5967ae4041ed898b05ec1fa49d2a3c22336247201d71be6f97120\n        /* \"event1.sol\":330:340  msg.sender */\n      caller\n        /* \"event1.sol\":320:341  Increment(msg.sender) */\n      mload(0x40)\n      tag_14\n      swap2\n      swap1\n      tag_15\n      jump\t// in\n    tag_14:\n      mload(0x40)\n      dup1\n      swap2\n      sub\n      swap1\n      log1\n        /* \"event1.sol\":365:367  _b */\n      dup1\n        /* \"event1.sol\":360:362  _a */\n      dup3\n        /* \"event1.sol\":360:367  _a + _b */\n      tag_16\n      swap2\n      swap1\n      tag_17\n      jump\t// in\n    tag_16:\n        /* \"event1.sol\":352:357  value */\n      0x00\n        /* \"event1.sol\":352:367  value = _a + _b */\n      dup2\n      swap1\n      sstore\n      pop\n        /* \"event1.sol\":261:375  function getValue(uint _a, uint _b) public {... */\n      pop\n      pop\n      jump\t// out\n        /* \"#utility.yul\":7:84   */\n    tag_18:\n        /* \"#utility.yul\":44:51   */\n      0x00\n        /* \"#utility.yul\":73:78   */\n      dup2\n        /* \"#utility.yul\":62:78   */\n      swap1\n      pop\n        /* \"#utility.yul\":7:84   */\n      swap2\n      swap1\n      pop\n      jump\t// out\n        /* \"#utility.yul\":90:208   */\n    tag_19:\n        /* \"#utility.yul\":177:201   */\n      tag_32\n        /* \"#utility.yul\":195:200   */\n      dup2\n        /* \"#utility.yul\":177:201   */\n      tag_18\n      jump\t// in\n    tag_32:\n        /* \"#utility.yul\":172:175   */\n      dup3\n        /* \"#utility.yul\":165:202   */\n      mstore\n        /* \"#utility.yul\":90:208   */\n      pop\n      pop\n      jump\t// out\n        /* \"#utility.yul\":214:436   */\n    tag_8:\n        /* \"#utility.yul\":307:311   */\n      0x00\n        /* \"#utility.yul\":345:347   */\n      0x20\n        /* \"#utility.yul\":334:343   */\n      dup3\n        /* \"#utility.yul\":330:348   */\n      add\n        /* \"#utility.yul\":322:348   */\n      swap1\n      pop\n        /* \"#utility.yul\":358:429   */\n      tag_34\n        /* \"#utility.yul\":426:427   */\n      0x00\n        /* \"#utility.yul\":415:424   */\n      dup4\n        /* \"#utility.yul\":411:428   */\n      add\n        /* \"#utility.yul\":402:408   */\n      dup5\n        /* \"#utility.yul\":358:429   */\n      tag_19\n      jump\t// in\n    tag_34:\n        /* \"#utility.yul\":214:436   */\n      swap3\n      swap2\n      pop\n      pop\n      jump\t// out\n        /* \"#utility.yul\":523:640   */\n    tag_21:\n        /* \"#utility.yul\":632:633   */\n      0x00\n        /* \"#utility.yul\":629:630   */\n      dup1\n        /* \"#utility.yul\":622:634   */\n      revert\n        /* \"#utility.yul\":769:891   */\n    tag_23:\n        /* \"#utility.yul\":842:866   */\n      tag_39\n        /* \"#utility.yul\":860:865   */\n      dup2\n        /* \"#utility.yul\":842:866   */\n      tag_18\n      jump\t// in\n    tag_39:\n        /* \"#utility.yul\":835:840   */\n      dup2\n        /* \"#utility.yul\":832:867   */\n      eq\n        /* \"#utility.yul\":822:885   */\n      tag_40\n      jumpi\n        /* \"#utility.yul\":881:882   */\n      0x00\n        /* \"#utility.yul\":878:879   */\n      dup1\n        /* \"#utility.yul\":871:883   */\n      revert\n        /* \"#utility.yul\":822:885   */\n    tag_40:\n        /* \"#utility.yul\":769:891   */\n      pop\n      jump\t// out\n        /* \"#utility.yul\":897:1036   */\n    tag_24:\n        /* \"#utility.yul\":943:948   */\n      0x00\n        /* \"#utility.yul\":981:987   */\n      dup2\n        /* \"#utility.yul\":968:988   */\n      calldataload\n        /* \"#utility.yul\":959:988   */\n      swap1\n      pop\n        /* \"#utility.yul\":997:1030   */\n      tag_42\n        /* \"#utility.yul\":1024:1029   */\n      dup2\n        /* \"#utility.yul\":997:1030   */\n      tag_23\n      jump\t// in\n    tag_42:\n        /* \"#utility.yul\":897:1036   */\n      swap3\n      swap2\n      pop\n      pop\n      jump\t// out\n        /* \"#utility.yul\":1042:1516   */\n    tag_11:\n        /* \"#utility.yul\":1110:1116   */\n      0x00\n        /* \"#utility.yul\":1118:1124   */\n      dup1\n        /* \"#utility.yul\":1167:1169   */\n      0x40\n        /* \"#utility.yul\":1155:1164   */\n      dup4\n        /* \"#utility.yul\":1146:1153   */\n      dup6\n        /* \"#utility.yul\":1142:1165   */\n      sub\n        /* \"#utility.yul\":1138:1170   */\n      slt\n        /* \"#utility.yul\":1135:1254   */\n      iszero\n      tag_44\n      jumpi\n        /* \"#utility.yul\":1173:1252   */\n      tag_45\n      tag_21\n      jump\t// in\n    tag_45:\n        /* \"#utility.yul\":1135:1254   */\n    tag_44:\n        /* \"#utility.yul\":1293:1294   */\n      0x00\n        /* \"#utility.yul\":1318:1371   */\n      tag_46\n        /* \"#utility.yul\":1363:1370   */\n      dup6\n        /* \"#utility.yul\":1354:1360   */\n      dup3\n        /* \"#utility.yul\":1343:1352   */\n      dup7\n        /* \"#utility.yul\":1339:1361   */\n      add\n        /* \"#utility.yul\":1318:1371   */\n      tag_24\n      jump\t// in\n    tag_46:\n        /* \"#utility.yul\":1308:1371   */\n      swap3\n      pop\n        /* \"#utility.yul\":1264:1381   */\n      pop\n        /* \"#utility.yul\":1420:1422   */\n      0x20\n        /* \"#utility.yul\":1446:1499   */\n      tag_47\n        /* \"#utility.yul\":1491:1498   */\n      dup6\n        /* \"#utility.yul\":1482:1488   */\n      dup3\n        /* \"#utility.yul\":1471:1480   */\n      dup7\n        /* \"#utility.yul\":1467:1489   */\n      add\n        /* \"#utility.yul\":1446:1499   */\n      tag_24\n      jump\t// in\n    tag_47:\n        /* \"#utility.yul\":1436:1499   */\n      swap2\n      pop\n        /* \"#utility.yul\":1391:1509   */\n      pop\n        /* \"#utility.yul\":1042:1516   */\n      swap3\n      pop\n      swap3\n      swap1\n      pop\n      jump\t// out\n        /* \"#utility.yul\":1522:1648   */\n    tag_25:\n        /* \"#utility.yul\":1559:1566   */\n      0x00\n        /* \"#utility.yul\":1599:1641   */\n      0xffffffffffffffffffffffffffffffffffffffff\n        /* \"#utility.yul\":1592:1597   */\n      dup3\n        /* \"#utility.yul\":1588:1642   */\n      and\n        /* \"#utility.yul\":1577:1642   */\n      swap1\n      pop\n        /* \"#utility.yul\":1522:1648   */\n      swap2\n      swap1\n      pop\n      jump\t// out\n        /* \"#utility.yul\":1654:1750   */\n    tag_26:\n        /* \"#utility.yul\":1691:1698   */\n      0x00\n        /* \"#utility.yul\":1720:1744   */\n      tag_50\n        /* \"#utility.yul\":1738:1743   */\n      dup3\n        /* \"#utility.yul\":1720:1744   */\n      tag_25\n      jump\t// in\n    tag_50:\n        /* \"#utility.yul\":1709:1744   */\n      swap1\n      pop\n        /* \"#utility.yul\":1654:1750   */\n      swap2\n      swap1\n      pop\n      jump\t// out\n        /* \"#utility.yul\":1756:1874   */\n    tag_27:\n        /* \"#utility.yul\":1843:1867   */\n      tag_52\n        /* \"#utility.yul\":1861:1866   */\n      dup2\n        /* \"#utility.yul\":1843:1867   */\n      tag_26\n      jump\t// in\n    tag_52:\n        /* \"#utility.yul\":1838:1841   */\n      dup3\n        /* \"#utility.yul\":1831:1868   */\n      mstore\n        /* \"#utility.yul\":1756:1874   */\n      pop\n      pop\n      jump\t// out\n        /* \"#utility.yul\":1880:2102   */\n    tag_15:\n        /* \"#utility.yul\":1973:1977   */\n      0x00\n        /* \"#utility.yul\":2011:2013   */\n      0x20\n        /* \"#utility.yul\":2000:2009   */\n      dup3\n        /* \"#utility.yul\":1996:2014   */\n      add\n        /* \"#utility.yul\":1988:2014   */\n      swap1\n      pop\n        /* \"#utility.yul\":2024:2095   */\n      tag_54\n        /* \"#utility.yul\":2092:2093   */\n      0x00\n        /* \"#utility.yul\":2081:2090   */\n      dup4\n        /* \"#utility.yul\":2077:2094   */\n      add\n        /* \"#utility.yul\":2068:2074   */\n      dup5\n        /* \"#utility.yul\":2024:2095   */\n      tag_27\n      jump\t// in\n    tag_54:\n        /* \"#utility.yul\":1880:2102   */\n      swap3\n      swap2\n      pop\n      pop\n      jump\t// out\n        /* \"#utility.yul\":2108:2288   */\n    tag_28:\n        /* \"#utility.yul\":2156:2233   */\n      0x4e487b7100000000000000000000000000000000000000000000000000000000\n        /* \"#utility.yul\":2153:2154   */\n      0x00\n        /* \"#utility.yul\":2146:2234   */\n      mstore\n        /* \"#utility.yul\":2253:2257   */\n      0x11\n        /* \"#utility.yul\":2250:2251   */\n      0x04\n        /* \"#utility.yul\":2243:2258   */\n      mstore\n        /* \"#utility.yul\":2277:2281   */\n      0x24\n        /* \"#utility.yul\":2274:2275   */\n      0x00\n        /* \"#utility.yul\":2267:2282   */\n      revert\n        /* \"#utility.yul\":2294:2599   */\n    tag_17:\n        /* \"#utility.yul\":2334:2337   */\n      0x00\n        /* \"#utility.yul\":2353:2373   */\n      tag_57\n        /* \"#utility.yul\":2371:2372   */\n      dup3\n        /* \"#utility.yul\":2353:2373   */\n      tag_18\n      jump\t// in\n    tag_57:\n        /* \"#utility.yul\":2348:2373   */\n      swap2\n      pop\n        /* \"#utility.yul\":2387:2407   */\n      tag_58\n        /* \"#utility.yul\":2405:2406   */\n      dup4\n        /* \"#utility.yul\":2387:2407   */\n      tag_18\n      jump\t// in\n    tag_58:\n        /* \"#utility.yul\":2382:2407   */\n      swap3\n      pop\n        /* \"#utility.yul\":2541:2542   */\n      dup3\n        /* \"#utility.yul\":2473:2539   */\n      0xffffffffffffffffffffffffffffffffffffffffffffffffffffffffffffffff\n        /* \"#utility.yul\":2469:2543   */\n      sub\n        /* \"#utility.yul\":2466:2467   */\n      dup3\n        /* \"#utility.yul\":2463:2544   */\n      gt\n        /* \"#utility.yul\":2460:2567   */\n      iszero\n      tag_59\n      jumpi\n        /* \"#utility.yul\":2547:2565   */\n      tag_60\n      tag_28\n      jump\t// in\n    tag_60:\n        /* \"#utility.yul\":2460:2567   */\n    tag_59:\n        /* \"#utility.yul\":2591:2592   */\n      dup3\n        /* \"#utility.yul\":2588:2589   */\n      dup3\n        /* \"#utility.yul\":2584:2593   */\n      add\n        /* \"#utility.yul\":2577:2593   */\n      swap1\n      pop\n        /* \"#utility.yul\":2294:2599   */\n      swap3\n      swap2\n      pop\n      pop\n      jump\t// out\n\n    auxdata: 0xa2646970667358221220b960fa4059f4b79a02dbcf894869ec03a276a3cf0e4f64d9b2353d13d2c018a864736f6c634300080f0033\n}\n",
				"bytecode": {
					"linkReferences": {},
					"object": "60806040526000805534801561001457600080fd5b50610284806100246000396000f3fe608060405234801561001057600080fd5b50600436106100365760003560e01c80633fa4f2451461003b5780636a19e6de14610059575b600080fd5b610043610075565b60405161005091906100e1565b60405180910390f35b610073600480360381019061006e919061012d565b61007b565b005b60005481565b7ffc3a67c9f0b5967ae4041ed898b05ec1fa49d2a3c22336247201d71be6f97120336040516100aa91906101ae565b60405180910390a180826100be91906101f8565b6000819055505050565b6000819050919050565b6100db816100c8565b82525050565b60006020820190506100f660008301846100d2565b92915050565b600080fd5b61010a816100c8565b811461011557600080fd5b50565b60008135905061012781610101565b92915050565b60008060408385031215610144576101436100fc565b5b600061015285828601610118565b925050602061016385828601610118565b9150509250929050565b600073ffffffffffffffffffffffffffffffffffffffff82169050919050565b60006101988261016d565b9050919050565b6101a88161018d565b82525050565b60006020820190506101c3600083018461019f565b92915050565b7f4e487b7100000000000000000000000000000000000000000000000000000000600052601160045260246000fd5b6000610203826100c8565b915061020e836100c8565b9250827fffffffffffffffffffffffffffffffffffffffffffffffffffffffffffffffff03821115610243576102426101c9565b5b82820190509291505056fea2646970667358221220b960fa4059f4b79a02dbcf894869ec03a276a3cf0e4f64d9b2353d13d2c018a864736f6c634300080f0033",
					"opcodes": "PUSH1 0x80 PUSH1 0x40 MSTORE PUSH1 0x0 DUP1 SSTORE CALLVALUE DUP1 ISZERO PUSH2 0x14 JUMPI PUSH1 0x0 DUP1 REVERT JUMPDEST POP PUSH2 0x284 DUP1 PUSH2 0x24 PUSH1 0x0 CODECOPY PUSH1 0x0 RETURN INVALID PUSH1 0x80 PUSH1 0x40 MSTORE CALLVALUE DUP1 ISZERO PUSH2 0x10 JUMPI PUSH1 0x0 DUP1 REVERT JUMPDEST POP PUSH1 0x4 CALLDATASIZE LT PUSH2 0x36 JUMPI PUSH1 0x0 CALLDATALOAD PUSH1 0xE0 SHR DUP1 PUSH4 0x3FA4F245 EQ PUSH2 0x3B JUMPI DUP1 PUSH4 0x6A19E6DE EQ PUSH2 0x59 JUMPI JUMPDEST PUSH1 0x0 DUP1 REVERT JUMPDEST PUSH2 0x43 PUSH2 0x75 JUMP JUMPDEST PUSH1 0x40 MLOAD PUSH2 0x50 SWAP2 SWAP1 PUSH2 0xE1 JUMP JUMPDEST PUSH1 0x40 MLOAD DUP1 SWAP2 SUB SWAP1 RETURN JUMPDEST PUSH2 0x73 PUSH1 0x4 DUP1 CALLDATASIZE SUB DUP2 ADD SWAP1 PUSH2 0x6E SWAP2 SWAP1 PUSH2 0x12D JUMP JUMPDEST PUSH2 0x7B JUMP JUMPDEST STOP JUMPDEST PUSH1 0x0 SLOAD DUP2 JUMP JUMPDEST PUSH32 0xFC3A67C9F0B5967AE4041ED898B05EC1FA49D2A3C22336247201D71BE6F97120 CALLER PUSH1 0x40 MLOAD PUSH2 0xAA SWAP2 SWAP1 PUSH2 0x1AE JUMP JUMPDEST PUSH1 0x40 MLOAD DUP1 SWAP2 SUB SWAP1 LOG1 DUP1 DUP3 PUSH2 0xBE SWAP2 SWAP1 PUSH2 0x1F8 JUMP JUMPDEST PUSH1 0x0 DUP2 SWAP1 SSTORE POP POP POP JUMP JUMPDEST PUSH1 0x0 DUP2 SWAP1 POP SWAP2 SWAP1 POP JUMP JUMPDEST PUSH2 0xDB DUP2 PUSH2 0xC8 JUMP JUMPDEST DUP3 MSTORE POP POP JUMP JUMPDEST PUSH1 0x0 PUSH1 0x20 DUP3 ADD SWAP1 POP PUSH2 0xF6 PUSH1 0x0 DUP4 ADD DUP5 PUSH2 0xD2 JUMP JUMPDEST SWAP3 SWAP2 POP POP JUMP JUMPDEST PUSH1 0x0 DUP1 REVERT JUMPDEST PUSH2 0x10A DUP2 PUSH2 0xC8 JUMP JUMPDEST DUP2 EQ PUSH2 0x115 JUMPI PUSH1 0x0 DUP1 REVERT JUMPDEST POP JUMP JUMPDEST PUSH1 0x0 DUP2 CALLDATALOAD SWAP1 POP PUSH2 0x127 DUP2 PUSH2 0x101 JUMP JUMPDEST SWAP3 SWAP2 POP POP JUMP JUMPDEST PUSH1 0x0 DUP1 PUSH1 0x40 DUP4 DUP6 SUB SLT ISZERO PUSH2 0x144 JUMPI PUSH2 0x143 PUSH2 0xFC JUMP JUMPDEST JUMPDEST PUSH1 0x0 PUSH2 0x152 DUP6 DUP3 DUP7 ADD PUSH2 0x118 JUMP JUMPDEST SWAP3 POP POP PUSH1 0x20 PUSH2 0x163 DUP6 DUP3 DUP7 ADD PUSH2 0x118 JUMP JUMPDEST SWAP2 POP POP SWAP3 POP SWAP3 SWAP1 POP JUMP JUMPDEST PUSH1 0x0 PUSH20 0xFFFFFFFFFFFFFFFFFFFFFFFFFFFFFFFFFFFFFFFF DUP3 AND SWAP1 POP SWAP2 SWAP1 POP JUMP JUMPDEST PUSH1 0x0 PUSH2 0x198 DUP3 PUSH2 0x16D JUMP JUMPDEST SWAP1 POP SWAP2 SWAP1 POP JUMP JUMPDEST PUSH2 0x1A8 DUP2 PUSH2 0x18D JUMP JUMPDEST DUP3 MSTORE POP POP JUMP JUMPDEST PUSH1 0x0 PUSH1 0x20 DUP3 ADD SWAP1 POP PUSH2 0x1C3 PUSH1 0x0 DUP4 ADD DUP5 PUSH2 0x19F JUMP JUMPDEST SWAP3 SWAP2 POP POP JUMP JUMPDEST PUSH32 0x4E487B7100000000000000000000000000000000000000000000000000000000 PUSH1 0x0 MSTORE PUSH1 0x11 PUSH1 0x4 MSTORE PUSH1 0x24 PUSH1 0x0 REVERT JUMPDEST PUSH1 0x0 PUSH2 0x203 DUP3 PUSH2 0xC8 JUMP JUMPDEST SWAP2 POP PUSH2 0x20E DUP4 PUSH2 0xC8 JUMP JUMPDEST SWAP3 POP DUP3 PUSH32 0xFFFFFFFFFFFFFFFFFFFFFFFFFFFFFFFFFFFFFFFFFFFFFFFFFFFFFFFFFFFFFFFF SUB DUP3 GT ISZERO PUSH2 0x243 JUMPI PUSH2 0x242 PUSH2 0x1C9 JUMP JUMPDEST JUMPDEST DUP3 DUP3 ADD SWAP1 POP SWAP3 SWAP2 POP POP JUMP INVALID LOG2 PUSH5 0x6970667358 0x22 SLT KECCAK256 0xB9 PUSH1 0xFA BLOCKHASH MSIZE DELEGATECALL 0xB7 SWAP11 MUL 0xDB 0xCF DUP10 BASEFEE PUSH10 0xEC03A276A3CF0E4F64D9 0xB2 CALLDATALOAD RETURNDATASIZE SGT 0xD2 0xC0 XOR 0xA8 PUSH5 0x736F6C6343 STOP ADDMOD 0xF STOP CALLER "
				},
				"gasEstimates": {
					"creation": {
						"codeDepositCost": "128800",
						"executionCost": "5183",
						"totalCost": "133983"
					},
					"external": {
						"getValue(uint256,uint256)": "infinite",
						"value()": "2407"
					}
				},
				"methodIdentifiers": {
					"getValue(uint256,uint256)": "6a19e6de",
					"value()": "3fa4f245"
				}
			},
			"storageLayout": {
				"storage": [
					{
						"astId": 4,
						"contract": "event1.sol:eventExample",
						"label": "value",
						"offset": 0,
						"slot": "0",
						"type": "t_uint256"
					}
				],
				"types": {
					"t_uint256": {
						"encoding": "inplace",
						"label": "uint256",
						"numberOfBytes": "32"
					}
				}
			},
			"userdoc": {
				"kind": "user",
				"methods": {},
				"version": 1
			}
		}
	}
}