{
	"mappingg1.sol": {
		"Mapping1testing": {
			"abi": [
				{
					"inputs": [
						{
							"internalType": "uint256",
							"name": "",
							"type": "uint256"
						}
					],
					"name": "my_mobile",
					"outputs": [
						{
							"internalType": "string",
							"name": "Name",
							"type": "string"
						},
						{
							"internalType": "uint256",
							"name": "model_name",
							"type": "uint256"
						},
						{
							"internalType": "string",
							"name": "owner_name",
							"type": "string"
						},
						{
							"internalType": "string",
							"name": "color",
							"type": "string"
						}
					],
					"stateMutability": "view",
					"type": "function"
				},
				{
					"inputs": [
						{
							"internalType": "uint256",
							"name": "id",
							"type": "uint256"
						},
						{
							"internalType": "string",
							"name": "name",
							"type": "string"
						},
						{
							"internalType": "uint256",
							"name": "model_name",
							"type": "uint256"
						},
						{
							"internalType": "string",
							"name": "owner_name",
							"type": "string"
						},
						{
							"internalType": "string",
							"name": "color",
							"type": "string"
						}
					],
					"name": "set",
					"outputs": [],
					"stateMutability": "nonpayable",
					"type": "function"
				}
			],
			"devdoc": {
				"kind": "dev",
				"methods": {},
				"version": 1
			},
			"evm": {
				"assembly": "    /* \"mappingg1.sol\":65:472  contract Mapping1testing{\r... */\n  mstore(0x40, 0x80)\n  callvalue\n  dup1\n  iszero\n  tag_1\n  jumpi\n  0x00\n  dup1\n  revert\ntag_1:\n  pop\n  dataSize(sub_0)\n  dup1\n  dataOffset(sub_0)\n  0x00\n  codecopy\n  0x00\n  return\nstop\n\nsub_0: assembly {\n        /* \"mappingg1.sol\":65:472  contract Mapping1testing{\r... */\n      mstore(0x40, 0x80)\n      callvalue\n      dup1\n      iszero\n      tag_1\n      jumpi\n      0x00\n      dup1\n      revert\n    tag_1:\n      pop\n      jumpi(tag_2, lt(calldatasize, 0x04))\n      shr(0xe0, calldataload(0x00))\n      dup1\n      0x50900743\n      eq\n      tag_3\n      jumpi\n      dup1\n      0xde163383\n      eq\n      tag_4\n      jumpi\n    tag_2:\n      0x00\n      dup1\n      revert\n        /* \"mappingg1.sol\":278:469  function set(uint id, string memory name, uint256 model_name, string memory owner_name, string memory color) public {\r... */\n    tag_3:\n      tag_5\n      0x04\n      dup1\n      calldatasize\n      sub\n      dup2\n      add\n      swap1\n      tag_6\n      swap2\n      swap1\n      tag_7\n      jump\t// in\n    tag_6:\n      tag_8\n      jump\t// in\n    tag_5:\n      stop\n        /* \"mappingg1.sol\":231:271  mapping(uint => mobile) public my_mobile */\n    tag_4:\n      tag_9\n      0x04\n      dup1\n      calldatasize\n      sub\n      dup2\n      add\n      swap1\n      tag_10\n      swap2\n      swap1\n      tag_11\n      jump\t// in\n    tag_10:\n      tag_12\n      jump\t// in\n    tag_9:\n      mload(0x40)\n      tag_13\n      swap5\n      swap4\n      swap3\n      swap2\n      swap1\n      tag_14\n      jump\t// in\n    tag_13:\n      mload(0x40)\n      dup1\n      swap2\n      sub\n      swap1\n      return\n        /* \"mappingg1.sol\":278:469  function set(uint id, string memory name, uint256 model_name, string memory owner_name, string memory color) public {\r... */\n    tag_8:\n        /* \"mappingg1.sol\":421:461  mobile(name,model_name,owner_name,color) */\n      mload(0x40)\n      dup1\n      0x80\n      add\n      0x40\n      mstore\n      dup1\n        /* \"mappingg1.sol\":428:432  name */\n      dup6\n        /* \"mappingg1.sol\":421:461  mobile(name,model_name,owner_name,color) */\n      dup2\n      mstore\n      0x20\n      add\n        /* \"mappingg1.sol\":433:443  model_name */\n      dup5\n        /* \"mappingg1.sol\":421:461  mobile(name,model_name,owner_name,color) */\n      dup2\n      mstore\n      0x20\n      add\n        /* \"mappingg1.sol\":444:454  owner_name */\n      dup4\n        /* \"mappingg1.sol\":421:461  mobile(name,model_name,owner_name,color) */\n      dup2\n      mstore\n      0x20\n      add\n        /* \"mappingg1.sol\":455:460  color */\n      dup3\n        /* \"mappingg1.sol\":421:461  mobile(name,model_name,owner_name,color) */\n      dup2\n      mstore\n      pop\n        /* \"mappingg1.sol\":405:414  my_mobile */\n      0x00\n        /* \"mappingg1.sol\":405:419  my_mobile [id] */\n      dup1\n        /* \"mappingg1.sol\":416:418  id */\n      dup8\n        /* \"mappingg1.sol\":405:419  my_mobile [id] */\n      dup2\n      mstore\n      0x20\n      add\n      swap1\n      dup2\n      mstore\n      0x20\n      add\n      0x00\n      keccak256\n        /* \"mappingg1.sol\":405:461  my_mobile [id]= mobile(name,model_name,owner_name,color) */\n      0x00\n      dup3\n      add\n      mload\n      dup2\n      0x00\n      add\n      swap1\n      dup1\n      mload\n      swap1\n      0x20\n      add\n      swap1\n      tag_16\n      swap3\n      swap2\n      swap1\n      tag_17\n      jump\t// in\n    tag_16:\n      pop\n      0x20\n      dup3\n      add\n      mload\n      dup2\n      0x01\n      add\n      sstore\n      0x40\n      dup3\n      add\n      mload\n      dup2\n      0x02\n      add\n      swap1\n      dup1\n      mload\n      swap1\n      0x20\n      add\n      swap1\n      tag_18\n      swap3\n      swap2\n      swap1\n      tag_17\n      jump\t// in\n    tag_18:\n      pop\n      0x60\n      dup3\n      add\n      mload\n      dup2\n      0x03\n      add\n      swap1\n      dup1\n      mload\n      swap1\n      0x20\n      add\n      swap1\n      tag_19\n      swap3\n      swap2\n      swap1\n      tag_17\n      jump\t// in\n    tag_19:\n      pop\n      swap1\n      pop\n      pop\n        /* \"mappingg1.sol\":278:469  function set(uint id, string memory name, uint256 model_name, string memory owner_name, string memory color) public {\r... */\n      pop\n      pop\n      pop\n      pop\n      pop\n      jump\t// out\n        /* \"mappingg1.sol\":231:271  mapping(uint => mobile) public my_mobile */\n    tag_12:\n      mstore(0x20, 0x00)\n      dup1\n      0x00\n      mstore\n      keccak256(0x00, 0x40)\n      0x00\n      swap2\n      pop\n      swap1\n      pop\n      dup1\n      0x00\n      add\n      dup1\n      sload\n      tag_20\n      swap1\n      tag_21\n      jump\t// in\n    tag_20:\n      dup1\n      0x1f\n      add\n      0x20\n      dup1\n      swap2\n      div\n      mul\n      0x20\n      add\n      mload(0x40)\n      swap1\n      dup2\n      add\n      0x40\n      mstore\n      dup1\n      swap3\n      swap2\n      swap1\n      dup2\n      dup2\n      mstore\n      0x20\n      add\n      dup3\n      dup1\n      sload\n      tag_22\n      swap1\n      tag_21\n      jump\t// in\n    tag_22:\n      dup1\n      iszero\n      tag_23\n      jumpi\n      dup1\n      0x1f\n      lt\n      tag_24\n      jumpi\n      0x0100\n      dup1\n      dup4\n      sload\n      div\n      mul\n      dup4\n      mstore\n      swap2\n      0x20\n      add\n      swap2\n      jump(tag_23)\n    tag_24:\n      dup3\n      add\n      swap2\n      swap1\n      0x00\n      mstore\n      keccak256(0x00, 0x20)\n      swap1\n    tag_25:\n      dup2\n      sload\n      dup2\n      mstore\n      swap1\n      0x01\n      add\n      swap1\n      0x20\n      add\n      dup1\n      dup4\n      gt\n      tag_25\n      jumpi\n      dup3\n      swap1\n      sub\n      0x1f\n      and\n      dup3\n      add\n      swap2\n    tag_23:\n      pop\n      pop\n      pop\n      pop\n      pop\n      swap1\n      dup1\n      0x01\n      add\n      sload\n      swap1\n      dup1\n      0x02\n      add\n      dup1\n      sload\n      tag_26\n      swap1\n      tag_21\n      jump\t// in\n    tag_26:\n      dup1\n      0x1f\n      add\n      0x20\n      dup1\n      swap2\n      div\n      mul\n      0x20\n      add\n      mload(0x40)\n      swap1\n      dup2\n      add\n      0x40\n      mstore\n      dup1\n      swap3\n      swap2\n      swap1\n      dup2\n      dup2\n      mstore\n      0x20\n      add\n      dup3\n      dup1\n      sload\n      tag_27\n      swap1\n      tag_21\n      jump\t// in\n    tag_27:\n      dup1\n      iszero\n      tag_28\n      jumpi\n      dup1\n      0x1f\n      lt\n      tag_29\n      jumpi\n      0x0100\n      dup1\n      dup4\n      sload\n      div\n      mul\n      dup4\n      mstore\n      swap2\n      0x20\n      add\n      swap2\n      jump(tag_28)\n    tag_29:\n      dup3\n      add\n      swap2\n      swap1\n      0x00\n      mstore\n      keccak256(0x00, 0x20)\n      swap1\n    tag_30:\n      dup2\n      sload\n      dup2\n      mstore\n      swap1\n      0x01\n      add\n      swap1\n      0x20\n      add\n      dup1\n      dup4\n      gt\n      tag_30\n      jumpi\n      dup3\n      swap1\n      sub\n      0x1f\n      and\n      dup3\n      add\n      swap2\n    tag_28:\n      pop\n      pop\n      pop\n      pop\n      pop\n      swap1\n      dup1\n      0x03\n      add\n      dup1\n      sload\n      tag_31\n      swap1\n      tag_21\n      jump\t// in\n    tag_31:\n      dup1\n      0x1f\n      add\n      0x20\n      dup1\n      swap2\n      div\n      mul\n      0x20\n      add\n      mload(0x40)\n      swap1\n      dup2\n      add\n      0x40\n      mstore\n      dup1\n      swap3\n      swap2\n      swap1\n      dup2\n      dup2\n      mstore\n      0x20\n      add\n      dup3\n      dup1\n      sload\n      tag_32\n      swap1\n      tag_21\n      jump\t// in\n    tag_32:\n      dup1\n      iszero\n      tag_33\n      jumpi\n      dup1\n      0x1f\n      lt\n      tag_34\n      jumpi\n      0x0100\n      dup1\n      dup4\n      sload\n      div\n      mul\n      dup4\n      mstore\n      swap2\n      0x20\n      add\n      swap2\n      jump(tag_33)\n    tag_34:\n      dup3\n      add\n      swap2\n      swap1\n      0x00\n      mstore\n      keccak256(0x00, 0x20)\n      swap1\n    tag_35:\n      dup2\n      sload\n      dup2\n      mstore\n      swap1\n      0x01\n      add\n      swap1\n      0x20\n      add\n      dup1\n      dup4\n      gt\n      tag_35\n      jumpi\n      dup3\n      swap1\n      sub\n      0x1f\n      and\n      dup3\n      add\n      swap2\n    tag_33:\n      pop\n      pop\n      pop\n      pop\n      pop\n      swap1\n      pop\n      dup5\n      jump\t// out\n    tag_17:\n      dup3\n      dup1\n      sload\n      tag_36\n      swap1\n      tag_21\n      jump\t// in\n    tag_36:\n      swap1\n      0x00\n      mstore\n      keccak256(0x00, 0x20)\n      swap1\n      0x1f\n      add\n      0x20\n      swap1\n      div\n      dup2\n      add\n      swap3\n      dup3\n      tag_38\n      jumpi\n      0x00\n      dup6\n      sstore\n      jump(tag_37)\n    tag_38:\n      dup3\n      0x1f\n      lt\n      tag_39\n      jumpi\n      dup1\n      mload\n      not(0xff)\n      and\n      dup4\n      dup1\n      add\n      or\n      dup6\n      sstore\n      jump(tag_37)\n    tag_39:\n      dup3\n      dup1\n      add\n      0x01\n      add\n      dup6\n      sstore\n      dup3\n      iszero\n      tag_37\n      jumpi\n      swap2\n      dup3\n      add\n    tag_40:\n      dup3\n      dup2\n      gt\n      iszero\n      tag_41\n      jumpi\n      dup3\n      mload\n      dup3\n      sstore\n      swap2\n      0x20\n      add\n      swap2\n      swap1\n      0x01\n      add\n      swap1\n      jump(tag_40)\n    tag_41:\n    tag_37:\n      pop\n      swap1\n      pop\n      tag_42\n      swap2\n      swap1\n      tag_43\n      jump\t// in\n    tag_42:\n      pop\n      swap1\n      jump\t// out\n    tag_43:\n    tag_44:\n      dup1\n      dup3\n      gt\n      iszero\n      tag_45\n      jumpi\n      0x00\n      dup2\n      0x00\n      swap1\n      sstore\n      pop\n      0x01\n      add\n      jump(tag_44)\n    tag_45:\n      pop\n      swap1\n      jump\t// out\n        /* \"#utility.yul\":7:419   */\n    tag_47:\n        /* \"#utility.yul\":85:90   */\n      0x00\n        /* \"#utility.yul\":110:176   */\n      tag_49\n        /* \"#utility.yul\":126:175   */\n      tag_50\n        /* \"#utility.yul\":168:174   */\n      dup5\n        /* \"#utility.yul\":126:175   */\n      tag_51\n      jump\t// in\n    tag_50:\n        /* \"#utility.yul\":110:176   */\n      tag_52\n      jump\t// in\n    tag_49:\n        /* \"#utility.yul\":101:176   */\n      swap1\n      pop\n        /* \"#utility.yul\":199:205   */\n      dup3\n        /* \"#utility.yul\":192:197   */\n      dup2\n        /* \"#utility.yul\":185:206   */\n      mstore\n        /* \"#utility.yul\":237:241   */\n      0x20\n        /* \"#utility.yul\":230:235   */\n      dup2\n        /* \"#utility.yul\":226:242   */\n      add\n        /* \"#utility.yul\":275:278   */\n      dup5\n        /* \"#utility.yul\":266:272   */\n      dup5\n        /* \"#utility.yul\":261:264   */\n      dup5\n        /* \"#utility.yul\":257:273   */\n      add\n        /* \"#utility.yul\":254:279   */\n      gt\n        /* \"#utility.yul\":251:363   */\n      iszero\n      tag_53\n      jumpi\n        /* \"#utility.yul\":282:361   */\n      tag_54\n      tag_55\n      jump\t// in\n    tag_54:\n        /* \"#utility.yul\":251:363   */\n    tag_53:\n        /* \"#utility.yul\":372:413   */\n      tag_56\n        /* \"#utility.yul\":406:412   */\n      dup5\n        /* \"#utility.yul\":401:404   */\n      dup3\n        /* \"#utility.yul\":396:399   */\n      dup6\n        /* \"#utility.yul\":372:413   */\n      tag_57\n      jump\t// in\n    tag_56:\n        /* \"#utility.yul\":91:419   */\n      pop\n        /* \"#utility.yul\":7:419   */\n      swap4\n      swap3\n      pop\n      pop\n      pop\n      jump\t// out\n        /* \"#utility.yul\":439:779   */\n    tag_58:\n        /* \"#utility.yul\":495:500   */\n      0x00\n        /* \"#utility.yul\":544:547   */\n      dup3\n        /* \"#utility.yul\":537:541   */\n      0x1f\n        /* \"#utility.yul\":529:535   */\n      dup4\n        /* \"#utility.yul\":525:542   */\n      add\n        /* \"#utility.yul\":521:548   */\n      slt\n        /* \"#utility.yul\":511:633   */\n      tag_60\n      jumpi\n        /* \"#utility.yul\":552:631   */\n      tag_61\n      tag_62\n      jump\t// in\n    tag_61:\n        /* \"#utility.yul\":511:633   */\n    tag_60:\n        /* \"#utility.yul\":669:675   */\n      dup2\n        /* \"#utility.yul\":656:676   */\n      calldataload\n        /* \"#utility.yul\":694:773   */\n      tag_63\n        /* \"#utility.yul\":769:772   */\n      dup5\n        /* \"#utility.yul\":761:767   */\n      dup3\n        /* \"#utility.yul\":754:758   */\n      0x20\n        /* \"#utility.yul\":746:752   */\n      dup7\n        /* \"#utility.yul\":742:759   */\n      add\n        /* \"#utility.yul\":694:773   */\n      tag_47\n      jump\t// in\n    tag_63:\n        /* \"#utility.yul\":685:773   */\n      swap2\n      pop\n        /* \"#utility.yul\":501:779   */\n      pop\n        /* \"#utility.yul\":439:779   */\n      swap3\n      swap2\n      pop\n      pop\n      jump\t// out\n        /* \"#utility.yul\":785:924   */\n    tag_64:\n        /* \"#utility.yul\":831:836   */\n      0x00\n        /* \"#utility.yul\":869:875   */\n      dup2\n        /* \"#utility.yul\":856:876   */\n      calldataload\n        /* \"#utility.yul\":847:876   */\n      swap1\n      pop\n        /* \"#utility.yul\":885:918   */\n      tag_66\n        /* \"#utility.yul\":912:917   */\n      dup2\n        /* \"#utility.yul\":885:918   */\n      tag_67\n      jump\t// in\n    tag_66:\n        /* \"#utility.yul\":785:924   */\n      swap3\n      swap2\n      pop\n      pop\n      jump\t// out\n        /* \"#utility.yul\":930:1259   */\n    tag_11:\n        /* \"#utility.yul\":989:995   */\n      0x00\n        /* \"#utility.yul\":1038:1040   */\n      0x20\n        /* \"#utility.yul\":1026:1035   */\n      dup3\n        /* \"#utility.yul\":1017:1024   */\n      dup5\n        /* \"#utility.yul\":1013:1036   */\n      sub\n        /* \"#utility.yul\":1009:1041   */\n      slt\n        /* \"#utility.yul\":1006:1125   */\n      iszero\n      tag_69\n      jumpi\n        /* \"#utility.yul\":1044:1123   */\n      tag_70\n      tag_71\n      jump\t// in\n    tag_70:\n        /* \"#utility.yul\":1006:1125   */\n    tag_69:\n        /* \"#utility.yul\":1164:1165   */\n      0x00\n        /* \"#utility.yul\":1189:1242   */\n      tag_72\n        /* \"#utility.yul\":1234:1241   */\n      dup5\n        /* \"#utility.yul\":1225:1231   */\n      dup3\n        /* \"#utility.yul\":1214:1223   */\n      dup6\n        /* \"#utility.yul\":1210:1232   */\n      add\n        /* \"#utility.yul\":1189:1242   */\n      tag_64\n      jump\t// in\n    tag_72:\n        /* \"#utility.yul\":1179:1242   */\n      swap2\n      pop\n        /* \"#utility.yul\":1135:1252   */\n      pop\n        /* \"#utility.yul\":930:1259   */\n      swap3\n      swap2\n      pop\n      pop\n      jump\t// out\n        /* \"#utility.yul\":1265:2716   */\n    tag_7:\n        /* \"#utility.yul\":1390:1396   */\n      0x00\n        /* \"#utility.yul\":1398:1404   */\n      dup1\n        /* \"#utility.yul\":1406:1412   */\n      0x00\n        /* \"#utility.yul\":1414:1420   */\n      dup1\n        /* \"#utility.yul\":1422:1428   */\n      0x00\n        /* \"#utility.yul\":1471:1474   */\n      0xa0\n        /* \"#utility.yul\":1459:1468   */\n      dup7\n        /* \"#utility.yul\":1450:1457   */\n      dup9\n        /* \"#utility.yul\":1446:1469   */\n      sub\n        /* \"#utility.yul\":1442:1475   */\n      slt\n        /* \"#utility.yul\":1439:1559   */\n      iszero\n      tag_74\n      jumpi\n        /* \"#utility.yul\":1478:1557   */\n      tag_75\n      tag_71\n      jump\t// in\n    tag_75:\n        /* \"#utility.yul\":1439:1559   */\n    tag_74:\n        /* \"#utility.yul\":1598:1599   */\n      0x00\n        /* \"#utility.yul\":1623:1676   */\n      tag_76\n        /* \"#utility.yul\":1668:1675   */\n      dup9\n        /* \"#utility.yul\":1659:1665   */\n      dup3\n        /* \"#utility.yul\":1648:1657   */\n      dup10\n        /* \"#utility.yul\":1644:1666   */\n      add\n        /* \"#utility.yul\":1623:1676   */\n      tag_64\n      jump\t// in\n    tag_76:\n        /* \"#utility.yul\":1613:1676   */\n      swap6\n      pop\n        /* \"#utility.yul\":1569:1686   */\n      pop\n        /* \"#utility.yul\":1753:1755   */\n      0x20\n        /* \"#utility.yul\":1742:1751   */\n      dup7\n        /* \"#utility.yul\":1738:1756   */\n      add\n        /* \"#utility.yul\":1725:1757   */\n      calldataload\n        /* \"#utility.yul\":1784:1802   */\n      0xffffffffffffffff\n        /* \"#utility.yul\":1776:1782   */\n      dup2\n        /* \"#utility.yul\":1773:1803   */\n      gt\n        /* \"#utility.yul\":1770:1887   */\n      iszero\n      tag_77\n      jumpi\n        /* \"#utility.yul\":1806:1885   */\n      tag_78\n      tag_79\n      jump\t// in\n    tag_78:\n        /* \"#utility.yul\":1770:1887   */\n    tag_77:\n        /* \"#utility.yul\":1911:1974   */\n      tag_80\n        /* \"#utility.yul\":1966:1973   */\n      dup9\n        /* \"#utility.yul\":1957:1963   */\n      dup3\n        /* \"#utility.yul\":1946:1955   */\n      dup10\n        /* \"#utility.yul\":1942:1964   */\n      add\n        /* \"#utility.yul\":1911:1974   */\n      tag_58\n      jump\t// in\n    tag_80:\n        /* \"#utility.yul\":1901:1974   */\n      swap5\n      pop\n        /* \"#utility.yul\":1696:1984   */\n      pop\n        /* \"#utility.yul\":2023:2025   */\n      0x40\n        /* \"#utility.yul\":2049:2102   */\n      tag_81\n        /* \"#utility.yul\":2094:2101   */\n      dup9\n        /* \"#utility.yul\":2085:2091   */\n      dup3\n        /* \"#utility.yul\":2074:2083   */\n      dup10\n        /* \"#utility.yul\":2070:2092   */\n      add\n        /* \"#utility.yul\":2049:2102   */\n      tag_64\n      jump\t// in\n    tag_81:\n        /* \"#utility.yul\":2039:2102   */\n      swap4\n      pop\n        /* \"#utility.yul\":1994:2112   */\n      pop\n        /* \"#utility.yul\":2179:2181   */\n      0x60\n        /* \"#utility.yul\":2168:2177   */\n      dup7\n        /* \"#utility.yul\":2164:2182   */\n      add\n        /* \"#utility.yul\":2151:2183   */\n      calldataload\n        /* \"#utility.yul\":2210:2228   */\n      0xffffffffffffffff\n        /* \"#utility.yul\":2202:2208   */\n      dup2\n        /* \"#utility.yul\":2199:2229   */\n      gt\n        /* \"#utility.yul\":2196:2313   */\n      iszero\n      tag_82\n      jumpi\n        /* \"#utility.yul\":2232:2311   */\n      tag_83\n      tag_79\n      jump\t// in\n    tag_83:\n        /* \"#utility.yul\":2196:2313   */\n    tag_82:\n        /* \"#utility.yul\":2337:2400   */\n      tag_84\n        /* \"#utility.yul\":2392:2399   */\n      dup9\n        /* \"#utility.yul\":2383:2389   */\n      dup3\n        /* \"#utility.yul\":2372:2381   */\n      dup10\n        /* \"#utility.yul\":2368:2390   */\n      add\n        /* \"#utility.yul\":2337:2400   */\n      tag_58\n      jump\t// in\n    tag_84:\n        /* \"#utility.yul\":2327:2400   */\n      swap3\n      pop\n        /* \"#utility.yul\":2122:2410   */\n      pop\n        /* \"#utility.yul\":2477:2480   */\n      0x80\n        /* \"#utility.yul\":2466:2475   */\n      dup7\n        /* \"#utility.yul\":2462:2481   */\n      add\n        /* \"#utility.yul\":2449:2482   */\n      calldataload\n        /* \"#utility.yul\":2509:2527   */\n      0xffffffffffffffff\n        /* \"#utility.yul\":2501:2507   */\n      dup2\n        /* \"#utility.yul\":2498:2528   */\n      gt\n        /* \"#utility.yul\":2495:2612   */\n      iszero\n      tag_85\n      jumpi\n        /* \"#utility.yul\":2531:2610   */\n      tag_86\n      tag_79\n      jump\t// in\n    tag_86:\n        /* \"#utility.yul\":2495:2612   */\n    tag_85:\n        /* \"#utility.yul\":2636:2699   */\n      tag_87\n        /* \"#utility.yul\":2691:2698   */\n      dup9\n        /* \"#utility.yul\":2682:2688   */\n      dup3\n        /* \"#utility.yul\":2671:2680   */\n      dup10\n        /* \"#utility.yul\":2667:2689   */\n      add\n        /* \"#utility.yul\":2636:2699   */\n      tag_58\n      jump\t// in\n    tag_87:\n        /* \"#utility.yul\":2626:2699   */\n      swap2\n      pop\n        /* \"#utility.yul\":2420:2709   */\n      pop\n        /* \"#utility.yul\":1265:2716   */\n      swap3\n      swap6\n      pop\n      swap3\n      swap6\n      swap1\n      swap4\n      pop\n      jump\t// out\n        /* \"#utility.yul\":2722:3086   */\n    tag_88:\n        /* \"#utility.yul\":2810:2813   */\n      0x00\n        /* \"#utility.yul\":2838:2877   */\n      tag_90\n        /* \"#utility.yul\":2871:2876   */\n      dup3\n        /* \"#utility.yul\":2838:2877   */\n      tag_91\n      jump\t// in\n    tag_90:\n        /* \"#utility.yul\":2893:2964   */\n      tag_92\n        /* \"#utility.yul\":2957:2963   */\n      dup2\n        /* \"#utility.yul\":2952:2955   */\n      dup6\n        /* \"#utility.yul\":2893:2964   */\n      tag_93\n      jump\t// in\n    tag_92:\n        /* \"#utility.yul\":2886:2964   */\n      swap4\n      pop\n        /* \"#utility.yul\":2973:3025   */\n      tag_94\n        /* \"#utility.yul\":3018:3024   */\n      dup2\n        /* \"#utility.yul\":3013:3016   */\n      dup6\n        /* \"#utility.yul\":3006:3010   */\n      0x20\n        /* \"#utility.yul\":2999:3004   */\n      dup7\n        /* \"#utility.yul\":2995:3011   */\n      add\n        /* \"#utility.yul\":2973:3025   */\n      tag_95\n      jump\t// in\n    tag_94:\n        /* \"#utility.yul\":3050:3079   */\n      tag_96\n        /* \"#utility.yul\":3072:3078   */\n      dup2\n        /* \"#utility.yul\":3050:3079   */\n      tag_97\n      jump\t// in\n    tag_96:\n        /* \"#utility.yul\":3045:3048   */\n      dup5\n        /* \"#utility.yul\":3041:3080   */\n      add\n        /* \"#utility.yul\":3034:3080   */\n      swap2\n      pop\n        /* \"#utility.yul\":2814:3086   */\n      pop\n        /* \"#utility.yul\":2722:3086   */\n      swap3\n      swap2\n      pop\n      pop\n      jump\t// out\n        /* \"#utility.yul\":3092:3210   */\n    tag_98:\n        /* \"#utility.yul\":3179:3203   */\n      tag_100\n        /* \"#utility.yul\":3197:3202   */\n      dup2\n        /* \"#utility.yul\":3179:3203   */\n      tag_101\n      jump\t// in\n    tag_100:\n        /* \"#utility.yul\":3174:3177   */\n      dup3\n        /* \"#utility.yul\":3167:3204   */\n      mstore\n        /* \"#utility.yul\":3092:3210   */\n      pop\n      pop\n      jump\t// out\n        /* \"#utility.yul\":3216:4042   */\n    tag_14:\n        /* \"#utility.yul\":3453:3457   */\n      0x00\n        /* \"#utility.yul\":3491:3494   */\n      0x80\n        /* \"#utility.yul\":3480:3489   */\n      dup3\n        /* \"#utility.yul\":3476:3495   */\n      add\n        /* \"#utility.yul\":3468:3495   */\n      swap1\n      pop\n        /* \"#utility.yul\":3541:3550   */\n      dup2\n        /* \"#utility.yul\":3535:3539   */\n      dup2\n        /* \"#utility.yul\":3531:3551   */\n      sub\n        /* \"#utility.yul\":3527:3528   */\n      0x00\n        /* \"#utility.yul\":3516:3525   */\n      dup4\n        /* \"#utility.yul\":3512:3529   */\n      add\n        /* \"#utility.yul\":3505:3552   */\n      mstore\n        /* \"#utility.yul\":3569:3647   */\n      tag_103\n        /* \"#utility.yul\":3642:3646   */\n      dup2\n        /* \"#utility.yul\":3633:3639   */\n      dup8\n        /* \"#utility.yul\":3569:3647   */\n      tag_88\n      jump\t// in\n    tag_103:\n        /* \"#utility.yul\":3561:3647   */\n      swap1\n      pop\n        /* \"#utility.yul\":3657:3729   */\n      tag_104\n        /* \"#utility.yul\":3725:3727   */\n      0x20\n        /* \"#utility.yul\":3714:3723   */\n      dup4\n        /* \"#utility.yul\":3710:3728   */\n      add\n        /* \"#utility.yul\":3701:3707   */\n      dup7\n        /* \"#utility.yul\":3657:3729   */\n      tag_98\n      jump\t// in\n    tag_104:\n        /* \"#utility.yul\":3776:3785   */\n      dup2\n        /* \"#utility.yul\":3770:3774   */\n      dup2\n        /* \"#utility.yul\":3766:3786   */\n      sub\n        /* \"#utility.yul\":3761:3763   */\n      0x40\n        /* \"#utility.yul\":3750:3759   */\n      dup4\n        /* \"#utility.yul\":3746:3764   */\n      add\n        /* \"#utility.yul\":3739:3787   */\n      mstore\n        /* \"#utility.yul\":3804:3882   */\n      tag_105\n        /* \"#utility.yul\":3877:3881   */\n      dup2\n        /* \"#utility.yul\":3868:3874   */\n      dup6\n        /* \"#utility.yul\":3804:3882   */\n      tag_88\n      jump\t// in\n    tag_105:\n        /* \"#utility.yul\":3796:3882   */\n      swap1\n      pop\n        /* \"#utility.yul\":3929:3938   */\n      dup2\n        /* \"#utility.yul\":3923:3927   */\n      dup2\n        /* \"#utility.yul\":3919:3939   */\n      sub\n        /* \"#utility.yul\":3914:3916   */\n      0x60\n        /* \"#utility.yul\":3903:3912   */\n      dup4\n        /* \"#utility.yul\":3899:3917   */\n      add\n        /* \"#utility.yul\":3892:3940   */\n      mstore\n        /* \"#utility.yul\":3957:4035   */\n      tag_106\n        /* \"#utility.yul\":4030:4034   */\n      dup2\n        /* \"#utility.yul\":4021:4027   */\n      dup5\n        /* \"#utility.yul\":3957:4035   */\n      tag_88\n      jump\t// in\n    tag_106:\n        /* \"#utility.yul\":3949:4035   */\n      swap1\n      pop\n        /* \"#utility.yul\":3216:4042   */\n      swap6\n      swap5\n      pop\n      pop\n      pop\n      pop\n      pop\n      jump\t// out\n        /* \"#utility.yul\":4048:4177   */\n    tag_52:\n        /* \"#utility.yul\":4082:4088   */\n      0x00\n        /* \"#utility.yul\":4109:4129   */\n      tag_108\n      tag_109\n      jump\t// in\n    tag_108:\n        /* \"#utility.yul\":4099:4129   */\n      swap1\n      pop\n        /* \"#utility.yul\":4138:4171   */\n      tag_110\n        /* \"#utility.yul\":4166:4170   */\n      dup3\n        /* \"#utility.yul\":4158:4164   */\n      dup3\n        /* \"#utility.yul\":4138:4171   */\n      tag_111\n      jump\t// in\n    tag_110:\n        /* \"#utility.yul\":4048:4177   */\n      swap2\n      swap1\n      pop\n      jump\t// out\n        /* \"#utility.yul\":4183:4258   */\n    tag_109:\n        /* \"#utility.yul\":4216:4222   */\n      0x00\n        /* \"#utility.yul\":4249:4251   */\n      0x40\n        /* \"#utility.yul\":4243:4252   */\n      mload\n        /* \"#utility.yul\":4233:4252   */\n      swap1\n      pop\n        /* \"#utility.yul\":4183:4258   */\n      swap1\n      jump\t// out\n        /* \"#utility.yul\":4264:4572   */\n    tag_51:\n        /* \"#utility.yul\":4326:4330   */\n      0x00\n        /* \"#utility.yul\":4416:4434   */\n      0xffffffffffffffff\n        /* \"#utility.yul\":4408:4414   */\n      dup3\n        /* \"#utility.yul\":4405:4435   */\n      gt\n        /* \"#utility.yul\":4402:4458   */\n      iszero\n      tag_114\n      jumpi\n        /* \"#utility.yul\":4438:4456   */\n      tag_115\n      tag_116\n      jump\t// in\n    tag_115:\n        /* \"#utility.yul\":4402:4458   */\n    tag_114:\n        /* \"#utility.yul\":4476:4505   */\n      tag_117\n        /* \"#utility.yul\":4498:4504   */\n      dup3\n        /* \"#utility.yul\":4476:4505   */\n      tag_97\n      jump\t// in\n    tag_117:\n        /* \"#utility.yul\":4468:4505   */\n      swap1\n      pop\n        /* \"#utility.yul\":4560:4564   */\n      0x20\n        /* \"#utility.yul\":4554:4558   */\n      dup2\n        /* \"#utility.yul\":4550:4565   */\n      add\n        /* \"#utility.yul\":4542:4565   */\n      swap1\n      pop\n        /* \"#utility.yul\":4264:4572   */\n      swap2\n      swap1\n      pop\n      jump\t// out\n        /* \"#utility.yul\":4578:4677   */\n    tag_91:\n        /* \"#utility.yul\":4630:4636   */\n      0x00\n        /* \"#utility.yul\":4664:4669   */\n      dup2\n        /* \"#utility.yul\":4658:4670   */\n      mload\n        /* \"#utility.yul\":4648:4670   */\n      swap1\n      pop\n        /* \"#utility.yul\":4578:4677   */\n      swap2\n      swap1\n      pop\n      jump\t// out\n        /* \"#utility.yul\":4683:4852   */\n    tag_93:\n        /* \"#utility.yul\":4767:4778   */\n      0x00\n        /* \"#utility.yul\":4801:4807   */\n      dup3\n        /* \"#utility.yul\":4796:4799   */\n      dup3\n        /* \"#utility.yul\":4789:4808   */\n      mstore\n        /* \"#utility.yul\":4841:4845   */\n      0x20\n        /* \"#utility.yul\":4836:4839   */\n      dup3\n        /* \"#utility.yul\":4832:4846   */\n      add\n        /* \"#utility.yul\":4817:4846   */\n      swap1\n      pop\n        /* \"#utility.yul\":4683:4852   */\n      swap3\n      swap2\n      pop\n      pop\n      jump\t// out\n        /* \"#utility.yul\":4858:4935   */\n    tag_101:\n        /* \"#utility.yul\":4895:4902   */\n      0x00\n        /* \"#utility.yul\":4924:4929   */\n      dup2\n        /* \"#utility.yul\":4913:4929   */\n      swap1\n      pop\n        /* \"#utility.yul\":4858:4935   */\n      swap2\n      swap1\n      pop\n      jump\t// out\n        /* \"#utility.yul\":4941:5095   */\n    tag_57:\n        /* \"#utility.yul\":5025:5031   */\n      dup3\n        /* \"#utility.yul\":5020:5023   */\n      dup2\n        /* \"#utility.yul\":5015:5018   */\n      dup4\n        /* \"#utility.yul\":5002:5032   */\n      calldatacopy\n        /* \"#utility.yul\":5087:5088   */\n      0x00\n        /* \"#utility.yul\":5078:5084   */\n      dup4\n        /* \"#utility.yul\":5073:5076   */\n      dup4\n        /* \"#utility.yul\":5069:5085   */\n      add\n        /* \"#utility.yul\":5062:5089   */\n      mstore\n        /* \"#utility.yul\":4941:5095   */\n      pop\n      pop\n      pop\n      jump\t// out\n        /* \"#utility.yul\":5101:5408   */\n    tag_95:\n        /* \"#utility.yul\":5169:5170   */\n      0x00\n        /* \"#utility.yul\":5179:5292   */\n    tag_123:\n        /* \"#utility.yul\":5193:5199   */\n      dup4\n        /* \"#utility.yul\":5190:5191   */\n      dup2\n        /* \"#utility.yul\":5187:5200   */\n      lt\n        /* \"#utility.yul\":5179:5292   */\n      iszero\n      tag_125\n      jumpi\n        /* \"#utility.yul\":5278:5279   */\n      dup1\n        /* \"#utility.yul\":5273:5276   */\n      dup3\n        /* \"#utility.yul\":5269:5280   */\n      add\n        /* \"#utility.yul\":5263:5281   */\n      mload\n        /* \"#utility.yul\":5259:5260   */\n      dup2\n        /* \"#utility.yul\":5254:5257   */\n      dup5\n        /* \"#utility.yul\":5250:5261   */\n      add\n        /* \"#utility.yul\":5243:5282   */\n      mstore\n        /* \"#utility.yul\":5215:5217   */\n      0x20\n        /* \"#utility.yul\":5212:5213   */\n      dup2\n        /* \"#utility.yul\":5208:5218   */\n      add\n        /* \"#utility.yul\":5203:5218   */\n      swap1\n      pop\n        /* \"#utility.yul\":5179:5292   */\n      jump(tag_123)\n    tag_125:\n        /* \"#utility.yul\":5310:5316   */\n      dup4\n        /* \"#utility.yul\":5307:5308   */\n      dup2\n        /* \"#utility.yul\":5304:5317   */\n      gt\n        /* \"#utility.yul\":5301:5402   */\n      iszero\n      tag_126\n      jumpi\n        /* \"#utility.yul\":5390:5391   */\n      0x00\n        /* \"#utility.yul\":5381:5387   */\n      dup5\n        /* \"#utility.yul\":5376:5379   */\n      dup5\n        /* \"#utility.yul\":5372:5388   */\n      add\n        /* \"#utility.yul\":5365:5392   */\n      mstore\n        /* \"#utility.yul\":5301:5402   */\n    tag_126:\n        /* \"#utility.yul\":5150:5408   */\n      pop\n        /* \"#utility.yul\":5101:5408   */\n      pop\n      pop\n      pop\n      jump\t// out\n        /* \"#utility.yul\":5414:5734   */\n    tag_21:\n        /* \"#utility.yul\":5458:5464   */\n      0x00\n        /* \"#utility.yul\":5495:5496   */\n      0x02\n        /* \"#utility.yul\":5489:5493   */\n      dup3\n        /* \"#utility.yul\":5485:5497   */\n      div\n        /* \"#utility.yul\":5475:5497   */\n      swap1\n      pop\n        /* \"#utility.yul\":5542:5543   */\n      0x01\n        /* \"#utility.yul\":5536:5540   */\n      dup3\n        /* \"#utility.yul\":5532:5544   */\n      and\n        /* \"#utility.yul\":5563:5581   */\n      dup1\n        /* \"#utility.yul\":5553:5634   */\n      tag_128\n      jumpi\n        /* \"#utility.yul\":5619:5623   */\n      0x7f\n        /* \"#utility.yul\":5611:5617   */\n      dup3\n        /* \"#utility.yul\":5607:5624   */\n      and\n        /* \"#utility.yul\":5597:5624   */\n      swap2\n      pop\n        /* \"#utility.yul\":5553:5634   */\n    tag_128:\n        /* \"#utility.yul\":5681:5683   */\n      0x20\n        /* \"#utility.yul\":5673:5679   */\n      dup3\n        /* \"#utility.yul\":5670:5684   */\n      lt\n        /* \"#utility.yul\":5650:5668   */\n      dup2\n        /* \"#utility.yul\":5647:5685   */\n      eq\n        /* \"#utility.yul\":5644:5728   */\n      iszero\n      tag_129\n      jumpi\n        /* \"#utility.yul\":5700:5718   */\n      tag_130\n      tag_131\n      jump\t// in\n    tag_130:\n        /* \"#utility.yul\":5644:5728   */\n    tag_129:\n        /* \"#utility.yul\":5465:5734   */\n      pop\n        /* \"#utility.yul\":5414:5734   */\n      swap2\n      swap1\n      pop\n      jump\t// out\n        /* \"#utility.yul\":5740:6021   */\n    tag_111:\n        /* \"#utility.yul\":5823:5850   */\n      tag_133\n        /* \"#utility.yul\":5845:5849   */\n      dup3\n        /* \"#utility.yul\":5823:5850   */\n      tag_97\n      jump\t// in\n    tag_133:\n        /* \"#utility.yul\":5815:5821   */\n      dup2\n        /* \"#utility.yul\":5811:5851   */\n      add\n        /* \"#utility.yul\":5953:5959   */\n      dup2\n        /* \"#utility.yul\":5941:5951   */\n      dup2\n        /* \"#utility.yul\":5938:5960   */\n      lt\n        /* \"#utility.yul\":5917:5935   */\n      0xffffffffffffffff\n        /* \"#utility.yul\":5905:5915   */\n      dup3\n        /* \"#utility.yul\":5902:5936   */\n      gt\n        /* \"#utility.yul\":5899:5961   */\n      or\n        /* \"#utility.yul\":5896:5984   */\n      iszero\n      tag_134\n      jumpi\n        /* \"#utility.yul\":5964:5982   */\n      tag_135\n      tag_116\n      jump\t// in\n    tag_135:\n        /* \"#utility.yul\":5896:5984   */\n    tag_134:\n        /* \"#utility.yul\":6004:6014   */\n      dup1\n        /* \"#utility.yul\":6000:6002   */\n      0x40\n        /* \"#utility.yul\":5993:6015   */\n      mstore\n        /* \"#utility.yul\":5783:6021   */\n      pop\n        /* \"#utility.yul\":5740:6021   */\n      pop\n      pop\n      jump\t// out\n        /* \"#utility.yul\":6027:6207   */\n    tag_131:\n        /* \"#utility.yul\":6075:6152   */\n      0x4e487b7100000000000000000000000000000000000000000000000000000000\n        /* \"#utility.yul\":6072:6073   */\n      0x00\n        /* \"#utility.yul\":6065:6153   */\n      mstore\n        /* \"#utility.yul\":6172:6176   */\n      0x22\n        /* \"#utility.yul\":6169:6170   */\n      0x04\n        /* \"#utility.yul\":6162:6177   */\n      mstore\n        /* \"#utility.yul\":6196:6200   */\n      0x24\n        /* \"#utility.yul\":6193:6194   */\n      0x00\n        /* \"#utility.yul\":6186:6201   */\n      revert\n        /* \"#utility.yul\":6213:6393   */\n    tag_116:\n        /* \"#utility.yul\":6261:6338   */\n      0x4e487b7100000000000000000000000000000000000000000000000000000000\n        /* \"#utility.yul\":6258:6259   */\n      0x00\n        /* \"#utility.yul\":6251:6339   */\n      mstore\n        /* \"#utility.yul\":6358:6362   */\n      0x41\n        /* \"#utility.yul\":6355:6356   */\n      0x04\n        /* \"#utility.yul\":6348:6363   */\n      mstore\n        /* \"#utility.yul\":6382:6386   */\n      0x24\n        /* \"#utility.yul\":6379:6380   */\n      0x00\n        /* \"#utility.yul\":6372:6387   */\n      revert\n        /* \"#utility.yul\":6399:6516   */\n    tag_62:\n        /* \"#utility.yul\":6508:6509   */\n      0x00\n        /* \"#utility.yul\":6505:6506   */\n      dup1\n        /* \"#utility.yul\":6498:6510   */\n      revert\n        /* \"#utility.yul\":6522:6639   */\n    tag_55:\n        /* \"#utility.yul\":6631:6632   */\n      0x00\n        /* \"#utility.yul\":6628:6629   */\n      dup1\n        /* \"#utility.yul\":6621:6633   */\n      revert\n        /* \"#utility.yul\":6645:6762   */\n    tag_79:\n        /* \"#utility.yul\":6754:6755   */\n      0x00\n        /* \"#utility.yul\":6751:6752   */\n      dup1\n        /* \"#utility.yul\":6744:6756   */\n      revert\n        /* \"#utility.yul\":6768:6885   */\n    tag_71:\n        /* \"#utility.yul\":6877:6878   */\n      0x00\n        /* \"#utility.yul\":6874:6875   */\n      dup1\n        /* \"#utility.yul\":6867:6879   */\n      revert\n        /* \"#utility.yul\":6891:6993   */\n    tag_97:\n        /* \"#utility.yul\":6932:6938   */\n      0x00\n        /* \"#utility.yul\":6983:6985   */\n      0x1f\n        /* \"#utility.yul\":6979:6986   */\n      not\n        /* \"#utility.yul\":6974:6976   */\n      0x1f\n        /* \"#utility.yul\":6967:6972   */\n      dup4\n        /* \"#utility.yul\":6963:6977   */\n      add\n        /* \"#utility.yul\":6959:6987   */\n      and\n        /* \"#utility.yul\":6949:6987   */\n      swap1\n      pop\n        /* \"#utility.yul\":6891:6993   */\n      swap2\n      swap1\n      pop\n      jump\t// out\n        /* \"#utility.yul\":6999:7121   */\n    tag_67:\n        /* \"#utility.yul\":7072:7096   */\n      tag_144\n        /* \"#utility.yul\":7090:7095   */\n      dup2\n        /* \"#utility.yul\":7072:7096   */\n      tag_101\n      jump\t// in\n    tag_144:\n        /* \"#utility.yul\":7065:7070   */\n      dup2\n        /* \"#utility.yul\":7062:7097   */\n      eq\n        /* \"#utility.yul\":7052:7115   */\n      tag_145\n      jumpi\n        /* \"#utility.yul\":7111:7112   */\n      0x00\n        /* \"#utility.yul\":7108:7109   */\n      dup1\n        /* \"#utility.yul\":7101:7113   */\n      revert\n        /* \"#utility.yul\":7052:7115   */\n    tag_145:\n        /* \"#utility.yul\":6999:7121   */\n      pop\n      jump\t// out\n\n    auxdata: 0xa2646970667358221220fb5238dc4700681154d5aad074a6d130cd8719b13819d52cf5e517240b09f8e864736f6c63430008070033\n}\n",
				"bytecode": {
					"linkReferences": {},
					"object": "608060405234801561001057600080fd5b506107a7806100206000396000f3fe608060405234801561001057600080fd5b50600436106100365760003560e01c8063509007431461003b578063de16338314610057575b600080fd5b61005560048036038101906100509190610445565b61008a565b005b610071600480360381019061006c9190610418565b610128565b604051610081949392919061055c565b60405180910390f35b60405180608001604052808581526020018481526020018381526020018281525060008087815260200190815260200160002060008201518160000190805190602001906100d99291906102f0565b506020820151816001015560408201518160020190805190602001906101009291906102f0565b50606082015181600301908051906020019061011d9291906102f0565b509050505050505050565b600060205280600052604060002060009150905080600001805461014b90610674565b80601f016020809104026020016040519081016040528092919081815260200182805461017790610674565b80156101c45780601f10610199576101008083540402835291602001916101c4565b820191906000526020600020905b8154815290600101906020018083116101a757829003601f168201915b5050505050908060010154908060020180546101df90610674565b80601f016020809104026020016040519081016040528092919081815260200182805461020b90610674565b80156102585780601f1061022d57610100808354040283529160200191610258565b820191906000526020600020905b81548152906001019060200180831161023b57829003601f168201915b50505050509080600301805461026d90610674565b80601f016020809104026020016040519081016040528092919081815260200182805461029990610674565b80156102e65780601f106102bb576101008083540402835291602001916102e6565b820191906000526020600020905b8154815290600101906020018083116102c957829003601f168201915b5050505050905084565b8280546102fc90610674565b90600052602060002090601f01602090048101928261031e5760008555610365565b82601f1061033757805160ff1916838001178555610365565b82800160010185558215610365579182015b82811115610364578251825591602001919060010190610349565b5b5090506103729190610376565b5090565b5b8082111561038f576000816000905550600101610377565b5090565b60006103a66103a1846105db565b6105b6565b9050828152602081018484840111156103c2576103c161073a565b5b6103cd848285610632565b509392505050565b600082601f8301126103ea576103e9610735565b5b81356103fa848260208601610393565b91505092915050565b6000813590506104128161075a565b92915050565b60006020828403121561042e5761042d610744565b5b600061043c84828501610403565b91505092915050565b600080600080600060a0868803121561046157610460610744565b5b600061046f88828901610403565b955050602086013567ffffffffffffffff8111156104905761048f61073f565b5b61049c888289016103d5565b94505060406104ad88828901610403565b935050606086013567ffffffffffffffff8111156104ce576104cd61073f565b5b6104da888289016103d5565b925050608086013567ffffffffffffffff8111156104fb576104fa61073f565b5b610507888289016103d5565b9150509295509295909350565b600061051f8261060c565b6105298185610617565b9350610539818560208601610641565b61054281610749565b840191505092915050565b61055681610628565b82525050565b600060808201905081810360008301526105768187610514565b9050610585602083018661054d565b81810360408301526105978185610514565b905081810360608301526105ab8184610514565b905095945050505050565b60006105c06105d1565b90506105cc82826106a6565b919050565b6000604051905090565b600067ffffffffffffffff8211156105f6576105f5610706565b5b6105ff82610749565b9050602081019050919050565b600081519050919050565b600082825260208201905092915050565b6000819050919050565b82818337600083830152505050565b60005b8381101561065f578082015181840152602081019050610644565b8381111561066e576000848401525b50505050565b6000600282049050600182168061068c57607f821691505b602082108114156106a05761069f6106d7565b5b50919050565b6106af82610749565b810181811067ffffffffffffffff821117156106ce576106cd610706565b5b80604052505050565b7f4e487b7100000000000000000000000000000000000000000000000000000000600052602260045260246000fd5b7f4e487b7100000000000000000000000000000000000000000000000000000000600052604160045260246000fd5b600080fd5b600080fd5b600080fd5b600080fd5b6000601f19601f8301169050919050565b61076381610628565b811461076e57600080fd5b5056fea2646970667358221220fb5238dc4700681154d5aad074a6d130cd8719b13819d52cf5e517240b09f8e864736f6c63430008070033",
					"opcodes": "PUSH1 0x80 PUSH1 0x40 MSTORE CALLVALUE DUP1 ISZERO PUSH2 0x10 JUMPI PUSH1 0x0 DUP1 REVERT JUMPDEST POP PUSH2 0x7A7 DUP1 PUSH2 0x20 PUSH1 0x0 CODECOPY PUSH1 0x0 RETURN INVALID PUSH1 0x80 PUSH1 0x40 MSTORE CALLVALUE DUP1 ISZERO PUSH2 0x10 JUMPI PUSH1 0x0 DUP1 REVERT JUMPDEST POP PUSH1 0x4 CALLDATASIZE LT PUSH2 0x36 JUMPI PUSH1 0x0 CALLDATALOAD PUSH1 0xE0 SHR DUP1 PUSH4 0x50900743 EQ PUSH2 0x3B JUMPI DUP1 PUSH4 0xDE163383 EQ PUSH2 0x57 JUMPI JUMPDEST PUSH1 0x0 DUP1 REVERT JUMPDEST PUSH2 0x55 PUSH1 0x4 DUP1 CALLDATASIZE SUB DUP2 ADD SWAP1 PUSH2 0x50 SWAP2 SWAP1 PUSH2 0x445 JUMP JUMPDEST PUSH2 0x8A JUMP JUMPDEST STOP JUMPDEST PUSH2 0x71 PUSH1 0x4 DUP1 CALLDATASIZE SUB DUP2 ADD SWAP1 PUSH2 0x6C SWAP2 SWAP1 PUSH2 0x418 JUMP JUMPDEST PUSH2 0x128 JUMP JUMPDEST PUSH1 0x40 MLOAD PUSH2 0x81 SWAP5 SWAP4 SWAP3 SWAP2 SWAP1 PUSH2 0x55C JUMP JUMPDEST PUSH1 0x40 MLOAD DUP1 SWAP2 SUB SWAP1 RETURN JUMPDEST PUSH1 0x40 MLOAD DUP1 PUSH1 0x80 ADD PUSH1 0x40 MSTORE DUP1 DUP6 DUP2 MSTORE PUSH1 0x20 ADD DUP5 DUP2 MSTORE PUSH1 0x20 ADD DUP4 DUP2 MSTORE PUSH1 0x20 ADD DUP3 DUP2 MSTORE POP PUSH1 0x0 DUP1 DUP8 DUP2 MSTORE PUSH1 0x20 ADD SWAP1 DUP2 MSTORE PUSH1 0x20 ADD PUSH1 0x0 KECCAK256 PUSH1 0x0 DUP3 ADD MLOAD DUP2 PUSH1 0x0 ADD SWAP1 DUP1 MLOAD SWAP1 PUSH1 0x20 ADD SWAP1 PUSH2 0xD9 SWAP3 SWAP2 SWAP1 PUSH2 0x2F0 JUMP JUMPDEST POP PUSH1 0x20 DUP3 ADD MLOAD DUP2 PUSH1 0x1 ADD SSTORE PUSH1 0x40 DUP3 ADD MLOAD DUP2 PUSH1 0x2 ADD SWAP1 DUP1 MLOAD SWAP1 PUSH1 0x20 ADD SWAP1 PUSH2 0x100 SWAP3 SWAP2 SWAP1 PUSH2 0x2F0 JUMP JUMPDEST POP PUSH1 0x60 DUP3 ADD MLOAD DUP2 PUSH1 0x3 ADD SWAP1 DUP1 MLOAD SWAP1 PUSH1 0x20 ADD SWAP1 PUSH2 0x11D SWAP3 SWAP2 SWAP1 PUSH2 0x2F0 JUMP JUMPDEST POP SWAP1 POP POP POP POP POP POP POP JUMP JUMPDEST PUSH1 0x0 PUSH1 0x20 MSTORE DUP1 PUSH1 0x0 MSTORE PUSH1 0x40 PUSH1 0x0 KECCAK256 PUSH1 0x0 SWAP2 POP SWAP1 POP DUP1 PUSH1 0x0 ADD DUP1 SLOAD PUSH2 0x14B SWAP1 PUSH2 0x674 JUMP JUMPDEST DUP1 PUSH1 0x1F ADD PUSH1 0x20 DUP1 SWAP2 DIV MUL PUSH1 0x20 ADD PUSH1 0x40 MLOAD SWAP1 DUP2 ADD PUSH1 0x40 MSTORE DUP1 SWAP3 SWAP2 SWAP1 DUP2 DUP2 MSTORE PUSH1 0x20 ADD DUP3 DUP1 SLOAD PUSH2 0x177 SWAP1 PUSH2 0x674 JUMP JUMPDEST DUP1 ISZERO PUSH2 0x1C4 JUMPI DUP1 PUSH1 0x1F LT PUSH2 0x199 JUMPI PUSH2 0x100 DUP1 DUP4 SLOAD DIV MUL DUP4 MSTORE SWAP2 PUSH1 0x20 ADD SWAP2 PUSH2 0x1C4 JUMP JUMPDEST DUP3 ADD SWAP2 SWAP1 PUSH1 0x0 MSTORE PUSH1 0x20 PUSH1 0x0 KECCAK256 SWAP1 JUMPDEST DUP2 SLOAD DUP2 MSTORE SWAP1 PUSH1 0x1 ADD SWAP1 PUSH1 0x20 ADD DUP1 DUP4 GT PUSH2 0x1A7 JUMPI DUP3 SWAP1 SUB PUSH1 0x1F AND DUP3 ADD SWAP2 JUMPDEST POP POP POP POP POP SWAP1 DUP1 PUSH1 0x1 ADD SLOAD SWAP1 DUP1 PUSH1 0x2 ADD DUP1 SLOAD PUSH2 0x1DF SWAP1 PUSH2 0x674 JUMP JUMPDEST DUP1 PUSH1 0x1F ADD PUSH1 0x20 DUP1 SWAP2 DIV MUL PUSH1 0x20 ADD PUSH1 0x40 MLOAD SWAP1 DUP2 ADD PUSH1 0x40 MSTORE DUP1 SWAP3 SWAP2 SWAP1 DUP2 DUP2 MSTORE PUSH1 0x20 ADD DUP3 DUP1 SLOAD PUSH2 0x20B SWAP1 PUSH2 0x674 JUMP JUMPDEST DUP1 ISZERO PUSH2 0x258 JUMPI DUP1 PUSH1 0x1F LT PUSH2 0x22D JUMPI PUSH2 0x100 DUP1 DUP4 SLOAD DIV MUL DUP4 MSTORE SWAP2 PUSH1 0x20 ADD SWAP2 PUSH2 0x258 JUMP JUMPDEST DUP3 ADD SWAP2 SWAP1 PUSH1 0x0 MSTORE PUSH1 0x20 PUSH1 0x0 KECCAK256 SWAP1 JUMPDEST DUP2 SLOAD DUP2 MSTORE SWAP1 PUSH1 0x1 ADD SWAP1 PUSH1 0x20 ADD DUP1 DUP4 GT PUSH2 0x23B JUMPI DUP3 SWAP1 SUB PUSH1 0x1F AND DUP3 ADD SWAP2 JUMPDEST POP POP POP POP POP SWAP1 DUP1 PUSH1 0x3 ADD DUP1 SLOAD PUSH2 0x26D SWAP1 PUSH2 0x674 JUMP JUMPDEST DUP1 PUSH1 0x1F ADD PUSH1 0x20 DUP1 SWAP2 DIV MUL PUSH1 0x20 ADD PUSH1 0x40 MLOAD SWAP1 DUP2 ADD PUSH1 0x40 MSTORE DUP1 SWAP3 SWAP2 SWAP1 DUP2 DUP2 MSTORE PUSH1 0x20 ADD DUP3 DUP1 SLOAD PUSH2 0x299 SWAP1 PUSH2 0x674 JUMP JUMPDEST DUP1 ISZERO PUSH2 0x2E6 JUMPI DUP1 PUSH1 0x1F LT PUSH2 0x2BB JUMPI PUSH2 0x100 DUP1 DUP4 SLOAD DIV MUL DUP4 MSTORE SWAP2 PUSH1 0x20 ADD SWAP2 PUSH2 0x2E6 JUMP JUMPDEST DUP3 ADD SWAP2 SWAP1 PUSH1 0x0 MSTORE PUSH1 0x20 PUSH1 0x0 KECCAK256 SWAP1 JUMPDEST DUP2 SLOAD DUP2 MSTORE SWAP1 PUSH1 0x1 ADD SWAP1 PUSH1 0x20 ADD DUP1 DUP4 GT PUSH2 0x2C9 JUMPI DUP3 SWAP1 SUB PUSH1 0x1F AND DUP3 ADD SWAP2 JUMPDEST POP POP POP POP POP SWAP1 POP DUP5 JUMP JUMPDEST DUP3 DUP1 SLOAD PUSH2 0x2FC SWAP1 PUSH2 0x674 JUMP JUMPDEST SWAP1 PUSH1 0x0 MSTORE PUSH1 0x20 PUSH1 0x0 KECCAK256 SWAP1 PUSH1 0x1F ADD PUSH1 0x20 SWAP1 DIV DUP2 ADD SWAP3 DUP3 PUSH2 0x31E JUMPI PUSH1 0x0 DUP6 SSTORE PUSH2 0x365 JUMP JUMPDEST DUP3 PUSH1 0x1F LT PUSH2 0x337 JUMPI DUP1 MLOAD PUSH1 0xFF NOT AND DUP4 DUP1 ADD OR DUP6 SSTORE PUSH2 0x365 JUMP JUMPDEST DUP3 DUP1 ADD PUSH1 0x1 ADD DUP6 SSTORE DUP3 ISZERO PUSH2 0x365 JUMPI SWAP2 DUP3 ADD JUMPDEST DUP3 DUP2 GT ISZERO PUSH2 0x364 JUMPI DUP3 MLOAD DUP3 SSTORE SWAP2 PUSH1 0x20 ADD SWAP2 SWAP1 PUSH1 0x1 ADD SWAP1 PUSH2 0x349 JUMP JUMPDEST JUMPDEST POP SWAP1 POP PUSH2 0x372 SWAP2 SWAP1 PUSH2 0x376 JUMP JUMPDEST POP SWAP1 JUMP JUMPDEST JUMPDEST DUP1 DUP3 GT ISZERO PUSH2 0x38F JUMPI PUSH1 0x0 DUP2 PUSH1 0x0 SWAP1 SSTORE POP PUSH1 0x1 ADD PUSH2 0x377 JUMP JUMPDEST POP SWAP1 JUMP JUMPDEST PUSH1 0x0 PUSH2 0x3A6 PUSH2 0x3A1 DUP5 PUSH2 0x5DB JUMP JUMPDEST PUSH2 0x5B6 JUMP JUMPDEST SWAP1 POP DUP3 DUP2 MSTORE PUSH1 0x20 DUP2 ADD DUP5 DUP5 DUP5 ADD GT ISZERO PUSH2 0x3C2 JUMPI PUSH2 0x3C1 PUSH2 0x73A JUMP JUMPDEST JUMPDEST PUSH2 0x3CD DUP5 DUP3 DUP6 PUSH2 0x632 JUMP JUMPDEST POP SWAP4 SWAP3 POP POP POP JUMP JUMPDEST PUSH1 0x0 DUP3 PUSH1 0x1F DUP4 ADD SLT PUSH2 0x3EA JUMPI PUSH2 0x3E9 PUSH2 0x735 JUMP JUMPDEST JUMPDEST DUP2 CALLDATALOAD PUSH2 0x3FA DUP5 DUP3 PUSH1 0x20 DUP7 ADD PUSH2 0x393 JUMP JUMPDEST SWAP2 POP POP SWAP3 SWAP2 POP POP JUMP JUMPDEST PUSH1 0x0 DUP2 CALLDATALOAD SWAP1 POP PUSH2 0x412 DUP2 PUSH2 0x75A JUMP JUMPDEST SWAP3 SWAP2 POP POP JUMP JUMPDEST PUSH1 0x0 PUSH1 0x20 DUP3 DUP5 SUB SLT ISZERO PUSH2 0x42E JUMPI PUSH2 0x42D PUSH2 0x744 JUMP JUMPDEST JUMPDEST PUSH1 0x0 PUSH2 0x43C DUP5 DUP3 DUP6 ADD PUSH2 0x403 JUMP JUMPDEST SWAP2 POP POP SWAP3 SWAP2 POP POP JUMP JUMPDEST PUSH1 0x0 DUP1 PUSH1 0x0 DUP1 PUSH1 0x0 PUSH1 0xA0 DUP7 DUP9 SUB SLT ISZERO PUSH2 0x461 JUMPI PUSH2 0x460 PUSH2 0x744 JUMP JUMPDEST JUMPDEST PUSH1 0x0 PUSH2 0x46F DUP9 DUP3 DUP10 ADD PUSH2 0x403 JUMP JUMPDEST SWAP6 POP POP PUSH1 0x20 DUP7 ADD CALLDATALOAD PUSH8 0xFFFFFFFFFFFFFFFF DUP2 GT ISZERO PUSH2 0x490 JUMPI PUSH2 0x48F PUSH2 0x73F JUMP JUMPDEST JUMPDEST PUSH2 0x49C DUP9 DUP3 DUP10 ADD PUSH2 0x3D5 JUMP JUMPDEST SWAP5 POP POP PUSH1 0x40 PUSH2 0x4AD DUP9 DUP3 DUP10 ADD PUSH2 0x403 JUMP JUMPDEST SWAP4 POP POP PUSH1 0x60 DUP7 ADD CALLDATALOAD PUSH8 0xFFFFFFFFFFFFFFFF DUP2 GT ISZERO PUSH2 0x4CE JUMPI PUSH2 0x4CD PUSH2 0x73F JUMP JUMPDEST JUMPDEST PUSH2 0x4DA DUP9 DUP3 DUP10 ADD PUSH2 0x3D5 JUMP JUMPDEST SWAP3 POP POP PUSH1 0x80 DUP7 ADD CALLDATALOAD PUSH8 0xFFFFFFFFFFFFFFFF DUP2 GT ISZERO PUSH2 0x4FB JUMPI PUSH2 0x4FA PUSH2 0x73F JUMP JUMPDEST JUMPDEST PUSH2 0x507 DUP9 DUP3 DUP10 ADD PUSH2 0x3D5 JUMP JUMPDEST SWAP2 POP POP SWAP3 SWAP6 POP SWAP3 SWAP6 SWAP1 SWAP4 POP JUMP JUMPDEST PUSH1 0x0 PUSH2 0x51F DUP3 PUSH2 0x60C JUMP JUMPDEST PUSH2 0x529 DUP2 DUP6 PUSH2 0x617 JUMP JUMPDEST SWAP4 POP PUSH2 0x539 DUP2 DUP6 PUSH1 0x20 DUP7 ADD PUSH2 0x641 JUMP JUMPDEST PUSH2 0x542 DUP2 PUSH2 0x749 JUMP JUMPDEST DUP5 ADD SWAP2 POP POP SWAP3 SWAP2 POP POP JUMP JUMPDEST PUSH2 0x556 DUP2 PUSH2 0x628 JUMP JUMPDEST DUP3 MSTORE POP POP JUMP JUMPDEST PUSH1 0x0 PUSH1 0x80 DUP3 ADD SWAP1 POP DUP2 DUP2 SUB PUSH1 0x0 DUP4 ADD MSTORE PUSH2 0x576 DUP2 DUP8 PUSH2 0x514 JUMP JUMPDEST SWAP1 POP PUSH2 0x585 PUSH1 0x20 DUP4 ADD DUP7 PUSH2 0x54D JUMP JUMPDEST DUP2 DUP2 SUB PUSH1 0x40 DUP4 ADD MSTORE PUSH2 0x597 DUP2 DUP6 PUSH2 0x514 JUMP JUMPDEST SWAP1 POP DUP2 DUP2 SUB PUSH1 0x60 DUP4 ADD MSTORE PUSH2 0x5AB DUP2 DUP5 PUSH2 0x514 JUMP JUMPDEST SWAP1 POP SWAP6 SWAP5 POP POP POP POP POP JUMP JUMPDEST PUSH1 0x0 PUSH2 0x5C0 PUSH2 0x5D1 JUMP JUMPDEST SWAP1 POP PUSH2 0x5CC DUP3 DUP3 PUSH2 0x6A6 JUMP JUMPDEST SWAP2 SWAP1 POP JUMP JUMPDEST PUSH1 0x0 PUSH1 0x40 MLOAD SWAP1 POP SWAP1 JUMP JUMPDEST PUSH1 0x0 PUSH8 0xFFFFFFFFFFFFFFFF DUP3 GT ISZERO PUSH2 0x5F6 JUMPI PUSH2 0x5F5 PUSH2 0x706 JUMP JUMPDEST JUMPDEST PUSH2 0x5FF DUP3 PUSH2 0x749 JUMP JUMPDEST SWAP1 POP PUSH1 0x20 DUP2 ADD SWAP1 POP SWAP2 SWAP1 POP JUMP JUMPDEST PUSH1 0x0 DUP2 MLOAD SWAP1 POP SWAP2 SWAP1 POP JUMP JUMPDEST PUSH1 0x0 DUP3 DUP3 MSTORE PUSH1 0x20 DUP3 ADD SWAP1 POP SWAP3 SWAP2 POP POP JUMP JUMPDEST PUSH1 0x0 DUP2 SWAP1 POP SWAP2 SWAP1 POP JUMP JUMPDEST DUP3 DUP2 DUP4 CALLDATACOPY PUSH1 0x0 DUP4 DUP4 ADD MSTORE POP POP POP JUMP JUMPDEST PUSH1 0x0 JUMPDEST DUP4 DUP2 LT ISZERO PUSH2 0x65F JUMPI DUP1 DUP3 ADD MLOAD DUP2 DUP5 ADD MSTORE PUSH1 0x20 DUP2 ADD SWAP1 POP PUSH2 0x644 JUMP JUMPDEST DUP4 DUP2 GT ISZERO PUSH2 0x66E JUMPI PUSH1 0x0 DUP5 DUP5 ADD MSTORE JUMPDEST POP POP POP POP JUMP JUMPDEST PUSH1 0x0 PUSH1 0x2 DUP3 DIV SWAP1 POP PUSH1 0x1 DUP3 AND DUP1 PUSH2 0x68C JUMPI PUSH1 0x7F DUP3 AND SWAP2 POP JUMPDEST PUSH1 0x20 DUP3 LT DUP2 EQ ISZERO PUSH2 0x6A0 JUMPI PUSH2 0x69F PUSH2 0x6D7 JUMP JUMPDEST JUMPDEST POP SWAP2 SWAP1 POP JUMP JUMPDEST PUSH2 0x6AF DUP3 PUSH2 0x749 JUMP JUMPDEST DUP2 ADD DUP2 DUP2 LT PUSH8 0xFFFFFFFFFFFFFFFF DUP3 GT OR ISZERO PUSH2 0x6CE JUMPI PUSH2 0x6CD PUSH2 0x706 JUMP JUMPDEST JUMPDEST DUP1 PUSH1 0x40 MSTORE POP POP POP JUMP JUMPDEST PUSH32 0x4E487B7100000000000000000000000000000000000000000000000000000000 PUSH1 0x0 MSTORE PUSH1 0x22 PUSH1 0x4 MSTORE PUSH1 0x24 PUSH1 0x0 REVERT JUMPDEST PUSH32 0x4E487B7100000000000000000000000000000000000000000000000000000000 PUSH1 0x0 MSTORE PUSH1 0x41 PUSH1 0x4 MSTORE PUSH1 0x24 PUSH1 0x0 REVERT JUMPDEST PUSH1 0x0 DUP1 REVERT JUMPDEST PUSH1 0x0 DUP1 REVERT JUMPDEST PUSH1 0x0 DUP1 REVERT JUMPDEST PUSH1 0x0 DUP1 REVERT JUMPDEST PUSH1 0x0 PUSH1 0x1F NOT PUSH1 0x1F DUP4 ADD AND SWAP1 POP SWAP2 SWAP1 POP JUMP JUMPDEST PUSH2 0x763 DUP2 PUSH2 0x628 JUMP JUMPDEST DUP2 EQ PUSH2 0x76E JUMPI PUSH1 0x0 DUP1 REVERT JUMPDEST POP JUMP INVALID LOG2 PUSH5 0x6970667358 0x22 SLT KECCAK256 0xFB MSTORE CODESIZE 0xDC SELFBALANCE STOP PUSH9 0x1154D5AAD074A6D130 0xCD DUP8 NOT 0xB1 CODESIZE NOT 0xD5 0x2C CREATE2 0xE5 OR 0x24 SIGNEXTEND MULMOD 0xF8 0xE8 PUSH5 0x736F6C6343 STOP ADDMOD SMOD STOP CALLER "
				},
				"gasEstimates": {
					"creation": {
						"codeDepositCost": "391800",
						"executionCost": "430",
						"totalCost": "392230"
					},
					"external": {
						"my_mobile(uint256)": "infinite",
						"set(uint256,string,uint256,string,string)": "infinite"
					}
				},
				"methodIdentifiers": {
					"my_mobile(uint256)": "de163383",
					"set(uint256,string,uint256,string,string)": "50900743"
				}
			},
			"storageLayout": {
				"storage": [
					{
						"astId": 15,
						"contract": "mappingg1.sol:Mapping1testing",
						"label": "my_mobile",
						"offset": 0,
						"slot": "0",
						"type": "t_mapping(t_uint256,t_struct(mobile)10_storage)"
					}
				],
				"types": {
					"t_mapping(t_uint256,t_struct(mobile)10_storage)": {
						"encoding": "mapping",
						"key": "t_uint256",
						"label": "mapping(uint256 => struct Mapping1testing.mobile)",
						"numberOfBytes": "32",
						"value": "t_struct(mobile)10_storage"
					},
					"t_string_storage": {
						"encoding": "bytes",
						"label": "string",
						"numberOfBytes": "32"
					},
					"t_struct(mobile)10_storage": {
						"encoding": "inplace",
						"label": "struct Mapping1testing.mobile",
						"members": [
							{
								"astId": 3,
								"contract": "mappingg1.sol:Mapping1testing",
								"label": "Name",
								"offset": 0,
								"slot": "0",
								"type": "t_string_storage"
							},
							{
								"astId": 5,
								"contract": "mappingg1.sol:Mapping1testing",
								"label": "model_name",
								"offset": 0,
								"slot": "1",
								"type": "t_uint256"
							},
							{
								"astId": 7,
								"contract": "mappingg1.sol:Mapping1testing",
								"label": "owner_name",
								"offset": 0,
								"slot": "2",
								"type": "t_string_storage"
							},
							{
								"astId": 9,
								"contract": "mappingg1.sol:Mapping1testing",
								"label": "color",
								"offset": 0,
								"slot": "3",
								"type": "t_string_storage"
							}
						],
						"numberOfBytes": "128"
					},
					"t_uint256": {
						"encoding": "inplace",
						"label": "uint256",
						"numberOfBytes": "32"
					}
				}
			},
			"userdoc": {
				"kind": "user",
				"methods": {},
				"version": 1
			}
		}
	}
}