{
	"hello.sol": {
		"HelloZabi40": {
			"abi": [
				{
					"inputs": [],
					"name": "decrease",
					"outputs": [],
					"stateMutability": "nonpayable",
					"type": "function"
				},
				{
					"inputs": [],
					"name": "get",
					"outputs": [
						{
							"internalType": "uint256",
							"name": "",
							"type": "uint256"
						}
					],
					"stateMutability": "view",
					"type": "function"
				},
				{
					"inputs": [],
					"name": "increase",
					"outputs": [],
					"stateMutability": "nonpayable",
					"type": "function"
				},
				{
					"inputs": [],
					"name": "set",
					"outputs": [
						{
							"internalType": "uint256",
							"name": "",
							"type": "uint256"
						}
					],
					"stateMutability": "view",
					"type": "function"
				}
			],
			"devdoc": {
				"kind": "dev",
				"methods": {},
				"version": 1
			},
			"evm": {
				"assembly": "    /* \"hello.sol\":65:377  contract HelloZabi40{... */\n  mstore(0x40, 0x80)\n    /* \"hello.sol\":108:109  1 */\n  0x01\n    /* \"hello.sol\":92:109  uint256 value = 1 */\n  0x00\n  sstore\n    /* \"hello.sol\":65:377  contract HelloZabi40{... */\n  callvalue\n  dup1\n  iszero\n  tag_1\n  jumpi\n  0x00\n  dup1\n  revert\ntag_1:\n  pop\n  dataSize(sub_0)\n  dup1\n  dataOffset(sub_0)\n  0x00\n  codecopy\n  0x00\n  return\nstop\n\nsub_0: assembly {\n        /* \"hello.sol\":65:377  contract HelloZabi40{... */\n      mstore(0x40, 0x80)\n      callvalue\n      dup1\n      iszero\n      tag_1\n      jumpi\n      0x00\n      dup1\n      revert\n    tag_1:\n      pop\n      jumpi(tag_2, lt(calldatasize, 0x04))\n      shr(0xe0, calldataload(0x00))\n      dup1\n      0x6d4ce63c\n      eq\n      tag_3\n      jumpi\n      dup1\n      0xb8e010de\n      eq\n      tag_4\n      jumpi\n      dup1\n      0xd732d955\n      eq\n      tag_5\n      jumpi\n      dup1\n      0xe8927fbc\n      eq\n      tag_6\n      jumpi\n    tag_2:\n      0x00\n      dup1\n      revert\n        /* \"hello.sol\":174:248  function get() public view returns(uint256){... */\n    tag_3:\n      tag_7\n      tag_8\n      jump\t// in\n    tag_7:\n      mload(0x40)\n      tag_9\n      swap2\n      swap1\n      tag_10\n      jump\t// in\n    tag_9:\n      mload(0x40)\n      dup1\n      swap2\n      sub\n      swap1\n      return\n        /* \"hello.sol\":312:374  function set() public view returns (uint256){... */\n    tag_4:\n      tag_11\n      tag_12\n      jump\t// in\n    tag_11:\n      mload(0x40)\n      tag_13\n      swap2\n      swap1\n      tag_10\n      jump\t// in\n    tag_13:\n      mload(0x40)\n      dup1\n      swap2\n      sub\n      swap1\n      return\n        /* \"hello.sol\":254:306  function decrease() public{... */\n    tag_5:\n      tag_14\n      tag_15\n      jump\t// in\n    tag_14:\n      stop\n        /* \"hello.sol\":116:168  function increase() public{... */\n    tag_6:\n      tag_16\n      tag_17\n      jump\t// in\n    tag_16:\n      stop\n        /* \"hello.sol\":174:248  function get() public view returns(uint256){... */\n    tag_8:\n        /* \"hello.sol\":209:216  uint256 */\n      0x00\n        /* \"hello.sol\":235:240  value */\n      dup1\n      sload\n        /* \"hello.sol\":228:240  return value */\n      swap1\n      pop\n        /* \"hello.sol\":174:248  function get() public view returns(uint256){... */\n      swap1\n      jump\t// out\n        /* \"hello.sol\":312:374  function set() public view returns (uint256){... */\n    tag_12:\n        /* \"hello.sol\":348:355  uint256 */\n      0x00\n        /* \"hello.sol\":312:374  function set() public view returns (uint256){... */\n      swap1\n      jump\t// out\n        /* \"hello.sol\":254:306  function decrease() public{... */\n    tag_15:\n        /* \"hello.sol\":291:296  value */\n      0x00\n      dup1\n        /* \"hello.sol\":291:298  value-- */\n      dup2\n      sload\n      dup1\n      swap3\n      swap2\n      swap1\n      tag_21\n      swap1\n      tag_22\n      jump\t// in\n    tag_21:\n      swap2\n      swap1\n      pop\n      sstore\n      pop\n        /* \"hello.sol\":254:306  function decrease() public{... */\n      jump\t// out\n        /* \"hello.sol\":116:168  function increase() public{... */\n    tag_17:\n        /* \"hello.sol\":153:158  value */\n      0x00\n      dup1\n        /* \"hello.sol\":153:160  value++ */\n      dup2\n      sload\n      dup1\n      swap3\n      swap2\n      swap1\n      tag_24\n      swap1\n      tag_25\n      jump\t// in\n    tag_24:\n      swap2\n      swap1\n      pop\n      sstore\n      pop\n        /* \"hello.sol\":116:168  function increase() public{... */\n      jump\t// out\n        /* \"#utility.yul\":7:84   */\n    tag_26:\n        /* \"#utility.yul\":44:51   */\n      0x00\n        /* \"#utility.yul\":73:78   */\n      dup2\n        /* \"#utility.yul\":62:78   */\n      swap1\n      pop\n        /* \"#utility.yul\":7:84   */\n      swap2\n      swap1\n      pop\n      jump\t// out\n        /* \"#utility.yul\":90:208   */\n    tag_27:\n        /* \"#utility.yul\":177:201   */\n      tag_32\n        /* \"#utility.yul\":195:200   */\n      dup2\n        /* \"#utility.yul\":177:201   */\n      tag_26\n      jump\t// in\n    tag_32:\n        /* \"#utility.yul\":172:175   */\n      dup3\n        /* \"#utility.yul\":165:202   */\n      mstore\n        /* \"#utility.yul\":90:208   */\n      pop\n      pop\n      jump\t// out\n        /* \"#utility.yul\":214:436   */\n    tag_10:\n        /* \"#utility.yul\":307:311   */\n      0x00\n        /* \"#utility.yul\":345:347   */\n      0x20\n        /* \"#utility.yul\":334:343   */\n      dup3\n        /* \"#utility.yul\":330:348   */\n      add\n        /* \"#utility.yul\":322:348   */\n      swap1\n      pop\n        /* \"#utility.yul\":358:429   */\n      tag_34\n        /* \"#utility.yul\":426:427   */\n      0x00\n        /* \"#utility.yul\":415:424   */\n      dup4\n        /* \"#utility.yul\":411:428   */\n      add\n        /* \"#utility.yul\":402:408   */\n      dup5\n        /* \"#utility.yul\":358:429   */\n      tag_27\n      jump\t// in\n    tag_34:\n        /* \"#utility.yul\":214:436   */\n      swap3\n      swap2\n      pop\n      pop\n      jump\t// out\n        /* \"#utility.yul\":442:622   */\n    tag_28:\n        /* \"#utility.yul\":490:567   */\n      0x4e487b7100000000000000000000000000000000000000000000000000000000\n        /* \"#utility.yul\":487:488   */\n      0x00\n        /* \"#utility.yul\":480:568   */\n      mstore\n        /* \"#utility.yul\":587:591   */\n      0x11\n        /* \"#utility.yul\":584:585   */\n      0x04\n        /* \"#utility.yul\":577:592   */\n      mstore\n        /* \"#utility.yul\":611:615   */\n      0x24\n        /* \"#utility.yul\":608:609   */\n      0x00\n        /* \"#utility.yul\":601:616   */\n      revert\n        /* \"#utility.yul\":628:799   */\n    tag_22:\n        /* \"#utility.yul\":667:670   */\n      0x00\n        /* \"#utility.yul\":690:714   */\n      tag_37\n        /* \"#utility.yul\":708:713   */\n      dup3\n        /* \"#utility.yul\":690:714   */\n      tag_26\n      jump\t// in\n    tag_37:\n        /* \"#utility.yul\":681:714   */\n      swap2\n      pop\n        /* \"#utility.yul\":736:740   */\n      0x00\n        /* \"#utility.yul\":729:734   */\n      dup3\n        /* \"#utility.yul\":726:741   */\n      sub\n        /* \"#utility.yul\":723:764   */\n      tag_38\n      jumpi\n        /* \"#utility.yul\":744:762   */\n      tag_39\n      tag_28\n      jump\t// in\n    tag_39:\n        /* \"#utility.yul\":723:764   */\n    tag_38:\n        /* \"#utility.yul\":791:792   */\n      0x01\n        /* \"#utility.yul\":784:789   */\n      dup3\n        /* \"#utility.yul\":780:793   */\n      sub\n        /* \"#utility.yul\":773:793   */\n      swap1\n      pop\n        /* \"#utility.yul\":628:799   */\n      swap2\n      swap1\n      pop\n      jump\t// out\n        /* \"#utility.yul\":805:1038   */\n    tag_25:\n        /* \"#utility.yul\":844:847   */\n      0x00\n        /* \"#utility.yul\":867:891   */\n      tag_41\n        /* \"#utility.yul\":885:890   */\n      dup3\n        /* \"#utility.yul\":867:891   */\n      tag_26\n      jump\t// in\n    tag_41:\n        /* \"#utility.yul\":858:891   */\n      swap2\n      pop\n        /* \"#utility.yul\":913:979   */\n      0xffffffffffffffffffffffffffffffffffffffffffffffffffffffffffffffff\n        /* \"#utility.yul\":906:911   */\n      dup3\n        /* \"#utility.yul\":903:980   */\n      sub\n        /* \"#utility.yul\":900:1003   */\n      tag_42\n      jumpi\n        /* \"#utility.yul\":983:1001   */\n      tag_43\n      tag_28\n      jump\t// in\n    tag_43:\n        /* \"#utility.yul\":900:1003   */\n    tag_42:\n        /* \"#utility.yul\":1030:1031   */\n      0x01\n        /* \"#utility.yul\":1023:1028   */\n      dup3\n        /* \"#utility.yul\":1019:1032   */\n      add\n        /* \"#utility.yul\":1012:1032   */\n      swap1\n      pop\n        /* \"#utility.yul\":805:1038   */\n      swap2\n      swap1\n      pop\n      jump\t// out\n\n    auxdata: 0xa264697066735822122071f0552a9490f5a22f8d18d52a486288c31cd52aabfb481cf736e5d0708f219e64736f6c634300080f0033\n}\n",
				"bytecode": {
					"linkReferences": {},
					"object": "6080604052600160005534801561001557600080fd5b506101eb806100256000396000f3fe608060405234801561001057600080fd5b506004361061004c5760003560e01c80636d4ce63c14610051578063b8e010de1461006f578063d732d9551461008d578063e8927fbc14610097575b600080fd5b6100596100a1565b60405161006691906100fa565b60405180910390f35b6100776100aa565b60405161008491906100fa565b60405180910390f35b6100956100af565b005b61009f6100c8565b005b60008054905090565b600090565b6000808154809291906100c190610144565b9190505550565b6000808154809291906100da9061016d565b9190505550565b6000819050919050565b6100f4816100e1565b82525050565b600060208201905061010f60008301846100eb565b92915050565b7f4e487b7100000000000000000000000000000000000000000000000000000000600052601160045260246000fd5b600061014f826100e1565b91506000820361016257610161610115565b5b600182039050919050565b6000610178826100e1565b91507fffffffffffffffffffffffffffffffffffffffffffffffffffffffffffffffff82036101aa576101a9610115565b5b60018201905091905056fea264697066735822122071f0552a9490f5a22f8d18d52a486288c31cd52aabfb481cf736e5d0708f219e64736f6c634300080f0033",
					"opcodes": "PUSH1 0x80 PUSH1 0x40 MSTORE PUSH1 0x1 PUSH1 0x0 SSTORE CALLVALUE DUP1 ISZERO PUSH2 0x15 JUMPI PUSH1 0x0 DUP1 REVERT JUMPDEST POP PUSH2 0x1EB DUP1 PUSH2 0x25 PUSH1 0x0 CODECOPY PUSH1 0x0 RETURN INVALID PUSH1 0x80 PUSH1 0x40 MSTORE CALLVALUE DUP1 ISZERO PUSH2 0x10 JUMPI PUSH1 0x0 DUP1 REVERT JUMPDEST POP PUSH1 0x4 CALLDATASIZE LT PUSH2 0x4C JUMPI PUSH1 0x0 CALLDATALOAD PUSH1 0xE0 SHR DUP1 PUSH4 0x6D4CE63C EQ PUSH2 0x51 JUMPI DUP1 PUSH4 0xB8E010DE EQ PUSH2 0x6F JUMPI DUP1 PUSH4 0xD732D955 EQ PUSH2 0x8D JUMPI DUP1 PUSH4 0xE8927FBC EQ PUSH2 0x97 JUMPI JUMPDEST PUSH1 0x0 DUP1 REVERT JUMPDEST PUSH2 0x59 PUSH2 0xA1 JUMP JUMPDEST PUSH1 0x40 MLOAD PUSH2 0x66 SWAP2 SWAP1 PUSH2 0xFA JUMP JUMPDEST PUSH1 0x40 MLOAD DUP1 SWAP2 SUB SWAP1 RETURN JUMPDEST PUSH2 0x77 PUSH2 0xAA JUMP JUMPDEST PUSH1 0x40 MLOAD PUSH2 0x84 SWAP2 SWAP1 PUSH2 0xFA JUMP JUMPDEST PUSH1 0x40 MLOAD DUP1 SWAP2 SUB SWAP1 RETURN JUMPDEST PUSH2 0x95 PUSH2 0xAF JUMP JUMPDEST STOP JUMPDEST PUSH2 0x9F PUSH2 0xC8 JUMP JUMPDEST STOP JUMPDEST PUSH1 0x0 DUP1 SLOAD SWAP1 POP SWAP1 JUMP JUMPDEST PUSH1 0x0 SWAP1 JUMP JUMPDEST PUSH1 0x0 DUP1 DUP2 SLOAD DUP1 SWAP3 SWAP2 SWAP1 PUSH2 0xC1 SWAP1 PUSH2 0x144 JUMP JUMPDEST SWAP2 SWAP1 POP SSTORE POP JUMP JUMPDEST PUSH1 0x0 DUP1 DUP2 SLOAD DUP1 SWAP3 SWAP2 SWAP1 PUSH2 0xDA SWAP1 PUSH2 0x16D JUMP JUMPDEST SWAP2 SWAP1 POP SSTORE POP JUMP JUMPDEST PUSH1 0x0 DUP2 SWAP1 POP SWAP2 SWAP1 POP JUMP JUMPDEST PUSH2 0xF4 DUP2 PUSH2 0xE1 JUMP JUMPDEST DUP3 MSTORE POP POP JUMP JUMPDEST PUSH1 0x0 PUSH1 0x20 DUP3 ADD SWAP1 POP PUSH2 0x10F PUSH1 0x0 DUP4 ADD DUP5 PUSH2 0xEB JUMP JUMPDEST SWAP3 SWAP2 POP POP JUMP JUMPDEST PUSH32 0x4E487B7100000000000000000000000000000000000000000000000000000000 PUSH1 0x0 MSTORE PUSH1 0x11 PUSH1 0x4 MSTORE PUSH1 0x24 PUSH1 0x0 REVERT JUMPDEST PUSH1 0x0 PUSH2 0x14F DUP3 PUSH2 0xE1 JUMP JUMPDEST SWAP2 POP PUSH1 0x0 DUP3 SUB PUSH2 0x162 JUMPI PUSH2 0x161 PUSH2 0x115 JUMP JUMPDEST JUMPDEST PUSH1 0x1 DUP3 SUB SWAP1 POP SWAP2 SWAP1 POP JUMP JUMPDEST PUSH1 0x0 PUSH2 0x178 DUP3 PUSH2 0xE1 JUMP JUMPDEST SWAP2 POP PUSH32 0xFFFFFFFFFFFFFFFFFFFFFFFFFFFFFFFFFFFFFFFFFFFFFFFFFFFFFFFFFFFFFFFF DUP3 SUB PUSH2 0x1AA JUMPI PUSH2 0x1A9 PUSH2 0x115 JUMP JUMPDEST JUMPDEST PUSH1 0x1 DUP3 ADD SWAP1 POP SWAP2 SWAP1 POP JUMP INVALID LOG2 PUSH5 0x6970667358 0x22 SLT KECCAK256 PUSH18 0xF0552A9490F5A22F8D18D52A486288C31CD5 0x2A 0xAB 0xFB BASEFEE SHR 0xF7 CALLDATASIZE 0xE5 0xD0 PUSH17 0x8F219E64736F6C634300080F0033000000 "
				},
				"gasEstimates": {
					"creation": {
						"codeDepositCost": "98200",
						"executionCost": "22253",
						"totalCost": "120453"
					},
					"external": {
						"decrease()": "24523",
						"get()": "2415",
						"increase()": "24545",
						"set()": "329"
					}
				},
				"methodIdentifiers": {
					"decrease()": "d732d955",
					"get()": "6d4ce63c",
					"increase()": "e8927fbc",
					"set()": "b8e010de"
				}
			},
			"storageLayout": {
				"storage": [
					{
						"astId": 4,
						"contract": "hello.sol:HelloZabi40",
						"label": "value",
						"offset": 0,
						"slot": "0",
						"type": "t_uint256"
					}
				],
				"types": {
					"t_uint256": {
						"encoding": "inplace",
						"label": "uint256",
						"numberOfBytes": "32"
					}
				}
			},
			"userdoc": {
				"kind": "user",
				"methods": {},
				"version": 1
			}
		}
	}
}