{
	"hello.sol": {
		"HelloZabi40": {
			"abi": [
				{
					"inputs": [],
					"name": "value",
					"outputs": [],
					"stateMutability": "nonpayable",
					"type": "function"
				}
			],
			"devdoc": {
				"kind": "dev",
				"methods": {},
				"version": 1
			},
			"evm": {
				"assembly": "    /* \"hello.sol\":65:157  contract HelloZabi40{... */\n  mstore(0x40, 0x80)\n    /* \"hello.sol\":105:106  1 */\n  0x01\n    /* \"hello.sol\":92:106  uint256 va = 1 */\n  0x00\n  sstore\n    /* \"hello.sol\":65:157  contract HelloZabi40{... */\n  callvalue\n  dup1\n  iszero\n  tag_1\n  jumpi\n  0x00\n  dup1\n  revert\ntag_1:\n  pop\n  dataSize(sub_0)\n  dup1\n  dataOffset(sub_0)\n  0x00\n  codecopy\n  0x00\n  return\nstop\n\nsub_0: assembly {\n        /* \"hello.sol\":65:157  contract HelloZabi40{... */\n      mstore(0x40, 0x80)\n      callvalue\n      dup1\n      iszero\n      tag_1\n      jumpi\n      0x00\n      dup1\n      revert\n    tag_1:\n      pop\n      jumpi(tag_2, lt(calldatasize, 0x04))\n      shr(0xe0, calldataload(0x00))\n      dup1\n      0x3fa4f245\n      eq\n      tag_3\n      jumpi\n    tag_2:\n      0x00\n      dup1\n      revert\n        /* \"hello.sol\":113:154  function value() public{... */\n    tag_3:\n      tag_4\n      tag_5\n      jump\t// in\n    tag_4:\n      stop\n    tag_5:\n      jump\t// out\n\n    auxdata: 0xa2646970667358221220a0f53d95d05bdd3e62843dad7ed106c9b8a77acbb701fc17ce2ed5540abe528e64736f6c634300080f0033\n}\n",
				"bytecode": {
					"linkReferences": {},
					"object": "60806040526001600055348015601457600080fd5b50606d8060226000396000f3fe6080604052348015600f57600080fd5b506004361060285760003560e01c80633fa4f24514602d575b600080fd5b60336035565b005b56fea2646970667358221220a0f53d95d05bdd3e62843dad7ed106c9b8a77acbb701fc17ce2ed5540abe528e64736f6c634300080f0033",
					"opcodes": "PUSH1 0x80 PUSH1 0x40 MSTORE PUSH1 0x1 PUSH1 0x0 SSTORE CALLVALUE DUP1 ISZERO PUSH1 0x14 JUMPI PUSH1 0x0 DUP1 REVERT JUMPDEST POP PUSH1 0x6D DUP1 PUSH1 0x22 PUSH1 0x0 CODECOPY PUSH1 0x0 RETURN INVALID PUSH1 0x80 PUSH1 0x40 MSTORE CALLVALUE DUP1 ISZERO PUSH1 0xF JUMPI PUSH1 0x0 DUP1 REVERT JUMPDEST POP PUSH1 0x4 CALLDATASIZE LT PUSH1 0x28 JUMPI PUSH1 0x0 CALLDATALOAD PUSH1 0xE0 SHR DUP1 PUSH4 0x3FA4F245 EQ PUSH1 0x2D JUMPI JUMPDEST PUSH1 0x0 DUP1 REVERT JUMPDEST PUSH1 0x33 PUSH1 0x35 JUMP JUMPDEST STOP JUMPDEST JUMP INVALID LOG2 PUSH5 0x6970667358 0x22 SLT KECCAK256 LOG0 CREATE2 RETURNDATASIZE SWAP6 0xD0 JUMPDEST 0xDD RETURNDATACOPY PUSH3 0x843DAD PUSH31 0xD106C9B8A77ACBB701FC17CE2ED5540ABE528E64736F6C634300080F003300 "
				},
				"gasEstimates": {
					"creation": {
						"codeDepositCost": "21800",
						"executionCost": "22181",
						"totalCost": "43981"
					},
					"external": {
						"value()": "122"
					}
				},
				"methodIdentifiers": {
					"value()": "3fa4f245"
				}
			},
			"storageLayout": {
				"storage": [
					{
						"astId": 4,
						"contract": "hello.sol:HelloZabi40",
						"label": "va",
						"offset": 0,
						"slot": "0",
						"type": "t_uint256"
					}
				],
				"types": {
					"t_uint256": {
						"encoding": "inplace",
						"label": "uint256",
						"numberOfBytes": "32"
					}
				}
			},
			"userdoc": {
				"kind": "user",
				"methods": {},
				"version": 1
			}
		}
	}
}