{
	"mapping.sol": {
		"MappingTest": {
			"abi": [
				{
					"inputs": [
						{
							"internalType": "uint256",
							"name": "",
							"type": "uint256"
						}
					],
					"name": "my_car",
					"outputs": [
						{
							"internalType": "string",
							"name": "",
							"type": "string"
						}
					],
					"stateMutability": "view",
					"type": "function"
				},
				{
					"inputs": [
						{
							"internalType": "uint256",
							"name": "keys",
							"type": "uint256"
						},
						{
							"internalType": "string",
							"name": "value",
							"type": "string"
						}
					],
					"name": "setter",
					"outputs": [],
					"stateMutability": "nonpayable",
					"type": "function"
				}
			],
			"devdoc": {
				"kind": "dev",
				"methods": {},
				"version": 1
			},
			"evm": {
				"assembly": "    /* \"mapping.sol\":65:240  contract MappingTest{... */\n  mstore(0x40, 0x80)\n  callvalue\n  dup1\n  iszero\n  tag_1\n  jumpi\n  0x00\n  dup1\n  revert\ntag_1:\n  pop\n  dataSize(sub_0)\n  dup1\n  dataOffset(sub_0)\n  0x00\n  codecopy\n  0x00\n  return\nstop\n\nsub_0: assembly {\n        /* \"mapping.sol\":65:240  contract MappingTest{... */\n      mstore(0x40, 0x80)\n      callvalue\n      dup1\n      iszero\n      tag_1\n      jumpi\n      0x00\n      dup1\n      revert\n    tag_1:\n      pop\n      jumpi(tag_2, lt(calldatasize, 0x04))\n      shr(0xe0, calldataload(0x00))\n      dup1\n      0xa85e58ca\n      eq\n      tag_3\n      jumpi\n      dup1\n      0xbcb131c9\n      eq\n      tag_4\n      jumpi\n    tag_2:\n      0x00\n      dup1\n      revert\n        /* \"mapping.sol\":100:135  mapping(uint=>string) public my_car */\n    tag_3:\n      tag_5\n      0x04\n      dup1\n      calldatasize\n      sub\n      dup2\n      add\n      swap1\n      tag_6\n      swap2\n      swap1\n      tag_7\n      jump\t// in\n    tag_6:\n      tag_8\n      jump\t// in\n    tag_5:\n      mload(0x40)\n      tag_9\n      swap2\n      swap1\n      tag_10\n      jump\t// in\n    tag_9:\n      mload(0x40)\n      dup1\n      swap2\n      sub\n      swap1\n      return\n        /* \"mapping.sol\":144:237  function setter(uint keys, string memory value) public{... */\n    tag_4:\n      tag_11\n      0x04\n      dup1\n      calldatasize\n      sub\n      dup2\n      add\n      swap1\n      tag_12\n      swap2\n      swap1\n      tag_13\n      jump\t// in\n    tag_12:\n      tag_14\n      jump\t// in\n    tag_11:\n      stop\n        /* \"mapping.sol\":100:135  mapping(uint=>string) public my_car */\n    tag_8:\n      mstore(0x20, 0x00)\n      dup1\n      0x00\n      mstore\n      keccak256(0x00, 0x40)\n      0x00\n      swap2\n      pop\n      swap1\n      pop\n      dup1\n      sload\n      tag_15\n      swap1\n      tag_16\n      jump\t// in\n    tag_15:\n      dup1\n      0x1f\n      add\n      0x20\n      dup1\n      swap2\n      div\n      mul\n      0x20\n      add\n      mload(0x40)\n      swap1\n      dup2\n      add\n      0x40\n      mstore\n      dup1\n      swap3\n      swap2\n      swap1\n      dup2\n      dup2\n      mstore\n      0x20\n      add\n      dup3\n      dup1\n      sload\n      tag_17\n      swap1\n      tag_16\n      jump\t// in\n    tag_17:\n      dup1\n      iszero\n      tag_18\n      jumpi\n      dup1\n      0x1f\n      lt\n      tag_19\n      jumpi\n      0x0100\n      dup1\n      dup4\n      sload\n      div\n      mul\n      dup4\n      mstore\n      swap2\n      0x20\n      add\n      swap2\n      jump(tag_18)\n    tag_19:\n      dup3\n      add\n      swap2\n      swap1\n      0x00\n      mstore\n      keccak256(0x00, 0x20)\n      swap1\n    tag_20:\n      dup2\n      sload\n      dup2\n      mstore\n      swap1\n      0x01\n      add\n      swap1\n      0x20\n      add\n      dup1\n      dup4\n      gt\n      tag_20\n      jumpi\n      dup3\n      swap1\n      sub\n      0x1f\n      and\n      dup3\n      add\n      swap2\n    tag_18:\n      pop\n      pop\n      pop\n      pop\n      pop\n      dup2\n      jump\t// out\n        /* \"mapping.sol\":144:237  function setter(uint keys, string memory value) public{... */\n    tag_14:\n        /* \"mapping.sol\":224:229  value */\n      dup1\n        /* \"mapping.sol\":211:217  my_car */\n      0x00\n        /* \"mapping.sol\":211:223  my_car[keys] */\n      dup1\n        /* \"mapping.sol\":218:222  keys */\n      dup5\n        /* \"mapping.sol\":211:223  my_car[keys] */\n      dup2\n      mstore\n      0x20\n      add\n      swap1\n      dup2\n      mstore\n      0x20\n      add\n      0x00\n      keccak256\n        /* \"mapping.sol\":211:229  my_car[keys]=value */\n      swap1\n      dup2\n      tag_22\n      swap2\n      swap1\n      tag_23\n      jump\t// in\n    tag_22:\n      pop\n        /* \"mapping.sol\":144:237  function setter(uint keys, string memory value) public{... */\n      pop\n      pop\n      jump\t// out\n        /* \"#utility.yul\":7:82   */\n    tag_24:\n        /* \"#utility.yul\":40:46   */\n      0x00\n        /* \"#utility.yul\":73:75   */\n      0x40\n        /* \"#utility.yul\":67:76   */\n      mload\n        /* \"#utility.yul\":57:76   */\n      swap1\n      pop\n        /* \"#utility.yul\":7:82   */\n      swap1\n      jump\t// out\n        /* \"#utility.yul\":88:205   */\n    tag_25:\n        /* \"#utility.yul\":197:198   */\n      0x00\n        /* \"#utility.yul\":194:195   */\n      dup1\n        /* \"#utility.yul\":187:199   */\n      revert\n        /* \"#utility.yul\":211:328   */\n    tag_26:\n        /* \"#utility.yul\":320:321   */\n      0x00\n        /* \"#utility.yul\":317:318   */\n      dup1\n        /* \"#utility.yul\":310:322   */\n      revert\n        /* \"#utility.yul\":334:411   */\n    tag_27:\n        /* \"#utility.yul\":371:378   */\n      0x00\n        /* \"#utility.yul\":400:405   */\n      dup2\n        /* \"#utility.yul\":389:405   */\n      swap1\n      pop\n        /* \"#utility.yul\":334:411   */\n      swap2\n      swap1\n      pop\n      jump\t// out\n        /* \"#utility.yul\":417:539   */\n    tag_28:\n        /* \"#utility.yul\":490:514   */\n      tag_66\n        /* \"#utility.yul\":508:513   */\n      dup2\n        /* \"#utility.yul\":490:514   */\n      tag_27\n      jump\t// in\n    tag_66:\n        /* \"#utility.yul\":483:488   */\n      dup2\n        /* \"#utility.yul\":480:515   */\n      eq\n        /* \"#utility.yul\":470:533   */\n      tag_67\n      jumpi\n        /* \"#utility.yul\":529:530   */\n      0x00\n        /* \"#utility.yul\":526:527   */\n      dup1\n        /* \"#utility.yul\":519:531   */\n      revert\n        /* \"#utility.yul\":470:533   */\n    tag_67:\n        /* \"#utility.yul\":417:539   */\n      pop\n      jump\t// out\n        /* \"#utility.yul\":545:684   */\n    tag_29:\n        /* \"#utility.yul\":591:596   */\n      0x00\n        /* \"#utility.yul\":629:635   */\n      dup2\n        /* \"#utility.yul\":616:636   */\n      calldataload\n        /* \"#utility.yul\":607:636   */\n      swap1\n      pop\n        /* \"#utility.yul\":645:678   */\n      tag_69\n        /* \"#utility.yul\":672:677   */\n      dup2\n        /* \"#utility.yul\":645:678   */\n      tag_28\n      jump\t// in\n    tag_69:\n        /* \"#utility.yul\":545:684   */\n      swap3\n      swap2\n      pop\n      pop\n      jump\t// out\n        /* \"#utility.yul\":690:1019   */\n    tag_7:\n        /* \"#utility.yul\":749:755   */\n      0x00\n        /* \"#utility.yul\":798:800   */\n      0x20\n        /* \"#utility.yul\":786:795   */\n      dup3\n        /* \"#utility.yul\":777:784   */\n      dup5\n        /* \"#utility.yul\":773:796   */\n      sub\n        /* \"#utility.yul\":769:801   */\n      slt\n        /* \"#utility.yul\":766:885   */\n      iszero\n      tag_71\n      jumpi\n        /* \"#utility.yul\":804:883   */\n      tag_72\n      tag_25\n      jump\t// in\n    tag_72:\n        /* \"#utility.yul\":766:885   */\n    tag_71:\n        /* \"#utility.yul\":924:925   */\n      0x00\n        /* \"#utility.yul\":949:1002   */\n      tag_73\n        /* \"#utility.yul\":994:1001   */\n      dup5\n        /* \"#utility.yul\":985:991   */\n      dup3\n        /* \"#utility.yul\":974:983   */\n      dup6\n        /* \"#utility.yul\":970:992   */\n      add\n        /* \"#utility.yul\":949:1002   */\n      tag_29\n      jump\t// in\n    tag_73:\n        /* \"#utility.yul\":939:1002   */\n      swap2\n      pop\n        /* \"#utility.yul\":895:1012   */\n      pop\n        /* \"#utility.yul\":690:1019   */\n      swap3\n      swap2\n      pop\n      pop\n      jump\t// out\n        /* \"#utility.yul\":1025:1124   */\n    tag_30:\n        /* \"#utility.yul\":1077:1083   */\n      0x00\n        /* \"#utility.yul\":1111:1116   */\n      dup2\n        /* \"#utility.yul\":1105:1117   */\n      mload\n        /* \"#utility.yul\":1095:1117   */\n      swap1\n      pop\n        /* \"#utility.yul\":1025:1124   */\n      swap2\n      swap1\n      pop\n      jump\t// out\n        /* \"#utility.yul\":1130:1299   */\n    tag_31:\n        /* \"#utility.yul\":1214:1225   */\n      0x00\n        /* \"#utility.yul\":1248:1254   */\n      dup3\n        /* \"#utility.yul\":1243:1246   */\n      dup3\n        /* \"#utility.yul\":1236:1255   */\n      mstore\n        /* \"#utility.yul\":1288:1292   */\n      0x20\n        /* \"#utility.yul\":1283:1286   */\n      dup3\n        /* \"#utility.yul\":1279:1293   */\n      add\n        /* \"#utility.yul\":1264:1293   */\n      swap1\n      pop\n        /* \"#utility.yul\":1130:1299   */\n      swap3\n      swap2\n      pop\n      pop\n      jump\t// out\n        /* \"#utility.yul\":1305:1612   */\n    tag_32:\n        /* \"#utility.yul\":1373:1374   */\n      0x00\n        /* \"#utility.yul\":1383:1496   */\n    tag_77:\n        /* \"#utility.yul\":1397:1403   */\n      dup4\n        /* \"#utility.yul\":1394:1395   */\n      dup2\n        /* \"#utility.yul\":1391:1404   */\n      lt\n        /* \"#utility.yul\":1383:1496   */\n      iszero\n      tag_79\n      jumpi\n        /* \"#utility.yul\":1482:1483   */\n      dup1\n        /* \"#utility.yul\":1477:1480   */\n      dup3\n        /* \"#utility.yul\":1473:1484   */\n      add\n        /* \"#utility.yul\":1467:1485   */\n      mload\n        /* \"#utility.yul\":1463:1464   */\n      dup2\n        /* \"#utility.yul\":1458:1461   */\n      dup5\n        /* \"#utility.yul\":1454:1465   */\n      add\n        /* \"#utility.yul\":1447:1486   */\n      mstore\n        /* \"#utility.yul\":1419:1421   */\n      0x20\n        /* \"#utility.yul\":1416:1417   */\n      dup2\n        /* \"#utility.yul\":1412:1422   */\n      add\n        /* \"#utility.yul\":1407:1422   */\n      swap1\n      pop\n        /* \"#utility.yul\":1383:1496   */\n      jump(tag_77)\n    tag_79:\n        /* \"#utility.yul\":1514:1520   */\n      dup4\n        /* \"#utility.yul\":1511:1512   */\n      dup2\n        /* \"#utility.yul\":1508:1521   */\n      gt\n        /* \"#utility.yul\":1505:1606   */\n      iszero\n      tag_80\n      jumpi\n        /* \"#utility.yul\":1594:1595   */\n      0x00\n        /* \"#utility.yul\":1585:1591   */\n      dup5\n        /* \"#utility.yul\":1580:1583   */\n      dup5\n        /* \"#utility.yul\":1576:1592   */\n      add\n        /* \"#utility.yul\":1569:1596   */\n      mstore\n        /* \"#utility.yul\":1505:1606   */\n    tag_80:\n        /* \"#utility.yul\":1354:1612   */\n      pop\n        /* \"#utility.yul\":1305:1612   */\n      pop\n      pop\n      pop\n      jump\t// out\n        /* \"#utility.yul\":1618:1720   */\n    tag_33:\n        /* \"#utility.yul\":1659:1665   */\n      0x00\n        /* \"#utility.yul\":1710:1712   */\n      0x1f\n        /* \"#utility.yul\":1706:1713   */\n      not\n        /* \"#utility.yul\":1701:1703   */\n      0x1f\n        /* \"#utility.yul\":1694:1699   */\n      dup4\n        /* \"#utility.yul\":1690:1704   */\n      add\n        /* \"#utility.yul\":1686:1714   */\n      and\n        /* \"#utility.yul\":1676:1714   */\n      swap1\n      pop\n        /* \"#utility.yul\":1618:1720   */\n      swap2\n      swap1\n      pop\n      jump\t// out\n        /* \"#utility.yul\":1726:2090   */\n    tag_34:\n        /* \"#utility.yul\":1814:1817   */\n      0x00\n        /* \"#utility.yul\":1842:1881   */\n      tag_83\n        /* \"#utility.yul\":1875:1880   */\n      dup3\n        /* \"#utility.yul\":1842:1881   */\n      tag_30\n      jump\t// in\n    tag_83:\n        /* \"#utility.yul\":1897:1968   */\n      tag_84\n        /* \"#utility.yul\":1961:1967   */\n      dup2\n        /* \"#utility.yul\":1956:1959   */\n      dup6\n        /* \"#utility.yul\":1897:1968   */\n      tag_31\n      jump\t// in\n    tag_84:\n        /* \"#utility.yul\":1890:1968   */\n      swap4\n      pop\n        /* \"#utility.yul\":1977:2029   */\n      tag_85\n        /* \"#utility.yul\":2022:2028   */\n      dup2\n        /* \"#utility.yul\":2017:2020   */\n      dup6\n        /* \"#utility.yul\":2010:2014   */\n      0x20\n        /* \"#utility.yul\":2003:2008   */\n      dup7\n        /* \"#utility.yul\":1999:2015   */\n      add\n        /* \"#utility.yul\":1977:2029   */\n      tag_32\n      jump\t// in\n    tag_85:\n        /* \"#utility.yul\":2054:2083   */\n      tag_86\n        /* \"#utility.yul\":2076:2082   */\n      dup2\n        /* \"#utility.yul\":2054:2083   */\n      tag_33\n      jump\t// in\n    tag_86:\n        /* \"#utility.yul\":2049:2052   */\n      dup5\n        /* \"#utility.yul\":2045:2084   */\n      add\n        /* \"#utility.yul\":2038:2084   */\n      swap2\n      pop\n        /* \"#utility.yul\":1818:2090   */\n      pop\n        /* \"#utility.yul\":1726:2090   */\n      swap3\n      swap2\n      pop\n      pop\n      jump\t// out\n        /* \"#utility.yul\":2096:2409   */\n    tag_10:\n        /* \"#utility.yul\":2209:2213   */\n      0x00\n        /* \"#utility.yul\":2247:2249   */\n      0x20\n        /* \"#utility.yul\":2236:2245   */\n      dup3\n        /* \"#utility.yul\":2232:2250   */\n      add\n        /* \"#utility.yul\":2224:2250   */\n      swap1\n      pop\n        /* \"#utility.yul\":2296:2305   */\n      dup2\n        /* \"#utility.yul\":2290:2294   */\n      dup2\n        /* \"#utility.yul\":2286:2306   */\n      sub\n        /* \"#utility.yul\":2282:2283   */\n      0x00\n        /* \"#utility.yul\":2271:2280   */\n      dup4\n        /* \"#utility.yul\":2267:2284   */\n      add\n        /* \"#utility.yul\":2260:2307   */\n      mstore\n        /* \"#utility.yul\":2324:2402   */\n      tag_88\n        /* \"#utility.yul\":2397:2401   */\n      dup2\n        /* \"#utility.yul\":2388:2394   */\n      dup5\n        /* \"#utility.yul\":2324:2402   */\n      tag_34\n      jump\t// in\n    tag_88:\n        /* \"#utility.yul\":2316:2402   */\n      swap1\n      pop\n        /* \"#utility.yul\":2096:2409   */\n      swap3\n      swap2\n      pop\n      pop\n      jump\t// out\n        /* \"#utility.yul\":2415:2532   */\n    tag_35:\n        /* \"#utility.yul\":2524:2525   */\n      0x00\n        /* \"#utility.yul\":2521:2522   */\n      dup1\n        /* \"#utility.yul\":2514:2526   */\n      revert\n        /* \"#utility.yul\":2538:2655   */\n    tag_36:\n        /* \"#utility.yul\":2647:2648   */\n      0x00\n        /* \"#utility.yul\":2644:2645   */\n      dup1\n        /* \"#utility.yul\":2637:2649   */\n      revert\n        /* \"#utility.yul\":2661:2841   */\n    tag_37:\n        /* \"#utility.yul\":2709:2786   */\n      0x4e487b7100000000000000000000000000000000000000000000000000000000\n        /* \"#utility.yul\":2706:2707   */\n      0x00\n        /* \"#utility.yul\":2699:2787   */\n      mstore\n        /* \"#utility.yul\":2806:2810   */\n      0x41\n        /* \"#utility.yul\":2803:2804   */\n      0x04\n        /* \"#utility.yul\":2796:2811   */\n      mstore\n        /* \"#utility.yul\":2830:2834   */\n      0x24\n        /* \"#utility.yul\":2827:2828   */\n      0x00\n        /* \"#utility.yul\":2820:2835   */\n      revert\n        /* \"#utility.yul\":2847:3128   */\n    tag_38:\n        /* \"#utility.yul\":2930:2957   */\n      tag_93\n        /* \"#utility.yul\":2952:2956   */\n      dup3\n        /* \"#utility.yul\":2930:2957   */\n      tag_33\n      jump\t// in\n    tag_93:\n        /* \"#utility.yul\":2922:2928   */\n      dup2\n        /* \"#utility.yul\":2918:2958   */\n      add\n        /* \"#utility.yul\":3060:3066   */\n      dup2\n        /* \"#utility.yul\":3048:3058   */\n      dup2\n        /* \"#utility.yul\":3045:3067   */\n      lt\n        /* \"#utility.yul\":3024:3042   */\n      0xffffffffffffffff\n        /* \"#utility.yul\":3012:3022   */\n      dup3\n        /* \"#utility.yul\":3009:3043   */\n      gt\n        /* \"#utility.yul\":3006:3068   */\n      or\n        /* \"#utility.yul\":3003:3091   */\n      iszero\n      tag_94\n      jumpi\n        /* \"#utility.yul\":3071:3089   */\n      tag_95\n      tag_37\n      jump\t// in\n    tag_95:\n        /* \"#utility.yul\":3003:3091   */\n    tag_94:\n        /* \"#utility.yul\":3111:3121   */\n      dup1\n        /* \"#utility.yul\":3107:3109   */\n      0x40\n        /* \"#utility.yul\":3100:3122   */\n      mstore\n        /* \"#utility.yul\":2890:3128   */\n      pop\n        /* \"#utility.yul\":2847:3128   */\n      pop\n      pop\n      jump\t// out\n        /* \"#utility.yul\":3134:3263   */\n    tag_39:\n        /* \"#utility.yul\":3168:3174   */\n      0x00\n        /* \"#utility.yul\":3195:3215   */\n      tag_97\n      tag_24\n      jump\t// in\n    tag_97:\n        /* \"#utility.yul\":3185:3215   */\n      swap1\n      pop\n        /* \"#utility.yul\":3224:3257   */\n      tag_98\n        /* \"#utility.yul\":3252:3256   */\n      dup3\n        /* \"#utility.yul\":3244:3250   */\n      dup3\n        /* \"#utility.yul\":3224:3257   */\n      tag_38\n      jump\t// in\n    tag_98:\n        /* \"#utility.yul\":3134:3263   */\n      swap2\n      swap1\n      pop\n      jump\t// out\n        /* \"#utility.yul\":3269:3577   */\n    tag_40:\n        /* \"#utility.yul\":3331:3335   */\n      0x00\n        /* \"#utility.yul\":3421:3439   */\n      0xffffffffffffffff\n        /* \"#utility.yul\":3413:3419   */\n      dup3\n        /* \"#utility.yul\":3410:3440   */\n      gt\n        /* \"#utility.yul\":3407:3463   */\n      iszero\n      tag_100\n      jumpi\n        /* \"#utility.yul\":3443:3461   */\n      tag_101\n      tag_37\n      jump\t// in\n    tag_101:\n        /* \"#utility.yul\":3407:3463   */\n    tag_100:\n        /* \"#utility.yul\":3481:3510   */\n      tag_102\n        /* \"#utility.yul\":3503:3509   */\n      dup3\n        /* \"#utility.yul\":3481:3510   */\n      tag_33\n      jump\t// in\n    tag_102:\n        /* \"#utility.yul\":3473:3510   */\n      swap1\n      pop\n        /* \"#utility.yul\":3565:3569   */\n      0x20\n        /* \"#utility.yul\":3559:3563   */\n      dup2\n        /* \"#utility.yul\":3555:3570   */\n      add\n        /* \"#utility.yul\":3547:3570   */\n      swap1\n      pop\n        /* \"#utility.yul\":3269:3577   */\n      swap2\n      swap1\n      pop\n      jump\t// out\n        /* \"#utility.yul\":3583:3737   */\n    tag_41:\n        /* \"#utility.yul\":3667:3673   */\n      dup3\n        /* \"#utility.yul\":3662:3665   */\n      dup2\n        /* \"#utility.yul\":3657:3660   */\n      dup4\n        /* \"#utility.yul\":3644:3674   */\n      calldatacopy\n        /* \"#utility.yul\":3729:3730   */\n      0x00\n        /* \"#utility.yul\":3720:3726   */\n      dup4\n        /* \"#utility.yul\":3715:3718   */\n      dup4\n        /* \"#utility.yul\":3711:3727   */\n      add\n        /* \"#utility.yul\":3704:3731   */\n      mstore\n        /* \"#utility.yul\":3583:3737   */\n      pop\n      pop\n      pop\n      jump\t// out\n        /* \"#utility.yul\":3743:4155   */\n    tag_42:\n        /* \"#utility.yul\":3821:3826   */\n      0x00\n        /* \"#utility.yul\":3846:3912   */\n      tag_105\n        /* \"#utility.yul\":3862:3911   */\n      tag_106\n        /* \"#utility.yul\":3904:3910   */\n      dup5\n        /* \"#utility.yul\":3862:3911   */\n      tag_40\n      jump\t// in\n    tag_106:\n        /* \"#utility.yul\":3846:3912   */\n      tag_39\n      jump\t// in\n    tag_105:\n        /* \"#utility.yul\":3837:3912   */\n      swap1\n      pop\n        /* \"#utility.yul\":3935:3941   */\n      dup3\n        /* \"#utility.yul\":3928:3933   */\n      dup2\n        /* \"#utility.yul\":3921:3942   */\n      mstore\n        /* \"#utility.yul\":3973:3977   */\n      0x20\n        /* \"#utility.yul\":3966:3971   */\n      dup2\n        /* \"#utility.yul\":3962:3978   */\n      add\n        /* \"#utility.yul\":4011:4014   */\n      dup5\n        /* \"#utility.yul\":4002:4008   */\n      dup5\n        /* \"#utility.yul\":3997:4000   */\n      dup5\n        /* \"#utility.yul\":3993:4009   */\n      add\n        /* \"#utility.yul\":3990:4015   */\n      gt\n        /* \"#utility.yul\":3987:4099   */\n      iszero\n      tag_107\n      jumpi\n        /* \"#utility.yul\":4018:4097   */\n      tag_108\n      tag_36\n      jump\t// in\n    tag_108:\n        /* \"#utility.yul\":3987:4099   */\n    tag_107:\n        /* \"#utility.yul\":4108:4149   */\n      tag_109\n        /* \"#utility.yul\":4142:4148   */\n      dup5\n        /* \"#utility.yul\":4137:4140   */\n      dup3\n        /* \"#utility.yul\":4132:4135   */\n      dup6\n        /* \"#utility.yul\":4108:4149   */\n      tag_41\n      jump\t// in\n    tag_109:\n        /* \"#utility.yul\":3827:4155   */\n      pop\n        /* \"#utility.yul\":3743:4155   */\n      swap4\n      swap3\n      pop\n      pop\n      pop\n      jump\t// out\n        /* \"#utility.yul\":4175:4515   */\n    tag_43:\n        /* \"#utility.yul\":4231:4236   */\n      0x00\n        /* \"#utility.yul\":4280:4283   */\n      dup3\n        /* \"#utility.yul\":4273:4277   */\n      0x1f\n        /* \"#utility.yul\":4265:4271   */\n      dup4\n        /* \"#utility.yul\":4261:4278   */\n      add\n        /* \"#utility.yul\":4257:4284   */\n      slt\n        /* \"#utility.yul\":4247:4369   */\n      tag_111\n      jumpi\n        /* \"#utility.yul\":4288:4367   */\n      tag_112\n      tag_35\n      jump\t// in\n    tag_112:\n        /* \"#utility.yul\":4247:4369   */\n    tag_111:\n        /* \"#utility.yul\":4405:4411   */\n      dup2\n        /* \"#utility.yul\":4392:4412   */\n      calldataload\n        /* \"#utility.yul\":4430:4509   */\n      tag_113\n        /* \"#utility.yul\":4505:4508   */\n      dup5\n        /* \"#utility.yul\":4497:4503   */\n      dup3\n        /* \"#utility.yul\":4490:4494   */\n      0x20\n        /* \"#utility.yul\":4482:4488   */\n      dup7\n        /* \"#utility.yul\":4478:4495   */\n      add\n        /* \"#utility.yul\":4430:4509   */\n      tag_42\n      jump\t// in\n    tag_113:\n        /* \"#utility.yul\":4421:4509   */\n      swap2\n      pop\n        /* \"#utility.yul\":4237:4515   */\n      pop\n        /* \"#utility.yul\":4175:4515   */\n      swap3\n      swap2\n      pop\n      pop\n      jump\t// out\n        /* \"#utility.yul\":4521:5175   */\n    tag_13:\n        /* \"#utility.yul\":4599:4605   */\n      0x00\n        /* \"#utility.yul\":4607:4613   */\n      dup1\n        /* \"#utility.yul\":4656:4658   */\n      0x40\n        /* \"#utility.yul\":4644:4653   */\n      dup4\n        /* \"#utility.yul\":4635:4642   */\n      dup6\n        /* \"#utility.yul\":4631:4654   */\n      sub\n        /* \"#utility.yul\":4627:4659   */\n      slt\n        /* \"#utility.yul\":4624:4743   */\n      iszero\n      tag_115\n      jumpi\n        /* \"#utility.yul\":4662:4741   */\n      tag_116\n      tag_25\n      jump\t// in\n    tag_116:\n        /* \"#utility.yul\":4624:4743   */\n    tag_115:\n        /* \"#utility.yul\":4782:4783   */\n      0x00\n        /* \"#utility.yul\":4807:4860   */\n      tag_117\n        /* \"#utility.yul\":4852:4859   */\n      dup6\n        /* \"#utility.yul\":4843:4849   */\n      dup3\n        /* \"#utility.yul\":4832:4841   */\n      dup7\n        /* \"#utility.yul\":4828:4850   */\n      add\n        /* \"#utility.yul\":4807:4860   */\n      tag_29\n      jump\t// in\n    tag_117:\n        /* \"#utility.yul\":4797:4860   */\n      swap3\n      pop\n        /* \"#utility.yul\":4753:4870   */\n      pop\n        /* \"#utility.yul\":4937:4939   */\n      0x20\n        /* \"#utility.yul\":4926:4935   */\n      dup4\n        /* \"#utility.yul\":4922:4940   */\n      add\n        /* \"#utility.yul\":4909:4941   */\n      calldataload\n        /* \"#utility.yul\":4968:4986   */\n      0xffffffffffffffff\n        /* \"#utility.yul\":4960:4966   */\n      dup2\n        /* \"#utility.yul\":4957:4987   */\n      gt\n        /* \"#utility.yul\":4954:5071   */\n      iszero\n      tag_118\n      jumpi\n        /* \"#utility.yul\":4990:5069   */\n      tag_119\n      tag_26\n      jump\t// in\n    tag_119:\n        /* \"#utility.yul\":4954:5071   */\n    tag_118:\n        /* \"#utility.yul\":5095:5158   */\n      tag_120\n        /* \"#utility.yul\":5150:5157   */\n      dup6\n        /* \"#utility.yul\":5141:5147   */\n      dup3\n        /* \"#utility.yul\":5130:5139   */\n      dup7\n        /* \"#utility.yul\":5126:5148   */\n      add\n        /* \"#utility.yul\":5095:5158   */\n      tag_43\n      jump\t// in\n    tag_120:\n        /* \"#utility.yul\":5085:5158   */\n      swap2\n      pop\n        /* \"#utility.yul\":4880:5168   */\n      pop\n        /* \"#utility.yul\":4521:5175   */\n      swap3\n      pop\n      swap3\n      swap1\n      pop\n      jump\t// out\n        /* \"#utility.yul\":5181:5361   */\n    tag_44:\n        /* \"#utility.yul\":5229:5306   */\n      0x4e487b7100000000000000000000000000000000000000000000000000000000\n        /* \"#utility.yul\":5226:5227   */\n      0x00\n        /* \"#utility.yul\":5219:5307   */\n      mstore\n        /* \"#utility.yul\":5326:5330   */\n      0x22\n        /* \"#utility.yul\":5323:5324   */\n      0x04\n        /* \"#utility.yul\":5316:5331   */\n      mstore\n        /* \"#utility.yul\":5350:5354   */\n      0x24\n        /* \"#utility.yul\":5347:5348   */\n      0x00\n        /* \"#utility.yul\":5340:5355   */\n      revert\n        /* \"#utility.yul\":5367:5687   */\n    tag_16:\n        /* \"#utility.yul\":5411:5417   */\n      0x00\n        /* \"#utility.yul\":5448:5449   */\n      0x02\n        /* \"#utility.yul\":5442:5446   */\n      dup3\n        /* \"#utility.yul\":5438:5450   */\n      div\n        /* \"#utility.yul\":5428:5450   */\n      swap1\n      pop\n        /* \"#utility.yul\":5495:5496   */\n      0x01\n        /* \"#utility.yul\":5489:5493   */\n      dup3\n        /* \"#utility.yul\":5485:5497   */\n      and\n        /* \"#utility.yul\":5516:5534   */\n      dup1\n        /* \"#utility.yul\":5506:5587   */\n      tag_123\n      jumpi\n        /* \"#utility.yul\":5572:5576   */\n      0x7f\n        /* \"#utility.yul\":5564:5570   */\n      dup3\n        /* \"#utility.yul\":5560:5577   */\n      and\n        /* \"#utility.yul\":5550:5577   */\n      swap2\n      pop\n        /* \"#utility.yul\":5506:5587   */\n    tag_123:\n        /* \"#utility.yul\":5634:5636   */\n      0x20\n        /* \"#utility.yul\":5626:5632   */\n      dup3\n        /* \"#utility.yul\":5623:5637   */\n      lt\n        /* \"#utility.yul\":5603:5621   */\n      dup2\n        /* \"#utility.yul\":5600:5638   */\n      sub\n        /* \"#utility.yul\":5597:5681   */\n      tag_124\n      jumpi\n        /* \"#utility.yul\":5653:5671   */\n      tag_125\n      tag_44\n      jump\t// in\n    tag_125:\n        /* \"#utility.yul\":5597:5681   */\n    tag_124:\n        /* \"#utility.yul\":5418:5687   */\n      pop\n        /* \"#utility.yul\":5367:5687   */\n      swap2\n      swap1\n      pop\n      jump\t// out\n        /* \"#utility.yul\":5693:5834   */\n    tag_45:\n        /* \"#utility.yul\":5742:5746   */\n      0x00\n        /* \"#utility.yul\":5765:5768   */\n      dup2\n        /* \"#utility.yul\":5757:5768   */\n      swap1\n      pop\n        /* \"#utility.yul\":5788:5791   */\n      dup2\n        /* \"#utility.yul\":5785:5786   */\n      0x00\n        /* \"#utility.yul\":5778:5792   */\n      mstore\n        /* \"#utility.yul\":5822:5826   */\n      0x20\n        /* \"#utility.yul\":5819:5820   */\n      0x00\n        /* \"#utility.yul\":5809:5827   */\n      keccak256\n        /* \"#utility.yul\":5801:5827   */\n      swap1\n      pop\n        /* \"#utility.yul\":5693:5834   */\n      swap2\n      swap1\n      pop\n      jump\t// out\n        /* \"#utility.yul\":5840:5933   */\n    tag_46:\n        /* \"#utility.yul\":5877:5883   */\n      0x00\n        /* \"#utility.yul\":5924:5926   */\n      0x20\n        /* \"#utility.yul\":5919:5921   */\n      0x1f\n        /* \"#utility.yul\":5912:5917   */\n      dup4\n        /* \"#utility.yul\":5908:5922   */\n      add\n        /* \"#utility.yul\":5904:5927   */\n      div\n        /* \"#utility.yul\":5894:5927   */\n      swap1\n      pop\n        /* \"#utility.yul\":5840:5933   */\n      swap2\n      swap1\n      pop\n      jump\t// out\n        /* \"#utility.yul\":5939:6046   */\n    tag_47:\n        /* \"#utility.yul\":5983:5991   */\n      0x00\n        /* \"#utility.yul\":6033:6038   */\n      dup3\n        /* \"#utility.yul\":6027:6031   */\n      dup3\n        /* \"#utility.yul\":6023:6039   */\n      shl\n        /* \"#utility.yul\":6002:6039   */\n      swap1\n      pop\n        /* \"#utility.yul\":5939:6046   */\n      swap3\n      swap2\n      pop\n      pop\n      jump\t// out\n        /* \"#utility.yul\":6052:6445   */\n    tag_48:\n        /* \"#utility.yul\":6121:6127   */\n      0x00\n        /* \"#utility.yul\":6171:6172   */\n      0x08\n        /* \"#utility.yul\":6159:6169   */\n      dup4\n        /* \"#utility.yul\":6155:6173   */\n      mul\n        /* \"#utility.yul\":6194:6291   */\n      tag_130\n        /* \"#utility.yul\":6224:6290   */\n      0xffffffffffffffffffffffffffffffffffffffffffffffffffffffffffffffff\n        /* \"#utility.yul\":6213:6222   */\n      dup3\n        /* \"#utility.yul\":6194:6291   */\n      tag_47\n      jump\t// in\n    tag_130:\n        /* \"#utility.yul\":6312:6351   */\n      tag_131\n        /* \"#utility.yul\":6342:6350   */\n      dup7\n        /* \"#utility.yul\":6331:6340   */\n      dup4\n        /* \"#utility.yul\":6312:6351   */\n      tag_47\n      jump\t// in\n    tag_131:\n        /* \"#utility.yul\":6300:6351   */\n      swap6\n      pop\n        /* \"#utility.yul\":6384:6388   */\n      dup1\n        /* \"#utility.yul\":6380:6389   */\n      not\n        /* \"#utility.yul\":6373:6378   */\n      dup5\n        /* \"#utility.yul\":6369:6390   */\n      and\n        /* \"#utility.yul\":6360:6390   */\n      swap4\n      pop\n        /* \"#utility.yul\":6433:6437   */\n      dup1\n        /* \"#utility.yul\":6423:6431   */\n      dup7\n        /* \"#utility.yul\":6419:6438   */\n      and\n        /* \"#utility.yul\":6412:6417   */\n      dup5\n        /* \"#utility.yul\":6409:6439   */\n      or\n        /* \"#utility.yul\":6399:6439   */\n      swap3\n      pop\n        /* \"#utility.yul\":6128:6445   */\n      pop\n      pop\n        /* \"#utility.yul\":6052:6445   */\n      swap4\n      swap3\n      pop\n      pop\n      pop\n      jump\t// out\n        /* \"#utility.yul\":6451:6511   */\n    tag_49:\n        /* \"#utility.yul\":6479:6482   */\n      0x00\n        /* \"#utility.yul\":6500:6505   */\n      dup2\n        /* \"#utility.yul\":6493:6505   */\n      swap1\n      pop\n        /* \"#utility.yul\":6451:6511   */\n      swap2\n      swap1\n      pop\n      jump\t// out\n        /* \"#utility.yul\":6517:6659   */\n    tag_50:\n        /* \"#utility.yul\":6567:6576   */\n      0x00\n        /* \"#utility.yul\":6600:6653   */\n      tag_134\n        /* \"#utility.yul\":6618:6652   */\n      tag_135\n        /* \"#utility.yul\":6627:6651   */\n      tag_136\n        /* \"#utility.yul\":6645:6650   */\n      dup5\n        /* \"#utility.yul\":6627:6651   */\n      tag_27\n      jump\t// in\n    tag_136:\n        /* \"#utility.yul\":6618:6652   */\n      tag_49\n      jump\t// in\n    tag_135:\n        /* \"#utility.yul\":6600:6653   */\n      tag_27\n      jump\t// in\n    tag_134:\n        /* \"#utility.yul\":6587:6653   */\n      swap1\n      pop\n        /* \"#utility.yul\":6517:6659   */\n      swap2\n      swap1\n      pop\n      jump\t// out\n        /* \"#utility.yul\":6665:6740   */\n    tag_51:\n        /* \"#utility.yul\":6708:6711   */\n      0x00\n        /* \"#utility.yul\":6729:6734   */\n      dup2\n        /* \"#utility.yul\":6722:6734   */\n      swap1\n      pop\n        /* \"#utility.yul\":6665:6740   */\n      swap2\n      swap1\n      pop\n      jump\t// out\n        /* \"#utility.yul\":6746:7015   */\n    tag_52:\n        /* \"#utility.yul\":6856:6895   */\n      tag_139\n        /* \"#utility.yul\":6887:6894   */\n      dup4\n        /* \"#utility.yul\":6856:6895   */\n      tag_50\n      jump\t// in\n    tag_139:\n        /* \"#utility.yul\":6917:7008   */\n      tag_140\n        /* \"#utility.yul\":6966:7007   */\n      tag_141\n        /* \"#utility.yul\":6990:7006   */\n      dup3\n        /* \"#utility.yul\":6966:7007   */\n      tag_51\n      jump\t// in\n    tag_141:\n        /* \"#utility.yul\":6958:6964   */\n      dup5\n        /* \"#utility.yul\":6951:6955   */\n      dup5\n        /* \"#utility.yul\":6945:6956   */\n      sload\n        /* \"#utility.yul\":6917:7008   */\n      tag_48\n      jump\t// in\n    tag_140:\n        /* \"#utility.yul\":6911:6915   */\n      dup3\n        /* \"#utility.yul\":6904:7009   */\n      sstore\n        /* \"#utility.yul\":6822:7015   */\n      pop\n        /* \"#utility.yul\":6746:7015   */\n      pop\n      pop\n      pop\n      jump\t// out\n        /* \"#utility.yul\":7021:7094   */\n    tag_53:\n        /* \"#utility.yul\":7066:7069   */\n      0x00\n        /* \"#utility.yul\":7021:7094   */\n      swap1\n      jump\t// out\n        /* \"#utility.yul\":7100:7289   */\n    tag_54:\n        /* \"#utility.yul\":7177:7209   */\n      tag_144\n      tag_53\n      jump\t// in\n    tag_144:\n        /* \"#utility.yul\":7218:7283   */\n      tag_145\n        /* \"#utility.yul\":7276:7282   */\n      dup2\n        /* \"#utility.yul\":7268:7274   */\n      dup5\n        /* \"#utility.yul\":7262:7266   */\n      dup5\n        /* \"#utility.yul\":7218:7283   */\n      tag_52\n      jump\t// in\n    tag_145:\n        /* \"#utility.yul\":7153:7289   */\n      pop\n        /* \"#utility.yul\":7100:7289   */\n      pop\n      pop\n      jump\t// out\n        /* \"#utility.yul\":7295:7481   */\n    tag_55:\n        /* \"#utility.yul\":7355:7475   */\n    tag_147:\n        /* \"#utility.yul\":7372:7375   */\n      dup2\n        /* \"#utility.yul\":7365:7370   */\n      dup2\n        /* \"#utility.yul\":7362:7376   */\n      lt\n        /* \"#utility.yul\":7355:7475   */\n      iszero\n      tag_149\n      jumpi\n        /* \"#utility.yul\":7426:7465   */\n      tag_150\n        /* \"#utility.yul\":7463:7464   */\n      0x00\n        /* \"#utility.yul\":7456:7461   */\n      dup3\n        /* \"#utility.yul\":7426:7465   */\n      tag_54\n      jump\t// in\n    tag_150:\n        /* \"#utility.yul\":7399:7400   */\n      0x01\n        /* \"#utility.yul\":7392:7397   */\n      dup2\n        /* \"#utility.yul\":7388:7401   */\n      add\n        /* \"#utility.yul\":7379:7401   */\n      swap1\n      pop\n        /* \"#utility.yul\":7355:7475   */\n      jump(tag_147)\n    tag_149:\n        /* \"#utility.yul\":7295:7481   */\n      pop\n      pop\n      jump\t// out\n        /* \"#utility.yul\":7487:8030   */\n    tag_56:\n        /* \"#utility.yul\":7588:7590   */\n      0x1f\n        /* \"#utility.yul\":7583:7586   */\n      dup3\n        /* \"#utility.yul\":7580:7591   */\n      gt\n        /* \"#utility.yul\":7577:8023   */\n      iszero\n      tag_152\n      jumpi\n        /* \"#utility.yul\":7622:7660   */\n      tag_153\n        /* \"#utility.yul\":7654:7659   */\n      dup2\n        /* \"#utility.yul\":7622:7660   */\n      tag_45\n      jump\t// in\n    tag_153:\n        /* \"#utility.yul\":7706:7735   */\n      tag_154\n        /* \"#utility.yul\":7724:7734   */\n      dup5\n        /* \"#utility.yul\":7706:7735   */\n      tag_46\n      jump\t// in\n    tag_154:\n        /* \"#utility.yul\":7696:7704   */\n      dup2\n        /* \"#utility.yul\":7692:7736   */\n      add\n        /* \"#utility.yul\":7889:7891   */\n      0x20\n        /* \"#utility.yul\":7877:7887   */\n      dup6\n        /* \"#utility.yul\":7874:7892   */\n      lt\n        /* \"#utility.yul\":7871:7920   */\n      iszero\n      tag_155\n      jumpi\n        /* \"#utility.yul\":7910:7918   */\n      dup2\n        /* \"#utility.yul\":7895:7918   */\n      swap1\n      pop\n        /* \"#utility.yul\":7871:7920   */\n    tag_155:\n        /* \"#utility.yul\":7933:8013   */\n      tag_156\n        /* \"#utility.yul\":7989:8011   */\n      tag_157\n        /* \"#utility.yul\":8007:8010   */\n      dup6\n        /* \"#utility.yul\":7989:8011   */\n      tag_46\n      jump\t// in\n    tag_157:\n        /* \"#utility.yul\":7979:7987   */\n      dup4\n        /* \"#utility.yul\":7975:8012   */\n      add\n        /* \"#utility.yul\":7962:7973   */\n      dup3\n        /* \"#utility.yul\":7933:8013   */\n      tag_55\n      jump\t// in\n    tag_156:\n        /* \"#utility.yul\":7592:8023   */\n      pop\n      pop\n        /* \"#utility.yul\":7577:8023   */\n    tag_152:\n        /* \"#utility.yul\":7487:8030   */\n      pop\n      pop\n      pop\n      jump\t// out\n        /* \"#utility.yul\":8036:8153   */\n    tag_57:\n        /* \"#utility.yul\":8090:8098   */\n      0x00\n        /* \"#utility.yul\":8140:8145   */\n      dup3\n        /* \"#utility.yul\":8134:8138   */\n      dup3\n        /* \"#utility.yul\":8130:8146   */\n      shr\n        /* \"#utility.yul\":8109:8146   */\n      swap1\n      pop\n        /* \"#utility.yul\":8036:8153   */\n      swap3\n      swap2\n      pop\n      pop\n      jump\t// out\n        /* \"#utility.yul\":8159:8328   */\n    tag_58:\n        /* \"#utility.yul\":8203:8209   */\n      0x00\n        /* \"#utility.yul\":8236:8287   */\n      tag_160\n        /* \"#utility.yul\":8284:8285   */\n      0x00\n        /* \"#utility.yul\":8280:8286   */\n      not\n        /* \"#utility.yul\":8272:8277   */\n      dup5\n        /* \"#utility.yul\":8269:8270   */\n      0x08\n        /* \"#utility.yul\":8265:8278   */\n      mul\n        /* \"#utility.yul\":8236:8287   */\n      tag_57\n      jump\t// in\n    tag_160:\n        /* \"#utility.yul\":8232:8288   */\n      not\n        /* \"#utility.yul\":8317:8321   */\n      dup1\n        /* \"#utility.yul\":8311:8315   */\n      dup4\n        /* \"#utility.yul\":8307:8322   */\n      and\n        /* \"#utility.yul\":8297:8322   */\n      swap2\n      pop\n        /* \"#utility.yul\":8210:8328   */\n      pop\n        /* \"#utility.yul\":8159:8328   */\n      swap3\n      swap2\n      pop\n      pop\n      jump\t// out\n        /* \"#utility.yul\":8333:8628   */\n    tag_59:\n        /* \"#utility.yul\":8409:8413   */\n      0x00\n        /* \"#utility.yul\":8555:8584   */\n      tag_162\n        /* \"#utility.yul\":8580:8583   */\n      dup4\n        /* \"#utility.yul\":8574:8578   */\n      dup4\n        /* \"#utility.yul\":8555:8584   */\n      tag_58\n      jump\t// in\n    tag_162:\n        /* \"#utility.yul\":8547:8584   */\n      swap2\n      pop\n        /* \"#utility.yul\":8617:8620   */\n      dup3\n        /* \"#utility.yul\":8614:8615   */\n      0x02\n        /* \"#utility.yul\":8610:8621   */\n      mul\n        /* \"#utility.yul\":8604:8608   */\n      dup3\n        /* \"#utility.yul\":8601:8622   */\n      or\n        /* \"#utility.yul\":8593:8622   */\n      swap1\n      pop\n        /* \"#utility.yul\":8333:8628   */\n      swap3\n      swap2\n      pop\n      pop\n      jump\t// out\n        /* \"#utility.yul\":8633:10028   */\n    tag_23:\n        /* \"#utility.yul\":8750:8787   */\n      tag_164\n        /* \"#utility.yul\":8783:8786   */\n      dup3\n        /* \"#utility.yul\":8750:8787   */\n      tag_30\n      jump\t// in\n    tag_164:\n        /* \"#utility.yul\":8852:8870   */\n      0xffffffffffffffff\n        /* \"#utility.yul\":8844:8850   */\n      dup2\n        /* \"#utility.yul\":8841:8871   */\n      gt\n        /* \"#utility.yul\":8838:8894   */\n      iszero\n      tag_165\n      jumpi\n        /* \"#utility.yul\":8874:8892   */\n      tag_166\n      tag_37\n      jump\t// in\n    tag_166:\n        /* \"#utility.yul\":8838:8894   */\n    tag_165:\n        /* \"#utility.yul\":8918:8956   */\n      tag_167\n        /* \"#utility.yul\":8950:8954   */\n      dup3\n        /* \"#utility.yul\":8944:8955   */\n      sload\n        /* \"#utility.yul\":8918:8956   */\n      tag_16\n      jump\t// in\n    tag_167:\n        /* \"#utility.yul\":9003:9070   */\n      tag_168\n        /* \"#utility.yul\":9063:9069   */\n      dup3\n        /* \"#utility.yul\":9055:9061   */\n      dup3\n        /* \"#utility.yul\":9049:9053   */\n      dup6\n        /* \"#utility.yul\":9003:9070   */\n      tag_56\n      jump\t// in\n    tag_168:\n        /* \"#utility.yul\":9097:9098   */\n      0x00\n        /* \"#utility.yul\":9121:9125   */\n      0x20\n        /* \"#utility.yul\":9108:9125   */\n      swap1\n      pop\n        /* \"#utility.yul\":9153:9155   */\n      0x1f\n        /* \"#utility.yul\":9145:9151   */\n      dup4\n        /* \"#utility.yul\":9142:9156   */\n      gt\n        /* \"#utility.yul\":9170:9171   */\n      0x01\n        /* \"#utility.yul\":9165:9783   */\n      dup2\n      eq\n      tag_170\n      jumpi\n        /* \"#utility.yul\":9827:9828   */\n      0x00\n        /* \"#utility.yul\":9844:9850   */\n      dup5\n        /* \"#utility.yul\":9841:9918   */\n      iszero\n      tag_171\n      jumpi\n        /* \"#utility.yul\":9893:9902   */\n      dup3\n        /* \"#utility.yul\":9888:9891   */\n      dup8\n        /* \"#utility.yul\":9884:9903   */\n      add\n        /* \"#utility.yul\":9878:9904   */\n      mload\n        /* \"#utility.yul\":9869:9904   */\n      swap1\n      pop\n        /* \"#utility.yul\":9841:9918   */\n    tag_171:\n        /* \"#utility.yul\":9944:10011   */\n      tag_172\n        /* \"#utility.yul\":10004:10010   */\n      dup6\n        /* \"#utility.yul\":9997:10002   */\n      dup3\n        /* \"#utility.yul\":9944:10011   */\n      tag_59\n      jump\t// in\n    tag_172:\n        /* \"#utility.yul\":9938:9942   */\n      dup7\n        /* \"#utility.yul\":9931:10012   */\n      sstore\n        /* \"#utility.yul\":9800:10022   */\n      pop\n        /* \"#utility.yul\":9135:10022   */\n      jump(tag_169)\n        /* \"#utility.yul\":9165:9783   */\n    tag_170:\n        /* \"#utility.yul\":9217:9221   */\n      0x1f\n        /* \"#utility.yul\":9213:9222   */\n      not\n        /* \"#utility.yul\":9205:9211   */\n      dup5\n        /* \"#utility.yul\":9201:9223   */\n      and\n        /* \"#utility.yul\":9251:9288   */\n      tag_173\n        /* \"#utility.yul\":9283:9287   */\n      dup7\n        /* \"#utility.yul\":9251:9288   */\n      tag_45\n      jump\t// in\n    tag_173:\n        /* \"#utility.yul\":9310:9311   */\n      0x00\n        /* \"#utility.yul\":9324:9532   */\n    tag_174:\n        /* \"#utility.yul\":9338:9345   */\n      dup3\n        /* \"#utility.yul\":9335:9336   */\n      dup2\n        /* \"#utility.yul\":9332:9346   */\n      lt\n        /* \"#utility.yul\":9324:9532   */\n      iszero\n      tag_176\n      jumpi\n        /* \"#utility.yul\":9417:9426   */\n      dup5\n        /* \"#utility.yul\":9412:9415   */\n      dup10\n        /* \"#utility.yul\":9408:9427   */\n      add\n        /* \"#utility.yul\":9402:9428   */\n      mload\n        /* \"#utility.yul\":9394:9400   */\n      dup3\n        /* \"#utility.yul\":9387:9429   */\n      sstore\n        /* \"#utility.yul\":9468:9469   */\n      0x01\n        /* \"#utility.yul\":9460:9466   */\n      dup3\n        /* \"#utility.yul\":9456:9470   */\n      add\n        /* \"#utility.yul\":9446:9470   */\n      swap2\n      pop\n        /* \"#utility.yul\":9515:9517   */\n      0x20\n        /* \"#utility.yul\":9504:9513   */\n      dup6\n        /* \"#utility.yul\":9500:9518   */\n      add\n        /* \"#utility.yul\":9487:9518   */\n      swap5\n      pop\n        /* \"#utility.yul\":9361:9365   */\n      0x20\n        /* \"#utility.yul\":9358:9359   */\n      dup2\n        /* \"#utility.yul\":9354:9366   */\n      add\n        /* \"#utility.yul\":9349:9366   */\n      swap1\n      pop\n        /* \"#utility.yul\":9324:9532   */\n      jump(tag_174)\n    tag_176:\n        /* \"#utility.yul\":9560:9566   */\n      dup7\n        /* \"#utility.yul\":9551:9558   */\n      dup4\n        /* \"#utility.yul\":9548:9567   */\n      lt\n        /* \"#utility.yul\":9545:9724   */\n      iszero\n      tag_177\n      jumpi\n        /* \"#utility.yul\":9618:9627   */\n      dup5\n        /* \"#utility.yul\":9613:9616   */\n      dup10\n        /* \"#utility.yul\":9609:9628   */\n      add\n        /* \"#utility.yul\":9603:9629   */\n      mload\n        /* \"#utility.yul\":9661:9709   */\n      tag_178\n        /* \"#utility.yul\":9703:9707   */\n      0x1f\n        /* \"#utility.yul\":9695:9701   */\n      dup10\n        /* \"#utility.yul\":9691:9708   */\n      and\n        /* \"#utility.yul\":9680:9689   */\n      dup3\n        /* \"#utility.yul\":9661:9709   */\n      tag_58\n      jump\t// in\n    tag_178:\n        /* \"#utility.yul\":9653:9659   */\n      dup4\n        /* \"#utility.yul\":9646:9710   */\n      sstore\n        /* \"#utility.yul\":9568:9724   */\n      pop\n        /* \"#utility.yul\":9545:9724   */\n    tag_177:\n        /* \"#utility.yul\":9770:9771   */\n      0x01\n        /* \"#utility.yul\":9766:9767   */\n      0x02\n        /* \"#utility.yul\":9758:9764   */\n      dup9\n        /* \"#utility.yul\":9754:9768   */\n      mul\n        /* \"#utility.yul\":9750:9772   */\n      add\n        /* \"#utility.yul\":9744:9748   */\n      dup9\n        /* \"#utility.yul\":9737:9773   */\n      sstore\n        /* \"#utility.yul\":9172:9783   */\n      pop\n      pop\n      pop\n        /* \"#utility.yul\":9135:10022   */\n    tag_169:\n      pop\n        /* \"#utility.yul\":8725:10028   */\n      pop\n      pop\n      pop\n        /* \"#utility.yul\":8633:10028   */\n      pop\n      pop\n      jump\t// out\n\n    auxdata: 0xa26469706673582212200e1bdbf55b5aef30a9b5dacc1861faa7b29395b91002874042686913e035115b64736f6c634300080f0033\n}\n",
				"bytecode": {
					"linkReferences": {},
					"object": "608060405234801561001057600080fd5b50610722806100206000396000f3fe608060405234801561001057600080fd5b50600436106100365760003560e01c8063a85e58ca1461003b578063bcb131c91461006b575b600080fd5b61005560048036038101906100509190610195565b610087565b604051610062919061025b565b60405180910390f35b610085600480360381019061008091906103b2565b610127565b005b600060205280600052604060002060009150905080546100a69061043d565b80601f01602080910402602001604051908101604052809291908181526020018280546100d29061043d565b801561011f5780601f106100f45761010080835404028352916020019161011f565b820191906000526020600020905b81548152906001019060200180831161010257829003601f168201915b505050505081565b806000808481526020019081526020016000209081610146919061061a565b505050565b6000604051905090565b600080fd5b600080fd5b6000819050919050565b6101728161015f565b811461017d57600080fd5b50565b60008135905061018f81610169565b92915050565b6000602082840312156101ab576101aa610155565b5b60006101b984828501610180565b91505092915050565b600081519050919050565b600082825260208201905092915050565b60005b838110156101fc5780820151818401526020810190506101e1565b8381111561020b576000848401525b50505050565b6000601f19601f8301169050919050565b600061022d826101c2565b61023781856101cd565b93506102478185602086016101de565b61025081610211565b840191505092915050565b600060208201905081810360008301526102758184610222565b905092915050565b600080fd5b600080fd5b7f4e487b7100000000000000000000000000000000000000000000000000000000600052604160045260246000fd5b6102bf82610211565b810181811067ffffffffffffffff821117156102de576102dd610287565b5b80604052505050565b60006102f161014b565b90506102fd82826102b6565b919050565b600067ffffffffffffffff82111561031d5761031c610287565b5b61032682610211565b9050602081019050919050565b82818337600083830152505050565b600061035561035084610302565b6102e7565b90508281526020810184848401111561037157610370610282565b5b61037c848285610333565b509392505050565b600082601f8301126103995761039861027d565b5b81356103a9848260208601610342565b91505092915050565b600080604083850312156103c9576103c8610155565b5b60006103d785828601610180565b925050602083013567ffffffffffffffff8111156103f8576103f761015a565b5b61040485828601610384565b9150509250929050565b7f4e487b7100000000000000000000000000000000000000000000000000000000600052602260045260246000fd5b6000600282049050600182168061045557607f821691505b6020821081036104685761046761040e565b5b50919050565b60008190508160005260206000209050919050565b60006020601f8301049050919050565b600082821b905092915050565b6000600883026104d07fffffffffffffffffffffffffffffffffffffffffffffffffffffffffffffffff82610493565b6104da8683610493565b95508019841693508086168417925050509392505050565b6000819050919050565b600061051761051261050d8461015f565b6104f2565b61015f565b9050919050565b6000819050919050565b610531836104fc565b61054561053d8261051e565b8484546104a0565b825550505050565b600090565b61055a61054d565b610565818484610528565b505050565b5b818110156105895761057e600082610552565b60018101905061056b565b5050565b601f8211156105ce5761059f8161046e565b6105a884610483565b810160208510156105b7578190505b6105cb6105c385610483565b83018261056a565b50505b505050565b600082821c905092915050565b60006105f1600019846008026105d3565b1980831691505092915050565b600061060a83836105e0565b9150826002028217905092915050565b610623826101c2565b67ffffffffffffffff81111561063c5761063b610287565b5b610646825461043d565b61065182828561058d565b600060209050601f8311600181146106845760008415610672578287015190505b61067c85826105fe565b8655506106e4565b601f1984166106928661046e565b60005b828110156106ba57848901518255600182019150602085019450602081019050610695565b868310156106d757848901516106d3601f8916826105e0565b8355505b6001600288020188555050505b50505050505056fea26469706673582212200e1bdbf55b5aef30a9b5dacc1861faa7b29395b91002874042686913e035115b64736f6c634300080f0033",
					"opcodes": "PUSH1 0x80 PUSH1 0x40 MSTORE CALLVALUE DUP1 ISZERO PUSH2 0x10 JUMPI PUSH1 0x0 DUP1 REVERT JUMPDEST POP PUSH2 0x722 DUP1 PUSH2 0x20 PUSH1 0x0 CODECOPY PUSH1 0x0 RETURN INVALID PUSH1 0x80 PUSH1 0x40 MSTORE CALLVALUE DUP1 ISZERO PUSH2 0x10 JUMPI PUSH1 0x0 DUP1 REVERT JUMPDEST POP PUSH1 0x4 CALLDATASIZE LT PUSH2 0x36 JUMPI PUSH1 0x0 CALLDATALOAD PUSH1 0xE0 SHR DUP1 PUSH4 0xA85E58CA EQ PUSH2 0x3B JUMPI DUP1 PUSH4 0xBCB131C9 EQ PUSH2 0x6B JUMPI JUMPDEST PUSH1 0x0 DUP1 REVERT JUMPDEST PUSH2 0x55 PUSH1 0x4 DUP1 CALLDATASIZE SUB DUP2 ADD SWAP1 PUSH2 0x50 SWAP2 SWAP1 PUSH2 0x195 JUMP JUMPDEST PUSH2 0x87 JUMP JUMPDEST PUSH1 0x40 MLOAD PUSH2 0x62 SWAP2 SWAP1 PUSH2 0x25B JUMP JUMPDEST PUSH1 0x40 MLOAD DUP1 SWAP2 SUB SWAP1 RETURN JUMPDEST PUSH2 0x85 PUSH1 0x4 DUP1 CALLDATASIZE SUB DUP2 ADD SWAP1 PUSH2 0x80 SWAP2 SWAP1 PUSH2 0x3B2 JUMP JUMPDEST PUSH2 0x127 JUMP JUMPDEST STOP JUMPDEST PUSH1 0x0 PUSH1 0x20 MSTORE DUP1 PUSH1 0x0 MSTORE PUSH1 0x40 PUSH1 0x0 KECCAK256 PUSH1 0x0 SWAP2 POP SWAP1 POP DUP1 SLOAD PUSH2 0xA6 SWAP1 PUSH2 0x43D JUMP JUMPDEST DUP1 PUSH1 0x1F ADD PUSH1 0x20 DUP1 SWAP2 DIV MUL PUSH1 0x20 ADD PUSH1 0x40 MLOAD SWAP1 DUP2 ADD PUSH1 0x40 MSTORE DUP1 SWAP3 SWAP2 SWAP1 DUP2 DUP2 MSTORE PUSH1 0x20 ADD DUP3 DUP1 SLOAD PUSH2 0xD2 SWAP1 PUSH2 0x43D JUMP JUMPDEST DUP1 ISZERO PUSH2 0x11F JUMPI DUP1 PUSH1 0x1F LT PUSH2 0xF4 JUMPI PUSH2 0x100 DUP1 DUP4 SLOAD DIV MUL DUP4 MSTORE SWAP2 PUSH1 0x20 ADD SWAP2 PUSH2 0x11F JUMP JUMPDEST DUP3 ADD SWAP2 SWAP1 PUSH1 0x0 MSTORE PUSH1 0x20 PUSH1 0x0 KECCAK256 SWAP1 JUMPDEST DUP2 SLOAD DUP2 MSTORE SWAP1 PUSH1 0x1 ADD SWAP1 PUSH1 0x20 ADD DUP1 DUP4 GT PUSH2 0x102 JUMPI DUP3 SWAP1 SUB PUSH1 0x1F AND DUP3 ADD SWAP2 JUMPDEST POP POP POP POP POP DUP2 JUMP JUMPDEST DUP1 PUSH1 0x0 DUP1 DUP5 DUP2 MSTORE PUSH1 0x20 ADD SWAP1 DUP2 MSTORE PUSH1 0x20 ADD PUSH1 0x0 KECCAK256 SWAP1 DUP2 PUSH2 0x146 SWAP2 SWAP1 PUSH2 0x61A JUMP JUMPDEST POP POP POP JUMP JUMPDEST PUSH1 0x0 PUSH1 0x40 MLOAD SWAP1 POP SWAP1 JUMP JUMPDEST PUSH1 0x0 DUP1 REVERT JUMPDEST PUSH1 0x0 DUP1 REVERT JUMPDEST PUSH1 0x0 DUP2 SWAP1 POP SWAP2 SWAP1 POP JUMP JUMPDEST PUSH2 0x172 DUP2 PUSH2 0x15F JUMP JUMPDEST DUP2 EQ PUSH2 0x17D JUMPI PUSH1 0x0 DUP1 REVERT JUMPDEST POP JUMP JUMPDEST PUSH1 0x0 DUP2 CALLDATALOAD SWAP1 POP PUSH2 0x18F DUP2 PUSH2 0x169 JUMP JUMPDEST SWAP3 SWAP2 POP POP JUMP JUMPDEST PUSH1 0x0 PUSH1 0x20 DUP3 DUP5 SUB SLT ISZERO PUSH2 0x1AB JUMPI PUSH2 0x1AA PUSH2 0x155 JUMP JUMPDEST JUMPDEST PUSH1 0x0 PUSH2 0x1B9 DUP5 DUP3 DUP6 ADD PUSH2 0x180 JUMP JUMPDEST SWAP2 POP POP SWAP3 SWAP2 POP POP JUMP JUMPDEST PUSH1 0x0 DUP2 MLOAD SWAP1 POP SWAP2 SWAP1 POP JUMP JUMPDEST PUSH1 0x0 DUP3 DUP3 MSTORE PUSH1 0x20 DUP3 ADD SWAP1 POP SWAP3 SWAP2 POP POP JUMP JUMPDEST PUSH1 0x0 JUMPDEST DUP4 DUP2 LT ISZERO PUSH2 0x1FC JUMPI DUP1 DUP3 ADD MLOAD DUP2 DUP5 ADD MSTORE PUSH1 0x20 DUP2 ADD SWAP1 POP PUSH2 0x1E1 JUMP JUMPDEST DUP4 DUP2 GT ISZERO PUSH2 0x20B JUMPI PUSH1 0x0 DUP5 DUP5 ADD MSTORE JUMPDEST POP POP POP POP JUMP JUMPDEST PUSH1 0x0 PUSH1 0x1F NOT PUSH1 0x1F DUP4 ADD AND SWAP1 POP SWAP2 SWAP1 POP JUMP JUMPDEST PUSH1 0x0 PUSH2 0x22D DUP3 PUSH2 0x1C2 JUMP JUMPDEST PUSH2 0x237 DUP2 DUP6 PUSH2 0x1CD JUMP JUMPDEST SWAP4 POP PUSH2 0x247 DUP2 DUP6 PUSH1 0x20 DUP7 ADD PUSH2 0x1DE JUMP JUMPDEST PUSH2 0x250 DUP2 PUSH2 0x211 JUMP JUMPDEST DUP5 ADD SWAP2 POP POP SWAP3 SWAP2 POP POP JUMP JUMPDEST PUSH1 0x0 PUSH1 0x20 DUP3 ADD SWAP1 POP DUP2 DUP2 SUB PUSH1 0x0 DUP4 ADD MSTORE PUSH2 0x275 DUP2 DUP5 PUSH2 0x222 JUMP JUMPDEST SWAP1 POP SWAP3 SWAP2 POP POP JUMP JUMPDEST PUSH1 0x0 DUP1 REVERT JUMPDEST PUSH1 0x0 DUP1 REVERT JUMPDEST PUSH32 0x4E487B7100000000000000000000000000000000000000000000000000000000 PUSH1 0x0 MSTORE PUSH1 0x41 PUSH1 0x4 MSTORE PUSH1 0x24 PUSH1 0x0 REVERT JUMPDEST PUSH2 0x2BF DUP3 PUSH2 0x211 JUMP JUMPDEST DUP2 ADD DUP2 DUP2 LT PUSH8 0xFFFFFFFFFFFFFFFF DUP3 GT OR ISZERO PUSH2 0x2DE JUMPI PUSH2 0x2DD PUSH2 0x287 JUMP JUMPDEST JUMPDEST DUP1 PUSH1 0x40 MSTORE POP POP POP JUMP JUMPDEST PUSH1 0x0 PUSH2 0x2F1 PUSH2 0x14B JUMP JUMPDEST SWAP1 POP PUSH2 0x2FD DUP3 DUP3 PUSH2 0x2B6 JUMP JUMPDEST SWAP2 SWAP1 POP JUMP JUMPDEST PUSH1 0x0 PUSH8 0xFFFFFFFFFFFFFFFF DUP3 GT ISZERO PUSH2 0x31D JUMPI PUSH2 0x31C PUSH2 0x287 JUMP JUMPDEST JUMPDEST PUSH2 0x326 DUP3 PUSH2 0x211 JUMP JUMPDEST SWAP1 POP PUSH1 0x20 DUP2 ADD SWAP1 POP SWAP2 SWAP1 POP JUMP JUMPDEST DUP3 DUP2 DUP4 CALLDATACOPY PUSH1 0x0 DUP4 DUP4 ADD MSTORE POP POP POP JUMP JUMPDEST PUSH1 0x0 PUSH2 0x355 PUSH2 0x350 DUP5 PUSH2 0x302 JUMP JUMPDEST PUSH2 0x2E7 JUMP JUMPDEST SWAP1 POP DUP3 DUP2 MSTORE PUSH1 0x20 DUP2 ADD DUP5 DUP5 DUP5 ADD GT ISZERO PUSH2 0x371 JUMPI PUSH2 0x370 PUSH2 0x282 JUMP JUMPDEST JUMPDEST PUSH2 0x37C DUP5 DUP3 DUP6 PUSH2 0x333 JUMP JUMPDEST POP SWAP4 SWAP3 POP POP POP JUMP JUMPDEST PUSH1 0x0 DUP3 PUSH1 0x1F DUP4 ADD SLT PUSH2 0x399 JUMPI PUSH2 0x398 PUSH2 0x27D JUMP JUMPDEST JUMPDEST DUP2 CALLDATALOAD PUSH2 0x3A9 DUP5 DUP3 PUSH1 0x20 DUP7 ADD PUSH2 0x342 JUMP JUMPDEST SWAP2 POP POP SWAP3 SWAP2 POP POP JUMP JUMPDEST PUSH1 0x0 DUP1 PUSH1 0x40 DUP4 DUP6 SUB SLT ISZERO PUSH2 0x3C9 JUMPI PUSH2 0x3C8 PUSH2 0x155 JUMP JUMPDEST JUMPDEST PUSH1 0x0 PUSH2 0x3D7 DUP6 DUP3 DUP7 ADD PUSH2 0x180 JUMP JUMPDEST SWAP3 POP POP PUSH1 0x20 DUP4 ADD CALLDATALOAD PUSH8 0xFFFFFFFFFFFFFFFF DUP2 GT ISZERO PUSH2 0x3F8 JUMPI PUSH2 0x3F7 PUSH2 0x15A JUMP JUMPDEST JUMPDEST PUSH2 0x404 DUP6 DUP3 DUP7 ADD PUSH2 0x384 JUMP JUMPDEST SWAP2 POP POP SWAP3 POP SWAP3 SWAP1 POP JUMP JUMPDEST PUSH32 0x4E487B7100000000000000000000000000000000000000000000000000000000 PUSH1 0x0 MSTORE PUSH1 0x22 PUSH1 0x4 MSTORE PUSH1 0x24 PUSH1 0x0 REVERT JUMPDEST PUSH1 0x0 PUSH1 0x2 DUP3 DIV SWAP1 POP PUSH1 0x1 DUP3 AND DUP1 PUSH2 0x455 JUMPI PUSH1 0x7F DUP3 AND SWAP2 POP JUMPDEST PUSH1 0x20 DUP3 LT DUP2 SUB PUSH2 0x468 JUMPI PUSH2 0x467 PUSH2 0x40E JUMP JUMPDEST JUMPDEST POP SWAP2 SWAP1 POP JUMP JUMPDEST PUSH1 0x0 DUP2 SWAP1 POP DUP2 PUSH1 0x0 MSTORE PUSH1 0x20 PUSH1 0x0 KECCAK256 SWAP1 POP SWAP2 SWAP1 POP JUMP JUMPDEST PUSH1 0x0 PUSH1 0x20 PUSH1 0x1F DUP4 ADD DIV SWAP1 POP SWAP2 SWAP1 POP JUMP JUMPDEST PUSH1 0x0 DUP3 DUP3 SHL SWAP1 POP SWAP3 SWAP2 POP POP JUMP JUMPDEST PUSH1 0x0 PUSH1 0x8 DUP4 MUL PUSH2 0x4D0 PUSH32 0xFFFFFFFFFFFFFFFFFFFFFFFFFFFFFFFFFFFFFFFFFFFFFFFFFFFFFFFFFFFFFFFF DUP3 PUSH2 0x493 JUMP JUMPDEST PUSH2 0x4DA DUP7 DUP4 PUSH2 0x493 JUMP JUMPDEST SWAP6 POP DUP1 NOT DUP5 AND SWAP4 POP DUP1 DUP7 AND DUP5 OR SWAP3 POP POP POP SWAP4 SWAP3 POP POP POP JUMP JUMPDEST PUSH1 0x0 DUP2 SWAP1 POP SWAP2 SWAP1 POP JUMP JUMPDEST PUSH1 0x0 PUSH2 0x517 PUSH2 0x512 PUSH2 0x50D DUP5 PUSH2 0x15F JUMP JUMPDEST PUSH2 0x4F2 JUMP JUMPDEST PUSH2 0x15F JUMP JUMPDEST SWAP1 POP SWAP2 SWAP1 POP JUMP JUMPDEST PUSH1 0x0 DUP2 SWAP1 POP SWAP2 SWAP1 POP JUMP JUMPDEST PUSH2 0x531 DUP4 PUSH2 0x4FC JUMP JUMPDEST PUSH2 0x545 PUSH2 0x53D DUP3 PUSH2 0x51E JUMP JUMPDEST DUP5 DUP5 SLOAD PUSH2 0x4A0 JUMP JUMPDEST DUP3 SSTORE POP POP POP POP JUMP JUMPDEST PUSH1 0x0 SWAP1 JUMP JUMPDEST PUSH2 0x55A PUSH2 0x54D JUMP JUMPDEST PUSH2 0x565 DUP2 DUP5 DUP5 PUSH2 0x528 JUMP JUMPDEST POP POP POP JUMP JUMPDEST JUMPDEST DUP2 DUP2 LT ISZERO PUSH2 0x589 JUMPI PUSH2 0x57E PUSH1 0x0 DUP3 PUSH2 0x552 JUMP JUMPDEST PUSH1 0x1 DUP2 ADD SWAP1 POP PUSH2 0x56B JUMP JUMPDEST POP POP JUMP JUMPDEST PUSH1 0x1F DUP3 GT ISZERO PUSH2 0x5CE JUMPI PUSH2 0x59F DUP2 PUSH2 0x46E JUMP JUMPDEST PUSH2 0x5A8 DUP5 PUSH2 0x483 JUMP JUMPDEST DUP2 ADD PUSH1 0x20 DUP6 LT ISZERO PUSH2 0x5B7 JUMPI DUP2 SWAP1 POP JUMPDEST PUSH2 0x5CB PUSH2 0x5C3 DUP6 PUSH2 0x483 JUMP JUMPDEST DUP4 ADD DUP3 PUSH2 0x56A JUMP JUMPDEST POP POP JUMPDEST POP POP POP JUMP JUMPDEST PUSH1 0x0 DUP3 DUP3 SHR SWAP1 POP SWAP3 SWAP2 POP POP JUMP JUMPDEST PUSH1 0x0 PUSH2 0x5F1 PUSH1 0x0 NOT DUP5 PUSH1 0x8 MUL PUSH2 0x5D3 JUMP JUMPDEST NOT DUP1 DUP4 AND SWAP2 POP POP SWAP3 SWAP2 POP POP JUMP JUMPDEST PUSH1 0x0 PUSH2 0x60A DUP4 DUP4 PUSH2 0x5E0 JUMP JUMPDEST SWAP2 POP DUP3 PUSH1 0x2 MUL DUP3 OR SWAP1 POP SWAP3 SWAP2 POP POP JUMP JUMPDEST PUSH2 0x623 DUP3 PUSH2 0x1C2 JUMP JUMPDEST PUSH8 0xFFFFFFFFFFFFFFFF DUP2 GT ISZERO PUSH2 0x63C JUMPI PUSH2 0x63B PUSH2 0x287 JUMP JUMPDEST JUMPDEST PUSH2 0x646 DUP3 SLOAD PUSH2 0x43D JUMP JUMPDEST PUSH2 0x651 DUP3 DUP3 DUP6 PUSH2 0x58D JUMP JUMPDEST PUSH1 0x0 PUSH1 0x20 SWAP1 POP PUSH1 0x1F DUP4 GT PUSH1 0x1 DUP2 EQ PUSH2 0x684 JUMPI PUSH1 0x0 DUP5 ISZERO PUSH2 0x672 JUMPI DUP3 DUP8 ADD MLOAD SWAP1 POP JUMPDEST PUSH2 0x67C DUP6 DUP3 PUSH2 0x5FE JUMP JUMPDEST DUP7 SSTORE POP PUSH2 0x6E4 JUMP JUMPDEST PUSH1 0x1F NOT DUP5 AND PUSH2 0x692 DUP7 PUSH2 0x46E JUMP JUMPDEST PUSH1 0x0 JUMPDEST DUP3 DUP2 LT ISZERO PUSH2 0x6BA JUMPI DUP5 DUP10 ADD MLOAD DUP3 SSTORE PUSH1 0x1 DUP3 ADD SWAP2 POP PUSH1 0x20 DUP6 ADD SWAP5 POP PUSH1 0x20 DUP2 ADD SWAP1 POP PUSH2 0x695 JUMP JUMPDEST DUP7 DUP4 LT ISZERO PUSH2 0x6D7 JUMPI DUP5 DUP10 ADD MLOAD PUSH2 0x6D3 PUSH1 0x1F DUP10 AND DUP3 PUSH2 0x5E0 JUMP JUMPDEST DUP4 SSTORE POP JUMPDEST PUSH1 0x1 PUSH1 0x2 DUP9 MUL ADD DUP9 SSTORE POP POP POP JUMPDEST POP POP POP POP POP POP JUMP INVALID LOG2 PUSH5 0x6970667358 0x22 SLT KECCAK256 0xE SHL 0xDB CREATE2 JUMPDEST GAS 0xEF ADDRESS 0xA9 0xB5 0xDA 0xCC XOR PUSH2 0xFAA7 0xB2 SWAP4 SWAP6 0xB9 LT MUL DUP8 BLOCKHASH TIMESTAMP PUSH9 0x6913E035115B64736F PUSH13 0x634300080F0033000000000000 "
				},
				"gasEstimates": {
					"creation": {
						"codeDepositCost": "365200",
						"executionCost": "405",
						"totalCost": "365605"
					},
					"external": {
						"my_car(uint256)": "infinite",
						"setter(uint256,string)": "infinite"
					}
				},
				"methodIdentifiers": {
					"my_car(uint256)": "a85e58ca",
					"setter(uint256,string)": "bcb131c9"
				}
			},
			"storageLayout": {
				"storage": [
					{
						"astId": 5,
						"contract": "mapping.sol:MappingTest",
						"label": "my_car",
						"offset": 0,
						"slot": "0",
						"type": "t_mapping(t_uint256,t_string_storage)"
					}
				],
				"types": {
					"t_mapping(t_uint256,t_string_storage)": {
						"encoding": "mapping",
						"key": "t_uint256",
						"label": "mapping(uint256 => string)",
						"numberOfBytes": "32",
						"value": "t_string_storage"
					},
					"t_string_storage": {
						"encoding": "bytes",
						"label": "string",
						"numberOfBytes": "32"
					},
					"t_uint256": {
						"encoding": "inplace",
						"label": "uint256",
						"numberOfBytes": "32"
					}
				}
			},
			"userdoc": {
				"kind": "user",
				"methods": {},
				"version": 1
			}
		}
	}
}