{
	"bytearray.sol": {
		"btyes": {
			"abi": [
				{
					"inputs": [],
					"name": "updateValue",
					"outputs": [],
					"stateMutability": "nonpayable",
					"type": "function"
				}
			],
			"devdoc": {
				"kind": "dev",
				"methods": {},
				"version": 1
			},
			"evm": {
				"assembly": "    /* \"bytearray.sol\":27:256  contract btyes{... */\n  mstore(0x40, 0x80)\n    /* \"bytearray.sol\":79:80  0 */\n  0x00\n    /* \"bytearray.sol\":69:81  new bytes(0) */\n  0xffffffffffffffff\n  dup2\n  gt\n  iszero\n  tag_1\n  jumpi\n  tag_2\n  tag_3\n  jump\t// in\ntag_2:\ntag_1:\n  mload(0x40)\n  swap1\n  dup1\n  dup3\n  mstore\n  dup1\n  0x1f\n  add\n  not(0x1f)\n  and\n  0x20\n  add\n  dup3\n  add\n  0x40\n  mstore\n  dup1\n  iszero\n  tag_4\n  jumpi\n  dup2\n  0x20\n  add\n  0x01\n  dup3\n  mul\n  dup1\n  calldatasize\n  dup4\n  calldatacopy\n  dup1\n  dup3\n  add\n  swap2\n  pop\n  pop\n  swap1\n  pop\ntag_4:\n  pop\n    /* \"bytearray.sol\":50:81  bytes localBytes = new bytes(0) */\n  0x00\n  swap1\n  dup2\n  tag_5\n  swap2\n  swap1\n  tag_6\n  jump\t// in\ntag_5:\n  pop\n    /* \"bytearray.sol\":27:256  contract btyes{... */\n  callvalue\n  dup1\n  iszero\n  tag_7\n  jumpi\n  0x00\n  dup1\n  revert\ntag_7:\n  pop\n  jump(tag_8)\n    /* \"#utility.yul\":7:187   */\ntag_3:\n    /* \"#utility.yul\":55:132   */\n  0x4e487b7100000000000000000000000000000000000000000000000000000000\n    /* \"#utility.yul\":52:53   */\n  0x00\n    /* \"#utility.yul\":45:133   */\n  mstore\n    /* \"#utility.yul\":152:156   */\n  0x41\n    /* \"#utility.yul\":149:150   */\n  0x04\n    /* \"#utility.yul\":142:157   */\n  mstore\n    /* \"#utility.yul\":176:180   */\n  0x24\n    /* \"#utility.yul\":173:174   */\n  0x00\n    /* \"#utility.yul\":166:181   */\n  revert\n    /* \"#utility.yul\":193:291   */\ntag_9:\n    /* \"#utility.yul\":244:250   */\n  0x00\n    /* \"#utility.yul\":278:283   */\n  dup2\n    /* \"#utility.yul\":272:284   */\n  mload\n    /* \"#utility.yul\":262:284   */\n  swap1\n  pop\n    /* \"#utility.yul\":193:291   */\n  swap2\n  swap1\n  pop\n  jump\t// out\n    /* \"#utility.yul\":297:477   */\ntag_10:\n    /* \"#utility.yul\":345:422   */\n  0x4e487b7100000000000000000000000000000000000000000000000000000000\n    /* \"#utility.yul\":342:343   */\n  0x00\n    /* \"#utility.yul\":335:423   */\n  mstore\n    /* \"#utility.yul\":442:446   */\n  0x22\n    /* \"#utility.yul\":439:440   */\n  0x04\n    /* \"#utility.yul\":432:447   */\n  mstore\n    /* \"#utility.yul\":466:470   */\n  0x24\n    /* \"#utility.yul\":463:464   */\n  0x00\n    /* \"#utility.yul\":456:471   */\n  revert\n    /* \"#utility.yul\":483:803   */\ntag_11:\n    /* \"#utility.yul\":527:533   */\n  0x00\n    /* \"#utility.yul\":564:565   */\n  0x02\n    /* \"#utility.yul\":558:562   */\n  dup3\n    /* \"#utility.yul\":554:566   */\n  div\n    /* \"#utility.yul\":544:566   */\n  swap1\n  pop\n    /* \"#utility.yul\":611:612   */\n  0x01\n    /* \"#utility.yul\":605:609   */\n  dup3\n    /* \"#utility.yul\":601:613   */\n  and\n    /* \"#utility.yul\":632:650   */\n  dup1\n    /* \"#utility.yul\":622:703   */\n  tag_33\n  jumpi\n    /* \"#utility.yul\":688:692   */\n  0x7f\n    /* \"#utility.yul\":680:686   */\n  dup3\n    /* \"#utility.yul\":676:693   */\n  and\n    /* \"#utility.yul\":666:693   */\n  swap2\n  pop\n    /* \"#utility.yul\":622:703   */\ntag_33:\n    /* \"#utility.yul\":750:752   */\n  0x20\n    /* \"#utility.yul\":742:748   */\n  dup3\n    /* \"#utility.yul\":739:753   */\n  lt\n    /* \"#utility.yul\":719:737   */\n  dup2\n    /* \"#utility.yul\":716:754   */\n  sub\n    /* \"#utility.yul\":713:797   */\n  tag_34\n  jumpi\n    /* \"#utility.yul\":769:787   */\n  tag_35\n  tag_10\n  jump\t// in\ntag_35:\n    /* \"#utility.yul\":713:797   */\ntag_34:\n    /* \"#utility.yul\":534:803   */\n  pop\n    /* \"#utility.yul\":483:803   */\n  swap2\n  swap1\n  pop\n  jump\t// out\n    /* \"#utility.yul\":809:949   */\ntag_12:\n    /* \"#utility.yul\":857:861   */\n  0x00\n    /* \"#utility.yul\":880:883   */\n  dup2\n    /* \"#utility.yul\":872:883   */\n  swap1\n  pop\n    /* \"#utility.yul\":903:906   */\n  dup2\n    /* \"#utility.yul\":900:901   */\n  0x00\n    /* \"#utility.yul\":893:907   */\n  mstore\n    /* \"#utility.yul\":937:941   */\n  0x20\n    /* \"#utility.yul\":934:935   */\n  0x00\n    /* \"#utility.yul\":924:942   */\n  keccak256\n    /* \"#utility.yul\":916:942   */\n  swap1\n  pop\n    /* \"#utility.yul\":809:949   */\n  swap2\n  swap1\n  pop\n  jump\t// out\n    /* \"#utility.yul\":955:1048   */\ntag_13:\n    /* \"#utility.yul\":992:998   */\n  0x00\n    /* \"#utility.yul\":1039:1041   */\n  0x20\n    /* \"#utility.yul\":1034:1036   */\n  0x1f\n    /* \"#utility.yul\":1027:1032   */\n  dup4\n    /* \"#utility.yul\":1023:1037   */\n  add\n    /* \"#utility.yul\":1019:1042   */\n  div\n    /* \"#utility.yul\":1009:1042   */\n  swap1\n  pop\n    /* \"#utility.yul\":955:1048   */\n  swap2\n  swap1\n  pop\n  jump\t// out\n    /* \"#utility.yul\":1054:1161   */\ntag_14:\n    /* \"#utility.yul\":1098:1106   */\n  0x00\n    /* \"#utility.yul\":1148:1153   */\n  dup3\n    /* \"#utility.yul\":1142:1146   */\n  dup3\n    /* \"#utility.yul\":1138:1154   */\n  shl\n    /* \"#utility.yul\":1117:1154   */\n  swap1\n  pop\n    /* \"#utility.yul\":1054:1161   */\n  swap3\n  swap2\n  pop\n  pop\n  jump\t// out\n    /* \"#utility.yul\":1167:1560   */\ntag_15:\n    /* \"#utility.yul\":1236:1242   */\n  0x00\n    /* \"#utility.yul\":1286:1287   */\n  0x08\n    /* \"#utility.yul\":1274:1284   */\n  dup4\n    /* \"#utility.yul\":1270:1288   */\n  mul\n    /* \"#utility.yul\":1309:1406   */\n  tag_40\n    /* \"#utility.yul\":1339:1405   */\n  0xffffffffffffffffffffffffffffffffffffffffffffffffffffffffffffffff\n    /* \"#utility.yul\":1328:1337   */\n  dup3\n    /* \"#utility.yul\":1309:1406   */\n  tag_14\n  jump\t// in\ntag_40:\n    /* \"#utility.yul\":1427:1466   */\n  tag_41\n    /* \"#utility.yul\":1457:1465   */\n  dup7\n    /* \"#utility.yul\":1446:1455   */\n  dup4\n    /* \"#utility.yul\":1427:1466   */\n  tag_14\n  jump\t// in\ntag_41:\n    /* \"#utility.yul\":1415:1466   */\n  swap6\n  pop\n    /* \"#utility.yul\":1499:1503   */\n  dup1\n    /* \"#utility.yul\":1495:1504   */\n  not\n    /* \"#utility.yul\":1488:1493   */\n  dup5\n    /* \"#utility.yul\":1484:1505   */\n  and\n    /* \"#utility.yul\":1475:1505   */\n  swap4\n  pop\n    /* \"#utility.yul\":1548:1552   */\n  dup1\n    /* \"#utility.yul\":1538:1546   */\n  dup7\n    /* \"#utility.yul\":1534:1553   */\n  and\n    /* \"#utility.yul\":1527:1532   */\n  dup5\n    /* \"#utility.yul\":1524:1554   */\n  or\n    /* \"#utility.yul\":1514:1554   */\n  swap3\n  pop\n    /* \"#utility.yul\":1243:1560   */\n  pop\n  pop\n    /* \"#utility.yul\":1167:1560   */\n  swap4\n  swap3\n  pop\n  pop\n  pop\n  jump\t// out\n    /* \"#utility.yul\":1566:1643   */\ntag_16:\n    /* \"#utility.yul\":1603:1610   */\n  0x00\n    /* \"#utility.yul\":1632:1637   */\n  dup2\n    /* \"#utility.yul\":1621:1637   */\n  swap1\n  pop\n    /* \"#utility.yul\":1566:1643   */\n  swap2\n  swap1\n  pop\n  jump\t// out\n    /* \"#utility.yul\":1649:1709   */\ntag_17:\n    /* \"#utility.yul\":1677:1680   */\n  0x00\n    /* \"#utility.yul\":1698:1703   */\n  dup2\n    /* \"#utility.yul\":1691:1703   */\n  swap1\n  pop\n    /* \"#utility.yul\":1649:1709   */\n  swap2\n  swap1\n  pop\n  jump\t// out\n    /* \"#utility.yul\":1715:1857   */\ntag_18:\n    /* \"#utility.yul\":1765:1774   */\n  0x00\n    /* \"#utility.yul\":1798:1851   */\n  tag_45\n    /* \"#utility.yul\":1816:1850   */\n  tag_46\n    /* \"#utility.yul\":1825:1849   */\n  tag_47\n    /* \"#utility.yul\":1843:1848   */\n  dup5\n    /* \"#utility.yul\":1825:1849   */\n  tag_16\n  jump\t// in\ntag_47:\n    /* \"#utility.yul\":1816:1850   */\n  tag_17\n  jump\t// in\ntag_46:\n    /* \"#utility.yul\":1798:1851   */\n  tag_16\n  jump\t// in\ntag_45:\n    /* \"#utility.yul\":1785:1851   */\n  swap1\n  pop\n    /* \"#utility.yul\":1715:1857   */\n  swap2\n  swap1\n  pop\n  jump\t// out\n    /* \"#utility.yul\":1863:1938   */\ntag_19:\n    /* \"#utility.yul\":1906:1909   */\n  0x00\n    /* \"#utility.yul\":1927:1932   */\n  dup2\n    /* \"#utility.yul\":1920:1932   */\n  swap1\n  pop\n    /* \"#utility.yul\":1863:1938   */\n  swap2\n  swap1\n  pop\n  jump\t// out\n    /* \"#utility.yul\":1944:2213   */\ntag_20:\n    /* \"#utility.yul\":2054:2093   */\n  tag_50\n    /* \"#utility.yul\":2085:2092   */\n  dup4\n    /* \"#utility.yul\":2054:2093   */\n  tag_18\n  jump\t// in\ntag_50:\n    /* \"#utility.yul\":2115:2206   */\n  tag_51\n    /* \"#utility.yul\":2164:2205   */\n  tag_52\n    /* \"#utility.yul\":2188:2204   */\n  dup3\n    /* \"#utility.yul\":2164:2205   */\n  tag_19\n  jump\t// in\ntag_52:\n    /* \"#utility.yul\":2156:2162   */\n  dup5\n    /* \"#utility.yul\":2149:2153   */\n  dup5\n    /* \"#utility.yul\":2143:2154   */\n  sload\n    /* \"#utility.yul\":2115:2206   */\n  tag_15\n  jump\t// in\ntag_51:\n    /* \"#utility.yul\":2109:2113   */\n  dup3\n    /* \"#utility.yul\":2102:2207   */\n  sstore\n    /* \"#utility.yul\":2020:2213   */\n  pop\n    /* \"#utility.yul\":1944:2213   */\n  pop\n  pop\n  pop\n  jump\t// out\n    /* \"#utility.yul\":2219:2292   */\ntag_21:\n    /* \"#utility.yul\":2264:2267   */\n  0x00\n    /* \"#utility.yul\":2219:2292   */\n  swap1\n  jump\t// out\n    /* \"#utility.yul\":2298:2487   */\ntag_22:\n    /* \"#utility.yul\":2375:2407   */\n  tag_55\n  tag_21\n  jump\t// in\ntag_55:\n    /* \"#utility.yul\":2416:2481   */\n  tag_56\n    /* \"#utility.yul\":2474:2480   */\n  dup2\n    /* \"#utility.yul\":2466:2472   */\n  dup5\n    /* \"#utility.yul\":2460:2464   */\n  dup5\n    /* \"#utility.yul\":2416:2481   */\n  tag_20\n  jump\t// in\ntag_56:\n    /* \"#utility.yul\":2351:2487   */\n  pop\n    /* \"#utility.yul\":2298:2487   */\n  pop\n  pop\n  jump\t// out\n    /* \"#utility.yul\":2493:2679   */\ntag_23:\n    /* \"#utility.yul\":2553:2673   */\ntag_58:\n    /* \"#utility.yul\":2570:2573   */\n  dup2\n    /* \"#utility.yul\":2563:2568   */\n  dup2\n    /* \"#utility.yul\":2560:2574   */\n  lt\n    /* \"#utility.yul\":2553:2673   */\n  iszero\n  tag_60\n  jumpi\n    /* \"#utility.yul\":2624:2663   */\n  tag_61\n    /* \"#utility.yul\":2661:2662   */\n  0x00\n    /* \"#utility.yul\":2654:2659   */\n  dup3\n    /* \"#utility.yul\":2624:2663   */\n  tag_22\n  jump\t// in\ntag_61:\n    /* \"#utility.yul\":2597:2598   */\n  0x01\n    /* \"#utility.yul\":2590:2595   */\n  dup2\n    /* \"#utility.yul\":2586:2599   */\n  add\n    /* \"#utility.yul\":2577:2599   */\n  swap1\n  pop\n    /* \"#utility.yul\":2553:2673   */\n  jump(tag_58)\ntag_60:\n    /* \"#utility.yul\":2493:2679   */\n  pop\n  pop\n  jump\t// out\n    /* \"#utility.yul\":2685:3226   */\ntag_24:\n    /* \"#utility.yul\":2785:2787   */\n  0x1f\n    /* \"#utility.yul\":2780:2783   */\n  dup3\n    /* \"#utility.yul\":2777:2788   */\n  gt\n    /* \"#utility.yul\":2774:3219   */\n  iszero\n  tag_63\n  jumpi\n    /* \"#utility.yul\":2819:2856   */\n  tag_64\n    /* \"#utility.yul\":2850:2855   */\n  dup2\n    /* \"#utility.yul\":2819:2856   */\n  tag_12\n  jump\t// in\ntag_64:\n    /* \"#utility.yul\":2902:2931   */\n  tag_65\n    /* \"#utility.yul\":2920:2930   */\n  dup5\n    /* \"#utility.yul\":2902:2931   */\n  tag_13\n  jump\t// in\ntag_65:\n    /* \"#utility.yul\":2892:2900   */\n  dup2\n    /* \"#utility.yul\":2888:2932   */\n  add\n    /* \"#utility.yul\":3085:3087   */\n  0x20\n    /* \"#utility.yul\":3073:3083   */\n  dup6\n    /* \"#utility.yul\":3070:3088   */\n  lt\n    /* \"#utility.yul\":3067:3116   */\n  iszero\n  tag_66\n  jumpi\n    /* \"#utility.yul\":3106:3114   */\n  dup2\n    /* \"#utility.yul\":3091:3114   */\n  swap1\n  pop\n    /* \"#utility.yul\":3067:3116   */\ntag_66:\n    /* \"#utility.yul\":3129:3209   */\n  tag_67\n    /* \"#utility.yul\":3185:3207   */\n  tag_68\n    /* \"#utility.yul\":3203:3206   */\n  dup6\n    /* \"#utility.yul\":3185:3207   */\n  tag_13\n  jump\t// in\ntag_68:\n    /* \"#utility.yul\":3175:3183   */\n  dup4\n    /* \"#utility.yul\":3171:3208   */\n  add\n    /* \"#utility.yul\":3158:3169   */\n  dup3\n    /* \"#utility.yul\":3129:3209   */\n  tag_23\n  jump\t// in\ntag_67:\n    /* \"#utility.yul\":2789:3219   */\n  pop\n  pop\n    /* \"#utility.yul\":2774:3219   */\ntag_63:\n    /* \"#utility.yul\":2685:3226   */\n  pop\n  pop\n  pop\n  jump\t// out\n    /* \"#utility.yul\":3232:3349   */\ntag_25:\n    /* \"#utility.yul\":3286:3294   */\n  0x00\n    /* \"#utility.yul\":3336:3341   */\n  dup3\n    /* \"#utility.yul\":3330:3334   */\n  dup3\n    /* \"#utility.yul\":3326:3342   */\n  shr\n    /* \"#utility.yul\":3305:3342   */\n  swap1\n  pop\n    /* \"#utility.yul\":3232:3349   */\n  swap3\n  swap2\n  pop\n  pop\n  jump\t// out\n    /* \"#utility.yul\":3355:3524   */\ntag_26:\n    /* \"#utility.yul\":3399:3405   */\n  0x00\n    /* \"#utility.yul\":3432:3483   */\n  tag_71\n    /* \"#utility.yul\":3480:3481   */\n  0x00\n    /* \"#utility.yul\":3476:3482   */\n  not\n    /* \"#utility.yul\":3468:3473   */\n  dup5\n    /* \"#utility.yul\":3465:3466   */\n  0x08\n    /* \"#utility.yul\":3461:3474   */\n  mul\n    /* \"#utility.yul\":3432:3483   */\n  tag_25\n  jump\t// in\ntag_71:\n    /* \"#utility.yul\":3428:3484   */\n  not\n    /* \"#utility.yul\":3513:3517   */\n  dup1\n    /* \"#utility.yul\":3507:3511   */\n  dup4\n    /* \"#utility.yul\":3503:3518   */\n  and\n    /* \"#utility.yul\":3493:3518   */\n  swap2\n  pop\n    /* \"#utility.yul\":3406:3524   */\n  pop\n    /* \"#utility.yul\":3355:3524   */\n  swap3\n  swap2\n  pop\n  pop\n  jump\t// out\n    /* \"#utility.yul\":3529:3824   */\ntag_27:\n    /* \"#utility.yul\":3605:3609   */\n  0x00\n    /* \"#utility.yul\":3751:3780   */\n  tag_73\n    /* \"#utility.yul\":3776:3779   */\n  dup4\n    /* \"#utility.yul\":3770:3774   */\n  dup4\n    /* \"#utility.yul\":3751:3780   */\n  tag_26\n  jump\t// in\ntag_73:\n    /* \"#utility.yul\":3743:3780   */\n  swap2\n  pop\n    /* \"#utility.yul\":3813:3816   */\n  dup3\n    /* \"#utility.yul\":3810:3811   */\n  0x02\n    /* \"#utility.yul\":3806:3817   */\n  mul\n    /* \"#utility.yul\":3800:3804   */\n  dup3\n    /* \"#utility.yul\":3797:3818   */\n  or\n    /* \"#utility.yul\":3789:3818   */\n  swap1\n  pop\n    /* \"#utility.yul\":3529:3824   */\n  swap3\n  swap2\n  pop\n  pop\n  jump\t// out\n    /* \"#utility.yul\":3829:5219   */\ntag_6:\n    /* \"#utility.yul\":3944:3980   */\n  tag_75\n    /* \"#utility.yul\":3976:3979   */\n  dup3\n    /* \"#utility.yul\":3944:3980   */\n  tag_9\n  jump\t// in\ntag_75:\n    /* \"#utility.yul\":4045:4063   */\n  0xffffffffffffffff\n    /* \"#utility.yul\":4037:4043   */\n  dup2\n    /* \"#utility.yul\":4034:4064   */\n  gt\n    /* \"#utility.yul\":4031:4087   */\n  iszero\n  tag_76\n  jumpi\n    /* \"#utility.yul\":4067:4085   */\n  tag_77\n  tag_3\n  jump\t// in\ntag_77:\n    /* \"#utility.yul\":4031:4087   */\ntag_76:\n    /* \"#utility.yul\":4111:4149   */\n  tag_78\n    /* \"#utility.yul\":4143:4147   */\n  dup3\n    /* \"#utility.yul\":4137:4148   */\n  sload\n    /* \"#utility.yul\":4111:4149   */\n  tag_11\n  jump\t// in\ntag_78:\n    /* \"#utility.yul\":4196:4262   */\n  tag_79\n    /* \"#utility.yul\":4255:4261   */\n  dup3\n    /* \"#utility.yul\":4247:4253   */\n  dup3\n    /* \"#utility.yul\":4241:4245   */\n  dup6\n    /* \"#utility.yul\":4196:4262   */\n  tag_24\n  jump\t// in\ntag_79:\n    /* \"#utility.yul\":4289:4290   */\n  0x00\n    /* \"#utility.yul\":4313:4317   */\n  0x20\n    /* \"#utility.yul\":4300:4317   */\n  swap1\n  pop\n    /* \"#utility.yul\":4345:4347   */\n  0x1f\n    /* \"#utility.yul\":4337:4343   */\n  dup4\n    /* \"#utility.yul\":4334:4348   */\n  gt\n    /* \"#utility.yul\":4362:4363   */\n  0x01\n    /* \"#utility.yul\":4357:4974   */\n  dup2\n  eq\n  tag_81\n  jumpi\n    /* \"#utility.yul\":5018:5019   */\n  0x00\n    /* \"#utility.yul\":5035:5041   */\n  dup5\n    /* \"#utility.yul\":5032:5109   */\n  iszero\n  tag_82\n  jumpi\n    /* \"#utility.yul\":5084:5093   */\n  dup3\n    /* \"#utility.yul\":5079:5082   */\n  dup8\n    /* \"#utility.yul\":5075:5094   */\n  add\n    /* \"#utility.yul\":5069:5095   */\n  mload\n    /* \"#utility.yul\":5060:5095   */\n  swap1\n  pop\n    /* \"#utility.yul\":5032:5109   */\ntag_82:\n    /* \"#utility.yul\":5135:5202   */\n  tag_83\n    /* \"#utility.yul\":5195:5201   */\n  dup6\n    /* \"#utility.yul\":5188:5193   */\n  dup3\n    /* \"#utility.yul\":5135:5202   */\n  tag_27\n  jump\t// in\ntag_83:\n    /* \"#utility.yul\":5129:5133   */\n  dup7\n    /* \"#utility.yul\":5122:5203   */\n  sstore\n    /* \"#utility.yul\":4991:5213   */\n  pop\n    /* \"#utility.yul\":4327:5213   */\n  jump(tag_80)\n    /* \"#utility.yul\":4357:4974   */\ntag_81:\n    /* \"#utility.yul\":4409:4413   */\n  0x1f\n    /* \"#utility.yul\":4405:4414   */\n  not\n    /* \"#utility.yul\":4397:4403   */\n  dup5\n    /* \"#utility.yul\":4393:4415   */\n  and\n    /* \"#utility.yul\":4443:4479   */\n  tag_84\n    /* \"#utility.yul\":4474:4478   */\n  dup7\n    /* \"#utility.yul\":4443:4479   */\n  tag_12\n  jump\t// in\ntag_84:\n    /* \"#utility.yul\":4501:4502   */\n  0x00\n    /* \"#utility.yul\":4515:4723   */\ntag_85:\n    /* \"#utility.yul\":4529:4536   */\n  dup3\n    /* \"#utility.yul\":4526:4527   */\n  dup2\n    /* \"#utility.yul\":4523:4537   */\n  lt\n    /* \"#utility.yul\":4515:4723   */\n  iszero\n  tag_87\n  jumpi\n    /* \"#utility.yul\":4608:4617   */\n  dup5\n    /* \"#utility.yul\":4603:4606   */\n  dup10\n    /* \"#utility.yul\":4599:4618   */\n  add\n    /* \"#utility.yul\":4593:4619   */\n  mload\n    /* \"#utility.yul\":4585:4591   */\n  dup3\n    /* \"#utility.yul\":4578:4620   */\n  sstore\n    /* \"#utility.yul\":4659:4660   */\n  0x01\n    /* \"#utility.yul\":4651:4657   */\n  dup3\n    /* \"#utility.yul\":4647:4661   */\n  add\n    /* \"#utility.yul\":4637:4661   */\n  swap2\n  pop\n    /* \"#utility.yul\":4706:4708   */\n  0x20\n    /* \"#utility.yul\":4695:4704   */\n  dup6\n    /* \"#utility.yul\":4691:4709   */\n  add\n    /* \"#utility.yul\":4678:4709   */\n  swap5\n  pop\n    /* \"#utility.yul\":4552:4556   */\n  0x20\n    /* \"#utility.yul\":4549:4550   */\n  dup2\n    /* \"#utility.yul\":4545:4557   */\n  add\n    /* \"#utility.yul\":4540:4557   */\n  swap1\n  pop\n    /* \"#utility.yul\":4515:4723   */\n  jump(tag_85)\ntag_87:\n    /* \"#utility.yul\":4751:4757   */\n  dup7\n    /* \"#utility.yul\":4742:4749   */\n  dup4\n    /* \"#utility.yul\":4739:4758   */\n  lt\n    /* \"#utility.yul\":4736:4915   */\n  iszero\n  tag_88\n  jumpi\n    /* \"#utility.yul\":4809:4818   */\n  dup5\n    /* \"#utility.yul\":4804:4807   */\n  dup10\n    /* \"#utility.yul\":4800:4819   */\n  add\n    /* \"#utility.yul\":4794:4820   */\n  mload\n    /* \"#utility.yul\":4852:4900   */\n  tag_89\n    /* \"#utility.yul\":4894:4898   */\n  0x1f\n    /* \"#utility.yul\":4886:4892   */\n  dup10\n    /* \"#utility.yul\":4882:4899   */\n  and\n    /* \"#utility.yul\":4871:4880   */\n  dup3\n    /* \"#utility.yul\":4852:4900   */\n  tag_26\n  jump\t// in\ntag_89:\n    /* \"#utility.yul\":4844:4850   */\n  dup4\n    /* \"#utility.yul\":4837:4901   */\n  sstore\n    /* \"#utility.yul\":4759:4915   */\n  pop\n    /* \"#utility.yul\":4736:4915   */\ntag_88:\n    /* \"#utility.yul\":4961:4962   */\n  0x01\n    /* \"#utility.yul\":4957:4958   */\n  0x02\n    /* \"#utility.yul\":4949:4955   */\n  dup9\n    /* \"#utility.yul\":4945:4959   */\n  mul\n    /* \"#utility.yul\":4941:4963   */\n  add\n    /* \"#utility.yul\":4935:4939   */\n  dup9\n    /* \"#utility.yul\":4928:4964   */\n  sstore\n    /* \"#utility.yul\":4364:4974   */\n  pop\n  pop\n  pop\n    /* \"#utility.yul\":4327:5213   */\ntag_80:\n  pop\n    /* \"#utility.yul\":3919:5219   */\n  pop\n  pop\n  pop\n    /* \"#utility.yul\":3829:5219   */\n  pop\n  pop\n  jump\t// out\n    /* \"bytearray.sol\":27:256  contract btyes{... */\ntag_8:\n  dataSize(sub_0)\n  dup1\n  dataOffset(sub_0)\n  0x00\n  codecopy\n  0x00\n  return\nstop\n\nsub_0: assembly {\n        /* \"bytearray.sol\":27:256  contract btyes{... */\n      mstore(0x40, 0x80)\n      callvalue\n      dup1\n      iszero\n      tag_1\n      jumpi\n      0x00\n      dup1\n      revert\n    tag_1:\n      pop\n      jumpi(tag_2, lt(calldatasize, 0x04))\n      shr(0xe0, calldataload(0x00))\n      dup1\n      0xe8bf9be5\n      eq\n      tag_3\n      jumpi\n    tag_2:\n      0x00\n      dup1\n      revert\n        /* \"bytearray.sol\":84:251  function updateValue() public{... */\n    tag_3:\n      tag_4\n      tag_5\n      jump\t// in\n    tag_4:\n      stop\n    tag_5:\n        /* \"bytearray.sol\":116:124  bytes1 b */\n      0x00\n        /* \"bytearray.sol\":127:131  0x65 */\n      0x65\n        /* \"bytearray.sol\":116:131  bytes1 b =\t0x65 */\n      0xf8\n      shl\n      swap1\n      pop\n        /* \"bytearray.sol\":134:144  localBytes */\n      0x00\n        /* \"bytearray.sol\":150:151  b */\n      dup2\n        /* \"bytearray.sol\":134:152  localBytes.push(b) */\n      swap1\n      dup1\n      dup1\n      sload\n      dup1\n      tag_7\n      swap1\n      tag_8\n      jump\t// in\n    tag_7:\n      dup1\n      0x1f\n      dup2\n      sub\n      tag_9\n      jumpi\n      dup4\n      0x00\n      mstore\n      keccak256(0x00, 0x20)\n      not(0xff)\n      dup5\n      and\n      dup2\n      sstore\n      0x3f\n      swap4\n      pop\n      pop\n    tag_9:\n      pop\n      0x02\n      dup3\n      add\n      dup4\n      sstore\n      0x01\n      dup2\n      add\n      swap3\n      pop\n      pop\n      pop\n      0x01\n      swap1\n      sub\n      dup2\n      sload\n      0x01\n      and\n      iszero\n      tag_11\n      jumpi\n      swap1\n      0x00\n      mstore\n      keccak256(0x00, 0x20)\n      swap1\n      0x20\n      swap2\n      dup3\n      dup3\n      div\n      add\n      swap2\n      swap1\n      mod\n    tag_11:\n      swap1\n      swap2\n      swap1\n      swap2\n      swap1\n      swap2\n      0x1f\n      sub\n      0x0100\n      exp\n      dup2\n      sload\n      dup2\n      0xff\n      mul\n      not\n      and\n      swap1\n      0x0100000000000000000000000000000000000000000000000000000000000000\n      dup5\n      div\n      mul\n      or\n      swap1\n      sstore\n      pop\n        /* \"bytearray.sol\":155:165  localBytes */\n      0x00\n        /* \"bytearray.sol\":171:175  0x5a */\n      0x5a\n        /* \"bytearray.sol\":155:176  localBytes.push(0x5a) */\n      swap1\n      dup1\n      dup1\n      sload\n      dup1\n      tag_12\n      swap1\n      tag_8\n      jump\t// in\n    tag_12:\n      dup1\n      0x1f\n      dup2\n      sub\n      tag_13\n      jumpi\n      dup4\n      0x00\n      mstore\n      keccak256(0x00, 0x20)\n      not(0xff)\n      dup5\n      and\n      dup2\n      sstore\n      0x3f\n      swap4\n      pop\n      pop\n    tag_13:\n      pop\n      0x02\n      dup3\n      add\n      dup4\n      sstore\n      0x01\n      dup2\n      add\n      swap3\n      pop\n      pop\n      pop\n      0x01\n      swap1\n      sub\n      dup2\n      sload\n      0x01\n      and\n      iszero\n      tag_15\n      jumpi\n      swap1\n      0x00\n      mstore\n      keccak256(0x00, 0x20)\n      swap1\n      0x20\n      swap2\n      dup3\n      dup3\n      div\n      add\n      swap2\n      swap1\n      mod\n    tag_15:\n      swap1\n      swap2\n      0xf8\n      shl\n      swap1\n      swap2\n      swap1\n      swap2\n      0x1f\n      sub\n      0x0100\n      exp\n      dup2\n      sload\n      dup2\n      0xff\n      mul\n      not\n      and\n      swap1\n      0x0100000000000000000000000000000000000000000000000000000000000000\n      dup5\n      div\n      mul\n      or\n      swap1\n      sstore\n      pop\n        /* \"bytearray.sol\":179:189  localBytes */\n      0x00\n        /* \"bytearray.sol\":179:199  localBytes.push(\"a\") */\n      dup1\n      dup1\n      sload\n      dup1\n      tag_16\n      swap1\n      tag_8\n      jump\t// in\n    tag_16:\n      dup1\n      0x1f\n      dup2\n      sub\n      tag_17\n      jumpi\n      dup4\n      0x00\n      mstore\n      keccak256(0x00, 0x20)\n      not(0xff)\n      dup5\n      and\n      dup2\n      sstore\n      0x3f\n      swap4\n      pop\n      pop\n    tag_17:\n      pop\n      0x02\n      dup3\n      add\n      dup4\n      sstore\n      0x01\n      dup2\n      add\n      swap3\n      pop\n      pop\n      pop\n      0x01\n      swap1\n      sub\n      dup2\n      sload\n      0x01\n      and\n      iszero\n      tag_19\n      jumpi\n      swap1\n      0x00\n      mstore\n      keccak256(0x00, 0x20)\n      swap1\n      0x20\n      swap2\n      dup3\n      dup3\n      div\n      add\n      swap2\n      swap1\n      mod\n    tag_19:\n      0x6100000000000000000000000000000000000000000000000000000000000000\n      swap1\n      swap2\n      swap1\n      swap2\n      0x1f\n      sub\n      0x0100\n      exp\n      dup2\n      sload\n      dup2\n      0xff\n      mul\n      not\n      and\n      swap1\n      0x0100000000000000000000000000000000000000000000000000000000000000\n      dup5\n      div\n      mul\n      or\n      swap1\n      sstore\n      pop\n        /* \"bytearray.sol\":113:251  {... */\n      pop\n        /* \"bytearray.sol\":84:251  function updateValue() public{... */\n      jump\t// out\n        /* \"#utility.yul\":7:187   */\n    tag_20:\n        /* \"#utility.yul\":55:132   */\n      0x4e487b7100000000000000000000000000000000000000000000000000000000\n        /* \"#utility.yul\":52:53   */\n      0x00\n        /* \"#utility.yul\":45:133   */\n      mstore\n        /* \"#utility.yul\":152:156   */\n      0x22\n        /* \"#utility.yul\":149:150   */\n      0x04\n        /* \"#utility.yul\":142:157   */\n      mstore\n        /* \"#utility.yul\":176:180   */\n      0x24\n        /* \"#utility.yul\":173:174   */\n      0x00\n        /* \"#utility.yul\":166:181   */\n      revert\n        /* \"#utility.yul\":193:513   */\n    tag_8:\n        /* \"#utility.yul\":237:243   */\n      0x00\n        /* \"#utility.yul\":274:275   */\n      0x02\n        /* \"#utility.yul\":268:272   */\n      dup3\n        /* \"#utility.yul\":264:276   */\n      div\n        /* \"#utility.yul\":254:276   */\n      swap1\n      pop\n        /* \"#utility.yul\":321:322   */\n      0x01\n        /* \"#utility.yul\":315:319   */\n      dup3\n        /* \"#utility.yul\":311:323   */\n      and\n        /* \"#utility.yul\":342:360   */\n      dup1\n        /* \"#utility.yul\":332:413   */\n      tag_24\n      jumpi\n        /* \"#utility.yul\":398:402   */\n      0x7f\n        /* \"#utility.yul\":390:396   */\n      dup3\n        /* \"#utility.yul\":386:403   */\n      and\n        /* \"#utility.yul\":376:403   */\n      swap2\n      pop\n        /* \"#utility.yul\":332:413   */\n    tag_24:\n        /* \"#utility.yul\":460:462   */\n      0x20\n        /* \"#utility.yul\":452:458   */\n      dup3\n        /* \"#utility.yul\":449:463   */\n      lt\n        /* \"#utility.yul\":429:447   */\n      dup2\n        /* \"#utility.yul\":426:464   */\n      sub\n        /* \"#utility.yul\":423:507   */\n      tag_25\n      jumpi\n        /* \"#utility.yul\":479:497   */\n      tag_26\n      tag_20\n      jump\t// in\n    tag_26:\n        /* \"#utility.yul\":423:507   */\n    tag_25:\n        /* \"#utility.yul\":244:513   */\n      pop\n        /* \"#utility.yul\":193:513   */\n      swap2\n      swap1\n      pop\n      jump\t// out\n\n    auxdata: 0xa2646970667358221220b0f96c43cc2eddbca02abb441d548950ef69e1a72d2051c679d8284c79fb013064736f6c634300080f0033\n}\n",
				"bytecode": {
					"linkReferences": {},
					"object": "6080604052600067ffffffffffffffff81111561001f5761001e610073565b5b6040519080825280601f01601f1916602001820160405280156100515781602001600182028036833780820191505090505b506000908161006091906102c3565b5034801561006d57600080fd5b50610395565b7f4e487b7100000000000000000000000000000000000000000000000000000000600052604160045260246000fd5b600081519050919050565b7f4e487b7100000000000000000000000000000000000000000000000000000000600052602260045260246000fd5b600060028204905060018216806100f457607f821691505b602082108103610107576101066100ad565b5b50919050565b60008190508160005260206000209050919050565b60006020601f8301049050919050565b600082821b905092915050565b60006008830261016f7fffffffffffffffffffffffffffffffffffffffffffffffffffffffffffffffff82610132565b6101798683610132565b95508019841693508086168417925050509392505050565b6000819050919050565b6000819050919050565b60006101c06101bb6101b684610191565b61019b565b610191565b9050919050565b6000819050919050565b6101da836101a5565b6101ee6101e6826101c7565b84845461013f565b825550505050565b600090565b6102036101f6565b61020e8184846101d1565b505050565b5b81811015610232576102276000826101fb565b600181019050610214565b5050565b601f821115610277576102488161010d565b61025184610122565b81016020851015610260578190505b61027461026c85610122565b830182610213565b50505b505050565b600082821c905092915050565b600061029a6000198460080261027c565b1980831691505092915050565b60006102b38383610289565b9150826002028217905092915050565b6102cc826100a2565b67ffffffffffffffff8111156102e5576102e4610073565b5b6102ef82546100dc565b6102fa828285610236565b600060209050601f83116001811461032d576000841561031b578287015190505b61032585826102a7565b86555061038d565b601f19841661033b8661010d565b60005b828110156103635784890151825560018201915060208501945060208101905061033e565b86831015610380578489015161037c601f891682610289565b8355505b6001600288020188555050505b505050505050565b6102dd806103a46000396000f3fe608060405234801561001057600080fd5b506004361061002b5760003560e01c8063e8bf9be514610030575b600080fd5b61003861003a565b005b6000606560f81b9050600081908080548061005490610276565b80601f81036100735783600052602060002060ff1984168155603f9350505b506002820183556001810192505050600190038154600116156100a55790600052602060002090602091828204019190065b909190919091601f036101000a81548160ff021916907f0100000000000000000000000000000000000000000000000000000000000000840402179055506000605a90808054806100f590610276565b80601f81036101145783600052602060002060ff1984168155603f9350505b506002820183556001810192505050600190038154600116156101465790600052602060002090602091828204019190065b909160f81b90919091601f036101000a81548160ff021916907f01000000000000000000000000000000000000000000000000000000000000008404021790555060008080548061019690610276565b80601f81036101b55783600052602060002060ff1984168155603f9350505b506002820183556001810192505050600190038154600116156101e75790600052602060002090602091828204019190065b7f610000000000000000000000000000000000000000000000000000000000000090919091601f036101000a81548160ff021916907f01000000000000000000000000000000000000000000000000000000000000008404021790555050565b7f4e487b7100000000000000000000000000000000000000000000000000000000600052602260045260246000fd5b6000600282049050600182168061028e57607f821691505b6020821081036102a1576102a0610247565b5b5091905056fea2646970667358221220b0f96c43cc2eddbca02abb441d548950ef69e1a72d2051c679d8284c79fb013064736f6c634300080f0033",
					"opcodes": "PUSH1 0x80 PUSH1 0x40 MSTORE PUSH1 0x0 PUSH8 0xFFFFFFFFFFFFFFFF DUP2 GT ISZERO PUSH2 0x1F JUMPI PUSH2 0x1E PUSH2 0x73 JUMP JUMPDEST JUMPDEST PUSH1 0x40 MLOAD SWAP1 DUP1 DUP3 MSTORE DUP1 PUSH1 0x1F ADD PUSH1 0x1F NOT AND PUSH1 0x20 ADD DUP3 ADD PUSH1 0x40 MSTORE DUP1 ISZERO PUSH2 0x51 JUMPI DUP2 PUSH1 0x20 ADD PUSH1 0x1 DUP3 MUL DUP1 CALLDATASIZE DUP4 CALLDATACOPY DUP1 DUP3 ADD SWAP2 POP POP SWAP1 POP JUMPDEST POP PUSH1 0x0 SWAP1 DUP2 PUSH2 0x60 SWAP2 SWAP1 PUSH2 0x2C3 JUMP JUMPDEST POP CALLVALUE DUP1 ISZERO PUSH2 0x6D JUMPI PUSH1 0x0 DUP1 REVERT JUMPDEST POP PUSH2 0x395 JUMP JUMPDEST PUSH32 0x4E487B7100000000000000000000000000000000000000000000000000000000 PUSH1 0x0 MSTORE PUSH1 0x41 PUSH1 0x4 MSTORE PUSH1 0x24 PUSH1 0x0 REVERT JUMPDEST PUSH1 0x0 DUP2 MLOAD SWAP1 POP SWAP2 SWAP1 POP JUMP JUMPDEST PUSH32 0x4E487B7100000000000000000000000000000000000000000000000000000000 PUSH1 0x0 MSTORE PUSH1 0x22 PUSH1 0x4 MSTORE PUSH1 0x24 PUSH1 0x0 REVERT JUMPDEST PUSH1 0x0 PUSH1 0x2 DUP3 DIV SWAP1 POP PUSH1 0x1 DUP3 AND DUP1 PUSH2 0xF4 JUMPI PUSH1 0x7F DUP3 AND SWAP2 POP JUMPDEST PUSH1 0x20 DUP3 LT DUP2 SUB PUSH2 0x107 JUMPI PUSH2 0x106 PUSH2 0xAD JUMP JUMPDEST JUMPDEST POP SWAP2 SWAP1 POP JUMP JUMPDEST PUSH1 0x0 DUP2 SWAP1 POP DUP2 PUSH1 0x0 MSTORE PUSH1 0x20 PUSH1 0x0 KECCAK256 SWAP1 POP SWAP2 SWAP1 POP JUMP JUMPDEST PUSH1 0x0 PUSH1 0x20 PUSH1 0x1F DUP4 ADD DIV SWAP1 POP SWAP2 SWAP1 POP JUMP JUMPDEST PUSH1 0x0 DUP3 DUP3 SHL SWAP1 POP SWAP3 SWAP2 POP POP JUMP JUMPDEST PUSH1 0x0 PUSH1 0x8 DUP4 MUL PUSH2 0x16F PUSH32 0xFFFFFFFFFFFFFFFFFFFFFFFFFFFFFFFFFFFFFFFFFFFFFFFFFFFFFFFFFFFFFFFF DUP3 PUSH2 0x132 JUMP JUMPDEST PUSH2 0x179 DUP7 DUP4 PUSH2 0x132 JUMP JUMPDEST SWAP6 POP DUP1 NOT DUP5 AND SWAP4 POP DUP1 DUP7 AND DUP5 OR SWAP3 POP POP POP SWAP4 SWAP3 POP POP POP JUMP JUMPDEST PUSH1 0x0 DUP2 SWAP1 POP SWAP2 SWAP1 POP JUMP JUMPDEST PUSH1 0x0 DUP2 SWAP1 POP SWAP2 SWAP1 POP JUMP JUMPDEST PUSH1 0x0 PUSH2 0x1C0 PUSH2 0x1BB PUSH2 0x1B6 DUP5 PUSH2 0x191 JUMP JUMPDEST PUSH2 0x19B JUMP JUMPDEST PUSH2 0x191 JUMP JUMPDEST SWAP1 POP SWAP2 SWAP1 POP JUMP JUMPDEST PUSH1 0x0 DUP2 SWAP1 POP SWAP2 SWAP1 POP JUMP JUMPDEST PUSH2 0x1DA DUP4 PUSH2 0x1A5 JUMP JUMPDEST PUSH2 0x1EE PUSH2 0x1E6 DUP3 PUSH2 0x1C7 JUMP JUMPDEST DUP5 DUP5 SLOAD PUSH2 0x13F JUMP JUMPDEST DUP3 SSTORE POP POP POP POP JUMP JUMPDEST PUSH1 0x0 SWAP1 JUMP JUMPDEST PUSH2 0x203 PUSH2 0x1F6 JUMP JUMPDEST PUSH2 0x20E DUP2 DUP5 DUP5 PUSH2 0x1D1 JUMP JUMPDEST POP POP POP JUMP JUMPDEST JUMPDEST DUP2 DUP2 LT ISZERO PUSH2 0x232 JUMPI PUSH2 0x227 PUSH1 0x0 DUP3 PUSH2 0x1FB JUMP JUMPDEST PUSH1 0x1 DUP2 ADD SWAP1 POP PUSH2 0x214 JUMP JUMPDEST POP POP JUMP JUMPDEST PUSH1 0x1F DUP3 GT ISZERO PUSH2 0x277 JUMPI PUSH2 0x248 DUP2 PUSH2 0x10D JUMP JUMPDEST PUSH2 0x251 DUP5 PUSH2 0x122 JUMP JUMPDEST DUP2 ADD PUSH1 0x20 DUP6 LT ISZERO PUSH2 0x260 JUMPI DUP2 SWAP1 POP JUMPDEST PUSH2 0x274 PUSH2 0x26C DUP6 PUSH2 0x122 JUMP JUMPDEST DUP4 ADD DUP3 PUSH2 0x213 JUMP JUMPDEST POP POP JUMPDEST POP POP POP JUMP JUMPDEST PUSH1 0x0 DUP3 DUP3 SHR SWAP1 POP SWAP3 SWAP2 POP POP JUMP JUMPDEST PUSH1 0x0 PUSH2 0x29A PUSH1 0x0 NOT DUP5 PUSH1 0x8 MUL PUSH2 0x27C JUMP JUMPDEST NOT DUP1 DUP4 AND SWAP2 POP POP SWAP3 SWAP2 POP POP JUMP JUMPDEST PUSH1 0x0 PUSH2 0x2B3 DUP4 DUP4 PUSH2 0x289 JUMP JUMPDEST SWAP2 POP DUP3 PUSH1 0x2 MUL DUP3 OR SWAP1 POP SWAP3 SWAP2 POP POP JUMP JUMPDEST PUSH2 0x2CC DUP3 PUSH2 0xA2 JUMP JUMPDEST PUSH8 0xFFFFFFFFFFFFFFFF DUP2 GT ISZERO PUSH2 0x2E5 JUMPI PUSH2 0x2E4 PUSH2 0x73 JUMP JUMPDEST JUMPDEST PUSH2 0x2EF DUP3 SLOAD PUSH2 0xDC JUMP JUMPDEST PUSH2 0x2FA DUP3 DUP3 DUP6 PUSH2 0x236 JUMP JUMPDEST PUSH1 0x0 PUSH1 0x20 SWAP1 POP PUSH1 0x1F DUP4 GT PUSH1 0x1 DUP2 EQ PUSH2 0x32D JUMPI PUSH1 0x0 DUP5 ISZERO PUSH2 0x31B JUMPI DUP3 DUP8 ADD MLOAD SWAP1 POP JUMPDEST PUSH2 0x325 DUP6 DUP3 PUSH2 0x2A7 JUMP JUMPDEST DUP7 SSTORE POP PUSH2 0x38D JUMP JUMPDEST PUSH1 0x1F NOT DUP5 AND PUSH2 0x33B DUP7 PUSH2 0x10D JUMP JUMPDEST PUSH1 0x0 JUMPDEST DUP3 DUP2 LT ISZERO PUSH2 0x363 JUMPI DUP5 DUP10 ADD MLOAD DUP3 SSTORE PUSH1 0x1 DUP3 ADD SWAP2 POP PUSH1 0x20 DUP6 ADD SWAP5 POP PUSH1 0x20 DUP2 ADD SWAP1 POP PUSH2 0x33E JUMP JUMPDEST DUP7 DUP4 LT ISZERO PUSH2 0x380 JUMPI DUP5 DUP10 ADD MLOAD PUSH2 0x37C PUSH1 0x1F DUP10 AND DUP3 PUSH2 0x289 JUMP JUMPDEST DUP4 SSTORE POP JUMPDEST PUSH1 0x1 PUSH1 0x2 DUP9 MUL ADD DUP9 SSTORE POP POP POP JUMPDEST POP POP POP POP POP POP JUMP JUMPDEST PUSH2 0x2DD DUP1 PUSH2 0x3A4 PUSH1 0x0 CODECOPY PUSH1 0x0 RETURN INVALID PUSH1 0x80 PUSH1 0x40 MSTORE CALLVALUE DUP1 ISZERO PUSH2 0x10 JUMPI PUSH1 0x0 DUP1 REVERT JUMPDEST POP PUSH1 0x4 CALLDATASIZE LT PUSH2 0x2B JUMPI PUSH1 0x0 CALLDATALOAD PUSH1 0xE0 SHR DUP1 PUSH4 0xE8BF9BE5 EQ PUSH2 0x30 JUMPI JUMPDEST PUSH1 0x0 DUP1 REVERT JUMPDEST PUSH2 0x38 PUSH2 0x3A JUMP JUMPDEST STOP JUMPDEST PUSH1 0x0 PUSH1 0x65 PUSH1 0xF8 SHL SWAP1 POP PUSH1 0x0 DUP2 SWAP1 DUP1 DUP1 SLOAD DUP1 PUSH2 0x54 SWAP1 PUSH2 0x276 JUMP JUMPDEST DUP1 PUSH1 0x1F DUP2 SUB PUSH2 0x73 JUMPI DUP4 PUSH1 0x0 MSTORE PUSH1 0x20 PUSH1 0x0 KECCAK256 PUSH1 0xFF NOT DUP5 AND DUP2 SSTORE PUSH1 0x3F SWAP4 POP POP JUMPDEST POP PUSH1 0x2 DUP3 ADD DUP4 SSTORE PUSH1 0x1 DUP2 ADD SWAP3 POP POP POP PUSH1 0x1 SWAP1 SUB DUP2 SLOAD PUSH1 0x1 AND ISZERO PUSH2 0xA5 JUMPI SWAP1 PUSH1 0x0 MSTORE PUSH1 0x20 PUSH1 0x0 KECCAK256 SWAP1 PUSH1 0x20 SWAP2 DUP3 DUP3 DIV ADD SWAP2 SWAP1 MOD JUMPDEST SWAP1 SWAP2 SWAP1 SWAP2 SWAP1 SWAP2 PUSH1 0x1F SUB PUSH2 0x100 EXP DUP2 SLOAD DUP2 PUSH1 0xFF MUL NOT AND SWAP1 PUSH32 0x100000000000000000000000000000000000000000000000000000000000000 DUP5 DIV MUL OR SWAP1 SSTORE POP PUSH1 0x0 PUSH1 0x5A SWAP1 DUP1 DUP1 SLOAD DUP1 PUSH2 0xF5 SWAP1 PUSH2 0x276 JUMP JUMPDEST DUP1 PUSH1 0x1F DUP2 SUB PUSH2 0x114 JUMPI DUP4 PUSH1 0x0 MSTORE PUSH1 0x20 PUSH1 0x0 KECCAK256 PUSH1 0xFF NOT DUP5 AND DUP2 SSTORE PUSH1 0x3F SWAP4 POP POP JUMPDEST POP PUSH1 0x2 DUP3 ADD DUP4 SSTORE PUSH1 0x1 DUP2 ADD SWAP3 POP POP POP PUSH1 0x1 SWAP1 SUB DUP2 SLOAD PUSH1 0x1 AND ISZERO PUSH2 0x146 JUMPI SWAP1 PUSH1 0x0 MSTORE PUSH1 0x20 PUSH1 0x0 KECCAK256 SWAP1 PUSH1 0x20 SWAP2 DUP3 DUP3 DIV ADD SWAP2 SWAP1 MOD JUMPDEST SWAP1 SWAP2 PUSH1 0xF8 SHL SWAP1 SWAP2 SWAP1 SWAP2 PUSH1 0x1F SUB PUSH2 0x100 EXP DUP2 SLOAD DUP2 PUSH1 0xFF MUL NOT AND SWAP1 PUSH32 0x100000000000000000000000000000000000000000000000000000000000000 DUP5 DIV MUL OR SWAP1 SSTORE POP PUSH1 0x0 DUP1 DUP1 SLOAD DUP1 PUSH2 0x196 SWAP1 PUSH2 0x276 JUMP JUMPDEST DUP1 PUSH1 0x1F DUP2 SUB PUSH2 0x1B5 JUMPI DUP4 PUSH1 0x0 MSTORE PUSH1 0x20 PUSH1 0x0 KECCAK256 PUSH1 0xFF NOT DUP5 AND DUP2 SSTORE PUSH1 0x3F SWAP4 POP POP JUMPDEST POP PUSH1 0x2 DUP3 ADD DUP4 SSTORE PUSH1 0x1 DUP2 ADD SWAP3 POP POP POP PUSH1 0x1 SWAP1 SUB DUP2 SLOAD PUSH1 0x1 AND ISZERO PUSH2 0x1E7 JUMPI SWAP1 PUSH1 0x0 MSTORE PUSH1 0x20 PUSH1 0x0 KECCAK256 SWAP1 PUSH1 0x20 SWAP2 DUP3 DUP3 DIV ADD SWAP2 SWAP1 MOD JUMPDEST PUSH32 0x6100000000000000000000000000000000000000000000000000000000000000 SWAP1 SWAP2 SWAP1 SWAP2 PUSH1 0x1F SUB PUSH2 0x100 EXP DUP2 SLOAD DUP2 PUSH1 0xFF MUL NOT AND SWAP1 PUSH32 0x100000000000000000000000000000000000000000000000000000000000000 DUP5 DIV MUL OR SWAP1 SSTORE POP POP JUMP JUMPDEST PUSH32 0x4E487B7100000000000000000000000000000000000000000000000000000000 PUSH1 0x0 MSTORE PUSH1 0x22 PUSH1 0x4 MSTORE PUSH1 0x24 PUSH1 0x0 REVERT JUMPDEST PUSH1 0x0 PUSH1 0x2 DUP3 DIV SWAP1 POP PUSH1 0x1 DUP3 AND DUP1 PUSH2 0x28E JUMPI PUSH1 0x7F DUP3 AND SWAP2 POP JUMPDEST PUSH1 0x20 DUP3 LT DUP2 SUB PUSH2 0x2A1 JUMPI PUSH2 0x2A0 PUSH2 0x247 JUMP JUMPDEST JUMPDEST POP SWAP2 SWAP1 POP JUMP INVALID LOG2 PUSH5 0x6970667358 0x22 SLT KECCAK256 0xB0 0xF9 PUSH13 0x43CC2EDDBCA02ABB441D548950 0xEF PUSH10 0xE1A72D2051C679D8284C PUSH26 0xFB013064736F6C634300080F0033000000000000000000000000 "
				},
				"gasEstimates": {
					"creation": {
						"codeDepositCost": "146600",
						"executionCost": "infinite",
						"totalCost": "infinite"
					},
					"external": {
						"updateValue()": "infinite"
					}
				},
				"methodIdentifiers": {
					"updateValue()": "e8bf9be5"
				}
			},
			"storageLayout": {
				"storage": [
					{
						"astId": 7,
						"contract": "bytearray.sol:btyes",
						"label": "localBytes",
						"offset": 0,
						"slot": "0",
						"type": "t_bytes_storage"
					}
				],
				"types": {
					"t_bytes_storage": {
						"encoding": "bytes",
						"label": "bytes",
						"numberOfBytes": "32"
					}
				}
			},
			"userdoc": {
				"kind": "user",
				"methods": {},
				"version": 1
			}
		}
	}
}