{
	"gisttest.sol": {
		"pay": {
			"abi": [
				{
					"constant": true,
					"inputs": [],
					"name": "getBalance",
					"outputs": [
						{
							"internalType": "uint256",
							"name": "",
							"type": "uint256"
						}
					],
					"payable": false,
					"stateMutability": "view",
					"type": "function"
				},
				{
					"constant": false,
					"inputs": [],
					"name": "payEther",
					"outputs": [],
					"payable": true,
					"stateMutability": "payable",
					"type": "function"
				},
				{
					"constant": false,
					"inputs": [],
					"name": "sendEnderAccount",
					"outputs": [],
					"payable": false,
					"stateMutability": "nonpayable",
					"type": "function"
				}
			],
			"devdoc": {
				"methods": {}
			},
			"evm": {
				"assembly": "    /* \"gisttest.sol\":36:358  contract pay\r... */\n  mstore(0x40, 0x80)\n    /* \"gisttest.sol\":79:121  0x4B20993Bc481177ec7E8f571ceCaE8A9e22C02db */\n  0x4b20993bc481177ec7e8f571cecae8a9e22c02db\n    /* \"gisttest.sol\":57:122  address payable user=(0x4B20993Bc481177ec7E8f571ceCaE8A9e22C02db) */\n  0x00\n  dup1\n  0x0100\n  exp\n  dup2\n  sload\n  dup2\n  0xffffffffffffffffffffffffffffffffffffffff\n  mul\n  not\n  and\n  swap1\n  dup4\n  0xffffffffffffffffffffffffffffffffffffffff\n  and\n  mul\n  or\n  swap1\n  sstore\n  pop\n    /* \"gisttest.sol\":36:358  contract pay\r... */\n  callvalue\n    /* \"--CODEGEN--\":8:17   */\n  dup1\n    /* \"--CODEGEN--\":5:7   */\n  iszero\n  tag_1\n  jumpi\n    /* \"--CODEGEN--\":30:31   */\n  0x00\n    /* \"--CODEGEN--\":27:28   */\n  dup1\n    /* \"--CODEGEN--\":20:32   */\n  revert\n    /* \"--CODEGEN--\":5:7   */\ntag_1:\n    /* \"gisttest.sol\":36:358  contract pay\r... */\n  pop\n  dataSize(sub_0)\n  dup1\n  dataOffset(sub_0)\n  0x00\n  codecopy\n  0x00\n  return\nstop\n\nsub_0: assembly {\n        /* \"gisttest.sol\":36:358  contract pay\r... */\n      mstore(0x40, 0x80)\n      jumpi(tag_1, lt(calldatasize, 0x04))\n      shr(0xe0, calldataload(0x00))\n      dup1\n      0x12065fe0\n      eq\n      tag_2\n      jumpi\n      dup1\n      0xf7474d00\n      eq\n      tag_3\n      jumpi\n      dup1\n      0xf795fe6b\n      eq\n      tag_4\n      jumpi\n    tag_1:\n      0x00\n      dup1\n      revert\n        /* \"gisttest.sol\":179:274  function getBalance() public view returns (uint){\r... */\n    tag_2:\n      callvalue\n        /* \"--CODEGEN--\":8:17   */\n      dup1\n        /* \"--CODEGEN--\":5:7   */\n      iszero\n      tag_5\n      jumpi\n        /* \"--CODEGEN--\":30:31   */\n      0x00\n        /* \"--CODEGEN--\":27:28   */\n      dup1\n        /* \"--CODEGEN--\":20:32   */\n      revert\n        /* \"--CODEGEN--\":5:7   */\n    tag_5:\n        /* \"gisttest.sol\":179:274  function getBalance() public view returns (uint){\r... */\n      pop\n      tag_6\n      tag_7\n      jump\t// in\n    tag_6:\n      mload(0x40)\n      dup1\n      dup3\n      dup2\n      mstore\n      0x20\n      add\n      swap2\n      pop\n      pop\n      mload(0x40)\n      dup1\n      swap2\n      sub\n      swap1\n      return\n        /* \"gisttest.sol\":129:173  function payEther() public payable{\r... */\n    tag_3:\n      tag_8\n      tag_9\n      jump\t// in\n    tag_8:\n      stop\n        /* \"gisttest.sol\":280:355  function sendEnderAccount() public{\r... */\n    tag_4:\n      callvalue\n        /* \"--CODEGEN--\":8:17   */\n      dup1\n        /* \"--CODEGEN--\":5:7   */\n      iszero\n      tag_10\n      jumpi\n        /* \"--CODEGEN--\":30:31   */\n      0x00\n        /* \"--CODEGEN--\":27:28   */\n      dup1\n        /* \"--CODEGEN--\":20:32   */\n      revert\n        /* \"--CODEGEN--\":5:7   */\n    tag_10:\n        /* \"gisttest.sol\":280:355  function sendEnderAccount() public{\r... */\n      pop\n      tag_11\n      tag_12\n      jump\t// in\n    tag_11:\n      stop\n        /* \"gisttest.sol\":179:274  function getBalance() public view returns (uint){\r... */\n    tag_7:\n        /* \"gisttest.sol\":222:226  uint */\n      0x00\n        /* \"gisttest.sol\":245:266  address(this).balance */\n      selfbalance\n        /* \"gisttest.sol\":238:266  return address(this).balance */\n      swap1\n      pop\n        /* \"gisttest.sol\":179:274  function getBalance() public view returns (uint){\r... */\n      swap1\n      jump\t// out\n        /* \"gisttest.sol\":129:173  function payEther() public payable{\r... */\n    tag_9:\n      jump\t// out\n        /* \"gisttest.sol\":280:355  function sendEnderAccount() public{\r... */\n    tag_12:\n        /* \"gisttest.sol\":325:329  user */\n      0x00\n      dup1\n      swap1\n      sload\n      swap1\n      0x0100\n      exp\n      swap1\n      div\n      0xffffffffffffffffffffffffffffffffffffffff\n      and\n        /* \"gisttest.sol\":325:338  user.transfer */\n      0xffffffffffffffffffffffffffffffffffffffff\n      and\n        /* \"gisttest.sol\":325:347  user.transfer(2 ether) */\n      0x08fc\n        /* \"gisttest.sol\":339:346  2 ether */\n      0x1bc16d674ec80000\n        /* \"gisttest.sol\":325:347  user.transfer(2 ether) */\n      swap1\n      dup2\n      iszero\n      mul\n      swap1\n      mload(0x40)\n      0x00\n      mload(0x40)\n      dup1\n      dup4\n      sub\n      dup2\n      dup6\n      dup9\n      dup9\n      call\n      swap4\n      pop\n      pop\n      pop\n      pop\n      iszero\n        /* \"--CODEGEN--\":8:17   */\n      dup1\n        /* \"--CODEGEN--\":5:7   */\n      iszero\n      tag_16\n      jumpi\n        /* \"--CODEGEN--\":45:61   */\n      returndatasize\n        /* \"--CODEGEN--\":42:43   */\n      0x00\n        /* \"--CODEGEN--\":39:40   */\n      dup1\n        /* \"--CODEGEN--\":24:62   */\n      returndatacopy\n        /* \"--CODEGEN--\":77:93   */\n      returndatasize\n        /* \"--CODEGEN--\":74:75   */\n      0x00\n        /* \"--CODEGEN--\":67:94   */\n      revert\n        /* \"--CODEGEN--\":5:7   */\n    tag_16:\n        /* \"gisttest.sol\":325:347  user.transfer(2 ether) */\n      pop\n        /* \"gisttest.sol\":280:355  function sendEnderAccount() public{\r... */\n      jump\t// out\n\n    auxdata: 0xa265627a7a723158206cba341d7dffafc54fbb83ea3e8d4242aa9a5e511666e7eaecef17c5a6003ad464736f6c63430005110032\n}\n",
				"bytecode": {
					"linkReferences": {},
					"object": "6080604052734b20993bc481177ec7e8f571cecae8a9e22c02db6000806101000a81548173ffffffffffffffffffffffffffffffffffffffff021916908373ffffffffffffffffffffffffffffffffffffffff16021790555034801561006457600080fd5b50610129806100746000396000f3fe60806040526004361060305760003560e01c806312065fe0146035578063f7474d0014605d578063f795fe6b146065575b600080fd5b348015604057600080fd5b5060476079565b6040518082815260200191505060405180910390f35b60636081565b005b348015607057600080fd5b5060776083565b005b600047905090565b565b6000809054906101000a900473ffffffffffffffffffffffffffffffffffffffff1673ffffffffffffffffffffffffffffffffffffffff166108fc671bc16d674ec800009081150290604051600060405180830381858888f1935050505015801560f1573d6000803e3d6000fd5b5056fea265627a7a723158206cba341d7dffafc54fbb83ea3e8d4242aa9a5e511666e7eaecef17c5a6003ad464736f6c63430005110032",
					"opcodes": "PUSH1 0x80 PUSH1 0x40 MSTORE PUSH20 0x4B20993BC481177EC7E8F571CECAE8A9E22C02DB PUSH1 0x0 DUP1 PUSH2 0x100 EXP DUP2 SLOAD DUP2 PUSH20 0xFFFFFFFFFFFFFFFFFFFFFFFFFFFFFFFFFFFFFFFF MUL NOT AND SWAP1 DUP4 PUSH20 0xFFFFFFFFFFFFFFFFFFFFFFFFFFFFFFFFFFFFFFFF AND MUL OR SWAP1 SSTORE POP CALLVALUE DUP1 ISZERO PUSH2 0x64 JUMPI PUSH1 0x0 DUP1 REVERT JUMPDEST POP PUSH2 0x129 DUP1 PUSH2 0x74 PUSH1 0x0 CODECOPY PUSH1 0x0 RETURN INVALID PUSH1 0x80 PUSH1 0x40 MSTORE PUSH1 0x4 CALLDATASIZE LT PUSH1 0x30 JUMPI PUSH1 0x0 CALLDATALOAD PUSH1 0xE0 SHR DUP1 PUSH4 0x12065FE0 EQ PUSH1 0x35 JUMPI DUP1 PUSH4 0xF7474D00 EQ PUSH1 0x5D JUMPI DUP1 PUSH4 0xF795FE6B EQ PUSH1 0x65 JUMPI JUMPDEST PUSH1 0x0 DUP1 REVERT JUMPDEST CALLVALUE DUP1 ISZERO PUSH1 0x40 JUMPI PUSH1 0x0 DUP1 REVERT JUMPDEST POP PUSH1 0x47 PUSH1 0x79 JUMP JUMPDEST PUSH1 0x40 MLOAD DUP1 DUP3 DUP2 MSTORE PUSH1 0x20 ADD SWAP2 POP POP PUSH1 0x40 MLOAD DUP1 SWAP2 SUB SWAP1 RETURN JUMPDEST PUSH1 0x63 PUSH1 0x81 JUMP JUMPDEST STOP JUMPDEST CALLVALUE DUP1 ISZERO PUSH1 0x70 JUMPI PUSH1 0x0 DUP1 REVERT JUMPDEST POP PUSH1 0x77 PUSH1 0x83 JUMP JUMPDEST STOP JUMPDEST PUSH1 0x0 SELFBALANCE SWAP1 POP SWAP1 JUMP JUMPDEST JUMP JUMPDEST PUSH1 0x0 DUP1 SWAP1 SLOAD SWAP1 PUSH2 0x100 EXP SWAP1 DIV PUSH20 0xFFFFFFFFFFFFFFFFFFFFFFFFFFFFFFFFFFFFFFFF AND PUSH20 0xFFFFFFFFFFFFFFFFFFFFFFFFFFFFFFFFFFFFFFFF AND PUSH2 0x8FC PUSH8 0x1BC16D674EC80000 SWAP1 DUP2 ISZERO MUL SWAP1 PUSH1 0x40 MLOAD PUSH1 0x0 PUSH1 0x40 MLOAD DUP1 DUP4 SUB DUP2 DUP6 DUP9 DUP9 CALL SWAP4 POP POP POP POP ISZERO DUP1 ISZERO PUSH1 0xF1 JUMPI RETURNDATASIZE PUSH1 0x0 DUP1 RETURNDATACOPY RETURNDATASIZE PUSH1 0x0 REVERT JUMPDEST POP JUMP INVALID LOG2 PUSH6 0x627A7A723158 KECCAK256 PUSH13 0xBA341D7DFFAFC54FBB83EA3E8D TIMESTAMP TIMESTAMP 0xAA SWAP11 0x5E MLOAD AND PUSH7 0xE7EAECEF17C5A6 STOP GASPRICE 0xD4 PUSH5 0x736F6C6343 STOP SDIV GT STOP ORIGIN "
				},
				"gasEstimates": {
					"creation": {
						"codeDepositCost": "59400",
						"executionCost": "20978",
						"totalCost": "80378"
					},
					"external": {
						"getBalance()": "193",
						"payEther()": "120",
						"sendEnderAccount()": "infinite"
					}
				},
				"methodIdentifiers": {
					"getBalance()": "12065fe0",
					"payEther()": "f7474d00",
					"sendEnderAccount()": "f795fe6b"
				}
			},
			"storageLayout": {
				"storage": [
					{
						"astId": 5,
						"contract": "gisttest.sol:pay",
						"label": "user",
						"offset": 0,
						"slot": "0",
						"type": "t_address_payable"
					}
				],
				"types": {
					"t_address_payable": {
						"encoding": "inplace",
						"label": "address payable",
						"numberOfBytes": "20"
					}
				}
			},
			"userdoc": {
				"methods": {}
			}
		}
	}
}