{
	"testing.sol": {
		"testing": {
			"abi": [
				{
					"inputs": [
						{
							"internalType": "uint256",
							"name": "",
							"type": "uint256"
						}
					],
					"name": "book_detail",
					"outputs": [
						{
							"internalType": "string",
							"name": "title",
							"type": "string"
						},
						{
							"internalType": "string",
							"name": "author",
							"type": "string"
						},
						{
							"internalType": "uint256",
							"name": "number",
							"type": "uint256"
						},
						{
							"internalType": "uint256",
							"name": "shelfbook",
							"type": "uint256"
						}
					],
					"stateMutability": "view",
					"type": "function"
				},
				{
					"inputs": [
						{
							"internalType": "uint256",
							"name": "id",
							"type": "uint256"
						},
						{
							"internalType": "string",
							"name": "title",
							"type": "string"
						},
						{
							"internalType": "string",
							"name": "author",
							"type": "string"
						},
						{
							"internalType": "uint256",
							"name": "number",
							"type": "uint256"
						},
						{
							"internalType": "uint256",
							"name": "shelfbook",
							"type": "uint256"
						}
					],
					"name": "set",
					"outputs": [],
					"stateMutability": "nonpayable",
					"type": "function"
				}
			],
			"devdoc": {
				"kind": "dev",
				"methods": {},
				"version": 1
			},
			"evm": {
				"assembly": "    /* \"testing.sol\":66:373  contract testing{\r... */\n  mstore(0x40, 0x80)\n  callvalue\n  dup1\n  iszero\n  tag_1\n  jumpi\n  0x00\n  dup1\n  revert\ntag_1:\n  pop\n  dataSize(sub_0)\n  dup1\n  dataOffset(sub_0)\n  0x00\n  codecopy\n  0x00\n  return\nstop\n\nsub_0: assembly {\n        /* \"testing.sol\":66:373  contract testing{\r... */\n      mstore(0x40, 0x80)\n      callvalue\n      dup1\n      iszero\n      tag_1\n      jumpi\n      0x00\n      dup1\n      revert\n    tag_1:\n      pop\n      jumpi(tag_2, lt(calldatasize, 0x04))\n      shr(0xe0, calldataload(0x00))\n      dup1\n      0x5365ce58\n      eq\n      tag_3\n      jumpi\n      dup1\n      0x9ab14cb0\n      eq\n      tag_4\n      jumpi\n    tag_2:\n      0x00\n      dup1\n      revert\n        /* \"testing.sol\":258:370  function set (uint id, string memory title, string memory author, uint number, uint shelfbook) public {\r... */\n    tag_3:\n      tag_5\n      0x04\n      dup1\n      calldatasize\n      sub\n      dup2\n      add\n      swap1\n      tag_6\n      swap2\n      swap1\n      tag_7\n      jump\t// in\n    tag_6:\n      tag_8\n      jump\t// in\n    tag_5:\n      stop\n        /* \"testing.sol\":208:249  mapping (uint => book) public book_detail */\n    tag_4:\n      tag_9\n      0x04\n      dup1\n      calldatasize\n      sub\n      dup2\n      add\n      swap1\n      tag_10\n      swap2\n      swap1\n      tag_11\n      jump\t// in\n    tag_10:\n      tag_12\n      jump\t// in\n    tag_9:\n      mload(0x40)\n      tag_13\n      swap5\n      swap4\n      swap3\n      swap2\n      swap1\n      tag_14\n      jump\t// in\n    tag_13:\n      mload(0x40)\n      dup1\n      swap2\n      sub\n      swap1\n      return\n        /* \"testing.sol\":258:370  function set (uint id, string memory title, string memory author, uint number, uint shelfbook) public {\r... */\n    tag_8:\n      pop\n      pop\n      pop\n      pop\n      pop\n      jump\t// out\n        /* \"testing.sol\":208:249  mapping (uint => book) public book_detail */\n    tag_12:\n      mstore(0x20, 0x00)\n      dup1\n      0x00\n      mstore\n      keccak256(0x00, 0x40)\n      0x00\n      swap2\n      pop\n      swap1\n      pop\n      dup1\n      0x00\n      add\n      dup1\n      sload\n      tag_16\n      swap1\n      tag_17\n      jump\t// in\n    tag_16:\n      dup1\n      0x1f\n      add\n      0x20\n      dup1\n      swap2\n      div\n      mul\n      0x20\n      add\n      mload(0x40)\n      swap1\n      dup2\n      add\n      0x40\n      mstore\n      dup1\n      swap3\n      swap2\n      swap1\n      dup2\n      dup2\n      mstore\n      0x20\n      add\n      dup3\n      dup1\n      sload\n      tag_18\n      swap1\n      tag_17\n      jump\t// in\n    tag_18:\n      dup1\n      iszero\n      tag_19\n      jumpi\n      dup1\n      0x1f\n      lt\n      tag_20\n      jumpi\n      0x0100\n      dup1\n      dup4\n      sload\n      div\n      mul\n      dup4\n      mstore\n      swap2\n      0x20\n      add\n      swap2\n      jump(tag_19)\n    tag_20:\n      dup3\n      add\n      swap2\n      swap1\n      0x00\n      mstore\n      keccak256(0x00, 0x20)\n      swap1\n    tag_21:\n      dup2\n      sload\n      dup2\n      mstore\n      swap1\n      0x01\n      add\n      swap1\n      0x20\n      add\n      dup1\n      dup4\n      gt\n      tag_21\n      jumpi\n      dup3\n      swap1\n      sub\n      0x1f\n      and\n      dup3\n      add\n      swap2\n    tag_19:\n      pop\n      pop\n      pop\n      pop\n      pop\n      swap1\n      dup1\n      0x01\n      add\n      dup1\n      sload\n      tag_22\n      swap1\n      tag_17\n      jump\t// in\n    tag_22:\n      dup1\n      0x1f\n      add\n      0x20\n      dup1\n      swap2\n      div\n      mul\n      0x20\n      add\n      mload(0x40)\n      swap1\n      dup2\n      add\n      0x40\n      mstore\n      dup1\n      swap3\n      swap2\n      swap1\n      dup2\n      dup2\n      mstore\n      0x20\n      add\n      dup3\n      dup1\n      sload\n      tag_23\n      swap1\n      tag_17\n      jump\t// in\n    tag_23:\n      dup1\n      iszero\n      tag_24\n      jumpi\n      dup1\n      0x1f\n      lt\n      tag_25\n      jumpi\n      0x0100\n      dup1\n      dup4\n      sload\n      div\n      mul\n      dup4\n      mstore\n      swap2\n      0x20\n      add\n      swap2\n      jump(tag_24)\n    tag_25:\n      dup3\n      add\n      swap2\n      swap1\n      0x00\n      mstore\n      keccak256(0x00, 0x20)\n      swap1\n    tag_26:\n      dup2\n      sload\n      dup2\n      mstore\n      swap1\n      0x01\n      add\n      swap1\n      0x20\n      add\n      dup1\n      dup4\n      gt\n      tag_26\n      jumpi\n      dup3\n      swap1\n      sub\n      0x1f\n      and\n      dup3\n      add\n      swap2\n    tag_24:\n      pop\n      pop\n      pop\n      pop\n      pop\n      swap1\n      dup1\n      0x02\n      add\n      sload\n      swap1\n      dup1\n      0x03\n      add\n      sload\n      swap1\n      pop\n      dup5\n      jump\t// out\n        /* \"#utility.yul\":7:419   */\n    tag_28:\n        /* \"#utility.yul\":85:90   */\n      0x00\n        /* \"#utility.yul\":110:176   */\n      tag_30\n        /* \"#utility.yul\":126:175   */\n      tag_31\n        /* \"#utility.yul\":168:174   */\n      dup5\n        /* \"#utility.yul\":126:175   */\n      tag_32\n      jump\t// in\n    tag_31:\n        /* \"#utility.yul\":110:176   */\n      tag_33\n      jump\t// in\n    tag_30:\n        /* \"#utility.yul\":101:176   */\n      swap1\n      pop\n        /* \"#utility.yul\":199:205   */\n      dup3\n        /* \"#utility.yul\":192:197   */\n      dup2\n        /* \"#utility.yul\":185:206   */\n      mstore\n        /* \"#utility.yul\":237:241   */\n      0x20\n        /* \"#utility.yul\":230:235   */\n      dup2\n        /* \"#utility.yul\":226:242   */\n      add\n        /* \"#utility.yul\":275:278   */\n      dup5\n        /* \"#utility.yul\":266:272   */\n      dup5\n        /* \"#utility.yul\":261:264   */\n      dup5\n        /* \"#utility.yul\":257:273   */\n      add\n        /* \"#utility.yul\":254:279   */\n      gt\n        /* \"#utility.yul\":251:363   */\n      iszero\n      tag_34\n      jumpi\n        /* \"#utility.yul\":282:361   */\n      tag_35\n      tag_36\n      jump\t// in\n    tag_35:\n        /* \"#utility.yul\":251:363   */\n    tag_34:\n        /* \"#utility.yul\":372:413   */\n      tag_37\n        /* \"#utility.yul\":406:412   */\n      dup5\n        /* \"#utility.yul\":401:404   */\n      dup3\n        /* \"#utility.yul\":396:399   */\n      dup6\n        /* \"#utility.yul\":372:413   */\n      tag_38\n      jump\t// in\n    tag_37:\n        /* \"#utility.yul\":91:419   */\n      pop\n        /* \"#utility.yul\":7:419   */\n      swap4\n      swap3\n      pop\n      pop\n      pop\n      jump\t// out\n        /* \"#utility.yul\":439:779   */\n    tag_39:\n        /* \"#utility.yul\":495:500   */\n      0x00\n        /* \"#utility.yul\":544:547   */\n      dup3\n        /* \"#utility.yul\":537:541   */\n      0x1f\n        /* \"#utility.yul\":529:535   */\n      dup4\n        /* \"#utility.yul\":525:542   */\n      add\n        /* \"#utility.yul\":521:548   */\n      slt\n        /* \"#utility.yul\":511:633   */\n      tag_41\n      jumpi\n        /* \"#utility.yul\":552:631   */\n      tag_42\n      tag_43\n      jump\t// in\n    tag_42:\n        /* \"#utility.yul\":511:633   */\n    tag_41:\n        /* \"#utility.yul\":669:675   */\n      dup2\n        /* \"#utility.yul\":656:676   */\n      calldataload\n        /* \"#utility.yul\":694:773   */\n      tag_44\n        /* \"#utility.yul\":769:772   */\n      dup5\n        /* \"#utility.yul\":761:767   */\n      dup3\n        /* \"#utility.yul\":754:758   */\n      0x20\n        /* \"#utility.yul\":746:752   */\n      dup7\n        /* \"#utility.yul\":742:759   */\n      add\n        /* \"#utility.yul\":694:773   */\n      tag_28\n      jump\t// in\n    tag_44:\n        /* \"#utility.yul\":685:773   */\n      swap2\n      pop\n        /* \"#utility.yul\":501:779   */\n      pop\n        /* \"#utility.yul\":439:779   */\n      swap3\n      swap2\n      pop\n      pop\n      jump\t// out\n        /* \"#utility.yul\":785:924   */\n    tag_45:\n        /* \"#utility.yul\":831:836   */\n      0x00\n        /* \"#utility.yul\":869:875   */\n      dup2\n        /* \"#utility.yul\":856:876   */\n      calldataload\n        /* \"#utility.yul\":847:876   */\n      swap1\n      pop\n        /* \"#utility.yul\":885:918   */\n      tag_47\n        /* \"#utility.yul\":912:917   */\n      dup2\n        /* \"#utility.yul\":885:918   */\n      tag_48\n      jump\t// in\n    tag_47:\n        /* \"#utility.yul\":785:924   */\n      swap3\n      swap2\n      pop\n      pop\n      jump\t// out\n        /* \"#utility.yul\":930:1259   */\n    tag_11:\n        /* \"#utility.yul\":989:995   */\n      0x00\n        /* \"#utility.yul\":1038:1040   */\n      0x20\n        /* \"#utility.yul\":1026:1035   */\n      dup3\n        /* \"#utility.yul\":1017:1024   */\n      dup5\n        /* \"#utility.yul\":1013:1036   */\n      sub\n        /* \"#utility.yul\":1009:1041   */\n      slt\n        /* \"#utility.yul\":1006:1125   */\n      iszero\n      tag_50\n      jumpi\n        /* \"#utility.yul\":1044:1123   */\n      tag_51\n      tag_52\n      jump\t// in\n    tag_51:\n        /* \"#utility.yul\":1006:1125   */\n    tag_50:\n        /* \"#utility.yul\":1164:1165   */\n      0x00\n        /* \"#utility.yul\":1189:1242   */\n      tag_53\n        /* \"#utility.yul\":1234:1241   */\n      dup5\n        /* \"#utility.yul\":1225:1231   */\n      dup3\n        /* \"#utility.yul\":1214:1223   */\n      dup6\n        /* \"#utility.yul\":1210:1232   */\n      add\n        /* \"#utility.yul\":1189:1242   */\n      tag_45\n      jump\t// in\n    tag_53:\n        /* \"#utility.yul\":1179:1242   */\n      swap2\n      pop\n        /* \"#utility.yul\":1135:1252   */\n      pop\n        /* \"#utility.yul\":930:1259   */\n      swap3\n      swap2\n      pop\n      pop\n      jump\t// out\n        /* \"#utility.yul\":1265:2536   */\n    tag_7:\n        /* \"#utility.yul\":1380:1386   */\n      0x00\n        /* \"#utility.yul\":1388:1394   */\n      dup1\n        /* \"#utility.yul\":1396:1402   */\n      0x00\n        /* \"#utility.yul\":1404:1410   */\n      dup1\n        /* \"#utility.yul\":1412:1418   */\n      0x00\n        /* \"#utility.yul\":1461:1464   */\n      0xa0\n        /* \"#utility.yul\":1449:1458   */\n      dup7\n        /* \"#utility.yul\":1440:1447   */\n      dup9\n        /* \"#utility.yul\":1436:1459   */\n      sub\n        /* \"#utility.yul\":1432:1465   */\n      slt\n        /* \"#utility.yul\":1429:1549   */\n      iszero\n      tag_55\n      jumpi\n        /* \"#utility.yul\":1468:1547   */\n      tag_56\n      tag_52\n      jump\t// in\n    tag_56:\n        /* \"#utility.yul\":1429:1549   */\n    tag_55:\n        /* \"#utility.yul\":1588:1589   */\n      0x00\n        /* \"#utility.yul\":1613:1666   */\n      tag_57\n        /* \"#utility.yul\":1658:1665   */\n      dup9\n        /* \"#utility.yul\":1649:1655   */\n      dup3\n        /* \"#utility.yul\":1638:1647   */\n      dup10\n        /* \"#utility.yul\":1634:1656   */\n      add\n        /* \"#utility.yul\":1613:1666   */\n      tag_45\n      jump\t// in\n    tag_57:\n        /* \"#utility.yul\":1603:1666   */\n      swap6\n      pop\n        /* \"#utility.yul\":1559:1676   */\n      pop\n        /* \"#utility.yul\":1743:1745   */\n      0x20\n        /* \"#utility.yul\":1732:1741   */\n      dup7\n        /* \"#utility.yul\":1728:1746   */\n      add\n        /* \"#utility.yul\":1715:1747   */\n      calldataload\n        /* \"#utility.yul\":1774:1792   */\n      0xffffffffffffffff\n        /* \"#utility.yul\":1766:1772   */\n      dup2\n        /* \"#utility.yul\":1763:1793   */\n      gt\n        /* \"#utility.yul\":1760:1877   */\n      iszero\n      tag_58\n      jumpi\n        /* \"#utility.yul\":1796:1875   */\n      tag_59\n      tag_60\n      jump\t// in\n    tag_59:\n        /* \"#utility.yul\":1760:1877   */\n    tag_58:\n        /* \"#utility.yul\":1901:1964   */\n      tag_61\n        /* \"#utility.yul\":1956:1963   */\n      dup9\n        /* \"#utility.yul\":1947:1953   */\n      dup3\n        /* \"#utility.yul\":1936:1945   */\n      dup10\n        /* \"#utility.yul\":1932:1954   */\n      add\n        /* \"#utility.yul\":1901:1964   */\n      tag_39\n      jump\t// in\n    tag_61:\n        /* \"#utility.yul\":1891:1964   */\n      swap5\n      pop\n        /* \"#utility.yul\":1686:1974   */\n      pop\n        /* \"#utility.yul\":2041:2043   */\n      0x40\n        /* \"#utility.yul\":2030:2039   */\n      dup7\n        /* \"#utility.yul\":2026:2044   */\n      add\n        /* \"#utility.yul\":2013:2045   */\n      calldataload\n        /* \"#utility.yul\":2072:2090   */\n      0xffffffffffffffff\n        /* \"#utility.yul\":2064:2070   */\n      dup2\n        /* \"#utility.yul\":2061:2091   */\n      gt\n        /* \"#utility.yul\":2058:2175   */\n      iszero\n      tag_62\n      jumpi\n        /* \"#utility.yul\":2094:2173   */\n      tag_63\n      tag_60\n      jump\t// in\n    tag_63:\n        /* \"#utility.yul\":2058:2175   */\n    tag_62:\n        /* \"#utility.yul\":2199:2262   */\n      tag_64\n        /* \"#utility.yul\":2254:2261   */\n      dup9\n        /* \"#utility.yul\":2245:2251   */\n      dup3\n        /* \"#utility.yul\":2234:2243   */\n      dup10\n        /* \"#utility.yul\":2230:2252   */\n      add\n        /* \"#utility.yul\":2199:2262   */\n      tag_39\n      jump\t// in\n    tag_64:\n        /* \"#utility.yul\":2189:2262   */\n      swap4\n      pop\n        /* \"#utility.yul\":1984:2272   */\n      pop\n        /* \"#utility.yul\":2311:2313   */\n      0x60\n        /* \"#utility.yul\":2337:2390   */\n      tag_65\n        /* \"#utility.yul\":2382:2389   */\n      dup9\n        /* \"#utility.yul\":2373:2379   */\n      dup3\n        /* \"#utility.yul\":2362:2371   */\n      dup10\n        /* \"#utility.yul\":2358:2380   */\n      add\n        /* \"#utility.yul\":2337:2390   */\n      tag_45\n      jump\t// in\n    tag_65:\n        /* \"#utility.yul\":2327:2390   */\n      swap3\n      pop\n        /* \"#utility.yul\":2282:2400   */\n      pop\n        /* \"#utility.yul\":2439:2442   */\n      0x80\n        /* \"#utility.yul\":2466:2519   */\n      tag_66\n        /* \"#utility.yul\":2511:2518   */\n      dup9\n        /* \"#utility.yul\":2502:2508   */\n      dup3\n        /* \"#utility.yul\":2491:2500   */\n      dup10\n        /* \"#utility.yul\":2487:2509   */\n      add\n        /* \"#utility.yul\":2466:2519   */\n      tag_45\n      jump\t// in\n    tag_66:\n        /* \"#utility.yul\":2456:2519   */\n      swap2\n      pop\n        /* \"#utility.yul\":2410:2529   */\n      pop\n        /* \"#utility.yul\":1265:2536   */\n      swap3\n      swap6\n      pop\n      swap3\n      swap6\n      swap1\n      swap4\n      pop\n      jump\t// out\n        /* \"#utility.yul\":2542:2906   */\n    tag_67:\n        /* \"#utility.yul\":2630:2633   */\n      0x00\n        /* \"#utility.yul\":2658:2697   */\n      tag_69\n        /* \"#utility.yul\":2691:2696   */\n      dup3\n        /* \"#utility.yul\":2658:2697   */\n      tag_70\n      jump\t// in\n    tag_69:\n        /* \"#utility.yul\":2713:2784   */\n      tag_71\n        /* \"#utility.yul\":2777:2783   */\n      dup2\n        /* \"#utility.yul\":2772:2775   */\n      dup6\n        /* \"#utility.yul\":2713:2784   */\n      tag_72\n      jump\t// in\n    tag_71:\n        /* \"#utility.yul\":2706:2784   */\n      swap4\n      pop\n        /* \"#utility.yul\":2793:2845   */\n      tag_73\n        /* \"#utility.yul\":2838:2844   */\n      dup2\n        /* \"#utility.yul\":2833:2836   */\n      dup6\n        /* \"#utility.yul\":2826:2830   */\n      0x20\n        /* \"#utility.yul\":2819:2824   */\n      dup7\n        /* \"#utility.yul\":2815:2831   */\n      add\n        /* \"#utility.yul\":2793:2845   */\n      tag_74\n      jump\t// in\n    tag_73:\n        /* \"#utility.yul\":2870:2899   */\n      tag_75\n        /* \"#utility.yul\":2892:2898   */\n      dup2\n        /* \"#utility.yul\":2870:2899   */\n      tag_76\n      jump\t// in\n    tag_75:\n        /* \"#utility.yul\":2865:2868   */\n      dup5\n        /* \"#utility.yul\":2861:2900   */\n      add\n        /* \"#utility.yul\":2854:2900   */\n      swap2\n      pop\n        /* \"#utility.yul\":2634:2906   */\n      pop\n        /* \"#utility.yul\":2542:2906   */\n      swap3\n      swap2\n      pop\n      pop\n      jump\t// out\n        /* \"#utility.yul\":2912:3030   */\n    tag_77:\n        /* \"#utility.yul\":2999:3023   */\n      tag_79\n        /* \"#utility.yul\":3017:3022   */\n      dup2\n        /* \"#utility.yul\":2999:3023   */\n      tag_80\n      jump\t// in\n    tag_79:\n        /* \"#utility.yul\":2994:2997   */\n      dup3\n        /* \"#utility.yul\":2987:3024   */\n      mstore\n        /* \"#utility.yul\":2912:3030   */\n      pop\n      pop\n      jump\t// out\n        /* \"#utility.yul\":3036:3771   */\n    tag_14:\n        /* \"#utility.yul\":3253:3257   */\n      0x00\n        /* \"#utility.yul\":3291:3294   */\n      0x80\n        /* \"#utility.yul\":3280:3289   */\n      dup3\n        /* \"#utility.yul\":3276:3295   */\n      add\n        /* \"#utility.yul\":3268:3295   */\n      swap1\n      pop\n        /* \"#utility.yul\":3341:3350   */\n      dup2\n        /* \"#utility.yul\":3335:3339   */\n      dup2\n        /* \"#utility.yul\":3331:3351   */\n      sub\n        /* \"#utility.yul\":3327:3328   */\n      0x00\n        /* \"#utility.yul\":3316:3325   */\n      dup4\n        /* \"#utility.yul\":3312:3329   */\n      add\n        /* \"#utility.yul\":3305:3352   */\n      mstore\n        /* \"#utility.yul\":3369:3447   */\n      tag_82\n        /* \"#utility.yul\":3442:3446   */\n      dup2\n        /* \"#utility.yul\":3433:3439   */\n      dup8\n        /* \"#utility.yul\":3369:3447   */\n      tag_67\n      jump\t// in\n    tag_82:\n        /* \"#utility.yul\":3361:3447   */\n      swap1\n      pop\n        /* \"#utility.yul\":3494:3503   */\n      dup2\n        /* \"#utility.yul\":3488:3492   */\n      dup2\n        /* \"#utility.yul\":3484:3504   */\n      sub\n        /* \"#utility.yul\":3479:3481   */\n      0x20\n        /* \"#utility.yul\":3468:3477   */\n      dup4\n        /* \"#utility.yul\":3464:3482   */\n      add\n        /* \"#utility.yul\":3457:3505   */\n      mstore\n        /* \"#utility.yul\":3522:3600   */\n      tag_83\n        /* \"#utility.yul\":3595:3599   */\n      dup2\n        /* \"#utility.yul\":3586:3592   */\n      dup7\n        /* \"#utility.yul\":3522:3600   */\n      tag_67\n      jump\t// in\n    tag_83:\n        /* \"#utility.yul\":3514:3600   */\n      swap1\n      pop\n        /* \"#utility.yul\":3610:3682   */\n      tag_84\n        /* \"#utility.yul\":3678:3680   */\n      0x40\n        /* \"#utility.yul\":3667:3676   */\n      dup4\n        /* \"#utility.yul\":3663:3681   */\n      add\n        /* \"#utility.yul\":3654:3660   */\n      dup6\n        /* \"#utility.yul\":3610:3682   */\n      tag_77\n      jump\t// in\n    tag_84:\n        /* \"#utility.yul\":3692:3764   */\n      tag_85\n        /* \"#utility.yul\":3760:3762   */\n      0x60\n        /* \"#utility.yul\":3749:3758   */\n      dup4\n        /* \"#utility.yul\":3745:3763   */\n      add\n        /* \"#utility.yul\":3736:3742   */\n      dup5\n        /* \"#utility.yul\":3692:3764   */\n      tag_77\n      jump\t// in\n    tag_85:\n        /* \"#utility.yul\":3036:3771   */\n      swap6\n      swap5\n      pop\n      pop\n      pop\n      pop\n      pop\n      jump\t// out\n        /* \"#utility.yul\":3777:3906   */\n    tag_33:\n        /* \"#utility.yul\":3811:3817   */\n      0x00\n        /* \"#utility.yul\":3838:3858   */\n      tag_87\n      tag_88\n      jump\t// in\n    tag_87:\n        /* \"#utility.yul\":3828:3858   */\n      swap1\n      pop\n        /* \"#utility.yul\":3867:3900   */\n      tag_89\n        /* \"#utility.yul\":3895:3899   */\n      dup3\n        /* \"#utility.yul\":3887:3893   */\n      dup3\n        /* \"#utility.yul\":3867:3900   */\n      tag_90\n      jump\t// in\n    tag_89:\n        /* \"#utility.yul\":3777:3906   */\n      swap2\n      swap1\n      pop\n      jump\t// out\n        /* \"#utility.yul\":3912:3987   */\n    tag_88:\n        /* \"#utility.yul\":3945:3951   */\n      0x00\n        /* \"#utility.yul\":3978:3980   */\n      0x40\n        /* \"#utility.yul\":3972:3981   */\n      mload\n        /* \"#utility.yul\":3962:3981   */\n      swap1\n      pop\n        /* \"#utility.yul\":3912:3987   */\n      swap1\n      jump\t// out\n        /* \"#utility.yul\":3993:4301   */\n    tag_32:\n        /* \"#utility.yul\":4055:4059   */\n      0x00\n        /* \"#utility.yul\":4145:4163   */\n      0xffffffffffffffff\n        /* \"#utility.yul\":4137:4143   */\n      dup3\n        /* \"#utility.yul\":4134:4164   */\n      gt\n        /* \"#utility.yul\":4131:4187   */\n      iszero\n      tag_93\n      jumpi\n        /* \"#utility.yul\":4167:4185   */\n      tag_94\n      tag_95\n      jump\t// in\n    tag_94:\n        /* \"#utility.yul\":4131:4187   */\n    tag_93:\n        /* \"#utility.yul\":4205:4234   */\n      tag_96\n        /* \"#utility.yul\":4227:4233   */\n      dup3\n        /* \"#utility.yul\":4205:4234   */\n      tag_76\n      jump\t// in\n    tag_96:\n        /* \"#utility.yul\":4197:4234   */\n      swap1\n      pop\n        /* \"#utility.yul\":4289:4293   */\n      0x20\n        /* \"#utility.yul\":4283:4287   */\n      dup2\n        /* \"#utility.yul\":4279:4294   */\n      add\n        /* \"#utility.yul\":4271:4294   */\n      swap1\n      pop\n        /* \"#utility.yul\":3993:4301   */\n      swap2\n      swap1\n      pop\n      jump\t// out\n        /* \"#utility.yul\":4307:4406   */\n    tag_70:\n        /* \"#utility.yul\":4359:4365   */\n      0x00\n        /* \"#utility.yul\":4393:4398   */\n      dup2\n        /* \"#utility.yul\":4387:4399   */\n      mload\n        /* \"#utility.yul\":4377:4399   */\n      swap1\n      pop\n        /* \"#utility.yul\":4307:4406   */\n      swap2\n      swap1\n      pop\n      jump\t// out\n        /* \"#utility.yul\":4412:4581   */\n    tag_72:\n        /* \"#utility.yul\":4496:4507   */\n      0x00\n        /* \"#utility.yul\":4530:4536   */\n      dup3\n        /* \"#utility.yul\":4525:4528   */\n      dup3\n        /* \"#utility.yul\":4518:4537   */\n      mstore\n        /* \"#utility.yul\":4570:4574   */\n      0x20\n        /* \"#utility.yul\":4565:4568   */\n      dup3\n        /* \"#utility.yul\":4561:4575   */\n      add\n        /* \"#utility.yul\":4546:4575   */\n      swap1\n      pop\n        /* \"#utility.yul\":4412:4581   */\n      swap3\n      swap2\n      pop\n      pop\n      jump\t// out\n        /* \"#utility.yul\":4587:4664   */\n    tag_80:\n        /* \"#utility.yul\":4624:4631   */\n      0x00\n        /* \"#utility.yul\":4653:4658   */\n      dup2\n        /* \"#utility.yul\":4642:4658   */\n      swap1\n      pop\n        /* \"#utility.yul\":4587:4664   */\n      swap2\n      swap1\n      pop\n      jump\t// out\n        /* \"#utility.yul\":4670:4824   */\n    tag_38:\n        /* \"#utility.yul\":4754:4760   */\n      dup3\n        /* \"#utility.yul\":4749:4752   */\n      dup2\n        /* \"#utility.yul\":4744:4747   */\n      dup4\n        /* \"#utility.yul\":4731:4761   */\n      calldatacopy\n        /* \"#utility.yul\":4816:4817   */\n      0x00\n        /* \"#utility.yul\":4807:4813   */\n      dup4\n        /* \"#utility.yul\":4802:4805   */\n      dup4\n        /* \"#utility.yul\":4798:4814   */\n      add\n        /* \"#utility.yul\":4791:4818   */\n      mstore\n        /* \"#utility.yul\":4670:4824   */\n      pop\n      pop\n      pop\n      jump\t// out\n        /* \"#utility.yul\":4830:5137   */\n    tag_74:\n        /* \"#utility.yul\":4898:4899   */\n      0x00\n        /* \"#utility.yul\":4908:5021   */\n    tag_102:\n        /* \"#utility.yul\":4922:4928   */\n      dup4\n        /* \"#utility.yul\":4919:4920   */\n      dup2\n        /* \"#utility.yul\":4916:4929   */\n      lt\n        /* \"#utility.yul\":4908:5021   */\n      iszero\n      tag_104\n      jumpi\n        /* \"#utility.yul\":5007:5008   */\n      dup1\n        /* \"#utility.yul\":5002:5005   */\n      dup3\n        /* \"#utility.yul\":4998:5009   */\n      add\n        /* \"#utility.yul\":4992:5010   */\n      mload\n        /* \"#utility.yul\":4988:4989   */\n      dup2\n        /* \"#utility.yul\":4983:4986   */\n      dup5\n        /* \"#utility.yul\":4979:4990   */\n      add\n        /* \"#utility.yul\":4972:5011   */\n      mstore\n        /* \"#utility.yul\":4944:4946   */\n      0x20\n        /* \"#utility.yul\":4941:4942   */\n      dup2\n        /* \"#utility.yul\":4937:4947   */\n      add\n        /* \"#utility.yul\":4932:4947   */\n      swap1\n      pop\n        /* \"#utility.yul\":4908:5021   */\n      jump(tag_102)\n    tag_104:\n        /* \"#utility.yul\":5039:5045   */\n      dup4\n        /* \"#utility.yul\":5036:5037   */\n      dup2\n        /* \"#utility.yul\":5033:5046   */\n      gt\n        /* \"#utility.yul\":5030:5131   */\n      iszero\n      tag_105\n      jumpi\n        /* \"#utility.yul\":5119:5120   */\n      0x00\n        /* \"#utility.yul\":5110:5116   */\n      dup5\n        /* \"#utility.yul\":5105:5108   */\n      dup5\n        /* \"#utility.yul\":5101:5117   */\n      add\n        /* \"#utility.yul\":5094:5121   */\n      mstore\n        /* \"#utility.yul\":5030:5131   */\n    tag_105:\n        /* \"#utility.yul\":4879:5137   */\n      pop\n        /* \"#utility.yul\":4830:5137   */\n      pop\n      pop\n      pop\n      jump\t// out\n        /* \"#utility.yul\":5143:5463   */\n    tag_17:\n        /* \"#utility.yul\":5187:5193   */\n      0x00\n        /* \"#utility.yul\":5224:5225   */\n      0x02\n        /* \"#utility.yul\":5218:5222   */\n      dup3\n        /* \"#utility.yul\":5214:5226   */\n      div\n        /* \"#utility.yul\":5204:5226   */\n      swap1\n      pop\n        /* \"#utility.yul\":5271:5272   */\n      0x01\n        /* \"#utility.yul\":5265:5269   */\n      dup3\n        /* \"#utility.yul\":5261:5273   */\n      and\n        /* \"#utility.yul\":5292:5310   */\n      dup1\n        /* \"#utility.yul\":5282:5363   */\n      tag_107\n      jumpi\n        /* \"#utility.yul\":5348:5352   */\n      0x7f\n        /* \"#utility.yul\":5340:5346   */\n      dup3\n        /* \"#utility.yul\":5336:5353   */\n      and\n        /* \"#utility.yul\":5326:5353   */\n      swap2\n      pop\n        /* \"#utility.yul\":5282:5363   */\n    tag_107:\n        /* \"#utility.yul\":5410:5412   */\n      0x20\n        /* \"#utility.yul\":5402:5408   */\n      dup3\n        /* \"#utility.yul\":5399:5413   */\n      lt\n        /* \"#utility.yul\":5379:5397   */\n      dup2\n        /* \"#utility.yul\":5376:5414   */\n      eq\n        /* \"#utility.yul\":5373:5457   */\n      iszero\n      tag_108\n      jumpi\n        /* \"#utility.yul\":5429:5447   */\n      tag_109\n      tag_110\n      jump\t// in\n    tag_109:\n        /* \"#utility.yul\":5373:5457   */\n    tag_108:\n        /* \"#utility.yul\":5194:5463   */\n      pop\n        /* \"#utility.yul\":5143:5463   */\n      swap2\n      swap1\n      pop\n      jump\t// out\n        /* \"#utility.yul\":5469:5750   */\n    tag_90:\n        /* \"#utility.yul\":5552:5579   */\n      tag_112\n        /* \"#utility.yul\":5574:5578   */\n      dup3\n        /* \"#utility.yul\":5552:5579   */\n      tag_76\n      jump\t// in\n    tag_112:\n        /* \"#utility.yul\":5544:5550   */\n      dup2\n        /* \"#utility.yul\":5540:5580   */\n      add\n        /* \"#utility.yul\":5682:5688   */\n      dup2\n        /* \"#utility.yul\":5670:5680   */\n      dup2\n        /* \"#utility.yul\":5667:5689   */\n      lt\n        /* \"#utility.yul\":5646:5664   */\n      0xffffffffffffffff\n        /* \"#utility.yul\":5634:5644   */\n      dup3\n        /* \"#utility.yul\":5631:5665   */\n      gt\n        /* \"#utility.yul\":5628:5690   */\n      or\n        /* \"#utility.yul\":5625:5713   */\n      iszero\n      tag_113\n      jumpi\n        /* \"#utility.yul\":5693:5711   */\n      tag_114\n      tag_95\n      jump\t// in\n    tag_114:\n        /* \"#utility.yul\":5625:5713   */\n    tag_113:\n        /* \"#utility.yul\":5733:5743   */\n      dup1\n        /* \"#utility.yul\":5729:5731   */\n      0x40\n        /* \"#utility.yul\":5722:5744   */\n      mstore\n        /* \"#utility.yul\":5512:5750   */\n      pop\n        /* \"#utility.yul\":5469:5750   */\n      pop\n      pop\n      jump\t// out\n        /* \"#utility.yul\":5756:5936   */\n    tag_110:\n        /* \"#utility.yul\":5804:5881   */\n      0x4e487b7100000000000000000000000000000000000000000000000000000000\n        /* \"#utility.yul\":5801:5802   */\n      0x00\n        /* \"#utility.yul\":5794:5882   */\n      mstore\n        /* \"#utility.yul\":5901:5905   */\n      0x22\n        /* \"#utility.yul\":5898:5899   */\n      0x04\n        /* \"#utility.yul\":5891:5906   */\n      mstore\n        /* \"#utility.yul\":5925:5929   */\n      0x24\n        /* \"#utility.yul\":5922:5923   */\n      0x00\n        /* \"#utility.yul\":5915:5930   */\n      revert\n        /* \"#utility.yul\":5942:6122   */\n    tag_95:\n        /* \"#utility.yul\":5990:6067   */\n      0x4e487b7100000000000000000000000000000000000000000000000000000000\n        /* \"#utility.yul\":5987:5988   */\n      0x00\n        /* \"#utility.yul\":5980:6068   */\n      mstore\n        /* \"#utility.yul\":6087:6091   */\n      0x41\n        /* \"#utility.yul\":6084:6085   */\n      0x04\n        /* \"#utility.yul\":6077:6092   */\n      mstore\n        /* \"#utility.yul\":6111:6115   */\n      0x24\n        /* \"#utility.yul\":6108:6109   */\n      0x00\n        /* \"#utility.yul\":6101:6116   */\n      revert\n        /* \"#utility.yul\":6128:6245   */\n    tag_43:\n        /* \"#utility.yul\":6237:6238   */\n      0x00\n        /* \"#utility.yul\":6234:6235   */\n      dup1\n        /* \"#utility.yul\":6227:6239   */\n      revert\n        /* \"#utility.yul\":6251:6368   */\n    tag_36:\n        /* \"#utility.yul\":6360:6361   */\n      0x00\n        /* \"#utility.yul\":6357:6358   */\n      dup1\n        /* \"#utility.yul\":6350:6362   */\n      revert\n        /* \"#utility.yul\":6374:6491   */\n    tag_60:\n        /* \"#utility.yul\":6483:6484   */\n      0x00\n        /* \"#utility.yul\":6480:6481   */\n      dup1\n        /* \"#utility.yul\":6473:6485   */\n      revert\n        /* \"#utility.yul\":6497:6614   */\n    tag_52:\n        /* \"#utility.yul\":6606:6607   */\n      0x00\n        /* \"#utility.yul\":6603:6604   */\n      dup1\n        /* \"#utility.yul\":6596:6608   */\n      revert\n        /* \"#utility.yul\":6620:6722   */\n    tag_76:\n        /* \"#utility.yul\":6661:6667   */\n      0x00\n        /* \"#utility.yul\":6712:6714   */\n      0x1f\n        /* \"#utility.yul\":6708:6715   */\n      not\n        /* \"#utility.yul\":6703:6705   */\n      0x1f\n        /* \"#utility.yul\":6696:6701   */\n      dup4\n        /* \"#utility.yul\":6692:6706   */\n      add\n        /* \"#utility.yul\":6688:6716   */\n      and\n        /* \"#utility.yul\":6678:6716   */\n      swap1\n      pop\n        /* \"#utility.yul\":6620:6722   */\n      swap2\n      swap1\n      pop\n      jump\t// out\n        /* \"#utility.yul\":6728:6850   */\n    tag_48:\n        /* \"#utility.yul\":6801:6825   */\n      tag_123\n        /* \"#utility.yul\":6819:6824   */\n      dup2\n        /* \"#utility.yul\":6801:6825   */\n      tag_80\n      jump\t// in\n    tag_123:\n        /* \"#utility.yul\":6794:6799   */\n      dup2\n        /* \"#utility.yul\":6791:6826   */\n      eq\n        /* \"#utility.yul\":6781:6844   */\n      tag_124\n      jumpi\n        /* \"#utility.yul\":6840:6841   */\n      0x00\n        /* \"#utility.yul\":6837:6838   */\n      dup1\n        /* \"#utility.yul\":6830:6842   */\n      revert\n        /* \"#utility.yul\":6781:6844   */\n    tag_124:\n        /* \"#utility.yul\":6728:6850   */\n      pop\n      jump\t// out\n\n    auxdata: 0xa2646970667358221220c9573c4ca9149a37fc78876354069b903ef1d5cf7f71813f9a21dae542cbc82f64736f6c63430008070033\n}\n",
				"bytecode": {
					"linkReferences": {},
					"object": "608060405234801561001057600080fd5b506105c2806100206000396000f3fe608060405234801561001057600080fd5b50600436106100365760003560e01c80635365ce581461003b5780639ab14cb014610057575b600080fd5b61005560048036038101906100509190610283565b61008a565b005b610071600480360381019061006c9190610256565b610091565b604051610081949392919061037e565b60405180910390f35b5050505050565b60006020528060005260406000206000915090508060000180546100b49061048f565b80601f01602080910402602001604051908101604052809291908181526020018280546100e09061048f565b801561012d5780601f106101025761010080835404028352916020019161012d565b820191906000526020600020905b81548152906001019060200180831161011057829003601f168201915b5050505050908060010180546101429061048f565b80601f016020809104026020016040519081016040528092919081815260200182805461016e9061048f565b80156101bb5780601f10610190576101008083540402835291602001916101bb565b820191906000526020600020905b81548152906001019060200180831161019e57829003601f168201915b5050505050908060020154908060030154905084565b60006101e46101df846103f6565b6103d1565b905082815260208101848484011115610200576101ff610555565b5b61020b84828561044d565b509392505050565b600082601f83011261022857610227610550565b5b81356102388482602086016101d1565b91505092915050565b60008135905061025081610575565b92915050565b60006020828403121561026c5761026b61055f565b5b600061027a84828501610241565b91505092915050565b600080600080600060a0868803121561029f5761029e61055f565b5b60006102ad88828901610241565b955050602086013567ffffffffffffffff8111156102ce576102cd61055a565b5b6102da88828901610213565b945050604086013567ffffffffffffffff8111156102fb576102fa61055a565b5b61030788828901610213565b935050606061031888828901610241565b925050608061032988828901610241565b9150509295509295909350565b600061034182610427565b61034b8185610432565b935061035b81856020860161045c565b61036481610564565b840191505092915050565b61037881610443565b82525050565b600060808201905081810360008301526103988187610336565b905081810360208301526103ac8186610336565b90506103bb604083018561036f565b6103c8606083018461036f565b95945050505050565b60006103db6103ec565b90506103e782826104c1565b919050565b6000604051905090565b600067ffffffffffffffff82111561041157610410610521565b5b61041a82610564565b9050602081019050919050565b600081519050919050565b600082825260208201905092915050565b6000819050919050565b82818337600083830152505050565b60005b8381101561047a57808201518184015260208101905061045f565b83811115610489576000848401525b50505050565b600060028204905060018216806104a757607f821691505b602082108114156104bb576104ba6104f2565b5b50919050565b6104ca82610564565b810181811067ffffffffffffffff821117156104e9576104e8610521565b5b80604052505050565b7f4e487b7100000000000000000000000000000000000000000000000000000000600052602260045260246000fd5b7f4e487b7100000000000000000000000000000000000000000000000000000000600052604160045260246000fd5b600080fd5b600080fd5b600080fd5b600080fd5b6000601f19601f8301169050919050565b61057e81610443565b811461058957600080fd5b5056fea2646970667358221220c9573c4ca9149a37fc78876354069b903ef1d5cf7f71813f9a21dae542cbc82f64736f6c63430008070033",
					"opcodes": "PUSH1 0x80 PUSH1 0x40 MSTORE CALLVALUE DUP1 ISZERO PUSH2 0x10 JUMPI PUSH1 0x0 DUP1 REVERT JUMPDEST POP PUSH2 0x5C2 DUP1 PUSH2 0x20 PUSH1 0x0 CODECOPY PUSH1 0x0 RETURN INVALID PUSH1 0x80 PUSH1 0x40 MSTORE CALLVALUE DUP1 ISZERO PUSH2 0x10 JUMPI PUSH1 0x0 DUP1 REVERT JUMPDEST POP PUSH1 0x4 CALLDATASIZE LT PUSH2 0x36 JUMPI PUSH1 0x0 CALLDATALOAD PUSH1 0xE0 SHR DUP1 PUSH4 0x5365CE58 EQ PUSH2 0x3B JUMPI DUP1 PUSH4 0x9AB14CB0 EQ PUSH2 0x57 JUMPI JUMPDEST PUSH1 0x0 DUP1 REVERT JUMPDEST PUSH2 0x55 PUSH1 0x4 DUP1 CALLDATASIZE SUB DUP2 ADD SWAP1 PUSH2 0x50 SWAP2 SWAP1 PUSH2 0x283 JUMP JUMPDEST PUSH2 0x8A JUMP JUMPDEST STOP JUMPDEST PUSH2 0x71 PUSH1 0x4 DUP1 CALLDATASIZE SUB DUP2 ADD SWAP1 PUSH2 0x6C SWAP2 SWAP1 PUSH2 0x256 JUMP JUMPDEST PUSH2 0x91 JUMP JUMPDEST PUSH1 0x40 MLOAD PUSH2 0x81 SWAP5 SWAP4 SWAP3 SWAP2 SWAP1 PUSH2 0x37E JUMP JUMPDEST PUSH1 0x40 MLOAD DUP1 SWAP2 SUB SWAP1 RETURN JUMPDEST POP POP POP POP POP JUMP JUMPDEST PUSH1 0x0 PUSH1 0x20 MSTORE DUP1 PUSH1 0x0 MSTORE PUSH1 0x40 PUSH1 0x0 KECCAK256 PUSH1 0x0 SWAP2 POP SWAP1 POP DUP1 PUSH1 0x0 ADD DUP1 SLOAD PUSH2 0xB4 SWAP1 PUSH2 0x48F JUMP JUMPDEST DUP1 PUSH1 0x1F ADD PUSH1 0x20 DUP1 SWAP2 DIV MUL PUSH1 0x20 ADD PUSH1 0x40 MLOAD SWAP1 DUP2 ADD PUSH1 0x40 MSTORE DUP1 SWAP3 SWAP2 SWAP1 DUP2 DUP2 MSTORE PUSH1 0x20 ADD DUP3 DUP1 SLOAD PUSH2 0xE0 SWAP1 PUSH2 0x48F JUMP JUMPDEST DUP1 ISZERO PUSH2 0x12D JUMPI DUP1 PUSH1 0x1F LT PUSH2 0x102 JUMPI PUSH2 0x100 DUP1 DUP4 SLOAD DIV MUL DUP4 MSTORE SWAP2 PUSH1 0x20 ADD SWAP2 PUSH2 0x12D JUMP JUMPDEST DUP3 ADD SWAP2 SWAP1 PUSH1 0x0 MSTORE PUSH1 0x20 PUSH1 0x0 KECCAK256 SWAP1 JUMPDEST DUP2 SLOAD DUP2 MSTORE SWAP1 PUSH1 0x1 ADD SWAP1 PUSH1 0x20 ADD DUP1 DUP4 GT PUSH2 0x110 JUMPI DUP3 SWAP1 SUB PUSH1 0x1F AND DUP3 ADD SWAP2 JUMPDEST POP POP POP POP POP SWAP1 DUP1 PUSH1 0x1 ADD DUP1 SLOAD PUSH2 0x142 SWAP1 PUSH2 0x48F JUMP JUMPDEST DUP1 PUSH1 0x1F ADD PUSH1 0x20 DUP1 SWAP2 DIV MUL PUSH1 0x20 ADD PUSH1 0x40 MLOAD SWAP1 DUP2 ADD PUSH1 0x40 MSTORE DUP1 SWAP3 SWAP2 SWAP1 DUP2 DUP2 MSTORE PUSH1 0x20 ADD DUP3 DUP1 SLOAD PUSH2 0x16E SWAP1 PUSH2 0x48F JUMP JUMPDEST DUP1 ISZERO PUSH2 0x1BB JUMPI DUP1 PUSH1 0x1F LT PUSH2 0x190 JUMPI PUSH2 0x100 DUP1 DUP4 SLOAD DIV MUL DUP4 MSTORE SWAP2 PUSH1 0x20 ADD SWAP2 PUSH2 0x1BB JUMP JUMPDEST DUP3 ADD SWAP2 SWAP1 PUSH1 0x0 MSTORE PUSH1 0x20 PUSH1 0x0 KECCAK256 SWAP1 JUMPDEST DUP2 SLOAD DUP2 MSTORE SWAP1 PUSH1 0x1 ADD SWAP1 PUSH1 0x20 ADD DUP1 DUP4 GT PUSH2 0x19E JUMPI DUP3 SWAP1 SUB PUSH1 0x1F AND DUP3 ADD SWAP2 JUMPDEST POP POP POP POP POP SWAP1 DUP1 PUSH1 0x2 ADD SLOAD SWAP1 DUP1 PUSH1 0x3 ADD SLOAD SWAP1 POP DUP5 JUMP JUMPDEST PUSH1 0x0 PUSH2 0x1E4 PUSH2 0x1DF DUP5 PUSH2 0x3F6 JUMP JUMPDEST PUSH2 0x3D1 JUMP JUMPDEST SWAP1 POP DUP3 DUP2 MSTORE PUSH1 0x20 DUP2 ADD DUP5 DUP5 DUP5 ADD GT ISZERO PUSH2 0x200 JUMPI PUSH2 0x1FF PUSH2 0x555 JUMP JUMPDEST JUMPDEST PUSH2 0x20B DUP5 DUP3 DUP6 PUSH2 0x44D JUMP JUMPDEST POP SWAP4 SWAP3 POP POP POP JUMP JUMPDEST PUSH1 0x0 DUP3 PUSH1 0x1F DUP4 ADD SLT PUSH2 0x228 JUMPI PUSH2 0x227 PUSH2 0x550 JUMP JUMPDEST JUMPDEST DUP2 CALLDATALOAD PUSH2 0x238 DUP5 DUP3 PUSH1 0x20 DUP7 ADD PUSH2 0x1D1 JUMP JUMPDEST SWAP2 POP POP SWAP3 SWAP2 POP POP JUMP JUMPDEST PUSH1 0x0 DUP2 CALLDATALOAD SWAP1 POP PUSH2 0x250 DUP2 PUSH2 0x575 JUMP JUMPDEST SWAP3 SWAP2 POP POP JUMP JUMPDEST PUSH1 0x0 PUSH1 0x20 DUP3 DUP5 SUB SLT ISZERO PUSH2 0x26C JUMPI PUSH2 0x26B PUSH2 0x55F JUMP JUMPDEST JUMPDEST PUSH1 0x0 PUSH2 0x27A DUP5 DUP3 DUP6 ADD PUSH2 0x241 JUMP JUMPDEST SWAP2 POP POP SWAP3 SWAP2 POP POP JUMP JUMPDEST PUSH1 0x0 DUP1 PUSH1 0x0 DUP1 PUSH1 0x0 PUSH1 0xA0 DUP7 DUP9 SUB SLT ISZERO PUSH2 0x29F JUMPI PUSH2 0x29E PUSH2 0x55F JUMP JUMPDEST JUMPDEST PUSH1 0x0 PUSH2 0x2AD DUP9 DUP3 DUP10 ADD PUSH2 0x241 JUMP JUMPDEST SWAP6 POP POP PUSH1 0x20 DUP7 ADD CALLDATALOAD PUSH8 0xFFFFFFFFFFFFFFFF DUP2 GT ISZERO PUSH2 0x2CE JUMPI PUSH2 0x2CD PUSH2 0x55A JUMP JUMPDEST JUMPDEST PUSH2 0x2DA DUP9 DUP3 DUP10 ADD PUSH2 0x213 JUMP JUMPDEST SWAP5 POP POP PUSH1 0x40 DUP7 ADD CALLDATALOAD PUSH8 0xFFFFFFFFFFFFFFFF DUP2 GT ISZERO PUSH2 0x2FB JUMPI PUSH2 0x2FA PUSH2 0x55A JUMP JUMPDEST JUMPDEST PUSH2 0x307 DUP9 DUP3 DUP10 ADD PUSH2 0x213 JUMP JUMPDEST SWAP4 POP POP PUSH1 0x60 PUSH2 0x318 DUP9 DUP3 DUP10 ADD PUSH2 0x241 JUMP JUMPDEST SWAP3 POP POP PUSH1 0x80 PUSH2 0x329 DUP9 DUP3 DUP10 ADD PUSH2 0x241 JUMP JUMPDEST SWAP2 POP POP SWAP3 SWAP6 POP SWAP3 SWAP6 SWAP1 SWAP4 POP JUMP JUMPDEST PUSH1 0x0 PUSH2 0x341 DUP3 PUSH2 0x427 JUMP JUMPDEST PUSH2 0x34B DUP2 DUP6 PUSH2 0x432 JUMP JUMPDEST SWAP4 POP PUSH2 0x35B DUP2 DUP6 PUSH1 0x20 DUP7 ADD PUSH2 0x45C JUMP JUMPDEST PUSH2 0x364 DUP2 PUSH2 0x564 JUMP JUMPDEST DUP5 ADD SWAP2 POP POP SWAP3 SWAP2 POP POP JUMP JUMPDEST PUSH2 0x378 DUP2 PUSH2 0x443 JUMP JUMPDEST DUP3 MSTORE POP POP JUMP JUMPDEST PUSH1 0x0 PUSH1 0x80 DUP3 ADD SWAP1 POP DUP2 DUP2 SUB PUSH1 0x0 DUP4 ADD MSTORE PUSH2 0x398 DUP2 DUP8 PUSH2 0x336 JUMP JUMPDEST SWAP1 POP DUP2 DUP2 SUB PUSH1 0x20 DUP4 ADD MSTORE PUSH2 0x3AC DUP2 DUP7 PUSH2 0x336 JUMP JUMPDEST SWAP1 POP PUSH2 0x3BB PUSH1 0x40 DUP4 ADD DUP6 PUSH2 0x36F JUMP JUMPDEST PUSH2 0x3C8 PUSH1 0x60 DUP4 ADD DUP5 PUSH2 0x36F JUMP JUMPDEST SWAP6 SWAP5 POP POP POP POP POP JUMP JUMPDEST PUSH1 0x0 PUSH2 0x3DB PUSH2 0x3EC JUMP JUMPDEST SWAP1 POP PUSH2 0x3E7 DUP3 DUP3 PUSH2 0x4C1 JUMP JUMPDEST SWAP2 SWAP1 POP JUMP JUMPDEST PUSH1 0x0 PUSH1 0x40 MLOAD SWAP1 POP SWAP1 JUMP JUMPDEST PUSH1 0x0 PUSH8 0xFFFFFFFFFFFFFFFF DUP3 GT ISZERO PUSH2 0x411 JUMPI PUSH2 0x410 PUSH2 0x521 JUMP JUMPDEST JUMPDEST PUSH2 0x41A DUP3 PUSH2 0x564 JUMP JUMPDEST SWAP1 POP PUSH1 0x20 DUP2 ADD SWAP1 POP SWAP2 SWAP1 POP JUMP JUMPDEST PUSH1 0x0 DUP2 MLOAD SWAP1 POP SWAP2 SWAP1 POP JUMP JUMPDEST PUSH1 0x0 DUP3 DUP3 MSTORE PUSH1 0x20 DUP3 ADD SWAP1 POP SWAP3 SWAP2 POP POP JUMP JUMPDEST PUSH1 0x0 DUP2 SWAP1 POP SWAP2 SWAP1 POP JUMP JUMPDEST DUP3 DUP2 DUP4 CALLDATACOPY PUSH1 0x0 DUP4 DUP4 ADD MSTORE POP POP POP JUMP JUMPDEST PUSH1 0x0 JUMPDEST DUP4 DUP2 LT ISZERO PUSH2 0x47A JUMPI DUP1 DUP3 ADD MLOAD DUP2 DUP5 ADD MSTORE PUSH1 0x20 DUP2 ADD SWAP1 POP PUSH2 0x45F JUMP JUMPDEST DUP4 DUP2 GT ISZERO PUSH2 0x489 JUMPI PUSH1 0x0 DUP5 DUP5 ADD MSTORE JUMPDEST POP POP POP POP JUMP JUMPDEST PUSH1 0x0 PUSH1 0x2 DUP3 DIV SWAP1 POP PUSH1 0x1 DUP3 AND DUP1 PUSH2 0x4A7 JUMPI PUSH1 0x7F DUP3 AND SWAP2 POP JUMPDEST PUSH1 0x20 DUP3 LT DUP2 EQ ISZERO PUSH2 0x4BB JUMPI PUSH2 0x4BA PUSH2 0x4F2 JUMP JUMPDEST JUMPDEST POP SWAP2 SWAP1 POP JUMP JUMPDEST PUSH2 0x4CA DUP3 PUSH2 0x564 JUMP JUMPDEST DUP2 ADD DUP2 DUP2 LT PUSH8 0xFFFFFFFFFFFFFFFF DUP3 GT OR ISZERO PUSH2 0x4E9 JUMPI PUSH2 0x4E8 PUSH2 0x521 JUMP JUMPDEST JUMPDEST DUP1 PUSH1 0x40 MSTORE POP POP POP JUMP JUMPDEST PUSH32 0x4E487B7100000000000000000000000000000000000000000000000000000000 PUSH1 0x0 MSTORE PUSH1 0x22 PUSH1 0x4 MSTORE PUSH1 0x24 PUSH1 0x0 REVERT JUMPDEST PUSH32 0x4E487B7100000000000000000000000000000000000000000000000000000000 PUSH1 0x0 MSTORE PUSH1 0x41 PUSH1 0x4 MSTORE PUSH1 0x24 PUSH1 0x0 REVERT JUMPDEST PUSH1 0x0 DUP1 REVERT JUMPDEST PUSH1 0x0 DUP1 REVERT JUMPDEST PUSH1 0x0 DUP1 REVERT JUMPDEST PUSH1 0x0 DUP1 REVERT JUMPDEST PUSH1 0x0 PUSH1 0x1F NOT PUSH1 0x1F DUP4 ADD AND SWAP1 POP SWAP2 SWAP1 POP JUMP JUMPDEST PUSH2 0x57E DUP2 PUSH2 0x443 JUMP JUMPDEST DUP2 EQ PUSH2 0x589 JUMPI PUSH1 0x0 DUP1 REVERT JUMPDEST POP JUMP INVALID LOG2 PUSH5 0x6970667358 0x22 SLT KECCAK256 0xC9 JUMPI EXTCODECOPY 0x4C 0xA9 EQ SWAP11 CALLDATACOPY 0xFC PUSH25 0x876354069B903EF1D5CF7F71813F9A21DAE542CBC82F64736F PUSH13 0x63430008070033000000000000 "
				},
				"gasEstimates": {
					"creation": {
						"codeDepositCost": "294800",
						"executionCost": "337",
						"totalCost": "295137"
					},
					"external": {
						"book_detail(uint256)": "infinite",
						"set(uint256,string,string,uint256,uint256)": "infinite"
					}
				},
				"methodIdentifiers": {
					"book_detail(uint256)": "9ab14cb0",
					"set(uint256,string,string,uint256,uint256)": "5365ce58"
				}
			},
			"storageLayout": {
				"storage": [
					{
						"astId": 15,
						"contract": "testing.sol:testing",
						"label": "book_detail",
						"offset": 0,
						"slot": "0",
						"type": "t_mapping(t_uint256,t_struct(book)10_storage)"
					}
				],
				"types": {
					"t_mapping(t_uint256,t_struct(book)10_storage)": {
						"encoding": "mapping",
						"key": "t_uint256",
						"label": "mapping(uint256 => struct testing.book)",
						"numberOfBytes": "32",
						"value": "t_struct(book)10_storage"
					},
					"t_string_storage": {
						"encoding": "bytes",
						"label": "string",
						"numberOfBytes": "32"
					},
					"t_struct(book)10_storage": {
						"encoding": "inplace",
						"label": "struct testing.book",
						"members": [
							{
								"astId": 3,
								"contract": "testing.sol:testing",
								"label": "title",
								"offset": 0,
								"slot": "0",
								"type": "t_string_storage"
							},
							{
								"astId": 5,
								"contract": "testing.sol:testing",
								"label": "author",
								"offset": 0,
								"slot": "1",
								"type": "t_string_storage"
							},
							{
								"astId": 7,
								"contract": "testing.sol:testing",
								"label": "number",
								"offset": 0,
								"slot": "2",
								"type": "t_uint256"
							},
							{
								"astId": 9,
								"contract": "testing.sol:testing",
								"label": "shelfbook",
								"offset": 0,
								"slot": "3",
								"type": "t_uint256"
							}
						],
						"numberOfBytes": "128"
					},
					"t_uint256": {
						"encoding": "inplace",
						"label": "uint256",
						"numberOfBytes": "32"
					}
				}
			},
			"userdoc": {
				"kind": "user",
				"methods": {},
				"version": 1
			}
		}
	}
}