{
	"mappingg1.sol": {
		"Mapping1testing": {
			"abi": [
				{
					"inputs": [
						{
							"internalType": "uint256",
							"name": "id",
							"type": "uint256"
						},
						{
							"internalType": "string",
							"name": "name",
							"type": "string"
						},
						{
							"internalType": "uint256",
							"name": "model_name",
							"type": "uint256"
						},
						{
							"internalType": "string",
							"name": "owner_name",
							"type": "string"
						},
						{
							"internalType": "string",
							"name": "color",
							"type": "string"
						}
					],
					"name": "set",
					"outputs": [],
					"stateMutability": "nonpayable",
					"type": "function"
				}
			],
			"devdoc": {
				"kind": "dev",
				"methods": {},
				"version": 1
			},
			"evm": {
				"assembly": "    /* \"mappingg1.sol\":65:473  contract Mapping1testing{\r... */\n  mstore(0x40, 0x80)\n  callvalue\n  dup1\n  iszero\n  tag_1\n  jumpi\n  0x00\n  dup1\n  revert\ntag_1:\n  pop\n  dataSize(sub_0)\n  dup1\n  dataOffset(sub_0)\n  0x00\n  codecopy\n  0x00\n  return\nstop\n\nsub_0: assembly {\n        /* \"mappingg1.sol\":65:473  contract Mapping1testing{\r... */\n      mstore(0x40, 0x80)\n      callvalue\n      dup1\n      iszero\n      tag_1\n      jumpi\n      0x00\n      dup1\n      revert\n    tag_1:\n      pop\n      jumpi(tag_2, lt(calldatasize, 0x04))\n      shr(0xe0, calldataload(0x00))\n      dup1\n      0x50900743\n      eq\n      tag_3\n      jumpi\n    tag_2:\n      0x00\n      dup1\n      revert\n        /* \"mappingg1.sol\":279:470  function set(uint id, string memory name, uint256 model_name, string memory owner_name, string memory color) public {\r... */\n    tag_3:\n      tag_4\n      0x04\n      dup1\n      calldatasize\n      sub\n      dup2\n      add\n      swap1\n      tag_5\n      swap2\n      swap1\n      tag_6\n      jump\t// in\n    tag_5:\n      tag_7\n      jump\t// in\n    tag_4:\n      stop\n    tag_7:\n        /* \"mappingg1.sol\":422:462  mobile(name,model_name,owner_name,color) */\n      mload(0x40)\n      dup1\n      0x80\n      add\n      0x40\n      mstore\n      dup1\n        /* \"mappingg1.sol\":429:433  name */\n      dup6\n        /* \"mappingg1.sol\":422:462  mobile(name,model_name,owner_name,color) */\n      dup2\n      mstore\n      0x20\n      add\n        /* \"mappingg1.sol\":434:444  model_name */\n      dup5\n        /* \"mappingg1.sol\":422:462  mobile(name,model_name,owner_name,color) */\n      dup2\n      mstore\n      0x20\n      add\n        /* \"mappingg1.sol\":445:455  owner_name */\n      dup4\n        /* \"mappingg1.sol\":422:462  mobile(name,model_name,owner_name,color) */\n      dup2\n      mstore\n      0x20\n      add\n        /* \"mappingg1.sol\":456:461  color */\n      dup3\n        /* \"mappingg1.sol\":422:462  mobile(name,model_name,owner_name,color) */\n      dup2\n      mstore\n      pop\n        /* \"mappingg1.sol\":406:415  my_mobile */\n      0x00\n        /* \"mappingg1.sol\":406:420  my_mobile [id] */\n      dup1\n        /* \"mappingg1.sol\":417:419  id */\n      dup8\n        /* \"mappingg1.sol\":406:420  my_mobile [id] */\n      dup2\n      mstore\n      0x20\n      add\n      swap1\n      dup2\n      mstore\n      0x20\n      add\n      0x00\n      keccak256\n        /* \"mappingg1.sol\":406:462  my_mobile [id]= mobile(name,model_name,owner_name,color) */\n      0x00\n      dup3\n      add\n      mload\n      dup2\n      0x00\n      add\n      swap1\n      dup1\n      mload\n      swap1\n      0x20\n      add\n      swap1\n      tag_9\n      swap3\n      swap2\n      swap1\n      tag_10\n      jump\t// in\n    tag_9:\n      pop\n      0x20\n      dup3\n      add\n      mload\n      dup2\n      0x01\n      add\n      sstore\n      0x40\n      dup3\n      add\n      mload\n      dup2\n      0x02\n      add\n      swap1\n      dup1\n      mload\n      swap1\n      0x20\n      add\n      swap1\n      tag_11\n      swap3\n      swap2\n      swap1\n      tag_10\n      jump\t// in\n    tag_11:\n      pop\n      0x60\n      dup3\n      add\n      mload\n      dup2\n      0x03\n      add\n      swap1\n      dup1\n      mload\n      swap1\n      0x20\n      add\n      swap1\n      tag_12\n      swap3\n      swap2\n      swap1\n      tag_10\n      jump\t// in\n    tag_12:\n      pop\n      swap1\n      pop\n      pop\n        /* \"mappingg1.sol\":279:470  function set(uint id, string memory name, uint256 model_name, string memory owner_name, string memory color) public {\r... */\n      pop\n      pop\n      pop\n      pop\n      pop\n      jump\t// out\n    tag_10:\n      dup3\n      dup1\n      sload\n      tag_13\n      swap1\n      tag_14\n      jump\t// in\n    tag_13:\n      swap1\n      0x00\n      mstore\n      keccak256(0x00, 0x20)\n      swap1\n      0x1f\n      add\n      0x20\n      swap1\n      div\n      dup2\n      add\n      swap3\n      dup3\n      tag_16\n      jumpi\n      0x00\n      dup6\n      sstore\n      jump(tag_15)\n    tag_16:\n      dup3\n      0x1f\n      lt\n      tag_17\n      jumpi\n      dup1\n      mload\n      not(0xff)\n      and\n      dup4\n      dup1\n      add\n      or\n      dup6\n      sstore\n      jump(tag_15)\n    tag_17:\n      dup3\n      dup1\n      add\n      0x01\n      add\n      dup6\n      sstore\n      dup3\n      iszero\n      tag_15\n      jumpi\n      swap2\n      dup3\n      add\n    tag_18:\n      dup3\n      dup2\n      gt\n      iszero\n      tag_19\n      jumpi\n      dup3\n      mload\n      dup3\n      sstore\n      swap2\n      0x20\n      add\n      swap2\n      swap1\n      0x01\n      add\n      swap1\n      jump(tag_18)\n    tag_19:\n    tag_15:\n      pop\n      swap1\n      pop\n      tag_20\n      swap2\n      swap1\n      tag_21\n      jump\t// in\n    tag_20:\n      pop\n      swap1\n      jump\t// out\n    tag_21:\n    tag_22:\n      dup1\n      dup3\n      gt\n      iszero\n      tag_23\n      jumpi\n      0x00\n      dup2\n      0x00\n      swap1\n      sstore\n      pop\n      0x01\n      add\n      jump(tag_22)\n    tag_23:\n      pop\n      swap1\n      jump\t// out\n        /* \"#utility.yul\":7:419   */\n    tag_25:\n        /* \"#utility.yul\":85:90   */\n      0x00\n        /* \"#utility.yul\":110:176   */\n      tag_27\n        /* \"#utility.yul\":126:175   */\n      tag_28\n        /* \"#utility.yul\":168:174   */\n      dup5\n        /* \"#utility.yul\":126:175   */\n      tag_29\n      jump\t// in\n    tag_28:\n        /* \"#utility.yul\":110:176   */\n      tag_30\n      jump\t// in\n    tag_27:\n        /* \"#utility.yul\":101:176   */\n      swap1\n      pop\n        /* \"#utility.yul\":199:205   */\n      dup3\n        /* \"#utility.yul\":192:197   */\n      dup2\n        /* \"#utility.yul\":185:206   */\n      mstore\n        /* \"#utility.yul\":237:241   */\n      0x20\n        /* \"#utility.yul\":230:235   */\n      dup2\n        /* \"#utility.yul\":226:242   */\n      add\n        /* \"#utility.yul\":275:278   */\n      dup5\n        /* \"#utility.yul\":266:272   */\n      dup5\n        /* \"#utility.yul\":261:264   */\n      dup5\n        /* \"#utility.yul\":257:273   */\n      add\n        /* \"#utility.yul\":254:279   */\n      gt\n        /* \"#utility.yul\":251:363   */\n      iszero\n      tag_31\n      jumpi\n        /* \"#utility.yul\":282:361   */\n      tag_32\n      tag_33\n      jump\t// in\n    tag_32:\n        /* \"#utility.yul\":251:363   */\n    tag_31:\n        /* \"#utility.yul\":372:413   */\n      tag_34\n        /* \"#utility.yul\":406:412   */\n      dup5\n        /* \"#utility.yul\":401:404   */\n      dup3\n        /* \"#utility.yul\":396:399   */\n      dup6\n        /* \"#utility.yul\":372:413   */\n      tag_35\n      jump\t// in\n    tag_34:\n        /* \"#utility.yul\":91:419   */\n      pop\n        /* \"#utility.yul\":7:419   */\n      swap4\n      swap3\n      pop\n      pop\n      pop\n      jump\t// out\n        /* \"#utility.yul\":439:779   */\n    tag_36:\n        /* \"#utility.yul\":495:500   */\n      0x00\n        /* \"#utility.yul\":544:547   */\n      dup3\n        /* \"#utility.yul\":537:541   */\n      0x1f\n        /* \"#utility.yul\":529:535   */\n      dup4\n        /* \"#utility.yul\":525:542   */\n      add\n        /* \"#utility.yul\":521:548   */\n      slt\n        /* \"#utility.yul\":511:633   */\n      tag_38\n      jumpi\n        /* \"#utility.yul\":552:631   */\n      tag_39\n      tag_40\n      jump\t// in\n    tag_39:\n        /* \"#utility.yul\":511:633   */\n    tag_38:\n        /* \"#utility.yul\":669:675   */\n      dup2\n        /* \"#utility.yul\":656:676   */\n      calldataload\n        /* \"#utility.yul\":694:773   */\n      tag_41\n        /* \"#utility.yul\":769:772   */\n      dup5\n        /* \"#utility.yul\":761:767   */\n      dup3\n        /* \"#utility.yul\":754:758   */\n      0x20\n        /* \"#utility.yul\":746:752   */\n      dup7\n        /* \"#utility.yul\":742:759   */\n      add\n        /* \"#utility.yul\":694:773   */\n      tag_25\n      jump\t// in\n    tag_41:\n        /* \"#utility.yul\":685:773   */\n      swap2\n      pop\n        /* \"#utility.yul\":501:779   */\n      pop\n        /* \"#utility.yul\":439:779   */\n      swap3\n      swap2\n      pop\n      pop\n      jump\t// out\n        /* \"#utility.yul\":785:924   */\n    tag_42:\n        /* \"#utility.yul\":831:836   */\n      0x00\n        /* \"#utility.yul\":869:875   */\n      dup2\n        /* \"#utility.yul\":856:876   */\n      calldataload\n        /* \"#utility.yul\":847:876   */\n      swap1\n      pop\n        /* \"#utility.yul\":885:918   */\n      tag_44\n        /* \"#utility.yul\":912:917   */\n      dup2\n        /* \"#utility.yul\":885:918   */\n      tag_45\n      jump\t// in\n    tag_44:\n        /* \"#utility.yul\":785:924   */\n      swap3\n      swap2\n      pop\n      pop\n      jump\t// out\n        /* \"#utility.yul\":930:2381   */\n    tag_6:\n        /* \"#utility.yul\":1055:1061   */\n      0x00\n        /* \"#utility.yul\":1063:1069   */\n      dup1\n        /* \"#utility.yul\":1071:1077   */\n      0x00\n        /* \"#utility.yul\":1079:1085   */\n      dup1\n        /* \"#utility.yul\":1087:1093   */\n      0x00\n        /* \"#utility.yul\":1136:1139   */\n      0xa0\n        /* \"#utility.yul\":1124:1133   */\n      dup7\n        /* \"#utility.yul\":1115:1122   */\n      dup9\n        /* \"#utility.yul\":1111:1134   */\n      sub\n        /* \"#utility.yul\":1107:1140   */\n      slt\n        /* \"#utility.yul\":1104:1224   */\n      iszero\n      tag_47\n      jumpi\n        /* \"#utility.yul\":1143:1222   */\n      tag_48\n      tag_49\n      jump\t// in\n    tag_48:\n        /* \"#utility.yul\":1104:1224   */\n    tag_47:\n        /* \"#utility.yul\":1263:1264   */\n      0x00\n        /* \"#utility.yul\":1288:1341   */\n      tag_50\n        /* \"#utility.yul\":1333:1340   */\n      dup9\n        /* \"#utility.yul\":1324:1330   */\n      dup3\n        /* \"#utility.yul\":1313:1322   */\n      dup10\n        /* \"#utility.yul\":1309:1331   */\n      add\n        /* \"#utility.yul\":1288:1341   */\n      tag_42\n      jump\t// in\n    tag_50:\n        /* \"#utility.yul\":1278:1341   */\n      swap6\n      pop\n        /* \"#utility.yul\":1234:1351   */\n      pop\n        /* \"#utility.yul\":1418:1420   */\n      0x20\n        /* \"#utility.yul\":1407:1416   */\n      dup7\n        /* \"#utility.yul\":1403:1421   */\n      add\n        /* \"#utility.yul\":1390:1422   */\n      calldataload\n        /* \"#utility.yul\":1449:1467   */\n      0xffffffffffffffff\n        /* \"#utility.yul\":1441:1447   */\n      dup2\n        /* \"#utility.yul\":1438:1468   */\n      gt\n        /* \"#utility.yul\":1435:1552   */\n      iszero\n      tag_51\n      jumpi\n        /* \"#utility.yul\":1471:1550   */\n      tag_52\n      tag_53\n      jump\t// in\n    tag_52:\n        /* \"#utility.yul\":1435:1552   */\n    tag_51:\n        /* \"#utility.yul\":1576:1639   */\n      tag_54\n        /* \"#utility.yul\":1631:1638   */\n      dup9\n        /* \"#utility.yul\":1622:1628   */\n      dup3\n        /* \"#utility.yul\":1611:1620   */\n      dup10\n        /* \"#utility.yul\":1607:1629   */\n      add\n        /* \"#utility.yul\":1576:1639   */\n      tag_36\n      jump\t// in\n    tag_54:\n        /* \"#utility.yul\":1566:1639   */\n      swap5\n      pop\n        /* \"#utility.yul\":1361:1649   */\n      pop\n        /* \"#utility.yul\":1688:1690   */\n      0x40\n        /* \"#utility.yul\":1714:1767   */\n      tag_55\n        /* \"#utility.yul\":1759:1766   */\n      dup9\n        /* \"#utility.yul\":1750:1756   */\n      dup3\n        /* \"#utility.yul\":1739:1748   */\n      dup10\n        /* \"#utility.yul\":1735:1757   */\n      add\n        /* \"#utility.yul\":1714:1767   */\n      tag_42\n      jump\t// in\n    tag_55:\n        /* \"#utility.yul\":1704:1767   */\n      swap4\n      pop\n        /* \"#utility.yul\":1659:1777   */\n      pop\n        /* \"#utility.yul\":1844:1846   */\n      0x60\n        /* \"#utility.yul\":1833:1842   */\n      dup7\n        /* \"#utility.yul\":1829:1847   */\n      add\n        /* \"#utility.yul\":1816:1848   */\n      calldataload\n        /* \"#utility.yul\":1875:1893   */\n      0xffffffffffffffff\n        /* \"#utility.yul\":1867:1873   */\n      dup2\n        /* \"#utility.yul\":1864:1894   */\n      gt\n        /* \"#utility.yul\":1861:1978   */\n      iszero\n      tag_56\n      jumpi\n        /* \"#utility.yul\":1897:1976   */\n      tag_57\n      tag_53\n      jump\t// in\n    tag_57:\n        /* \"#utility.yul\":1861:1978   */\n    tag_56:\n        /* \"#utility.yul\":2002:2065   */\n      tag_58\n        /* \"#utility.yul\":2057:2064   */\n      dup9\n        /* \"#utility.yul\":2048:2054   */\n      dup3\n        /* \"#utility.yul\":2037:2046   */\n      dup10\n        /* \"#utility.yul\":2033:2055   */\n      add\n        /* \"#utility.yul\":2002:2065   */\n      tag_36\n      jump\t// in\n    tag_58:\n        /* \"#utility.yul\":1992:2065   */\n      swap3\n      pop\n        /* \"#utility.yul\":1787:2075   */\n      pop\n        /* \"#utility.yul\":2142:2145   */\n      0x80\n        /* \"#utility.yul\":2131:2140   */\n      dup7\n        /* \"#utility.yul\":2127:2146   */\n      add\n        /* \"#utility.yul\":2114:2147   */\n      calldataload\n        /* \"#utility.yul\":2174:2192   */\n      0xffffffffffffffff\n        /* \"#utility.yul\":2166:2172   */\n      dup2\n        /* \"#utility.yul\":2163:2193   */\n      gt\n        /* \"#utility.yul\":2160:2277   */\n      iszero\n      tag_59\n      jumpi\n        /* \"#utility.yul\":2196:2275   */\n      tag_60\n      tag_53\n      jump\t// in\n    tag_60:\n        /* \"#utility.yul\":2160:2277   */\n    tag_59:\n        /* \"#utility.yul\":2301:2364   */\n      tag_61\n        /* \"#utility.yul\":2356:2363   */\n      dup9\n        /* \"#utility.yul\":2347:2353   */\n      dup3\n        /* \"#utility.yul\":2336:2345   */\n      dup10\n        /* \"#utility.yul\":2332:2354   */\n      add\n        /* \"#utility.yul\":2301:2364   */\n      tag_36\n      jump\t// in\n    tag_61:\n        /* \"#utility.yul\":2291:2364   */\n      swap2\n      pop\n        /* \"#utility.yul\":2085:2374   */\n      pop\n        /* \"#utility.yul\":930:2381   */\n      swap3\n      swap6\n      pop\n      swap3\n      swap6\n      swap1\n      swap4\n      pop\n      jump\t// out\n        /* \"#utility.yul\":2387:2516   */\n    tag_30:\n        /* \"#utility.yul\":2421:2427   */\n      0x00\n        /* \"#utility.yul\":2448:2468   */\n      tag_63\n      tag_64\n      jump\t// in\n    tag_63:\n        /* \"#utility.yul\":2438:2468   */\n      swap1\n      pop\n        /* \"#utility.yul\":2477:2510   */\n      tag_65\n        /* \"#utility.yul\":2505:2509   */\n      dup3\n        /* \"#utility.yul\":2497:2503   */\n      dup3\n        /* \"#utility.yul\":2477:2510   */\n      tag_66\n      jump\t// in\n    tag_65:\n        /* \"#utility.yul\":2387:2516   */\n      swap2\n      swap1\n      pop\n      jump\t// out\n        /* \"#utility.yul\":2522:2597   */\n    tag_64:\n        /* \"#utility.yul\":2555:2561   */\n      0x00\n        /* \"#utility.yul\":2588:2590   */\n      0x40\n        /* \"#utility.yul\":2582:2591   */\n      mload\n        /* \"#utility.yul\":2572:2591   */\n      swap1\n      pop\n        /* \"#utility.yul\":2522:2597   */\n      swap1\n      jump\t// out\n        /* \"#utility.yul\":2603:2911   */\n    tag_29:\n        /* \"#utility.yul\":2665:2669   */\n      0x00\n        /* \"#utility.yul\":2755:2773   */\n      0xffffffffffffffff\n        /* \"#utility.yul\":2747:2753   */\n      dup3\n        /* \"#utility.yul\":2744:2774   */\n      gt\n        /* \"#utility.yul\":2741:2797   */\n      iszero\n      tag_69\n      jumpi\n        /* \"#utility.yul\":2777:2795   */\n      tag_70\n      tag_71\n      jump\t// in\n    tag_70:\n        /* \"#utility.yul\":2741:2797   */\n    tag_69:\n        /* \"#utility.yul\":2815:2844   */\n      tag_72\n        /* \"#utility.yul\":2837:2843   */\n      dup3\n        /* \"#utility.yul\":2815:2844   */\n      tag_73\n      jump\t// in\n    tag_72:\n        /* \"#utility.yul\":2807:2844   */\n      swap1\n      pop\n        /* \"#utility.yul\":2899:2903   */\n      0x20\n        /* \"#utility.yul\":2893:2897   */\n      dup2\n        /* \"#utility.yul\":2889:2904   */\n      add\n        /* \"#utility.yul\":2881:2904   */\n      swap1\n      pop\n        /* \"#utility.yul\":2603:2911   */\n      swap2\n      swap1\n      pop\n      jump\t// out\n        /* \"#utility.yul\":2917:2994   */\n    tag_74:\n        /* \"#utility.yul\":2954:2961   */\n      0x00\n        /* \"#utility.yul\":2983:2988   */\n      dup2\n        /* \"#utility.yul\":2972:2988   */\n      swap1\n      pop\n        /* \"#utility.yul\":2917:2994   */\n      swap2\n      swap1\n      pop\n      jump\t// out\n        /* \"#utility.yul\":3000:3154   */\n    tag_35:\n        /* \"#utility.yul\":3084:3090   */\n      dup3\n        /* \"#utility.yul\":3079:3082   */\n      dup2\n        /* \"#utility.yul\":3074:3077   */\n      dup4\n        /* \"#utility.yul\":3061:3091   */\n      calldatacopy\n        /* \"#utility.yul\":3146:3147   */\n      0x00\n        /* \"#utility.yul\":3137:3143   */\n      dup4\n        /* \"#utility.yul\":3132:3135   */\n      dup4\n        /* \"#utility.yul\":3128:3144   */\n      add\n        /* \"#utility.yul\":3121:3148   */\n      mstore\n        /* \"#utility.yul\":3000:3154   */\n      pop\n      pop\n      pop\n      jump\t// out\n        /* \"#utility.yul\":3160:3480   */\n    tag_14:\n        /* \"#utility.yul\":3204:3210   */\n      0x00\n        /* \"#utility.yul\":3241:3242   */\n      0x02\n        /* \"#utility.yul\":3235:3239   */\n      dup3\n        /* \"#utility.yul\":3231:3243   */\n      div\n        /* \"#utility.yul\":3221:3243   */\n      swap1\n      pop\n        /* \"#utility.yul\":3288:3289   */\n      0x01\n        /* \"#utility.yul\":3282:3286   */\n      dup3\n        /* \"#utility.yul\":3278:3290   */\n      and\n        /* \"#utility.yul\":3309:3327   */\n      dup1\n        /* \"#utility.yul\":3299:3380   */\n      tag_78\n      jumpi\n        /* \"#utility.yul\":3365:3369   */\n      0x7f\n        /* \"#utility.yul\":3357:3363   */\n      dup3\n        /* \"#utility.yul\":3353:3370   */\n      and\n        /* \"#utility.yul\":3343:3370   */\n      swap2\n      pop\n        /* \"#utility.yul\":3299:3380   */\n    tag_78:\n        /* \"#utility.yul\":3427:3429   */\n      0x20\n        /* \"#utility.yul\":3419:3425   */\n      dup3\n        /* \"#utility.yul\":3416:3430   */\n      lt\n        /* \"#utility.yul\":3396:3414   */\n      dup2\n        /* \"#utility.yul\":3393:3431   */\n      eq\n        /* \"#utility.yul\":3390:3474   */\n      iszero\n      tag_79\n      jumpi\n        /* \"#utility.yul\":3446:3464   */\n      tag_80\n      tag_81\n      jump\t// in\n    tag_80:\n        /* \"#utility.yul\":3390:3474   */\n    tag_79:\n        /* \"#utility.yul\":3211:3480   */\n      pop\n        /* \"#utility.yul\":3160:3480   */\n      swap2\n      swap1\n      pop\n      jump\t// out\n        /* \"#utility.yul\":3486:3767   */\n    tag_66:\n        /* \"#utility.yul\":3569:3596   */\n      tag_83\n        /* \"#utility.yul\":3591:3595   */\n      dup3\n        /* \"#utility.yul\":3569:3596   */\n      tag_73\n      jump\t// in\n    tag_83:\n        /* \"#utility.yul\":3561:3567   */\n      dup2\n        /* \"#utility.yul\":3557:3597   */\n      add\n        /* \"#utility.yul\":3699:3705   */\n      dup2\n        /* \"#utility.yul\":3687:3697   */\n      dup2\n        /* \"#utility.yul\":3684:3706   */\n      lt\n        /* \"#utility.yul\":3663:3681   */\n      0xffffffffffffffff\n        /* \"#utility.yul\":3651:3661   */\n      dup3\n        /* \"#utility.yul\":3648:3682   */\n      gt\n        /* \"#utility.yul\":3645:3707   */\n      or\n        /* \"#utility.yul\":3642:3730   */\n      iszero\n      tag_84\n      jumpi\n        /* \"#utility.yul\":3710:3728   */\n      tag_85\n      tag_71\n      jump\t// in\n    tag_85:\n        /* \"#utility.yul\":3642:3730   */\n    tag_84:\n        /* \"#utility.yul\":3750:3760   */\n      dup1\n        /* \"#utility.yul\":3746:3748   */\n      0x40\n        /* \"#utility.yul\":3739:3761   */\n      mstore\n        /* \"#utility.yul\":3529:3767   */\n      pop\n        /* \"#utility.yul\":3486:3767   */\n      pop\n      pop\n      jump\t// out\n        /* \"#utility.yul\":3773:3953   */\n    tag_81:\n        /* \"#utility.yul\":3821:3898   */\n      0x4e487b7100000000000000000000000000000000000000000000000000000000\n        /* \"#utility.yul\":3818:3819   */\n      0x00\n        /* \"#utility.yul\":3811:3899   */\n      mstore\n        /* \"#utility.yul\":3918:3922   */\n      0x22\n        /* \"#utility.yul\":3915:3916   */\n      0x04\n        /* \"#utility.yul\":3908:3923   */\n      mstore\n        /* \"#utility.yul\":3942:3946   */\n      0x24\n        /* \"#utility.yul\":3939:3940   */\n      0x00\n        /* \"#utility.yul\":3932:3947   */\n      revert\n        /* \"#utility.yul\":3959:4139   */\n    tag_71:\n        /* \"#utility.yul\":4007:4084   */\n      0x4e487b7100000000000000000000000000000000000000000000000000000000\n        /* \"#utility.yul\":4004:4005   */\n      0x00\n        /* \"#utility.yul\":3997:4085   */\n      mstore\n        /* \"#utility.yul\":4104:4108   */\n      0x41\n        /* \"#utility.yul\":4101:4102   */\n      0x04\n        /* \"#utility.yul\":4094:4109   */\n      mstore\n        /* \"#utility.yul\":4128:4132   */\n      0x24\n        /* \"#utility.yul\":4125:4126   */\n      0x00\n        /* \"#utility.yul\":4118:4133   */\n      revert\n        /* \"#utility.yul\":4145:4262   */\n    tag_40:\n        /* \"#utility.yul\":4254:4255   */\n      0x00\n        /* \"#utility.yul\":4251:4252   */\n      dup1\n        /* \"#utility.yul\":4244:4256   */\n      revert\n        /* \"#utility.yul\":4268:4385   */\n    tag_33:\n        /* \"#utility.yul\":4377:4378   */\n      0x00\n        /* \"#utility.yul\":4374:4375   */\n      dup1\n        /* \"#utility.yul\":4367:4379   */\n      revert\n        /* \"#utility.yul\":4391:4508   */\n    tag_53:\n        /* \"#utility.yul\":4500:4501   */\n      0x00\n        /* \"#utility.yul\":4497:4498   */\n      dup1\n        /* \"#utility.yul\":4490:4502   */\n      revert\n        /* \"#utility.yul\":4514:4631   */\n    tag_49:\n        /* \"#utility.yul\":4623:4624   */\n      0x00\n        /* \"#utility.yul\":4620:4621   */\n      dup1\n        /* \"#utility.yul\":4613:4625   */\n      revert\n        /* \"#utility.yul\":4637:4739   */\n    tag_73:\n        /* \"#utility.yul\":4678:4684   */\n      0x00\n        /* \"#utility.yul\":4729:4731   */\n      0x1f\n        /* \"#utility.yul\":4725:4732   */\n      not\n        /* \"#utility.yul\":4720:4722   */\n      0x1f\n        /* \"#utility.yul\":4713:4718   */\n      dup4\n        /* \"#utility.yul\":4709:4723   */\n      add\n        /* \"#utility.yul\":4705:4733   */\n      and\n        /* \"#utility.yul\":4695:4733   */\n      swap1\n      pop\n        /* \"#utility.yul\":4637:4739   */\n      swap2\n      swap1\n      pop\n      jump\t// out\n        /* \"#utility.yul\":4745:4867   */\n    tag_45:\n        /* \"#utility.yul\":4818:4842   */\n      tag_94\n        /* \"#utility.yul\":4836:4841   */\n      dup2\n        /* \"#utility.yul\":4818:4842   */\n      tag_74\n      jump\t// in\n    tag_94:\n        /* \"#utility.yul\":4811:4816   */\n      dup2\n        /* \"#utility.yul\":4808:4843   */\n      eq\n        /* \"#utility.yul\":4798:4861   */\n      tag_95\n      jumpi\n        /* \"#utility.yul\":4857:4858   */\n      0x00\n        /* \"#utility.yul\":4854:4855   */\n      dup1\n        /* \"#utility.yul\":4847:4859   */\n      revert\n        /* \"#utility.yul\":4798:4861   */\n    tag_95:\n        /* \"#utility.yul\":4745:4867   */\n      pop\n      jump\t// out\n\n    auxdata: 0xa26469706673582212204dac0f0052872f8c30f5077e2b504bc6d00bbed1c1f269a7755680a5d2a8f75264736f6c63430008070033\n}\n",
				"bytecode": {
					"linkReferences": {},
					"object": "608060405234801561001057600080fd5b50610483806100206000396000f3fe608060405234801561001057600080fd5b506004361061002b5760003560e01c80635090074314610030575b600080fd5b61004a60048036038101906100459190610212565b61004c565b005b604051806080016040528085815260200184815260200183815260200182815250600080878152602001908152602001600020600082015181600001908051906020019061009b9291906100ea565b506020820151816001015560408201518160020190805190602001906100c29291906100ea565b5060608201518160030190805190602001906100df9291906100ea565b509050505050505050565b8280546100f690610350565b90600052602060002090601f016020900481019282610118576000855561015f565b82601f1061013157805160ff191683800117855561015f565b8280016001018555821561015f579182015b8281111561015e578251825591602001919060010190610143565b5b50905061016c9190610170565b5090565b5b80821115610189576000816000905550600101610171565b5090565b60006101a061019b84610306565b6102e1565b9050828152602081018484840111156101bc576101bb610416565b5b6101c7848285610341565b509392505050565b600082601f8301126101e4576101e3610411565b5b81356101f484826020860161018d565b91505092915050565b60008135905061020c81610436565b92915050565b600080600080600060a0868803121561022e5761022d610420565b5b600061023c888289016101fd565b955050602086013567ffffffffffffffff81111561025d5761025c61041b565b5b610269888289016101cf565b945050604061027a888289016101fd565b935050606086013567ffffffffffffffff81111561029b5761029a61041b565b5b6102a7888289016101cf565b925050608086013567ffffffffffffffff8111156102c8576102c761041b565b5b6102d4888289016101cf565b9150509295509295909350565b60006102eb6102fc565b90506102f78282610382565b919050565b6000604051905090565b600067ffffffffffffffff821115610321576103206103e2565b5b61032a82610425565b9050602081019050919050565b6000819050919050565b82818337600083830152505050565b6000600282049050600182168061036857607f821691505b6020821081141561037c5761037b6103b3565b5b50919050565b61038b82610425565b810181811067ffffffffffffffff821117156103aa576103a96103e2565b5b80604052505050565b7f4e487b7100000000000000000000000000000000000000000000000000000000600052602260045260246000fd5b7f4e487b7100000000000000000000000000000000000000000000000000000000600052604160045260246000fd5b600080fd5b600080fd5b600080fd5b600080fd5b6000601f19601f8301169050919050565b61043f81610337565b811461044a57600080fd5b5056fea26469706673582212204dac0f0052872f8c30f5077e2b504bc6d00bbed1c1f269a7755680a5d2a8f75264736f6c63430008070033",
					"opcodes": "PUSH1 0x80 PUSH1 0x40 MSTORE CALLVALUE DUP1 ISZERO PUSH2 0x10 JUMPI PUSH1 0x0 DUP1 REVERT JUMPDEST POP PUSH2 0x483 DUP1 PUSH2 0x20 PUSH1 0x0 CODECOPY PUSH1 0x0 RETURN INVALID PUSH1 0x80 PUSH1 0x40 MSTORE CALLVALUE DUP1 ISZERO PUSH2 0x10 JUMPI PUSH1 0x0 DUP1 REVERT JUMPDEST POP PUSH1 0x4 CALLDATASIZE LT PUSH2 0x2B JUMPI PUSH1 0x0 CALLDATALOAD PUSH1 0xE0 SHR DUP1 PUSH4 0x50900743 EQ PUSH2 0x30 JUMPI JUMPDEST PUSH1 0x0 DUP1 REVERT JUMPDEST PUSH2 0x4A PUSH1 0x4 DUP1 CALLDATASIZE SUB DUP2 ADD SWAP1 PUSH2 0x45 SWAP2 SWAP1 PUSH2 0x212 JUMP JUMPDEST PUSH2 0x4C JUMP JUMPDEST STOP JUMPDEST PUSH1 0x40 MLOAD DUP1 PUSH1 0x80 ADD PUSH1 0x40 MSTORE DUP1 DUP6 DUP2 MSTORE PUSH1 0x20 ADD DUP5 DUP2 MSTORE PUSH1 0x20 ADD DUP4 DUP2 MSTORE PUSH1 0x20 ADD DUP3 DUP2 MSTORE POP PUSH1 0x0 DUP1 DUP8 DUP2 MSTORE PUSH1 0x20 ADD SWAP1 DUP2 MSTORE PUSH1 0x20 ADD PUSH1 0x0 KECCAK256 PUSH1 0x0 DUP3 ADD MLOAD DUP2 PUSH1 0x0 ADD SWAP1 DUP1 MLOAD SWAP1 PUSH1 0x20 ADD SWAP1 PUSH2 0x9B SWAP3 SWAP2 SWAP1 PUSH2 0xEA JUMP JUMPDEST POP PUSH1 0x20 DUP3 ADD MLOAD DUP2 PUSH1 0x1 ADD SSTORE PUSH1 0x40 DUP3 ADD MLOAD DUP2 PUSH1 0x2 ADD SWAP1 DUP1 MLOAD SWAP1 PUSH1 0x20 ADD SWAP1 PUSH2 0xC2 SWAP3 SWAP2 SWAP1 PUSH2 0xEA JUMP JUMPDEST POP PUSH1 0x60 DUP3 ADD MLOAD DUP2 PUSH1 0x3 ADD SWAP1 DUP1 MLOAD SWAP1 PUSH1 0x20 ADD SWAP1 PUSH2 0xDF SWAP3 SWAP2 SWAP1 PUSH2 0xEA JUMP JUMPDEST POP SWAP1 POP POP POP POP POP POP POP JUMP JUMPDEST DUP3 DUP1 SLOAD PUSH2 0xF6 SWAP1 PUSH2 0x350 JUMP JUMPDEST SWAP1 PUSH1 0x0 MSTORE PUSH1 0x20 PUSH1 0x0 KECCAK256 SWAP1 PUSH1 0x1F ADD PUSH1 0x20 SWAP1 DIV DUP2 ADD SWAP3 DUP3 PUSH2 0x118 JUMPI PUSH1 0x0 DUP6 SSTORE PUSH2 0x15F JUMP JUMPDEST DUP3 PUSH1 0x1F LT PUSH2 0x131 JUMPI DUP1 MLOAD PUSH1 0xFF NOT AND DUP4 DUP1 ADD OR DUP6 SSTORE PUSH2 0x15F JUMP JUMPDEST DUP3 DUP1 ADD PUSH1 0x1 ADD DUP6 SSTORE DUP3 ISZERO PUSH2 0x15F JUMPI SWAP2 DUP3 ADD JUMPDEST DUP3 DUP2 GT ISZERO PUSH2 0x15E JUMPI DUP3 MLOAD DUP3 SSTORE SWAP2 PUSH1 0x20 ADD SWAP2 SWAP1 PUSH1 0x1 ADD SWAP1 PUSH2 0x143 JUMP JUMPDEST JUMPDEST POP SWAP1 POP PUSH2 0x16C SWAP2 SWAP1 PUSH2 0x170 JUMP JUMPDEST POP SWAP1 JUMP JUMPDEST JUMPDEST DUP1 DUP3 GT ISZERO PUSH2 0x189 JUMPI PUSH1 0x0 DUP2 PUSH1 0x0 SWAP1 SSTORE POP PUSH1 0x1 ADD PUSH2 0x171 JUMP JUMPDEST POP SWAP1 JUMP JUMPDEST PUSH1 0x0 PUSH2 0x1A0 PUSH2 0x19B DUP5 PUSH2 0x306 JUMP JUMPDEST PUSH2 0x2E1 JUMP JUMPDEST SWAP1 POP DUP3 DUP2 MSTORE PUSH1 0x20 DUP2 ADD DUP5 DUP5 DUP5 ADD GT ISZERO PUSH2 0x1BC JUMPI PUSH2 0x1BB PUSH2 0x416 JUMP JUMPDEST JUMPDEST PUSH2 0x1C7 DUP5 DUP3 DUP6 PUSH2 0x341 JUMP JUMPDEST POP SWAP4 SWAP3 POP POP POP JUMP JUMPDEST PUSH1 0x0 DUP3 PUSH1 0x1F DUP4 ADD SLT PUSH2 0x1E4 JUMPI PUSH2 0x1E3 PUSH2 0x411 JUMP JUMPDEST JUMPDEST DUP2 CALLDATALOAD PUSH2 0x1F4 DUP5 DUP3 PUSH1 0x20 DUP7 ADD PUSH2 0x18D JUMP JUMPDEST SWAP2 POP POP SWAP3 SWAP2 POP POP JUMP JUMPDEST PUSH1 0x0 DUP2 CALLDATALOAD SWAP1 POP PUSH2 0x20C DUP2 PUSH2 0x436 JUMP JUMPDEST SWAP3 SWAP2 POP POP JUMP JUMPDEST PUSH1 0x0 DUP1 PUSH1 0x0 DUP1 PUSH1 0x0 PUSH1 0xA0 DUP7 DUP9 SUB SLT ISZERO PUSH2 0x22E JUMPI PUSH2 0x22D PUSH2 0x420 JUMP JUMPDEST JUMPDEST PUSH1 0x0 PUSH2 0x23C DUP9 DUP3 DUP10 ADD PUSH2 0x1FD JUMP JUMPDEST SWAP6 POP POP PUSH1 0x20 DUP7 ADD CALLDATALOAD PUSH8 0xFFFFFFFFFFFFFFFF DUP2 GT ISZERO PUSH2 0x25D JUMPI PUSH2 0x25C PUSH2 0x41B JUMP JUMPDEST JUMPDEST PUSH2 0x269 DUP9 DUP3 DUP10 ADD PUSH2 0x1CF JUMP JUMPDEST SWAP5 POP POP PUSH1 0x40 PUSH2 0x27A DUP9 DUP3 DUP10 ADD PUSH2 0x1FD JUMP JUMPDEST SWAP4 POP POP PUSH1 0x60 DUP7 ADD CALLDATALOAD PUSH8 0xFFFFFFFFFFFFFFFF DUP2 GT ISZERO PUSH2 0x29B JUMPI PUSH2 0x29A PUSH2 0x41B JUMP JUMPDEST JUMPDEST PUSH2 0x2A7 DUP9 DUP3 DUP10 ADD PUSH2 0x1CF JUMP JUMPDEST SWAP3 POP POP PUSH1 0x80 DUP7 ADD CALLDATALOAD PUSH8 0xFFFFFFFFFFFFFFFF DUP2 GT ISZERO PUSH2 0x2C8 JUMPI PUSH2 0x2C7 PUSH2 0x41B JUMP JUMPDEST JUMPDEST PUSH2 0x2D4 DUP9 DUP3 DUP10 ADD PUSH2 0x1CF JUMP JUMPDEST SWAP2 POP POP SWAP3 SWAP6 POP SWAP3 SWAP6 SWAP1 SWAP4 POP JUMP JUMPDEST PUSH1 0x0 PUSH2 0x2EB PUSH2 0x2FC JUMP JUMPDEST SWAP1 POP PUSH2 0x2F7 DUP3 DUP3 PUSH2 0x382 JUMP JUMPDEST SWAP2 SWAP1 POP JUMP JUMPDEST PUSH1 0x0 PUSH1 0x40 MLOAD SWAP1 POP SWAP1 JUMP JUMPDEST PUSH1 0x0 PUSH8 0xFFFFFFFFFFFFFFFF DUP3 GT ISZERO PUSH2 0x321 JUMPI PUSH2 0x320 PUSH2 0x3E2 JUMP JUMPDEST JUMPDEST PUSH2 0x32A DUP3 PUSH2 0x425 JUMP JUMPDEST SWAP1 POP PUSH1 0x20 DUP2 ADD SWAP1 POP SWAP2 SWAP1 POP JUMP JUMPDEST PUSH1 0x0 DUP2 SWAP1 POP SWAP2 SWAP1 POP JUMP JUMPDEST DUP3 DUP2 DUP4 CALLDATACOPY PUSH1 0x0 DUP4 DUP4 ADD MSTORE POP POP POP JUMP JUMPDEST PUSH1 0x0 PUSH1 0x2 DUP3 DIV SWAP1 POP PUSH1 0x1 DUP3 AND DUP1 PUSH2 0x368 JUMPI PUSH1 0x7F DUP3 AND SWAP2 POP JUMPDEST PUSH1 0x20 DUP3 LT DUP2 EQ ISZERO PUSH2 0x37C JUMPI PUSH2 0x37B PUSH2 0x3B3 JUMP JUMPDEST JUMPDEST POP SWAP2 SWAP1 POP JUMP JUMPDEST PUSH2 0x38B DUP3 PUSH2 0x425 JUMP JUMPDEST DUP2 ADD DUP2 DUP2 LT PUSH8 0xFFFFFFFFFFFFFFFF DUP3 GT OR ISZERO PUSH2 0x3AA JUMPI PUSH2 0x3A9 PUSH2 0x3E2 JUMP JUMPDEST JUMPDEST DUP1 PUSH1 0x40 MSTORE POP POP POP JUMP JUMPDEST PUSH32 0x4E487B7100000000000000000000000000000000000000000000000000000000 PUSH1 0x0 MSTORE PUSH1 0x22 PUSH1 0x4 MSTORE PUSH1 0x24 PUSH1 0x0 REVERT JUMPDEST PUSH32 0x4E487B7100000000000000000000000000000000000000000000000000000000 PUSH1 0x0 MSTORE PUSH1 0x41 PUSH1 0x4 MSTORE PUSH1 0x24 PUSH1 0x0 REVERT JUMPDEST PUSH1 0x0 DUP1 REVERT JUMPDEST PUSH1 0x0 DUP1 REVERT JUMPDEST PUSH1 0x0 DUP1 REVERT JUMPDEST PUSH1 0x0 DUP1 REVERT JUMPDEST PUSH1 0x0 PUSH1 0x1F NOT PUSH1 0x1F DUP4 ADD AND SWAP1 POP SWAP2 SWAP1 POP JUMP JUMPDEST PUSH2 0x43F DUP2 PUSH2 0x337 JUMP JUMPDEST DUP2 EQ PUSH2 0x44A JUMPI PUSH1 0x0 DUP1 REVERT JUMPDEST POP JUMP INVALID LOG2 PUSH5 0x6970667358 0x22 SLT KECCAK256 0x4D 0xAC 0xF STOP MSTORE DUP8 0x2F DUP13 ADDRESS CREATE2 SMOD PUSH31 0x2B504BC6D00BBED1C1F269A7755680A5D2A8F75264736F6C63430008070033 "
				},
				"gasEstimates": {
					"creation": {
						"codeDepositCost": "231000",
						"executionCost": "275",
						"totalCost": "231275"
					},
					"external": {
						"set(uint256,string,uint256,string,string)": "infinite"
					}
				},
				"methodIdentifiers": {
					"set(uint256,string,uint256,string,string)": "50900743"
				}
			},
			"storageLayout": {
				"storage": [
					{
						"astId": 15,
						"contract": "mappingg1.sol:Mapping1testing",
						"label": "my_mobile",
						"offset": 0,
						"slot": "0",
						"type": "t_mapping(t_uint256,t_struct(mobile)10_storage)"
					}
				],
				"types": {
					"t_mapping(t_uint256,t_struct(mobile)10_storage)": {
						"encoding": "mapping",
						"key": "t_uint256",
						"label": "mapping(uint256 => struct Mapping1testing.mobile)",
						"numberOfBytes": "32",
						"value": "t_struct(mobile)10_storage"
					},
					"t_string_storage": {
						"encoding": "bytes",
						"label": "string",
						"numberOfBytes": "32"
					},
					"t_struct(mobile)10_storage": {
						"encoding": "inplace",
						"label": "struct Mapping1testing.mobile",
						"members": [
							{
								"astId": 3,
								"contract": "mappingg1.sol:Mapping1testing",
								"label": "Name",
								"offset": 0,
								"slot": "0",
								"type": "t_string_storage"
							},
							{
								"astId": 5,
								"contract": "mappingg1.sol:Mapping1testing",
								"label": "model_name",
								"offset": 0,
								"slot": "1",
								"type": "t_uint256"
							},
							{
								"astId": 7,
								"contract": "mappingg1.sol:Mapping1testing",
								"label": "owner_name",
								"offset": 0,
								"slot": "2",
								"type": "t_string_storage"
							},
							{
								"astId": 9,
								"contract": "mappingg1.sol:Mapping1testing",
								"label": "color",
								"offset": 0,
								"slot": "3",
								"type": "t_string_storage"
							}
						],
						"numberOfBytes": "128"
					},
					"t_uint256": {
						"encoding": "inplace",
						"label": "uint256",
						"numberOfBytes": "32"
					}
				}
			},
			"userdoc": {
				"kind": "user",
				"methods": {},
				"version": 1
			}
		}
	}
}