{
	"rule5.sol": {
		"rule5": {
			"abi": [
				{
					"inputs": [],
					"name": "assignment1",
					"outputs": [
						{
							"internalType": "int256",
							"name": "",
							"type": "int256"
						}
					],
					"stateMutability": "nonpayable",
					"type": "function"
				},
				{
					"inputs": [],
					"name": "rule5StateVar1",
					"outputs": [
						{
							"internalType": "int256",
							"name": "",
							"type": "int256"
						}
					],
					"stateMutability": "view",
					"type": "function"
				},
				{
					"inputs": [],
					"name": "rule5StateVar2",
					"outputs": [
						{
							"internalType": "int256",
							"name": "",
							"type": "int256"
						}
					],
					"stateMutability": "view",
					"type": "function"
				}
			],
			"devdoc": {
				"kind": "dev",
				"methods": {},
				"version": 1
			},
			"evm": {
				"assembly": "    /* \"rule5.sol\":27:285  contract rule5{... */\n  mstore(0x40, 0x80)\n    /* \"rule5.sol\":76:78  10 */\n  0x0a\n    /* \"rule5.sol\":48:78  int public rule5StateVar1 = 10 */\n  0x00\n  sstore\n    /* \"rule5.sol\":109:111  20 */\n  0x14\n    /* \"rule5.sol\":81:111  int public rule5StateVar2 = 20 */\n  0x01\n  sstore\n    /* \"rule5.sol\":27:285  contract rule5{... */\n  callvalue\n  dup1\n  iszero\n  tag_1\n  jumpi\n  0x00\n  dup1\n  revert\ntag_1:\n  pop\n  dataSize(sub_0)\n  dup1\n  dataOffset(sub_0)\n  0x00\n  codecopy\n  0x00\n  return\nstop\n\nsub_0: assembly {\n        /* \"rule5.sol\":27:285  contract rule5{... */\n      mstore(0x40, 0x80)\n      callvalue\n      dup1\n      iszero\n      tag_1\n      jumpi\n      0x00\n      dup1\n      revert\n    tag_1:\n      pop\n      jumpi(tag_2, lt(calldatasize, 0x04))\n      shr(0xe0, calldataload(0x00))\n      dup1\n      0x77f8f9d0\n      eq\n      tag_3\n      jumpi\n      dup1\n      0x7e766314\n      eq\n      tag_4\n      jumpi\n      dup1\n      0xb1ccfde3\n      eq\n      tag_5\n      jumpi\n    tag_2:\n      0x00\n      dup1\n      revert\n        /* \"rule5.sol\":81:111  int public rule5StateVar2 = 20 */\n    tag_3:\n      tag_6\n      tag_7\n      jump\t// in\n    tag_6:\n      mload(0x40)\n      tag_8\n      swap2\n      swap1\n      tag_9\n      jump\t// in\n    tag_8:\n      mload(0x40)\n      dup1\n      swap2\n      sub\n      swap1\n      return\n        /* \"rule5.sol\":114:280  function assignment1() public returns (int) {  rule5StateVar1 = rule5StateVar2;  rule5StateVar2 = 60;... */\n    tag_4:\n      tag_10\n      tag_11\n      jump\t// in\n    tag_10:\n      mload(0x40)\n      tag_12\n      swap2\n      swap1\n      tag_9\n      jump\t// in\n    tag_12:\n      mload(0x40)\n      dup1\n      swap2\n      sub\n      swap1\n      return\n        /* \"rule5.sol\":48:78  int public rule5StateVar1 = 10 */\n    tag_5:\n      tag_13\n      tag_14\n      jump\t// in\n    tag_13:\n      mload(0x40)\n      tag_15\n      swap2\n      swap1\n      tag_9\n      jump\t// in\n    tag_15:\n      mload(0x40)\n      dup1\n      swap2\n      sub\n      swap1\n      return\n        /* \"rule5.sol\":81:111  int public rule5StateVar2 = 20 */\n    tag_7:\n      sload(0x01)\n      dup2\n      jump\t// out\n        /* \"rule5.sol\":114:280  function assignment1() public returns (int) {  rule5StateVar1 = rule5StateVar2;  rule5StateVar2 = 60;... */\n    tag_11:\n        /* \"rule5.sol\":153:156  int */\n      0x00\n        /* \"rule5.sol\":178:192  rule5StateVar2 */\n      sload(0x01)\n        /* \"rule5.sol\":161:175  rule5StateVar1 */\n      0x00\n        /* \"rule5.sol\":161:192  rule5StateVar1 = rule5StateVar2 */\n      dup2\n      swap1\n      sstore\n      pop\n        /* \"rule5.sol\":212:214  60 */\n      0x3c\n        /* \"rule5.sol\":195:209  rule5StateVar2 */\n      0x01\n        /* \"rule5.sol\":195:214  rule5StateVar2 = 60 */\n      dup2\n      swap1\n      sstore\n      pop\n        /* \"rule5.sol\":224:238  rule5StateVar1 */\n      sload(0x00)\n        /* \"rule5.sol\":217:238  return rule5StateVar1 */\n      swap1\n      pop\n        /* \"rule5.sol\":114:280  function assignment1() public returns (int) {  rule5StateVar1 = rule5StateVar2;  rule5StateVar2 = 60;... */\n      swap1\n      jump\t// out\n        /* \"rule5.sol\":48:78  int public rule5StateVar1 = 10 */\n    tag_14:\n      sload(0x00)\n      dup2\n      jump\t// out\n        /* \"#utility.yul\":7:83   */\n    tag_17:\n        /* \"#utility.yul\":43:50   */\n      0x00\n        /* \"#utility.yul\":72:77   */\n      dup2\n        /* \"#utility.yul\":61:77   */\n      swap1\n      pop\n        /* \"#utility.yul\":7:83   */\n      swap2\n      swap1\n      pop\n      jump\t// out\n        /* \"#utility.yul\":89:204   */\n    tag_18:\n        /* \"#utility.yul\":174:197   */\n      tag_22\n        /* \"#utility.yul\":191:196   */\n      dup2\n        /* \"#utility.yul\":174:197   */\n      tag_17\n      jump\t// in\n    tag_22:\n        /* \"#utility.yul\":169:172   */\n      dup3\n        /* \"#utility.yul\":162:198   */\n      mstore\n        /* \"#utility.yul\":89:204   */\n      pop\n      pop\n      jump\t// out\n        /* \"#utility.yul\":210:428   */\n    tag_9:\n        /* \"#utility.yul\":301:305   */\n      0x00\n        /* \"#utility.yul\":339:341   */\n      0x20\n        /* \"#utility.yul\":328:337   */\n      dup3\n        /* \"#utility.yul\":324:342   */\n      add\n        /* \"#utility.yul\":316:342   */\n      swap1\n      pop\n        /* \"#utility.yul\":352:421   */\n      tag_24\n        /* \"#utility.yul\":418:419   */\n      0x00\n        /* \"#utility.yul\":407:416   */\n      dup4\n        /* \"#utility.yul\":403:420   */\n      add\n        /* \"#utility.yul\":394:400   */\n      dup5\n        /* \"#utility.yul\":352:421   */\n      tag_18\n      jump\t// in\n    tag_24:\n        /* \"#utility.yul\":210:428   */\n      swap3\n      swap2\n      pop\n      pop\n      jump\t// out\n\n    auxdata: 0xa26469706673582212204adf9905639dfb4df6999bd84abe6033ff0c3c1504134e682b06d2a66a80751a64736f6c634300080f0033\n}\n",
				"bytecode": {
					"linkReferences": {},
					"object": "6080604052600a600055601460015534801561001a57600080fd5b5061011c8061002a6000396000f3fe6080604052348015600f57600080fd5b5060043610603c5760003560e01c806377f8f9d01460415780637e76631414605b578063b1ccfde3146075575b600080fd5b6047608f565b6040516052919060cd565b60405180910390f35b60616095565b604051606c919060cd565b60405180910390f35b607b60b0565b6040516086919060cd565b60405180910390f35b60015481565b6000600154600081905550603c600181905550600054905090565b60005481565b6000819050919050565b60c78160b6565b82525050565b600060208201905060e0600083018460c0565b9291505056fea26469706673582212204adf9905639dfb4df6999bd84abe6033ff0c3c1504134e682b06d2a66a80751a64736f6c634300080f0033",
					"opcodes": "PUSH1 0x80 PUSH1 0x40 MSTORE PUSH1 0xA PUSH1 0x0 SSTORE PUSH1 0x14 PUSH1 0x1 SSTORE CALLVALUE DUP1 ISZERO PUSH2 0x1A JUMPI PUSH1 0x0 DUP1 REVERT JUMPDEST POP PUSH2 0x11C DUP1 PUSH2 0x2A PUSH1 0x0 CODECOPY PUSH1 0x0 RETURN INVALID PUSH1 0x80 PUSH1 0x40 MSTORE CALLVALUE DUP1 ISZERO PUSH1 0xF JUMPI PUSH1 0x0 DUP1 REVERT JUMPDEST POP PUSH1 0x4 CALLDATASIZE LT PUSH1 0x3C JUMPI PUSH1 0x0 CALLDATALOAD PUSH1 0xE0 SHR DUP1 PUSH4 0x77F8F9D0 EQ PUSH1 0x41 JUMPI DUP1 PUSH4 0x7E766314 EQ PUSH1 0x5B JUMPI DUP1 PUSH4 0xB1CCFDE3 EQ PUSH1 0x75 JUMPI JUMPDEST PUSH1 0x0 DUP1 REVERT JUMPDEST PUSH1 0x47 PUSH1 0x8F JUMP JUMPDEST PUSH1 0x40 MLOAD PUSH1 0x52 SWAP2 SWAP1 PUSH1 0xCD JUMP JUMPDEST PUSH1 0x40 MLOAD DUP1 SWAP2 SUB SWAP1 RETURN JUMPDEST PUSH1 0x61 PUSH1 0x95 JUMP JUMPDEST PUSH1 0x40 MLOAD PUSH1 0x6C SWAP2 SWAP1 PUSH1 0xCD JUMP JUMPDEST PUSH1 0x40 MLOAD DUP1 SWAP2 SUB SWAP1 RETURN JUMPDEST PUSH1 0x7B PUSH1 0xB0 JUMP JUMPDEST PUSH1 0x40 MLOAD PUSH1 0x86 SWAP2 SWAP1 PUSH1 0xCD JUMP JUMPDEST PUSH1 0x40 MLOAD DUP1 SWAP2 SUB SWAP1 RETURN JUMPDEST PUSH1 0x1 SLOAD DUP2 JUMP JUMPDEST PUSH1 0x0 PUSH1 0x1 SLOAD PUSH1 0x0 DUP2 SWAP1 SSTORE POP PUSH1 0x3C PUSH1 0x1 DUP2 SWAP1 SSTORE POP PUSH1 0x0 SLOAD SWAP1 POP SWAP1 JUMP JUMPDEST PUSH1 0x0 SLOAD DUP2 JUMP JUMPDEST PUSH1 0x0 DUP2 SWAP1 POP SWAP2 SWAP1 POP JUMP JUMPDEST PUSH1 0xC7 DUP2 PUSH1 0xB6 JUMP JUMPDEST DUP3 MSTORE POP POP JUMP JUMPDEST PUSH1 0x0 PUSH1 0x20 DUP3 ADD SWAP1 POP PUSH1 0xE0 PUSH1 0x0 DUP4 ADD DUP5 PUSH1 0xC0 JUMP JUMPDEST SWAP3 SWAP2 POP POP JUMP INVALID LOG2 PUSH5 0x6970667358 0x22 SLT KECCAK256 0x4A 0xDF SWAP10 SDIV PUSH4 0x9DFB4DF6 SWAP10 SWAP12 0xD8 0x4A 0xBE PUSH1 0x33 SELFDESTRUCT 0xC EXTCODECOPY ISZERO DIV SGT 0x4E PUSH9 0x2B06D2A66A80751A64 PUSH20 0x6F6C634300080F00330000000000000000000000 "
				},
				"gasEstimates": {
					"creation": {
						"codeDepositCost": "56800",
						"executionCost": "44317",
						"totalCost": "101117"
					},
					"external": {
						"assignment1()": "48765",
						"rule5StateVar1()": "2451",
						"rule5StateVar2()": "2407"
					}
				},
				"methodIdentifiers": {
					"assignment1()": "7e766314",
					"rule5StateVar1()": "b1ccfde3",
					"rule5StateVar2()": "77f8f9d0"
				}
			},
			"storageLayout": {
				"storage": [
					{
						"astId": 4,
						"contract": "rule5.sol:rule5",
						"label": "rule5StateVar1",
						"offset": 0,
						"slot": "0",
						"type": "t_int256"
					},
					{
						"astId": 7,
						"contract": "rule5.sol:rule5",
						"label": "rule5StateVar2",
						"offset": 0,
						"slot": "1",
						"type": "t_int256"
					}
				],
				"types": {
					"t_int256": {
						"encoding": "inplace",
						"label": "int256",
						"numberOfBytes": "32"
					}
				}
			},
			"userdoc": {
				"kind": "user",
				"methods": {},
				"version": 1
			}
		}
	}
}