{
	"loop.sol": {
		"Looping": {
			"abi": [
				{
					"inputs": [],
					"name": "Loop",
					"outputs": [
						{
							"internalType": "uint256[]",
							"name": "",
							"type": "uint256[]"
						}
					],
					"stateMutability": "nonpayable",
					"type": "function"
				}
			],
			"devdoc": {
				"kind": "dev",
				"methods": {},
				"version": 1
			},
			"evm": {
				"assembly": "    /* \"loop.sol\":66:179  contract Looping{\r... */\n  mstore(0x40, 0x80)\n  callvalue\n  dup1\n  iszero\n  tag_1\n  jumpi\n  0x00\n  dup1\n  revert\ntag_1:\n  pop\n  dataSize(sub_0)\n  dup1\n  dataOffset(sub_0)\n  0x00\n  codecopy\n  0x00\n  return\nstop\n\nsub_0: assembly {\n        /* \"loop.sol\":66:179  contract Looping{\r... */\n      mstore(0x40, 0x80)\n      callvalue\n      dup1\n      iszero\n      tag_1\n      jumpi\n      0x00\n      dup1\n      revert\n    tag_1:\n      pop\n      jumpi(tag_2, lt(calldatasize, 0x04))\n      shr(0xe0, calldataload(0x00))\n      dup1\n      0x9f4d545c\n      eq\n      tag_3\n      jumpi\n    tag_2:\n      0x00\n      dup1\n      revert\n        /* \"loop.sol\":112:176  function Loop() public returns (uint[] memory){\r... */\n    tag_3:\n      tag_4\n      tag_5\n      jump\t// in\n    tag_4:\n      mload(0x40)\n      tag_6\n      swap2\n      swap1\n      tag_7\n      jump\t// in\n    tag_6:\n      mload(0x40)\n      dup1\n      swap2\n      sub\n      swap1\n      return\n    tag_5:\n        /* \"loop.sol\":144:157  uint[] memory */\n      0x60\n        /* \"loop.sol\":112:176  function Loop() public returns (uint[] memory){\r... */\n      swap1\n      jump\t// out\n        /* \"#utility.yul\":7:186   */\n    tag_10:\n        /* \"#utility.yul\":76:86   */\n      0x00\n        /* \"#utility.yul\":97:143   */\n      tag_12\n        /* \"#utility.yul\":139:142   */\n      dup4\n        /* \"#utility.yul\":131:137   */\n      dup4\n        /* \"#utility.yul\":97:143   */\n      tag_13\n      jump\t// in\n    tag_12:\n        /* \"#utility.yul\":175:179   */\n      0x20\n        /* \"#utility.yul\":170:173   */\n      dup4\n        /* \"#utility.yul\":166:180   */\n      add\n        /* \"#utility.yul\":152:180   */\n      swap1\n      pop\n        /* \"#utility.yul\":7:186   */\n      swap3\n      swap2\n      pop\n      pop\n      jump\t// out\n        /* \"#utility.yul\":222:954   */\n    tag_14:\n        /* \"#utility.yul\":341:344   */\n      0x00\n        /* \"#utility.yul\":370:424   */\n      tag_16\n        /* \"#utility.yul\":418:423   */\n      dup3\n        /* \"#utility.yul\":370:424   */\n      tag_17\n      jump\t// in\n    tag_16:\n        /* \"#utility.yul\":440:526   */\n      tag_18\n        /* \"#utility.yul\":519:525   */\n      dup2\n        /* \"#utility.yul\":514:517   */\n      dup6\n        /* \"#utility.yul\":440:526   */\n      tag_19\n      jump\t// in\n    tag_18:\n        /* \"#utility.yul\":433:526   */\n      swap4\n      pop\n        /* \"#utility.yul\":550:606   */\n      tag_20\n        /* \"#utility.yul\":600:605   */\n      dup4\n        /* \"#utility.yul\":550:606   */\n      tag_21\n      jump\t// in\n    tag_20:\n        /* \"#utility.yul\":629:636   */\n      dup1\n        /* \"#utility.yul\":660:661   */\n      0x00\n        /* \"#utility.yul\":645:929   */\n    tag_22:\n        /* \"#utility.yul\":670:676   */\n      dup4\n        /* \"#utility.yul\":667:668   */\n      dup2\n        /* \"#utility.yul\":664:677   */\n      lt\n        /* \"#utility.yul\":645:929   */\n      iszero\n      tag_24\n      jumpi\n        /* \"#utility.yul\":746:752   */\n      dup2\n        /* \"#utility.yul\":740:753   */\n      mload\n        /* \"#utility.yul\":773:836   */\n      tag_25\n        /* \"#utility.yul\":832:835   */\n      dup9\n        /* \"#utility.yul\":817:830   */\n      dup3\n        /* \"#utility.yul\":773:836   */\n      tag_10\n      jump\t// in\n    tag_25:\n        /* \"#utility.yul\":766:836   */\n      swap8\n      pop\n        /* \"#utility.yul\":859:919   */\n      tag_26\n        /* \"#utility.yul\":912:918   */\n      dup4\n        /* \"#utility.yul\":859:919   */\n      tag_27\n      jump\t// in\n    tag_26:\n        /* \"#utility.yul\":849:919   */\n      swap3\n      pop\n        /* \"#utility.yul\":705:929   */\n      pop\n        /* \"#utility.yul\":692:693   */\n      0x01\n        /* \"#utility.yul\":689:690   */\n      dup2\n        /* \"#utility.yul\":685:694   */\n      add\n        /* \"#utility.yul\":680:694   */\n      swap1\n      pop\n        /* \"#utility.yul\":645:929   */\n      jump(tag_22)\n    tag_24:\n        /* \"#utility.yul\":649:663   */\n      pop\n        /* \"#utility.yul\":945:948   */\n      dup6\n        /* \"#utility.yul\":938:948   */\n      swap4\n      pop\n        /* \"#utility.yul\":346:954   */\n      pop\n      pop\n      pop\n        /* \"#utility.yul\":222:954   */\n      swap3\n      swap2\n      pop\n      pop\n      jump\t// out\n        /* \"#utility.yul\":960:1068   */\n    tag_13:\n        /* \"#utility.yul\":1037:1061   */\n      tag_29\n        /* \"#utility.yul\":1055:1060   */\n      dup2\n        /* \"#utility.yul\":1037:1061   */\n      tag_30\n      jump\t// in\n    tag_29:\n        /* \"#utility.yul\":1032:1035   */\n      dup3\n        /* \"#utility.yul\":1025:1062   */\n      mstore\n        /* \"#utility.yul\":960:1068   */\n      pop\n      pop\n      jump\t// out\n        /* \"#utility.yul\":1074:1447   */\n    tag_7:\n        /* \"#utility.yul\":1217:1221   */\n      0x00\n        /* \"#utility.yul\":1255:1257   */\n      0x20\n        /* \"#utility.yul\":1244:1253   */\n      dup3\n        /* \"#utility.yul\":1240:1258   */\n      add\n        /* \"#utility.yul\":1232:1258   */\n      swap1\n      pop\n        /* \"#utility.yul\":1304:1313   */\n      dup2\n        /* \"#utility.yul\":1298:1302   */\n      dup2\n        /* \"#utility.yul\":1294:1314   */\n      sub\n        /* \"#utility.yul\":1290:1291   */\n      0x00\n        /* \"#utility.yul\":1279:1288   */\n      dup4\n        /* \"#utility.yul\":1275:1292   */\n      add\n        /* \"#utility.yul\":1268:1315   */\n      mstore\n        /* \"#utility.yul\":1332:1440   */\n      tag_32\n        /* \"#utility.yul\":1435:1439   */\n      dup2\n        /* \"#utility.yul\":1426:1432   */\n      dup5\n        /* \"#utility.yul\":1332:1440   */\n      tag_14\n      jump\t// in\n    tag_32:\n        /* \"#utility.yul\":1324:1440   */\n      swap1\n      pop\n        /* \"#utility.yul\":1074:1447   */\n      swap3\n      swap2\n      pop\n      pop\n      jump\t// out\n        /* \"#utility.yul\":1453:1585   */\n    tag_21:\n        /* \"#utility.yul\":1520:1524   */\n      0x00\n        /* \"#utility.yul\":1543:1546   */\n      dup2\n        /* \"#utility.yul\":1535:1546   */\n      swap1\n      pop\n        /* \"#utility.yul\":1573:1577   */\n      0x20\n        /* \"#utility.yul\":1568:1571   */\n      dup3\n        /* \"#utility.yul\":1564:1578   */\n      add\n        /* \"#utility.yul\":1556:1578   */\n      swap1\n      pop\n        /* \"#utility.yul\":1453:1585   */\n      swap2\n      swap1\n      pop\n      jump\t// out\n        /* \"#utility.yul\":1591:1705   */\n    tag_17:\n        /* \"#utility.yul\":1658:1664   */\n      0x00\n        /* \"#utility.yul\":1692:1697   */\n      dup2\n        /* \"#utility.yul\":1686:1698   */\n      mload\n        /* \"#utility.yul\":1676:1698   */\n      swap1\n      pop\n        /* \"#utility.yul\":1591:1705   */\n      swap2\n      swap1\n      pop\n      jump\t// out\n        /* \"#utility.yul\":1711:1824   */\n    tag_27:\n        /* \"#utility.yul\":1781:1785   */\n      0x00\n        /* \"#utility.yul\":1813:1817   */\n      0x20\n        /* \"#utility.yul\":1808:1811   */\n      dup3\n        /* \"#utility.yul\":1804:1818   */\n      add\n        /* \"#utility.yul\":1796:1818   */\n      swap1\n      pop\n        /* \"#utility.yul\":1711:1824   */\n      swap2\n      swap1\n      pop\n      jump\t// out\n        /* \"#utility.yul\":1830:2014   */\n    tag_19:\n        /* \"#utility.yul\":1929:1940   */\n      0x00\n        /* \"#utility.yul\":1963:1969   */\n      dup3\n        /* \"#utility.yul\":1958:1961   */\n      dup3\n        /* \"#utility.yul\":1951:1970   */\n      mstore\n        /* \"#utility.yul\":2003:2007   */\n      0x20\n        /* \"#utility.yul\":1998:2001   */\n      dup3\n        /* \"#utility.yul\":1994:2008   */\n      add\n        /* \"#utility.yul\":1979:2008   */\n      swap1\n      pop\n        /* \"#utility.yul\":1830:2014   */\n      swap3\n      swap2\n      pop\n      pop\n      jump\t// out\n        /* \"#utility.yul\":2020:2097   */\n    tag_30:\n        /* \"#utility.yul\":2057:2064   */\n      0x00\n        /* \"#utility.yul\":2086:2091   */\n      dup2\n        /* \"#utility.yul\":2075:2091   */\n      swap1\n      pop\n        /* \"#utility.yul\":2020:2097   */\n      swap2\n      swap1\n      pop\n      jump\t// out\n\n    auxdata: 0xa264697066735822122038a436b62ce094950a62ef7db793a4fac0ef84338be345d72224882cac05d77c64736f6c63430008070033\n}\n",
				"bytecode": {
					"linkReferences": {},
					"object": "608060405234801561001057600080fd5b50610173806100206000396000f3fe608060405234801561001057600080fd5b506004361061002b5760003560e01c80639f4d545c14610030575b600080fd5b61003861004e565b60405161004591906100d8565b60405180910390f35b606090565b600061005f83836100c9565b60208301905092915050565b60006100768261010a565b6100808185610122565b935061008b836100fa565b8060005b838110156100bc5781516100a38882610053565b97506100ae83610115565b92505060018101905061008f565b5085935050505092915050565b6100d281610133565b82525050565b600060208201905081810360008301526100f2818461006b565b905092915050565b6000819050602082019050919050565b600081519050919050565b6000602082019050919050565b600082825260208201905092915050565b600081905091905056fea264697066735822122038a436b62ce094950a62ef7db793a4fac0ef84338be345d72224882cac05d77c64736f6c63430008070033",
					"opcodes": "PUSH1 0x80 PUSH1 0x40 MSTORE CALLVALUE DUP1 ISZERO PUSH2 0x10 JUMPI PUSH1 0x0 DUP1 REVERT JUMPDEST POP PUSH2 0x173 DUP1 PUSH2 0x20 PUSH1 0x0 CODECOPY PUSH1 0x0 RETURN INVALID PUSH1 0x80 PUSH1 0x40 MSTORE CALLVALUE DUP1 ISZERO PUSH2 0x10 JUMPI PUSH1 0x0 DUP1 REVERT JUMPDEST POP PUSH1 0x4 CALLDATASIZE LT PUSH2 0x2B JUMPI PUSH1 0x0 CALLDATALOAD PUSH1 0xE0 SHR DUP1 PUSH4 0x9F4D545C EQ PUSH2 0x30 JUMPI JUMPDEST PUSH1 0x0 DUP1 REVERT JUMPDEST PUSH2 0x38 PUSH2 0x4E JUMP JUMPDEST PUSH1 0x40 MLOAD PUSH2 0x45 SWAP2 SWAP1 PUSH2 0xD8 JUMP JUMPDEST PUSH1 0x40 MLOAD DUP1 SWAP2 SUB SWAP1 RETURN JUMPDEST PUSH1 0x60 SWAP1 JUMP JUMPDEST PUSH1 0x0 PUSH2 0x5F DUP4 DUP4 PUSH2 0xC9 JUMP JUMPDEST PUSH1 0x20 DUP4 ADD SWAP1 POP SWAP3 SWAP2 POP POP JUMP JUMPDEST PUSH1 0x0 PUSH2 0x76 DUP3 PUSH2 0x10A JUMP JUMPDEST PUSH2 0x80 DUP2 DUP6 PUSH2 0x122 JUMP JUMPDEST SWAP4 POP PUSH2 0x8B DUP4 PUSH2 0xFA JUMP JUMPDEST DUP1 PUSH1 0x0 JUMPDEST DUP4 DUP2 LT ISZERO PUSH2 0xBC JUMPI DUP2 MLOAD PUSH2 0xA3 DUP9 DUP3 PUSH2 0x53 JUMP JUMPDEST SWAP8 POP PUSH2 0xAE DUP4 PUSH2 0x115 JUMP JUMPDEST SWAP3 POP POP PUSH1 0x1 DUP2 ADD SWAP1 POP PUSH2 0x8F JUMP JUMPDEST POP DUP6 SWAP4 POP POP POP POP SWAP3 SWAP2 POP POP JUMP JUMPDEST PUSH2 0xD2 DUP2 PUSH2 0x133 JUMP JUMPDEST DUP3 MSTORE POP POP JUMP JUMPDEST PUSH1 0x0 PUSH1 0x20 DUP3 ADD SWAP1 POP DUP2 DUP2 SUB PUSH1 0x0 DUP4 ADD MSTORE PUSH2 0xF2 DUP2 DUP5 PUSH2 0x6B JUMP JUMPDEST SWAP1 POP SWAP3 SWAP2 POP POP JUMP JUMPDEST PUSH1 0x0 DUP2 SWAP1 POP PUSH1 0x20 DUP3 ADD SWAP1 POP SWAP2 SWAP1 POP JUMP JUMPDEST PUSH1 0x0 DUP2 MLOAD SWAP1 POP SWAP2 SWAP1 POP JUMP JUMPDEST PUSH1 0x0 PUSH1 0x20 DUP3 ADD SWAP1 POP SWAP2 SWAP1 POP JUMP JUMPDEST PUSH1 0x0 DUP3 DUP3 MSTORE PUSH1 0x20 DUP3 ADD SWAP1 POP SWAP3 SWAP2 POP POP JUMP JUMPDEST PUSH1 0x0 DUP2 SWAP1 POP SWAP2 SWAP1 POP JUMP INVALID LOG2 PUSH5 0x6970667358 0x22 SLT KECCAK256 CODESIZE LOG4 CALLDATASIZE 0xB6 0x2C 0xE0 SWAP5 SWAP6 EXP PUSH3 0xEF7DB7 SWAP4 LOG4 STATICCALL 0xC0 0xEF DUP5 CALLER DUP12 0xE3 GASLIMIT 0xD7 0x22 0x24 DUP9 0x2C 0xAC SDIV 0xD7 PUSH29 0x64736F6C63430008070033000000000000000000000000000000000000 "
				},
				"gasEstimates": {
					"creation": {
						"codeDepositCost": "74200",
						"executionCost": "123",
						"totalCost": "74323"
					},
					"external": {
						"Loop()": "infinite"
					}
				},
				"methodIdentifiers": {
					"Loop()": "9f4d545c"
				}
			},
			"storageLayout": {
				"storage": [
					{
						"astId": 4,
						"contract": "loop.sol:Looping",
						"label": "data",
						"offset": 0,
						"slot": "0",
						"type": "t_array(t_uint256)dyn_storage"
					}
				],
				"types": {
					"t_array(t_uint256)dyn_storage": {
						"base": "t_uint256",
						"encoding": "dynamic_array",
						"label": "uint256[]",
						"numberOfBytes": "32"
					},
					"t_uint256": {
						"encoding": "inplace",
						"label": "uint256",
						"numberOfBytes": "32"
					}
				}
			},
			"userdoc": {
				"kind": "user",
				"methods": {},
				"version": 1
			}
		}
	}
}