{
	"data": {
		"bytecode": {
			"linkReferences": {},
			"object": "608060405234801561001057600080fd5b5061081d806100206000396000f3fe608060405234801561001057600080fd5b50600436106100365760003560e01c806394ece3cb1461003b578063f9d56d651461006b575b600080fd5b6100556004803603810190610050919061031b565b610087565b60405161006291906103ff565b60405180910390f35b61008560048036038101906100809190610421565b610149565b005b606060008360405161009991906104e8565b9081526020016040518091039020600083815260200190815260200160002080546100c39061052e565b80601f01602080910402602001604051908101604052809291908181526020018280546100ef9061052e565b801561013c5780601f106101115761010080835404028352916020019161013c565b820191906000526020600020905b81548152906001019060200180831161011f57829003601f168201915b5050505050905092915050565b8060008460405161015a91906104e8565b9081526020016040518091039020600084815260200190815260200160002090816101859190610715565b50505050565b6000604051905090565b600080fd5b600080fd5b600080fd5b600080fd5b6000601f19601f8301169050919050565b7f4e487b7100000000000000000000000000000000000000000000000000000000600052604160045260246000fd5b6101f2826101a9565b810181811067ffffffffffffffff82111715610211576102106101ba565b5b80604052505050565b600061022461018b565b905061023082826101e9565b919050565b600067ffffffffffffffff8211156102505761024f6101ba565b5b610259826101a9565b9050602081019050919050565b82818337600083830152505050565b600061028861028384610235565b61021a565b9050828152602081018484840111156102a4576102a36101a4565b5b6102af848285610266565b509392505050565b600082601f8301126102cc576102cb61019f565b5b81356102dc848260208601610275565b91505092915050565b6000819050919050565b6102f8816102e5565b811461030357600080fd5b50565b600081359050610315816102ef565b92915050565b6000806040838503121561033257610331610195565b5b600083013567ffffffffffffffff8111156103505761034f61019a565b5b61035c858286016102b7565b925050602061036d85828601610306565b9150509250929050565b600081519050919050565b600082825260208201905092915050565b60005b838110156103b1578082015181840152602081019050610396565b838111156103c0576000848401525b50505050565b60006103d182610377565b6103db8185610382565b93506103eb818560208601610393565b6103f4816101a9565b840191505092915050565b6000602082019050818103600083015261041981846103c6565b905092915050565b60008060006060848603121561043a57610439610195565b5b600084013567ffffffffffffffff8111156104585761045761019a565b5b610464868287016102b7565b935050602061047586828701610306565b925050604084013567ffffffffffffffff8111156104965761049561019a565b5b6104a2868287016102b7565b9150509250925092565b600081905092915050565b60006104c282610377565b6104cc81856104ac565b93506104dc818560208601610393565b80840191505092915050565b60006104f482846104b7565b915081905092915050565b7f4e487b7100000000000000000000000000000000000000000000000000000000600052602260045260246000fd5b6000600282049050600182168061054657607f821691505b602082108103610559576105586104ff565b5b50919050565b60008190508160005260206000209050919050565b60006020601f8301049050919050565b600082821b905092915050565b6000600883026105c17fffffffffffffffffffffffffffffffffffffffffffffffffffffffffffffffff82610584565b6105cb8683610584565b95508019841693508086168417925050509392505050565b6000819050919050565b6000819050919050565b600061061261060d610608846105e3565b6105ed565b6105e3565b9050919050565b6000819050919050565b61062c836105f7565b61064061063882610619565b848454610591565b825550505050565b600090565b610655610648565b610660818484610623565b505050565b5b818110156106845761067960008261064d565b600181019050610666565b5050565b601f8211156106c95761069a8161055f565b6106a384610574565b810160208510156106b2578190505b6106c66106be85610574565b830182610665565b50505b505050565b600082821c905092915050565b60006106ec600019846008026106ce565b1980831691505092915050565b600061070583836106db565b9150826002028217905092915050565b61071e82610377565b67ffffffffffffffff811115610737576107366101ba565b5b610741825461052e565b61074c828285610688565b600060209050601f83116001811461077f576000841561076d578287015190505b61077785826106f9565b8655506107df565b601f19841661078d8661055f565b60005b828110156107b557848901518255600182019150602085019450602081019050610790565b868310156107d257848901516107ce601f8916826106db565b8355505b6001600288020188555050505b50505050505056fea26469706673582212202dfd5fd74ca7884fcde142491d7ec05b84e0a276c5bb7d72274446127d7cefcf64736f6c634300080f0033",
			"opcodes": "PUSH1 0x80 PUSH1 0x40 MSTORE CALLVALUE DUP1 ISZERO PUSH2 0x10 JUMPI PUSH1 0x0 DUP1 REVERT JUMPDEST POP PUSH2 0x81D DUP1 PUSH2 0x20 PUSH1 0x0 CODECOPY PUSH1 0x0 RETURN INVALID PUSH1 0x80 PUSH1 0x40 MSTORE CALLVALUE DUP1 ISZERO PUSH2 0x10 JUMPI PUSH1 0x0 DUP1 REVERT JUMPDEST POP PUSH1 0x4 CALLDATASIZE LT PUSH2 0x36 JUMPI PUSH1 0x0 CALLDATALOAD PUSH1 0xE0 SHR DUP1 PUSH4 0x94ECE3CB EQ PUSH2 0x3B JUMPI DUP1 PUSH4 0xF9D56D65 EQ PUSH2 0x6B JUMPI JUMPDEST PUSH1 0x0 DUP1 REVERT JUMPDEST PUSH2 0x55 PUSH1 0x4 DUP1 CALLDATASIZE SUB DUP2 ADD SWAP1 PUSH2 0x50 SWAP2 SWAP1 PUSH2 0x31B JUMP JUMPDEST PUSH2 0x87 JUMP JUMPDEST PUSH1 0x40 MLOAD PUSH2 0x62 SWAP2 SWAP1 PUSH2 0x3FF JUMP JUMPDEST PUSH1 0x40 MLOAD DUP1 SWAP2 SUB SWAP1 RETURN JUMPDEST PUSH2 0x85 PUSH1 0x4 DUP1 CALLDATASIZE SUB DUP2 ADD SWAP1 PUSH2 0x80 SWAP2 SWAP1 PUSH2 0x421 JUMP JUMPDEST PUSH2 0x149 JUMP JUMPDEST STOP JUMPDEST PUSH1 0x60 PUSH1 0x0 DUP4 PUSH1 0x40 MLOAD PUSH2 0x99 SWAP2 SWAP1 PUSH2 0x4E8 JUMP JUMPDEST SWAP1 DUP2 MSTORE PUSH1 0x20 ADD PUSH1 0x40 MLOAD DUP1 SWAP2 SUB SWAP1 KECCAK256 PUSH1 0x0 DUP4 DUP2 MSTORE PUSH1 0x20 ADD SWAP1 DUP2 MSTORE PUSH1 0x20 ADD PUSH1 0x0 KECCAK256 DUP1 SLOAD PUSH2 0xC3 SWAP1 PUSH2 0x52E JUMP JUMPDEST DUP1 PUSH1 0x1F ADD PUSH1 0x20 DUP1 SWAP2 DIV MUL PUSH1 0x20 ADD PUSH1 0x40 MLOAD SWAP1 DUP2 ADD PUSH1 0x40 MSTORE DUP1 SWAP3 SWAP2 SWAP1 DUP2 DUP2 MSTORE PUSH1 0x20 ADD DUP3 DUP1 SLOAD PUSH2 0xEF SWAP1 PUSH2 0x52E JUMP JUMPDEST DUP1 ISZERO PUSH2 0x13C JUMPI DUP1 PUSH1 0x1F LT PUSH2 0x111 JUMPI PUSH2 0x100 DUP1 DUP4 SLOAD DIV MUL DUP4 MSTORE SWAP2 PUSH1 0x20 ADD SWAP2 PUSH2 0x13C JUMP JUMPDEST DUP3 ADD SWAP2 SWAP1 PUSH1 0x0 MSTORE PUSH1 0x20 PUSH1 0x0 KECCAK256 SWAP1 JUMPDEST DUP2 SLOAD DUP2 MSTORE SWAP1 PUSH1 0x1 ADD SWAP1 PUSH1 0x20 ADD DUP1 DUP4 GT PUSH2 0x11F JUMPI DUP3 SWAP1 SUB PUSH1 0x1F AND DUP3 ADD SWAP2 JUMPDEST POP POP POP POP POP SWAP1 POP SWAP3 SWAP2 POP POP JUMP JUMPDEST DUP1 PUSH1 0x0 DUP5 PUSH1 0x40 MLOAD PUSH2 0x15A SWAP2 SWAP1 PUSH2 0x4E8 JUMP JUMPDEST SWAP1 DUP2 MSTORE PUSH1 0x20 ADD PUSH1 0x40 MLOAD DUP1 SWAP2 SUB SWAP1 KECCAK256 PUSH1 0x0 DUP5 DUP2 MSTORE PUSH1 0x20 ADD SWAP1 DUP2 MSTORE PUSH1 0x20 ADD PUSH1 0x0 KECCAK256 SWAP1 DUP2 PUSH2 0x185 SWAP2 SWAP1 PUSH2 0x715 JUMP JUMPDEST POP POP POP POP JUMP JUMPDEST PUSH1 0x0 PUSH1 0x40 MLOAD SWAP1 POP SWAP1 JUMP JUMPDEST PUSH1 0x0 DUP1 REVERT JUMPDEST PUSH1 0x0 DUP1 REVERT JUMPDEST PUSH1 0x0 DUP1 REVERT JUMPDEST PUSH1 0x0 DUP1 REVERT JUMPDEST PUSH1 0x0 PUSH1 0x1F NOT PUSH1 0x1F DUP4 ADD AND SWAP1 POP SWAP2 SWAP1 POP JUMP JUMPDEST PUSH32 0x4E487B7100000000000000000000000000000000000000000000000000000000 PUSH1 0x0 MSTORE PUSH1 0x41 PUSH1 0x4 MSTORE PUSH1 0x24 PUSH1 0x0 REVERT JUMPDEST PUSH2 0x1F2 DUP3 PUSH2 0x1A9 JUMP JUMPDEST DUP2 ADD DUP2 DUP2 LT PUSH8 0xFFFFFFFFFFFFFFFF DUP3 GT OR ISZERO PUSH2 0x211 JUMPI PUSH2 0x210 PUSH2 0x1BA JUMP JUMPDEST JUMPDEST DUP1 PUSH1 0x40 MSTORE POP POP POP JUMP JUMPDEST PUSH1 0x0 PUSH2 0x224 PUSH2 0x18B JUMP JUMPDEST SWAP1 POP PUSH2 0x230 DUP3 DUP3 PUSH2 0x1E9 JUMP JUMPDEST SWAP2 SWAP1 POP JUMP JUMPDEST PUSH1 0x0 PUSH8 0xFFFFFFFFFFFFFFFF DUP3 GT ISZERO PUSH2 0x250 JUMPI PUSH2 0x24F PUSH2 0x1BA JUMP JUMPDEST JUMPDEST PUSH2 0x259 DUP3 PUSH2 0x1A9 JUMP JUMPDEST SWAP1 POP PUSH1 0x20 DUP2 ADD SWAP1 POP SWAP2 SWAP1 POP JUMP JUMPDEST DUP3 DUP2 DUP4 CALLDATACOPY PUSH1 0x0 DUP4 DUP4 ADD MSTORE POP POP POP JUMP JUMPDEST PUSH1 0x0 PUSH2 0x288 PUSH2 0x283 DUP5 PUSH2 0x235 JUMP JUMPDEST PUSH2 0x21A JUMP JUMPDEST SWAP1 POP DUP3 DUP2 MSTORE PUSH1 0x20 DUP2 ADD DUP5 DUP5 DUP5 ADD GT ISZERO PUSH2 0x2A4 JUMPI PUSH2 0x2A3 PUSH2 0x1A4 JUMP JUMPDEST JUMPDEST PUSH2 0x2AF DUP5 DUP3 DUP6 PUSH2 0x266 JUMP JUMPDEST POP SWAP4 SWAP3 POP POP POP JUMP JUMPDEST PUSH1 0x0 DUP3 PUSH1 0x1F DUP4 ADD SLT PUSH2 0x2CC JUMPI PUSH2 0x2CB PUSH2 0x19F JUMP JUMPDEST JUMPDEST DUP2 CALLDATALOAD PUSH2 0x2DC DUP5 DUP3 PUSH1 0x20 DUP7 ADD PUSH2 0x275 JUMP JUMPDEST SWAP2 POP POP SWAP3 SWAP2 POP POP JUMP JUMPDEST PUSH1 0x0 DUP2 SWAP1 POP SWAP2 SWAP1 POP JUMP JUMPDEST PUSH2 0x2F8 DUP2 PUSH2 0x2E5 JUMP JUMPDEST DUP2 EQ PUSH2 0x303 JUMPI PUSH1 0x0 DUP1 REVERT JUMPDEST POP JUMP JUMPDEST PUSH1 0x0 DUP2 CALLDATALOAD SWAP1 POP PUSH2 0x315 DUP2 PUSH2 0x2EF JUMP JUMPDEST SWAP3 SWAP2 POP POP JUMP JUMPDEST PUSH1 0x0 DUP1 PUSH1 0x40 DUP4 DUP6 SUB SLT ISZERO PUSH2 0x332 JUMPI PUSH2 0x331 PUSH2 0x195 JUMP JUMPDEST JUMPDEST PUSH1 0x0 DUP4 ADD CALLDATALOAD PUSH8 0xFFFFFFFFFFFFFFFF DUP2 GT ISZERO PUSH2 0x350 JUMPI PUSH2 0x34F PUSH2 0x19A JUMP JUMPDEST JUMPDEST PUSH2 0x35C DUP6 DUP3 DUP7 ADD PUSH2 0x2B7 JUMP JUMPDEST SWAP3 POP POP PUSH1 0x20 PUSH2 0x36D DUP6 DUP3 DUP7 ADD PUSH2 0x306 JUMP JUMPDEST SWAP2 POP POP SWAP3 POP SWAP3 SWAP1 POP JUMP JUMPDEST PUSH1 0x0 DUP2 MLOAD SWAP1 POP SWAP2 SWAP1 POP JUMP JUMPDEST PUSH1 0x0 DUP3 DUP3 MSTORE PUSH1 0x20 DUP3 ADD SWAP1 POP SWAP3 SWAP2 POP POP JUMP JUMPDEST PUSH1 0x0 JUMPDEST DUP4 DUP2 LT ISZERO PUSH2 0x3B1 JUMPI DUP1 DUP3 ADD MLOAD DUP2 DUP5 ADD MSTORE PUSH1 0x20 DUP2 ADD SWAP1 POP PUSH2 0x396 JUMP JUMPDEST DUP4 DUP2 GT ISZERO PUSH2 0x3C0 JUMPI PUSH1 0x0 DUP5 DUP5 ADD MSTORE JUMPDEST POP POP POP POP JUMP JUMPDEST PUSH1 0x0 PUSH2 0x3D1 DUP3 PUSH2 0x377 JUMP JUMPDEST PUSH2 0x3DB DUP2 DUP6 PUSH2 0x382 JUMP JUMPDEST SWAP4 POP PUSH2 0x3EB DUP2 DUP6 PUSH1 0x20 DUP7 ADD PUSH2 0x393 JUMP JUMPDEST PUSH2 0x3F4 DUP2 PUSH2 0x1A9 JUMP JUMPDEST DUP5 ADD SWAP2 POP POP SWAP3 SWAP2 POP POP JUMP JUMPDEST PUSH1 0x0 PUSH1 0x20 DUP3 ADD SWAP1 POP DUP2 DUP2 SUB PUSH1 0x0 DUP4 ADD MSTORE PUSH2 0x419 DUP2 DUP5 PUSH2 0x3C6 JUMP JUMPDEST SWAP1 POP SWAP3 SWAP2 POP POP JUMP JUMPDEST PUSH1 0x0 DUP1 PUSH1 0x0 PUSH1 0x60 DUP5 DUP7 SUB SLT ISZERO PUSH2 0x43A JUMPI PUSH2 0x439 PUSH2 0x195 JUMP JUMPDEST JUMPDEST PUSH1 0x0 DUP5 ADD CALLDATALOAD PUSH8 0xFFFFFFFFFFFFFFFF DUP2 GT ISZERO PUSH2 0x458 JUMPI PUSH2 0x457 PUSH2 0x19A JUMP JUMPDEST JUMPDEST PUSH2 0x464 DUP7 DUP3 DUP8 ADD PUSH2 0x2B7 JUMP JUMPDEST SWAP4 POP POP PUSH1 0x20 PUSH2 0x475 DUP7 DUP3 DUP8 ADD PUSH2 0x306 JUMP JUMPDEST SWAP3 POP POP PUSH1 0x40 DUP5 ADD CALLDATALOAD PUSH8 0xFFFFFFFFFFFFFFFF DUP2 GT ISZERO PUSH2 0x496 JUMPI PUSH2 0x495 PUSH2 0x19A JUMP JUMPDEST JUMPDEST PUSH2 0x4A2 DUP7 DUP3 DUP8 ADD PUSH2 0x2B7 JUMP JUMPDEST SWAP2 POP POP SWAP3 POP SWAP3 POP SWAP3 JUMP JUMPDEST PUSH1 0x0 DUP2 SWAP1 POP SWAP3 SWAP2 POP POP JUMP JUMPDEST PUSH1 0x0 PUSH2 0x4C2 DUP3 PUSH2 0x377 JUMP JUMPDEST PUSH2 0x4CC DUP2 DUP6 PUSH2 0x4AC JUMP JUMPDEST SWAP4 POP PUSH2 0x4DC DUP2 DUP6 PUSH1 0x20 DUP7 ADD PUSH2 0x393 JUMP JUMPDEST DUP1 DUP5 ADD SWAP2 POP POP SWAP3 SWAP2 POP POP JUMP JUMPDEST PUSH1 0x0 PUSH2 0x4F4 DUP3 DUP5 PUSH2 0x4B7 JUMP JUMPDEST SWAP2 POP DUP2 SWAP1 POP SWAP3 SWAP2 POP POP JUMP JUMPDEST PUSH32 0x4E487B7100000000000000000000000000000000000000000000000000000000 PUSH1 0x0 MSTORE PUSH1 0x22 PUSH1 0x4 MSTORE PUSH1 0x24 PUSH1 0x0 REVERT JUMPDEST PUSH1 0x0 PUSH1 0x2 DUP3 DIV SWAP1 POP PUSH1 0x1 DUP3 AND DUP1 PUSH2 0x546 JUMPI PUSH1 0x7F DUP3 AND SWAP2 POP JUMPDEST PUSH1 0x20 DUP3 LT DUP2 SUB PUSH2 0x559 JUMPI PUSH2 0x558 PUSH2 0x4FF JUMP JUMPDEST JUMPDEST POP SWAP2 SWAP1 POP JUMP JUMPDEST PUSH1 0x0 DUP2 SWAP1 POP DUP2 PUSH1 0x0 MSTORE PUSH1 0x20 PUSH1 0x0 KECCAK256 SWAP1 POP SWAP2 SWAP1 POP JUMP JUMPDEST PUSH1 0x0 PUSH1 0x20 PUSH1 0x1F DUP4 ADD DIV SWAP1 POP SWAP2 SWAP1 POP JUMP JUMPDEST PUSH1 0x0 DUP3 DUP3 SHL SWAP1 POP SWAP3 SWAP2 POP POP JUMP JUMPDEST PUSH1 0x0 PUSH1 0x8 DUP4 MUL PUSH2 0x5C1 PUSH32 0xFFFFFFFFFFFFFFFFFFFFFFFFFFFFFFFFFFFFFFFFFFFFFFFFFFFFFFFFFFFFFFFF DUP3 PUSH2 0x584 JUMP JUMPDEST PUSH2 0x5CB DUP7 DUP4 PUSH2 0x584 JUMP JUMPDEST SWAP6 POP DUP1 NOT DUP5 AND SWAP4 POP DUP1 DUP7 AND DUP5 OR SWAP3 POP POP POP SWAP4 SWAP3 POP POP POP JUMP JUMPDEST PUSH1 0x0 DUP2 SWAP1 POP SWAP2 SWAP1 POP JUMP JUMPDEST PUSH1 0x0 DUP2 SWAP1 POP SWAP2 SWAP1 POP JUMP JUMPDEST PUSH1 0x0 PUSH2 0x612 PUSH2 0x60D PUSH2 0x608 DUP5 PUSH2 0x5E3 JUMP JUMPDEST PUSH2 0x5ED JUMP JUMPDEST PUSH2 0x5E3 JUMP JUMPDEST SWAP1 POP SWAP2 SWAP1 POP JUMP JUMPDEST PUSH1 0x0 DUP2 SWAP1 POP SWAP2 SWAP1 POP JUMP JUMPDEST PUSH2 0x62C DUP4 PUSH2 0x5F7 JUMP JUMPDEST PUSH2 0x640 PUSH2 0x638 DUP3 PUSH2 0x619 JUMP JUMPDEST DUP5 DUP5 SLOAD PUSH2 0x591 JUMP JUMPDEST DUP3 SSTORE POP POP POP POP JUMP JUMPDEST PUSH1 0x0 SWAP1 JUMP JUMPDEST PUSH2 0x655 PUSH2 0x648 JUMP JUMPDEST PUSH2 0x660 DUP2 DUP5 DUP5 PUSH2 0x623 JUMP JUMPDEST POP POP POP JUMP JUMPDEST JUMPDEST DUP2 DUP2 LT ISZERO PUSH2 0x684 JUMPI PUSH2 0x679 PUSH1 0x0 DUP3 PUSH2 0x64D JUMP JUMPDEST PUSH1 0x1 DUP2 ADD SWAP1 POP PUSH2 0x666 JUMP JUMPDEST POP POP JUMP JUMPDEST PUSH1 0x1F DUP3 GT ISZERO PUSH2 0x6C9 JUMPI PUSH2 0x69A DUP2 PUSH2 0x55F JUMP JUMPDEST PUSH2 0x6A3 DUP5 PUSH2 0x574 JUMP JUMPDEST DUP2 ADD PUSH1 0x20 DUP6 LT ISZERO PUSH2 0x6B2 JUMPI DUP2 SWAP1 POP JUMPDEST PUSH2 0x6C6 PUSH2 0x6BE DUP6 PUSH2 0x574 JUMP JUMPDEST DUP4 ADD DUP3 PUSH2 0x665 JUMP JUMPDEST POP POP JUMPDEST POP POP POP JUMP JUMPDEST PUSH1 0x0 DUP3 DUP3 SHR SWAP1 POP SWAP3 SWAP2 POP POP JUMP JUMPDEST PUSH1 0x0 PUSH2 0x6EC PUSH1 0x0 NOT DUP5 PUSH1 0x8 MUL PUSH2 0x6CE JUMP JUMPDEST NOT DUP1 DUP4 AND SWAP2 POP POP SWAP3 SWAP2 POP POP JUMP JUMPDEST PUSH1 0x0 PUSH2 0x705 DUP4 DUP4 PUSH2 0x6DB JUMP JUMPDEST SWAP2 POP DUP3 PUSH1 0x2 MUL DUP3 OR SWAP1 POP SWAP3 SWAP2 POP POP JUMP JUMPDEST PUSH2 0x71E DUP3 PUSH2 0x377 JUMP JUMPDEST PUSH8 0xFFFFFFFFFFFFFFFF DUP2 GT ISZERO PUSH2 0x737 JUMPI PUSH2 0x736 PUSH2 0x1BA JUMP JUMPDEST JUMPDEST PUSH2 0x741 DUP3 SLOAD PUSH2 0x52E JUMP JUMPDEST PUSH2 0x74C DUP3 DUP3 DUP6 PUSH2 0x688 JUMP JUMPDEST PUSH1 0x0 PUSH1 0x20 SWAP1 POP PUSH1 0x1F DUP4 GT PUSH1 0x1 DUP2 EQ PUSH2 0x77F JUMPI PUSH1 0x0 DUP5 ISZERO PUSH2 0x76D JUMPI DUP3 DUP8 ADD MLOAD SWAP1 POP JUMPDEST PUSH2 0x777 DUP6 DUP3 PUSH2 0x6F9 JUMP JUMPDEST DUP7 SSTORE POP PUSH2 0x7DF JUMP JUMPDEST PUSH1 0x1F NOT DUP5 AND PUSH2 0x78D DUP7 PUSH2 0x55F JUMP JUMPDEST PUSH1 0x0 JUMPDEST DUP3 DUP2 LT ISZERO PUSH2 0x7B5 JUMPI DUP5 DUP10 ADD MLOAD DUP3 SSTORE PUSH1 0x1 DUP3 ADD SWAP2 POP PUSH1 0x20 DUP6 ADD SWAP5 POP PUSH1 0x20 DUP2 ADD SWAP1 POP PUSH2 0x790 JUMP JUMPDEST DUP7 DUP4 LT ISZERO PUSH2 0x7D2 JUMPI DUP5 DUP10 ADD MLOAD PUSH2 0x7CE PUSH1 0x1F DUP10 AND DUP3 PUSH2 0x6DB JUMP JUMPDEST DUP4 SSTORE POP JUMPDEST PUSH1 0x1 PUSH1 0x2 DUP9 MUL ADD DUP9 SSTORE POP POP POP JUMPDEST POP POP POP POP POP POP JUMP INVALID LOG2 PUSH5 0x6970667358 0x22 SLT KECCAK256 0x2D REVERT 0x5F 0xD7 0x4C 0xA7 DUP9 0x4F 0xCD 0xE1 TIMESTAMP 0x49 SAR PUSH31 0xC05B84E0A276C5BB7D72274446127D7CEFCF64736F6C634300080F00330000 "
		},
		"gasEstimates": {
			"creation": {
				"codeDepositCost": "415400",
				"executionCost": "449",
				"totalCost": "415849"
			},
			"external": {
				"addCourse(string,int256,string)": "infinite",
				"findCourse(string,int256)": "infinite"
			}
		},
		"methodIdentifiers": {
			"addCourse(string,int256,string)": "f9d56d65",
			"findCourse(string,int256)": "94ece3cb"
		}
	},
	"abi": [
		{
			"inputs": [
				{
					"internalType": "string",
					"name": "rollNo",
					"type": "string"
				},
				{
					"internalType": "int256",
					"name": "counter",
					"type": "int256"
				},
				{
					"internalType": "string",
					"name": "course",
					"type": "string"
				}
			],
			"name": "addCourse",
			"outputs": [],
			"stateMutability": "nonpayable",
			"type": "function"
		},
		{
			"inputs": [
				{
					"internalType": "string",
					"name": "rollNo",
					"type": "string"
				},
				{
					"internalType": "int256",
					"name": "counter",
					"type": "int256"
				}
			],
			"name": "findCourse",
			"outputs": [
				{
					"internalType": "string",
					"name": "",
					"type": "string"
				}
			],
			"stateMutability": "view",
			"type": "function"
		}
	]
}