{
	"data": {
		"bytecode": {
			"linkReferences": {},
			"object": "608060405234801561001057600080fd5b506107a5806100206000396000f3fe608060405234801561001057600080fd5b506004361061002b5760003560e01c8063a2e6204514610030575b600080fd5b61003861004e565b6040516100459190610369565b60405180910390f35b60606040518060400160405280600281526020017f41490000000000000000000000000000000000000000000000000000000000008152506000604051610094906103e2565b908152602001604051809103902060006001815260200190815260200160002090816100c0919061063c565b506040518060400160405280600581526020017f436c6f75640000000000000000000000000000000000000000000000000000008152506000604051610105906103e2565b90815260200160405180910390206000600281526020019081526020016000209081610131919061063c565b506040518060400160405280600381526020017f494f54000000000000000000000000000000000000000000000000000000000081525060006040516101769061075a565b908152602001604051809103902060006001815260200190815260200160002090816101a2919061063c565b506040518060400160405280600a81526020017f426c6f636b636861696e0000000000000000000000000000000000000000000081525060006040516101e79061075a565b90815260200160405180910390206000600281526020019081526020016000209081610213919061063c565b5060006040516102229061075a565b9081526020016040518091039020600060018152602001908152602001600020805461024d90610455565b80601f016020809104026020016040519081016040528092919081815260200182805461027990610455565b80156102c65780601f1061029b576101008083540402835291602001916102c6565b820191906000526020600020905b8154815290600101906020018083116102a957829003601f168201915b5050505050905090565b600081519050919050565b600082825260208201905092915050565b60005b8381101561030a5780820151818401526020810190506102ef565b83811115610319576000848401525b50505050565b6000601f19601f8301169050919050565b600061033b826102d0565b61034581856102db565b93506103558185602086016102ec565b61035e8161031f565b840191505092915050565b600060208201905081810360008301526103838184610330565b905092915050565b600081905092915050565b7f5042493030310000000000000000000000000000000000000000000000000000600082015250565b60006103cc60068361038b565b91506103d782610396565b600682019050919050565b60006103ed826103bf565b9150819050919050565b7f4e487b7100000000000000000000000000000000000000000000000000000000600052604160045260246000fd5b7f4e487b7100000000000000000000000000000000000000000000000000000000600052602260045260246000fd5b6000600282049050600182168061046d57607f821691505b6020821081036104805761047f610426565b5b50919050565b60008190508160005260206000209050919050565b60006020601f8301049050919050565b600082821b905092915050565b6000600883026104e87fffffffffffffffffffffffffffffffffffffffffffffffffffffffffffffffff826104ab565b6104f286836104ab565b95508019841693508086168417925050509392505050565b6000819050919050565b6000819050919050565b600061053961053461052f8461050a565b610514565b61050a565b9050919050565b6000819050919050565b6105538361051e565b61056761055f82610540565b8484546104b8565b825550505050565b600090565b61057c61056f565b61058781848461054a565b505050565b5b818110156105ab576105a0600082610574565b60018101905061058d565b5050565b601f8211156105f0576105c181610486565b6105ca8461049b565b810160208510156105d9578190505b6105ed6105e58561049b565b83018261058c565b50505b505050565b600082821c905092915050565b6000610613600019846008026105f5565b1980831691505092915050565b600061062c8383610602565b9150826002028217905092915050565b610645826102d0565b67ffffffffffffffff81111561065e5761065d6103f7565b5b6106688254610455565b6106738282856105af565b600060209050601f8311600181146106a65760008415610694578287015190505b61069e8582610620565b865550610706565b601f1984166106b486610486565b60005b828110156106dc578489015182556001820191506020850194506020810190506106b7565b868310156106f957848901516106f5601f891682610602565b8355505b6001600288020188555050505b505050505050565b7f5042493032340000000000000000000000000000000000000000000000000000600082015250565b600061074460068361038b565b915061074f8261070e565b600682019050919050565b600061076582610737565b915081905091905056fea2646970667358221220c1450b307f9a0f5feee090a719d11632c931524cf60edef293482b7fe7eb290f64736f6c634300080f0033",
			"opcodes": "PUSH1 0x80 PUSH1 0x40 MSTORE CALLVALUE DUP1 ISZERO PUSH2 0x10 JUMPI PUSH1 0x0 DUP1 REVERT JUMPDEST POP PUSH2 0x7A5 DUP1 PUSH2 0x20 PUSH1 0x0 CODECOPY PUSH1 0x0 RETURN INVALID PUSH1 0x80 PUSH1 0x40 MSTORE CALLVALUE DUP1 ISZERO PUSH2 0x10 JUMPI PUSH1 0x0 DUP1 REVERT JUMPDEST POP PUSH1 0x4 CALLDATASIZE LT PUSH2 0x2B JUMPI PUSH1 0x0 CALLDATALOAD PUSH1 0xE0 SHR DUP1 PUSH4 0xA2E62045 EQ PUSH2 0x30 JUMPI JUMPDEST PUSH1 0x0 DUP1 REVERT JUMPDEST PUSH2 0x38 PUSH2 0x4E JUMP JUMPDEST PUSH1 0x40 MLOAD PUSH2 0x45 SWAP2 SWAP1 PUSH2 0x369 JUMP JUMPDEST PUSH1 0x40 MLOAD DUP1 SWAP2 SUB SWAP1 RETURN JUMPDEST PUSH1 0x60 PUSH1 0x40 MLOAD DUP1 PUSH1 0x40 ADD PUSH1 0x40 MSTORE DUP1 PUSH1 0x2 DUP2 MSTORE PUSH1 0x20 ADD PUSH32 0x4149000000000000000000000000000000000000000000000000000000000000 DUP2 MSTORE POP PUSH1 0x0 PUSH1 0x40 MLOAD PUSH2 0x94 SWAP1 PUSH2 0x3E2 JUMP JUMPDEST SWAP1 DUP2 MSTORE PUSH1 0x20 ADD PUSH1 0x40 MLOAD DUP1 SWAP2 SUB SWAP1 KECCAK256 PUSH1 0x0 PUSH1 0x1 DUP2 MSTORE PUSH1 0x20 ADD SWAP1 DUP2 MSTORE PUSH1 0x20 ADD PUSH1 0x0 KECCAK256 SWAP1 DUP2 PUSH2 0xC0 SWAP2 SWAP1 PUSH2 0x63C JUMP JUMPDEST POP PUSH1 0x40 MLOAD DUP1 PUSH1 0x40 ADD PUSH1 0x40 MSTORE DUP1 PUSH1 0x5 DUP2 MSTORE PUSH1 0x20 ADD PUSH32 0x436C6F7564000000000000000000000000000000000000000000000000000000 DUP2 MSTORE POP PUSH1 0x0 PUSH1 0x40 MLOAD PUSH2 0x105 SWAP1 PUSH2 0x3E2 JUMP JUMPDEST SWAP1 DUP2 MSTORE PUSH1 0x20 ADD PUSH1 0x40 MLOAD DUP1 SWAP2 SUB SWAP1 KECCAK256 PUSH1 0x0 PUSH1 0x2 DUP2 MSTORE PUSH1 0x20 ADD SWAP1 DUP2 MSTORE PUSH1 0x20 ADD PUSH1 0x0 KECCAK256 SWAP1 DUP2 PUSH2 0x131 SWAP2 SWAP1 PUSH2 0x63C JUMP JUMPDEST POP PUSH1 0x40 MLOAD DUP1 PUSH1 0x40 ADD PUSH1 0x40 MSTORE DUP1 PUSH1 0x3 DUP2 MSTORE PUSH1 0x20 ADD PUSH32 0x494F540000000000000000000000000000000000000000000000000000000000 DUP2 MSTORE POP PUSH1 0x0 PUSH1 0x40 MLOAD PUSH2 0x176 SWAP1 PUSH2 0x75A JUMP JUMPDEST SWAP1 DUP2 MSTORE PUSH1 0x20 ADD PUSH1 0x40 MLOAD DUP1 SWAP2 SUB SWAP1 KECCAK256 PUSH1 0x0 PUSH1 0x1 DUP2 MSTORE PUSH1 0x20 ADD SWAP1 DUP2 MSTORE PUSH1 0x20 ADD PUSH1 0x0 KECCAK256 SWAP1 DUP2 PUSH2 0x1A2 SWAP2 SWAP1 PUSH2 0x63C JUMP JUMPDEST POP PUSH1 0x40 MLOAD DUP1 PUSH1 0x40 ADD PUSH1 0x40 MSTORE DUP1 PUSH1 0xA DUP2 MSTORE PUSH1 0x20 ADD PUSH32 0x426C6F636B636861696E00000000000000000000000000000000000000000000 DUP2 MSTORE POP PUSH1 0x0 PUSH1 0x40 MLOAD PUSH2 0x1E7 SWAP1 PUSH2 0x75A JUMP JUMPDEST SWAP1 DUP2 MSTORE PUSH1 0x20 ADD PUSH1 0x40 MLOAD DUP1 SWAP2 SUB SWAP1 KECCAK256 PUSH1 0x0 PUSH1 0x2 DUP2 MSTORE PUSH1 0x20 ADD SWAP1 DUP2 MSTORE PUSH1 0x20 ADD PUSH1 0x0 KECCAK256 SWAP1 DUP2 PUSH2 0x213 SWAP2 SWAP1 PUSH2 0x63C JUMP JUMPDEST POP PUSH1 0x0 PUSH1 0x40 MLOAD PUSH2 0x222 SWAP1 PUSH2 0x75A JUMP JUMPDEST SWAP1 DUP2 MSTORE PUSH1 0x20 ADD PUSH1 0x40 MLOAD DUP1 SWAP2 SUB SWAP1 KECCAK256 PUSH1 0x0 PUSH1 0x1 DUP2 MSTORE PUSH1 0x20 ADD SWAP1 DUP2 MSTORE PUSH1 0x20 ADD PUSH1 0x0 KECCAK256 DUP1 SLOAD PUSH2 0x24D SWAP1 PUSH2 0x455 JUMP JUMPDEST DUP1 PUSH1 0x1F ADD PUSH1 0x20 DUP1 SWAP2 DIV MUL PUSH1 0x20 ADD PUSH1 0x40 MLOAD SWAP1 DUP2 ADD PUSH1 0x40 MSTORE DUP1 SWAP3 SWAP2 SWAP1 DUP2 DUP2 MSTORE PUSH1 0x20 ADD DUP3 DUP1 SLOAD PUSH2 0x279 SWAP1 PUSH2 0x455 JUMP JUMPDEST DUP1 ISZERO PUSH2 0x2C6 JUMPI DUP1 PUSH1 0x1F LT PUSH2 0x29B JUMPI PUSH2 0x100 DUP1 DUP4 SLOAD DIV MUL DUP4 MSTORE SWAP2 PUSH1 0x20 ADD SWAP2 PUSH2 0x2C6 JUMP JUMPDEST DUP3 ADD SWAP2 SWAP1 PUSH1 0x0 MSTORE PUSH1 0x20 PUSH1 0x0 KECCAK256 SWAP1 JUMPDEST DUP2 SLOAD DUP2 MSTORE SWAP1 PUSH1 0x1 ADD SWAP1 PUSH1 0x20 ADD DUP1 DUP4 GT PUSH2 0x2A9 JUMPI DUP3 SWAP1 SUB PUSH1 0x1F AND DUP3 ADD SWAP2 JUMPDEST POP POP POP POP POP SWAP1 POP SWAP1 JUMP JUMPDEST PUSH1 0x0 DUP2 MLOAD SWAP1 POP SWAP2 SWAP1 POP JUMP JUMPDEST PUSH1 0x0 DUP3 DUP3 MSTORE PUSH1 0x20 DUP3 ADD SWAP1 POP SWAP3 SWAP2 POP POP JUMP JUMPDEST PUSH1 0x0 JUMPDEST DUP4 DUP2 LT ISZERO PUSH2 0x30A JUMPI DUP1 DUP3 ADD MLOAD DUP2 DUP5 ADD MSTORE PUSH1 0x20 DUP2 ADD SWAP1 POP PUSH2 0x2EF JUMP JUMPDEST DUP4 DUP2 GT ISZERO PUSH2 0x319 JUMPI PUSH1 0x0 DUP5 DUP5 ADD MSTORE JUMPDEST POP POP POP POP JUMP JUMPDEST PUSH1 0x0 PUSH1 0x1F NOT PUSH1 0x1F DUP4 ADD AND SWAP1 POP SWAP2 SWAP1 POP JUMP JUMPDEST PUSH1 0x0 PUSH2 0x33B DUP3 PUSH2 0x2D0 JUMP JUMPDEST PUSH2 0x345 DUP2 DUP6 PUSH2 0x2DB JUMP JUMPDEST SWAP4 POP PUSH2 0x355 DUP2 DUP6 PUSH1 0x20 DUP7 ADD PUSH2 0x2EC JUMP JUMPDEST PUSH2 0x35E DUP2 PUSH2 0x31F JUMP JUMPDEST DUP5 ADD SWAP2 POP POP SWAP3 SWAP2 POP POP JUMP JUMPDEST PUSH1 0x0 PUSH1 0x20 DUP3 ADD SWAP1 POP DUP2 DUP2 SUB PUSH1 0x0 DUP4 ADD MSTORE PUSH2 0x383 DUP2 DUP5 PUSH2 0x330 JUMP JUMPDEST SWAP1 POP SWAP3 SWAP2 POP POP JUMP JUMPDEST PUSH1 0x0 DUP2 SWAP1 POP SWAP3 SWAP2 POP POP JUMP JUMPDEST PUSH32 0x5042493030310000000000000000000000000000000000000000000000000000 PUSH1 0x0 DUP3 ADD MSTORE POP JUMP JUMPDEST PUSH1 0x0 PUSH2 0x3CC PUSH1 0x6 DUP4 PUSH2 0x38B JUMP JUMPDEST SWAP2 POP PUSH2 0x3D7 DUP3 PUSH2 0x396 JUMP JUMPDEST PUSH1 0x6 DUP3 ADD SWAP1 POP SWAP2 SWAP1 POP JUMP JUMPDEST PUSH1 0x0 PUSH2 0x3ED DUP3 PUSH2 0x3BF JUMP JUMPDEST SWAP2 POP DUP2 SWAP1 POP SWAP2 SWAP1 POP JUMP JUMPDEST PUSH32 0x4E487B7100000000000000000000000000000000000000000000000000000000 PUSH1 0x0 MSTORE PUSH1 0x41 PUSH1 0x4 MSTORE PUSH1 0x24 PUSH1 0x0 REVERT JUMPDEST PUSH32 0x4E487B7100000000000000000000000000000000000000000000000000000000 PUSH1 0x0 MSTORE PUSH1 0x22 PUSH1 0x4 MSTORE PUSH1 0x24 PUSH1 0x0 REVERT JUMPDEST PUSH1 0x0 PUSH1 0x2 DUP3 DIV SWAP1 POP PUSH1 0x1 DUP3 AND DUP1 PUSH2 0x46D JUMPI PUSH1 0x7F DUP3 AND SWAP2 POP JUMPDEST PUSH1 0x20 DUP3 LT DUP2 SUB PUSH2 0x480 JUMPI PUSH2 0x47F PUSH2 0x426 JUMP JUMPDEST JUMPDEST POP SWAP2 SWAP1 POP JUMP JUMPDEST PUSH1 0x0 DUP2 SWAP1 POP DUP2 PUSH1 0x0 MSTORE PUSH1 0x20 PUSH1 0x0 KECCAK256 SWAP1 POP SWAP2 SWAP1 POP JUMP JUMPDEST PUSH1 0x0 PUSH1 0x20 PUSH1 0x1F DUP4 ADD DIV SWAP1 POP SWAP2 SWAP1 POP JUMP JUMPDEST PUSH1 0x0 DUP3 DUP3 SHL SWAP1 POP SWAP3 SWAP2 POP POP JUMP JUMPDEST PUSH1 0x0 PUSH1 0x8 DUP4 MUL PUSH2 0x4E8 PUSH32 0xFFFFFFFFFFFFFFFFFFFFFFFFFFFFFFFFFFFFFFFFFFFFFFFFFFFFFFFFFFFFFFFF DUP3 PUSH2 0x4AB JUMP JUMPDEST PUSH2 0x4F2 DUP7 DUP4 PUSH2 0x4AB JUMP JUMPDEST SWAP6 POP DUP1 NOT DUP5 AND SWAP4 POP DUP1 DUP7 AND DUP5 OR SWAP3 POP POP POP SWAP4 SWAP3 POP POP POP JUMP JUMPDEST PUSH1 0x0 DUP2 SWAP1 POP SWAP2 SWAP1 POP JUMP JUMPDEST PUSH1 0x0 DUP2 SWAP1 POP SWAP2 SWAP1 POP JUMP JUMPDEST PUSH1 0x0 PUSH2 0x539 PUSH2 0x534 PUSH2 0x52F DUP5 PUSH2 0x50A JUMP JUMPDEST PUSH2 0x514 JUMP JUMPDEST PUSH2 0x50A JUMP JUMPDEST SWAP1 POP SWAP2 SWAP1 POP JUMP JUMPDEST PUSH1 0x0 DUP2 SWAP1 POP SWAP2 SWAP1 POP JUMP JUMPDEST PUSH2 0x553 DUP4 PUSH2 0x51E JUMP JUMPDEST PUSH2 0x567 PUSH2 0x55F DUP3 PUSH2 0x540 JUMP JUMPDEST DUP5 DUP5 SLOAD PUSH2 0x4B8 JUMP JUMPDEST DUP3 SSTORE POP POP POP POP JUMP JUMPDEST PUSH1 0x0 SWAP1 JUMP JUMPDEST PUSH2 0x57C PUSH2 0x56F JUMP JUMPDEST PUSH2 0x587 DUP2 DUP5 DUP5 PUSH2 0x54A JUMP JUMPDEST POP POP POP JUMP JUMPDEST JUMPDEST DUP2 DUP2 LT ISZERO PUSH2 0x5AB JUMPI PUSH2 0x5A0 PUSH1 0x0 DUP3 PUSH2 0x574 JUMP JUMPDEST PUSH1 0x1 DUP2 ADD SWAP1 POP PUSH2 0x58D JUMP JUMPDEST POP POP JUMP JUMPDEST PUSH1 0x1F DUP3 GT ISZERO PUSH2 0x5F0 JUMPI PUSH2 0x5C1 DUP2 PUSH2 0x486 JUMP JUMPDEST PUSH2 0x5CA DUP5 PUSH2 0x49B JUMP JUMPDEST DUP2 ADD PUSH1 0x20 DUP6 LT ISZERO PUSH2 0x5D9 JUMPI DUP2 SWAP1 POP JUMPDEST PUSH2 0x5ED PUSH2 0x5E5 DUP6 PUSH2 0x49B JUMP JUMPDEST DUP4 ADD DUP3 PUSH2 0x58C JUMP JUMPDEST POP POP JUMPDEST POP POP POP JUMP JUMPDEST PUSH1 0x0 DUP3 DUP3 SHR SWAP1 POP SWAP3 SWAP2 POP POP JUMP JUMPDEST PUSH1 0x0 PUSH2 0x613 PUSH1 0x0 NOT DUP5 PUSH1 0x8 MUL PUSH2 0x5F5 JUMP JUMPDEST NOT DUP1 DUP4 AND SWAP2 POP POP SWAP3 SWAP2 POP POP JUMP JUMPDEST PUSH1 0x0 PUSH2 0x62C DUP4 DUP4 PUSH2 0x602 JUMP JUMPDEST SWAP2 POP DUP3 PUSH1 0x2 MUL DUP3 OR SWAP1 POP SWAP3 SWAP2 POP POP JUMP JUMPDEST PUSH2 0x645 DUP3 PUSH2 0x2D0 JUMP JUMPDEST PUSH8 0xFFFFFFFFFFFFFFFF DUP2 GT ISZERO PUSH2 0x65E JUMPI PUSH2 0x65D PUSH2 0x3F7 JUMP JUMPDEST JUMPDEST PUSH2 0x668 DUP3 SLOAD PUSH2 0x455 JUMP JUMPDEST PUSH2 0x673 DUP3 DUP3 DUP6 PUSH2 0x5AF JUMP JUMPDEST PUSH1 0x0 PUSH1 0x20 SWAP1 POP PUSH1 0x1F DUP4 GT PUSH1 0x1 DUP2 EQ PUSH2 0x6A6 JUMPI PUSH1 0x0 DUP5 ISZERO PUSH2 0x694 JUMPI DUP3 DUP8 ADD MLOAD SWAP1 POP JUMPDEST PUSH2 0x69E DUP6 DUP3 PUSH2 0x620 JUMP JUMPDEST DUP7 SSTORE POP PUSH2 0x706 JUMP JUMPDEST PUSH1 0x1F NOT DUP5 AND PUSH2 0x6B4 DUP7 PUSH2 0x486 JUMP JUMPDEST PUSH1 0x0 JUMPDEST DUP3 DUP2 LT ISZERO PUSH2 0x6DC JUMPI DUP5 DUP10 ADD MLOAD DUP3 SSTORE PUSH1 0x1 DUP3 ADD SWAP2 POP PUSH1 0x20 DUP6 ADD SWAP5 POP PUSH1 0x20 DUP2 ADD SWAP1 POP PUSH2 0x6B7 JUMP JUMPDEST DUP7 DUP4 LT ISZERO PUSH2 0x6F9 JUMPI DUP5 DUP10 ADD MLOAD PUSH2 0x6F5 PUSH1 0x1F DUP10 AND DUP3 PUSH2 0x602 JUMP JUMPDEST DUP4 SSTORE POP JUMPDEST PUSH1 0x1 PUSH1 0x2 DUP9 MUL ADD DUP9 SSTORE POP POP POP JUMPDEST POP POP POP POP POP POP JUMP JUMPDEST PUSH32 0x5042493032340000000000000000000000000000000000000000000000000000 PUSH1 0x0 DUP3 ADD MSTORE POP JUMP JUMPDEST PUSH1 0x0 PUSH2 0x744 PUSH1 0x6 DUP4 PUSH2 0x38B JUMP JUMPDEST SWAP2 POP PUSH2 0x74F DUP3 PUSH2 0x70E JUMP JUMPDEST PUSH1 0x6 DUP3 ADD SWAP1 POP SWAP2 SWAP1 POP JUMP JUMPDEST PUSH1 0x0 PUSH2 0x765 DUP3 PUSH2 0x737 JUMP JUMPDEST SWAP2 POP DUP2 SWAP1 POP SWAP2 SWAP1 POP JUMP INVALID LOG2 PUSH5 0x6970667358 0x22 SLT KECCAK256 0xC1 GASLIMIT SIGNEXTEND ADDRESS PUSH32 0x9A0F5FEEE090A719D11632C931524CF60EDEF293482B7FE7EB290F64736F6C63 NUMBER STOP ADDMOD 0xF STOP CALLER "
		},
		"gasEstimates": {
			"creation": {
				"codeDepositCost": "391400",
				"executionCost": "430",
				"totalCost": "391830"
			},
			"external": {
				"update()": "infinite"
			}
		},
		"methodIdentifiers": {
			"update()": "a2e62045"
		}
	},
	"abi": [
		{
			"inputs": [],
			"name": "update",
			"outputs": [
				{
					"internalType": "string",
					"name": "",
					"type": "string"
				}
			],
			"stateMutability": "nonpayable",
			"type": "function"
		}
	]
}