{
	"data": {
		"bytecode": {
			"linkReferences": {},
			"object": "608060405234801561001057600080fd5b50610606806100206000396000f3fe608060405234801561001057600080fd5b506004361061002b5760003560e01c8063b1405b5814610030575b600080fd5b61004a60048036038101906100459190610248565b61004c565b005b604051806060016040528084815260200183815260200182815250600080868152602001908152602001600020600082015181600001908161008e91906104fe565b506020820151816001015560408201518160020190816100ae91906104fe565b5090505050505050565b6000604051905090565b600080fd5b600080fd5b6000819050919050565b6100df816100cc565b81146100ea57600080fd5b50565b6000813590506100fc816100d6565b92915050565b600080fd5b600080fd5b6000601f19601f8301169050919050565b7f4e487b7100000000000000000000000000000000000000000000000000000000600052604160045260246000fd5b6101558261010c565b810181811067ffffffffffffffff821117156101745761017361011d565b5b80604052505050565b60006101876100b8565b9050610193828261014c565b919050565b600067ffffffffffffffff8211156101b3576101b261011d565b5b6101bc8261010c565b9050602081019050919050565b82818337600083830152505050565b60006101eb6101e684610198565b61017d565b90508281526020810184848401111561020757610206610107565b5b6102128482856101c9565b509392505050565b600082601f83011261022f5761022e610102565b5b813561023f8482602086016101d8565b91505092915050565b60008060008060808587031215610262576102616100c2565b5b6000610270878288016100ed565b945050602085013567ffffffffffffffff811115610291576102906100c7565b5b61029d8782880161021a565b93505060406102ae878288016100ed565b925050606085013567ffffffffffffffff8111156102cf576102ce6100c7565b5b6102db8782880161021a565b91505092959194509250565b600081519050919050565b7f4e487b7100000000000000000000000000000000000000000000000000000000600052602260045260246000fd5b6000600282049050600182168061033957607f821691505b60208210810361034c5761034b6102f2565b5b50919050565b60008190508160005260206000209050919050565b60006020601f8301049050919050565b600082821b905092915050565b6000600883026103b47fffffffffffffffffffffffffffffffffffffffffffffffffffffffffffffffff82610377565b6103be8683610377565b95508019841693508086168417925050509392505050565b6000819050919050565b60006103fb6103f66103f1846100cc565b6103d6565b6100cc565b9050919050565b6000819050919050565b610415836103e0565b61042961042182610402565b848454610384565b825550505050565b600090565b61043e610431565b61044981848461040c565b505050565b5b8181101561046d57610462600082610436565b60018101905061044f565b5050565b601f8211156104b25761048381610352565b61048c84610367565b8101602085101561049b578190505b6104af6104a785610367565b83018261044e565b50505b505050565b600082821c905092915050565b60006104d5600019846008026104b7565b1980831691505092915050565b60006104ee83836104c4565b9150826002028217905092915050565b610507826102e7565b67ffffffffffffffff8111156105205761051f61011d565b5b61052a8254610321565b610535828285610471565b600060209050601f8311600181146105685760008415610556578287015190505b61056085826104e2565b8655506105c8565b601f19841661057686610352565b60005b8281101561059e57848901518255600182019150602085019450602081019050610579565b868310156105bb57848901516105b7601f8916826104c4565b8355505b6001600288020188555050505b50505050505056fea2646970667358221220ca93f8ecfa7ecdb39700cf20dafe276ea184115538aab5f5038deef30e03d3eb64736f6c634300080f0033",
			"opcodes": "PUSH1 0x80 PUSH1 0x40 MSTORE CALLVALUE DUP1 ISZERO PUSH2 0x10 JUMPI PUSH1 0x0 DUP1 REVERT JUMPDEST POP PUSH2 0x606 DUP1 PUSH2 0x20 PUSH1 0x0 CODECOPY PUSH1 0x0 RETURN INVALID PUSH1 0x80 PUSH1 0x40 MSTORE CALLVALUE DUP1 ISZERO PUSH2 0x10 JUMPI PUSH1 0x0 DUP1 REVERT JUMPDEST POP PUSH1 0x4 CALLDATASIZE LT PUSH2 0x2B JUMPI PUSH1 0x0 CALLDATALOAD PUSH1 0xE0 SHR DUP1 PUSH4 0xB1405B58 EQ PUSH2 0x30 JUMPI JUMPDEST PUSH1 0x0 DUP1 REVERT JUMPDEST PUSH2 0x4A PUSH1 0x4 DUP1 CALLDATASIZE SUB DUP2 ADD SWAP1 PUSH2 0x45 SWAP2 SWAP1 PUSH2 0x248 JUMP JUMPDEST PUSH2 0x4C JUMP JUMPDEST STOP JUMPDEST PUSH1 0x40 MLOAD DUP1 PUSH1 0x60 ADD PUSH1 0x40 MSTORE DUP1 DUP5 DUP2 MSTORE PUSH1 0x20 ADD DUP4 DUP2 MSTORE PUSH1 0x20 ADD DUP3 DUP2 MSTORE POP PUSH1 0x0 DUP1 DUP7 DUP2 MSTORE PUSH1 0x20 ADD SWAP1 DUP2 MSTORE PUSH1 0x20 ADD PUSH1 0x0 KECCAK256 PUSH1 0x0 DUP3 ADD MLOAD DUP2 PUSH1 0x0 ADD SWAP1 DUP2 PUSH2 0x8E SWAP2 SWAP1 PUSH2 0x4FE JUMP JUMPDEST POP PUSH1 0x20 DUP3 ADD MLOAD DUP2 PUSH1 0x1 ADD SSTORE PUSH1 0x40 DUP3 ADD MLOAD DUP2 PUSH1 0x2 ADD SWAP1 DUP2 PUSH2 0xAE SWAP2 SWAP1 PUSH2 0x4FE JUMP JUMPDEST POP SWAP1 POP POP POP POP POP POP JUMP JUMPDEST PUSH1 0x0 PUSH1 0x40 MLOAD SWAP1 POP SWAP1 JUMP JUMPDEST PUSH1 0x0 DUP1 REVERT JUMPDEST PUSH1 0x0 DUP1 REVERT JUMPDEST PUSH1 0x0 DUP2 SWAP1 POP SWAP2 SWAP1 POP JUMP JUMPDEST PUSH2 0xDF DUP2 PUSH2 0xCC JUMP JUMPDEST DUP2 EQ PUSH2 0xEA JUMPI PUSH1 0x0 DUP1 REVERT JUMPDEST POP JUMP JUMPDEST PUSH1 0x0 DUP2 CALLDATALOAD SWAP1 POP PUSH2 0xFC DUP2 PUSH2 0xD6 JUMP JUMPDEST SWAP3 SWAP2 POP POP JUMP JUMPDEST PUSH1 0x0 DUP1 REVERT JUMPDEST PUSH1 0x0 DUP1 REVERT JUMPDEST PUSH1 0x0 PUSH1 0x1F NOT PUSH1 0x1F DUP4 ADD AND SWAP1 POP SWAP2 SWAP1 POP JUMP JUMPDEST PUSH32 0x4E487B7100000000000000000000000000000000000000000000000000000000 PUSH1 0x0 MSTORE PUSH1 0x41 PUSH1 0x4 MSTORE PUSH1 0x24 PUSH1 0x0 REVERT JUMPDEST PUSH2 0x155 DUP3 PUSH2 0x10C JUMP JUMPDEST DUP2 ADD DUP2 DUP2 LT PUSH8 0xFFFFFFFFFFFFFFFF DUP3 GT OR ISZERO PUSH2 0x174 JUMPI PUSH2 0x173 PUSH2 0x11D JUMP JUMPDEST JUMPDEST DUP1 PUSH1 0x40 MSTORE POP POP POP JUMP JUMPDEST PUSH1 0x0 PUSH2 0x187 PUSH2 0xB8 JUMP JUMPDEST SWAP1 POP PUSH2 0x193 DUP3 DUP3 PUSH2 0x14C JUMP JUMPDEST SWAP2 SWAP1 POP JUMP JUMPDEST PUSH1 0x0 PUSH8 0xFFFFFFFFFFFFFFFF DUP3 GT ISZERO PUSH2 0x1B3 JUMPI PUSH2 0x1B2 PUSH2 0x11D JUMP JUMPDEST JUMPDEST PUSH2 0x1BC DUP3 PUSH2 0x10C JUMP JUMPDEST SWAP1 POP PUSH1 0x20 DUP2 ADD SWAP1 POP SWAP2 SWAP1 POP JUMP JUMPDEST DUP3 DUP2 DUP4 CALLDATACOPY PUSH1 0x0 DUP4 DUP4 ADD MSTORE POP POP POP JUMP JUMPDEST PUSH1 0x0 PUSH2 0x1EB PUSH2 0x1E6 DUP5 PUSH2 0x198 JUMP JUMPDEST PUSH2 0x17D JUMP JUMPDEST SWAP1 POP DUP3 DUP2 MSTORE PUSH1 0x20 DUP2 ADD DUP5 DUP5 DUP5 ADD GT ISZERO PUSH2 0x207 JUMPI PUSH2 0x206 PUSH2 0x107 JUMP JUMPDEST JUMPDEST PUSH2 0x212 DUP5 DUP3 DUP6 PUSH2 0x1C9 JUMP JUMPDEST POP SWAP4 SWAP3 POP POP POP JUMP JUMPDEST PUSH1 0x0 DUP3 PUSH1 0x1F DUP4 ADD SLT PUSH2 0x22F JUMPI PUSH2 0x22E PUSH2 0x102 JUMP JUMPDEST JUMPDEST DUP2 CALLDATALOAD PUSH2 0x23F DUP5 DUP3 PUSH1 0x20 DUP7 ADD PUSH2 0x1D8 JUMP JUMPDEST SWAP2 POP POP SWAP3 SWAP2 POP POP JUMP JUMPDEST PUSH1 0x0 DUP1 PUSH1 0x0 DUP1 PUSH1 0x80 DUP6 DUP8 SUB SLT ISZERO PUSH2 0x262 JUMPI PUSH2 0x261 PUSH2 0xC2 JUMP JUMPDEST JUMPDEST PUSH1 0x0 PUSH2 0x270 DUP8 DUP3 DUP9 ADD PUSH2 0xED JUMP JUMPDEST SWAP5 POP POP PUSH1 0x20 DUP6 ADD CALLDATALOAD PUSH8 0xFFFFFFFFFFFFFFFF DUP2 GT ISZERO PUSH2 0x291 JUMPI PUSH2 0x290 PUSH2 0xC7 JUMP JUMPDEST JUMPDEST PUSH2 0x29D DUP8 DUP3 DUP9 ADD PUSH2 0x21A JUMP JUMPDEST SWAP4 POP POP PUSH1 0x40 PUSH2 0x2AE DUP8 DUP3 DUP9 ADD PUSH2 0xED JUMP JUMPDEST SWAP3 POP POP PUSH1 0x60 DUP6 ADD CALLDATALOAD PUSH8 0xFFFFFFFFFFFFFFFF DUP2 GT ISZERO PUSH2 0x2CF JUMPI PUSH2 0x2CE PUSH2 0xC7 JUMP JUMPDEST JUMPDEST PUSH2 0x2DB DUP8 DUP3 DUP9 ADD PUSH2 0x21A JUMP JUMPDEST SWAP2 POP POP SWAP3 SWAP6 SWAP2 SWAP5 POP SWAP3 POP JUMP JUMPDEST PUSH1 0x0 DUP2 MLOAD SWAP1 POP SWAP2 SWAP1 POP JUMP JUMPDEST PUSH32 0x4E487B7100000000000000000000000000000000000000000000000000000000 PUSH1 0x0 MSTORE PUSH1 0x22 PUSH1 0x4 MSTORE PUSH1 0x24 PUSH1 0x0 REVERT JUMPDEST PUSH1 0x0 PUSH1 0x2 DUP3 DIV SWAP1 POP PUSH1 0x1 DUP3 AND DUP1 PUSH2 0x339 JUMPI PUSH1 0x7F DUP3 AND SWAP2 POP JUMPDEST PUSH1 0x20 DUP3 LT DUP2 SUB PUSH2 0x34C JUMPI PUSH2 0x34B PUSH2 0x2F2 JUMP JUMPDEST JUMPDEST POP SWAP2 SWAP1 POP JUMP JUMPDEST PUSH1 0x0 DUP2 SWAP1 POP DUP2 PUSH1 0x0 MSTORE PUSH1 0x20 PUSH1 0x0 KECCAK256 SWAP1 POP SWAP2 SWAP1 POP JUMP JUMPDEST PUSH1 0x0 PUSH1 0x20 PUSH1 0x1F DUP4 ADD DIV SWAP1 POP SWAP2 SWAP1 POP JUMP JUMPDEST PUSH1 0x0 DUP3 DUP3 SHL SWAP1 POP SWAP3 SWAP2 POP POP JUMP JUMPDEST PUSH1 0x0 PUSH1 0x8 DUP4 MUL PUSH2 0x3B4 PUSH32 0xFFFFFFFFFFFFFFFFFFFFFFFFFFFFFFFFFFFFFFFFFFFFFFFFFFFFFFFFFFFFFFFF DUP3 PUSH2 0x377 JUMP JUMPDEST PUSH2 0x3BE DUP7 DUP4 PUSH2 0x377 JUMP JUMPDEST SWAP6 POP DUP1 NOT DUP5 AND SWAP4 POP DUP1 DUP7 AND DUP5 OR SWAP3 POP POP POP SWAP4 SWAP3 POP POP POP JUMP JUMPDEST PUSH1 0x0 DUP2 SWAP1 POP SWAP2 SWAP1 POP JUMP JUMPDEST PUSH1 0x0 PUSH2 0x3FB PUSH2 0x3F6 PUSH2 0x3F1 DUP5 PUSH2 0xCC JUMP JUMPDEST PUSH2 0x3D6 JUMP JUMPDEST PUSH2 0xCC JUMP JUMPDEST SWAP1 POP SWAP2 SWAP1 POP JUMP JUMPDEST PUSH1 0x0 DUP2 SWAP1 POP SWAP2 SWAP1 POP JUMP JUMPDEST PUSH2 0x415 DUP4 PUSH2 0x3E0 JUMP JUMPDEST PUSH2 0x429 PUSH2 0x421 DUP3 PUSH2 0x402 JUMP JUMPDEST DUP5 DUP5 SLOAD PUSH2 0x384 JUMP JUMPDEST DUP3 SSTORE POP POP POP POP JUMP JUMPDEST PUSH1 0x0 SWAP1 JUMP JUMPDEST PUSH2 0x43E PUSH2 0x431 JUMP JUMPDEST PUSH2 0x449 DUP2 DUP5 DUP5 PUSH2 0x40C JUMP JUMPDEST POP POP POP JUMP JUMPDEST JUMPDEST DUP2 DUP2 LT ISZERO PUSH2 0x46D JUMPI PUSH2 0x462 PUSH1 0x0 DUP3 PUSH2 0x436 JUMP JUMPDEST PUSH1 0x1 DUP2 ADD SWAP1 POP PUSH2 0x44F JUMP JUMPDEST POP POP JUMP JUMPDEST PUSH1 0x1F DUP3 GT ISZERO PUSH2 0x4B2 JUMPI PUSH2 0x483 DUP2 PUSH2 0x352 JUMP JUMPDEST PUSH2 0x48C DUP5 PUSH2 0x367 JUMP JUMPDEST DUP2 ADD PUSH1 0x20 DUP6 LT ISZERO PUSH2 0x49B JUMPI DUP2 SWAP1 POP JUMPDEST PUSH2 0x4AF PUSH2 0x4A7 DUP6 PUSH2 0x367 JUMP JUMPDEST DUP4 ADD DUP3 PUSH2 0x44E JUMP JUMPDEST POP POP JUMPDEST POP POP POP JUMP JUMPDEST PUSH1 0x0 DUP3 DUP3 SHR SWAP1 POP SWAP3 SWAP2 POP POP JUMP JUMPDEST PUSH1 0x0 PUSH2 0x4D5 PUSH1 0x0 NOT DUP5 PUSH1 0x8 MUL PUSH2 0x4B7 JUMP JUMPDEST NOT DUP1 DUP4 AND SWAP2 POP POP SWAP3 SWAP2 POP POP JUMP JUMPDEST PUSH1 0x0 PUSH2 0x4EE DUP4 DUP4 PUSH2 0x4C4 JUMP JUMPDEST SWAP2 POP DUP3 PUSH1 0x2 MUL DUP3 OR SWAP1 POP SWAP3 SWAP2 POP POP JUMP JUMPDEST PUSH2 0x507 DUP3 PUSH2 0x2E7 JUMP JUMPDEST PUSH8 0xFFFFFFFFFFFFFFFF DUP2 GT ISZERO PUSH2 0x520 JUMPI PUSH2 0x51F PUSH2 0x11D JUMP JUMPDEST JUMPDEST PUSH2 0x52A DUP3 SLOAD PUSH2 0x321 JUMP JUMPDEST PUSH2 0x535 DUP3 DUP3 DUP6 PUSH2 0x471 JUMP JUMPDEST PUSH1 0x0 PUSH1 0x20 SWAP1 POP PUSH1 0x1F DUP4 GT PUSH1 0x1 DUP2 EQ PUSH2 0x568 JUMPI PUSH1 0x0 DUP5 ISZERO PUSH2 0x556 JUMPI DUP3 DUP8 ADD MLOAD SWAP1 POP JUMPDEST PUSH2 0x560 DUP6 DUP3 PUSH2 0x4E2 JUMP JUMPDEST DUP7 SSTORE POP PUSH2 0x5C8 JUMP JUMPDEST PUSH1 0x1F NOT DUP5 AND PUSH2 0x576 DUP7 PUSH2 0x352 JUMP JUMPDEST PUSH1 0x0 JUMPDEST DUP3 DUP2 LT ISZERO PUSH2 0x59E JUMPI DUP5 DUP10 ADD MLOAD DUP3 SSTORE PUSH1 0x1 DUP3 ADD SWAP2 POP PUSH1 0x20 DUP6 ADD SWAP5 POP PUSH1 0x20 DUP2 ADD SWAP1 POP PUSH2 0x579 JUMP JUMPDEST DUP7 DUP4 LT ISZERO PUSH2 0x5BB JUMPI DUP5 DUP10 ADD MLOAD PUSH2 0x5B7 PUSH1 0x1F DUP10 AND DUP3 PUSH2 0x4C4 JUMP JUMPDEST DUP4 SSTORE POP JUMPDEST PUSH1 0x1 PUSH1 0x2 DUP9 MUL ADD DUP9 SSTORE POP POP POP JUMPDEST POP POP POP POP POP POP JUMP INVALID LOG2 PUSH5 0x6970667358 0x22 SLT KECCAK256 0xCA SWAP4 0xF8 0xEC STATICCALL PUSH31 0xCDB39700CF20DAFE276EA184115538AAB5F5038DEEF30E03D3EB64736F6C63 NUMBER STOP ADDMOD 0xF STOP CALLER "
		},
		"gasEstimates": {
			"creation": {
				"codeDepositCost": "308400",
				"executionCost": "349",
				"totalCost": "308749"
			},
			"external": {
				"set(uint256,string,uint256,string)": "infinite"
			}
		},
		"methodIdentifiers": {
			"set(uint256,string,uint256,string)": "b1405b58"
		}
	},
	"abi": [
		{
			"inputs": [
				{
					"internalType": "uint256",
					"name": "id",
					"type": "uint256"
				},
				{
					"internalType": "string",
					"name": "name",
					"type": "string"
				},
				{
					"internalType": "uint256",
					"name": "car_number",
					"type": "uint256"
				},
				{
					"internalType": "string",
					"name": "owner_name",
					"type": "string"
				}
			],
			"name": "set",
			"outputs": [],
			"stateMutability": "nonpayable",
			"type": "function"
		}
	]
}