{
	"data": {
		"bytecode": {
			"linkReferences": {},
			"object": "60806040526040518060400160405280600181526020016002815250600090600261002b92919061003e565b5034801561003857600080fd5b5061009b565b826002810192821561006d579160200282015b8281111561006c578251825591602001919060010190610051565b5b50905061007a919061007e565b5090565b5b8082111561009757600081600090555060010161007f565b5090565b61017e806100aa6000396000f3fe608060405234801561001057600080fd5b506004361061002b5760003560e01c8063ae6b002b14610030575b600080fd5b61003861004e565b60405161004591906100fe565b60405180910390f35b6000806040518060400160405280600381526020016004815250905060006002806020026040519081016040528092919082600280156100a3576020028201915b81548152602001906001019080831161008f575b50505050509050600a60006001600281106100c1576100c0610119565b5b0181905550806001600281106100da576100d9610119565b5b602002015191505090565b6000819050919050565b6100f8816100e5565b82525050565b600060208201905061011360008301846100ef565b92915050565b7f4e487b7100000000000000000000000000000000000000000000000000000000600052603260045260246000fdfea264697066735822122091916255707fcc3a8682aa5522021e7d010458930c31a1faa73622537c487d7a64736f6c634300080f0033",
			"opcodes": "PUSH1 0x80 PUSH1 0x40 MSTORE PUSH1 0x40 MLOAD DUP1 PUSH1 0x40 ADD PUSH1 0x40 MSTORE DUP1 PUSH1 0x1 DUP2 MSTORE PUSH1 0x20 ADD PUSH1 0x2 DUP2 MSTORE POP PUSH1 0x0 SWAP1 PUSH1 0x2 PUSH2 0x2B SWAP3 SWAP2 SWAP1 PUSH2 0x3E JUMP JUMPDEST POP CALLVALUE DUP1 ISZERO PUSH2 0x38 JUMPI PUSH1 0x0 DUP1 REVERT JUMPDEST POP PUSH2 0x9B JUMP JUMPDEST DUP3 PUSH1 0x2 DUP2 ADD SWAP3 DUP3 ISZERO PUSH2 0x6D JUMPI SWAP2 PUSH1 0x20 MUL DUP3 ADD JUMPDEST DUP3 DUP2 GT ISZERO PUSH2 0x6C JUMPI DUP3 MLOAD DUP3 SSTORE SWAP2 PUSH1 0x20 ADD SWAP2 SWAP1 PUSH1 0x1 ADD SWAP1 PUSH2 0x51 JUMP JUMPDEST JUMPDEST POP SWAP1 POP PUSH2 0x7A SWAP2 SWAP1 PUSH2 0x7E JUMP JUMPDEST POP SWAP1 JUMP JUMPDEST JUMPDEST DUP1 DUP3 GT ISZERO PUSH2 0x97 JUMPI PUSH1 0x0 DUP2 PUSH1 0x0 SWAP1 SSTORE POP PUSH1 0x1 ADD PUSH2 0x7F JUMP JUMPDEST POP SWAP1 JUMP JUMPDEST PUSH2 0x17E DUP1 PUSH2 0xAA PUSH1 0x0 CODECOPY PUSH1 0x0 RETURN INVALID PUSH1 0x80 PUSH1 0x40 MSTORE CALLVALUE DUP1 ISZERO PUSH2 0x10 JUMPI PUSH1 0x0 DUP1 REVERT JUMPDEST POP PUSH1 0x4 CALLDATASIZE LT PUSH2 0x2B JUMPI PUSH1 0x0 CALLDATALOAD PUSH1 0xE0 SHR DUP1 PUSH4 0xAE6B002B EQ PUSH2 0x30 JUMPI JUMPDEST PUSH1 0x0 DUP1 REVERT JUMPDEST PUSH2 0x38 PUSH2 0x4E JUMP JUMPDEST PUSH1 0x40 MLOAD PUSH2 0x45 SWAP2 SWAP1 PUSH2 0xFE JUMP JUMPDEST PUSH1 0x40 MLOAD DUP1 SWAP2 SUB SWAP1 RETURN JUMPDEST PUSH1 0x0 DUP1 PUSH1 0x40 MLOAD DUP1 PUSH1 0x40 ADD PUSH1 0x40 MSTORE DUP1 PUSH1 0x3 DUP2 MSTORE PUSH1 0x20 ADD PUSH1 0x4 DUP2 MSTORE POP SWAP1 POP PUSH1 0x0 PUSH1 0x2 DUP1 PUSH1 0x20 MUL PUSH1 0x40 MLOAD SWAP1 DUP2 ADD PUSH1 0x40 MSTORE DUP1 SWAP3 SWAP2 SWAP1 DUP3 PUSH1 0x2 DUP1 ISZERO PUSH2 0xA3 JUMPI PUSH1 0x20 MUL DUP3 ADD SWAP2 JUMPDEST DUP2 SLOAD DUP2 MSTORE PUSH1 0x20 ADD SWAP1 PUSH1 0x1 ADD SWAP1 DUP1 DUP4 GT PUSH2 0x8F JUMPI JUMPDEST POP POP POP POP POP SWAP1 POP PUSH1 0xA PUSH1 0x0 PUSH1 0x1 PUSH1 0x2 DUP2 LT PUSH2 0xC1 JUMPI PUSH2 0xC0 PUSH2 0x119 JUMP JUMPDEST JUMPDEST ADD DUP2 SWAP1 SSTORE POP DUP1 PUSH1 0x1 PUSH1 0x2 DUP2 LT PUSH2 0xDA JUMPI PUSH2 0xD9 PUSH2 0x119 JUMP JUMPDEST JUMPDEST PUSH1 0x20 MUL ADD MLOAD SWAP2 POP POP SWAP1 JUMP JUMPDEST PUSH1 0x0 DUP2 SWAP1 POP SWAP2 SWAP1 POP JUMP JUMPDEST PUSH2 0xF8 DUP2 PUSH2 0xE5 JUMP JUMPDEST DUP3 MSTORE POP POP JUMP JUMPDEST PUSH1 0x0 PUSH1 0x20 DUP3 ADD SWAP1 POP PUSH2 0x113 PUSH1 0x0 DUP4 ADD DUP5 PUSH2 0xEF JUMP JUMPDEST SWAP3 SWAP2 POP POP JUMP JUMPDEST PUSH32 0x4E487B7100000000000000000000000000000000000000000000000000000000 PUSH1 0x0 MSTORE PUSH1 0x32 PUSH1 0x4 MSTORE PUSH1 0x24 PUSH1 0x0 REVERT INVALID LOG2 PUSH5 0x6970667358 0x22 SLT KECCAK256 SWAP2 SWAP2 PUSH3 0x55707F 0xCC GASPRICE DUP7 DUP3 0xAA SSTORE 0x22 MUL 0x1E PUSH30 0x10458930C31A1FAA73622537C487D7A64736F6C634300080F0033000000 "
		},
		"gasEstimates": {
			"creation": {
				"codeDepositCost": "76400",
				"executionCost": "infinite",
				"totalCost": "infinite"
			},
			"external": {
				"assignment6()": "infinite"
			}
		},
		"methodIdentifiers": {
			"assignment6()": "ae6b002b"
		}
	},
	"abi": [
		{
			"inputs": [],
			"name": "assignment6",
			"outputs": [
				{
					"internalType": "int256",
					"name": "",
					"type": "int256"
				}
			],
			"stateMutability": "nonpayable",
			"type": "function"
		}
	]
}