{
	"data": {
		"bytecode": {
			"linkReferences": {},
			"object": "608060405234801561001057600080fd5b50610112806100206000396000f3fe6080604052348015600f57600080fd5b506004361060285760003560e01c8063303b519214602d575b600080fd5b60336047565b604051603e919060c3565b60405180910390f35b600080600190508091505090565b7f4e487b7100000000000000000000000000000000000000000000000000000000600052602160045260246000fd5b6002811060925760916055565b5b50565b600081905060a1826084565b919050565b600060af826095565b9050919050565b60bd8160a6565b82525050565b600060208201905060d6600083018460b6565b9291505056fea264697066735822122022e57ba3e2073b04551330a3844fd6403dc26285e6a974f22a46fad3d551799264736f6c634300080f0033",
			"opcodes": "PUSH1 0x80 PUSH1 0x40 MSTORE CALLVALUE DUP1 ISZERO PUSH2 0x10 JUMPI PUSH1 0x0 DUP1 REVERT JUMPDEST POP PUSH2 0x112 DUP1 PUSH2 0x20 PUSH1 0x0 CODECOPY PUSH1 0x0 RETURN INVALID PUSH1 0x80 PUSH1 0x40 MSTORE CALLVALUE DUP1 ISZERO PUSH1 0xF JUMPI PUSH1 0x0 DUP1 REVERT JUMPDEST POP PUSH1 0x4 CALLDATASIZE LT PUSH1 0x28 JUMPI PUSH1 0x0 CALLDATALOAD PUSH1 0xE0 SHR DUP1 PUSH4 0x303B5192 EQ PUSH1 0x2D JUMPI JUMPDEST PUSH1 0x0 DUP1 REVERT JUMPDEST PUSH1 0x33 PUSH1 0x47 JUMP JUMPDEST PUSH1 0x40 MLOAD PUSH1 0x3E SWAP2 SWAP1 PUSH1 0xC3 JUMP JUMPDEST PUSH1 0x40 MLOAD DUP1 SWAP2 SUB SWAP1 RETURN JUMPDEST PUSH1 0x0 DUP1 PUSH1 0x1 SWAP1 POP DUP1 SWAP2 POP POP SWAP1 JUMP JUMPDEST PUSH32 0x4E487B7100000000000000000000000000000000000000000000000000000000 PUSH1 0x0 MSTORE PUSH1 0x21 PUSH1 0x4 MSTORE PUSH1 0x24 PUSH1 0x0 REVERT JUMPDEST PUSH1 0x2 DUP2 LT PUSH1 0x92 JUMPI PUSH1 0x91 PUSH1 0x55 JUMP JUMPDEST JUMPDEST POP JUMP JUMPDEST PUSH1 0x0 DUP2 SWAP1 POP PUSH1 0xA1 DUP3 PUSH1 0x84 JUMP JUMPDEST SWAP2 SWAP1 POP JUMP JUMPDEST PUSH1 0x0 PUSH1 0xAF DUP3 PUSH1 0x95 JUMP JUMPDEST SWAP1 POP SWAP2 SWAP1 POP JUMP JUMPDEST PUSH1 0xBD DUP2 PUSH1 0xA6 JUMP JUMPDEST DUP3 MSTORE POP POP JUMP JUMPDEST PUSH1 0x0 PUSH1 0x20 DUP3 ADD SWAP1 POP PUSH1 0xD6 PUSH1 0x0 DUP4 ADD DUP5 PUSH1 0xB6 JUMP JUMPDEST SWAP3 SWAP2 POP POP JUMP INVALID LOG2 PUSH5 0x6970667358 0x22 SLT KECCAK256 0x22 0xE5 PUSH28 0xA3E2073B04551330A3844FD6403DC26285E6A974F22A46FAD3D55179 SWAP3 PUSH5 0x736F6C6343 STOP ADDMOD 0xF STOP CALLER "
		},
		"gasEstimates": {
			"creation": {
				"codeDepositCost": "54800",
				"executionCost": "105",
				"totalCost": "54905"
			},
			"external": {
				"doSomeWork()": "423"
			}
		},
		"methodIdentifiers": {
			"doSomeWork()": "303b5192"
		}
	},
	"abi": [
		{
			"inputs": [],
			"name": "doSomeWork",
			"outputs": [
				{
					"internalType": "enum special.Gender",
					"name": "",
					"type": "uint8"
				}
			],
			"stateMutability": "view",
			"type": "function"
		}
	]
}